:100000000C94EF0B0C94200C0C94200C0C94200CF2
:100010000C94200C0C94200C0C94200C0C94200CB0
:100020000C94200C0C94200C0C94200C0C94200CA0
:100030000C94200C0C94200C0C94200C0C94200C90
:100040000C94200C0C94575A0C94200C0C94200CFB
:100050000C94200C0C94200C0C9404650C94796383
:100060000C94200C0C940F210C94200C0C94200C5C
:100070000C94200C0C94200C0C94200C0C94200C50
:100080000C94200C0C94200C0C94200C0C94200C40
:100090000C94200C0C94200C0C94200C0C94200C30
:1000A0000C94200C0C94200C0C94200C0C94200C20
:1000B0000C94200C0C94200C0C94200C0C94200C10
:1000C0000C94200C0C94200C0C94200C0C94E876CE
:1000D0000C94BF760C94200C0C94200C0C94200CE7
:1000E0000C94200C8ABA49BB80BA9CBB6DBA4CBB3D
:1000F00075BB6FBB72BB72BB72BB72BB72BB6965F7
:10010000766592659F65B965C665E065E2655E7472
:100110006174507454745A749874657469746F740B
:10012000737477747D748174857498748B748F7410
:100130009374D877DD77E277EC77F6776F7800788D
:10014000087810781A7824782E783D7847786F7878
:1001500051785B786578084AD73B3BCE016E84BC0A
:10016000BFFDC12F3D6C74319ABD56833DDA3D0011
:10017000C77F11BED9E4BB4C3E916BAAAABE00005A
:1001800000803F05A84CCDB2D44EB93836A9020C38
:1001900050B9918688083CA6AAAA2ABE0000008011
:1001A0003F004E414E494E495459494E46CDCCCC64
:1001B0003D0AD7233C17B7D13877CC2B329595E63B
:1001C000241FB14F0A000020410000C84200401C1B
:1001D0004620BCBE4CCA1B0E5AAEC59D7400407A68
:1001E00010F35A00A0724E18090010A5D4E80000C0
:1001F000E87648170000E40B54020000CA9A3B005E
:100200000000E1F505000080969800000040420FD4
:10021000000000A08601000000102700000000E898
:1002200003000000006400000000000A000000005D
:10023000000100000000002C76D888DC674F0823FE
:10024000DFC1DFAE59E1B1B796E5E3E453C63AE664
:1002500051997696E8E6C28426EB898C9B62ED4044
:100260007C6FFCEFBC9C9F40F2BAA56FA5F4900593
:100270005A2AF75C936B6CF9676DC11BFCE0E40DC7
:1002800047FEF520E6B500D0ED902E0300943577BB
:10029000050080841E080000204E0A000000C80CE3
:1002A000333333330F986E12831141EF8D2114894C
:1002B0003BE65516CFFEE6DB18D1844B381BF77CA6
:1002C0001D901DA4BBE424203284725E228100C9EB
:1002D000F124ECA1E53D272F005344207072696E94
:1002E00074696E67206279746520004E6F742053C4
:1002F00044207072696E74696E67002E0044656CEC
:100300006574696F6E206661696C65642C2046694E
:100310006C653A200046696C652064656C6574659F
:10032000643A002E006F70656E206661696C6564CA
:100330002C2046696C653A20005049442041757470
:100340006F74756E652066696E69736865642120D7
:1003500050757420746865204B702C204B692061A7
:100360006E64204B6420636F6E7374616E747320CF
:10037000696E746F20436F6E666967757261746928
:100380006F6E2E6800504944204175746F74756E0D
:1003900065206661696C6564212074696D656F759F
:1003A000740020403A006F6B20543A006F6B20427B
:1003B0003A00504944204175746F74756E6520662B
:1003C00061696C6564212054656D70657261747536
:1003D000726520746F6F206869676800204B643A0B
:1003E0002000204B693A2000204B703A2000204327
:1003F0006C617369632050494420002054753A2091
:1004000000204B753A2000206D61783A2000206D65
:10041000696E3A200020643A200020626961733AD4
:1004200020002200556E6B6E6F776E20636F6D6DCE
:10043000616E643A202200486F74656E64206F66B6
:1004400066736574733A007A5F6D696E3A2000795D
:100450005F6D696E3A2000785F6D61783A200078B0
:100460005F6D696E3A20005A3A00593A0020436F96
:10047000756E7420583A2000453A005A3A00593AAD
:1004800000583A004649524D574152455F4E414D42
:10049000453A4D61726C696E2056313B2053707243
:1004A000696E7465722F6772626C206D6173687516
:1004B0007020666F722067656E36204649524D5730
:1004C0004152455F55524C3A68747470733A2F2FFD
:1004D0007777772E6769746875622E636F6D2F74F6
:1004E000656E6C6F672050524F544F434F4C5F56B0
:1004F000455253494F4E3A312E302E30204D414314
:1005000048494E455F545950453A544C2033442095
:100510005072696E74657220455854525544455264
:100520005F434F554E543A320A002042403A002071
:10053000403A00202F0020423A00202F006F6B200D
:10054000543A002569206D696E2C20256920736559
:100550006300456E642066696C65206C6973740085
:10056000426567696E2066696C65206C697374000A
:1005700053657474696E67732053746F7265640099
:100580005A323A00457874656E646572204F66662B
:100590007365743A0059323A00457874656E646543
:1005A00072204F66667365743A0058323A0053659C
:1005B000636F6E64657279204D617820506F733A75
:1005C000002044002049002020204D3330312050AD
:1005D000005049442073657474696E67733A002053
:1005E0005A0020590020204D323036205800486FE4
:1005F0006D65206F666673657420286D6D293A00FD
:10060000204500205A00205800204200205400209D
:10061000204D323035205300416476616E6365644D
:10062000207661726961626C65733A20533D4D6951
:100630006E20666565647261746520286D6D2F7328
:10064000292C20543D4D696E2074726176656C20B2
:10065000666565647261746520286D6D2F73292C41
:1006600020423D6D696E696D756D207365676D65BE
:100670006E742074696D6520286D73292C20583D97
:100680006D6178696D756D205859206A65726B20AF
:10069000286D6D2F73292C20205A3D6D6178696D6E
:1006A000756D205A206A65726B20286D6D2F732935
:1006B0002C2020453D6D6178696D756D2045206A5F
:1006C00065726B20286D6D2F732900205400202047
:1006D0004D323034205300416363656C6572617440
:1006E000696F6E3A20533D616363656C6572617436
:1006F000696F6E2C20543D72657472616374206161
:100700006363656C65726174696F6E0020450020DB
:100710005A0020590020204D3230312058004D61C0
:1007200078696D756D20416363656C65726174698C
:100730006F6E20286D6D2F7332293A0020450020FE
:100740005A0020590020204D3230332058004D618E
:1007500078696D756D206665656472617465732076
:10076000286D6D2F73293A00204500205A0020592A
:100770000020204D3932205800537465707320706A
:10078000657220756E69743A0053746F72656420E7
:1007900073657474696E67732072657472696576C7
:1007A00065640048617264636F64656420446566D3
:1007B00061756C742053657474696E6773204C6F37
:1007C00061646564006563686F3A002020506C6165
:1007D0006E6E657242756666657242797465733ACB
:1007E00020002046726565204D656D6F72793A2054
:1007F00000417072202031203230323100436F6D61
:1008000070696C65643A200054656E6C6F670020F7
:100810007C20417574686F723A200041707220200C
:100820003120323032312030313A31333A313700F1
:10083000204C61737420557064617465643A2000C3
:10084000534E00312E302E3230004D61726C696E85
:10085000200020536F66747761726520526573655E
:100860007400205761746368646F67205265736514
:1008700074002042726F776E206F7574205265731A
:100880006574002045787465726E616C20526573E2
:10089000657400506F77657255700073746172747F
:1008A000006563686F3A00256920686F7572732070
:1008B0002569206D696E7574657300446F6E6520DF
:1008C0007072696E74696E672066696C650050723B
:1008D000696E7465722073746F70706564206475DE
:1008E0006520746F206572726F72732E204669786E
:1008F00020746865206572726F7220616E64207565
:100900007365204D39393920746F207265737461B5
:1009100072742E202854656D7065726174757265ED
:100920002069732072657365742E20536574206985
:100930007420616674657220726573746172746983
:100940006E6729004E6F204C696E65204E756D6292
:100950006572207769746820636865636B73756D71
:100960002C204C617374204C696E653A20004E6FE8
:1009700020436865636B73756D2077697468206CBC
:10098000696E65206E756D6265722C204C617374A2
:10099000204C696E653A2000636865636B73756D02
:1009A000206D69736D617463682C204C61737420D1
:1009B0004C696E653A20004C696E65204E756D621B
:1009C0006572206973206E6F74204C617374204CC3
:1009D000696E65204E756D6265722B312C204C61FD
:1009E0007374204C696E653A20004572726F723ADA
:1009F000004D313130006572726F72207772697408
:100A0000696E6720746F2066696C6500205A3A0031
:100A100020593A0020583A00656E6473746F707301
:100A2000206869743A20006563686F3A00446F6E0D
:100A30006520736176696E672066696C652E006F4C
:100A40006B004D3239007C3C3E5E2B3D3F2F5B5DA1
:100A50003B2C2A225C004732382058004D36303576
:100A6000205331005430005431002200656E7175FE
:100A700065696E672022002200656E717565696E7A
:100A8000672022004732382058004D313033310082
:100A90004732382058004D363035205331004D3123
:100AA000303333004E65772056616C756520457292
:100AB00072200025730057726974696E6720746F25
:100AC0002066696C653A20002E006F70656E2066A6
:100AD00061696C65642C2046696C653A20002E00C3
:100AE0006F70656E206661696C65642C2046696C68
:100AF000653A200046696C652073656C65637465B2
:100B000064002053697A653A200046696C65206F5D
:100B100070656E65643A20002E006F70656E206609
:100B200061696C65642C2046696C653A2000534409
:100B30002063617264206F6B006F70656E526F6F1F
:100B400074206661696C656400766F6C756D652EE6
:100B5000696E6974206661696C6564004572726FC4
:100B6000723A00534420696E6974206661696C00B2
:100B70006563686F3A0024F4D43050C38E20C2A25B
:100B80004017828B7011127A910D816CD90AA8617D
:100B9000E108C7586607615143061E4B5D05C14514
:100BA000A7041A411104093D9803713931034036F5
:100BB000DB0265339102D4305402802E1D02632C77
:100BC000EE01752AC501B028A001102781018F25EB
:100BD00064012B244B01E0223401AC211F018D2044
:100BE0000D01801FFC00841EED00971DDF00B81C66
:100BF000D200E61BC600201BBC00641AB200B2196A
:100C0000A8000A19A0006A189900D117910040178E
:100C10008B00B516840031167E00B31579003A15A5
:100C20007300C7146F0058146A00EE13660088132F
:100C3000630025135E00C7125B006C12570015128B
:100C40005400C111510070114F0021114B00D610FA
:100C500049008D1047004610440002104200C00FAA
:100C60004000800F3E00420F3C00060F3B00CB0EC1
:100C70003800930E37005C0E3500270E3400F30D5C
:100C80003200C10D3100900D3000600D2E00320D8C
:100C90002D00050D2C00D90C2B00AE0C2900850C65
:100CA00029005C0C2700350C27000E0C2600E80BF1
:100CB0002400C40B2400A00B23007D0B23005A0B3F
:100CC0002100390B2100180B2000F80A1F00D90A57
:100CD0001E00BB0A1E009D0A1D00800A1D00630A3B
:100CE0001C00470A1B002C0A1B00110A1A00F709F6
:100CF0001A00DD091900C4091900AB09190092098D
:100D000017007B091800630917004C091600360903
:100D10001600200916000A091500F5081500E0085C
:100D20001400CC081400B8081400A408140090089B
:100D300013007D0812006B081300580812004608C3
:100D400012003408110023081100120811000108D4
:100D50001100F0071000E0071000D0071000C007D6
:100D60001000B0070F00A107100091070E008307C5
:100D70000F0074070F0065070E0057070E004907A4
:100D80000E003B070D002E070E0020070D00130775
:100D90000D0006070D00F9060C00ED060D00E0063B
:100DA0000C00D4060C00C8060C00BC060C00B006F3
:100DB0000C00A4060B0099060C008D060B008206A1
:100DC0000B0077060B006C060B0061060A00570645
:100DD0000B004C060A0042060A0038060A002E06DE
:100DE0000A0024060A001A060A001006090007066F
:100DF0000A00FD050900F4050900EB050900E205FC
:100E00000900D9050900D0050900C7050900BE057C
:100E10000900B5050800AD050800A50509009C05F9
:100E20000800940508008C050800840508007C056E
:100E30000800740508006C050700650508005D05DD
:100E40000700560508004E05070047050700400546
:100E5000080038050700310507002A0507002305AB
:100E600007001C050600160507000F05070008050A
:100E7000060002050700FB040600F5040700EE0467
:100E80000600E8040600E2040700DB040600D504BF
:100E90000600CF040600C9040600C3040600BD0412
:100EA0000600B7040600B1040500AC040600A60461
:100EB0000600A00405009B040600950405009004AC
:100EC00006008A04050085040500800406007A04F3
:100ED000050075040500700405006B040500660438
:100EE0000500610405005C04050057040500520478
:100EF00005004D04050048040500430405003E04B8
:100F000004003A04050035040500300404002C04F4
:100F1000050027040400230405001E0404001A042D
:100F2000040016040500110404000D040400090463
:100F300005000404040000040400FC030400F8039A
:100F40000400F4030400F0030400EC030400E803CD
:100F50000400E4030400E0030400DC030400D803FD
:100F60000400D4030400D0030400CC030400C8032D
:100F70000300C503030024F404D9201BC40C5C0E39
:100F80009804C4095F0265077101F405F900FB04C8
:100F9000B30048048700C1036900580355000303E8
:100FA0004500BE023A008402310053022A002902A1
:100FB000250004022000E4011C00C8011900AF0153
:100FC00017009801140084011300710110006101E1
:100FD000100051010E0043010D0036010B002B01E2
:100FE0000B0020010B00150109000C010900030191
:100FF0000800FB000800F3000800EB000700E40015
:101000000600DE000600D8000600D2000600CC0074
:101010000500C7000500C2000500BD000400B900BE
:101020000400B5000400B1000400AD000400A900F4
:101030000400A5000300A20003009F0004009B0021
:101040000300980003009500020093000300900045
:1010500003008D0002008B00030088000200860060
:10106000020084000300810002007F0002007D0076
:1010700002007B0002007900020077000100760088
:1010800002007400020072000100710002006F0093
:1010900002006D0001006C0002006A00010069009E
:1010A00002006700010066000100650001006400A5
:1010B00002006200010061000100600001005F00A9
:1010C00002005D0001005C0001005B0001005A00AD
:1010D00001005900010058000100570001005600AE
:1010E00001005500010054000100530000005300AE
:1010F00001005200010051000100500001004F00AA
:1011000001004E0000004E0001004D0001004C00A7
:1011100001004B0000004B0001004A0001004900A3
:10112000010048000000480001004700010046009F
:101130000000460001004500000045000100440099
:101140000100430000004300010042000000420093
:1011500001004100000041000100400001003F008B
:1011600000003F0001003E0000003E0001003D0085
:1011700000003D0001003C0000003C0000003C007D
:1011800001003B0000003B0001003A0000003A0073
:10119000010039000000390001003800000038006B
:1011A0000000380001003700000037000100360061
:1011B0000000360000003600010035000000350058
:1011C000000035000100340000003400000034004D
:1011D0000100330000003300000033000100320042
:1011E0000000320000003200010031000000310038
:1011F000000031000100300000003000000030002D
:1012000001002F0000002F0000002F0000002F0021
:1012100001002E0000002E0000002E0001002D0015
:1012200000002D0000002D0000002D0001002C000A
:1012300000002C0000002C0000002C0001002B00FE
:1012400000002B0000002B0000002B0001002A00F2
:1012500000002A0000002A0000002A0001002900E6
:1012600000002900000029000000290000002900DA
:1012700001002800000028000000280000002800CD
:1012800000002800010027000000270000002700C0
:1012900000002700000027000100260000002600B3
:1012A00000002600000026000000260001002500A6
:1012B000000025000000250000002500000025009A
:1012C000000025000100240000002400000024008C
:1012D000000024000000240001002300000023007F
:1012E0000000230000002300000023000000230072
:1012F0000000230001002200000022000000220064
:101300000000220000002200000022000100210055
:101310000000210000002100000021000000210049
:10132000000021000000210001002000000020003A
:10133000000020000000200000002000000020002D
:10134000000020000000200001001F0000001F001E
:1013500000001F0000001F0000001F0000001F0011
:1013600000001F0001001E0000001E0000001E0003
:1013700000001E0000006563686F3A00202D2049C0
:101380006E76616C6964206578747275646572202C
:101390006E756D62657220210070012C019001272D
:1013A00001B0012201C0011D01F00118011002135A
:1013B0000130020E016002090190020401C002FF27
:1013C000000003FA004003F5008003F000D003EBB7
:1013D000002004E6007004E100E004DC004005D7D2
:1013E00000C005D2004006CD00D006C8008007C36B
:1013F000003008BE00F008B900C009B400B00AAF60
:1014000000B00BAA00D00CA500000EA000500F9B4E
:1014100000C01096005012910000148C00C0158777
:1014200000B0178200B0197D00D01B7800001E7339
:101430000040206E0090226900F024640040275F85
:101440000090295A00E02B5500102E500020304B00
:101450000010324600E033410090353C0010373731
:101460000070383200A0392D00B03A2800A03B238C
:1014700000603C1E00103D1900903D1400103E0F0E
:1014800000703E0A00C03E0500003F00003A2045C3
:1014900078747275646572207377697463686564C3
:1014A000206F66662E204D415854454D5020747271
:1014B000696767657265642021003A204578747217
:1014C00075646572207377697463686564206F66FC
:1014D000662E204D494E54454D5020747269676701
:1014E0006572656420210054656D70657261747564
:1014F0007265206865617465642062656420737735
:10150000697463686564206F66662E204D41585487
:10151000454D5020747269676765726564202121AA
:101520000054656D706572617475726520686561DF
:1015300074656420626564207377697463686564A8
:10154000206F66662E204D494E54454D50207472D2
:1015500069676765726564202121004572726F7248
:101560003A005072696E7465722068616C746564CB
:101570002E206B696C6C28292063616C6C6564217A
:10158000005072696E7465722073746F7070656458
:101590002064756520746F206572726F72732E20DF
:1015A00046697820746865206572726F7220616E7A
:1015B0006420757365204D39393920746F20726548
:1015C00073746172742E202854656D706572617435
:1015D0007572652069732072657365742E2053657A
:1015E0007420697420616674657220726573746119
:1015F0007274696E672900000048C2000000000094
:1016000000000000004040000040400000003F009B
:10161000002100240027002A002D003000330001A3
:10162000010000040107010A010000220025002832
:10163000002B002E003100340002010000050108DB
:10164000010B01000020002300260029002C002FA0
:101650000032000001000003010601090105050533
:1016600005070508080808020202020A0A08080419
:101670000404040101010101010101030303030347
:10168000030303040707070C0C0C0C0C0C0C0C02D6
:1016900002020206060606060606060B0B0B0B0BDD
:1016A0000B0B0B01021020200808102040102040D6
:1016B0008002010201080402010102040810204016
:1016C0008080402010080402018004020180402034
:1016D000100804020108040201010204081020405D
:1016E00080010204081020408000000A0B02090C4F
:1016F0000D0E0807030401000000000000000000B8
:1017000000000000000000000000000000000000D9
:101710000000000000121110000000000000000096
:101720000000000000000000000000000000004D6C
:101730003234004D3233202573006175746F256992
:101740002E670020746F6F206C6F6E672065787451
:10175000727573696F6E2070726576656E746564FC
:101760000020636F6C6420657874727573696F6EA6
:101770002070726576656E746564006563686F3AA3
:1017800000526573656E643A20006F6B00486F7499
:10179000656E64206F6666736574733A0020423A22
:1017A0000020453A00543A0020573A0020453A00BC
:1017B000543A00FFFFFF00C00A44000002440080CA
:1017C00018440080FC4300000244008018440000DC
:1017D00048C2000000000000000080BF3CBF112490
:1017E0001FBECFEFD1E2DEBFCDBF00E00CBF15E0E2
:1017F000A0E0B2E0E2ECF1EB01E00BBF02C0079029
:101800000D92A438B107D9F728E1A4E8B5E001C0EA
:101810001D92A234B207E1F71BE0CEEEDBE000E060
:1018200006C021970109802FFE010E946DD7CD3E91
:10183000D10780E00807A9F70E942DB10C94D0D8F9
:101840000C9400002F923F924F925F926F927F9282
:101850008F929F92AF92BF92CF92DF92EF92FF92C0
:101860000F931F93CF93DF93CDB7DEB7CD56D1093A
:101870000FB6F894DEBF0FBECDBF80913F06882320
:1018800041F00E94DB551092621510926115109282
:101890003F0687E40E94B8AED82E882309F48EC094
:1018A0000E94DEAE0E94FAD46430710509F476C05D
:1018B000F4F46230710509F45EC00CF064C077FF87
:1018C00002C00C94511D812C912CA0E8AA2EAFE4EB
:1018D000BA2EA3ECCA2EA7ECDA2E86017501A6015A
:1018E0009501C601B5010E94C5950C94511D6A353C
:1018F000710509F45AC02CF56C31710511F00C9486
:10190000511D6FE672E183E89AE30E941CB06FE616
:1019100072E183E89AE30E941CB06FE672E183E80B
:101920009AE30E941CB06FE672E183E89AE30E949A
:101930001CB060E070E080E090E00E9437A20C9460
:10194000511D6B357105A9F16C35710511F00C94C1
:10195000511DF0E8AF2EFFE4BF2EF3ECCF2EF7ECD5
:10196000DF2E86017501A6019501C601B5010E9411
:10197000E7AE0C94511D80912406811104C00E9491
:101980001A9581E007C080912406811107C00E944A
:101990001A9580E00E94D98C0C94741F60E070E06E
:1019A000CB010E941CB00C94511D1092AA170C94EC
:1019B000511D81E08093AA170C94511D8DE40E9463
:1019C000B8AE882311F40C94031D0E94DEAE0E9471
:1019D000FAD46737710509F494C10CF0C4C06032C1
:1019E000710509F434C40CF054C06731710509F471
:1019F000EDC1BCF56231710509F455C624F577FFD8
:101A000002C00C94511D623071050CF47DC161312E
:101A1000710511F00C94511D5F9847988A989FB7F3
:101A2000F894809108018E7F809308019FBF9FB733
:101A3000F894809108018B7F809308019FBF8D9857
:101A400012980C94511D6531710509F4B3C10CF065
:101A5000B5C16431710511F00C94511DE0E6F5E05B
:101A600060C16B31710509F4F6C13CF4693171054F
:101A700009F4DDC10CF4C5C1E0C16E31710509F492
:101A800074C20CF056C46C31710509F438C20C9460
:101A9000511D6C35710509F439C69CF56235710527
:101AA00009F4F8C564F46035710509F4E9C50CF072
:101AB000EBC56A32710509F496C40C94511D643566
:101AC000710509F4F0C50CF4E9C56535710511F02F
:101AD0000C94511D83E50E94B8AE0E94DEAE20E05A
:101AE00030E04AE754E40E9438C80E9400D5609371
:101AF0001B1270931C1280931D1290931E120C9453
:101B0000511D6B36710509F4B5C59CF46936710534
:101B100009F4B1C40CF05EC56836710511F00C947F
:101B2000511D6FEF7FEF8FEF9FEF0E94F99E0C9496
:101B3000511D6237710509F497C65CF46D36710565
:101B400011F00C94511D8FEF9FEF0E947A9B0C9423
:101B5000511D6337710509F461C66537710509F4D4
:101B60006CC60C94511D6F3221E0720711F40C9475
:101B70004B180CF062C06D3C710511F40C941816F2
:101B800044F56E3B710509F41FC564F469377105AE
:101B900009F44DC70CF446C76C38710509F441C40B
:101BA0000C94511D6B3C710511F40C94DB1514F071
:101BB0000C94F815693C710511F00C94511D3CE42E
:101BC000E32E3CE0F32E03ED12E044E0D42ED00EE1
:101BD000DAC76D3D710511F40C946017D4F46A3DB9
:101BE000710511F40C948B166C3D710511F40C9475
:101BF00051176E3C710511F00C94511D1BECE12E38
:101C000017E1F12E03ED12E083E0D82ED00E0C94F4
:101C10007C166D3241E0740711F40C946F1714F0C8
:101C20000C943718623E710511F00C94511D81E03F
:101C300090E00E947A700C94511D673E83E0780713
:101C400011F40C94EB1C6CF5663FA1E07A0711F4DB
:101C50000C94861B94F4643FE1E07E0711F40C942D
:101C6000801B14F00C94831B6039714011F00C94AC
:101C7000511D0E94495A0C94511D6D3532E0730775
:101C800011F40C948B1B603A43E0740709F418C3F9
:101C9000673F714011F00C94511D0E940E240C946A
:101CA000511D673084E0780711F40C94931C9CF468
:101CB0006F3FA3E07A0711F40C94B21B6115B4E0F6
:101CC0007B0711F40C94CA1B693E734011F00C940D
:101CD000511D0C94901B6930F4E07F0711F40C94B3
:101CE000901C14F40C94E21B603134E0730711F47F
:101CF0000C94981C6A31744011F40C94C01C0C9420
:101D0000511DE6EEF2E09EC681E090E00E947A70FE
:101D10000C94511D9091C00095FFFCCF8093C6009C
:101D2000319684918111F6CF8091C00085FFFCCF60
:101D30008AE08093C600109257171092561740E021
:101D400050E0BA018BE995E10E9404378BE1EBE9A1
:101D5000F5E1DE01159601900D928A95E1F78091EB
:101D6000991590919A159C838B8387EA92E09A83C8
:101D70008983BE016F5F7F4F83EB94E00E945954CB
:101D8000CE0101960E947352E2E5F5E0849188232A
:101D900041F09091C00095FFFCCF8093C600319632
:101DA000F5CF8091C00085FFFCCF8AE08093C6000C
:101DB0000C94511D0E948C520C94511D109262156E
:101DC00010926115109263150C94511DE090290634
:101DD000F0902A0654E0E50EF11C6AE270E0C701BB
:101DE0000E9498D8009719F0FC013197108200E00A
:101DF00010E0980141E0B701C7010E94E8550C943A
:101E0000511D80916315882331F081E090E090931B
:101E10006215809361150E94B07860939805709365
:101E2000990580939A0590939B050C94511D81E030
:101E300090E00E947A700C94511D80916315882364
:101E400011F40C94511D83E50E94B8AE81110C94DD
:101E5000541D0C94511D80916315882309F439C0D9
:101E6000E9EDF2E08491882341F09091C00095FF64
:101E7000FCCF8093C6003196F5CF60918F1570919D
:101E8000901580919115909192154AE00E94BC782E
:101E9000E7EDF2E08491882341F09091C00095FF36
:101EA000FCCF8093C6003196F5CF60919315709169
:101EB000941580919515909196154AE00E94BC78F2
:101EC0008091C00085FFFCCF8AE08093C6000C940F
:101ED000511DEBEEF2E08491882341F09091C00017
:101EE00095FFFCCF8093C6003196F5CF8091C0005E
:101EF00085FFFCCF8AE08093C6000C94511D809131
:101F0000290690912A066AE270E004960E9498D809
:101F10008C01892BE1F02091C2073091C30740E684
:101F2000429FC001439F900D11246EE470E08E5BD0
:101F3000994F0E9498D860E270E00E9498D801966C
:101F400090932A0680932906F80131971082809198
:101F5000290690912A06049600E010E0980140E0DE
:101F6000BC010E94E8550C94511D80916315882393
:101F700011F40C94511D0E94DB558091290690911B
:101F80002A066AE270E004960E9498D88C01892B98
:101F9000E1F02091C2073091C30740E6429FC001A3
:101FA000439F900D11246EE470E08E5B994F0E9468
:101FB00098D860E270E00E9498D8019690932A0623
:101FC00080932906F801319710820091290610911B
:101FD0002A0680916315882311F40C94511D480141
:101FE00084E0880E911C86E397E10E946C3D10927C
:101FF000621510926115DE0111967D01CD010E94DE
:102000007B5287E995E19093B7158093B615F80157
:1020100084818F3209F08BC06FE270E0C4010E94AE
:1020200098D88C010F5F1F4FEAE0CE2E01151105E5
:1020300009F483C06FE270E0C8010E9498D85C0187
:10204000009709F47BC00817190708F077C03C0116
:10205000601A710AA301B801CE0180960E94C1D80E
:10206000E0E2F0E0EC0FFD1FE60DF71D10828E019F
:10207000005E1F4FF8018191882339F09091C000D4
:1020800095FFFCCF8093C600F6CF8091C00085FFFE
:10209000FCCFC092C6006091B6157091B71561155E
:1020A000710511F06C5F7F4F21E0AE01405E5F4F24
:1020B000CE0105960E94743D811131C0E5E2F3E046
:1020C0008491882371F09091C00095FFFCCF80939C
:1020D000C6003196F5CF9091C00095FFFCCF80935C
:1020E000C600D8018D918D018111F5CFE3E2F3E0B7
:1020F0008491882341F09091C00095FFFCCF80939C
:10210000C6003196F5CF8091C00085FFFCCF8AE0F4
:102110008093C600C7010E9473520C94511DF09227
:10212000B715E092B61585010F5F1F4F7FCF88EB83
:1021300095E19093B7158093B61584016091B6151B
:102140007091B7156115710511F06C5F7F4F18A282
:102150001BA222E0A801CE0180960E94743D882334
:10216000F1F0CE0180960E94EA798823C1F06CA537
:102170007DA58EA59FA541E00E941134882379F0AA
:10218000E8A9B0E2EB9FF0011124E95CFD4E309725
:1021900031F085EE80831BA20E94D133D82ECE0170
:1021A00080960E94BA1FDD2009F1E5E1F3E08491F9
:1021B000882341F09091C00095FFFCCF8093C6002A
:1021C0003196F5CFF8018191882339F09091C000C4
:1021D00095FFFCCF8093C600F6CF10928F1510921A
:1021E000901510929115109292152CC0EDEFF2E01F
:1021F0008491882341F09091C00095FFFCCF80939B
:10220000C6003196F5CFF8018191882339F090917D
:10221000C00095FFFCCF8093C600F6CFEBEFF2E055
:102220008491882341F09091C00095FFFCCF80936A
:10223000C6003196F5CF8091C00085FFFCCF8AE0C3
:102240008093C600C7010E9473520C94511D809167
:10225000611590916215019721F40E94495A0E94DC
:10226000DB55E0902906F0902A06E4E0EE0EF11C22
:102270006AE270E0C7010E9498D8009719F0FC014B
:102280003197108200E010E0980141E0B701C701EA
:102290000E94E85580916315882331F081E090E039
:1022A00090936215809361150E94B07860939805B1
:1022B0007093990580939A0590939B050C94511DFA
:1022C0008091290690912A066AE270E005960E94A4
:1022D00098D88C01892BE1F02091C2073091C30777
:1022E00040E6429FC001439F900D11246EE470E0D0
:1022F0008E5B994F0E9498D860E270E00E9498D857
:10230000019690932A0680932906F801319710824E
:102310008091290690912A06059621E02093601568
:1023200000E010E0980140E0BC010E94E8550C94E8
:10233000511D0E94B07860939C0570939D05809319
:102340009E0590939F050091980510919905209105
:102350009A0530919B05601B710B820B930B28EE45
:1023600033E040E050E00E945FD3CA01B9012CE3A2
:1023700030E040E050E00E945FD37F936F933F9343
:102380002F9383E495E09F938F938E010F5F1F4FF0
:102390001F930F930E9494CDE1EAF8E084910FB669
:1023A000F894DEBF0FBECDBF882349F09091C000E6
:1023B00095FFFCCF8093C60031968491F5CFF8014C
:1023C0008191882339F09091C00095FFFCCF8093D4
:1023D000C600F6CF8091C00085FFFCCF8AE08093D5
:1023E000C6000C94511D83E50E94B8AE882311F4F9
:1023F0000C94511D0E94DEAE6B017C0180E50E94B1
:10240000B8AE882311F40C94511DC701B6010E9487
:10241000FAD46F3F710509F010F40C94651D0C940B
:10242000511D83E50E94B8AE882311F40C94511D10
:102430000E94DEAE6B017C0180919111909192110E
:102440000196BC01990F880B990B0E94C9CD9B0185
:10245000AC01C701B6010E94C3CD87FD02C00C9438
:10246000511DC701B6010E94FAD4709341066093D2
:1024700040060C94511D89E690E00E94E87081119D
:102480000C94511DEDE3F5E08491882341F0909187
:10249000C00095FFFCCF8093C6003196F5CFE09148
:1024A000231234E0E39FF0011124E757FE4E6081D0
:1024B00071818281938141E00E944379EAE3F5E0F2
:1024C0008491882341F09091C00095FFFCCF8093C8
:1024D000C6003196F5CFE0912312F0E0EE0FFF1F1A
:1024E000EE5FF74E60817181072E000C880B990B0F
:1024F0000E94C9CD41E00E944379E6E3F5E0849172
:10250000882341F09091C00095FFFCCF8093C600D6
:102510003196F5CF60918511709186118091871168
:102520009091881141E00E944379E3E3F5E08491C2
:10253000882341F09091C00095FFFCCF8093C600A6
:102540003196F5CF6091400670914106072E000C40
:10255000880B990B0E94C9CD41E00E944379EFE2BC
:10256000F5E08491882341F09091C00095FFFCCF65
:102570008093C6003196F5CFE0912312F0E0E1564A
:10258000FE4E608170E080E090E00E943179EAE2E6
:10259000F5E08491882341F09091C00095FFFCCF35
:1025A0008093C6003196F5CF60919E1170E080E077
:1025B00090E00E9431798091C00085FFFCCF8AE0D5
:1025C0008093C6000C94741F8FEF9FEF0E94AA9F08
:1025D0000C94511D82E50E94B8AE811105C020E027
:1025E00030E040E85FE30BC00E94DEAE0E94FAD408
:1025F00061307105A1F723E333E343E250E483E55F
:10260000A7962FAFA797A8963FAFA897A9964FAFC9
:10261000A997AA965FAFAA970E94B8AE882311F136
:102620000E94DEAEA7962FADA797A8963FADA897BC
:10263000A9964FADA997AA965FADAA970E9438C8F0
:102640000E94FAD46F3F710519F014F06FEF70E03B
:1026500077FF02C060E070E0709331116093301139
:102660000C94511D8FEF90E09093311180933011B5
:102670000C94511D10923111109230110C94511D77
:10268000999AA19A0C94511D61E080E00E948FAE4E
:102690000C94511D1092AE170C94511D81E0809343
:1026A000AE170C94511D83E50E94B8AE8823A1F0AB
:1026B0000E94DEAE20E030E04AE754E40E9438C8D1
:1026C0000E9400D560932B0270932C0280932D0200
:1026D00090932E020C94511D88E50E94B8AE811192
:1026E0000C94681D89E50E94B8AE81110C94681D98
:1026F0008AE50E94B8AE81110C94681D85E40E94A1
:10270000B8AE81110C94681D0C94941D53ED852E68
:1027100052E0952E0FE218E066E7A62E67E1B62E8E
:102720004CE35CE05CAF4BAF312CD4018D914D019B
:102730000E94B8AE882309F45EC0B3E03B1254C0D7
:102740000E94DEAE2B013C0120E030E040EA51E483
:102750000E94C3CD87FF41C0A3019201F8016081AF
:102760007181828193810E9489D46B017C019B01DC
:10277000AC0160916217709163178091641790911A
:1027800065170E9438C8609362177093631780932F
:10279000641790936517A7019601D5016D917D91FE
:1027A0008D919C910E9438C8F5016083718382836A
:1027B0009383ABADBCAD6D917D918D919C910E9449
:1027C000C7CDA70196010E9438C80E9400D5EBAD85
:1027D000FCAD6083718382839383D8014D925D92B7
:1027E0006D927C92139707C00E94DEAEF801608361
:1027F00071838283938333940C5F1F4FF4E0AF0E99
:10280000B11C2BAD3CAD2C5F3F4F3CAF2BAF34E048
:1028100033128BCF0E94E4270C94511DE4E8F4E0BE
:102820008491882311F40C94511D9091C00095FF60
:10283000FCCF8093C6003196F3CF0091290610910A
:102840002A060B5F1F4F6AE270E0C8010E9498D809
:10285000009719F0FC0131971082B8018EEE94E1D7
:102860000E949D750C94511DE1E8F4E08491882349
:1028700041F09091C00095FFFCCF8093C600319647
:10288000F5CF60910F087091100880911108909118
:10289000120842E00E944379EEE7F4E08491882335
:1028A00041F09091C00095FFFCCF8093C600319617
:1028B000F5CF6091130870911408809115089091DC
:1028C000160842E00E944379EBE7F4E08491882304
:1028D00041F09091C00095FFFCCF8093C6003196E7
:1028E000F5CF6091170870911808809119089091A0
:1028F0001A0842E00E944379E8E7F4E084918823D3
:1029000041F09091C00095FFFCCF8093C6003196B6
:10291000F5CF60911B0870911C0880911D08909163
:102920001E0842E00E944379EDE6F4E0849188239A
:1029300041F09091C00095FFFCCF8093C600319686
:10294000F5CF2FB7F8946091FF0770910008809140
:102950000108909102082FBF0E94C9CD20912F0835
:102960003091300840913108509132080E9489D44A
:1029700042E00E944379EAE6F4E08491882341F042
:102980009091C00095FFFCCF8093C6003196F5CFA3
:102990002FB7F8946091030870910408809105089E
:1029A000909106082FBF0E94C9CD20913308309125
:1029B000340840913508509136080E9489D442E08D
:1029C0000E944379E7E6F4E08491882341F09091F6
:1029D000C00095FFFCCF8093C6003196F5CF2FB78E
:1029E000F894609107087091080880910908909107
:1029F0000A082FBF0E94C9CD2091370830913808AE
:102A00004091390850913A080E9489D442E00E94CE
:102A100043798091C00085FFFCCF8AE08093C60097
:102A20000C94511D80E00E949C6D0C94511D81E01E
:102A30000E949C6D0C94511D9091C00095FFFCCF9D
:102A40008093C60081918111F7CF8091C00085FFEE
:102A5000FCCF8AE08093C600EFE5F4E08491882300
:102A600041F09091C00095FFFCCF8093C600319655
:102A7000F5CF659B03C0E7EDF2E009C0ECEDF2E0B5
:102A800006C09091C00095FFFCCF8093C600819155
:102A90008111F7CF8091C00085FFFCCF8AE0809341
:102AA000C600E7E5F4E08491882341F09091C000EE
:102AB00095FFFCCF8093C6003196F5CF649B03C091
:102AC000E7EDF2E009C0ECEDF2E006C09091C00045
:102AD00095FFFCCF8093C60081918111F7CF809143
:102AE000C00085FFFCCF8AE08093C600EFE4F4E0ED
:102AF0008491882341F09091C00095FFFCCF809392
:102B0000C6003196F5CF8091030181FF03C0E7ED48
:102B1000F2E009C0ECEDF2E006C09091C00095FF34
:102B2000FCCF8093C60081918111F7CF8091C000C6
:102B300085FFFCCF8AE08093C600E7E4F4E084914F
:102B4000882341F09091C00095FFFCCF8093C60090
:102B50003196F5CF4B9B03C0E7EDF2E009C0ECEDF9
:102B6000F2E006C09091C00095FFFCCF8093C600B4
:102B700081918111F7CF8091C00085FFFCCF8AE061
:102B80008093C6008EC7D8018D918D010E94B8AE8A
:102B9000882349F00E94DEAE0E9400D5F7016083D1
:102BA000718382839383F4E0EF0EF11CD012EBCF9C
:102BB0000E94316376C796E7E92E97E1F92E03ED7F
:102BC00012E024E0D22ED00ED8018D918D010E940A
:102BD000B8AE882339F00E94DEAEF70160837183BE
:102BE00082839383F4E0EF0EF11CD012EDCF59C72E
:102BF00083E50E94B8AE882351F00E94DEAE609358
:102C00006E1770936F17809370179093711784E508
:102C10000E94B8AE882309F444C70E94DEAE6093D8
:102C2000721770937317809374179093751739C741
:102C300083E50E94B8AE882351F00E94DEAE609317
:102C40008A1770938B1780938C1790938D1784E558
:102C50000E94B8AE882351F00E94DEAE60938E17BA
:102C600070938F17809390179093911782E40E942E
:102C7000B8AE882361F00E94DEAE0E9400D560935A
:102C8000861770938717809388179093891788E524
:102C90000E94B8AE882351F00E94DEAE60936A179E
:102CA00070936B1780936C1790936D178AE50E9451
:102CB000B8AE882351F00E94DEAE60936617709321
:102CC0006717809368179093691785E40E94B8AEE0
:102CD000882309F4E6C60E94DEAE60936217709303
:102CE00063178093641790936517DBC6F4E0EF0ECB
:102CF000F11CD01609F4D5C6D8018D918D010E9422
:102D0000B8AE882399F30E94DEAEF7016083718329
:102D100082839383EBCF8AED90E00E94E87081116B
:102D2000C0C688E50E94B8AE882381F000912312C6
:102D300010E00E94DEAE000F111F000F111FF801FE
:102D4000EE5BFA4E608371838283938389E50E94F0
:102D5000B8AE882381F00091231210E00E94DEAE0D
:102D6000000F111F000F111FF801E65BFA4E608380
:102D70007183828393838AE50E94B8AE882381F0B1
:102D80000091231210E00E94DEAE000F111F000F11
:102D9000111FF801EE5AFA4E608371838283938388
:102DA000E1EAF8E08491882341F09091C00095FF1A
:102DB000FCCF8093C6003196F5CFE7E3F4E0849131
:102DC000882341F09091C00095FFFCCF8093C6000E
:102DD0003196F5CF1092231280912312823008F0A1
:102DE00058C0E2EBF4E08191882339F09091C00063
:102DF00095FFFCCF8093C600F6CFE091231224E02C
:102E0000E29FF0011124EE5BFA4E608171818281B4
:102E1000938142E00E9443790FEF12E0F801819123
:102E2000882339F09091C00095FFFCCF8093C600B5
:102E3000F6CFE091231234E0E39FF0011124E65B2A
:102E4000FA4E608171818281938142E00E944379D0
:102E5000D8018D918D01882339F09091C00095FFA4
:102E6000FCCF8093C600F4CFE0912312B4E0EB9F37
:102E7000F0011124EE5AFA4E6081718182819381B2
:102E800042E00E944379809123128F5F8093231246
:102E9000A3CF8091C00085FFFCCF8AE08093C6005D
:102EA00000C683E50E94B8AE882309F4FAC50E94E3
:102EB000DEAE0E94FAD47093660260936502F1C59B
:102EC00083E50E94B8AE882309F4EBC50E94DEAE0C
:102ED0000E94FAD47093300260932F02E2C580E51D
:102EE0000E94B8AE882351F00E94DEAE60932002AB
:102EF00070932102809322029093230289E40E941E
:102F0000B8AE882381F00E94DEAE2DEB37E346E0B9
:102F10005EE30E9438C860931C0270931D02809388
:102F20001E0290931F0284E40E94B8AE882381F0B1
:102F30000E94DEAE2DEB37E346E05EE30E9489D4CB
:102F4000609318027093190280931A0290931B02E7
:102F500083E40E94B8AE882351F00E94DEAE6093F5
:102F600000027093010280930202909303020E9478
:102F7000836DE1E0F3E08191882339F09091C00006
:102F800095FFFCCF8093C600F6CFE4E0F3E081919B
:102F9000882339F09091C00095FFFCCF8093C60044
:102FA000F6CF6091200270912102809122029091CF
:102FB000230242E00E944379E8E0F3E08191882314
:102FC00039F09091C00095FFFCCF8093C600F6CFFA
:102FD0002DEB37E346E05EE360911C0270911D0229
:102FE00080911E0290911F020E9489D442E00E94AB
:102FF0004379ECE0F3E08191882339F09091C000AF
:1030000095FFFCCF8093C600F6CF2DEB37E346E06B
:103010005EE3609118027091190280911A029091FA
:103020001B020E9438C842E00E944379E0E1F3E0CD
:103030008191882339F09091C00095FFFCCF809357
:10304000C600F6CF609100027091010280910202E9
:103050009091030242E00E9443798091C00085FF75
:10306000FCCF8AE08093C6000E94E4271AC583E55E
:103070000E94B8AE882319F00E94DEAE03C060E063
:1030800070E0CB016093921770939317809394171D
:103090009093951706C585E40E94B8AE882341F049
:1030A0000E94DEAE0E94FAD48B0177FD12C002C0EE
:1030B00000E010E02B961FAE2B972C961FAE2C979E
:1030C000E6E12D96EFAF2D97F3E42E96FFAF2E9706
:1030D0000EC02B961FAE2B972C961FAE2C972CE86C
:1030E0002D962FAF2D9732E42E963FAF2E9783E586
:1030F0000E94B8AE882371F00E94DEAE2B966FAFAF
:103100002B972C967FAF2C972D968FAF2D972E96C1
:103110009FAF2E9783E40E94B8AE882349F00E94A7
:10312000DEAE0E94FAD4A2967FAF6EAFA29706C021
:1031300045E050E0A2965FAF4EAFA2970E94B078F4
:103140002A966CAF7DAF8EAF9FAF2A9703301105E3
:103150001CF4E4E1F3E01AC0E7E2F3E08191882394
:1031600039F09091C00095FFFCCF8093C600F6CF58
:103170008091C00085FFFCCF8AE08093C60091C497
:103180009091C00095FFFCCF8093C6008191811182
:10319000F7CF8091C00085FFFCCF8AE08093C60006
:1031A0000E94C3638FE717FF63C080939E112A9626
:1031B0004CAC5DAC6EAC7FAC2A9764964CAE5DAE09
:1031C0006EAE7FAE6497A6964CAE5DAE6EAE7FAE31
:1031D000A697AB961FAEAB9720E4AC962FAFAC97FB
:1031E0003CE1AD963FAFAD9746E4AE964FAFAE979C
:1031F00065961FAE659766961FAE669767961FAE7B
:10320000679768961FAE68976FE7462E512C612C22
:10321000712C26964CAE5DAE6EAE7FAE26977FE7E4
:10322000872E912CA12CB12C6E961CAE1DAE1EAE1D
:103230001FAE6E9721E02EAF60961FAE1EAE609758
:103240001BAE212C312C1DAEA80141565E4EA0961E
:103250005FAF4EAFA097C801880F991F880F991FC5
:10326000DC01A757BE4E6A96BFAFAEAF6A9707C0E4
:10327000F801E156FE4E80839ACF0E94A7A6809166
:103280009D11882309F44EC10E94C76917FF0BC026
:10329000409085114BAE2090861130908711509050
:1032A00088115DAE0EC06A96AEADBFAD6A97BC9197
:1032B000BBAF6A96EEADFFAD6A9721803280438046
:1032C0004DAE2BAD322D432D5DAD65966FAD65973F
:1032D00066967FAD669767968FAD679768969FAD48
:1032E00068970E94E6D5181674F05BAC65965FAEE1
:1032F000659766962FAE669767963FAE67976DACFB
:1033000068966FAE68972BAD322D432D5DADAB96B1
:103310006FADAB97AC967FADAC97AD968FADAD97DB
:10332000AE969FADAE970E94C3CD87FD0EC07BAC1D
:10333000AB967FAEAB97AC962FAEAC97AD963FAE4B
:10334000AD974DACAE964FAEAE975EAC552009F43E
:1033500075C02B962FAD2B972C963FAD2C972D96A5
:103360004FAD2D972E965FAD2E976BAD722D832DA1
:103370009DAD0E94E6D518160CF0D4C00E94B0781E
:10338000DC01CB012A964CAC5DAC6EAC7FAC2A97CD
:1033900084199509A609B70989389341A105B10592
:1033A00008F4C0C0D501C40126964CAC5DAC6EAC2F
:1033B0007FAC269784199509A609B709B595A795F5
:1033C0009795879517FF03C080939E1105C0A0961F
:1033D000EEADFFADA09780830E94B07864966CAF8D
:1033E0007DAF8EAF9FAF64972B013C012A962CAD29
:1033F0003DAD4EAD5FAD2A97421A530A640A750A75
:103400006E964CAE5DAE6EAE7FAE6E972B964FACA9
:103410002B9765964FAE65972C965FAC2C9766966A
:103420005FAE66972D966FAC2D9767966FAE6797D8
:103430002E967FAC2E9768967FAE68972B962FAD11
:103440002B972C963FAD2C972D964FAD2D972E9602
:103450005FAD2E976BAD722D832D9DAD0E94C3CDB8
:1034600087FF40C50E94B078DC01CB0164964CAC6C
:103470005DAC6EAC7FAC649784199509A609B70959
:1034800089389341A105B10508F42CC50E94B07894
:103490002A966CAF7DAF8EAF9FAF2A97DC01CB0130
:1034A00084199509A609B70960964EAC5FAC609780
:1034B000141415040CF440C326968CAD9DADAEAD2E
:1034C000BFAD2697880D991DAA1DBB1DB595A79563
:1034D0009795879517FF00C580939E1160962EAD36
:1034E0003FAD60972F5F3F4F60963FAF2EAF609725
:1034F0002B964FAC2B97AB964FAEAB972C965FAC01
:103500002C97AC965FAEAC972D966FAC2D97AD9681
:103510006FAEAD972E967FAC2E97AE967FAEAE97E0
:1035200021E02EAF20E030E040EA51E42B966FAD71
:103530002B972C967FAD2C972D968FAD2D972E9691
:103540009FAD2E970E949BD39B01AC016BAD722D5A
:10355000832D9DAD0E94E6D51816ACF4E2EBF3E0A6
:103560008491882341F09091C00095FFFCCF809317
:10357000C6003196F5CF8091C00085FFFCCF8AE070
:103580008093C6008EC20E94B078DC01CB01A69663
:103590004CAC5DAC6EAC7FACA69784199509A609BE
:1035A000B709813D9740A105B10508F44EC017FF4A
:1035B00010C0E0909E11F12CECEAF3E08491882396
:1035C000D9F09091C00095FFFCCF8093C600319652
:1035D000F5CFA096AEADBFADA097EC90F12CE6EA8A
:1035E000F3E08491882341F09091C00095FFFCCFD7
:1035F0008093C6003196F5CF42E06BAD722D832DDE
:103600009DAD0E944379E2EAF3E08491882341F082
:103610009091C00095FFFCCF8093C6003196F5CF06
:10362000B701FF0C880B990B0E9431798091C00083
:1036300085FFFCCF8AE08093C6000E94B078A696F2
:103640006CAF7DAF8EAF9FAFA6970E94B0786B0135
:103650007C010E94B07864962CAD3DAD4EAD5FAD5F
:1036600064972A964CAC5DAC6EAC7FAC2A97240D67
:10367000351D461D571DC21AD30AE40AF50ADC019E
:10368000CB018C0D9D1DAE1DBF1D81389F44A241F5
:10369000B105A8F0E5E8F3E08491882341F090912A
:1036A000C00095FFFCCF8093C6003196F5CF809186
:1036B000C00085FFFCCF8AE08093C600F2C160960F
:1036C0004EAC5FAC6097A2966EAC7FACA2976414D0
:1036D00075040CF0D2CDE9E3F3E08491882341F046
:1036E0009091C00095FFFCCF8093C6003196F5CF36
:1036F0008091C00085FFFCCF8AE08093C600D1C1D5
:103700000E94E427CEC10E94B72ACBC10E94112992
:103710000E94BB4BC6C18FEF9FEF0E94709AC1C140
:1037200083E50E94B8AE882309F4BBC10E94DEAED7
:103730000E94FAD4709394056093930565317105E6
:1037400034F084E190E09093940580939305809108
:1037500093059091940597FF5DC81092940510927F
:10376000930558C883E50E94B8AE882309F499C12F
:103770000E94DEAE0E94FAD421E030E06130710593
:1037800011F020E030E030938905209388050E94F5
:10379000E42787C183E50E94B8AE882309F481C17C
:1037A0000E94DEAE0E94FAD421E030E06130710563
:1037B00011F020E030E030938705209386050E94C9
:1037C000E4276FC180916302882309F46AC182E013
:1037D00090E0909362158093611584E50E94B8AEE5
:1037E000882309F448C00E94DEAE0E94FAD48B01FF
:1037F000CB010E94EF96FF24F394012B09F0F12CEA
:10380000AF2CB12C88E40E94B8AE882331F00E941E
:10381000DEAE0E94FAD48B0102C000E010E089E421
:103820000E94B8AE8823B1F00E94DEAE0E94FAD4A6
:103830006B01FF2059F0161617061CF4C5010E94F3
:10384000F99E10161106BCF4C80113C0101611061B
:1038500044F00BC0F110F5CF1016110664F4C12C22
:10386000D12CB801C5010E94F99E1C141D041CF442
:10387000C6010E947A9B60E070E081EF9FEF0E949A
:103880001270C0902412D0902512E0902612F09071
:10389000271220E030E04AE754E4C701B6010E9455
:1038A000E6D518164CF4C0926702D0926802E092F6
:1038B0006902F0926A020CC080E090E0AAE7B5E4E9
:1038C0008093670290936802A0936902B0936A02A2
:1038D000A0902812B0902912C0902A12D0902B12DA
:1038E00010E8E12E1FE4F12E03EC17ECA80197017C
:1038F000C801B7010E94E7AE1092850510928405B9
:10390000109262151092611580916315882309F455
:10391000C8C081E090E09093621580936115C1C0AA
:103920000E94526FBEC080E090E00E947A70B9C0E1
:1039300083E50E94B8AE882309F4B3C00E94DEAECE
:103940006B017C0120E030E0A9010E94C3CD811110
:1039500004C081E080936302A4C020E030E040E234
:1039600051E4C701B6010E9489D460932C11709371
:103970002D1180932E1190932F111092630291C0FC
:1039800061E080E10E94757761E081E10E947577D6
:1039900083E50E94B8AE882309F483C00E94DEAE9E
:1039A0000E94FAD46115710549F461E080E10E943A
:1039B000467760E081E10E94467773C0613071050F
:1039C00009F06FC061E081E10E94467760E080E12C
:1039D0000E94467766C01092240680911F12909133
:1039E0002012A0912112B09122128093250690936B
:1039F0002606A0932706B09328060E949895E0E03B
:103A0000F0E019954EC084E50E94B8AE882329F0F5
:103A10008FEF9FEF0E94EF9644C0E1EAF8E08491B7
:103A2000882341F09091C00095FFFCCF8093C600A1
:103A30003196F5CFE4E2F4E08491882341F090914F
:103A4000C00095FFFCCF8093C6003196F5CF8091E2
:103A5000C2079091C30720E6289FF001299FF00D2F
:103A60001124EE5BF94F8191882339F09091C000C9
:103A700095FFFCCF8093C600F6CFE2E2F4E084919C
:103A8000882341F09091C00095FFFCCF8093C60041
:103A90003196F5CF8091C00085FFFCCF8AE08093FE
:103AA000C6000E94709520C20E94D3AEAB01BC013B
:103AB00040938F15509390156093911570939215C4
:103AC00086E397E10E940437ECCF0E94DEAEE9CF97
:103AD0000E94495A88E50E94B8AE882311F05F9A87
:103AE000479A89E50E94B8AE81118A9A8AE50E94B8
:103AF000B8AE882381F09FB7F89480910801816067
:103B0000809308019FBF9FB7F8948091080184605B
:103B1000809308019FBF85E40E94B8AE882309F412
:103B2000C0CF8D9A129ABDCF0E94495A8D9A129A8F
:103B300081E00E94125AB5CF6E964CAC5DAC6EAC73
:103B40007FAC6E97480E591E6A1E7B1E6E962CAD7A
:103B50003DAD4EAD5FAD6E97281B390B4A0B5B0B2D
:103B6000CA01B90126962CAD3DAD4EAD5FAD26978D
:103B70000E9450D3A30192010E9451D7D501C401E4
:103B8000820F931FA41FB51F84319105A105B105B4
:103B90000CF14C015D018C3E9105A105B1052CF0A5
:103BA0004BEE842E912CA12CB12C40E8841691046C
:103BB000A104B104FCF08EEF90E0A0E0B0E0881921
:103BC0009909AA09BB0926968CAF9DAFAEAFBFAFCE
:103BD000269716C034E1832E912CA12CB12C24E120
:103BE00030E040E050E026962CAF3DAF4EAF5FAFE7
:103BF000269706C026968CAE9DAEAEAEBFAE26977B
:103C0000EAE1F4E08491882341F09091C00095FFAF
:103C1000FCCF8093C6003196F5CFC501B4010E9458
:103C20003179E5E1F4E08491882341F09091C0007E
:103C300095FFFCCF8093C6003196F5CF26966CADEC
:103C40007DAD8EAD9FAD26970E943179EEE0F4E018
:103C50008491882341F09091C00095FFFCCF809320
:103C6000C6003196F5CF42E0AB966FADAB97AC9600
:103C70007FADAC97AD968FADAD97AE969FADAE973D
:103C80000E944379E7E0F4E08491882341F0909129
:103C9000C00095FFFCCF8093C6003196F5CF42E07F
:103CA00065966FAD659766967FAD669767968FADA3
:103CB000679768969FAD68970E9443798091C0008E
:103CC00085FFFCCF8AE08093C60060962EAD3FADA5
:103CD0006097233031050CF4EFCB26966CAD7DADAB
:103CE0008EAD9FAD26970E94C9CD20E030E040E820
:103CF00050E40E9438C86B017C01AB962FADAB97A6
:103D0000AC963FADAC97AD964FADAD97AE965FAD6F
:103D1000AE9765966FAD659766967FAD6697679629
:103D20008FAD679768969FAD68970E949AD320EDF4
:103D30003FE049E450E40E9438C820E030E040E031
:103D40005FE30E9438C89B01AC01C701B6010E9425
:103D500089D46B017C01C301B2010E94C9CD20E06E
:103D600030E04AE754E40E9489D42B013C01E1E0B1
:103D7000F4E08491882341F09091C00095FFFCCF3E
:103D80008093C6003196F5CF42E0C701B6010E948C
:103D90004379EBEFF3E08491882341F09091C000E8
:103DA00095FFFCCF8093C6003196F5CF42E0C3016A
:103DB000B2010E9443798091C00085FFFCCF8AE068
:103DC0008093C6002AE939E949E15FE3C701B601FA
:103DD0000E9438C86B017C019B01AC010E949BD3FF
:103DE000A30192010E9489D422966CAF7DAF8EAF61
:103DF0009FAF2297A3019201C701B6010E9438C864
:103E000020E030E040E05EE30E9438C82B013C0136
:103E1000EEEEF3E08491882341F09091C00095FF8D
:103E2000FCCF8093C6003196F5CF8091C00085FF0E
:103E3000FCCF8AE08093C600E8EEF3E0849188230B
:103E400041F09091C00095FFFCCF8093C600319661
:103E5000F5CF42E0C701B6010E9443798091C000CE
:103E600085FFFCCF8AE08093C600E2EEF3E0849108
:103E7000882341F09091C00095FFFCCF8093C6004D
:103E80003196F5CF42E022966CAD7DAD8EAD9FAD03
:103E900022970E9443798091C00085FFFCCF8AE081
:103EA0008093C600ECEDF3E08491882341F090917B
:103EB000C00095FFFCCF8093C6003196F5CF42E05D
:103EC000C301B2010E9443798091C00085FFFCCFFD
:103ED0008AE08093C600F0CAA096EEADFFADA09731
:103EE0008083FCCA1EAE1ECBC359DF4F0FB6F894B9
:103EF000DEBF0FBECDBFDF91CF911F910F91FF901D
:103F0000EF90DF90CF90BF90AF909F908F907F9079
:103F10006F905F904F903F902F900895EF92FF9297
:103F20000F931F93CF93DF937C018B01EA018AE506
:103F300090E00E94CA7985EA90E00E94CA7985E003
:103F400090E00E94CA7982E890E00E94CA79C70195
:103F50000E94CA79C8010E94CA7980E090E00E945C
:103F6000CA79CE01DF91CF911F910F91FF90EF9011
:103F70000C94CA79FC01238121110C946C3D0895A5
:103F800061E0FC0180810C9446778EBD0DB407FE84
:103F9000FDCF08958FEF8EBD0DB407FEFDCF8EB51A
:103FA00008950F931F93CF93DF938B010E94B078F6
:103FB000EB01F0DF8F3F49F00E94B0786C1B7D0B66
:103FC00060177107B0F380E001C081E0DF91CF910D
:103FD0001F910F910895CF92DF92EF92FF921F935E
:103FE000CF93DF9300D01F92CDB7DEB76C01162FB1
:103FF000FC019281892F806A86958CBD90FD03C05B
:1040000081E0963009F480E08DBD60E0F6018081AA
:1040100029833A834B835C830E9446776CE271E08C
:10402000C601BFDF812F8064B0DF88E1E82EF12C6C
:104030005C814B813A812981DA01C9010E2C04C0CF
:10404000B695A795979587950A94D2F729833A83D1
:104050004B835C839ADFF8E0EF1AF10829813A81FB
:104060004B815C8188EFE8168FEFF80629F7112362
:1040700021F0183021F08FEF03C085E901C087E8F7
:1040800084DF1C3009F486DF10E084DFF6018383CF
:1040900087FF04C01F3F11F01F5FF7CF0F900F90F5
:1040A0000F900F90DF91CF911F91FF90EF90DF90D5
:1040B000CF9008950F931F93CF93DF93EC01890165
:1040C0008C81833039F089E0440F551F661F771FBC
:1040D0008A95D1F79A01AB0168E1CE017CDF882394
:1040E00011F086E02FC08EEF8EBD80E090E00DB421
:1040F00007FEFDCFF801E80FF91F20812EBD0DB49A
:1041000007FEFDCF21812EBD0296811522E0920788
:1041100071F70DB407FEFDCF8FEF37DF8FEF35DF7F
:1041200039DF8B838F71853029F083E18983CE015C
:1041300027DF09C068E572E0CE0133DF182F811157
:1041400006C087E18983CE011BDF10E00FC020E0AD
:1041500030E0A9016DE0CE013EDF811103C01ADF1E
:10416000882311F086E1EECFCE010ADF812FDF91A7
:10417000CF911F910F910895EF92FF920F931F938C
:10418000CF93DF93EC0179018C81833039F089E0A2
:10419000440F551F661F771F8A95D1F79A01AB010F
:1041A00061E1CE0118DF882311F084E013C00E9482
:1041B000B0788B01EFDE8B838F3F49F40E94B0789B
:1041C000601B710B6D327140A8F381E103C08E3F1B
:1041D00031F08FE08983CE01D3DE80E019C08FEF0C
:1041E0008EBDF701D701A150BE4F0DB407FEFDCF24
:1041F0009EB591938EBDEA17FB07B9F70DB407FE84
:10420000FDCF8EB58C93C6DEC5DECE01B9DE81E072
:10421000DF91CF911F910F91FF90EF9008951F9222
:104220000F920FB60F9211240BB60F922F933F935C
:104230004F936F937F938F939F93EF93FF9340914F
:10424000C6002091200630912106C90101968F7782
:10425000992760912206709123068617970741F0EF
:10426000F901E056FA4F408390932106809320068F
:10427000FF91EF919F918F917F916F914F913F911E
:104280002F910F900BBE0F900FBE0F901F9018959F
:10429000CF93DF93EC018AE590E00E94CA7985EA2A
:1042A00090E00E94CA7985E090E00E94CA7982E895
:1042B00090E00E94CA7980E090E00E94CA7982E88A
:1042C00090E00E94CA79CE010E94CA79CE01DF91A6
:1042D000CF910C94CA798F929F92AF92BF92CF9256
:1042E000DF92EF92FF920F931F934B015C016901E4
:1042F0007A018AE590E00E94CA7985EA90E00E94FE
:10430000CA79C80103960E94CA7982E890E00E94A7
:10431000CA79C501B40120E031E040E050E00E94DC
:1043200051D74B015C01C9010E94CA79C4010E94A6
:10433000CA790430110541F581E0C816D104E104C1
:10434000F80654F06F2D992767FD9095792F892FE6
:104350000E94C779FF2404C080E090E00E94CA79DF
:1043600081E0C816D104E806F10454F0B70199279A
:1043700077FD9095892F0E94C779EE24FF2404C011
:1043800080E090E00E94CA7981E0C816D806E10476
:10439000F10474F09927F7FC9A958F2D7E2D6D2DE1
:1043A0000E94C779C701B60177278827992706C0D9
:1043B00080E090E00E94CA79C701B6011F910F9179
:1043C000FF90EF90DF90CF90BF90AF909F908F9035
:1043D0000C94C779CF92DF92EF92FF92CF93DF9345
:1043E0006B017C01EA018AE590E00E94CA7985EAC6
:1043F00090E00E94CA7984E090E00E94CA7983E844
:1044000090E00E94CA79C701B60120E031E040E0A7
:1044100050E00E9451D76B017C01C9010E94CA790A
:10442000C6010E94CA79CE01DF91CF91FF90EF9033
:10443000DF90CF900C94CA794F925F926F927F92E7
:104440008F929F92AF92BF92CF92DF92EF92FF92A4
:104450000F931F93CF93DF932B013C0149015A0126
:10446000EE2019F0C5EAD0E002C0CAE5D0E08AE546
:1044700090E00E94CA7985EA90E00E94CA798BE0B8
:1044800090E00E94CA7982E890E00E94CA7980E0B8
:1044900090E00E94CA7988E090E00E94CA79CE013B
:1044A0000E94CA79C301B20120E030E041E050E04F
:1044B0000E9451D72B013C01C9010E94CA79C12C2D
:1044C000D12C7601D394C301B201A70196010E94B9
:1044D00051D72B013C01C9010E94CA79C2010E9437
:1044E000CA79C501B401A70196010E9451D76B0199
:1044F0007C01C9010E94CA79C6010E94CA7980E084
:1045000090E00E94CA79C801DF91CF911F910F916D
:10451000FF90EF90DF90CF90BF90AF909F908F90E3
:104520007F906F905F904F900C94CA79CF93DF93F8
:10453000EC01AC0160E470E080E990E0EFDC41E088
:1045400050E0209711F040E050E060E170E080E83A
:1045500090E0E4DCAE0161E170E080E890E0DF91A2
:10456000CF91DCCC8F929F92AF92BF92CF92DF928D
:10457000EF92FF920F931F93CF93DF9300D000D061
:10458000CDB7DEB74B015C017A0169018AE590E0A5
:104590000E94CA7985EA90E00E94CA79C701039611
:1045A0000E94CA7982E890E00E94CA79C501B401EC
:1045B00020E031E040E050E00E9451D74B015C0127
:1045C000C9010E94CA79C4010E94CA799701225088
:1045D0003109F6018481958128173907A8F440E054
:1045E00050E0B601CE0101960E947B76BE016F5F5E
:1045F0007F4FC6010E94C775CE0101960E940076CA
:10460000C6010E94CE7922C0011129C0C6010E94B4
:10461000CE7900E010E04EEFA42EBB24BA94F60150
:10462000848195819501281B390BC9018E0D9F1D31
:104630000817190758F441E050E062EB74E083E496
:1046400094E10E9412730F5F1F4FE9CF8FEF90E04C
:104650000E94CA798FEF90E00E94CA795DC063EB37
:1046600074E0CE0101960E94677600E010E03EEF14
:10467000A32EBB24BA94F601848195819501281B51
:10468000390BC9018E0D9F1D96958795081719073F
:1046900058F441E050E062EB74E0CE0101960E94D4
:1046A00035750F5F1F4FE7CFCE0101960E94CE797F
:1046B000C6010E94CE79F60184819581080F191FE9
:1046C00063EB74E0CE0101960E949D75C12CD12C44
:1046D000E01AF10AF2E0EF1AF108CE14DF0464F4F4
:1046E00041E050E062EB74E0CE0101960E94357526
:1046F0002FEFC21AD20AF1CFCE0101960E94CE79D5
:104700008FEF90E00E94CA798FEF90E00E94CA7903
:10471000CE0101960E94007626960FB6F894DEBF71
:104720000FBECDBFDF91CF911F910F91FF90EF9002
:10473000DF90CF90BF90AF909F908F9008950F9390
:104740001F93CF93DF9300D01F92CDB7DEB78C01BC
:104750001B8284E88C838AE5898381E08A838AE5E9
:1047600090E00E94CA7985EA90E00E94CA7967E0E9
:1047700083E494E10E94A47382E890E00E94CA79E5
:1047800042E050E0BE016D5F7F4F83E494E10E9400
:10479000127342E050E0BE016F5F7F4F83E494E10B
:1047A0000E94127380E090E00E94CA79C8010E94C2
:1047B000CA7910931118009310180F900F900F9052
:1047C0000F90DF91CF911F910F910895E3E4F4E1F1
:1047D000A089B18982E08C93A485B5851C92A685B9
:1047E000B78580E18C93108EA489B58986E08C937F
:1047F000A289B3898C9180618C93A289B3898C91B1
:1048000088608C93A289B3898C9180688C9302888C
:10481000F389E02D80818F7D80830895CF93DF938E
:10482000C5ECD7E0FE018491882341F09091C0004F
:1048300095FFFCCF8093C6003196F5CFE9E7F7E00E
:104840008491882341F09091C00095FFFCCF809324
:10485000C6003196F5CF8091C00085FFFCCF8AE07D
:104860008093C600FE018491E5ECF7E0882349F0CF
:104870009091C00095FFFCCF8093C6003196849143
:10488000F5CF40912F085091300860913108709118
:10489000320881E797E00E944C52409133085091D2
:1048A000340860913508709136088EE697E00E94D2
:1048B0004C524091370850913808609139087091F6
:1048C0003A088BE697E00E944C5240913B08509189
:1048D0003C0860913D0870913E0888E697E00E9490
:1048E0004C528091C00085FFFCCF8AE08093C600C7
:1048F000FE018491E5ECF7E0882349F09091C00037
:1049000095FFFCCF8093C60031968491F5CFEEE4FD
:10491000F7E08491882341F09091C00095FFFCCF8F
:104920008093C6003196F5CF8091C00085FFFCCF03
:104930008AE08093C600FE018491E5ECF7E08823CD
:1049400049F09091C00095FFFCCF8093C60031964E
:104950008491F5CF40917617509177176091781731
:104960007091791785E497E00E944C5240917A1734
:1049700050917B1760917C1770917D1782E497E0CE
:104980000E944C5240917E1750917F176091801782
:10499000709181178FE397E00E944C5240918217EB
:1049A0005091831760918417709185178CE397E07D
:1049B0000E944C528091C00085FFFCCF8AE080931A
:1049C000C600FE018491E5ECF7E0882349F0909160
:1049D000C00095FFFCCF8093C60031968491F5CF3F
:1049E000EEE1F7E08491882341F09091C00095FFBB
:1049F000FCCF8093C6003196F5CF8091C00085FF33
:104A0000FCCF8AE08093C600FE018491E5ECF7E0DC
:104A1000882349F09091C00095FFFCCF8093C60099
:104A200031968491F5CF40914C0C50914D0C609192
:104A30004E0C70914F0C85E197E00E943B524091E3
:104A4000500C5091510C6091520C7091530C82E1BA
:104A500097E00E943B524091540C5091550C60914C
:104A6000560C7091570C8FE097E00E943B5240919A
:104A7000580C5091590C60915A0C70915B0C8CE061
:104A800097E00E943B528091C00085FFFCCF8AE0F6
:104A90008093C600FE018491E5ECF7E0882349F09D
:104AA0009091C00095FFFCCF8093C6003196849111
:104AB000F5CFE7EDF6E08491882341F09091C000B6
:104AC00095FFFCCF8093C6003196F5CF8091C00052
:104AD00085FFFCCF8AE08093C600FE018491E5EC5F
:104AE000F7E0882349F09091C00095FFFCCF8093B8
:104AF000C60031968491F5CF40916E1750916F1793
:104B000060917017709171178EEC96E00E944C5274
:104B100040917217509173176091741770917517C7
:104B20008BEC96E00E944C528091C00085FFFCCF38
:104B30008AE08093C600FE018491E5ECF7E08823CB
:104B400049F09091C00095FFFCCF8093C60031964C
:104B50008491F5CFE8E1F6E08491882341F09091CB
:104B6000C00095FFFCCF8093C6003196F5CF8091B1
:104B7000C00085FFFCCF8AE08093C600FE018491CF
:104B8000E5ECF7E0882349F09091C00095FFFCCF59
:104B90008093C60031968491F5CF40918A17509149
:104BA0008B1760918C1770918D178FE096E00E94A3
:104BB0004C5240918E1750918F17609190177091C1
:104BC00091178CE096E00E944C52409186175091CC
:104BD0008717609188177091891789E096E00E9485
:104BE0003B5240916A1750916B1760916C1770910E
:104BF0006D1786E096E00E944C52409166175091E6
:104C00006717609168177091691783E096E00E94BA
:104C10004C524091621750916317609164177091E4
:104C2000651780E096E00E944C528091C00085FF9D
:104C3000FCCF8AE08093C600FE018491E5ECF7E0AA
:104C4000882349F09091C00095FFFCCF8093C60067
:104C500031968491F5CFEEEEF5E08491882341F012
:104C60009091C00095FFFCCF8093C6003196F5CFA0
:104C70008091C00085FFFCCF8AE08093C600FE01D2
:104C80008491E5ECF7E0882349F09091C00095FF0E
:104C9000FCCF8093C60031968491F5CF4091CB171D
:104CA0005091CC176091CD177091CE1785EE95E09D
:104CB0000E944C524091CF175091D0176091D1175C
:104CC0007091D21782EE95E00E944C524091D3171A
:104CD0005091D4176091D5177091D6178FED95E04C
:104CE0000E944C528091C00085FFFCCF8AE08093E7
:104CF000C600FE018491E5ECF7E0882349F090912D
:104D0000C00095FFFCCF8093C60031968491F5CF0B
:104D1000E1EDF5E08491882341F09091C00095FF8A
:104D2000FCCF8093C6003196F5CF8091C00085FFFF
:104D3000FCCF8AE08093C600FE018491E5ECF7E0A9
:104D4000882349F09091C00095FFFCCF8093C60066
:104D500031968491F5CF40912002509121026091CB
:104D600022027091230287EC95E00E944C522DEBB9
:104D700037E346E05EE360911C0270911D02809172
:104D80001E0290911F020E9489D4AB01BC0184ECE9
:104D900095E00E944C522DEB37E346E05EE36091D4
:104DA00018027091190280911A0290911B020E94C0
:104DB00038C8AB01BC0181EC95E00E944C52809157
:104DC000C00085FFFCCF8AE08093C600FE0184917D
:104DD000E5ECF7E0882349F09091C00095FFFCCF07
:104DE0008093C60031968491F5CFEEEAF5E0849188
:104DF000882341F09091C00095FFFCCF8093C600BE
:104E00003196F5CF8091C00085FFFCCF8AE080937A
:104E1000C6004091E4145091E5146091E61470913D
:104E2000E7148AEA95E00E944C528091C00085FF09
:104E3000FCCF8AE08093C600FE018491E5ECF7E0A8
:104E4000882349F09091C00095FFFCCF8093C60065
:104E500031968491F5CFE9E9F5E08491882341F01A
:104E60009091C00095FFFCCF8093C6003196F5CF9E
:104E70008091C00085FFFCCF8AE08093C6004091FE
:104E80005A1550915B1560915C1570915D1585E91F
:104E900095E00E944C528091C00085FFFCCF8AE0D3
:104EA0008093C600FE01C491E5ECF7E0CC2349F005
:104EB0008091C00085FFFCCFC093C6003196C4919D
:104EC000F5CFE4E8F5E08491882341F09091C000AB
:104ED00095FFFCCF8093C6003196F5CF8091C0003E
:104EE00085FFFCCF8AE08093C6004091E607509191
:104EF000E7076091E8077091E90780E895E00E9474
:104F00004C528091C00085FFFCCF8AE08093C600A0
:104F1000E1E5F3E08191882339F09091C00095FF9D
:104F2000FCCF8093C600F6CF6091950570919605F1
:104F3000072E000C880B990B0E9431798091C000DC
:104F400085FFFCCF8AE08093C600DF91CF91089562
:104F5000EF92FF921F93CF93DF937C01C62FD72F41
:104F6000142F160FF701808191810E943AD3899303
:104F7000F701808191810196918380831C13F2CF88
:104F8000DF91CF911F91FF90EF900895EF92FF92E4
:104F90001F93CF93DF937C01C62FD72F142F160FAB
:104FA0006991F701808191810E9442D3F70180814C
:104FB00091810196918380831C13F2CFDF91CF9171
:104FC0001F91FF90EF9008950F931F93CF93DF935E
:104FD000CDB7DEB72C970FB6F894DEBF0FBECDBFAE
:104FE00080E390E3A0E3B0E08D839E83AF83B88736
:104FF00004E610E01C870B8744E0BE016B5F7F4F27
:10500000CE010B96C3DF40E16FE278E0CE010B9654
:10501000BDDF40E166E777E1CE010B96B7DF40E107
:105020006CE47CE0CE010B96B1DF44E06EE677E104
:10503000CE010B96ABDF44E062E777E1CE010B9641
:10504000A5DF44E06AE877E1CE010B969FDF44E0FC
:105050006EE877E1CE010B9699DF44E066E877E1F0
:10506000CE010B9693DF44E06AE677E1CE010B9622
:105070008DDF44E066E677E1CE010B9687DF44E002
:1050800062E677E1CE010B9681DF4CE06BEC77E1D5
:10509000CE010B967BDF42E06CED77E0CE010B9604
:1050A00075DF42E06AED77E0CE010B966FDF42E0FC
:1050B00068ED77E0CE010B9669DF42E066ED77E0C0
:1050C000CE010B9663DF42E064ED77E0CE010B96F4
:1050D0005DDF42E062ED77E0CE010B9657DF44E002
:1050E00060E272E0CE010B9651DF44E06CE172E0C9
:1050F000CE010B964BDF44E068E172E0CE010B96E7
:1051000045DF44E064EE74E1CE010B963FDF44E0FE
:105110006AE575E1CE010B9639DF44E066EE77E093
:10512000CE010B9633DF42E069E172E1CE010B96CE
:105130002DDF42E067E172E1CE010B9627DF42E00E
:1051400063E975E0CE010B9621DF42E065E975E089
:10515000CE010B961BDF42E066E875E0CE010B96B0
:1051600015DF42E065E971E1CE010B960FDF42E009
:1051700063E971E1CE010B9609DF42E061E971E17B
:10518000CE010B9603DF42E068E875E0CE010B9696
:10519000FDDE80E290E09A87898742E0BE01675F8A
:1051A0007F4FCE010B96F2DE86E590E3A8E3B0E0F8
:1051B00089839A83AB83BC831C870B8744E0BE0141
:1051C0006F5F7F4FCE010B96E1DEE5ECF7E0849157
:1051D000882341F09091C00095FFFCCF8093C600DA
:1051E0003196F5CFE0E7F5E08491882341F0909186
:1051F000C00095FFFCCF8093C6003196F5CF80911B
:10520000C00085FFFCCF8AE08093C6002C960FB6C5
:10521000F894DEBF0FBECDBFDF91CF911F910F91EC
:105220000895AF92BF92CF92DF92EF92FF920F93C9
:105230001F93CF93DF93CDB7DEB7E0970FB6F89407
:10524000DEBF0FBECDBF80E1E3E7F2E0DE01919665
:1052500001900D928A95E1F780E1E3E8F2E0DE014A
:10526000519601900D928A95E1F780E1E3E9F2E031
:10527000DE01119601900D928A95E1F7DE0191967B
:105280006FE278E0AE014F5E5F4F26E737E1CE0177
:1052900001965C018CE49CE08E010F5C1F4FCD9069
:1052A000DD90ED90FD90FB01C192D192E192F192DF
:1052B000BF01FA01C190D190E190F190AF01F901E5
:1052C000C192D192E192F1929F01F501C190D190EA
:1052D000E190F1905F01FC01C192D192E192F192D3
:1052E000CF01A017B107D9F60E94316380E090E0AA
:1052F000AAEFB3E480936E1790936F17A093701783
:10530000B09371178093721790937317A0937417CB
:10531000B093751710928A1710928B1710928C17F2
:1053200010928D1780E29EE4A0E0B0E08093861793
:1053300090938717A0938817B093891710928E17B0
:1053400010928F17109290171092911780E090E0B2
:10535000A0EAB1E480936A1790936B17A0936C173F
:10536000B0936D178DEC9CECACECBEE380936617AC
:1053700090936717A0936817B093691780E090E047
:10538000A0EAB0E48093621790936317A093641728
:10539000B09365171092D3171092D4171092D517A7
:1053A0001092D6171092CF171092D0171092D117D3
:1053B0001092D2171092CB171092CC171092CD17D3
:1053C0001092CE1788EC90E09093DD078093DC0775
:1053D0001092DB071092DA071092D9071092D807C3
:1053E0008CED90E09093D7078093D60783E290E00E
:1053F0009093D5078093D4071092D3071092D207C9
:105400008AE097EDA1EBB1E4809320029093210212
:10541000A0932202B09323028EE297E1A8E5BEE3B7
:1054200080931C0290931D02A0931E02B0931F0252
:105430008EE395ECA2E1B4E48093180290931902F4
:10544000A0931A02B0931B020E94836D80E090E04B
:10545000A0E8BFE38093000290930102A0930202B0
:10546000B093030280E090E8AAE0B4E48093E414EF
:105470009093E514A093E614B093E71481E0809331
:105480004A0280E491E09093961180939511909355
:1054900094118093931188E790E0909392118093F8
:1054A000911180E090E0A0E9B0E480935A159093C8
:1054B0005B15A0935C15B0935D1580E090E0A0E0D3
:1054C000B0E48093E6079093E707A093E807B093D2
:1054D000E90780E590E090931A1280931912909357
:1054E000181280931712109294051092930510923F
:1054F00087051092860581E090E09093890580935E
:1055000088051092960510929505E5ECF7E08491D8
:10551000882341F09091C00095FFFCCF8093C60096
:105520003196F5CFE3EAF7E08491882341F090913A
:10553000C00095FFFCCF8093C6003196F5CF8091D7
:10554000C00085FFFCCF8AE08093C600E0960FB6CE
:10555000F894DEBF0FBECDBFDF91CF911F910F91A9
:10556000FF90EF90DF90CF90BF90AF902DCDCF9375
:10557000DF93CDB7DEB72C970FB6F894DEBF0FBE22
:10558000CDBF84E690E09C878B8786E590E3A8E317
:10559000B0E089839A83AB83BC8344E0BE016B5F38
:1055A0007F4FCE010B96D4DC43E050E0BE016B5F31
:1055B0007F4FCE0101960E94B3D8892B09F01DC1FF
:1055C00040E16FE278E0CE010B96C2DC40E166E795
:1055D00077E1CE010B96BCDC40E16CE47CE0CE01CF
:1055E0000B96B6DC0E94316344E06EE677E1CE01B3
:1055F0000B96AEDC44E062E777E1CE010B96A8DCC7
:1056000044E06AE877E1CE010B96A2DC44E06EE864
:1056100077E1CE010B969CDC44E066E877E1CE01B1
:105620000B9696DC44E06AE677E1CE010B9690DCBF
:1056300044E066E677E1CE010B968ADC44E062E660
:1056400077E1CE010B9684DC4CE06BEC77E1CE0188
:105650000B967EDC42E06CED77E0CE010B9678DCB9
:1056600042E06AED77E0CE010B9672DC42E068ED35
:1056700077E0CE010B966CDC42E066ED77E0CE0180
:105680000B9666DC42E064ED77E0CE010B9660DCC1
:1056900042E062ED77E0CE010B965ADC44E060E236
:1056A00072E0CE010B9654DC44E06CE172E0CE0176
:1056B0000B964EDC44E068E172E0CE010B9648DCCC
:1056C00044E064EE74E1CE010B9642DC44E06AE50E
:1056D00075E1CE010B963CDC44E066EE77E0CE014E
:1056E0000B9636DC42E069E172E1CE010B9630DCCC
:1056F00042E067E172E1CE010B962ADC42E063E909
:1057000075E0CE010B9624DC42E065E975E0CE0140
:105710000B961EDC42E066E875E0CE010B9618DCC5
:1057200081E080934A0242E065E971E1CE010B9687
:105730000FDC42E063E971E1CE010B9609DC42E047
:1057400061E971E1CE010B9603DC80919511909196
:1057500096118A3F910534F48AEF90E09093961168
:105760008093951180919311909194118A3F9105A6
:1057700034F48AEF90E09093941180939311809188
:105780009111909192118035910534F480E590E06B
:10579000909392118093911142E068E875E0CE01F8
:1057A0000B96D6DB42E0BE01675F7F4FCE010B96C2
:1057B000CFDB0E94836DE5ECF7E08491882341F014
:1057C0009091C00095FFFCCF8093C6003196F5CF35
:1057D000E9E8F7E08491882341F09091C00095FFBB
:1057E000FCCF8093C6003196F5CF8091C00085FF35
:1057F000FCCF8AE08093C60001C013DD0FD82C9641
:105800000FB6F894DEBF0FBECDBFDF91CF910895E4
:105810008F929F92AF92BF92CF92DF92EF92FF92C0
:105820000F931F93CF93DF93CDB7DEB764970FB677
:10583000F894DEBF0FBECDBF6B837C838D839E83C8
:1058400058874F833A8729871C870B87CD86DE864A
:10585000EF86F88A898A9A8AAB8ABC8A8CE291E0C0
:105860009A83898344E0BE016D5F7F4FCE0101962C
:105870008DDB8B819C81AD81BE8181309840A105FB
:10588000B10518F142E0BE01695F7F4FCE0101967C
:105890007DDB42E0BE01675F7F4FCE01019676DB84
:1058A00042E0BE01655F7F4FCE0101966FDB44E0B1
:1058B000BE01635F7F4FCE01019668DB44E0BE010D
:1058C0006F5E7F4FCE01019661DB64960FB6F89450
:1058D000DEBF0FBECDBFDF91CF911F910F91FF9023
:1058E000EF90DF90CF90BF90AF909F908F900895F2
:1058F0002F923F924F925F926F927F928F929F92E0
:10590000AF92BF92CF92DF92EF92FF920F931F93CD
:10591000CF93DF93CDB7DEB7C853D1400FB6F8941D
:10592000DEBF0FBECDBF60E080E20E947577999A1E
:10593000A19A82E08093C0001092C50080E180931C
:10594000C4008091C10080618093C1008091C1003A
:1059500088608093C1008091C10080688093C100FD
:10596000EBE9F8E08491882341F09091C00095FF25
:10597000FCCF8093C6003196F5CF8091C00085FFA3
:10598000FCCF8AE08093C600E1EAF8E084918823A6
:1059900041F09091C00095FFFCCF8093C6003196F6
:1059A000F5CF84EF91E0C050DF4F99838883C050DA
:1059B000D14044E0BE016F5F7F4FCE019395C8DABE
:1059C00099808A807B806C8088EF91E0C050DF4FA7
:1059D00099838883C050D14044E0BE016F5F7F4F00
:1059E000CE019395B5DA29803A804B805C8020E027
:1059F00030E0A901692D782D872D962D0E94E6D5DE
:105A000020E030E040E85FEB692D782D18165CF05F
:105A1000872D962D0E94C3CD811125C030E020E056
:105A200090E080E00CC0872D962D0E94C3CD81119F
:105A300004C030E020E090E002C09401C30140E8DF
:105A4000A42E4FE4B42E43ECC42E47ECD42EE32E08
:105A5000F22E092F182FA201910160E070E088E476
:105A600092EC0E94E7AE20E030E0A901692D782D8C
:105A7000872D962D0E94C3CD882309F455C6CB5C93
:105A8000DE4F188219821A821B82C553D140CF5C27
:105A9000DE4F188219821A821B82C153D14084EFD3
:105AA00091E09A83898344E0BE016B5C7E4FCE0116
:105AB00001966CDA44E0BE016F5C7E4FCE01019628
:105AC00065DA0E94E62345C00E94B07868387341C9
:105AD00081059105D0F580918E0581110EC00E943F
