:100000000C945B0C0C948C0C0C948C0C0C948C0C41
:100010000C948C0C0C948C0C0C948C0C0C948C0C00
:100020000C948C0C0C948C0C0C948C0C0C948C0CF0
:100030000C948C0C0C948C0C0C948C0C0C948C0CE0
:100040000C948C0C0C94B3580C948C0C0C948C0C5D
:100050000C948C0C0C948C0C0C945D490C94DB4728
:100060000C948C0C0C940E940C948C0C0C948C0CA6
:100070000C948C0C0C948C0C0C948C0C0C948C0CA0
:100080000C948C0C0C948C0C0C948C0C0C948C0C90
:100090000C948C0C0C948C0C0C948C0C0C948C0C80
:1000A0000C948C0C0C948C0C0C948C0C0C948C0C70
:1000B0000C948C0C0C948C0C0C948C0C0C948C0C60
:1000C0000C948C0C0C948C0C0C948C0C0C9407469B
:1000D0000C94DE450C948C0C0C948C0C0C948C0CB5
:1000E0000C948C0CE941EC41DB41DF41E5412342BA
:1000F000F041F441FA41FE41024208420C421042F2
:10010000234216421A421E42F746FC4601470B475D
:1001100015478E471F4727472F47394743474D47C6
:100120005C4766478E4770477A478447C249CF4944
:10013000EB49F849124A1F4A394A3B4A084AD73B19
:100140003BCE016E84BCBFFDC12F3D6C74319ABDA6
:1001500056833DDA3D00C77F11BED9E4BB4C3E91CA
:100160006BAAAABE000000803F05A84CCDB2D44EB9
:10017000B93836A9020C50B9918688083CA6AAAABB
:100180002ABE000000803F004E414E494E4954595E
:10019000494E46CDCCCC3D0AD7233C17B7D1387752
:1001A000CC2B329595E6241FB14F0A000020410068
:1001B00000C84200401C4620BCBE4CCA1B0E5AAEB2
:1001C000C59D7400407A10F35A00A0724E180900C1
:1001D00010A5D4E80000E87648170000E40B5402AC
:1001E0000000CA9A3B000000E1F5050000809698E7
:1001F00000000040420F000000A086010000001037
:100200002700000000E80300000000640000000078
:10021000000A00000000000100000000002C76D859
:1002200088DC674F0823DFC1DFAE59E1B1B796E53F
:10023000E3E453C63AE651997696E8E6C28426EBA3
:10024000898C9B62ED407C6FFCEFBC9C9F40F2BAB6
:10025000A56FA5F490055A2AF75C936B6CF9676D4E
:10026000C11BFCE0E40D47FEF520E6B500D0ED90A3
:100270002E0300943577050080841E080000204E70
:100280000A000000C80C333333330F986E12831109
:1002900041EF8D2114893BE65516CFFEE6DB18D1E0
:1002A000844B381BF77C1D901DA4BBE424203284B2
:1002B000725E228100C9F124ECA1E53D272F005395
:1002C00044207072696E74696E672062797465206B
:1002D000004E6F74205344207072696E74696E67AB
:1002E000002E0044656C6574696F6E206661696CF0
:1002F00065642C2046696C653A200046696C65206F
:1003000064656C657465643A002E006F70656E20DC
:100310006661696C65642C2046696C653A20005002
:100320004944204175746F74756E652066696E6905
:1003300073686564212050757420746865204B7063
:100340002C204B6920616E64204B6420636F6E73B8
:1003500074616E747320696E746F20436F6E66698A
:100360006775726174696F6E2E6800504944204150
:1003700075746F74756E65206661696C65642120A3
:1003800074696D656F75740020403A006F6B20547E
:100390003A006F6B20423A00504944204175746F17
:1003A00074756E65206661696C6564212054656DA5
:1003B000706572617475726520746F6F206869670B
:1003C0006800204B643A2000204B693A2000204B03
:1003D000703A200020436C617369632050494420C7
:1003E000002054753A2000204B753A2000206D61A2
:1003F000783A2000206D696E3A200020643A20008F
:1004000020626961733A2000486F74656E64206FE2
:100410006666736574733A002200556E6B6E6F7773
:100420006E20636F6D6D616E643A202200486F74B8
:10043000656E64206F6666736574733A007A5F6DEB
:10044000696E3A2000795F6D696E3A2000785F6DC1
:1004500061783A2000785F6D696E3A20005A3A0060
:10046000593A0020436F756E7420583A2000453A7F
:10047000005A3A00593A00583A004649524D5741FD
:1004800052455F4E414D453A4D61726C696E205642
:10049000313B20537072696E7465722F6772626CA3
:1004A000206D617368757020666F722067656E36A7
:1004B000204649524D574152455F55524C3A687457
:1004C0007470733A2F2F7777772E67697468756227
:1004D0002E636F6D2F74656E6C6F672050524F5492
:1004E0004F434F4C5F56455253494F4E3A312E3091
:1004F0002E30204D414348494E455F545950453AAE
:10050000544C203344205072696E746572204558F3
:100510005452554445525F434F554E543A320A00A7
:100520002042403A0020403A00202F0020423A006A
:10053000202F006F6B20543A002569206D696E2CC6
:100540002025692073656300456E642066696C65CB
:10055000206C69737400426567696E2066696C651A
:10056000206C697374005072696E746572207374C4
:100570006F707065642064756520746F2065727299
:100580006F72732E204669782074686520657272D8
:100590006F7220616E6420757365204D3939392082
:1005A000746F20726573746172742E202854656DA7
:1005B0007065726174757265206973207265736508
:1005C000742E2053657420697420616674657220EE
:1005D00072657374617274696E6729004E6F204C86
:1005E000696E65204E756D6265722077697468204A
:1005F000636865636B73756D2C204C617374204C5C
:10060000696E653A20004E6F20436865636B7375B1
:100610006D2077697468206C696E65206E756D62F7
:1006200065722C204C617374204C696E653A200011
:10063000636865636B73756D206D69736D61746359
:10064000682C204C617374204C696E653A20004C14
:10065000696E65204E756D626572206973206E6FDC
:1006600074204C617374204C696E65204E756D6208
:1006700065722B312C204C617374204C696E653A85
:1006800020004D31313000256920686F757273206C
:100690002569206D696E7574657300446F6E652001
:1006A0007072696E74696E672066696C650050725D
:1006B000696E7465722073746F7070656420647500
:1006C0006520746F206572726F72732E2046697890
:1006D00020746865206572726F7220616E64207587
:1006E0007365204D39393920746F207265737461D8
:1006F00072742E202854656D706572617475726510
:100700002069732072657365742E205365742069A7
:1007100074206166746572207265737461727469A5
:100720006E6729004E6F204C696E65204E756D62B4
:100730006572207769746820636865636B73756D93
:100740002C204C617374204C696E653A20004E6F0A
:1007500020436865636B73756D2077697468206CDE
:10076000696E65206E756D6265722C204C617374C4
:10077000204C696E653A2000636865636B73756D24
:10078000206D69736D617463682C204C61737420F3
:100790004C696E653A20004C696E65204E756D623D
:1007A0006572206973206E6F74204C617374204CE5
:1007B000696E65204E756D6265722B312C204C611F
:1007C0007374204C696E653A20004572726F723AFC
:1007D000004D313130006572726F7220777269742A
:1007E000696E6720746F2066696C6500205A3A0054
:1007F00020593A0020583A00656E6473746F707324
:10080000206869743A20006563686F3A00446F6E2F
:100810006520736176696E672066696C652E006F6E
:100820006B004D3239002020506C616E6E65724253
:10083000756666657242797465733A200020467267
:100840006565204D656D6F72793A200041707220A8
:100850002031203230323100436F6D70696C656435
:100860003A200054656E6C6F6700207C20417574DF
:10087000686F723A2000417072202031203230328D
:10088000312030313A31343A313200204C617374C6
:1008900020557064617465643A2000312E302E3228
:1008A00030004D61726C696E200020536F66747762
:1008B00061726520526573657400205761746368C6
:1008C000646F67205265736574002042726F776EA3
:1008D000206F7574205265736574002045787465C7
:1008E000726E616C20526573657400506F7765722B
:1008F00055700073746172740053657474696E6727
:10090000732053746F726564005A323A00457874EC
:10091000656E646572204F66667365743A0059327D
:100920003A00457874656E646572204F666673653B
:10093000743A0058323A005365636F6E6465727999
:10094000204D617820506F733A0020440020490008
:100950002020204D33303120500050494420736511
:100960007474696E67733A00205A00205900202081
:100970004D323036205800486F6D65206F666673C3
:10098000657420286D6D293A00204500205A00200A
:10099000580020420020540020204D323035205392
:1009A00000416476616E636564207661726961629C
:1009B0006C65733A20533D4D696E206665656472BF
:1009C00061746520286D6D2F73292C20543D4D696D
:1009D0006E2074726176656C206665656472617400
:1009E0006520286D6D2F73292C20423D6D696E693D
:1009F0006D756D207365676D656E742074696D65C6
:100A000020286D73292C20583D6D6178696D756DB6
:100A1000205859206A65726B20286D6D2F73292C20
:100A200020205A3D6D6178696D756D205A206A6588
:100A3000726B20286D6D2F73292C2020453D6D6130
:100A400078696D756D2045206A65726B20286D6D23
:100A50002F73290020540020204D323034205300C1
:100A6000416363656C65726174696F6E3A20533DD2
:100A7000616363656C65726174696F6E2C20543DAF
:100A80007265747261637420616363656C65726121
:100A900074696F6E00204500205A00205900202004
:100AA0004D3230312058004D6178696D756D2041AF
:100AB0006363656C65726174696F6E20286D6D2F5C
:100AC0007332293A00204500205A00205900202086
:100AD0004D3230332058004D6178696D756D206658
:100AE000656564726174657320286D6D2F73293A92
:100AF00000204500205A0020590020204D39322086
:100B0000580053746570732070657220756E697437
:100B10003A0053746F7265642073657474696E670C
:100B200073207265747269657665640048617264E9
:100B3000636F6465642044656661756C74205365F9
:100B40007474696E6773204C6F61646564006563DB
:100B5000686F3A0000002100240027002A002D00C1
:100B60003000330001010000040107010A01000008
:100B70002200250028002B002E0031003400020145
:100B80000000050108010B010000200023002600E1
:100B900029002C002F003200000100000301060193
:100BA00009010505050507050808080802020202F3
:100BB0000A0A0808040404040101010101010101F9
:100BC0000303030303030303040707070C0C0C0CC4
:100BD0000C0C0C0C020202020606060606060606AD
:100BE0000B0B0B0B0B0B0B0B01021020200808103A
:100BF000204010204080020102010804020101028D
:100C00000408102040808040201008040201800465
:100C100002018040201008040201080402010102C0
:100C200004081020408001020408102040800000C9
:100C30000A0B02090C0D0E08070304010000000056
:100C400000000000000000000000000000000000A4
:100C50000000000000000000000012111000000061
:100C60000000000000000000000000000000000084
:100C7000000000006563686F3A00202D20496E7601
:100C8000616C6964206578747275646572206E7534
:100C90006D62657220210070012C0190012701B066
:100CA000012201C0011D01F00118011002130130E1
:100CB000020E016002090190020401C002FF00005F
:100CC00003FA004003F5008003F000D003EB00209E
:100CD00004E6007004E100E004DC004005D700C039
:100CE00005D2004006CD00D006C8008007C3003002
:100CF00008BE00F008B900C009B400B00AAF00B0E7
:100D00000BAA00D00CA500000EA000500F9B00C045
:100D10001096005012910000148C00C0158700B08E
:100D2000178200B0197D00D01B7800001E730040B0
:100D3000206E0090226900F024640040275F00903C
:100D4000295A00E02B5500102E500020304B001087
:100D5000324600E033410090353C001037370070D8
:100D6000383200A0392D00B03A2800A03B230060A3
:100D70003C1E00103D1900903D1400103E0F007005
:100D80003E0A00C03E0500003F00003A204578744E
:100D90007275646572207377697463686564206F27
:100DA00066662E204D415854454D50207472696737
:100DB00067657265642021003A2045787472756415
:100DC0006572207377697463686564206F66662E48
:100DD000204D494E54454D502074726967676572C5
:100DE000656420210054656D70657261747572656B
:100DF0002068656174656420626564207377697436
:100E000063686564206F66662E204D415854454DD9
:100E100050207472696767657265642021210054EF
:100E2000656D706572617475726520686561746561
:100E30006420626564207377697463686564206FF9
:100E400066662E204D494E54454D50207472696798
:100E50006765726564202121004572726F723A00E5
:100E60004E65772056616C756520457272200025AD
:100E7000730057726974696E6720746F2066696CBD
:100E8000653A20002E006F70656E206661696C65A2
:100E9000642C2046696C653A20002E006F70656EE8
:100EA000206661696C65642C2046696C653A200097
:100EB00046696C652073656C6563746564002053D6
:100EC000697A653A200046696C65206F70656E65C9
:100ED000643A20002E006F70656E206661696C6553
:100EE000642C2046696C653A20005344206361728B
:100EF00064206F6B006F70656E526F6F7420666157
:100F0000696C656400766F6C756D652E696E6974C9
:100F1000206661696C6564004572726F723A0053B5
:100F20004420696E6974206661696C006563686F4E
:100F30003A0024F4D43050C38E20C2A24017828BD2
:100F40007011127A910D816CD90AA861E108C75815
:100F50006607615143061E4B5D05C145A7041A4152
:100F60001104093D9803713931034036DB026533C2
:100F70009102D4305402802E1D02632CEE01752A9A
:100F8000C501B028A001102781018F2564012B2401
:100F90004B01E0223401AC211F018D200D01801F87
:100FA000FC00841EED00971DDF00B81CD200E61B7C
:100FB000C600201BBC00641AB200B219A8000A19AE
:100FC000A0006A189900D117910040178B00B51640
:100FD000840031167E00B31579003A157300C714EA
:100FE0006F0058146A00EE1366008813630025131F
:100FF0005E00C7125B006C12570015125400C1113D
:10100000510070114F0021114B00D61049008D1076
:1010100047004610440002104200C00F4000800FFD
:101020003E00420F3C00060F3B00CB0E3800930EF3
:1010300037005C0E3500270E3400F30D3200C10D71
:101040003100900D3000600D2E00320D2D00050D89
:101050002C00D90C2B00AE0C2900850C29005C0C4F
:101060002700350C27000E0C2600E80B2400C40BCB
:101070002400A00B23007D0B23005A0B2100390B09
:101080002100180B2000F80A1F00D90A1E00BB0A15
:101090001E009D0A1D00800A1D00630A1C00470AED
:1010A0001B002C0A1B00110A1A00F7091A00DD099F
:1010B0001900C4091900AB091900920917007B092E
:1010C0001800630917004C0916003609160020099C
:1010D00016000A091500F5081500E0081400CC08F0
:1010E0001400B8081400A4081400900813007D0828
:1010F00012006B081300580812004608120034084A
:101100001100230811001208110001081100F00756
:101110001000E0071000D0071000C0071000B00753
:101120000F00A107100091070E0083070F0074073E
:101130000F0065070E0057070E0049070E003B071A
:101140000D002E070E0020070D0013070D000607E7
:101150000D00F9060C00ED060D00E0060C00D406AB
:101160000C00C8060C00BC060C00B0060C00A4065F
:101170000B0099060C008D060B0082060B0077060B
:101180000B006C060B0061060A0057060B004C06AC
:101190000A0042060A0038060A002E060A00240643
:1011A0000A001A060A001006090007060A00FD05D3
:1011B0000900F4050900EB050900E2050900D9055D
:1011C0000900D0050900C7050900BE050900B505DD
:1011D0000800AD050800A50509009C050800940558
:1011E00008008C050800840508007C0508007405CB
:1011F00008006C050700650508005D050700560539
:1012000008004E050700470507004005080038059F
:101210000700310507002A050700230507001C0504
:101220000600160507000F05070008050600020561
:101230000700FB040600F5040700EE040600E804BE
:101240000600E2040700DB040600D5040600CF0414
:101250000600C9040600C3040600BD040600B70466
:101260000600B1040500AC040600A6040600A004B4
:1012700005009B04060095040500900406008A04FE
:10128000050085040500800406007A040500750445
:101290000500700405006B04050066040500610488
:1012A00005005C04050057040500520405004D04C8
:1012B000050048040500430405003E0404003A0408
:1012C000050035040500300404002C040500270443
:1012D0000400230405001E0404001A04040016047C
:1012E0000500110404000D040400090405000404B1
:1012F000040000040400FC030400F8030400F403E9
:101300000400F0030400EC030400E8030400E40319
:101310000400E0030400DC030400D8030400D40349
:101320000400D0030400CC030400C8030300C50379
:10133000030024F404D9201BC40C5C0E9804C409D7
:101340005F0265077101F405F900FB04B30048046E
:101350008700C10369005803550003034500BE021E
:101360003A008402310053022A00290225000402B7
:101370002000E4011C00C8011900AF01170098010A
:10138000140084011300710110006101100051016B
:101390000E0043010D0036010B002B010B00200154
:1013A0000B00150109000C01090003010800FB00F6
:1013B0000800F3000800EB000700E4000600DE0070
:1013C0000600D8000600D2000600CC000500C700C9
:1013D0000500C2000500BD000400B9000400B5000E
:1013E0000400B1000400AD000400A9000400A50041
:1013F0000300A20003009F0004009B00030098006C
:1014000003009500020093000300900003008D008C
:1014100002008B00030088000200860002008400A6
:101420000300810002007F0002007D0002007B00BB
:1014300002007900020077000100760002007400CB
:10144000020072000100710002006F0002006D00D6
:1014500001006C0002006A000100690002006700E0
:1014600001006600010065000100640002006200E6
:10147000010061000100600001005F0002005D00EA
:1014800001005C0001005B0001005A0001005900EE
:1014900001005800010057000100560001005500EE
:1014A00001005400010053000000530001005200ED
:1014B000010051000100500001004F0001004E00EA
:1014C00000004E0001004D0001004C0001004B00E7
:1014D00000004B0001004A000100490001004800E3
:1014E00000004800010047000100460000004600DF
:1014F00001004500000045000100440001004300D8
:1015000000004300010042000000420001004100D1
:10151000000041000100400001003F0000003F00CA
:1015200001003E0000003E0001003D0000003D00C3
:1015300001003C0000003C0000003C0001003B00BA
:1015400000003B0001003A0000003A0001003900B1
:1015500000003900010038000000380000003800A9
:10156000010037000000370001003600000036009F
:101570000000360001003500000035000000350095
:10158000010034000000340000003400010033008A
:101590000000330000003300010032000000320080
:1015A0000000320001003100000031000000310075
:1015B00001003000000030000000300001002F006A
:1015C00000002F0000002F0000002F0001002E005F
:1015D00000002E0000002E0001002D0000002D0054
:1015E00000002D0000002D0001002C0000002C0048
:1015F00000002C0000002C0001002B0000002B003C
:1016000000002B0000002B0001002A0000002A002F
:1016100000002A0000002A00010029000000290023
:101620000000290000002900000029000100280016
:10163000000028000000280000002800000028000A
:1016400001002700000027000000270000002700FD
:1016500000002700010026000000260000002600F0
:1016600000002600000026000100250000002500E3
:1016700000002500000025000000250000002500D6
:1016800001002400000024000000240000002400C9
:1016900000002400010023000000230000002300BC
:1016A00000002300000023000000230000002300AE
:1016B00001002200000022000000220000002200A1
:1016C0000000220000002200010021000000210093
:1016D0000000210000002100000021000000210086
:1016E0000000210001002000000020000000200078
:1016F000000020000000200000002000000020006A
:101700000000200001001F0000001F0000001F005B
:1017100000001F0000001F0000001F0000001F004D
:1017200001001E0000001E0000001E0000001E0040
:101730000000000048C2000000000000000022007D
:10174000656E717565696E6720220000004040007B
:101750000040400000003F20746F6F206C6F6E6788
:1017600020657874727573696F6E20707265766526
:101770006E7465640020636F6C64206578747275A4
:1017800073696F6E2070726576656E74656400654E
:1017900063686F3A000040174400001B4400801843
:1017A00044000048C2000000000000000020423A4F
:1017B0000020453A00543A002200656E7175656953
:1017C0006E672022006563686F3A004D3234004D29
:1017D0003233202573006175746F25692E67007C94
:1017E0003C3E5E2B3D3F2F5B5D3B2C2A225C005034
:1017F00072696E7465722068616C7465642E206B0A
:10180000696C6C28292063616C6C656421005072DE
:10181000696E7465722073746F707065642064758E
:101820006520746F206572726F72732E204669781E
:1018300020746865206572726F7220616E64207515
:101840007365204D39393920746F20726573746166
:1018500072742E202854656D70657261747572659E
:101860002069732072657365742E20536574206936
:101870007420616674657220726573746172746934
:101880006E67290047323820585900526573656EDB
:10189000643A20006F6B0020573A0020453A00540C
:1018A0003A00FFFFFF00C0234400001B44008018E3
:1018B0004400A4BA77BA11241FBECFEFD1E2DEBF35
:1018C000CDBF00E00CBF1BE0A0E0B2E0EEECF8E919
:1018D00001E00BBF02C007900D92AA38B107D9F7FB
:1018E00029E1AAE8BBE001C01D92A43DB207E1F7DF
:1018F0001CE0CAE5DCE000E006C021970109802F6A
:10190000FE010E94D0CAC935D10780E00807A9F7B7
:101910000E94EFB00C9456CC0C9400002F923F9292
:101920004F925F926F927F928F929F92AF92BF92EF
:10193000CF92DF92EF92FF920F931F93CF93DF939B
:10194000CDB7DEB7C557D1090FB6F894DEBF0FBECD
:10195000CDBF2DB73EB7E2963FAF2EAFE297809155
:101960004F0C882341F00E94775510923117109246
:10197000301710924F0C87E40E941674782E88233B
:1019800009F48CC00E943C740E945DC864307105EB
:1019900009F474C0E4F46230710509F45CC00CF021
:1019A00062C077FF02C00C940122A0E8AA2EAFE427
:1019B000BA2EA3ECCA2EA7ECDA2E86017501A60179
:1019C0009501C601B5010E941EAD0C9401226A3535
:1019D000710509F45AC02CF56C31710511F00C94A5
:1019E00001226FE672E183E89AE30E94257B6FE6AD
:1019F00072E183E89AE30E94257B6FE672E183E857
:101A00009AE30E94257B6FE672E183E89AE30E94E5
:101A1000257B60E070E080E090E00E94BAA80C9422
:101A200001226B357105A9F16C35710511F00C942B
:101A30000122F0E8AF2EFFE4BF2EF3ECCF2EF7EC3F
:101A4000DF2E86017501A6019501C601B5010E9430
:101A5000EC790C9401228091B019811104C00E948C
:101A60005CA381E007C08091B019811107C00E947A
:101A70005CA380E00E94C19A0C94DC2560E070E0D9
:101A8000CB010E94257B0C94012210924C190C94DE
:101A9000012281E080934C190C9401228DE40E9474
:101AA0001674882311F40C94B3210E943C740E9494
:101AB0005DC86B3C710511F40C949B180CF0F7C0D9
:101AC0006135710511F40C94CE150CF054C06831D9
:101AD000710509F436C43CF56331710509F4F4C1AC
:101AE00094F46131710509F4D8C114F00C94DD153A
:101AF0006230710510F00C94012281E090E00E94A8
:101B00009B950C9401226531710509F4F3C30CF423
:101B10009EC36631710509F4F1C36731710509F49B
:101B2000F5C30C9401226E31710509F4BEC484F42E
:101B30006A31710509F421C40CF419C46B317105C3
:101B400009F429C46C31710509F479C40C9401229B
:101B50006032710509F41BC60CF491C66A32710536
:101B600009F4EBC66035710511F00C940122999AC5
:101B7000A19A0C9401226D36710509F4B3C70CF0DB
:101B800050C06C35710511F40C9417164CF5633583
:101B9000710511F40C94D81514F40C94D415643513
:101BA000710511F40C94DD156535710511F00C9477
:101BB000012283E50E9416740E943C7420E030E00C
:101BC0004AE754E40E9483BB0E9463C860933519BE
:101BD0007093361980933719909338190C94012219
:101BE0006936710509F4D5C66CF46836710511F0D3
:101BF0000C9401226FEF7FEF8FEF9FEF0E9448A8B8
:101C00000C9401226A36710509F478C76B367105A8
:101C100011F00C9401221092B9191092B8190C9479
:101C200001226837710511F40C94D517ECF4633771
:101C3000710511F40C94D4164CF46237710511F04F
:101C40000C940122E7E7F4E00C9401176537710565
:101C500011F40C94E3166737710511F00C9401220E
:101C6000EFEDF2E00C94E0176C38710509F480C6D2
:101C700054F46937710511F00C94012281E00E943F
:101C80001B520C9401226E3B710509F431C7693C6B
:101C9000710511F00C94012294E6E92E9DE0F92ED5
:101CA0000CEC12E024E0D22ED00E0C9482186A3E86
:101CB00033E0730711F40C94A91F0CF07CC06F3251
:101CC00051E0750711F40C941A1B9CF56C3D7105DD
:101CD00011F40C94201AA4F46D3C710511F40C94C9
:101CE000DB1814F40C94B9186E3C710511F40C94C3
:101CF0003B196A3D710511F40C9459190C94012299
:101D0000623E710509F4B5C53CF46D3D710511F4F1
:101D10000C942F1A0C9401226D3291E0790711F482
:101D20000C943E1A6E32714011F40C94061B0C9404
:101D30000122673FB1E07B0711F40C948C1E0CF577
:101D4000643FF1E07F0711F40C94861E4CF4603977
:101D5000714011F00C9401220E943EB00C940122BB
:101D6000653F41E0740711F40C94891E663F714091
:101D700011F00C9401220E9438320E94AB350C9471
:101D80000122603A83E0780709F43AC53CF46D35E6
:101D9000724011F40C948F1E0C940122673EB3E044
:101DA0007B0711F40C949B21693E734011F40C9451
:101DB000841F0C9401226B3FF3E07F0711F40C9415
:101DC000DE209CF5653F33E0730711F40C943A2054
:101DD000B4F46C3E53E0750711F40C94B11F14F485
:101DE0000C94AE1F633F93E0790711F40C94C41F69
:101DF000643F734011F40C94FF1F0C940122673F61
:101E0000B3E07B0711F40C94902014F40C9475202B
:101E1000683FF3E07F0711F40C94AB20693F7340F7
:101E200011F40C94C3200C940122673034E0730742
:101E300011F40C946E21DCF46E3F53E0750711F43D
:101E40000C9408213CF46D3F734011F40C94022172
:101E50000C9401226F3FA3E07A0711F40C9438210F
:101E60006115744011F40C9450210C9401226930D6
:101E7000E4E07E0711F40C946B2114F40C946821B7
:101E80006A3024E0720711F40C94332160317440FD
:101E900011F40C9473210C9401225F9847988A984E
:101EA0009FB7F894809108018E7F809308019FBFAF
:101EB0009FB7F894809108018B7F809308019FBFA2
:101EC0008D9812980C94012283E50E941674882341
:101ED00041F00E943C740E945DC87093A70B609310
:101EE000A60B87E897E1909386178093851781E08A
:101EF00090E090932619809325191092281910923A
:101F0000271940E050E0BA018BE897E10E94983C25
:101F100080918517909186172BE1FC013496DE01A4
:101F2000159601900D922A95E1F7DC0112968D919C
:101F30009C9113979C838B8386EA92E09A83898392
:101F4000BE016F5F7F4F87E394E00E94F053CE01A4
:101F500001960E944E3AD0902719AD2CB0902819C6
:101F600080918E17882309F446C08250823030F465
:101F70008FE280933317109234173DC0609197170A
:101F8000709198178091991790919A1740E00E944C
:101F9000A73A882381F120919B17B0E22B9F9001F3
:101FA0001124C9018C5A9B4E892B29F180E090E0C5
:101FB000E0E05EE2DC01A20FB31FAC5ABB4E4C91D5
:101FC000403289F08830910539F4AE2FB0E0A35D3E
:101FD000B84E16965C93EF5FAE2FB0E0A35DB84E9F
:101FE00016964C93EF5F01968B30910519F7F0E050
:101FF000E35DF84E16828091A60B9091A70B892B7A
:1020000059F488EF92E00E94212D83E093E00E9432
:10201000212D01E010E007C08FE093E00E94212D08
:102020008AE193E0F4CF86E293E00E941F2D4AE01C
:10203000B801CE0101960E94534589819A810E9480
:102040001F2DCE0101960E94F34487E699E00E947D
:102050001F2D0E94132D85E393E00E941F2D4AE05F
:10206000B801CE0101960E94534589819A810E9450
:102070001F2DCE0101960E94F34487E699E00E944D
:102080001F2D0E94132D0F5F1F4F0730110559F6AA
:10209000E12CF12C00E010E077E8672E77E1772E55
:1020A000DA942296DFAE2297E6EA8E2EE2E09E2EAA
:1020B000EA14FB0409F492C07092861760928517A7
:1020C000E2E0F0E0F0932619E093251922968FAD17
:1020D00022978E1990E0909328198093271940E059
:1020E00050E0BA018BE897E10E94983C80918517F7
:1020F00090918617FC013496DE0115962BE1019034
:102100000D922A95E1F7DC0112968D919C9113971F
:102110009C838B839A828982BE016F5F7F4F87E3A6
:1021200094E00E94F053CE0101960E944E3A63E380
:1021300077E1CE01CB960E94864580915B17811195
:1021400045C021968EAD9FAD2197892B09F43EC0E5
:10215000BE01655C7F4FCE0101960E947E452DB683
:102160003EB64D815E812A01F1E04F1A51082DB72C
:102170003EB7241B350B0FB6F8943EBF0FBE2DBFE4
:102180008DB79EB701966C014115510541F0C11400
:10219000D10429F0B601CE0101960E94CD53F6017B
:1021A000CF018C199D098415950514F40C94042213
:1021B000DD24D3940FB6F8943EBE0FBE2DBECE01E3
:1021C00001960E94F344D1100C940C22CE01CB96C0
:1021D0000E94F3445FEFE51AF50A6ACF84E493E0C6
:1021E0000E941F2D6091A60B7091A70B4AE0CE01B3
:1021F00001960E94534589819A810E941F2DCE012C
:1022000001960E94F3440E94132D8091A60B909199
:10221000A70B019646E0489F9001499F300D11247D
:102220002017310754F08DE593E00E94212D8AE6B6
:1022300093E00E94212D0C94012288E793E00E94F4
:10224000212D85E893E00E94212D0C940122E6E5E2
:10225000F5E08491882341F09091C00095FFFCCF78
:102260008093C6003196F5CF8091C00085FFFCCFEA
:102270008AE08093C600109226191092251940E03A
:1022800050E0BA018AE697E10E94983C8BE1EAE6C9
:10229000F7E1DE01159601900D928A95E1F78091A4
:1022A0006817909169179C838B8386EA92E09A83E2
:1022B0008983BE016F5F7F4F87E394E00E94F053F4
:1022C000CE0101960E944E3AE8E4F5E0849188231D
:1022D00041F09091C00095FFFCCF8093C6003196ED
:1022E000F5CF8091C00085FFFCCF8AE08093C600C7
:1022F0000C9401220E9446520C9401221092311734
:1023000010923017109232170C940122E0903B0C7F
:10231000F0903C0C84E0E80EF11C6AE270E0C7012A
:102320000E9404CC009719F0FC013197108200E064
:1023300010E0980141E0B701C7010E9484550C9458
:10234000012280913217882331F081E090E0909350
:102350003117809330170E94CF476093AB0B709377
:10236000AC0B8093AD0B9093AE0B0C94012281E0EB
:1023700090E00E949B950C94012280913217882353
:1023800011F40C94012283E50E94167481110C94BF
:10239000B5220C94012280913217882309F439C0A8
:1023A000EFEBF2E08491882341F09091C00095FF1B
:1023B000FCCF8093C6003196F5CF60915E17709187
:1023C0005F1780916017909161174AE00E943D82EB
:1023D000EDEBF2E08491882341F09091C00095FFED
:1023E000FCCF8093C6003196F5CF60916217709153
:1023F000631780916417909165174AE00E943D82AF
:102400008091C00085FFFCCF8AE08093C6000C94C9
:102410000122E1EDF2E08491882341F09091C00027
:1024200095FFFCCF8093C6003196F5CF8091C00018
:1024300085FFFCCF8AE08093C6000C940122809136
:102440003B0C90913C0C6AE270E004960E9404CC34
:102450008C01892BE1F02091520C3091530C40E615
:10246000429FC001439F900D11246EE470E08053A1
:102470009D4E0E9404CC60E270E00E9404CC019664
:1024800090933C0C80933B0CF80131971082809123
:102490003B0C90913C0C049600E010E0980140E069
:1024A000BC010E9484550C9401228091321788232C
:1024B00011F40C9401220E94775580913B0C90916D
:1024C0003C0C6AE270E004960E9404CC8C01892BDB
:1024D000E1F02091520C3091530C40E6429FC00134
:1024E000439F900D11246EE470E080539D4E0E9436
:1024F00004CC60E270E00E9404CC019690933C0C06
:1025000080933B0CF8013197108200913B0C1091A5
:102510003C0C480194E0890E911C8091321788236D
:1025200011F40C94012285E099E10E94B88E10927A
:10253000311710923017DE0111967D01CD010E94F6
:10254000563A86E697E19093861780938517F801AF
:1025500084818F3209F08BC06FE270E0C4010E9469
:1025600004CC8C010F5F1F4F6AE0662E0115110528
:1025700009F483C06FE270E0C8010E9404CC6C01D2
:10258000009709F47BC00817190708F077C05C01B1
:10259000A01AB10AA501B801CE0180960E942DCCE7
:1025A000E0E2F0E0EC0FFD1FEA0DFB1D10828E0152
:1025B000005E1F4FF8018191882339F09091C0008F
:1025C00095FFFCCF8093C600F6CF8091C00085FFB9
:1025D000FCCF6092C60060918517709186176115D7
:1025E000710511F06C5F7F4F21E0AE01405E5F4FDF
:1025F000CE0105960E94CC92811131C0EBE0F3E050
:102600008491882371F09091C00095FFFCCF809356
:10261000C6003196F5CF9091C00095FFFCCF809316
:10262000C600D8018D918D018111F5CFE9E0F3E06D
:102630008491882341F09091C00095FFFCCF809356
:10264000C6003196F5CF8091C00085FFFCCF8AE0AF
:102650008093C600C7010E944E3A0C940122F0926A
:102660008617E092851786010F5F1F4F7FCF87E89F
:1026700097E1909386178093851784016091851761
:10268000709186176115710511F06C5F7F4F18A26C
:102690001BA222E0A801CE0180960E94CC92882342
:1026A000F1F0CE0180960E9473838823C1F06CA55F
:1026B0007DA58EA59FA541E00E94A73A882379F0C9
:1026C000E8A9B0E2EB9FF0011124EC5AFB4E3097E1
:1026D00031F085EE80831BA20E94673A782ECE01EE
:1026E00080960E94C68F772009F1EBEFF2E084918B
:1026F000882341F09091C00095FFFCCF8093C600E5
:102700003196F5CFF8018191882339F09091C0007E
:1027100095FFFCCF8093C600F6CF10925E17109203
:102720005F1710926017109261172CC0E3EEF2E071
:102730008491882341F09091C00095FFFCCF809355
:10274000C6003196F5CFF8018191882339F0909138
:10275000C00095FFFCCF8093C600F6CFE1EEF2E01B
:102760008491882341F09091C00095FFFCCF809325
:10277000C6003196F5CF8091C00085FFFCCF8AE07E
:102780008093C600C7010E944E3A0C9401228091AA
:10279000301790913117019721F40E943EB00E94AA
:1027A0007755E0903B0CF0903C0CE4E0EE0EF11C11
:1027B0006AE270E0C7010E9404CC009719F0FC01A6
:1027C0003197108200E010E0980141E0B701C701A5
:1027D0000E94845580913217882331F081E090E087
:1027E00090933117809330170E94CF476093AB0BC3
:1027F0007093AC0B8093AD0B9093AE0B0C940122B5
:1028000080913B0C90913C0C6AE270E005960E942E
:1028100004CC8C01892BE1F02091520C3091530CA7
:1028200040E6429FC001439F900D11246EE470E08A
:1028300080539D4E0E9404CC60E270E00E9404CC64
:10284000019690933C0C80933B0CF80131971082D9
:1028500080913B0C90913C0C059621E020932F1722
:1028600000E010E0980140E0BC010E9484550C9407
:10287000012281E090E00E949B950C9401220E942D
:10288000CF476093AF0B7093B00B8093B10B9093D5
:10289000B20B0091AB0B1091AC0B2091AD0B3091B2
:1028A000AE0B601B710B820B930B28EE33E040E004
:1028B00050E00E94C2C6CA01B9012CE330E040E0FA
:1028C00050E00E94C2C67F936F933F932F9389E39A
:1028D00095E09F938F938E010F5F1F4F1F930F9370
:1028E0000E94F7C0E5ECF7E184912DB73EB7285F71
:1028F0003F4F0FB6F8943EBF0FBE2DBF882349F05F
:102900009091C00095FFFCCF8093C60031968491D2
:10291000F5CFF8018191882339F09091C00095FF9F
:10292000FCCF8093C600F6CF8091C00085FFFCCF1E
:102930008AE08093C6000C94012283E50E941674FD
:10294000882311F40C9401220E943C740E945DC8FB
:102950008B0180E50E941674882311F40C940122E7
:102960000F3F110509F010F40C94C6220C940122BB
:1029700083E50E941674882311F40C9401220E94AE
:102980003C740E945DC87093510C6093500C0C9481
:10299000012289E690E00E942E9781110C94012279
:1029A000E3E3F5E08491882341F09091C00095FF26
:1029B000FCCF8093C6003196F5CFE0913D1934E00D
:1029C000E39FF0011124E957F34F60817181828107
:1029D000938141E00E94C482E0E3F5E08491882382
:1029E00041F09091C00095FFFCCF8093C6003196D6
:1029F000F5CFE0913D19F0E0EE0FFF1FEE55F64EDA
:102A000060817181072E000C880B990B0E942CC1EC
:102A100041E00E94C482ECE2F5E08491882341F019
:102A20009091C00095FFFCCF8093C6003196F5CF02
:102A30006091830C7091840C8091850C9091860C30
:102A400041E00E94C482E9E2F5E08491882341F0EC
:102A50009091C00095FFFCCF8093C6003196F5CFD2
:102A60006091500C7091510C072E000C880B990B43
:102A70000E942CC141E00E94C482E5E2F5E084910D
:102A8000882341F09091C00095FFFCCF8093C60051
:102A90003196F5CFE0913D19F0E0E956F34F6081B2
:102AA00070E080E090E00E94B282E0E2F5E0849184
:102AB000882341F09091C00095FFFCCF8093C60021
:102AC0003196F5CF6091960C70E080E090E00E9426
:102AD000B2828091C00085FFFCCF8AE08093C6005F
:102AE0000C94DC258FEF9FEF0E9407A40C94012229
:102AF0008FEF9FEF0E9445740C94012282E50E94A3
:102B00001674811105C020E030E040E85FE30BC09F
:102B10000E943C740E945DC861307105A1F723E3F7
:102B200033E343E250E483E5E3962FAFE397E49683
:102B30003FAFE497E5964FAFE597E6965FAFE69730
:102B40000E941674882311F10E943C74E3962FAD05
:102B5000E397E4963FADE497E5964FADE597E696AB
:102B60005FADE6970E9483BB0E945DC86F3F710511
:102B700019F014F06FEF70E077FF02C060E070E0D2
:102B80007093B9196093B8190C9401228FEF90E0FB
:102B90009093B9198093B8190C94012261E080E0F8
:102BA0000E94ED730C940122109250190C94012292
:102BB00081E0809350190C94012283E50E941674E1
:102BC0008823A1F00E943C7420E030E04AE754E4FE
:102BD0000E9483BB0E9463C8609325027093260203
:102BE00080932702909328020C94012288E50E948A
:102BF000167481110C94C92289E50E941674811102
:102C00000C94C9228AE50E94167481110C94C92281
:102C100085E40E94167481110C94C9220E943EB072
:102C20008D9A129A81E00E94FDAF0C94012282E5F8
:102C30000E941674882329F00E943C744B015C01A9
:102C400006C0812C912C40E8A42E4FE3B42E4CEC0E
:102C500052E026965FAF4EAF269703E41DE082E96F
:102C600092E124969FAF8EAF249734E5232E3DE06A
:102C7000332E22961FAE22972696AEADBFAD269775
:102C80008D912696BFAFAEAF26970E94167488230B
:102C900009F46DC02296BFAD2297B33009F05CC035
:102CA0000E943C74A50194010E94ECC72B013C01D9
:102CB00020E030E040EA51E40E9426C187FF45C091
:102CC000A3019201F80160817181828193810E9448
:102CD000ECC76B017C019B01AC0160917E1270918D
:102CE0007F1280918012909181120E9483BB609329
:102CF0007E1270937F128093801290938112A701AD
:102D000096012496AEADBFAD24976D917D918D91C6
:102D10009C910E9483BB2496EEADFFAD2497608307
:102D2000718382839383D1016D917D918D919C916B
:102D30000E942AC1A70196010E9483BB0E9463C81A
:102D4000F1016083718382839383D8014D925D92F8
:102D50006D927C9213970BC00E943C74A501940164
:102D60000E94ECC7F801608371838283938322966B
:102D7000FFAD2297FF5F2296FFAF22970C5F1F4F98
:102D800024962EAD3FAD24972C5F3F4F24963FAF46
:102D90002EAF249734E0230E311CF43009F06CCFB1
:102DA0000E9405310C940122EAE7F4E08491882323
:102DB00011F40C9401229091C00095FFFCCF8093F8
:102DC000C6003196F3CF00913B0C10913C0C0B5F89
:102DD0001F4F6AE270E0C8010E9404CC009719F00E
:102DE000FC0131971082B8018BE097E10E9490447A
:102DF0000C9401229091C00095FFFCCF8093C600F7
:102E0000319684918111F6CF6091230D7091240D3C
:102E10008091250D9091260D42E00E94C482E4E746
:102E2000F4E08491882341F09091C00095FFFCCF9D
:102E30008093C6003196F5CF6091270D7091280DD3
:102E40008091290D90912A0D42E00E94C482E1E711
:102E5000F4E08491882341F09091C00095FFFCCF6D
:102E60008093C6003196F5CF60912B0D70912C0D9B
:102E700080912D0D90912E0D42E00E94C482EEE6CD
:102E8000F4E08491882341F09091C00095FFFCCF3D
:102E90008093C6003196F5CF60912F0D7091300D63
:102EA0008091310D9091320D42E00E94C482E3E6A0
:102EB000F4E08491882341F09091C00095FFFCCF0D
:102EC0008093C6003196F5CF2FB7F8946091130D1B
:102ED0007091140D8091150D9091160D2FBF0E94C9
:102EE0002CC12091430D3091440D4091450D5091DE
:102EF000460D0E94ECC742E00E94C482E0E6F4E086
:102F00008491882341F09091C00095FFFCCF80937D
:102F1000C6003196F5CF2FB7F8946091170D7091D8
:102F2000180D8091190D90911A0D2FBF0E942CC180
:102F30002091470D3091480D4091490D50914A0D17
:102F40000E94ECC742E00E94C482EDE5F4E0849167
:102F5000882341F09091C00095FFFCCF8093C6007C
:102F60003196F5CF2FB7F89460911B0D70911C0D21
:102F700080911D0D90911E0D2FBF0E942CC120919C
:102F80004B0D30914C0D40914D0D50914E0D0E94C6
:102F9000ECC742E00E94C4828091C00085FFFCCF54
:102FA0008AE08093C6000C94012280E00E941B52AC
:102FB0000C9401229091C00095FFFCCF8093C60035
:102FC00081918111F7CF8091C00085FFFCCF8AE00D
:102FD0008093C600E5E5F4E08491882341F0909168
:102FE000C00095FFFCCF8093C6003196F5CF659B5E
:102FF00003C0E0EDF2E009C0E5EDF2E006C090911B
:10300000C00095FFFCCF8093C60081918111F7CF5E
:103010008091C00085FFFCCF8AE08093C600EDE47C
:10302000F4E08491882341F09091C00095FFFCCF9B
:103030008093C6003196F5CF649B03C0E0EDF2E0CB
:1030400009C0E5EDF2E006C09091C00095FFFCCF0D
:103050008093C60081918111F7CF8091C00085FFD8
:10306000FCCF8AE08093C600E5E4F4E084918823F5
:1030700041F09091C00095FFFCCF8093C60031963F
:10308000F5CF8091030181FF03C0E0EDF2E009C0BC
:10309000E5EDF2E006C09091C00095FFFCCF809373
:1030A000C60081918111F7CF8091C00085FFFCCFD0
:1030B0008AE08093C600EDE3F4E08491882341F038
:1030C0009091C00095FFFCCF8093C6003196F5CF5C
:1030D0004B9B03C0E0EDF2E009C0E5EDF2E006C075
:1030E0009091C00095FFFCCF8093C6008191811123
:1030F000F7CF8091C00085FFFCCF8AE08093C600A7
:103100000C940122D8018D918D010E9416748823A0
:1031100049F00E943C740E9463C8F7016083718388
:1031200082839383F4E0EF0EF11CD012EBCF0E9468
:1031300093610C94012212E9E12E12E1F12E0CECC4
:1031400012E084E0D82ED00ED8018D918D010E941E
:103150001674882339F00E943C74F70160837183F0
:1031600082839383F4E0EF0EF11CD012EDCF0C9428
:10317000012283E50E941674882351F00E943C745A
:1031800060938A1270938B1280938C1290938D129D
:1031900084E50E941674882311F40C9401220E9485
:1031A0003C7460938E1270938F1280939012909360
:1031B00091120C94012283E50E941674882351F029
:1031C0000E943C746093A6127093A7128093A81279
:1031D0009093A91284E50E941674882351F00E94EE
:1031E0003C746093AA127093AB128093AC129093CC
:1031F000AD1282E40E941674882361F00E943C7430
:103200000E9463C86093A2127093A3128093A412C9
:103210009093A51288E50E941674882351F00E94AD
:103220003C746093861270938712809388129093F7
:1032300089128AE50E941674882351F00E943C741A
:1032400060938212709383128093841290938512FC
:1032500085E40E941674882311F40C9401220E94C4
:103260003C7460937E1270937F12809380129093CF
:1032700081120C940122A4E6EA2EA9E1FA2E0CECAC
:1032800012E0B3E0DB2ED00ED8018D918D010E94AB
:103290001674882339F00E943C74F70160837183AF
:1032A00082839383F4E0EF0EF11CD012EDCF0C94E7
:1032B00001228AED90E00E942E9781110C94012248
:1032C00088E50E941674882381F000913D1910E072
:1032D0000E943C74000F111F000F111FF801EF5ED8
:1032E000F84E608371838283938389E50E9416740C
:1032F000882381F000913D1910E00E943C74000F7A
:10330000111F000F111FF801E75EF84E60837183F3
:10331000828393838AE50E941674882381F000914A
:103320003D1910E00E943C74000F111F000F111F87
:10333000F801EF5DF84E6083718382839383E5EC3F
:10334000F7E18491882341F09091C00095FFFCCF74
:103350008093C6003196F5CFEDE2F4E084918823A6
:1033600041F09091C00095FFFCCF8093C60031964C
:10337000F5CF10923D1980913D19823008F058C068
:10338000EEE1F4E08191882339F09091C00095FF3F
:10339000FCCF8093C600F6CFE0913D1924E0E29F78
:1033A000F0011124EF5EF84E60817181828193817A
:1033B00042E00E94C48203E913E0F801819188236E
:1033C00039F09091C00095FFFCCF8093C600F6CFF6
:1033D000E0913D1934E0E39FF0011124E75EF84EDF
:1033E000608171818281938142E00E94C482D80110
:1033F0008D918D01882339F09091C00095FFFCCF0D
:103400008093C600F4CFE0913D19B4E0EB9FF0014A
:103410001124EF5DF84E608171818281938142E0D9
:103420000E94C48280913D198F5F80933D19A3CF84
:103430008091C00085FFFCCF8AE08093C600E1C781
:1034400083E50E941674882309F4DBC70E943C744C
:103450000E945DC870935D0260935C02D2C783E5F1
:103460000E941674882309F4CCC70E943C740E9401
:103470005DC87093240260932302C3C780E50E9455
:103480001674882351F00E943C7460931402709368
:103490001502809316029093170289E40E94167415
:1034A000882381F00E943C742DEB37E346E05EE315
:1034B0000E9483BB609310027093110280931202EA
:1034C0009093130284E40E941674882381F00E9472
:1034D0003C742DEB37E346E05EE30E94ECC760935B
:1034E0000C0270930D0280930E0290930F0283E4FE
:1034F0000E941674882351F00E943C74609300026D
:103500007093010280930202909303020E94025280
:10351000E5E9F3E08191882339F09091C00095FFAF
:10352000FCCF8093C600F6CFE8E9F3E081918823D1
:1035300039F09091C00095FFFCCF8093C600F6CF84
:1035400060911402709115028091160290911702F9
:1035500042E00E94C482ECE9F3E08191882339F0D3
:103560009091C00095FFFCCF8093C600F6CF2DEB65
:1035700037E346E05EE360911002709111028091A2
:103580001202909113020E94ECC742E00E94C48292
:10359000E0EAF3E08191882339F09091C00095FF33
:1035A000FCCF8093C600F6CF2DEB37E346E05EE319
:1035B00060910C0270910D0280910E0290910F02A9
:1035C0000E9483BB42E00E94C482E4EAF3E081915E
:1035D000882339F09091C00095FFFCCF8093C600FE
:1035E000F6CF6091000270910102809102029091E9
:1035F000030242E00E94C4828091C00085FFFCCF9C
:103600008AE08093C6000E940531FBC683E50E94D4
:103610001674882319F00E943C7403C060E070E0C7
:10362000CB016093AE127093AF128093B01290935F
:10363000B112E7C685E40E941674882341F00E9407
:103640003C740E945DC88B0177FD12C002C000E08F
:1036500010E02D961FAE2D972E961FAE2E97E6E109
:103660002F96EFAF2F97F3E46096FFAF60970EC0F1
:103670002D961FAE2D972E961FAE2E972CE82F96C7
:103680002FAF2F9732E460963FAF609783E50E949B
:103690001674882371F00E943C742D966FAF2D979D
:1036A0002E967FAF2E972F968FAF2F9760969FAF56
:1036B000609783E40E941674882349F00E943C744A
:1036C0000E945DC8AC967FAF6EAFAC9706C045E078
:1036D00050E0AC965FAF4EAFAC970E94CF472C96B0
:1036E0006CAF7DAF8EAF9FAF2C97033011051CF4EC
:1036F000E8EAF3E01AC0EBEBF3E08191882339F0BC
:103700009091C00095FFFCCF8093C600F6CF8091CA
:10371000C00085FFFCCF8AE08093C60072C69091FE
:10372000C00095FFFCCF8093C60081918111F7CF37
:103730008091C00085FFFCCF8AE08093C6000E9484
:1037400025488FE717FF68C08093960C2C968CADA8
:103750009DADAEADBFAD2C9768968CAF9DAFAEAFB3
:10376000BFAF6897E0968CAF9DAFAEAFBFAFE097AD
:1037700061961FAE619790E46B969FAF6B97ACE13B
:103780006C96AFAF6C97B6E46D96BFAF6D976E96C3
:103790001FAE6E976F961FAE6F97A0961FAEA09745
:1037A000A1961FAEA1972FE730E040E050E02896A9
:1037B0002CAF3DAF4EAF5FAF28973FE7432E512C64
:1037C000612C712CA8961CAE1DAE1EAE1FAEA89724
:1037D00031E0A2963FAFA2976A961FAE1EAE6A97DF
:1037E00022961FAE2297212C312C23961FAE2397B1
:1037F000A8014956534FAA965FAF4EAFAA97C8018A
:10380000880F991F880F991FDC01A957B34FA49601
:10381000BFAFAEAFA49707C0F801E956F34F80835E
:1038200095CF0E94FF258091950C882309F478C1DB
:103830000E943A4E17FF0FC0B091830C2296BFAF83
:1038400022972090840C3090850CE091860C239672
:10385000EFAF239712C0A496AEADBFADA497BC91B5
:103860002296BFAF2297A496EEADFFADA49721801C
:103870003280F3812396FFAF239722962FAD2297B4
:10388000322D432D23965FAD23976E966FAD6E97C5
:103890006F967FAD6F97A0968FADA097A1969FADC5
:1038A000A1970E9449C9181694F022962FAD22972D
:1038B0006E962FAF6E976F962FAE6F97A0963FAE16
:1038C000A09723963FAD2397A1963FAFA19722964D
:1038D0002FAD2297322D432D23965FAD239761960E
:1038E0006FAD61976B967FAD6B976C968FAD6C9754
:1038F0006D969FAD6D970E9426C187FD12C02296DE
:103900004FAD229761964FAF61976B962FAE6B9735
:103910006C963FAE6C9723965FAD23976D965FAF25
:103920006D97A2968FADA297882309F479C02D9642
:103930002FAD2D972E963FAD2E972F964FAD2F97EB
:1039400060965FAD609722966FAD2297722D832DA2
:1039500023969FAD23970E9449C918160CF0E0C02A
:103960000E94CF47DC01CB012C962CAD3DAD4EAD76
:103970005FAD2C97821B930BA40BB50B8938934139
:10398000A105B10508F4CCC0D301C20128962CAD25
:103990003DAD4EAD5FAD2897821B930BA40BB50BCD
:1039A000B595A7959795879517FF03C08093960CBB
:1039B00005C0AA96EEADFFADAA9780830E94CF47BF
:1039C00068966CAF7DAF8EAF9FAF68979B01AC01DF
:1039D0002C968CAD9DADAEADBFAD2C97281B390B91
:1039E0004A0B5B0BA8962CAF3DAF4EAF5FAFA897CD
:1039F0002D969FAD2D976E969FAF6E972E96AFAD7D
:103A00002E976F96AFAF6F972F96BFAD2F97A0965B
:103A1000BFAFA0976096EFAD6097A196EFAFA1976B
:103A20002D962FAD2D972E963FAD2E972F964FADFD
:103A30002F9760965FAD609722966FAD2297722D9B
:103A4000832D23969FAD23970E9426C187FFA3C78E
:103A50000E94CF47DC01CB0168962CAD3DAD4EAD49
:103A60005FAD6897821B930BA40BB50B893893410C
:103A7000A105B10508F48FC70E94CF472C966CAF03
:103A80007DAF8EAF9FAF2C97DC01CB0168962CAD3C
:103A90003DAD4EAD5FAD6897821B930BA40BB50B8C
:103AA0006A964EAD5FAD6A97141615060CF49DC567
:103AB00028968CAD9DADAEADBFAD2897840D951DFC
:103AC000A61DB71DB595A7959795879517FF5DC757
:103AD0008093960C6A962EAD3FAD6A972F5F3F4F4D
:103AE0006A963FAF2EAF6A972D963FAD2D976196A0
:103AF0003FAF61972E964FAD2E976B964FAF6B975A
:103B00002F965FAD2F976C965FAF6C9760968FADD9
:103B100060976D968FAF6D9791E0A2969FAFA29739
:103B200020E030E040EA51E42D966FAD2D972E96BF
:103B30007FAD2E972F968FAD2F9760969FAD609794
:103B40000E94FEC69B01AC0122966FAD2297722D9A
:103B5000832D23969FAD23970E9449C91816ACF474
:103B6000E8E9F3E08491882341F09091C00095FF4B
:103B7000FCCF8093C6003196F5CF8091C00085FFC1
:103B8000FCCF8AE08093C6003CC40E94CF47DC0192
:103B9000CB01E0962CAD3DAD4EAD5FADE097821B05
:103BA000930BA40BB50B813D9740A105B10508F41B
:103BB00052C017FF10C0E090960CF12CE2E9F3E040
:103BC00084918823D9F09091C00095FFFCCF809319
:103BD000C6003196F5CFAA96AEADBFADAA97EC90D0
:103BE000F12CECE8F3E08491882341F09091C0003F
:103BF00095FFFCCF8093C6003196F5CF42E0229628
:103C00006FAD2297722D832D23969FAD23970E942F
:103C1000C482E8E8F3E08491882341F09091C000E9
:103C200095FFFCCF8093C6003196F5CFB701FF0C0E
:103C3000880B990B0E94B2828091C00085FFFCCF57
:103C40008AE08093C6000E94CF47E0966CAF7DAFBC
:103C50008EAF9FAFE0970E94CF476B017C010E941F
:103C6000CF4768968CAC9DACAEACBFAC68972C9639
:103C70002CAD3DAD4EAD5FAD2C97820E931EA41EB4
:103C8000B51EC818D908EA08FB08DC01CB018C0D69
:103C90009D1DAE1DBF1D81389F44A241B105A8F0F6
:103CA000EBE6F3E08491882341F09091C00095FF0A
:103CB000FCCF8093C6003196F5CF8091C00085FF80
:103CC000FCCF8AE08093C6009CC36A964EAD5FAD80
:103CD0006A97AC968EAD9FADAC97841795070CF0A4
:103CE000A0CDEFE1F3E08491882341F09091C000F2
:103CF00095FFFCCF8093C6003196F5CF8091C00030
:103D000085FFFCCF8AE08093C6007BC30E9405310B
:103D100078C30E94E13375C30E942F2D72C380E0E7
:103D200090E00E9473760E943EB083E50E94167474
:103D3000882341F00E943C740E945DC87093650224
:103D400060936402809164029091650282309105D3
:103D500009F0BFC088E50E941674882349F10E94CB
:103D60003C746B017C010E9464729B01AC0160E0B9
:103D700070E0CB010E94FDC69B01AC01C701B601FA
:103D80000E9449C918161CF40E943C7409C00E9484
:103D900064729B01AC0160E070E0CB010E94FDC643
:103DA00060930402709305028093060290930702C9
:103DB00082E50E941674882351F00E943C7460933F
:103DC0008A0B70938B0B80938C0B90938D0BE5EC8F
:103DD000F7E18491882341F09091C00095FFFCCFDA
:103DE0008093C6003196F5CFE8E0F4E08491882313
:103DF00041F09091C00095FFFCCF8093C6003196B2
:103E0000F5CF6EE1E62E64E0F62EF701819188236E
:103E100039F09091C00095FFFCCF8093C600F6CF9B
:103E200060911117709112178091131790911417C8
:103E300042E00E94C48203E913E0F80181918823E3
:103E400039F09091C00095FFFCCF8093C600F6CF6B
:103E50006091191770911A1780911B1790911C1778
:103E600042E00E94C482D7018D917D01882339F000
:103E70009091C00095FFFCCF8093C600F4CF609175
:103E8000040270910502809106029091070242E0BF
:103E90000E94C482F80181918F01882339F09091AA
:103EA000C00095FFFCCF8093C600F4CF60911D1732
:103EB00070911E1780911F179091201742E00E9469
:103EC000C4828091C00085FFFCCF8AE08093C60049
:103ED00008C0049730F081E090E0909365028093F1
:103EE000640210927119809164029091650290931E
:103EF00063028093620210927219109273191092E9
:103F00007419109275197DC283E50E941674882376
:103F100009F477C20E943C740E945DC87093A8198E
:103F20006093A7196531710534F084E190E09093B6
:103F3000A8198093A7198091A7199091A81997FDA6
:103F400002C00C94D0161092A8191092A7190C94C4
:103F5000D01685EE93E00E94212D53C20E94D68692
:103F600050C2812C912C54017501640100E010E0D5
:103F700020E030E040E050E060E070E0CB010E94E3
:103F800037351092530D3DC282E50E941674882386
:103F900029F00E943C749B01AC0104C020E030E099
:103FA00040E85FE383E5E3962FAFE397E4963FAF06
:103FB000E497E5964FAFE597E6965FAFE6970E94E8
:103FC0001674882309F41DC20E943C74E3962FAD39
:103FD000E397E4963FADE497E5964FADE597E69617
:103FE0005FADE6970E94ECC76093011770930217CC
:103FF00080930317909304170E94053102C282E553
:104000000E941674882329F00E943C749B01AC0125
:1040100004C020E030E040E85FE383E5E3962FAFA3
:10402000E397E4963FAFE497E5964FAFE597E696C2
:104030005FAFE6970E941674882309F4E2C10E94DC
:104040003C74E3962FADE397E4963FADE497E59695
:104050004FADE597E6965FADE6970E94ECC760939B
:10406000291770932A1780932B1790932C170E946F
:104070000531C7C182E50E941674882329F00E9489
:104080003C749B01AC0104C020E030E040E85FE3F9
:1040900083E5E3962FAFE397E4963FAFE497E59689
:1040A0004FAFE597E6965FAFE6970E9416748823B8
:1040B00009F4A7C10E943C74E3962FADE397E49600
:1040C0003FADE497E5964FADE597E6965FADE69791
:1040D0000E94ECC76093A20B7093A30B8093A40B78
:1040E0009093A50B0E9405318CC183E50E94167444
:1040F000882309F486C10E943C740E945DC865361D
:1041000071052CF477FF05C060E070E002C064E642
:1041100070E070933419609333190E94053171C1B6
:1041200083E50E941674882309F46BC10E943C74D5
:104130000E945DC8693C71052CF477FF05C060E002
:1041400070E002C068EC70E070933219609331192E
:104150000E94053156C183E50E941674882309F434
:1041600050C10E943C740E945DC821E030E0613083
:10417000710511F020E030E03093A90B2093A80BDB
:104180000E9405313EC183E50E941674882309F41C
:1041900038C10E943C740E945DC86D3371052CF4D7
:1041A00077FF05C060E070E002C06CE370E07093E0
:1041B000A10B6093A00B0E94053123C182E40E94F1
:1041C0001674882351F00E943C740E945DC870935D
:1041D0006E0C60936D0C0E94053185E40E9416748C
:1041E000882309F40EC10E943C740E945DC870933C
:1041F0009F0B60939E0B70939D0B60939C0B0E9492
:104200000531FFC083E50E9416748111C8C3F9C04F
:1042100083E50E941674882309F4F3C00E943C745D
:104220000E945DC88B0184E50E941674882329F0E2
:104230000E943C740E945DC802C06FEF7FEF0230A5
:10424000110508F0DEC08091AF1990E0681779077A
:1042500009F415C46F3FFFEF7F0709F410C4CB01C9
:104260000E9473760CC41092AA191092A919C9C0A1
:1042700083E50E941674882309F4C3C00E943C742D
:104280000E945DC821E030E06130710511F020E04E
:1042900030E03093AE192093AD190E940531B1C0C2
:1042A00083E50E941674882309F4ABC00E943C7415
:1042B0000E945DC821E030E06130710511F020E01E
:1042C00030E030939B0B20939A0B0E94053199C0EC
:1042D0000E94DC9496C00E94A99493C080E090E074
:1042E0000E949B958EC083E50E941674882309F472
:1042F00088C00E943C746B017C0120E030E0A90181
:104300000E9426C1811104C081E080935A0279C0C5
:1043100020E030E040E251E4C701B6010E94ECC762
:104320006093B4197093B5198093B6199093B71927
:1043300010925A0266C01092B0198091391990916A
:104340003A19A0913B19B0913C198093370C909386
:10435000380CA093390CB0933A0C0E94DAA3E0E039
:10436000F0E019954EC084E50E941674882329F068
:104370008FEF9FEF0E94737644C0E5ECF7E18491E4
:10438000882341F09091C00095FFFCCF8093C60038
:104390003196F5CFEAE1F4E08491882341F09091E1
:1043A000C00095FFFCCF8093C6003196F5CF809179
:1043B000520C9091530C20E6289FF001299FF00D9C
:1043C0001124E053FD4E8191882339F09091C00073
:1043D00095FFFCCF8093C600F6CFE8E1F4E084912E
:1043E000882341F09091C00095FFFCCF8093C600D8
:1043F0003196F5CF8091C00085FFFCCF8AE0809395
:10440000C6000E94B2A3D8C3819187FD02C00C945C
:10441000D010D12C0C94DA1060E477E1CE01019633
:104420000E948645BE016F5F7F4FCE01CB960E94F2
:10443000BA44CE0101960E94F344CE01CB960E946D
:10444000AE42BE01655C7F4FCE0180960E947E45E4
:104450000F5F1F4FC090A60BD090A70BB6E0BC9D7E
:10446000C001BD9D900D1124801791070CF077C0FD
:104470000696801791070CF472C063E377E1CE01D2
:1044800001960E948645BE016F5F7F4FCE01CB969D
:104490000E94BA44CE0101960E94F344CE01CB960D
:1044A0000E94AE4267E374E0CE0180960E94094408
:1044B000882339F0BE01655C7F4FCE0180960E9453
:1044C000A5444AEF96014203C001439F900D112479
:1044D0006801C80ED91E86E293E00E941F2D4AE0B3
:1044E000B601CE0101960E94534589819A810E94AE
:1044F0001F2DCE0101960E94F34488ED99E00E94A1
:104500001F2DCE0180960E94AE4288A199A10E94E3
:104510001F2D8DE699E00E941F2D0E94132D85E32B
:1045200093E00E941F2D4AE0B601CE0101960E9441
:10453000534589819A810E941F2DCE0101960E94C8
:10454000F34488ED99E00E941F2D8BAD9CAD0E9435
:104550001F2D8DE699E00E941F2D0E94132DCE0184
:1045600080960E94F3440C94E6100E943174AB01D3
:10457000BC0140935E1750935F1760936017709370
:10458000611785E099E10E94983C3BCF0E943C7402
:1045900038CF0E943EB088E50E941674882311F03F
:1045A0005F9A479A89E50E94167481118A9A8AE572
:1045B0000E941674882381F09FB7F89480910801B7
:1045C0008160809308019FBF9FB7F8948091080194
:1045D0008460809308019FBF85E40E94167488233D
:1045E00009F40FCF8D9A129A0CCFA8968CAC9DAC83
:1045F000AEACBFACA897880E991EAA1EBB1EA8968B
:104600002CAD3DAD4EAD5FADA897281B390B4A0BC5
:104610005B0BCA01B90128962CAD3DAD4EAD5FAD27
:1046200028970E94B3C6A50194010E94B4CAD30181
:10463000C201820F931FA41FB51F84319105A105EC
:10464000B1050CF12C013D018C3E9105A105B10590
:104650002CF0FBEE4F2E512C612C712C40E84416AF
:10466000510461047104FCF08EEF90E0A0E0B0E032
:1046700084199509A609B70928968CAF9DAFAEAFEE
:10468000BFAF289716C0E4E14E2E512C612C712C3F
:1046900024E130E040E050E028962CAF3DAF4EAF33
:1046A0005FAF289706C028964CAE5DAE6EAE7FAE6B
:1046B0002897E0E0F4E08491882341F09091C000D5
:1046C00095FFFCCF8093C6003196F5CFC301B201B0
:1046D0000E94B282EBEFF3E08491882341F0909145
:1046E000C00095FFFCCF8093C6003196F5CF289689
:1046F0006CAD7DAD8EAD9FAD28970E94B282E4EF88
:10470000F3E08491882341F09091C00095FFFCCFA5
:104710008093C6003196F5CF42E061966FAD619708
:104720006B967FAD6B976C968FAD6C976D969FADCA
:104730006D970E94C482EDEEF3E08491882341F0EE
:104740009091C00095FFFCCF8093C6003196F5CFC5
:1047500042E06E966FAD6E976F967FAD6F97A096A5
:104760008FADA097A1969FADA1970E94C482809122
:10477000C00085FFFCCF8AE08093C6006A962EAD0C
:104780003FAD6A97233031050CF492C928966CAD81
:104790007DAD8EAD9FAD28970E942CC120E030E00A
:1047A00040E850E40E9483BB6B017C0161962FAD11
:1047B00061976B963FAD6B976C964FAD6C976D960E
:1047C0005FAD6D976E966FAD6E976F967FAD6F977D
:1047D000A0968FADA097A1969FADA1970E94FDC610
:1047E00020ED3FE049E450E40E9483BB20E030E04C
:1047F00040E05FE30E9483BB9B01AC01C701B601AF
:104800000E94ECC76B017C01C501B4010E942CC160
:1048100020E030E04AE754E40E94ECC74B015C0121
:10482000E7EEF3E08491882341F09091C00095FF7A
:10483000FCCF8093C6003196F5CF42E0C701B601A8
:104840000E94C482E1EEF3E08491882341F09091CC
:10485000C00095FFFCCF8093C6003196F5CF42E0B3
:10486000C501B4010E94C4828091C00085FFFCCFC5
:104870008AE08093C6002AE939E949E15FE3C7018C
:10488000B6010E9483BB6B017C019B01AC010E94BD
:10489000FEC6A50194010E94ECC764966CAF7DAF83
:1048A0008EAF9FAF6497A5019401C701B6010E9426
:1048B00083BB20E030E040E05EE30E9483BB4B011D
:1048C0005C01E4EDF3E08491882341F09091C00015
:1048D00095FFFCCF8093C6003196F5CF8091C00044
:1048E00085FFFCCF8AE08093C600EEECF3E0849174
:1048F000882341F09091C00095FFFCCF8093C600C3
:104900003196F5CF42E0C701B6010E94C482809182
:10491000C00085FFFCCF8AE08093C600E8ECF3E09E
:104920008491882341F09091C00095FFFCCF809343
:10493000C6003196F5CF42E064966CAD7DAD8EAD8C
:104940009FAD64970E94C4828091C00085FFFCCF18
:104950008AE08093C600E2ECF3E08491882341F082
:104960009091C00095FFFCCF8093C6003196F5CFA3
:1049700042E0C501B4010E94C4828091C00085FF5D
:10498000FCCF8AE08093C60093C8AA96EEADFFAD37
:10499000AA9780839FC8A2961FAEA297C1C80E9403
:1049A0003C740E945DC861157105F9F48091980B03
:1049B0009091990B9093A3198093A2199093A519A4
:1049C0008093A4198091960B9091970B9093510C22
:1049D0008093500C8091940B9091950B9093B91902
:1049E0008093B8190E940C4C0CCD61307105F9F41C
:1049F0008091920B9091930B9093A3198093A2199D
:104A00009093A5198093A4198091900B9091910B8C
:104A10009093510C8093500C80918E0B90918F0B42
:104A20009093B9198093B8190E940C4CEACC62306B
:104A3000710569F41092A3191092A2191092A51988
:104A40001092A4191092510C1092500CDACC6330D1
:104A5000710509F0D6CC1092A3191092A2191092E8
:104A6000A5191092A4191092510C1092500C0E948A
:104A70003EB08D9A129A80E00E94FDAFC2CC012B0D
:104A800009F04DC020E030E044EB52E460912F0D7E
:104A90007091300D8091310D9091320D0E94FEC6C3
:104AA00060932F0D7093300D8093310D9093320DE4
:104AB0003FEAC32E39E1D32EE12CF12C00E211E4C0
:104AC0002FE23DE04BE25DE067E27DE083E29DE0C6
:104AD0000E94B26320E030E040EA51E460912F0D83
:104AE0007091300D8091310D9091320D0E94FEC673
:104AF00060932F0D7093300D8093310D9093320D94
:104B0000E12CF12C00E010E42FE23DE04BE25DE00F
:104B100067E27DE083E29DE00E94B26372CC20E018
:104B200030E040EF51E460912F0D7091300D809195
:104B3000310D9091320D0E94FEC660932F0D70933F
:104B4000300D8093310D9093320D8FEAC82E89E19C
:104B5000D82EE12CF12C00E010E42FE23DE04BE2F6
:104B60005DE067E27DE083E29DE00E94B26320E0C9
:104B700030E040EF52E460912F0D7091300D809144
:104B8000310D9091320D0E94FDC660932F0D7093F0
:104B9000300D8093310D9093320DE12CF12C08E40F
:104BA00012E42FE23DE04BE25DE067E27DE083E26C
:104BB0009DE00E94B26325CCE296AEADBFADE29718
:104BC0000FB6F894BEBF0FBEADBFCB58DF4F0FB6C8
:104BD000F894DEBF0FBECDBFDF91CF911F910F9133
:104BE000FF90EF90DF90CF90BF90AF909F908F900D
:104BF0007F906F905F904F903F902F90089580919D
:104C00005E0C90915F0C009731F0019790935F0CD0
:104C100080935E0C06C081E090E090935D0C8093E1
:104C20005C0C80915C0C90915D0C892B61F0109272
:104C30005D0C10925C0C0E94937B8CE49DE1909340
:104C40005F0C80935E0C0895CF93DF93EC0167E3D4
:104C500074E00E94864580E696E10E94F940892B27
:104C600079F080E696E10E94D740682FCE010E943D
:104C70007D4462E070E080E090E00E949747EBCFD7
:104C8000CE01DF91CF9108958F929F92AF92BF9204
:104C9000CF92DF92EF92FF920F931F93CF93DF9308
:104CA000CDB7DEB7CC52D1400FB6F894DEBF0FBE01
:104CB000CDBF60E080E20E949446999AA19A2FEFBE
:104CC00037EA81E6215030408040E1F700C0000023
:104CD000E0917016F091711612E01083E0916C165D
:104CE000F0916D161082E0916E16F0916F168FECB8
:104CF000808310927816E0917416F091751686E014
:104D00008083E0917216F0917316808180618083B8
:104D1000E0917216F0917316808188608083E09133
:104D20007216F0917316808180688083E09172160C
:104D3000F091731680818F7D80839FEFA1EEB4E0A8
:104D40009150A040B040E1F700C0000087E694E039
:104D500078D6EFEFF9EF20E0E150F0402040E1F7A6
:104D600000C0000085EC94E06CD63FEF89EF90E046
:104D7000315080409040E1F700C0000085ED94E0A4
:104D800060D6AFEFB9EFE0E0A150B040E040E1F70E
:104D900000C000001093C0001092C50080E1809315
:104DA000C4008091C10080618093C1008091C100E6
:104DB00088608093C1008091C10080688093C100A9
:104DC000E3EFF8E08491882341F09091C00095FFD3
:104DD000FCCF8093C6003196F5CF8091C00085FF4F
:104DE000FCCF8AE08093C60085EC97E1FC0124911A
:104DF000222341F03091C00035FFFCCF2093C60044
:104E00003196F5CF24B720FF14C0EBEEF8E03491D3
:104E1000332341F04091C00045FFFCCF3093C600E2
:104E20003196F5CF3091C00035FFFCCF3AE030939A
:104E3000C60021FF14C0EBEDF8E03491332341F0BC
:104E40004091C00045FFFCCF3093C6003196F5CFAE
:104E50003091C00035FFFCCF3AE03093C60022FF0E
:104E600014C0EAECF8E03491332341F04091C000E3
:104E700045FFFCCF3093C6003196F5CF3091C0008E
:104E800035FFFCCF3AE03093C60023FF14C0EAEBB5
:104E9000F8E03491332341F04091C00045FFFCCF4E
:104EA0003093C6003196F5CF3091C00035FFFCCF6E
:104EB0003AE03093C60025FF14C0EAEAF8E02491F6
:104EC000222341F03091C00035FFFCCF2093C60073
:104ED0003196F5CF2091C00025FFFCCF2AE020932A
:104EE000C60014BEE2EAF8E02491222341F030919A
:104EF000C00035FFFCCF2093C6003196F5CFEBE91B
:104F0000F8E02491222341F03091C00035FFFCCF1E
:104F10002093C6003196F5CF2091C00025FFFCCF2D
:104F20002AE02093C600FC012491E5ECF7E122235E
:104F300049F03091C00035FFFCCF2093C600319678
:104F40002491F5CFEBE8F8E02491222341F0309151
:104F5000C00035FFFCCF2093C6003196F5CFE6E7C1
:104F6000F8E02491222341F03091C00035FFFCCFBE
:104F70002093C6003196F5CFEAE6F8E0249122238B
:104F800041F03091C00035FFFCCF2093C600319630
:104F9000F5CFE3E6F8E02491222341F03091C00000
:104FA00035FFFCCF2093C6003196F5CF2091C0008D
:104FB00025FFFCCF2AE02093C600E8E5F8E0249125
:104FC000222341F03091C00035FFFCCF2093C60072
:104FD0003196F5CFECE4F8E02491222341F03091B2
:104FE000C00035FFFCCF2093C6003196F5CF20914D
:104FF000C00025FFFCCF2AE02093C600FC0184916D
:10500000E5ECF7E1882349F09091C00095FFFCCFD3
:105010008093C60031968491F5CFEDE3F8E084915A
:10502000882341F09091C00095FFFCCF8093C6008B
:105030003196F5CF8091CE199091CF198E010F5FE7
:105040001F4F009721F4C801845D994104C0980165
:10505000281B390BC9019A83898369817A81072EBC
:10506000000C880B990B0E94B282E6E2F8E0849172
:10507000882341F09091C00095FFFCCF8093C6003B
:105080003196F5CF60ED74E080E090E00E94B2824E
:105090008091C00085FFFCCF8AE08093C60010920B
:1050A0003D0C10923E0C10923F0C1092400C0E944E
:1050B000E13320E030E048E452E460910117709160
:1050C000021780910317909104170E94FDC620E0FB
:1050D00030E040E05FE30E9483BB60930402709382
:1050E00005028093060290930702ECEDF4E08191B3
:1050F000882339F09091C00095FFFCCF8093C600C3
:10510000F6CF8091C00085FFFCCF8AE08093C60077
:105110000E94CF476093600C7093610C8093620C87
:105120009093630C70D48BEE94E08BD4CE01815EAF
:105130009E4F8ADD67E374E0CE01815E9E4F0E9440
:10514000603A882309F466C067E374E0C8010E94EE
:10515000864563EF74E0CE0193950E948645A801D1
:10516000BE017395CE01815E9E4F0E94C242CE0168
:1051700093950E94F344C8010E94F34467E374E0EE
:10518000C8010E94864566E374E0CE0193950E94B3
:105190008645A801BE017395CE01815E9E4F0E9497
:1051A000C242CE0193950E94F344C8010E94F34489
:1051B000BE01615E7E4FC8010E947E4525E030E061
:1051C0004CE2B801CE0193950E94AE39C8010E940D
:1051D000F34485EF94E033D4C050DF4F8881998148
:1051E000C050D1402CD48DE699E029D41CD43FEF97
:1051F00089EF90E0315080409040E1F700C000001E
:1052000087E095E01ED4CE0193950E94F344FF24DD
:10521000F39407C0AFE3BCE91197F1F700C00000B9
:10522000F12C0E94CF478090600C9090610CA09070
:10523000620CB090630CDC01CB0188199909AA09B2
:10524000BB09893E9340A105B10570F0DCD38BEE1C
:1052500094E0F7D30E94CF476093600C7093610C89
:105260008093620C9093630CCE01815E9E4F0E94EE
:10527000F344FF2009F45ACF0E94AB35E0900802B6
:10528000F090090210927B0C10927C0C10927D0C15
:1052900010927E0C20911002309111024091120266
:1052A0005091130260E070E08FE793E40E94ECC736
:1052B0006093730C7093740C8093750C9093760CC0
:1052C000F0920B02E0920A0210927F0C1092800C76
:1052D0001092810C1092820C6093770C7093780C72
:1052E0008093790C90937A0C259A249A80910101ED
:1052F00080628093010180910101806480930101AB
:1053000087ED80937A0010927E0010927D0080914C
:105310007D00806880937D0080917D008062809315
:105320007D0080917D00806480937D0080E888BD51
:1053300080916E00846080936E006AEF70E080E080
:1053400090E00E94974781E090E09093700C8093EA
:105350006F0C60E080911A0290911B020E94184D20
:1053600020E030E040E85FE30E9426C187FF0AC0EA
:1053700080911A0290911B02409790931B02809398
:105380001A02E7CF80919E0B90919F0B9093090298
:105390008093080260E08091910C9091920C0E94A1
:1053A000184D6B017C0180919E0B90919F0BBC016D
:1053B000990F880B990B0E942CC19B01AC01C7016E
:1053C000B6010E9449C9181654F48091910C90912D
:1053D000920C40969093920C8093910CDBCF81E0DD
:1053E00090E09093720C8093710C61E080911C02AC
:1053F00090911D020E94184D20E030E040E85FE3EC
:105400000E9426C187FF0AC080911C0290911D0254
:10541000409790931D0280931C02E7CF80919C0BD4
:1054200090919D0B90930B0280930A0261E0809112
:10543000930C9091940C0E94184D6B017C0180910B
:105440009C0B90919D0BBC01990F880B990B0E94AE
:105450002CC19B01AC01C701B6010E9449C91816B5
:1054600054F48091930C9091940C40969093940CEA
:105470008093930CDBCF80911802909119020E94C7
:10548000794C20E030E040E85FE30E9426C187FFCE
:105490000AC08091180290911902409790931902C6
:1054A00080931802E8CF80918F0C9091900C0E940D
:1054B000794C6B017C0180916D0C90916E0CBC015C
:1054C000990F880B990B0E942CC19B01AC01C7015D
:1054D000B6010E9449C9181654F480918F0C90911E
:1054E000900C40969093900C80938F0CDCCF109290
:1054F0006B0C10926A0C80E1E3E3FDE0DF011D928A
:105500008A95E9F71092BA191092BB191092BC193A
:105510001092BD191092BE191092BF191092C019A5
:105520001092C1191092C2191092C3191092C41985
:105530001092C5191092C6191092C7191092C81965
:105540001092C9191092CA191092CB191092CC1945
:105550001092CD19819A3B9A879A80910A018260B4
:1055600080930A0180910701806180930701849AEA
:105570000E9A579A5F9A3F9A479A829A8A9A80918E
:1055800007018160809307019FB7F894809108011B
:105590008160809308019FBF8091070184608093A0
:1055A00007019FB7F89480910801846080930801F7
:1055B0009FBF859A8D9A0A9A129A6D98759A8091D2
:1055C00004018D7F809304019FB7F89480910501B9
:1055D0008260809305019FBF53985B9A6C98749A80
:1055E000809A88985F9A479A399A41985F9A479A21
:1055F000869A8E988A9A80910A01886080930A011F
:105600009FB7F89480910B01877F80930B019FBF18
:10561000809107018860809307019FB7F89480917B
:105620000801877F809308019FBF9FB7F8948091FE
:1056300008018160809308019FBF9FB7F894809113
:1056400008018460809308019FBF839A8B988D9A8C
:105650000C9A1498129A809181008F7E8093810019
:1056600080918100886080938100809180008D7F8F
:1056700080938000809180008E7F80938000809155
:1056800080008F7380938000809180008F7C809356
:10569000800080918100887F82608093810080E01B
:1056A00090E4909389008093880010928500109276
:1056B000840080916F00826080936F0080E00E9480
:1056C0001B52789483E195E0BCD160E081E30E94B5
:1056D00094469FB7F89480910B01816080930B01F1
:1056E0009FBF0E944652BFEFE3EDF0E3B150E040B0
:1056F000F040E1F700C0000087E694E0A2D183E328
:1057000095E09FD18091321767E374E0811106C064
:10571000CE01815E9E4F0E948645C9C0CE018B5D41
:105720009E4F0E948645CE0193950E94563AC12C09
:10573000DD24D394CC0EDD1E24E0C20ED11C21E06A
:105740004DE355E06AE677E1C6010E94CC928823DA
:1057500009F448C0CB5EDE4FE880F980C551D140E6
:105760003FEFE31AF30A8AE090E0C55DDE4F9983CC
:105770008883CB52D1409E01255D3E4FA701B801E1
:10578000C6010E94538E67E374E0CE01815E9E4F96
:105790000E9486456801C601801B910B8E159F05EE
:1057A0005CF4D6016D916D016623A9F3CE01815E93
:1057B0009E4F0E947D44EFCF67E374E0CE01815E8F
:1057C0009E4F0E94603A882341F0BE01615E7E4F89
:1057D000CE018B5D9E4F0E94A544CE01815E9E4FFF
:1057E0000E94F34480E091E08C0F9D1F04960E947C
:1057F000B88E67E374E0CE018B5D9E4F0E94603AE5
:10580000811103C0E5E4F5E025C08CE291E0C15EC2
:10581000DE4F99838883CF51D14044E0B801CE0157
:10582000815E9E4FB6D489819A81AB81BC818115FE
:105830009840A105B105C0F467E374E0CE018B5D2B
:105840009E4F0E94904410C09091C00095FFFCCFE5
:105850008093C60081918111F7CF8091C00085FFB0
:10586000FCCF8AE08093C600C15EDE4F19821882A9
:10587000CF51D140CF5DDE4F19821882C152D14045
:10588000CD5DDE4F19821882C352D140BE016B5DDF
:105890007E4FCE01815E9E4F0E94BA44CE01939509
:1058A0000E944E3ACE018B5D9E4F0E94F344BE0192
:1058B000615E7E4FC8010E947E4521E030E04CE7EA
:1058C000B801CE0193950E94AE39BE017395CE0109
:1058D000815E9E4F0E94BA44CE0193950E94F3448C
:1058E000C8010E94F34467E374E0CE01815E9E4FDD
:1058F0000E94603A882309F461C067E374E0C8013C
:105900000E9486458091A7199091A819892B81F44E
:1059100069E575E0CE0193950E948645BE01615E02
:105920007E4FCE0193950E946C446DE775E00FC0E9
:105930006FE775E0CE0193950E948645BE01615EDA
:105940007E4FCE0193950E946C4464E975E00E94FD
:105950005544BC01C8010E94A544CE0193950E9404
:10596000F34461E574E0CE0193950E948645B80149
:10597000CE0193950E946C446DE679E00E945544F7
:10598000BC01C8010E94A544CE0193950E94F34436
:10599000E980FA808FE694E054D087E995E051D011
:1059A0008FEA95E04ED08CEC95E04BD0C70149D002
:1059B00089EB94E046D0C8010E94F34481E08093D3
:1059C0005A021092B4191092B5191092B619109289
:1059D000B719A19ACE01815E9E4F0E94F344C45D27
:1059E000DE4F0FB6F894DEBF0FBECDBFDF91CF9173
:1059F0001F910F91FF90EF90DF90CF90BF90AF90ED
:105A00009F908F90089580E090E00E9448838FEFF0
:105A10009FEF0E9448838FEF9FEF0E9448838FEF94
:105A20009FEF0C9448838FEF9FEF0E9448838FEF86
:105A30009FEF0E9448838FEF9FEF0C9448830C9454
:105A40004D830E944D838FEF9FEF0E9448838FEF1D
:105A50009FEF0E9448838FEF9FEF0C944883CF9372
:105A6000DF93CEE4DBE0FE018491882341F0909146
:105A7000C00095FFFCCF8093C6003196F5CFE2E0E1
:105A8000FBE08491882341F09091C00095FFFCCF0A
:105A90008093C6003196F5CF8091C00085FFFCCF82
:105AA0008AE08093C600FE018491EEE4FBE0882347
:105AB00049F09091C00095FFFCCF8093C6003196CD
:105AC0008491F5CF4091430D5091440D6091450D67
:105AD0007091460D8AEF9AE00E94273A4091470D57
