:100000000C945E0C0C948F0C0C948F0C0C948F0C35
:100010000C948F0C0C948F0C0C948F0C0C948F0CF4
:100020000C948F0C0C948F0C0C948F0C0C948F0CE4
:100030000C948F0C0C948F0C0C948F0C0C948F0CD4
:100040000C948F0C0C94DD5D0C948F0C0C948F0C25
:100050000C948F0C0C948F0C0C94E2850C944C84B3
:100060000C948F0C0C94865D0C948F0C0C948F0C5C
:100070000C948F0C0C948F0C0C948F0C0C948F0C94
:100080000C948F0C0C948F0C0C948F0C0C948F0C84
:100090000C948F0C0C948F0C0C948F0C0C948F0C74
:1000A0000C948F0C0C948F0C0C948F0C0C948F0C64
:1000B0000C948F0C0C948F0C0C948F0C0C948F0C54
:1000C0000C948F0C0C948F0C0C948F0C0C94387532
:1000D0000C940F750C948F0C0C948F0C0C948F0C4B
:1000E0000C948F0C3F714271317135713B71797194
:1000F00046714A715071547158715E7162716671C6
:1001000079716C717071747168836D8372837C8393
:100110008683FF8390839883A083AA83B483BE835E
:10012000CD83D783FF83E183EB83F58347865486B2
:1001300070867D869786A486BE86C086084AD73B91
:100140003BCE016E84BCBFFDC12F3D6C74319ABDA6
:1001500056833DDA3D00C77F11BED9E4BB4C3E91CA
:100160006BAAAABE000000803F05A84CCDB2D44EB9
:10017000B93836A9020C50B9918688083CA6AAAABB
:100180002ABE000000803F004E414E494E4954595E
:10019000494E46CDCCCC3D0AD7233C17B7D1387752
:1001A000CC2B329595E6241FB14F0A000020410068
:1001B00000C84200401C4620BCBE4CCA1B0E5AAEB2
:1001C000C59D7400407A10F35A00A0724E180900C1
:1001D00010A5D4E80000E87648170000E40B5402AC
:1001E0000000CA9A3B000000E1F5050000809698E7
:1001F00000000040420F000000A086010000001037
:100200002700000000E80300000000640000000078
:10021000000A00000000000100000000002C76D859
:1002200088DC674F0823DFC1DFAE59E1B1B796E53F
:10023000E3E453C63AE651997696E8E6C28426EBA3
:10024000898C9B62ED407C6FFCEFBC9C9F40F2BAB6
:10025000A56FA5F490055A2AF75C936B6CF9676D4E
:10026000C11BFCE0E40D47FEF520E6B500D0ED90A3
:100270002E0300943577050080841E080000204E70
:100280000A000000C80C333333330F986E12831109
:1002900041EF8D2114893BE65516CFFEE6DB18D1E0
:1002A000844B381BF77C1D901DA4BBE424203284B2
:1002B000725E228100C9F124ECA1E53D272F005395
:1002C00044207072696E74696E672062797465206B
:1002D000004E6F74205344207072696E74696E67AB
:1002E000002E0044656C6574696F6E206661696CF0
:1002F00065642C2046696C653A200046696C65206F
:1003000064656C657465643A002E006F70656E20DC
:100310006661696C65642C2046696C653A20005002
:100320004944204175746F74756E652066696E6905
:1003300073686564212050757420746865204B7063
:100340002C204B6920616E64204B6420636F6E73B8
:1003500074616E747320696E746F20436F6E66698A
:100360006775726174696F6E2E6800504944204150
:1003700075746F74756E65206661696C65642120A3
:1003800074696D656F75740020403A006F6B20547E
:100390003A006F6B20423A00504944204175746F17
:1003A00074756E65206661696C6564212054656DA5
:1003B000706572617475726520746F6F206869670B
:1003C0006800204B643A2000204B693A2000204B03
:1003D000703A200020436C617369632050494420C7
:1003E000002054753A2000204B753A2000206D61A2
:1003F000783A2000206D696E3A200020643A20008F
:1004000020626961733A2000486F74656E64206FE2
:100410006666736574733A002200556E6B6E6F7773
:100420006E20636F6D6D616E643A202200486F74B8
:10043000656E64206F6666736574733A007A5F6DEB
:10044000696E3A2000795F6D696E3A2000785F6DC1
:1004500061783A2000785F6D696E3A20005A3A0060
:10046000593A0020436F756E7420583A2000453A7F
:10047000005A3A00593A00583A004649524D5741FD
:1004800052455F4E414D453A4D61726C696E205642
:10049000313B20537072696E7465722F6772626CA3
:1004A000206D617368757020666F722067656E36A7
:1004B000204649524D574152455F55524C3A687457
:1004C0007470733A2F2F7777772E67697468756227
:1004D0002E636F6D2F74656E6C6F672050524F5492
:1004E0004F434F4C5F56455253494F4E3A312E3091
:1004F0002E30204D414348494E455F545950453AAE
:10050000544C203344205072696E746572204558F3
:100510005452554445525F434F554E543A320A00A7
:100520002042403A0020403A00202F0020423A006A
:100530002F002054313A002F006F6B20543A0025D1
:1005400069206D696E2C2025692073656300456EF6
:10055000642066696C65206C697374004265676924
:100560006E2066696C65206C697374005072696EE8
:100570007465722073746F70706564206475652093
:10058000746F206572726F72732E204669782074C2
:100590006865206572726F7220616E642075736584
:1005A000204D39393920746F20726573746172740B
:1005B0002E202854656D70657261747572652069AE
:1005C000732072657365742E2053657420697420DE
:1005D00061667465722072657374617274696E67A6
:1005E00029004E6F204C696E65204E756D626572F4
:1005F000207769746820636865636B73756D2C2060
:100600004C617374204C696E653A20004E6F204334
:100610006865636B73756D2077697468206C696EAB
:1006200065206E756D6265722C204C617374204C70
:10063000696E653A2000636865636B73756D206D44
:1006400069736D617463682C204C617374204C690C
:100650006E653A20004C696E65204E756D6265725C
:10066000206973206E6F74204C617374204C696E26
:1006700065204E756D6265722B312C204C61737450
:10068000204C696E653A20004D31313000256920DB
:10069000686F757273202569206D696E7574657356
:1006A00000446F6E65207072696E74696E672066B3
:1006B000696C65005072696E7465722073746F7036
:1006C0007065642064756520746F206572726F7246
:1006D000732E2046697820746865206572726F7287
:1006E00020616E6420757365204D39393920746F2F
:1006F00020726573746172742E202854656D706564
:100700007261747572652069732072657365742EE9
:100710002053657420697420616674657220726567
:100720007374617274696E6729004E6F204C696E34
:1007300065204E756D626572207769746820636804
:1007400065636B73756D2C204C617374204C696EFE
:10075000653A20004E6F20436865636B73756D20AA
:1007600077697468206C696E65206E756D6265725C
:100770002C204C617374204C696E653A20006368CC
:1007800065636B73756D206D69736D617463682C3F
:10079000204C617374204C696E653A20004C696E80
:1007A00065204E756D626572206973206E6F7420CE
:1007B0004C617374204C696E65204E756D62657274
:1007C0002B312C204C617374204C696E653A2000EB
:1007D0004572726F723A004D313130006572726F3E
:1007E000722077726974696E6720746F2066696C15
:1007F0006500205A3A0020593A0020583A00656EA8
:100800006473746F7073206869743A20006563685C
:100810006F3A00446F6E6520736176696E6720667B
:10082000696C652E006F6B004D32390053442063B4
:10083000617264206F6B006F70656E526F6F742011
:100840006661696C656400766F6C756D652E696EA6
:100850006974206661696C6564004572726F723AF2
:1008600000534420696E6974206661696C00656399
:10087000686F3A002200656E717565696E672022A7
:10088000006563686F3A004D3234004D32332025E5
:1008900073006175746F25692E67002020506C61AC
:1008A0006E6E657242756666657242797465733AFA
:1008B00020002046726565204D656D6F72793A2083
:1008C000004D6179203133203230323100436F6D79
:1008D00070696C65643A200054656E6C6F67002027
:1008E0007C20417574686F723A20004D6179203127
:1008F0003320323032312031373A32333A3530001A
:10090000204C61737420557064617465643A2000F2
:10091000312E302E3232004D61726C696E20002013
:10092000536F667477617265205265736574002039
:100930005761746368646F67205265736574002043
:1009400042726F776E206F75742052657365740004
:100950002045787465726E616C2052657365740011
:10096000506F77657255700073746172740047320E
:100970003820585900000048C20000000000000064
:10098000002200656E717565696E672022000000A7
:100990004040000040400000003F20746F6F206C1A
:1009A0006F6E6720657874727573696F6E207072F0
:1009B0006576656E7465640020636F6C642065788D
:1009C00074727573696F6E2070726576656E74658A
:1009D00064006563686F3A0053657474696E677389
:1009E0002053746F726564005A323A00457874651A
:1009F0006E646572204F66667365743A0059323AC8
:100A000000457874656E646572204F666673657420
:100A10003A0058323A005365636F6E64657279200C
:100A20004D617820506F733A002044002049002027
:100A300020204D33303120500050494420736574DC
:100A400074696E67733A00205A0020590020204DC7
:100A5000323036205800486F6D65206F66667365CA
:100A60007420286D6D293A00204500205A00205836
:100A70000020420020540020204D32303520530009
:100A8000416476616E636564207661726961626C4F
:100A900065733A20533D4D696E20666565647261E9
:100AA000746520286D6D2F73292C20543D4D696E7F
:100AB0002074726176656C20666565647261746528
:100AC00020286D6D2F73292C20423D6D696E696D54
:100AD000756D207365676D656E742074696D652032
:100AE000286D73292C20583D6D6178696D756D20D6
:100AF0005859206A65726B20286D6D2F73292C2040
:100B0000205A3D6D6178696D756D205A206A657255
:100B10006B20286D6D2F73292C2020453D6D617849
:100B2000696D756D2045206A65726B20286D6D2F8B
:100B300073290020540020204D32303420530041CE
:100B40006363656C65726174696F6E3A20533D61D1
:100B50006363656C65726174696F6E2C20543D72BD
:100B600065747261637420616363656C657261743E
:100B7000696F6E00204500205A0020590020204D4A
:100B80003230312058004D6178696D756D204163B8
:100B900063656C65726174696F6E20286D6D2F736B
:100BA00032293A00204500205A0020590020204DCB
:100BB0003230332058004D6178696D756D2066655F
:100BC0006564726174657320286D6D2F73293A0016
:100BD000204500205A0020590020204D393220584D
:100BE0000053746570732070657220756E69743A75
:100BF0000053746F7265642073657474696E6773F3
:100C00002072657472696576656400486172646318
:100C10006F6465642044656661756C742053657407
:100C200074696E6773204C6F616465640065636806
:100C30006F3A004E65772056616C7565204572727B
:100C4000200025730057726974696E6720746F20E5
:100C500066696C653A20002E006F70656E206661D3
:100C6000696C65642C2046696C653A20002E006F23
:100C700070656E206661696C65642C2046696C65E0
:100C80003A200046696C652073656C656374656421
:100C9000002053697A653A200046696C65206F70C0
:100CA000656E65643A20002E006F70656E20666187
:100CB000696C65642C2046696C653A20007C3C3E7A
:100CC0005E2B3D3F2F5B5D3B2C2A225C0024F4D43D
:100CD0003050C38E20C2A24017828B7011127A91BD
:100CE0000D816CD90AA861E108C7586607615143B4
:100CF000061E4B5D05C145A7041A411104093D9824
:100D000003713931034036DB0265339102D430542C
:100D100002802E1D02632CEE01752AC501B028A0A9
:100D200001102781018F2564012B244B01E022341F
:100D300001AC211F018D200D01801FFC00841EEDE0
:100D400000971DDF00B81CD200E61BC600201BBCAC
:100D500000641AB200B219A8000A19A0006A189912
:100D600000D117910040178B00B516840031167E14
:100D700000B31579003A157300C7146F0058146A50
:100D800000EE1366008813630025135E00C7125B34
:100D9000006C12570015125400C111510070114F10
:100DA0000021114B00D61049008D10470046104419
:100DB0000002104200C00F4000800F3E00420F3C76
:100DC00000060F3B00CB0E3800930E37005C0E354B
:100DD00000270E3400F30D3200C10D3100900D30AC
:100DE00000600D2E00320D2D00050D2C00D90C2BAE
:100DF00000AE0C2900850C29005C0C2700350C275F
:100E0000000E0C2600E80B2400C40B2400A00B23CA
:100E1000007D0B23005A0B2100390B2100180B20F9
:100E200000F80A1F00D90A1E00BB0A1E009D0A1DF9
:100E300000800A1D00630A1C00470A1B002C0A1BC5
:100E400000110A1A00F7091A00DD091900C409196E
:100E500000AB091900920917007B091800630917F4
:100E6000004C09160036091600200916000A09155B
:100E700000F5081500E0081400CC081400B80814A8
:100E800000A4081400900813007D0812006B0813DA
:100E900000580812004608120034081100230811F7
:100EA000001208110001081100F0071000E00710FF
:100EB00000D0071000C0071000B0070F00A10710F6
:100EC0000091070E0083070F0074070F0065070EDF
:100ED0000057070E0049070E003B070D002E070EB6
:100EE0000020070D0013070D0006070D00F9060C82
:100EF00000ED060D00E0060C00D4060C00C8060C40
:100F000000BC060C00B0060C00A4060B0099060CF1
:100F1000008D060B0082060B0077060B006C060B9B
:100F20000061060A0057060B004C060A0042060A3A
:100F30000038060A002E060A0024060A001A060ACD
:100F4000001006090007060A00FD050900F405095E
:100F500000EB050900E2050900D9050900D00509E3
:100F600000C7050900BE050900B5050800AD050864
:100F700000A50509009C050800940508008C0508DB
:100F800000840508007C050800740508006C05074E
:100F900000650508005D050700560508004E0507B9
:100FA0000047050700400508003805070031050720
:100FB000002A050700230507001C05060016050783
:100FC000000F0507000805060002050700FB0406E0
:100FD00000F5040700EE040600E8040600E204073A
:100FE00000DB040600D5040600CF040600C9040691
:100FF00000C3040600BD040600B7040600B10405E2
:1010000000AC040600A6040600A00405009B04062C
:101010000095040500900406008A04050085040577
:1010200000800406007A04050075040500700405BC
:10103000006B04050066040500610405005C0405FE
:101040000057040500520405004D0405004804053E
:1010500000430405003E0404003A0405003504057D
:1010600000300404002C04050027040400230405B8
:10107000001E0404001A04040016040500110404F0
:10108000000D040400090405000404040000040425
:1010900000FC030400F8030400F4030400F003045C
:1010A00000EC030400E8030400E4030400E003048C
:1010B00000DC030400D8030400D4030400D00304BC
:1010C00000CC030400C8030300C503030024F40498
:1010D000D9201BC40C5C0E9804C4095F026507711B
:1010E00001F405F900FB04B30048048700C103695B
:1010F000005803550003034500BE023A0084023144
:101100000053022A002902250004022000E4011CE9
:1011100000C8011900AF01170098011400840113E1
:1011200000710110006101100051010E0043010D1A
:101130000036010B002B010B0020010B00150109EB
:10114000000C01090003010800FB000800F300087F
:1011500000EB000700E4000600DE000600D80006F1
:1011600000D2000600CC000500C7000500C2000543
:1011700000BD000400B9000400B5000400B1000483
:1011800000AD000400A9000400A5000300A20003B4
:10119000009F0004009B00030098000300950002DC
:1011A0000093000300900003008D0002008B0003F9
:1011B0000088000200860002008400030081000213
:1011C000007F0002007D0002007B00020079000227
:1011D0000077000100760002007400020072000136
:1011E00000710002006F0002006D0001006C00023F
:1011F000006A00010069000200670001006600014A
:10120000006500010064000200620001006100014D
:1012100000600001005F0002005D0001005C000151
:10122000005B0001005A0001005900010058000154
:101230000057000100560001005500010054000154
:101240000053000000530001005200010051000152
:1012500000500001004F0001004E0000004E000150
:10126000004D0001004C0001004B0000004B00014C
:10127000004A000100490001004800000048000148
:101280000047000100460000004600010045000044
:10129000004500010044000100430000004300013C
:1012A0000042000000420001004100000041000136
:1012B00000400001003F0000003F0001003E000030
:1012C000003E0001003D0000003D0001003C000028
:1012D000003C0000003C0001003B0000003B00011E
:1012E000003A0000003A0001003900000039000116
:1012F000003800000038000000380001003700000E
:101300000037000100360000003600000036000102
:1013100000350000003500000035000100340000F9
:1013200000340000003400010033000000330000EE
:1013300000330001003200000032000000320001E2
:1013400000310000003100000031000100300000D9
:101350000030000000300001002F0000002F0000CE
:10136000002F0000002F0001002E0000002E0000C2
:10137000002E0001002D0000002D0000002D0000B7
:10138000002D0001002C0000002C0000002C0000AB
:10139000002C0001002B0000002B0000002B00009F
:1013A000002B0001002A0000002A0000002A000093
:1013B000002A000100290000002900000029000087
:1013C000002900000029000100280000002800007A
:1013D000002800000028000000280001002700006D
:1013E0000027000000270000002700000027000160
:1013F0000026000000260000002600000026000055
:101400000026000100250000002500000025000046
:101410000025000000250000002500010024000038
:10142000002400000024000000240000002400012B
:101430000023000000230000002300000023000020
:101440000023000000230000002300010022000010
:101450000022000000220000002200000022000004
:1014600000220001002100000021000000210000F6
:1014700000210000002100000021000000210001E7
:1014800000200000002000000020000000200000DC
:1014900000200000002000000020000000200001CB
:1014A000001F0000001F0000001F0000001F0000C0
:1014B000001F0000001F0000001F0001001E0000B0
:1014C000001E0000001E0000001E000000000021A1
:1014D00000240027002A002D003000330001010005
:1014E00000040107010A0100002200250028002B4A
:1014F000002E003100340002010000050108010B3C
:1015000001000020002300260029002C002F0032BB
:10151000000001000003010601090105050505079A
:101520000508080808020202020A0A08080404045E
:10153000040101010101010101030303030303038A
:1015400003040707070C0C0C0C0C0C0C0C02020219
:101550000206060606060606060B0B0B0B0B0B0B0C
:101560000B010210202008081020401020408002AB
:1015700001020108040201010204081020408080D9
:10158000402010080402018004020180402010085D
:101590000402010804020101020408102040800135
:1015A0000204081020408000000A0B02090C0D0EF6
:1015B0000807030401000000000000000000000014
:1015C000000000000000000000000000000000001B
:1015D00000000012111000000000000000000000D8
:1015E0000000000000000000000000000020423A5F
:1015F0000020453A00543A0020573A0020453A006E
:10160000543A003A20457874727564657220737795
:10161000697463686564206F66662E204D41585476
:10162000454D5020747269676765726564202100BA
:101630003A204578747275646572207377697463B3
:10164000686564206F66662E204D494E54454D50A6
:101650002074726967676572656420210054656D46
:101660007065726174757265206865617465642067
:10167000626564207377697463686564206F666669
:101680002E204D415854454D50207472696767654E
:101690007265642021210054656D706572617475F6
:1016A0007265206865617465642062656420737783
:1016B000697463686564206F66662E204D494E54D8
:1016C000454D5020747269676765726564202121F9
:1016D000004572726F723A005072696E74657220C2
:1016E00068616C7465642E206B696C6C28292063BA
:1016F000616C6C656421005072696E746572207350
:10170000746F707065642064756520746F206572F5
:10171000726F72732E204669782074686520657236
:10172000726F7220616E6420757365204D3939398E
:1017300020746F20726573746172742E2028546552
:101740006D7065726174757265206973207265735E
:1017500065742E2053657420697420616674657207
:101760002072657374617274696E6729000080FC71
:10177000430000024400801844000048C2000000FA
:101780000000000000526573656E643A20006F6BC4
:10179000006563686F3A00202D20496E76616C69A0
:1017A00064206578747275646572206E756D62650B
:1017B0007220210070012C0190012701B00122014B
:1017C000C0011D01F00118011002130130020E01C9
:1017D0006002090190020401C002FF000003FA0048
:1017E0004003F5008003F000D003EB002004E60086
:1017F0007004E100E004DC004005D700C005D20021
:101800004006CD00D006C8008007C3003008BE00E7
:10181000F008B900C009B400B00AAF00B00BAA00CC
:10182000D00CA500000EA000500F9B00C010960029
:101830005012910000148C00C0158700B017820070
:10184000B0197D00D01B7800001E730040206E0090
:1018500090226900F024640040275F0090295A001C
:10186000E02B5500102E500020304B001032460067
:10187000E033410090353C001037370070383200BB
:10188000A0392D00B03A2800A03B2300603C1E0088
:10189000103D1900903D1400103E0F00703E0A00EC
:1018A000C03E0500003F0000FFFFFF00C00A4400EB
:1018B000000244008018440084BA57BA11241FBEA5
:1018C000CFEFD1E2DEBFCDBF00E00CBF1BE0A0E058
:1018D000B2E0EEE8F8E901E00BBF02C007900D921C
:1018E000A837B107D9F729E1A8E7BBE001C01D92ED
:1018F000A43CB207E1F71CE0CDE5DCE000E006C067
:1019000021970109802FFE010E94B0CACC35D10772
:1019100080E00807A9F70E94D0B00C9436CC0C9454
:1019200000002F923F924F925F926F927F928F9220
:101930009F92AF92BF92CF92DF92EF92FF920F935E
:101940001F93CF93DF93CDB7DEB7C557D1090FB63D
:10195000F894DEBF0FBECDBF2DB73EB7E2963FAFC6
:101960002EAFE29780913D0C882341F00E949A4F60
:101970001092AB101092AA1010923D0C87E40E94B6
:101980002197782E882309F48CC00E9447970E94E3
:101990003DC86430710509F474C0E4F46230710527
:1019A00009F45CC00CF062C077FF02C00C942D22D9
:1019B000F0E8AF2EFFE4BF2EF3ECCF2EF7ECDF2ED6
:1019C00086017501A6019501C601B5010E94D0529C
:1019D0000C942D226A35710509F45AC02CF56C312E
:1019E000710511F00C942D226FE672E183E89AE301
:1019F0000E94069C6FE672E183E89AE30E94069CCF
:101A00006FE672E183E89AE30E94069C6FE672E15A
:101A100083E89AE30E94069C60E070E080E090E03A
:101A20000E9469AC0C942D226B357105A9F16C35BF
:101A3000710511F00C942D22E0E8AE2EEFE4BE2EDD
:101A4000E3ECCE2EE7ECDE2E86017501A6019501B2
:101A5000C601B5010E94CD9A0C942D2280912613C7
:101A6000811104C00E94CBA581E007C0809126139C
:101A7000811107C00E94CBA580E00E94309D0C948C
:101A8000FF2560E070E0CB010E94069C0C942D22A3
:101A9000109221130C942D2281E0809321130C9439
:101AA0002D228DE40E942197882311F40C94DF21CC
:101AB0000E9447970E943DC86B3C710511F40C943D
:101AC000C7180CF0F7C06135710511F40C94FA15C4
:101AD0000CF054C06831710509F436C43CF563312B
:101AE000710509F4F4C194F46131710509F4D8C1A8
:101AF00014F00C9409166230710510F00C942D222C
:101B000081E090E00E9414910C942D2265317105C2
:101B100009F4F3C30CF49EC36631710509F4F1C3F3
:101B20006731710509F4F5C30C942D226E317105EE
:101B300009F4BEC484F46A31710509F421C40CF4BB
:101B400019C46B31710509F429C46C31710509F4AC
:101B500079C40C942D226032710509F41BC60CF473
:101B600091C66A32710509F4EBC66035710511F052
:101B70000C942D22999AA19A0C942D226D36710500
:101B800009F4DCC70CF050C06C35710511F40C94ED
:101B900043164CF56335710511F40C94041614F4D6
:101BA0000C9400166435710511F40C940916653512
:101BB000710511F00C942D2283E50E9421970E945B
:101BC000479720E030E04AE754E40E9463BB0E945C
:101BD00043C86093FA187093FB188093FC18909395
:101BE000FD180C942D226936710509F4D5C66CF4E4
:101BF0006836710511F00C942D226FEF7FEF8FEF97
:101C00009FEF0E947B800C942D226A36710509F4A7
:101C1000A1C76B36710511F00C942D2210921A1980
:101C2000109219190C942D226837710511F40C9437
:101C30000118ECF46337710511F40C9400174CF49F
:101C40006237710511F00C942D22E7E7F4E00C9453
:101C50002D176537710511F40C940F17673771054F
:101C600011F00C942D22EDEDF2E00C940C186C3870
:101C7000710509F480C654F46937710511F00C94AC
:101C80002D2281E00E94F0AB0C942D226E3B710559
:101C900009F45AC7693C710511F00C942D229BE799
:101CA000E92E93E1F92E04EC12E024E0D22ED00EBE
:101CB0000C94AE186A3E33E0730711F40C94D51FF0
:101CC0000CF07CC06F3251E0750711F40C94461B88
:101CD0009CF56C3D710511F40C944C1AA4F46D3C08
:101CE000710511F40C94071914F40C94E5186E3C6A
:101CF000710511F40C9467196A3D710511F40C9487
:101D000085190C942D22623E710509F4B5C53CF489
:101D10006D3D710511F40C945B1A0C942D226D32FB
:101D200091E0790711F40C946A1A6E32714011F443
:101D30000C94321B0C942D22673FB1E07B0711F409
:101D40000C94B81E0CF5643FF1E07F0711F40C947D
:101D5000B21E4CF46039714011F00C942D220E9497
:101D60005CAC0C942D22653F41E0740711F40C9497
:101D7000B51E663F714011F00C942D220E94814ADD
:101D80000E9409670C942D22603A83E0780709F4D9
:101D90003AC53CF46D35724011F40C94BB1E0C94A2
:101DA0002D22673EB3E07B0711F40C94C721693EF6
:101DB000734011F40C94B01F0C942D226B3FF3E090
:101DC0007F0711F40C940A219CF5653F33E07307FB
:101DD00011F40C946620B4F46C3E53E0750711F4D2
:101DE0000C94DD1F14F40C94DA1F633F93E0790721
:101DF00011F40C94F01F643F734011F40C942B20E9
:101E00000C942D22673FB3E07B0711F40C94BC20A7
:101E100014F40C94A120683FF3E07F0711F40C94B4
:101E2000D720693F734011F40C94EF200C942D22BD
:101E3000673034E0730711F40C949A21DCF46E3FA0
:101E400053E0750711F40C9434213CF46D3F73405A
:101E500011F40C942E210C942D226F3FA3E07A07ED
:101E600011F40C9464216115744011F40C947C21DC
:101E70000C942D226930E4E07E0711F40C94972134
:101E800014F40C9494216A3024E0720711F40C9439
:101E90005F216031744011F40C949F210C942D2229
:101EA0005F9847988A989FB7F894809108018E7F31
:101EB000809308019FBF9FB7F894809108018B7FA2
:101EC000809308019FBF8D9812980C942D2283E572
:101ED0000E942197882341F00E9447970E943DC8A5
:101EE0007093950B6093940B81E091E190930011B6
:101EF0008093FF1081E090E09093A01280939F1256
:101F00001092A2121092A11240E050E0BA0185E0B6
:101F100091E10E94C4558091FF10909100112BE136
:101F2000FC013496DE01159601900D922A95E1F799
:101F3000DC0112968D919C9113979C838B838CEB83
:101F400092E09A838983BE016F5F7F4F85E394E0BF
:101F50000E94134ECE0101960E94AC6BD090A1124C
:101F6000AD2CB090A21280910811882309F446C0CC
:101F70008250823030F48FE28093AD101092AE1018
:101F80003DC06091111170911211809113119091C7
:101F9000141140E00E94046C882381F120911511F6
:101FA000B0E22B9F90011124C9018253924F892BDB
:101FB00029F180E090E0E0E05EE2DC01A20FB31FD7
:101FC000A253B24F4C91403289F08830910539F4D8
:101FD000AE2FB0E0A955BF4E16965C93EF5FAE2FC3
:101FE000B0E0A955BF4E16964C93EF5F01968B302B
:101FF000910519F7F0E0E955FF4E16828091940B98
:102000009091950B892B59F486EF92E00E948745B9
:1020100081E093E00E94874501E010E007C08DE079
:1020200093E00E94874588E193E0F4CF84E293E057
:102030000E94DB5D4AE0B801CE0101960E948474E3
:1020400089819A810E94DB5DCE0101960E942474F1
:1020500080E199E00E94DB5D0E94CF5D83E393E025
:102060000E94DB5D4AE0B801CE0101960E948474B3
:1020700089819A810E94DB5DCE0101960E942474C1
:1020800080E199E00E94DB5D0E94CF5D0F5F1F4FF2
:102090000730110559F6E12CF12C00E010E061E069
:1020A000662E61E1762EDA942296DFAE22977CEBE3
:1020B000872E72E0972EEA14FB0409F492C0709206
:1020C00000116092FF10E2E0F0E0F093A012E093C4
:1020D0009F1222968FAD22978E1990E09093A212B4
:1020E0008093A11240E050E0BA0185E091E10E94A6
:1020F000C4558091FF1090910011FC013496DE01CF
:1021000015962BE101900D922A95E1F7DC011296CC
:102110008D919C9113979C838B839A828982BE01B7
:102120006F5F7F4F85E394E00E94134ECE010196CE
:102130000E94AC6B6DEA70E1CE01CB960E94B77441
:102140008091D510811145C021968EAD9FAD21970C
:10215000892B09F43EC0BE01655C7F4FCE0101961C
:102160000E94AF742DB63EB64D815E812A01F1E02A
:102170004F1A51082DB73EB7241B350B0FB6F894F4
:102180003EBF0FBE2DBF8DB79EB701966C014115A6
:10219000510541F0C114D10429F0B601CE010196D8
:1021A0000E94F04DF601CF018C199D09841595050B
:1021B00014F40C943022DD24D3940FB6F8943EBE70
:1021C0000FBE2DBECE0101960E942474D1100C9436
:1021D0003822CE01CB960E9424745FEFE51AF50AEF
:1021E0006ACF82E493E00E94DB5D6091940B709172
:1021F000950B4AE0CE0101960E94847489819A81F0
:102200000E94DB5DCE0101960E9424740E94CF5D86
:102210008091940B9091950B019646E0489F900118
:10222000499F300D11242017310754F08BE593E0BE
:102230000E94874588E693E00E9487450C942D22F2
:1022400086E793E00E94874583E893E00E948745F4
:102250000C942D22ECE5F5E08491882341F09091D7
:10226000C00095FFFCCF8093C6003196F5CF8091DA
:10227000C00085FFFCCF8AE08093C6001092A012B8
:1022800010929F1240E050E0BA0184EE90E10E946B
:10229000C4558BE1E4EEF0E1DE01159601900D925C
:1022A0008A95E1F78091E2109091E3109C838B83F3
:1022B0008CEB92E09A838983BE016F5F7F4F85E349
:1022C00094E00E94134ECE0101960E94AC6BEEE4A6
:1022D000F5E08491882341F09091C00095FFFCCFF8
:1022E0008093C6003196F5CF8091C00085FFFCCF6A
:1022F0008AE08093C6000C942D220E94BB2A0C9485
:102300002D221092AB101092AA101092AC100C94C7
:102310002D22E090290CF0902A0C84E0E80EF11CAC
:102320006AE270E0C7010E94E4CB009719F0FC015B
:102330003197108200E010E0980141E0B701C70139
:102340000E94A64F0C942D228091AC10882331F06E
:1023500081E090E09093AB108093AA100E9440849B
:102360006093960B7093970B8093980B9093990BB7
:102370000C942D2281E090E00E9414910C942D2267
:102380008091AC10882311F40C942D2283E50E94D7
:10239000219781110C94E1220C942D228091AC1094
:1023A000882309F439C0EFEBF2E08491882341F0EF
:1023B0009091C00095FFFCCF8093C6003196F5CF79
:1023C0006091D8107091D9108091DA109091DB1043
:1023D0004AE00E948227EDEBF2E08491882341F0ED
:1023E0009091C00095FFFCCF8093C6003196F5CF49
:1023F0006091DC107091DD108091DE109091DF1003
:102400004AE00E9482278091C00085FFFCCF8AE0CD
:102410008093C6000C942D22E1EDF2E08491882394
:1024200041F09091C00095FFFCCF8093C60031969B
:10243000F5CF8091C00085FFFCCF8AE08093C60075
:102440000C942D228091290C90912A0C6AE270E064
:1024500004960E94E4CB8C01892BE1F02091400C82
:102460003091410C40E6429FC001439F900D1124E2
:102470006EE470E0865B934F0E94E4CB60E270E014
:102480000E94E4CB019690932A0C8093290CF801CA
:10249000319710828091290C90912A0C049600E0CB
:1024A00010E0980140E0BC010E94A64F0C942D2240
:1024B0008091AC10882311F40C942D220E949A4F25
:1024C0008091290C90912A0C6AE270E004960E9497
:1024D000E4CB8C01892BE1F02091400C3091410C30
:1024E00040E6429FC001439F900D11246EE470E0CE
:1024F000865B934F0E94E4CB60E270E00E94E4CBE5
:10250000019690932A0C8093290CF8013197108240
:102510000091290C10912A0C480194E0890E911C1D
:102520008091AC10882311F40C942D228FE792E156
:102530000E94AD561092AB101092AA10DE011196B7
:102540007D01CD010E94B46B80EE90E1909300116B
:102550008093FF10F80184818F3209F08BC06FE205
:1025600070E0C4010E94E4CB8C010F5F1F4F5AE062
:10257000652E0115110509F483C06FE270E0C801F2
:102580000E94E4CB6C01009709F47BC0081719077F
:1025900008F077C05C01A01AB10AA501B801CE010C
:1025A00080960E940DCCE0E2F0E0EC0FFD1FEA0DFA
:1025B000FB1D10828E01005E1F4FF8018191882360
:1025C00039F09091C00095FFFCCF8093C600F6CF04
:1025D0008091C00085FFFCCF6092C6006091FF1023
:1025E000709100116115710511F06C5F7F4F21E052
:1025F000AE01405E5F4FCE0105960E94345C8111B2
:1026000031C0EBE0F3E08491882371F09091C00039
:1026100095FFFCCF8093C6003196F5CF9091C00016
:1026200095FFFCCF8093C600D8018D918D0181115B
:10263000F5CFE9E0F3E08491882341F09091C00068
:1026400095FFFCCF8093C6003196F5CF8091C000F6
:1026500085FFFCCF8AE08093C600C7010E94AC6B67
:102660000C942D22F0920011E092FF1086010F5F72
:102670001F4F7FCF81E091E1909300118093FF1075
:1026800084016091FF10709100116115710511F0C6
:102690006C5F7F4F18A21BA222E0A801CE0180969A
:1026A0000E94345C8823F1F0CE0180960E94B82805
:1026B0008823C1F06CA57DA58EA59FA541E00E9451
:1026C000046C882379F0E8A9B0E2EB9FF0011124B3
:1026D000E253F24F309731F085EE80831BA20E94C7
:1026E000C46B782ECE0180960E94BB57772009F1EB
:1026F000EBEFF2E08491882341F09091C00095FFC8
:10270000FCCF8093C6003196F5CFF80181918823E4
:1027100039F09091C00095FFFCCF8093C600F6CFB2
:102720001092D8101092D9101092DA101092DB107B
:102730002CC0E3EEF2E08491882341F09091C00038
:1027400095FFFCCF8093C6003196F5CFF8018191BB
:10275000882339F09091C00095FFFCCF8093C6008C
:10276000F6CFE1EEF2E08491882341F09091C00031
:1027700095FFFCCF8093C6003196F5CF8091C000C5
:1027800085FFFCCF8AE08093C600C7010E94AC6B36
:102790000C942D228091AA109091AB10019721F4F6
:1027A0000E945CAC0E949A4FE090290CF0902A0C99
:1027B000E4E0EE0EF11C6AE270E0C7010E94E4CB97
:1027C000009719F0FC013197108200E010E09801A9
:1027D00041E0B701C7010E94A64F8091AC10882349
:1027E00031F081E090E09093AB108093AA100E94AA
:1027F00040846093960B7093970B8093980B909303
:10280000990B0C942D228091290C90912A0C6AE24C
:1028100070E005960E94E4CB8C01892BE1F02091B9
:10282000400C3091410C40E6429FC001439F900D07
:1028300011246EE470E0865B934F0E94E4CB60E26B
:1028400070E00E94E4CB019690932A0C8093290CAF
:10285000F801319710828091290C90912A0C0596ED
:1028600021E02093A91000E010E0980140E0BC01B5
:102870000E94A64F0C942D2281E090E00E941491BA
:102880000C942D220E94408460939A0B70939B0BB2
:1028900080939C0B90939D0B0091960B1091970B3E
:1028A0002091980B3091990B601B710B820B930B4D
:1028B00028EE33E040E050E00E94A2C6CA01B90110
:1028C0002CE330E040E050E00E94A2C67F936F937B
:1028D0003F932F938FE395E09F938F938E010F5F2C
:1028E0001F4F1F930F930E94D7C0E1E8F8E0849137
:1028F0002DB73EB7285F3F4F0FB6F8943EBF0FBECF
:102900002DBF882349F09091C00095FFFCCF8093A4
:10291000C60031968491F5CFF8018191882339F072
:102920009091C00095FFFCCF8093C600F6CF8091B8
:10293000C00085FFFCCF8AE08093C6000C942D2256
:1029400083E50E942197882311F40C942D220E9484
:1029500047970E943DC88B0180E50E9421978823FC
:1029600011F40C942D220F3F110509F010F40C9472
:10297000F2220C942D2283E50E942197882311F4E2
:102980000C942D220E9447970E943DC870933F0CE3
:1029900060933E0C0C942D2289E690E00E94A69252
:1029A00081110C942D22E9E3F5E08491882341F014
:1029B0009091C00095FFFCCF8093C6003196F5CF73
:1029C0006091B4187091B5188091B6189091B718AD
:1029D00041E00E940928E7E3F5E08491882341F073
:1029E0009091C00095FFFCCF8093C6003196F5CF43
:1029F0006091131370911413072E000C880B990B20
:102A00000E940CC141E00E940928E2E3F5E08491B4
:102A1000882341F09091C00095FFFCCF8093C600C1
:102A20003196F5CF6091B8187091B9188091BA18A5
:102A30009091BB1841E00E940928E0E3F5E0849101
:102A4000882341F09091C00095FFFCCF8093C60091
:102A50003196F5CF6091151370911613072E000C67
:102A6000880B990B0E940CC141E00E940928ECE2FE
:102A7000F5E08491882341F09091C00095FFFCCF50
:102A80008093C6003196F5CF6091A4187091A51877
:102A90008091A6189091A71841E00E940928E9E2C8
:102AA000F5E08491882341F09091C00095FFFCCF20
:102AB0008093C6003196F5CF60913E0C70913F0C2B
:102AC000072E000C880B990B0E940CC141E00E945C
:102AD0000928E5E2F5E08491882341F09091C00057
:102AE00095FFFCCF8093C6003196F5CFE091021997
:102AF000F0E0EC53F74E608170E080E090E00E94DF
:102B0000F727E0E2F5E08491882341F09091C0003E
:102B100095FFFCCF8093C6003196F5CF6091C31826
:102B200070E080E090E00E94F7278091C00085FF70
:102B3000FCCF8AE08093C6000C94FF258FEF9FEFB7
:102B40000E94FD7B0C942D228FEF9FEF0E94EC8062
:102B50000C942D2282E50E942197811105C020E06E
:102B600030E040E85FE30BC00E9447970E943DC8F9
:102B700061307105A1F723E333E343E250E483E5D9
:102B8000E3962FAFE397E4963FAFE497E5964FAF18
:102B9000E597E6965FAFE6970E942197882311F1AB
:102BA0000E944797E3962FADE397E4963FADE497F5
:102BB000E5964FADE597E6965FADE6970E9463BB5D
:102BC0000E943DC86F3F710519F014F06FEF70E07F
:102BD00077FF02C060E070E070931A1960931919D2
:102BE0000C942D228FEF90E090931A19809319196D
:102BF0000C942D2261E080E00E94F8960C942D2226
:102C0000109225130C942D2281E0809325130C94AF
:102C10002D2283E50E9421978823A1F00E944797E7
:102C200020E030E04AE754E40E9463BB0E9443C8BE
:102C300060931A0270931B0280931C0290931D02F2
:102C40000C942D2288E50E94219781110C94F52285
:102C500089E50E94219781110C94F5228AE50E9452
:102C6000219781110C94F52285E40E94219781110E
:102C70000C94F5220E945CAC8D9A129A81E00E941D
:102C80001BAC0C942D2282E50E942197882329F009
:102C90000E9447974B015C0106C0812C912C40E8B3
:102CA000A42E4FE3B42E44EC52E026965FAF4EAF15
:102CB000269707E513E18FEC92E124969FAF8EAF44
:102CC00024973BE6232E33E1332E22961FAE229724
:102CD0002696AEADBFAD26978D912696BFAFAEAF0F
:102CE00026970E942197882309F46DC02296BFADD4
:102CF0002297B33009F05CC00E944797A501940168
:102D00000E94CCC72B013C0120E030E040EA51E4B6
:102D10000E9406C187FF45C0A3019201F8016081AE
:102D20007181828193810E94CCC76B017C019B01E0
:102D3000AC016091BB127091BC128091BD12909158
:102D4000BE120E9463BB6093BB127093BC1280934F
:102D5000BD129093BE12A70196012496AEADBFADF1
:102D600024976D917D918D919C910E9463BB2496D7
:102D7000EEADFFAD24976083718382839383D1018D
:102D80006D917D918D919C910E940AC1A701960140
:102D90000E9463BB0E9443C8F101608371838283F8
:102DA0009383D8014D925D926D927C9213970BC0E4
:102DB0000E944797A50194010E94CCC7F801608347
:102DC0007183828393832296FFAD2297FF5F2296C1
:102DD000FFAF22970C5F1F4F24962EAD3FAD249777
:102DE0002C5F3F4F24963FAF2EAF249734E0230E45
:102DF000311CF43009F06CCF0E944E490C942D2206
:102E0000EAE7F4E08491882311F40C942D22909148
:102E1000C00095FFFCCF8093C6003196F3CF0091A0
:102E2000290C10912A0C0B5F1F4F6AE270E0C80159
:102E30000E94E4CB009719F0FC0131971082B80191
:102E400085E890E10E94C1730C942D229091C000FE
:102E500095FFFCCF8093C600319684918111F6CF07
:102E600060913713709138138091391390913A1310
:102E700042E00E940928E4E7F4E08491882341F0CD
:102E80009091C00095FFFCCF8093C6003196F5CF9E
:102E900060913B1370913C1380913D1390913E13D0
:102EA00042E00E940928E1E7F4E08491882341F0A0
:102EB0009091C00095FFFCCF8093C6003196F5CF6E
:102EC00060913F1370914013809141139091421390
:102ED00042E00E940928EEE6F4E08491882341F064
:102EE0009091C00095FFFCCF8093C6003196F5CF3E
:102EF0006091431370914413809145139091461350
:102F000042E00E940928E3E6F4E08491882341F03E
:102F10009091C00095FFFCCF8093C6003196F5CF0D
:102F20002FB7F8946091271370912813809129137B
:102F300090912A132FBF0E940CC1209157133091FA
:102F400058134091591350915A130E94CCC742E034
:102F50000E940928E0E6F4E08491882341F09091F2
:102F6000C00095FFFCCF8093C6003196F5CF2FB7F8
:102F7000F89460912B1370912C1380912D139091E4
:102F80002E132FBF0E940CC120915B1330915C1354
:102F900040915D1350915E130E94CCC742E00E94A5
:102FA0000928EDE5F4E08491882341F09091C00078
:102FB00095FFFCCF8093C6003196F5CF2FB7F894DC
:102FC00060912F13709130138091311390913213CF
:102FD0002FBF0E940CC120915F133091601340916C
:102FE0006113509162130E94CCC742E00E940928ED
:102FF0008091C00085FFFCCF8AE08093C6000C94CE
:103000002D2280E00E94F0AB0C942D229091C00004
:1030100095FFFCCF8093C60081918111F7CF8091FD
:10302000C00085FFFCCF8AE08093C600E5E5F4E0B0
:103030008491882341F09091C00095FFFCCF80934C
:10304000C6003196F5CF659B03C0EEECF2E009C0F7
:10305000E3EDF2E006C09091C00095FFFCCF8093B5
:10306000C60081918111F7CF8091C00085FFFCCF10
:103070008AE08093C600EDE4F4E08491882341F077
:103080009091C00095FFFCCF8093C6003196F5CF9C
:10309000649B03C0EEECF2E009C0E3EDF2E006C091
:1030A0009091C00095FFFCCF8093C6008191811163
:1030B000F7CF8091C00085FFFCCF8AE08093C600E7
:1030C000E5E4F4E08491882341F09091C00095FFFD
:1030D000FCCF8093C6003196F5CF8091030181FD2E
:1030E00003C0EEECF2E009C0E3EDF2E006C090911F
:1030F000C00095FFFCCF8093C60081918111F7CF6E
:103100008091C00085FFFCCF8AE08093C600EDE38C
:10311000F4E08491882341F09091C00095FFFCCFAA
:103120008093C6003196F5CF4B9B03C0EEECF2E0E6
:1031300009C0E3EDF2E006C09091C00095FFFCCF1E
:103140008093C60081918111F7CF8091C00085FFE7
:10315000FCCF8AE08093C6000C942D22D8018D917B
:103160008D010E942197882349F00E9447970E9471
:1031700043C8F7016083718382839383F4E0EF0E89
:10318000F11CD012EBCF0E94BD660C942D221FECD7
:10319000E12E12E1F12E04EC12E084E0D82ED00EE4
:1031A000D8018D918D010E942197882339F00E94CA
:1031B0004797F7016083718382839383F4E0EF0E76
:1031C000F11CD012EDCF0C942D2283E50E942197A3
:1031D000882351F00E9447976093C7127093C812DA
:1031E0008093C9129093CA1284E50E942197882384
:1031F00011F40C942D220E9447976093CB12709388
:10320000CC128093CD129093CE120C942D2283E594
:103210000E942197882351F00E9447976093E31200
:103220007093E4128093E5129093E61284E50E9475
:103230002197882351F00E9447976093E71270937B
:10324000E8128093E9129093EA1282E40E94219797
:10325000882361F00E9447970E9443C86093DF1261
:103260007093E0128093E1129093E21288E50E943D
:103270002197882351F00E9447976093C31270935F
:10328000C4128093C5129093C6128AE50E942197BA
:10329000882351F00E9447976093BF127093C01229
:1032A0008093C1129093C21285E40E9421978823D3
:1032B00011F40C942D220E9447976093BB127093D7
:1032C000BC128093BD129093BE120C942D22AEE7D7
:1032D000EA2EA9E1FA2E04EC12E0B3E0DB2ED00EC8
:1032E000D8018D918D010E942197882339F00E9489
:1032F0004797F7016083718382839383F4E0EF0E35
:10330000F11CD012EDCF0C942D228AED90E00E949A
:10331000A69281110C942D2288E50E942197882382
:1033200081F00091021910E00E944797000F111FD1
:10333000000F111FF801E557FF4E608371838283F0
:10334000938389E50E942197882381F000910219D7
:1033500010E00E944797000F111F000F111FF80186
:10336000ED56FF4E60837183828393838AE50E94CA
:103370002197882381F00091021910E00E9447975D
:10338000000F111F000F111FF801E556FF4E60835B
:10339000718382839383E1E8F8E08491882341F08C
:1033A0009091C00095FFFCCF8093C6003196F5CF79
:1033B000EDE2F4E08491882341F09091C00095FF04
:1033C000FCCF8093C6003196F5CF10920219809100
:1033D0000219823008F058C0ECE1F4E081918823B2
:1033E00039F09091C00095FFFCCF8093C600F6CFD6
:1033F000E091021924E0E29FF0011124E557FF4E0D
:10340000608171818281938142E00E94092801E9F3
:1034100013E0F8018191882339F09091C00095FF65
:10342000FCCF8093C600F6CFE091021934E0E39F11
:10343000F0011124ED56FF4E6081718182819381EC
:1034400042E00E940928D8018D918D01882339F02E
:103450009091C00095FFFCCF8093C600F4CFE0911F
:103460000219B4E0EB9FF0011124E556FF4E608194
:1034700071818281938142E00E9409288091021922
:103480008F5F80930219A3CF8091C00085FFFCCF8E
:103490008AE08093C600E1C783E50E9421978823D4
:1034A00009F4DBC70E9447970E943DC870935F02F2
:1034B00060935E02D2C783E50E942197882309F4B6
:1034C000CCC70E9447970E943DC870930902609341
:1034D0000802C3C780E50E942197882351F00E940B
:1034E0004797609342027093430280934402909303
:1034F000450289E40E942197882381F00E94479722
:103500002DEB37E346E05EE30E9463BB60933E022F
:1035100070933F02809340029093410284E40E94A2
:103520002197882381F00E9447972DEB37E346E0EF
:103530005EE30E94CCC760933A0270933B02809393
:103540003C0290933D0283E40E942197882351F02E
:103550000E944797609300027093010280930202D9
:10356000909303020E94D7ABE3E9F3E081918823B3
:1035700039F09091C00095FFFCCF8093C600F6CF44
:10358000E6E9F3E08191882339F09091C00095FF3E
:10359000FCCF8093C600F6CF609142027091430247
:1035A000809144029091450242E00E940928EAE994
:1035B000F3E08191882339F09091C00095FFFCCF12
:1035C0008093C600F6CF2DEB37E346E05EE36091D3
:1035D0003E0270913F0280914002909141020E9410
:1035E000CCC742E00E940928EEE9F3E081918823EC
:1035F00039F09091C00095FFFCCF8093C600F6CFC4
:103600002DEB37E346E05EE360913A0270913B02B6
:1036100080913C0290913D020E9463BB42E00E9477
:103620000928E2EAF3E08191882339F09091C00003
:1036300095FFFCCF8093C600F6CF60910002709199
:103640000102809102029091030242E00E94092847
:103650008091C00085FFFCCF8AE08093C6000E9465
:103660004E49FBC683E50E942197882319F00E94EA
:10367000479703C060E070E0CB016093EB1270935A
:10368000EC128093ED129093EE12E7C685E40E944F
:103690002197882341F00E9447970E943DC88B01E3
:1036A00077FD12C002C000E010E02D961FAE2D97EE
:1036B0002E961FAE2E97E6E12F96EFAF2F97F3E4ED
:1036C0006096FFAF60970EC02D961FAE2D972E9679
:1036D0001FAE2E972CE82F962FAF2F9732E46096CF
:1036E0003FAF609783E50E942197882371F00E9485
:1036F00047972D966FAF2D972E967FAF2E972F96CB
:103700008FAF2F9760969FAF609783E40E942197B9
:10371000882349F00E9447970E943DC8AC967FAF2E
:103720006EAFAC9706C045E050E0AC965FAF4EAFD1
:10373000AC970E9440842C966CAF7DAF8EAF9FAF4C
:103740002C97033011051CF4E6EAF3E01AC0E9EB0C
:10375000F3E08191882339F09091C00095FFFCCF70
:103760008093C600F6CF8091C00085FFFCCF8AE031
:103770008093C60072C69091C00095FFFCCF8093E5
:10378000C60081918111F7CF8091C00085FFFCCFE9
:103790008AE08093C6000E9496848FE717FF68C076
:1037A0008093C3182C968CAD9DADAEADBFAD2C975C
:1037B00068968CAF9DAFAEAFBFAF6897E0968CAF09
:1037C0009DAFAEAFBFAFE09761961FAE619790E43B
:1037D0006B969FAF6B97ACE16C96AFAF6C97B6E40E
:1037E0006D96BFAF6D976E961FAE6E976F961FAEBC
:1037F0006F97A0961FAEA097A1961FAEA1972FE737
:1038000030E040E050E028962CAF3DAF4EAF5FAFC8
:1038100028973FE7432E512C612C712CA8961CAEA3
:103820001DAE1EAE1FAEA89731E0A2963FAFA29785
:103830006A961FAE1EAE6A9722961FAE2297212C63
:10384000312C23961FAE2397A8014C53574EAA96AE
:103850005FAF4EAFAA97C801880F991F880F991FB5
:10386000DC01AC54B74EA496BFAFAEAFA49707C06F
:10387000F801EC53F74E808395CF0E94402C809145
:10388000C218882309F478C10E94008917FF0FC06D
:10389000B091A4182296BFAF22972090A51830901F
:1038A000A618E091A7182396EFAF239712C0A4960D
:1038B000AEADBFADA497BC912296BFAF2297A496A0
:1038C000EEADFFADA49721803280F3812396FFAF48
:1038D000239722962FAD2297322D432D23965FAD4D
:1038E00023976E966FAD6E976F967FAD6F97A0968C
:1038F0008FADA097A1969FADA1970E9429C91816D8
:1039000094F022962FAD22976E962FAF6E976F96FA
:103910002FAE6F97A0963FAEA09723963FAD23970B
:10392000A1963FAFA19722962FAD2297322D432D1E
:1039300023965FAD239761966FAD61976B967FADD0
:103940006B976C968FAD6C976D969FAD6D970E943F
:1039500006C187FD12C022964FAD229761964FAFE8
:1039600061976B962FAE6B976C963FAE6C972396D4
:103970005FAD23976D965FAF6D97A2968FADA297BF
:10398000882309F479C02D962FAD2D972E963FAD43
:103990002E972F964FAD2F9760965FAD609722962A
:1039A0006FAD2297722D832D23969FAD23970E9492
:1039B00029C918160CF0E0C00E944084DC01CB013C
:1039C0002C962CAD3DAD4EAD5FAD2C97821B930B6D
:1039D000A40BB50B89389341A105B10508F4CCC0FF
:1039E000D301C20128962CAD3DAD4EAD5FAD2897F9
:1039F000821B930BA40BB50BB595A795979587954F
:103A000017FF03C08093C31805C0AA96EEADFFADA3
:103A1000AA9780830E94408468966CAF7DAF8EAF7A
:103A20009FAF68979B01AC012C968CAD9DADAEAD60
:103A3000BFAD2C97281B390B4A0B5B0BA8962CAFFC
:103A40003DAF4EAF5FAFA8972D969FAD2D976E9669
:103A50009FAF6E972E96AFAD2E976F96AFAF6F97C5
:103A60002F96BFAD2F97A096BFAFA0976096EFADF2
:103A70006097A196EFAFA1972D962FAD2D972E961B
:103A80003FAD2E972F964FAD2F9760965FAD609705
:103A900022966FAD2297722D832D23969FAD23978B
:103AA0000E9406C187FF9AC70E944084DC01CB01B7
:103AB00068962CAD3DAD4EAD5FAD6897821B930B04
:103AC000A40BB50B89389341A105B10508F486C74D
:103AD0000E9440842C966CAF7DAF8EAF9FAF2C9729
:103AE000DC01CB0168962CAD3DAD4EAD5FAD689766
:103AF000821B930BA40BB50B6A964EAD5FAD6A9714
:103B0000141615060CF49DC528968CAD9DADAEAD72
:103B1000BFAD2897840D951DA61DB71DB595A7951A
:103B20009795879517FF54C78093C3186A962EAD53
:103B30003FAD6A972F5F3F4F6A963FAF2EAF6A97B0
:103B40002D963FAD2D9761963FAF61972E964FAD65
:103B50002E976B964FAF6B972F965FAD2F976C9606
:103B60005FAF6C9760968FAD60976D968FAF6D97D6
:103B700091E0A2969FAFA29720E030E040EA51E4A6
:103B80002D966FAD2D972E967FAD2E972F968FADDC
:103B90002F9760969FAD60970E94DEC69B01AC0197
:103BA00022966FAD2297722D832D23969FAD23977A
:103BB0000E9429C91816ACF4E8E9F3E0849188233F
:103BC00041F09091C00095FFFCCF8093C6003196E4
:103BD000F5CF8091C00085FFFCCF8AE08093C600BE
:103BE0003CC40E944084DC01CB01E0962CAD3DAD8D
:103BF0004EAD5FADE097821B930BA40BB50B813DDF
:103C00009740A105B10508F452C017FF10C0E0901D
:103C1000C318F12CE2E9F3E084918823D9F0909164
:103C2000C00095FFFCCF8093C6003196F5CFAA96D1
:103C3000AEADBFADAA97EC90F12CECE8F3E0849127
:103C4000882341F09091C00095FFFCCF8093C6007F
:103C50003196F5CF42E022966FAD2297722D832DDB
:103C600023969FAD23970E940928E8E8F3E084910A
:103C7000882341F09091C00095FFFCCF8093C6004F
:103C80003196F5CFB701FF0C880B990B0E94F727EF
:103C90008091C00085FFFCCF8AE08093C6000E941F
:103CA0004084E0966CAF7DAF8EAF9FAFE0970E94EF
:103CB00040846B017C010E94408468968CAC9DAC72
:103CC000AEACBFAC68972C962CAD3DAD4EAD5FADA4
:103CD0002C97820E931EA41EB51EC818D908EA0898
:103CE000FB08DC01CB018C0D9D1DAE1DBF1D813875
:103CF0009F44A241B105A8F0EBE6F3E0849188234C
:103D000041F09091C00095FFFCCF8093C6003196A2
:103D1000F5CF8091C00085FFFCCF8AE08093C6007C
:103D20009CC36A964EAD5FAD6A97AC968EAD9FAD63
:103D3000AC97841795070CF0A0CDEFE1F3E08491E8
:103D4000882341F09091C00095FFFCCF8093C6007E
:103D50003196F5CF8091C00085FFFCCF8AE080933B
:103D6000C6007BC30E944E4978C30E942A4C75C38B
:103D70000E94954572C380E090E00E9450970E9497
:103D80005CAC83E50E942197882341F00E9447970D
:103D90000E943DC870930D0260930C0280910C024A
:103DA00090910D028230910509F0BFC088E50E9414
:103DB0002197882349F10E9447976B017C010E945B
:103DC00086449B01AC0160E070E0CB010E94DDC63F
:103DD0009B01AC01C701B6010E9429C918161CF449
:103DE0000E94479709C00E9486449B01AC0160E095
:103DF00070E0CB010E94DDC660930402709305025F
:103E0000809306029093070282E50E9421978823FF
:103E100051F00E9447976093780B7093790B8093D1
:103E20007A0B90937B0BE1E8F8E08491882341F0D2
:103E30009091C00095FFFCCF8093C6003196F5CFDE
:103E4000E8E0F4E08491882341F09091C00095FF70
:103E5000FCCF8093C6003196F5CF6CE1E62E64E08E
:103E6000F62EF7018191882339F09091C00095FFDB
:103E7000FCCF8093C600F6CF60918B1070918C10B0
:103E800080918D1090918E1042E00E94092801E9E6
:103E900013E0F8018191882339F09091C00095FFDB
:103EA000FCCF8093C600F6CF609193107091941070
:103EB000809195109091961042E00E940928D701B8
:103EC0008D917D01882339F09091C00095FFFCCF42
:103ED0008093C600F4CF6091040270910502809136
:103EE00006029091070242E00E940928F8018191A0
:103EF0008F01882339F09091C00095FFFCCF80930B
:103F0000C600F4CF6091971070919810809199102D
:103F100090919A1042E00E9409288091C00085FF8C
:103F2000FCCF8AE08093C60008C0049730F081E09F
:103F300090E090930D0280930C0210928D19809165
:103F40000C0290910D0290930B0280930A02109242
:103F50008E1910928F1910929019109291197DC29A
:103F600083E50E942197882309F477C20E9447972E
:103F70000E943DC870931913609318136531710541
:103F800034F084E190E0909319138093181380919A
:103F900018139091191397FD02C00C94FC161092FF
:103FA0001913109218130C94FC1683EE93E00E94E0
:103FB000874553C20E94348950C2812C912C5401F0
:103FC0007501640100E010E020E030E040E050E0E6
:103FD00060E070E0CB010E94804D109267133DC2FB
:103FE00082E50E942197882329F00E9447979B0130
:103FF000AC0104C020E030E040E85FE383E5E396F5
:104000002FAFE397E4963FAFE497E5964FAFE59780
:10401000E6965FAFE6970E942197882309F41DC2B8
:104020000E944797E3962FADE397E4963FADE49760
:10403000E5964FADE597E6965FADE6970E94CCC753
:1040400060937B1070937C1080937D1090937E1012
:104050000E944E4902C282E50E942197882329F0DE
:104060000E9447979B01AC0104C020E030E040E88B
:104070005FE383E5E3962FAFE397E4963FAFE497E2
:10408000E5964FAFE597E6965FAFE6970E942197DA
:10409000882309F4E2C10E944797E3962FADE39786
:1040A000E4963FADE497E5964FADE597E6965FADB4
:1040B000E6970E94CCC76093A3107093A4108093DE
:1040C000A5109093A6100E944E49C7C182E50E9498
:1040D0002197882329F00E9447979B01AC0104C0D7
:1040E00020E030E040E85FE383E5E3962FAFE3971D
:1040F000E4963FAFE497E5964FAFE597E6965FAF5E
:10410000E6970E942197882309F4A7C10E94479748
:10411000E3962FADE397E4963FADE497E5964FAD78
:10412000E597E6965FADE6970E94CCC76093900B4B
:104130007093910B8093920B9093930B0E944E4936
:104140008CC183E50E942197882309F486C10E94CF
:1041500047970E943DC8653671052CF477FF05C06E
:1041600060E070E002C064E670E07093F91860935C
:10417000F8180E944E4971C183E50E942197882357
:1041800009F46BC10E9447970E943DC8693C7105C4
:104190002CF477FF05C060E070E002C068EC70E0CE
:1041A0007093F7186093F6180E944E4956C183E544
:1041B0000E942197882309F450C10E9447970E94CA
:1041C0003DC821E030E06130710511F020E030E0C1
:1041D00030939F0B20939E0B0E944E493EC183E576
:1041E0000E942197882309F438C10E9447970E94B2
:1041F0003DC86D3371052CF477FF05C060E070E0B9
:1042000002C06CE370E070938F0B60938E0B0E9482
:104210004E4923C182E40E942197882351F00E94D5
:1042200047970E943DC870932119609320190E94FE
:104230004E4985E40E942197882309F40EC10E940B
:1042400047970E943DC870938D0B60938C0B7093C1
:104250008B0B60938A0B0E944E49FFC083E50E943E
:1042600021978111BFC3F9C083E50E94219788235C
:1042700009F4F3C00E9447970E943DC88B0184E572
:104280000E942197882329F00E9447970E943DC8E9
:1042900002C06FEF7FEF0230110508F0DEC08091A1
:1042A000201390E06817790709F40CC46F3FFFEF03
:1042B0007F0709F407C4CB010E94509703C41092F2
:1042C0001B1310921A13C9C083E50E9421978823FB
:1042D00009F4C3C00E9447970E943DC821E030E026
:1042E0006130710511F020E030E030931F1320930E
:1042F0001E130E944E49B1C083E50E942197882376
:1043000009F4ABC00E9447970E943DC821E030E00D
:104310006130710511F020E030E03093890B20937B
:10432000880B0E944E4999C00E94C74496C00E94C3
:10433000954493C080E090E00E9414918EC083E584
:104340000E942197882309F488C00E9447976B0137
:104350007C0120E030E0A9010E9406C1811104C067
:1043600081E080935C0279C020E030E040E251E4DB
:10437000C701B6010E94CCC7609315197093161936
:10438000809317199093181910925C0266C01092CE
:1043900026138091FE189091FF18A0910019B091FA
:1043A00001198093250C9093260CA093270CB093B1
:1043B000280C0E9449A6E0E0F0E019954EC084E583
:1043C0000E942197882329F08FEF9FEF0E9450973A
:1043D00044C0E1E8F8E08491882341F09091C00066
:1043E00095FFFCCF8093C6003196F5CFEAE1F4E06B
:1043F0008491882341F09091C00095FFFCCF809379
:10440000C6003196F5CF8091400C9091410C20E68A
:10441000289FF001299FF00D1124E65BF34F819155
:10442000882339F09091C00095FFFCCF8093C6009F
:10443000F6CFE8E1F4E08491882341F09091C00048
:1044400095FFFCCF8093C6003196F5CF8091C000D8
:1044500085FFFCCF8AE08093C6000E9421A6CFC3CF
:10446000819187FD02C00C94D310D12C0C94DD10E7
:104470006AEB70E1CE0101960E94B774BE016F5FD6
:104480007F4FCE01CB960E94EB73CE0101960E9426
:104490002474CE01CB960E94DF71BE01655C7F4F14
:1044A000CE0180960E94AF740F5F1F4FC090940B97
:1044B000D090950BB6E0BC9DC001BD9D900D112420
:1044C000801791070CF077C00696801791070CF4BF
:1044D00072C06DEA70E1CE0101960E94B774BE0110
:1044E0006F5F7F4FCE01CB960E94EB73CE0101969A
:1044F0000E942474CE01CB960E94DF7165E374E0C4
:10450000CE0180960E943A73882339F0BE01655C23
:104510007F4FCE0180960E94D6734AEF96014203E8
:10452000C001439F900D11246801C80ED91E84E27A
:1045300093E00E94DB5D4AE0B601CE0101960E9445
:10454000847489819A810E94DB5DCE0101960E946C
:10455000247488E19AE00E94DB5DCE0180960E947F
:10456000DF7188A199A10E94DB5D86E199E00E943C
:10457000DB5D0E94CF5D83E393E00E94DB5D4AE058
:10458000B601CE0101960E94847489819A810E94AD
:10459000DB5DCE0101960E94247488E19AE00E94BE
:1045A000DB5D8BAD9CAD0E94DB5D86E199E00E94F6
:1045B000DB5D0E94CF5DCE0180960E9424740C9436
:1045C000E9100E943C97AB01BC014093D810509376
:1045D000D9106093DA107093DB108FE792E10E949C
:1045E000C4553BCF0E94479738CF0E945CAC88E50A
:1045F0000E942197882311F05F9A479A89E50E94CB
:10460000219781118A9A8AE50E942197882381F057
:104610009FB7F894809108018160809308019FBF43
:104620009FB7F894809108018460809308019FBF30
:1046300085E40E942197882309F40FCF8D9A129A5E
:104640000CCFA8968CAC9DACAEACBFACA897880E36
:10465000991EAA1EBB1EA8962CAD3DAD4EAD5FADFA
:10466000A897281B390B4A0B5B0BCA01B901289686
:104670002CAD3DAD4EAD5FAD28970E9493C6A50110
:1046800094010E9494CAD301C201820F931FA41FF8
:10469000B51F84319105A105B1050CF12C013D0137
:1046A0008C3E9105A105B1052CF0FBEE4F2E512C4F
:1046B000612C712C40E84416510461047104FCF033
:1046C0008EEF90E0A0E0B0E084199509A609B70943
:1046D00028968CAF9DAFAEAFBFAF289716C0E4E170
:1046E0004E2E512C612C712C24E130E040E050E042
:1046F00028962CAF3DAF4EAF5FAF289706C02896E7
:104700004CAE5DAE6EAE7FAE2897E0E0F4E08491F3
:10471000882341F09091C00095FFFCCF8093C600A4
:104720003196F5CFC301B20162D4EBEFF3E084918F
:10473000882341F09091C00095FFFCCF8093C60084
:104740003196F5CF28966CAD7DAD8EAD9FAD289797
:104750004ED4E4EFF3E08491882341F09091C000BF
:1047600095FFFCCF8093C6003196F5CF42E061966D
:104770006FAD61976B967FAD6B976C968FAD6C97B5
:104780006D969FAD6D9745D4EDEEF3E0849188234F
:1047900041F09091C00095FFFCCF8093C600319608
:1047A000F5CF42E06E966FAD6E976F967FAD6F97C7
:1047B000A0968FADA097A1969FADA1972AD4809186
:1047C000C00085FFFCCF8AE08093C6006A962EADBC
:1047D0003FAD6A97233031050CF496C928966CAD2D
:1047E0007DAD8EAD9FAD28970E940CC120E030E0DA
:1047F00040E850E40E9463BB6B017C0161962FADE1
:1048000061976B963FAD6B976C964FAD6C976D96BD
:104810005FAD6D976E966FAD6E976F967FAD6F972C
:10482000A0968FADA097A1969FADA1970E94DDC6DF
:1048300020ED3FE049E450E40E9463BB20E030E01B
:1048400040E05FE30E9463BB9B01AC01C701B6017E
:104850000E94CCC76B017C01C501B4010E940CC150
:1048600020E030E04AE754E40E94CCC74B015C01F1
:10487000E7EEF3E08491882341F09091C00095FF2A
:10488000FCCF8093C6003196F5CF42E0C701B60158
:10489000C0D3E1EEF3E08491882341F09091C00011
:1048A00095FFFCCF8093C6003196F5CF42E0C5015D
:1048B000B401AFD38091C00085FFFCCF8AE0809324
:1048C000C6002AE939E949E15FE3C701B6010E9460
:1048D00063BB6B017C019B01AC010E94DEC6A5019C
:1048E00094010E94CCC764966CAF7DAF8EAF9FAF32
:1048F0006497A5019401C701B6010E9463BB20E043
:1049000030E040E05EE30E9463BB4B015C01E4EDFC
:10491000F3E08491882341F09091C00095FFFCCF93
:104920008093C6003196F5CF8091C00085FFFCCF03
:104930008AE08093C600EEECF3E08491882341F096
:104940009091C00095FFFCCF8093C6003196F5CFC3
:1049500042E0C701B6015DD38091C00085FFFCCF66
:104960008AE08093C600E8ECF3E08491882341F06C
:104970009091C00095FFFCCF8093C6003196F5CF93
:1049800042E064966CAD7DAD8EAD9FAD649741D332
:104990008091C00085FFFCCF8AE08093C600E2ECE6
:1049A000F3E08491882341F09091C00095FFFCCF03
:1049B0008093C6003196F5CF42E0C501B40129D3FA
:1049C0008091C00085FFFCCF8AE08093C6009CC820
:1049D000AA96EEADFFADAA978083A8C8A2961FAE97
:1049E000A297CAC80E9447970E943DC861157105E9
:1049F000F9F48091860B9091870B90931413809318
:104A0000131390931613809315138091840B909138
:104A1000850B90933F0C80933E0C8091820B90917C
:104A2000830B90931A19809319190E94938815CDBE
:104A300061307105F9F48091800B9091810B909316
:104A4000141380931313909316138093151380916E
:104A50007E0B90917F0B90933F0C80933E0C809146
:104A60007C0B90917D0B90931A19809319190E94D9
:104A70009388F3CC6230710569F41092141310928C
:104A80001313109216131092151310923F0C1092DC
:104A90003E0CE3CC6330710509F0DFCC10921413A7
:104AA00010921313109216131092151310923F0CBC
:104AB00010923E0C0E945CAC8D9A129A80E00E948B
:104AC0001BACCBCC012B09F04DC020E030E044EB17
:104AD00052E4609143137091441380914513909177
:104AE00046130E94DEC66093431370934413809371
:104AF00045139093461330E2C32E33E1D32EE12CBD
:104B0000F12C00E211E423E433E14FE353E16BE3E2
:104B100073E187E393E10E94D13520E030E040EA81
:104B200051E4609143137091441380914513909127
:104B300046130E94DEC66093431370934413809320
:104B4000451390934613E12CF12C00E010E423E48C
:104B500033E14FE353E16BE373E187E393E10E94B9
:104B6000D1357BCC20E030E040EF51E4609143133D
:104B70007091441380914513909146130E94DEC6B4
:104B8000609343137093441380934513909346139B
:104B900080E2C82E83E1D82EE12CF12C00E010E455
:104BA00023E433E14FE353E16BE373E187E393E104
:104BB0000E94D13520E030E040EF52E46091431391
:104BC0007091441380914513909146130E94DDC665
:104BD000609343137093441380934513909346134B
:104BE000E12CF12C08E412E423E433E14FE353E138
:104BF0006BE373E187E393E10E94D1352ECCE2961B
:104C0000AEADBFADE2970FB6F894BEBF0FBEADBF5D
:104C1000CB58DF4F0FB6F894DEBF0FBECDBFDF918C
:104C2000CF911F910F91FF90EF90DF90CF90BF90A9
:104C3000AF909F908F907F906F905F904F903F903C
:104C40002F9008954F925F926F927F928F929F92D2
:104C5000AF92BF92FF920F931F93CF93DF93182FC2
:104C600088E592E19093D80F8093D70F1092741239
:104C700082E090E0A0E0B0E080935D1290935E123D
:104C8000A0935F12B09360121092D60F1092D20FC1
:104C90001092D30F1092D40F1092D50F8FEF9FEF79
:104CA000DC018093CE0F9093CF0FA093D00FB093E1
:104CB000D10F112379F1153008F0F9C040E060E020
:104CC00070E0CB010E94046C882309F4F0C020E15D
:104CD000129FC00111248254924FFC01E254FE4FF6
:104CE00020812F7709F0E3C03C9640815181628199
:104CF0007381443651056105710508F4D8C03497B5
:104D000080809180A280B38081149104A104B104B9
:104D100021F4CDC0812C912C540140E0C501B40197
:104D20000E94046CF82E882309F4C1C08091D90D2B
:104D30009091DA0D8115924009F0B9C0A091DE0D75
:104D4000AA2309F4B4C06091DC0D7091DD0D6115EA
:104D5000710509F4ACC02091DB0D222309F4A7C032
:104D6000A0936F122093611280E030E0E1E0F0E068
:104D7000C82FAF01082E02C0440F551F0A94E2F756
:104D80002417350741F0982F8F5F983089F789E015
:104D900080936A128CC080936A122091E40D309146
:104DA000E50D2115310519F040E050E008C02091D3
:104DB000F20D3091F30D4091F40D5091F50D2093CB
:104DC000621230936312409364125093651224016F
:104DD0003501460E571E611C711C40927012509294
:104DE00071126092721270927312E091DF0DF09165
:104DF000E00DF0937612E0937512B0E00E94C4C605
:104E0000460E571E681E791E4092771250927812F5
:104E10006092791270927A1285E0EE0FFF1F8A95E8
:104E2000E1F7E150FE4FEF2FFF27E6954E0E5F1E94
:104E3000611C711C40926B1250926C1260926D1248
:104E400070926E122091E10D3091E20D2115310525
:104E500021F0890120E030E008C00091EE0D1091B2
:104E6000EF0D2091F00D3091F10DB501A401441921
:104E7000550966097709400F511F621F731F04C04F
:104E80007695679557954795CA95D2F740936612E0
:104E9000509367126093681270936912453F2FE038
:104EA00052076105710528F48CE080937412F12C8F
:104EB0001AC0453F5F4F6105710510F480E111C0D4
:104EC0008091FA0D9091FB0DA091FC0DB091FD0D1C
:104ED0008093771290937812A0937912B0937A12FC
:104EE00080E2809374128F2DDF91CF911F910F91EB
:104EF000FF90BF90AF909F908F907F906F905F904A
:104F00004F9008954F925F926F927F928F929F92EF
:104F1000AF92BF92EF92FF920F931F93CF93DF93C5
:104F2000CDB7DEB7A0970FB6F894DEBF0FBECDBFEA
:104F3000611571058105910541F48091C00085FFDF
:104F4000FCCF80E38093C6003DC09E012F5F3F4FA2
:104F50007901812C912C54018901442E512C612C12
:104F6000712C3FEF831A930AA30AB30AA30192019B
:104F70000E94A2C6F70161937F01B901CA016115C0
:104F800071058105910569F7A40120E030E0F1E0A9
:104F90008F1A9108A108B108F401E21BF30BE00F8E
:104FA000F11F80818A3010F4805D01C0895C90918E
:104FB000C00095FFFCCF8093C6002F5F3F4F2417A2
:104FC000350751F7A0960FB6F894DEBF0FBECDBFE0
:104FD000DF91CF911F910F91FF90EF90BF90AF9015
:104FE0009F908F907F906F905F904F90089597FF64
:104FF0000EC02091C00025FFFCCF2DE22093C600FB
:1050000090958095709561957F4F8F4F9F4F4AE0A7
:1050100079CF8F929F92AF92BF92CF92DF92EF9211
:10502000FF92CF93DF936B017C01C42F20E030E02F
:10503000A9010E9406C187FF0BC08091C00085FFB7
:10504000FCCF8DE28093C600F7FAF094F7F8F09465
:10505000D0E060E070E080E09FE3DC1741F020E00A
:1050600030E040E251E40E94CCC7DF5FF6CF9B0105
:10507000AC01C701B6010E94DEC66B017C010E9433
:1050800043C84B015C010E940AC19B01AC01C701EE
:10509000B6010E94DDC66B017C014AE0C501B40186
:1050A00031DFCC2361F0EBEEF8E08191882339F019
:1050B0009091C00095FFFCCF8093C600F6CFCC2323
:1050C00009F120E030E040E251E4C701B6010E945E
:1050D00063BB4B015C010E943DC86B01770FEE087A
:1050E000FF08C701B60183DFC701B6010E940CC1EA
:1050F0009B01AC01C501B4010E94DDC66B017C01BE
:10510000C150DDCFDF91CF91FF90EF90DF90CF9036
:10511000BF90AF909F908F900895682F8AED9FE089
:105120000C948570009769F0FC0101900020E9F76C
:105130003197AF01481B590BBC018AED9FE00C94DD
:10514000F36F80E090E00895BC0180E090E04AE0D9
:10515000D9DE8091C00085FFFCCF8DE08093C60032
:105160008091C00085FFFCCF8AE08093C60008953F
:105170008F929F92AF92BF92CF92DF92EF92FF9267
:105180000F931F93CF93DF9300D01F92CDB7DEB75D
:10519000FC018381813011F080E06BC0818181FF4F
:1051A000FBCF81899289A389B489892B8A2B8B2B88
:1051B00009F45EC07F0140E050E0BA01CF010E94D7
:1051C000C455882349F3F70185889688A788B08C51
:1051D000C18CD28C82E090E0A0E0B0E0F601808348
:1051E0009183A283B3839E012F5F3F4FB501A4013A
:1051F000C6010E94CD6C882379F200E010E098018E
:10520000B501A401C6010E943C6C882329F2898063
:105210009A80AB80BC80F6018789803141F4F8EF39
:105220008F16FFEF9F06A104B10448F4DCCF88EF8E
:1052300088168FEF9806A8068FE0B806A0F2F7014F
:10524000158A168A178A108E118A128A138A148A6E
:10525000818180688183C7010E941F6E882309F4C1
:105260009BCF40E050E0BA01C7010E94C45501C085
:1052700081E00F900F900F900F90DF91CF911F91D1
:105280000F91FF90EF90DF90CF90BF90AF909F90E5
:105290008F9008952F923F924F925F926F927F92DC
:1052A0008F929F92AF92BF92CF92DF92EF92FF9236
:1052B0000F931F93CF93DF93CDB7DEB7CE55D109B0
:1052C0000FB6F894DEBF0FBECDBF8091D7108F937D
:1052D0008091D6108F9382E998E09F938F938E01EF
:1052E000015C1F4F1F930F930E94D7C00F900F9028
:1052F0000F900F900F900F90F12CF801019000206B
:10530000E9F73197E01BF10BFE1684F46801CF0C2E
:10531000D11CF7FCDA94F6018081082E000C990B61
:105320000E94AACBF6018083F394E7CF40E050E0DF
:10533000BA0184EE90E10E94C4556E961FAE6E973E
:10534000CE0101967C018BE8A82E88E0B82E6E0174
:1053500091E2C90ED11C91E8292E98E0392E26E75A
:10536000422E28E0522E34E0832E912C8091E710BB
:10537000823040F46E962FAD6E97211114C08FEFDE
:105380009FEF16C08091EC109091ED10A091EE105F
:10539000B091EF108F719927AA27BB27892B8A2BF1
:1053A0008B2B41F723C08091D6109091D710019696
:1053B0009093D7108093D610C25ADF4F0FB6F8944F
:1053C000DEBF0FBECDBFDF91CF911F910F91FF9038
:1053D000EF90DF90CF90BF90AF909F908F907F9095
:1053E0006F905F904F903F902F90089540E050E075
:1053F000B70184EE90E10E94B46D18160CF0BACF9C
:1054000020E0F70101900020E9F73197EE19FF093C
:105410002E17A4F43701620E711C27FD7A94F30154
:10542000808190E06F962FAF6F970E94AACBF30117
:1054300080836F962FAD6F972F5FE3CF8A858E376E
:1054400009F494CF45E050E0B801C7010E94FFCBBA
:10545000892B09F08BCF1F930F93BF92AF92DF92EE
:10546000CF920E94D7C00F900F900F900F900F9087
:105470000F908091CC0D9091CD0D04970CF06CC0E5
:105480002091CA0D3091CB0DF0E6F29FC001F39F41
:10549000900D1124B601865B934F0E94F8CBF10169
:1054A0008491E1E8F8E0882349F09091C00095FFED
:1054B000FCCF8093C60031968491F5CFF2018491A0
:1054C000E6E7F8E0882349F09091C00095FFFCCF13
:1054D0008093C60031968491F5CF8091CA0D90914A
:1054E000CB0D20E6289FF001299FF00D1124E65BEB
:1054F000F34F8191882339F09091C00095FFFCCF44
:105500008093C600F6CFE4E7F8E08491882341F069
:105510009091C00095FFFCCF8093C6003196F5CFE7
:105520008091C00085FFFCCFFAE0F093C600809127
:10553000CA0D9091CB0D0196B4010E9481CA90933F
:10554000CB0D8093CA0D8091CC0D9091CD0D01961D
:105550009093CD0D8093CC0D8091CC0D9091CD0D7D
:10556000049724F487E898E00E941B4421E06E969B
:105570002FAF6E97FBCECF92DF92EF92FF921F93E9
:10558000CF93DF931092AC108091E710882321F025
:1055900084EE90E10E94AD5610925C121092591266
:1055A00085E3809358120E944084EB0161E0809172
:1055B00058120E94C57588E592E10E94C05760E0CC
:1055C00082E30E94C57561E083E30E94C57561E0D6
:1055D00084E30E94C57561E085E30E94C57561E0C2
:1055E00085E30E94967585E080935A1282E58CBD12
:1055F0001DBC1AE08FEF0E94C5571150D9F720E06B
:1056000030E0A90160E088E592E10E94EB57182F95
:1056100080935B12813049F00E9440846C1B7D0BAB
:10562000613D774060F381E054C02AEA31E040E018
:1056300050E068E088E592E10E94EB5782FF03C0EA
:1056400010935C120EC014E00E94CA5780935B1244
:105650001150D1F78A3A11F082E03BC082E080938A
:105660005C1280915C12823021F0C12CD12C760129
:1056700005C0C12CD12CE12C80E4F82E20E030E0D4
:10568000A90167E388E592E10E94EB57A701960123
:1056900069E288E592E10E94EB5780935B128823D0
:1056A00049F00E9440846C1B7D0B613D774030F3D4
:1056B0008AE00FC080915C12823011F520E030E06A
:1056C000A9016AE388E592E10E94EB57882351F033
:1056D00088E08093591288E592E10E94C057EEE677
:1056E000F8E020C00E94CA57807C803C19F483E017
:1056F00080935C120E94CA570E94CA570E94CA57E0
:1057000088E592E10E94C05710925A1281E09ADA1D
:10571000811145C021C09091C00095FFFCCF8093BE
:10572000C600319684918111F6CFE1E6F8E08491CC
:10573000882341F09091C00095FFFCCF8093C60074
:105740003196F5CF8091C00085FFFCCF8AE0809331
:10575000C60083EC94E073C080E074DA81111FC04E
:10576000EAE5F8E08491882341F09091C00095FF2C
:10577000FCCF8093C6003196F5CFE7E4F8E0849142
:10578000882341F09091C00095FFFCCF8093C60024
:105790003196F5CF8091C00085FFFCCF26C06DE526
:1057A00072E184EE90E10E945A56811122C0EAE52E
:1057B000F8E08491882341F09091C00095FFFCCFE0
:1057C0008093C6003196F5CFE7E3F8E08491882313
:1057D00041F09091C00095FFFCCF8093C6003196B8
:1057E000F5CF8091C00085FFFCCF8AE08093C60092
:1057F00028C081E08093AC10EEE6F8E08491882325
:1058000041F09091C00095FFFCCF8093C600319687
:10581000F5CFECE2F8E08491882341F09091C0004C
:1058200095FFFCCF8093C6003196F5CF8091C000E4
:1058300085FFFCCF8AE08093C60082EE94E00E9450
:1058400087458BE1E4EEF0E1A5E0B1E101900D9236
:105850008A95E1F78091E2109091E3109093041102
:105860008093031180EE90E1909300118093FF10DC
:10587000DF91CF911F91FF90EF90DF90CF9008952F
:105880008091AD129091AE12009731F001979093F4
:10589000AE128093AD1206C081E090E09093AC12FE
:1058A0008093AB128091AB129091AC12892B61F076
:1058B0001092AC121092AB120E9401768CE49DE122
:1058C0009093AE128093AD120895CF93DF93EC01C5
:1058D00065E374E00E94B7748AED9FE00E944F7008
:1058E000892B79F08AED9FE00E942D70682FCE0100
:1058F0000E94AE7362E070E080E090E00E94088455
:10590000EBCFCE01DF91CF9108958F929F92AF920E
:10591000BF92CF92DF92EF92FF920F931F93CF939C
:10592000DF93CDB7DEB7CC52D1400FB6F894DEBFCF
:105930000FBECDBF60E080E20E94C575999AA19A22
:105940002FEF37EA81E6215030408040E1F700C078
:105950000000E091EA0FF091EB0F12E01083E0916C
:10596000E60FF091E70F1082E091E80FF091E90F58
:105970008FEC80831092F20FE091EE0FF091EF0F19
:1059800086E08083E091EC0FF091ED0F80818061E3
:105990008083E091EC0FF091ED0F8081886080832F
:1059A000E091EC0FF091ED0F808180688083E091B1
:1059B000EC0FF091ED0F80818F7D80839FEFA1EE42
:1059C000B4E09150A040B040E1F700C0000085E68F
:1059D00094E00E948745EFEFF9EF20E0E150F040BE
:1059E0002040E1F700C000008BEF94E00E94874563
:1059F0003FEF89EF90E0315080409040E1F700C0E8
:105A000000008BE095E00E948745AFEFB9EFE0E042
:105A1000A150B040E040E1F700C000001093C0008A
:105A20001092C50080E18093C4008091C100806124
:105A30008093C1008091C10088608093C1008091F3
:105A4000C10080688093C100E8E6F9E08491882372
:105A500041F09091C00095FFFCCF8093C600319635
:105A6000F5CF8091C00085FFFCCF8AE08093C6000F
:105A700081E898E0FC012491222341F03091C0009C
:105A800035FFFCCF2093C6003196F5CF24B720FF19
:105A900014C0E0E6F9E03491332341F04091C000B6
:105AA00045FFFCCF3093C6003196F5CF3091C00052
:105AB00035FFFCCF3AE03093C60021FF14C0E0E58B
:105AC000F9E03491332341F04091C00045FFFCCF11
:105AD0003093C6003196F5CF3091C00035FFFCCF32
