:100000000C945E0C0C948F0C0C948F0C0C948F0C35
:100010000C948F0C0C948F0C0C948F0C0C948F0CF4
:100020000C948F0C0C948F0C0C948F0C0C948F0CE4
:100030000C948F0C0C948F0C0C948F0C0C948F0CD4
:100040000C948F0C0C946B430C948F0C0C948F0CB1
:100050000C948F0C0C948F0C0C9442800C94AC7EFE
:100060000C948F0C0C94FA540C948F0C0C948F0CF1
:100070000C948F0C0C948F0C0C948F0C0C948F0C94
:100080000C948F0C0C948F0C0C948F0C0C948F0C84
:100090000C948F0C0C948F0C0C948F0C0C948F0C74
:1000A0000C948F0C0C948F0C0C948F0C0C948F0C64
:1000B0000C948F0C0C948F0C0C948F0C0C948F0C54
:1000C0000C948F0C0C948F0C0C948F0C0C9451632B
:1000D0000C9428630C948F0C0C948F0C0C948F0C44
:1000E0000C948F0C585F5B5F4A5F4E5F545F925F6A
:1000F0005F5F635F695F6D5F715F775F7B5F7F5F8E
:10010000925F855F895F8D5FC87DCD7DD27DDC7D0F
:10011000E67D5F7EF07DF87D007E0A7E147E1E7E89
:100120002D7E377E5F7E417E4B7E557EA780B480DC
:10013000D080DD80F78004811E812081084AD73B72
:100140003BCE016E84BCBFFDC12F3D6C74319ABDA6
:1001500056833DDA3D00C77F11BED9E4BB4C3E91CA
:100160006BAAAABE000000803F05A84CCDB2D44EB9
:10017000B93836A9020C50B9918688083CA6AAAABB
:100180002ABE000000803F004E414E494E4954595E
:10019000494E46CDCCCC3D0AD7233C17B7D1387752
:1001A000CC2B329595E6241FB14F0A000020410068
:1001B00000C84200401C4620BCBE4CCA1B0E5AAEB2
:1001C000C59D7400407A10F35A00A0724E180900C1
:1001D00010A5D4E80000E87648170000E40B5402AC
:1001E0000000CA9A3B000000E1F5050000809698E7
:1001F00000000040420F000000A086010000001037
:100200002700000000E80300000000640000000078
:10021000000A00000000000100000000002C76D859
:1002200088DC674F0823DFC1DFAE59E1B1B796E53F
:10023000E3E453C63AE651997696E8E6C28426EBA3
:10024000898C9B62ED407C6FFCEFBC9C9F40F2BAB6
:10025000A56FA5F490055A2AF75C936B6CF9676D4E
:10026000C11BFCE0E40D47FEF520E6B500D0ED90A3
:100270002E0300943577050080841E080000204E70
:100280000A000000C80C333333330F986E12831109
:1002900041EF8D2114893BE65516CFFEE6DB18D1E0
:1002A000844B381BF77C1D901DA4BBE424203284B2
:1002B000725E228100C9F124ECA1E53D272F005395
:1002C00044207072696E74696E672062797465206B
:1002D000004E6F74205344207072696E74696E67AB
:1002E000002E0044656C6574696F6E206661696CF0
:1002F00065642C2046696C653A200046696C65206F
:1003000064656C657465643A002E006F70656E20DC
:100310006661696C65642C2046696C653A20005002
:100320004944204175746F74756E652066696E6905
:1003300073686564212050757420746865204B7063
:100340002C204B6920616E64204B6420636F6E73B8
:1003500074616E747320696E746F20436F6E66698A
:100360006775726174696F6E2E6800504944204150
:1003700075746F74756E65206661696C65642120A3
:1003800074696D656F75740020403A006F6B20547E
:100390003A006F6B20423A00504944204175746F17
:1003A00074756E65206661696C6564212054656DA5
:1003B000706572617475726520746F6F206869670B
:1003C0006800204B643A2000204B693A2000204B03
:1003D000703A200020436C617369632050494420C7
:1003E000002054753A2000204B753A2000206D61A2
:1003F000783A2000206D696E3A200020643A20008F
:1004000020626961733A2000486F74656E64206FE2
:100410006666736574733A002200556E6B6E6F7773
:100420006E20636F6D6D616E643A202200486F74B8
:10043000656E64206F6666736574733A007A5F6DEB
:10044000696E3A2000795F6D696E3A2000785F6DC1
:1004500061783A2000785F6D696E3A20005A3A0060
:10046000593A0020436F756E7420583A2000453A7F
:10047000005A3A00593A00583A004649524D5741FD
:1004800052455F4E414D453A4D61726C696E205642
:10049000313B20537072696E7465722F6772626CA3
:1004A000206D617368757020666F722067656E36A7
:1004B000204649524D574152455F55524C3A687457
:1004C0007470733A2F2F7777772E67697468756227
:1004D0002E636F6D2F74656E6C6F672050524F5492
:1004E0004F434F4C5F56455253494F4E3A312E3091
:1004F0002E30204D414348494E455F545950453AAE
:10050000544C203344205072696E746572204558F3
:100510005452554445525F434F554E543A320A00A7
:100520002042403A0020403A00202F0020423A006A
:100530002F002054313A002F006F6B20543A0025D1
:1005400069206D696E2C2025692073656300456EF6
:10055000642066696C65206C697374004265676924
:100560006E2066696C65206C697374005072696EE8
:100570007465722073746F70706564206475652093
:10058000746F206572726F72732E204669782074C2
:100590006865206572726F7220616E642075736584
:1005A000204D39393920746F20726573746172740B
:1005B0002E202854656D70657261747572652069AE
:1005C000732072657365742E2053657420697420DE
:1005D00061667465722072657374617274696E67A6
:1005E00029004E6F204C696E65204E756D626572F4
:1005F000207769746820636865636B73756D2C2060
:100600004C617374204C696E653A20004E6F204334
:100610006865636B73756D2077697468206C696EAB
:1006200065206E756D6265722C204C617374204C70
:10063000696E653A2000636865636B73756D206D44
:1006400069736D617463682C204C617374204C690C
:100650006E653A20004C696E65204E756D6265725C
:10066000206973206E6F74204C617374204C696E26
:1006700065204E756D6265722B312C204C61737450
:10068000204C696E653A20004D31313000256920DB
:10069000686F757273202569206D696E7574657356
:1006A00000446F6E65207072696E74696E672066B3
:1006B000696C65005072696E7465722073746F7036
:1006C0007065642064756520746F206572726F7246
:1006D000732E2046697820746865206572726F7287
:1006E00020616E6420757365204D39393920746F2F
:1006F00020726573746172742E202854656D706564
:100700007261747572652069732072657365742EE9
:100710002053657420697420616674657220726567
:100720007374617274696E6729004E6F204C696E34
:1007300065204E756D626572207769746820636804
:1007400065636B73756D2C204C617374204C696EFE
:10075000653A20004E6F20436865636B73756D20AA
:1007600077697468206C696E65206E756D6265725C
:100770002C204C617374204C696E653A20006368CC
:1007800065636B73756D206D69736D617463682C3F
:10079000204C617374204C696E653A20004C696E80
:1007A00065204E756D626572206973206E6F7420CE
:1007B0004C617374204C696E65204E756D62657274
:1007C0002B312C204C617374204C696E653A2000EB
:1007D0004572726F723A004D313130006572726F3E
:1007E000722077726974696E6720746F2066696C15
:1007F0006500205A3A0020593A0020583A00656EA8
:100800006473746F7073206869743A20006563685C
:100810006F3A00446F6E6520736176696E6720667B
:10082000696C652E006F6B004D32390053442063B4
:10083000617264206F6B006F70656E526F6F742011
:100840006661696C656400766F6C756D652E696EA6
:100850006974206661696C6564004572726F723AF2
:1008600000534420696E6974206661696C00656399
:10087000686F3A002200656E717565696E672022A7
:10088000006563686F3A004D3234004D32332025E5
:1008900073006175746F25692E67002020506C61AC
:1008A0006E6E657242756666657242797465733AFA
:1008B00020002046726565204D656D6F72793A2083
:1008C000004A756E202034203230323100436F6D83
:1008D00070696C65643A200054656E6C6F67002027
:1008E0007C20417574686F723A20004A756E202032
:1008F0003420323032312031383A35333A35340011
:10090000204C61737420557064617465643A2000F2
:10091000312E302E3234004D61726C696E20002011
:10092000536F667477617265205265736574002039
:100930005761746368646F67205265736574002043
:1009400042726F776E206F75742052657365740004
:100950002045787465726E616C2052657365740011
:10096000506F7765725570007374617274005365CF
:100970007474696E67732053746F726564005A32C1
:100980003A00457874656E646572204F66667365DB
:10099000743A0059323A00457874656E6465722085
:1009A0004F66667365743A0058323A005365636F58
:1009B0006E64657279204D617820506F733A002023
:1009C00044002049002020204D3330312050005079
:1009D00049442073657474696E67733A00205A0045
:1009E00020590020204D323036205800486F6D6568
:1009F000206F666673657420286D6D293A00204566
:100A000000205A0020580020420020540020204D91
:100A1000323035205300416476616E636564207620
:100A200061726961626C65733A20533D4D696E2055
:100A3000666565647261746520286D6D2F73292C5D
:100A400020543D4D696E2074726176656C20666538
:100A500065647261746520286D6D2F73292C2042A6
:100A60003D6D696E696D756D207365676D656E743A
:100A70002074696D6520286D73292C20583D6D61A7
:100A800078696D756D205859206A65726B20286DE4
:100A90006D2F73292C20205A3D6D6178696D756D1D
:100AA000205A206A65726B20286D6D2F73292C20C7
:100AB00020453D6D6178696D756D2045206A6572D0
:100AC0006B20286D6D2F73290020540020204D329B
:100AD0003034205300416363656C65726174696FE3
:100AE0006E3A20533D616363656C65726174696F32
:100AF0006E2C20543D72657472616374206163636F
:100B0000656C65726174696F6E00204500205A0043
:100B100020590020204D3230312058004D61786935
:100B20006D756D20416363656C65726174696F6E8C
:100B300020286D6D2F7332293A00204500205A007D
:100B400020590020204D3230332058004D61786903
:100B50006D756D2066656564726174657320286DBE
:100B60006D2F73293A00204500205A00205900209B
:100B7000204D3932205800537465707320706572AF
:100B800020756E69743A0053746F726564207365E2
:100B90007474696E677320726574726965766564D2
:100BA0000048617264636F646564204465666175C2
:100BB0006C742053657474696E6773204C6F616444
:100BC0006564006563686F3A004E65772056616C16
:100BD000756520457272200025730057726974692B
:100BE0006E6720746F2066696C653A20002E006F76
:100BF00070656E206661696C65642C2046696C6561
:100C00003A20002E006F70656E206661696C656425
:100C10002C2046696C653A200046696C6520736536
:100C20006C6563746564002053697A653A200046F8
:100C3000696C65206F70656E65643A20002E006FE8
:100C400070656E206661696C65642C2046696C6510
:100C50003A200024F4D43050C38E20C2A240178220
:100C60008B7011127A910D816CD90AA861E108C7C5
:100C7000586607615143061E4B5D05C145A7041A1E
:100C8000411104093D9803713931034036DB026597
:100C9000339102D4305402802E1D02632CEE017574
:100CA0002AC501B028A001102781018F2564012BDE
:100CB000244B01E0223401AC211F018D200D018065
:100CC0001FFC00841EED00971DDF00B81CD200E65B
:100CD0001BC600201BBC00641AB200B219A8000A8F
:100CE00019A0006A189900D117910040178B00B520
:100CF00016840031167E00B31579003A157300C7CB
:100D0000146F0058146A00EE136600881363002500
:100D1000135E00C7125B006C12570015125400C11D
:100D200011510070114F0021114B00D61049008D58
:100D30001047004610440002104200C00F400080DF
:100D40000F3E00420F3C00060F3B00CB0E380093D5
:100D50000E37005C0E3500270E3400F30D3200C153
:100D60000D3100900D3000600D2E00320D2D00056C
:100D70000D2C00D90C2B00AE0C2900850C29005C31
:100D80000C2700350C27000E0C2600E80B2400C4AD
:100D90000B2400A00B23007D0B23005A0B210039EC
:100DA0000B2100180B2000F80A1F00D90A1E00BBF7
:100DB0000A1E009D0A1D00800A1D00630A1C0047D0
:100DC0000A1B002C0A1B00110A1A00F7091A00DD81
:100DD000091900C4091900AB091900920917007B11
:100DE000091800630917004C09160036091600207F
:100DF0000916000A091500F5081500E0081400CCD2
:100E0000081400B8081400A4081400900813007D0A
:100E10000812006B0813005808120046081200342C
:100E2000081100230811001208110001081100F038
:100E3000071000E0071000D0071000C0071000B036
:100E4000070F00A107100091070E0083070F007421
:100E5000070F0065070E0057070E0049070E003BFD
:100E6000070D002E070E0020070D0013070D0006CA
:100E7000070D00F9060C00ED060D00E0060C00D48D
:100E8000060C00C8060C00BC060C00B0060C00A442
:100E9000060B0099060C008D060B0082060B0077EE
:100EA000060B006C060B0061060A0057060B004C8F
:100EB000060A0042060A0038060A002E060A002426
:100EC000060A001A060A001006090007060A00FDB5
:100ED000050900F4050900EB050900E2050900D940
:100EE000050900D0050900C7050900BE050900B5C0
:100EF000050800AD050800A50509009C050800943B
:100F00000508008C050800840508007C05080074AD
:100F10000508006C050700650508005D050700561B
:100F20000508004E05070047050700400508003882
:100F3000050700310507002A050700230507001CE7
:100F4000050600160507000F050700080506000244
:100F5000050700FB040600F5040700EE040600E8A0
:100F6000040600E2040700DB040600D5040600CFF7
:100F7000040600C9040600C3040600BD040600B749
:100F8000040600B1040500AC040600A6040600A097
:100F90000405009B04060095040500900406008AE1
:100FA00004050085040500800406007A0405007528
:100FB000040500700405006B04050066040500616B
:100FC0000405005C04050057040500520405004DAB
:100FD00004050048040500430405003E0404003AEB
:100FE00004050035040500300404002C0405002726
:100FF000040400230405001E0404001A040400165F
:10100000040500110404000D040400090405000493
:1010100004040000040400FC030400F8030400F4CA
:10102000030400F0030400EC030400E8030400E4FC
:10103000030400E0030400DC030400D8030400D42C
:10104000030400D0030400CC030400C8030300C55C
:1010500003030024F404D9201BC40C5C0E9804C4C0
:10106000095F0265077101F405F900FB04B300484C
:10107000048700C10369005803550003034500BEFF
:10108000023A008402310053022A0029022500049A
:10109000022000E4011C00C8011900AF01170098EC
:1010A000011400840113007101100061011000514E
:1010B000010E0043010D0036010B002B010B002037
:1010C000010B00150109000C01090003010800FBD8
:1010D000000800F3000800EB000700E4000600DE53
:1010E000000600D8000600D2000600CC000500C7AC
:1010F000000500C2000500BD000400B9000400B5F1
:10110000000400B1000400AD000400A9000400A523
:10111000000300A20003009F0004009B000300984E
:101120000003009500020093000300900003008D6F
:101130000002008B00030088000200860002008489
:10114000000300810002007F0002007D0002007B9E
:1011500000020079000200770001007600020074AE
:1011600000020072000100710002006F0002006DB9
:101170000001006C0002006A0001006900020067C3
:1011800000010066000100650001006400020062C9
:1011900000010061000100600001005F0002005DCD
:1011A0000001005C0001005B0001005A00010059D1
:1011B00000010058000100570001005600010055D1
:1011C00000010054000100530000005300010052D0
:1011D00000010051000100500001004F0001004ECD
:1011E0000000004E0001004D0001004C0001004BCA
:1011F0000000004B0001004A0001004900010048C6
:1012000000000048000100470001004600000046C1
:1012100000010045000000450001004400010043BA
:1012200000000043000100420000004200010041B4
:1012300000000041000100400001003F0000003FAD
:101240000001003E0000003E0001003D0000003DA6
:101250000001003C0000003C0000003C0001003B9D
:101260000000003B0001003A0000003A0001003994
:10127000000000390001003800000038000000388C
:101280000001003700000037000100360000003682
:101290000000003600010035000000350000003578
:1012A000000100340000003400000034000100336D
:1012B0000000003300000033000100320000003263
:1012C0000000003200010031000000310000003158
:1012D0000001003000000030000000300001002F4D
:1012E0000000002F0000002F0000002F0001002E42
:1012F0000000002E0000002E0001002D0000002D37
:101300000000002D0000002D0001002C0000002C2A
:101310000000002C0000002C0001002B0000002B1E
:101320000000002B0000002B0001002A0000002A12
:101330000000002A0000002A000100290000002906
:1013400000000029000000290000002900010028F9
:1013500000000028000000280000002800000028ED
:1013600000010027000000270000002700000027E0
:1013700000000027000100260000002600000026D3
:1013800000000026000000260001002500000025C6
:1013900000000025000000250000002500000025B9
:1013A00000010024000000240000002400000024AC
:1013B000000000240001002300000023000000239F
:1013C0000000002300000023000000230000002391
:1013D0000001002200000022000000220000002284
:1013E0000000002200000022000100210000002176
:1013F0000000002100000021000000210000002169
:10140000000000210001002000000020000000205A
:10141000000000200000002000000020000000204C
:10142000000000200001001F0000001F0000001F3E
:101430000000001F0000001F0000001F0000001F30
:101440000001001E0000001E0000001E0000001E23
:101450000000007C3C3E5E2B3D3F2F5B5D3B2C2A19
:10146000225C0000002100240027002A002D00300B
:1014700000330001010000040107010A01000022FD
:1014800000250028002B002E00310034000201004E
:1014900000050108010B010000200023002600299F
:1014A000002C002F0032000001000003010601099A
:1014B0000105050505070508080808020202020AD9
:1014C0000A080804040404010101010101010103E7
:1014D00003030303030303040707070C0C0C0C0CA2
:1014E0000C0C0C0202020206060606060606060B95
:1014F0000B0B0B0B0B0B0B0102102020080810200C
:10150000401020408002010201080402010102048F
:10151000081020408080402010080402018004024E
:1015200001804020100804020108040201010204A5
:101530000810204080010204081020408000000AAA
:101540000B02090C0D0E0807030401000000000047
:10155000000000000000000000000000000000008B
:101560000000000000000000001211100000000048
:10157000000000000000000000000000000000006B
:1015800000000020423A0020453A00543A0020571B
:101590003A0020453A00543A006F6B003A204578F3
:1015A000747275646572207377697463686564200A
:1015B0006F66662E204D415854454D502074726917
:1015C0006767657265642021003A204578747275FA
:1015D000646572207377697463686564206F6666FA
:1015E0002E204D494E54454D5020747269676765F1
:1015F00072656420210054656D7065726174757246
:10160000652068656174656420626564207377692C
:101610007463686564206F66662E204D415854459A
:101620004D502074726967676572656420212100DE
:1016300054656D706572617475726520686561745A
:1016400065642062656420737769746368656420EB
:101650006F66662E204D494E54454D502074726978
:10166000676765726564202121004572726F723A66
:10167000005072696E7465722068616C7465642EC6
:10168000206B696C6C28292063616C6C6564210097
:101690005072696E7465722073746F707065642027
:1016A00064756520746F206572726F72732E2046A8
:1016B000697820746865206572726F7220616E644B
:1016C00020757365204D39393920746F2072657328
:1016D000746172742E202854656D70657261747522
:1016E00072652069732072657365742E205365746A
:1016F000206974206166746572207265737461720A
:1017000074696E6729004732382058590000004834
:10171000C200000000000000002200656E717565C7
:10172000696E672022000000404000004040000039
:10173000003F20746F6F206C6F6E67206578747245
:101740007573696F6E2070726576656E746564007E
:1017500020636F6C6420657874727573696F6E2096
:1017600070726576656E746564006563686F3A00D3
:101770000040174400001B4400801844000048C289
:1017800000000000000000006563686F3A00202D33
:1017900020496E76616C6964206578747275646541
:1017A00072206E756D62657220210070012C0190AF
:1017B000012701B0012201C0011D01F00118011033
:1017C00002130130020E016002090190020401C0FF
:1017D00002FF000003FA004003F5008003F000D090
:1017E00003EB002004E6007004E100E004DC0040AC
:1017F00005D700C005D2004006CD00D006C8008045
:1018000007C3003008BE00F008B900C009B400B03A
:101810000AAF00B00BAA00D00CA500000EA000502B
:101820000F9B00C01096005012910000148C00C055
:10183000158700B0178200B0197D00D01B7800001A
:101840001E730040206E0090226900F02464004066
:10185000275F0090295A00E02B5500102E500020E1
:10186000304B0010324600E033410090353C001010
:1018700037370070383200A0392D00B03A2800A068
:101880003B2300603C1E00103D1900903D140010E9
:101890003E0F00703E0A00C03E0500003F0000FF02
:1018A000FFFF00C0234400001B4400801844526521
:1018B00073656E643A200000D4BAA7BA11241FBE23
:1018C000CFEFD1E2DEBFCDBF00E00CBF1BE0A0E058
:1018D000B2E0EEE2F9E901E00BBF02C007900D9221
:1018E000A43FB107D9F72AE1A4EFBBE001C01D92E4
:1018F000A534B207E1F71CE0CDE5DCE000E006C06E
:1019000021970109802FFE010E9400CBCC35D10721
:1019100080E00807A9F70E9422B10C9486CC0C94B1
:1019200000002F923F924F925F926F927F928F9220
:101930009F92AF92BF92CF92DF92EF92FF920F935E
:101940001F93CF93DF93CDB7DEB7C557D1090FB63D
:10195000F894DEBF0FBECDBF2DB73EB7E2963FAFC6
:101960002EAFE2978091B90C882341F00E943C3D54
:1019700010922711109226111092B90C87E40E9440
:1019800025A1782E882309F48CC00E944BA10E94C7
:101990008DC86430710509F474C0E4F462307105D7
:1019A00009F45CC00CF062C077FF02C00C942D22D9
:1019B000F0E8AF2EFFE4BF2EF3ECCF2EF7ECDF2ED6
:1019C00086017501A6019501C601B5010E94774007
:1019D0000C942D226A35710509F45AC02CF56C312E
:1019E000710511F00C942D226FE672E183E89AE301
:1019F0000E9409A66FE672E183E89AE30E9409A6B5
:101A00006FE672E183E89AE30E9409A66FE672E14D
:101A100083E89AE30E9409A660E070E080E090E02D
:101A20000E946DAC0C942D226B357105A9F16C35BB
:101A3000710511F00C942D22E0E8AE2EEFE4BE2EDD
:101A4000E3ECCE2EE7ECDE2E86017501A6019501B2
:101A5000C601B5010E94D1A40C942D22809142139D
:101A6000811104C00E94FD7C81E007C08091421377
:101A7000811107C00E94FD7C80E00E94A4720C943A
:101A8000FF2560E070E0CB010E9409A60C942D2296
:101A900010923D130C942D2281E080933D130C9401
:101AA0002D228DE40E9425A1882311F40C94DF21BE
:101AB0000E944BA10E948DC86B3C710511F40C94DF
:101AC000C7180CF0F7C06135710511F40C94FA15C4
:101AD0000CF054C06831710509F436C43CF563312B
:101AE000710509F4F4C194F46131710509F4D8C1A8
:101AF00014F00C9409166230710510F00C942D222C
:101B000081E090E00E9424900C942D2265317105B3
:101B100009F4F3C30CF49EC36631710509F4F1C3F3
:101B20006731710509F4F5C30C942D226E317105EE
:101B300009F4BEC484F46A31710509F421C40CF4BB
:101B400019C46B31710509F429C46C31710509F4AC
:101B500079C40C942D226032710509F41BC60CF473
:101B600091C66A32710509F4EBC66035710511F052
:101B70000C942D22999AA19A0C942D226D36710500
:101B800009F4DCC70CF050C06C35710511F40C94ED
:101B900043164CF56335710511F40C94041614F4D6
:101BA0000C9400166435710511F40C940916653512
:101BB000710511F00C942D2283E50E9425A10E944D
:101BC0004BA120E030E04AE754E40E94B3BB0E94FE
:101BD00093C86093DC187093DD188093DE1890939F
:101BE000DF180C942D226936710509F4D5C66CF402
:101BF0006836710511F00C942D226FEF7FEF8FEF97
:101C00009FEF0E949B6E0C942D226A36710509F499
:101C1000A1C76B36710511F00C942D2210929A1900
:101C2000109299190C942D226837710511F40C94B7
:101C30000118ECF46337710511F40C9400174CF49F
:101C40006237710511F00C942D22E7E7F4E00C9453
:101C50002D176537710511F40C940F17673771054F
:101C600011F00C942D22EDEDF2E00C940C186C3870
:101C7000710509F480C654F46937710511F00C94AC
:101C80002D2281E00E94EFAB0C942D226E3B71055A
:101C900009F45AC7693C710511F00C942D229BEA96
:101CA000E92E93E1F92E04EC12E024E0D22ED00EBE
:101CB0000C94AE186A3E33E0730711F40C94D51FF0
:101CC0000CF07CC06F3251E0750711F40C94461B88
:101CD0009CF56C3D710511F40C944C1AA4F46D3C08
:101CE000710511F40C94071914F40C94E5186E3C6A
:101CF000710511F40C9467196A3D710511F40C9487
:101D000085190C942D22623E710509F4B5C53CF489
:101D10006D3D710511F40C945B1A0C942D226D32FB
:101D200091E0790711F40C946A1A6E32714011F443
:101D30000C94321B0C942D22673FB1E07B0711F409
:101D40000C94B81E0CF5643FF1E07F0711F40C947D
:101D5000B21E4CF46039714011F00C942D220E9497
:101D600060AC0C942D22653F41E0740711F40C9493
:101D7000B51E663F714011F00C942D220E9423384D
:101D80000E9463550C942D22603A83E0780709F491
:101D90003AC53CF46D35724011F40C94BB1E0C94A2
:101DA0002D22673EB3E07B0711F40C94C721693EF6
:101DB000734011F40C94B01F0C942D226B3FF3E090
:101DC0007F0711F40C940A219CF5653F33E07307FB
:101DD00011F40C946620B4F46C3E53E0750711F4D2
:101DE0000C94DD1F14F40C94DA1F633F93E0790721
:101DF00011F40C94F01F643F734011F40C942B20E9
:101E00000C942D22673FB3E07B0711F40C94BC20A7
:101E100014F40C94A120683FF3E07F0711F40C94B4
:101E2000D720693F734011F40C94EF200C942D22BD
:101E3000673034E0730711F40C949A21DCF46E3FA0
:101E400053E0750711F40C9434213CF46D3F73405A
:101E500011F40C942E210C942D226F3FA3E07A07ED
:101E600011F40C9464216115744011F40C947C21DC
:101E70000C942D226930E4E07E0711F40C94972134
:101E800014F40C9494216A3024E0720711F40C9439
:101E90005F216031744011F40C949F210C942D2229
:101EA0005F9847988A989FB7F894809108018E7F31
:101EB000809308019FBF9FB7F894809108018B7FA2
:101EC000809308019FBF8D9812980C942D2283E572
:101ED0000E9425A1882341F00E944BA10E948DC839
:101EE0007093110C6093100C8DE791E190937C112D
:101EF00080937B1181E090E090931C1380931B13DF
:101F000010921E1310921D1340E050E0BA0181E8B8
:101F100091E10E943B4D80917B1190917C112BE1CE
:101F2000FC013496DE01159601900D922A95E1F799
:101F3000DC0112968D919C9113979C838B838CEB83
:101F400092E09A838983BE016F5F7F4F8BE394E0B9
:101F50000E94B53BCE0101960E94C559D0901D1339
:101F6000AD2CB0901E1380918411882309F446C0D3
:101F70008250823030F48FE28093291110922A111E
:101F80003DC060918D1170918E1180918F11909153
:101F9000901140E00E941D5A882381F120919111F7
:101FA000B0E22B9F90011124C901865B914F892BD0
:101FB00029F180E090E0E0E05EE2DC01A20FB31FD7
:101FC000A65BB14F4C91403289F08830910539F4CD
:101FD000AE2FB0E0AD5DBE4E16965C93EF5FAE2FB8
:101FE000B0E0AD5DBE4E16964C93EF5F01968B3020
:101FF000910519F7F0E0ED5DFE4E16828091100C10
:102000009091110C892B59F486EF92E00E94515562
:1020100081E093E00E94515501E010E007C08DE09F
:1020200093E00E94515588E193E0F4CF84E293E07D
:102030000E944F554AE0B801CE0101960E949D6270
:1020400089819A810E944F55CE0101960E943D627E
:1020500085E499E00E944F550E94435583E393E045
:102060000E944F554AE0B801CE0101960E949D6240
:1020700089819A810E944F55CE0101960E943D624E
:1020800085E499E00E944F550E9443550F5F1F4F12
:102090000730110559F6E12CF12C00E010E06DE756
:1020A000662E61E1762EDA942296DFAE22977CEBE3
:1020B000872E72E0972EEA14FB0409F492C0709206
:1020C0007C1160927B11E2E0F0E0F0931C13E0934E
:1020D0001B1322968FAD22978E1990E090931E13BA
:1020E00080931D1340E050E0BA0181E891E10E9425
:1020F0003B4D80917B1190917C11FC013496DE0167
:1021000015962BE101900D922A95E1F7DC011296CC
:102110008D919C9113979C838B839A828982BE01B7
:102120006F5F7F4F8BE394E00E94B53BCE01019639
:102130000E94C55969E271E1CE01CB960E94D0623E
:1021400080915111811145C021968EAD9FAD21978F
:10215000892B09F43EC0BE01655C7F4FCE0101961C
:102160000E94C8622DB63EB64D815E812A01F1E023
:102170004F1A51082DB73EB7241B350B0FB6F894F4
:102180003EBF0FBE2DBF8DB79EB701966C014115A6
:10219000510541F0C114D10429F0B601CE010196D8
:1021A0000E94923BF601CF018C199D09841595057B
:1021B00014F40C943022DD24D3940FB6F8943EBE70
:1021C0000FBE2DBECE0101960E943D62D1100C942F
:1021D0003822CE01CB960E943D625FEFE51AF50AE8
:1021E0006ACF82E493E00E944F556091100C709189
:1021F000110C4AE0CE0101960E949D6289819A816C
:102200000E944F55CE0101960E943D620E944355A7
:102210008091100C9091110C019646E0489F90011E
:10222000499F300D11242017310754F08BE593E0BE
:102230000E94515588E693E00E9451550C942D223E
:1022400086E793E00E94515583E893E00E94515540
:102250000C942D22ECE5F5E08491882341F09091D7
:10226000C00095FFFCCF8093C6003196F5CF8091DA
:10227000C00085FFFCCF8AE08093C60010921C133B
:1022800010921B1340E050E0BA0180E691E10E94F9
:102290003B4D8BE1E0E6F1E1DE01159601900D92F8
:1022A0008A95E1F780915E1190915F119C838B83F9
:1022B0008CEB92E09A838983BE016F5F7F4F8BE343
:1022C00094E00E94B53BCE0101960E94C559EEE410
:1022D000F5E08491882341F09091C00095FFFCCFF8
:1022E0008093C6003196F5CF8091C00085FFFCCF6A
:1022F0008AE08093C6000C942D220E94BB2A0C9485
:102300002D221092271110922611109228110C9450
:102310002D22E090A50CF090A60C84E0E80EF11CB4
:102320006AE270E0C7010E9434CC009719F0FC010A
:102330003197108200E010E0980141E0B701C70139
:102340000E94493D0C942D2280912811882331F060
:1023500081E090E090932711809326110E94A07E47
:102360006093120C7093130C8093140C9093150CC3
:102370000C942D2281E090E00E9424900C942D2258
:1023800080912811882311F40C942D2283E50E945A
:1023900025A181110C94E1220C942D228091281109
:1023A000882309F439C0EFEBF2E08491882341F0EF
:1023B0009091C00095FFFCCF8093C6003196F5CF79
:1023C000609154117091551180915611909157114F
:1023D0004AE00E948227EDEBF2E08491882341F0ED
:1023E0009091C00095FFFCCF8093C6003196F5CF49
:1023F000609158117091591180915A1190915B110F
:102400004AE00E9482278091C00085FFFCCF8AE0CD
:102410008093C6000C942D22E1EDF2E08491882394
:1024200041F09091C00095FFFCCF8093C60031969B
:10243000F5CF8091C00085FFFCCF8AE08093C60075
:102440000C942D228091A50C9091A60C6AE270E06C
:1024500004960E9434CC8C01892BE1F02091BC0CB5
:102460003091BD0C40E6429FC001439F900D112466
:102470006EE470E08A53934F0E9434CC60E270E0C7
:102480000E9434CC01969093A60C8093A50CF80181
:10249000319710828091A50C9091A60C049600E0D3
:1024A00010E0980140E0BC010E94493D0C942D22AF
:1024B00080912811882311F40C942D220E943C3D18
:1024C0008091A50C9091A60C6AE270E004960E949F
:1024D00034CC8C01892BE1F02091BC0C3091BD0CE7
:1024E00040E6429FC001439F900D11246EE470E0CE
:1024F0008A53934F0E9434CC60E270E00E9434CC47
:1025000001969093A60C8093A50CF8013197108248
:102510000091A50C1091A60C480194E0890E911C25
:1025200080912811882311F40C942D228BEF92E1D5
:102530000E94244E1092271110922611DE0111964E
:102540007D01CD010E94CD598CE591E190937C11E4
:1025500080937B11F80184818F3209F08BC06FE288
:1025600070E0C4010E9434CC8C010F5F1F4F5AE011
:10257000652E0115110509F483C06FE270E0C801F2
:102580000E9434CC6C01009709F47BC0081719072E
:1025900008F077C05C01A01AB10AA501B801CE010C
:1025A00080960E945DCCE0E2F0E0EC0FFD1FEA0DAA
:1025B000FB1D10828E01005E1F4FF8018191882360
:1025C00039F09091C00095FFFCCF8093C600F6CF04
:1025D0008091C00085FFFCCF6092C60060917B11A6
:1025E00070917C116115710511F06C5F7F4F21E0D6
:1025F000AE01405E5F4FCE0105960E94A853811147
:1026000031C0EBE0F3E08491882371F09091C00039
:1026100095FFFCCF8093C6003196F5CF9091C00016
:1026200095FFFCCF8093C600D8018D918D0181115B
:10263000F5CFE9E0F3E08491882341F09091C00068
:1026400095FFFCCF8093C6003196F5CF8091C000F6
:1026500085FFFCCF8AE08093C600C7010E94C55960
:102660000C942D22F0927C11E0927B1186010F5F79
:102670001F4F7FCF8DE791E190937C1180937B1169
:10268000840160917B1170917C116115710511F0CD
:102690006C5F7F4F18A21BA222E0A801CE0180969A
:1026A0000E94A8538823F1F0CE0180960E94B8289A
:1026B0008823C1F06CA57DA58EA59FA541E00E9451
:1026C0001D5A882379F0E8A9B0E2EB9FF0011124AC
:1026D000E65BF14F309731F085EE80831BA20E94BC
:1026E000DD59782ECE0180960E94324F772009F175
:1026F000EBEFF2E08491882341F09091C00095FFC8
:10270000FCCF8093C6003196F5CFF80181918823E4
:1027100039F09091C00095FFFCCF8093C600F6CFB2
:102720001092541110925511109256111092571187
:102730002CC0E3EEF2E08491882341F09091C00038
:1027400095FFFCCF8093C6003196F5CFF8018191BB
:10275000882339F09091C00095FFFCCF8093C6008C
:10276000F6CFE1EEF2E08491882341F09091C00031
:1027700095FFFCCF8093C6003196F5CF8091C000C5
:1027800085FFFCCF8AE08093C600C7010E94C5592F
:102790000C942D228091261190912711019721F4FC
:1027A0000E9460AC0E943C3DE090A50CF090A60C0D
:1027B000E4E0EE0EF11C6AE270E0C7010E9434CC46
:1027C000009719F0FC013197108200E010E09801A9
:1027D00041E0B701C7010E94493D8091281188233B
:1027E00031F081E090E090932711809326110E94B0
:1027F000A07E6093120C7093130C8093140C909332
:10280000150C0C942D228091A50C9091A60C6AE2D7
:1028100070E005960E9434CC8C01892BE1F0209168
:10282000BC0C3091BD0C40E6429FC001439F900D0F
:1028300011246EE470E08A53934F0E9434CC60E21E
:1028400070E00E9434CC01969093A60C8093A50C66
:10285000F801319710828091A50C9091A60C0596F5
:1028600021E02093251100E010E0980140E0BC0138
:102870000E94493D0C942D2281E090E00E9424901A
:102880000C942D220E94A07E6093160C7093170C5E
:102890008093180C9093190C0091120C1091130C4A
:1028A0002091140C3091150C601B710B820B930B53
:1028B00028EE33E040E050E00E94F2C6CA01B901C0
:1028C0002CE330E040E050E00E94F2C67F936F932B
:1028D0003F932F938FE395E09F938F938E010F5F2C
:1028E0001F4F1F930F930E9427C1E1E8F8E08491E6
:1028F0002DB73EB7285F3F4F0FB6F8943EBF0FBECF
:102900002DBF882349F09091C00095FFFCCF8093A4
:10291000C60031968491F5CFF8018191882339F072
:102920009091C00095FFFCCF8093C600F6CF8091B8
:10293000C00085FFFCCF8AE08093C6000C942D2256
:1029400083E50E9425A1882311F40C942D220E9476
:102950004BA10E948DC88B0180E50E9425A1882390
:1029600011F40C942D220F3F110509F010F40C9472
:10297000F2220C942D2283E50E9425A1882311F4D4
:102980000C942D220E944BA10E948DC87093BB0C09
:102990006093BA0C0C942D2289E690E00E94B791C6
:1029A00081110C942D22E9E3F5E08491882341F014
:1029B0009091C00095FFFCCF8093C6003196F5CF73
:1029C0006091021970910319809104199091051971
:1029D00041E00E940928E7E3F5E08491882341F073
:1029E0009091C00095FFFCCF8093C6003196F5CF43
:1029F00060912F1370913013072E000C880B990BE8
:102A00000E945CC141E00E940928E2E3F5E0849164
:102A1000882341F09091C00095FFFCCF8093C600C1
:102A20003196F5CF609106197091071980910819B8
:102A30009091091941E00E940928E0E3F5E08491B2
:102A4000882341F09091C00095FFFCCF8093C60091
:102A50003196F5CF6091311370913213072E000C2F
:102A6000880B990B0E945CC141E00E940928ECE2AE
:102A7000F5E08491882341F09091C00095FFFCCF50
:102A80008093C6003196F5CF6091F2187091F318DB
:102A90008091F4189091F51841E00E940928E9E22C
:102AA000F5E08491882341F09091C00095FFFCCF20
:102AB0008093C6003196F5CF6091BA0C7091BB0C33
:102AC000072E000C880B990B0E945CC141E00E940C
:102AD0000928E5E2F5E08491882341F09091C00057
:102AE00095FFFCCF8093C6003196F5CFE091481951
:102AF000F0E0EE5EF64E608170E080E090E00E94D3
:102B0000F727E0E2F5E08491882341F09091C0003E
:102B100095FFFCCF8093C6003196F5CF60911119D7
:102B200070E080E090E00E94F7278091C00085FF70
:102B3000FCCF8AE08093C6000C94FF258FEF9FEFB7
:102B40000E94166A0C942D228FEF9FEF0E940D6F4A
:102B50000C942D2282E50E9425A1811105C020E060
:102B600030E040E85FE30BC00E944BA10E948DC89B
:102B700061307105A1F723E333E343E250E483E5D9
:102B8000E3962FAFE397E4963FAFE497E5964FAF18
:102B9000E597E6965FAFE6970E9425A1882311F19D
:102BA0000E944BA1E3962FADE397E4963FADE497E7
:102BB000E5964FADE597E6965FADE6970E94B3BB0D
:102BC0000E948DC86F3F710519F014F06FEF70E02F
:102BD00077FF02C060E070E070939A1960939919D2
:102BE0000C942D228FEF90E090939A19809399196D
:102BF0000C942D2261E080E00E94FCA00C942D2218
:102C0000109241130C942D2281E0809341130C9477
:102C10002D2283E50E9425A18823A1F00E944BA1CB
:102C200020E030E04AE754E40E94B3BB0E9493C81E
:102C30006093290270932A0280932B0290932C02B6
:102C40000C942D2288E50E9425A181110C94F52277
:102C500089E50E9425A181110C94F5228AE50E9444
:102C600025A181110C94F52285E40E9425A18111F2
:102C70000C94F5220E9460AC8D9A129A81E00E9419
:102C80001FAC0C942D2282E50E9425A1882329F0F7
:102C90000E944BA14B015C0106C0812C912C40E8A5
:102CA000A42E4FE3B42E44EC52E026965FAF4EAF15
:102CB000269703E713E185E699E124969FAF8EAF4F
:102CC00024973BE9232E33E1332E22961FAE229721
:102CD0002696AEADBFAD26978D912696BFAFAEAF0F
:102CE00026970E9425A1882309F46DC02296BFADC6
:102CF0002297B33009F05CC00E944BA1A50194015A
:102D00000E941CC82B013C0120E030E040EA51E465
:102D10000E9456C187FF45C0A3019201F80160815E
:102D20007181828193810E941CC86B017C019B018F
:102D3000AC01609151197091521980915319909181
:102D400054190E94B3BB6093511970935219809328
:102D5000531990935419A70196012496AEADBFADB7
:102D600024976D917D918D919C910E94B3BB249687
:102D7000EEADFFAD24976083718382839383D1018D
:102D80006D917D918D919C910E945AC1A7019601F0
:102D90000E94B3BB0E9493C8F10160837183828358
:102DA0009383D8014D925D926D927C9213970BC0E4
:102DB0000E944BA1A50194010E941CC8F8016083E8
:102DC0007183828393832296FFAD2297FF5F2296C1
:102DD000FFAF22970C5F1F4F24962EAD3FAD249777
:102DE0002C5F3F4F24963FAF2EAF249734E0230E45
:102DF000311CF43009F06CCF0E94F0360C942D2277
:102E0000EAE7F4E08491882311F40C942D22909148
:102E1000C00095FFFCCF8093C6003196F3CF0091A0
:102E2000A50C1091A60C0B5F1F4F6AE270E0C80161
:102E30000E9434CC009719F0FC0131971082B80140
:102E400081E091E10E94DA610C942D229091C00002
:102E500095FFFCCF8093C600319684918111F6CF07
:102E600060915313709154138091551390915613A0
:102E700042E00E940928E4E7F4E08491882341F0CD
:102E80009091C00095FFFCCF8093C6003196F5CF9E
:102E900060915713709158138091591390915A1360
:102EA00042E00E940928E1E7F4E08491882341F0A0
:102EB0009091C00095FFFCCF8093C6003196F5CF6E
:102EC00060915B1370915C1380915D1390915E1320
:102ED00042E00E940928EEE6F4E08491882341F064
:102EE0009091C00095FFFCCF8093C6003196F5CF3E
:102EF00060915F13709160138091611390916213E0
:102F000042E00E940928E3E6F4E08491882341F03E
:102F10009091C00095FFFCCF8093C6003196F5CF0D
:102F20002FB7F89460914313709144138091451327
:102F3000909146132FBF0E945CC120917313309172
:102F4000741340917513509176130E941CC842E08F
:102F50000E940928E0E6F4E08491882341F09091F2
:102F6000C00095FFFCCF8093C6003196F5CF2FB7F8
:102F7000F894609147137091481380914913909190
:102F80004A132FBF0E945CC12091771330917813B0
:102F90004091791350917A130E941CC842E00E941C
:102FA0000928EDE5F4E08491882341F09091C00078
:102FB00095FFFCCF8093C6003196F5CF2FB7F894DC
:102FC00060914B1370914C1380914D1390914E135F
:102FD0002FBF0E945CC120917B1330917C134091E4
:102FE0007D1350917E130E941CC842E00E94092864
:102FF0008091C00085FFFCCF8AE08093C6000C94CE
:103000002D2280E00E94EFAB0C942D229091C00005
:1030100095FFFCCF8093C60081918111F7CF8091FD
:10302000C00085FFFCCF8AE08093C600E5E5F4E0B0
:103030008491882341F09091C00095FFFCCF80934C
:10304000C6003196F5CF659B03C0EEECF2E009C0F7
:10305000E3EDF2E006C09091C00095FFFCCF8093B5
:10306000C60081918111F7CF8091C00085FFFCCF10
:103070008AE08093C600EDE4F4E08491882341F077
:103080009091C00095FFFCCF8093C6003196F5CF9C
:10309000649B03C0EEECF2E009C0E3EDF2E006C091
:1030A0009091C00095FFFCCF8093C6008191811163
:1030B000F7CF8091C00085FFFCCF8AE08093C600E7
:1030C000E5E4F4E08491882341F09091C00095FFFD
:1030D000FCCF8093C6003196F5CF8091030181FD2E
:1030E00003C0EEECF2E009C0E3EDF2E006C090911F
:1030F000C00095FFFCCF8093C60081918111F7CF6E
:103100008091C00085FFFCCF8AE08093C600EDE38C
:10311000F4E08491882341F09091C00095FFFCCFAA
:103120008093C6003196F5CF4B9B03C0EEECF2E0E6
:1031300009C0E3EDF2E006C09091C00095FFFCCF1E
:103140008093C60081918111F7CF8091C00085FFE7
:10315000FCCF8AE08093C6000C942D22D8018D917B
:103160008D010E9425A1882349F00E944BA10E9455
:1031700093C8F7016083718382839383F4E0EF0E39
:10318000F11CD012EBCF0E94504C0C942D2215E66E
:10319000E12E19E1F12E04EC12E084E0D82ED00EDD
:1031A000D8018D918D010E9425A1882339F00E94BC
:1031B0004BA1F7016083718382839383F4E0EF0E68
:1031C000F11CD012EDCF0C942D2283E50E9425A195
:1031D000882351F00E944BA160935D1970935E1992
:1031E00080935F199093601984E50E9425A188233C
:1031F00011F40C942D220E944BA1609361197093DD
:10320000621980936319909364190C942D2283E5BD
:103210000E9425A1882351F00E944BA16093791947
:1032200070937A1980937B1990937C1984E50E949E
:1032300025A1882351F00E944BA160937D197093C2
:103240007E1980937F199093801982E40E9425A1B2
:10325000882361F00E944BA10E9493C86093751966
:1032600070937619809377199093781988E50E9466
:1032700025A1882351F00E944BA1609359197093A6
:103280005A1980935B1990935C198AE50E9425A1D5
:10329000882351F00E944BA16093551970935619E1
:1032A000809357199093581985E40E9425A188238B
:1032B00011F40C942D220E944BA16093511970932C
:1032C000521980935319909354190C942D22AFEFF7
:1032D000EA2EA9E1FA2E04EC12E0B3E0DB2ED00EC8
:1032E000D8018D918D010E9425A1882339F00E947B
:1032F0004BA1F7016083718382839383F4E0EF0E27
:10330000F11CD012EDCF0C942D228AED90E00E949A
:10331000B79181110C942D2288E50E9425A1882364
:1033200081F00091481910E00E944BA1000F111F7D
:10333000000F111FF801E95FFE4E608371838283E5
:10334000938389E50E9425A1882381F00091481983
:1033500010E00E944BA1000F111F000F111FF80178
:10336000E15FFE4E60837183828393838AE50E94CE
:1033700025A1882381F00091481910E00E944BA1FB
:10338000000F111F000F111FF801E95EFE4E608350
:10339000718382839383E1E8F8E08491882341F08C
:1033A0009091C00095FFFCCF8093C6003196F5CF79
:1033B000EDE2F4E08491882341F09091C00095FF04
:1033C000FCCF8093C6003196F5CF109248198091BA
:1033D0004819823008F058C0E2E2F4E08191882375
:1033E00039F09091C00095FFFCCF8093C600F6CFD6
:1033F000E091481924E0E29FF0011124E95FFE4EBC
:10340000608171818281938142E00E94092801E9F3
:1034100013E0F8018191882339F09091C00095FF65
:10342000FCCF8093C600F6CFE091481934E0E39FCB
:10343000F0011124E15FFE4E6081718182819381F0
:1034400042E00E940928D8018D918D01882339F02E
:103450009091C00095FFFCCF8093C600F4CFE0911F
:103460004819B4E0EB9FF0011124E95EFE4E608143
:1034700071818281938142E00E94092880914819DC
:103480008F5F80934819A3CF8091C00085FFFCCF48
:103490008AE08093C600E1C783E50E9425A18823C6
:1034A00009F4DBC70E944BA10E948DC870935F0294
:1034B00060935E02D2C783E50E9425A1882309F4A8
:1034C000CCC70E944BA10E948DC8709335026093B7
:1034D0003402C3C780E50E9425A1882351F00E94D1
:1034E0004BA16093420270934302809344029093F5
:1034F000450289E40E9425A1882381F00E944BA106
:103500002DEB37E346E05EE30E94B3BB60933E02DF
:1035100070933F02809340029093410284E40E94A2
:1035200025A1882381F00E944BA12DEB37E346E0D3
:103530005EE30E941CC860933A0270933B02809342
:103540003C0290933D0283E40E9425A1882351F020
:103550000E944BA1609300027093010280930202CB
:10356000909303020E94D6ABE3E9F3E081918823B4
:1035700039F09091C00095FFFCCF8093C600F6CF44
:10358000E6E9F3E08191882339F09091C00095FF3E
:10359000FCCF8093C600F6CF609142027091430247
:1035A000809144029091450242E00E940928EAE994
:1035B000F3E08191882339F09091C00095FFFCCF12
:1035C0008093C600F6CF2DEB37E346E05EE36091D3
:1035D0003E0270913F0280914002909141020E9410
:1035E0001CC842E00E940928EEE9F3E0819188239B
:1035F00039F09091C00095FFFCCF8093C600F6CFC4
:103600002DEB37E346E05EE360913A0270913B02B6
:1036100080913C0290913D020E94B3BB42E00E9427
:103620000928E2EAF3E08191882339F09091C00003
:1036300095FFFCCF8093C600F6CF60910002709199
:103640000102809102029091030242E00E94092847
:103650008091C00085FFFCCF8AE08093C6000E9465
:10366000F036FBC683E50E9425A1882319F00E944D
:103670004BA103C060E070E0CB01609381197093AF
:1036800082198093831990938419E7C685E40E9478
:1036900025A1882341F00E944BA10E948DC88B0177
:1036A00077FD12C002C000E010E02D961FAE2D97EE
:1036B0002E961FAE2E97E6E12F96EFAF2F97F3E4ED
:1036C0006096FFAF60970EC02D961FAE2D972E9679
:1036D0001FAE2E972CE82F962FAF2F9732E46096CF
:1036E0003FAF609783E50E9425A1882371F00E9477
:1036F0004BA12D966FAF2D972E967FAF2E972F96BD
:103700008FAF2F9760969FAF609783E40E9425A1AB
:10371000882349F00E944BA10E948DC8AC967FAFD0
:103720006EAFAC9706C045E050E0AC965FAF4EAFD1
:10373000AC970E94A07E2C966CAF7DAF8EAF9FAFF2
:103740002C97033011051CF4E6EAF3E01AC0E9EB0C
:10375000F3E08191882339F09091C00095FFFCCF70
:103760008093C600F6CF8091C00085FFFCCF8AE031
:103770008093C60072C69091C00095FFFCCF8093E5
:10378000C60081918111F7CF8091C00085FFFCCFE9
:103790008AE08093C6000E94F67E8FE717FF68C01C
:1037A000809311192C968CAD9DADAEADBFAD2C970D
:1037B00068968CAF9DAFAEAFBFAF6897E0968CAF09
:1037C0009DAFAEAFBFAFE09761961FAE619790E43B
:1037D0006B969FAF6B97ACE16C96AFAF6C97B6E40E
:1037E0006D96BFAF6D976E961FAE6E976F961FAEBC
:1037F0006F97A0961FAEA097A1961FAEA1972FE737
:1038000030E040E050E028962CAF3DAF4EAF5FAFC8
:1038100028973FE7432E512C612C712CA8961CAEA3
:103820001DAE1EAE1FAEA89731E0A2963FAFA29785
:103830006A961FAE1EAE6A9722961FAE2297212C63
:10384000312C23961FAE2397A8014E5E564EAA96A2
:103850005FAF4EAFAA97C801880F991F880F991FB5
:10386000DC01AE5FB64EA496BFAFAEAFA49707C063
:10387000F801EE5EF64E808395CF0E941233809160
:103880001019882309F478C10E94608317FF0FC0C4
:10389000B091F2182296BFAF22972090F318309083
:1038A000F418E091F5182396EFAF239712C0A49671
:1038B000AEADBFADA497BC912296BFAF2297A496A0
:1038C000EEADFFADA49721803280F3812396FFAF48
:1038D000239722962FAD2297322D432D23965FAD4D
:1038E00023976E966FAD6E976F967FAD6F97A0968C
:1038F0008FADA097A1969FADA1970E9479C9181688
:1039000094F022962FAD22976E962FAF6E976F96FA
:103910002FAE6F97A0963FAEA09723963FAD23970B
:10392000A1963FAFA19722962FAD2297322D432D1E
:1039300023965FAD239761966FAD61976B967FADD0
:103940006B976C968FAD6C976D969FAD6D970E943F
:1039500056C187FD12C022964FAD229761964FAF98
:1039600061976B962FAE6B976C963FAE6C972396D4
:103970005FAD23976D965FAF6D97A2968FADA297BF
:10398000882309F479C02D962FAD2D972E963FAD43
:103990002E972F964FAD2F9760965FAD609722962A
:1039A0006FAD2297722D832D23969FAD23970E9492
:1039B00079C918160CF0E0C00E94A07EDC01CB0192
:1039C0002C962CAD3DAD4EAD5FAD2C97821B930B6D
:1039D000A40BB50B89389341A105B10508F4CCC0FF
:1039E000D301C20128962CAD3DAD4EAD5FAD2897F9
:1039F000821B930BA40BB50BB595A795979587954F
:103A000017FF03C08093111905C0AA96EEADFFAD54
:103A1000AA9780830E94A07E68966CAF7DAF8EAF20
:103A20009FAF68979B01AC012C968CAD9DADAEAD60
:103A3000BFAD2C97281B390B4A0B5B0BA8962CAFFC
:103A40003DAF4EAF5FAFA8972D969FAD2D976E9669
:103A50009FAF6E972E96AFAD2E976F96AFAF6F97C5
:103A60002F96BFAD2F97A096BFAFA0976096EFADF2
:103A70006097A196EFAFA1972D962FAD2D972E961B
:103A80003FAD2E972F964FAD2F9760965FAD609705
:103A900022966FAD2297722D832D23969FAD23978B
:103AA0000E9456C187FF9AC70E94A07EDC01CB010D
:103AB00068962CAD3DAD4EAD5FAD6897821B930B04
:103AC000A40BB50B89389341A105B10508F486C74D
:103AD0000E94A07E2C966CAF7DAF8EAF9FAF2C97CF
:103AE000DC01CB0168962CAD3DAD4EAD5FAD689766
:103AF000821B930BA40BB50B6A964EAD5FAD6A9714
:103B0000141615060CF49DC528968CAD9DADAEAD72
:103B1000BFAD2897840D951DA61DB71DB595A7951A
:103B20009795879517FF54C7809311196A962EAD04
:103B30003FAD6A972F5F3F4F6A963FAF2EAF6A97B0
:103B40002D963FAD2D9761963FAF61972E964FAD65
:103B50002E976B964FAF6B972F965FAD2F976C9606
:103B60005FAF6C9760968FAD60976D968FAF6D97D6
:103B700091E0A2969FAFA29720E030E040EA51E4A6
:103B80002D966FAD2D972E967FAD2E972F968FADDC
:103B90002F9760969FAD60970E942EC79B01AC0146
:103BA00022966FAD2297722D832D23969FAD23977A
:103BB0000E9479C91816ACF4E8E9F3E084918823EF
:103BC00041F09091C00095FFFCCF8093C6003196E4
:103BD000F5CF8091C00085FFFCCF8AE08093C600BE
:103BE0003CC40E94A07EDC01CB01E0962CAD3DAD33
:103BF0004EAD5FADE097821B930BA40BB50B813DDF
:103C00009740A105B10508F452C017FF10C0E0901D
:103C10001119F12CE2E9F3E084918823D9F0909115
:103C2000C00095FFFCCF8093C6003196F5CFAA96D1
:103C3000AEADBFADAA97EC90F12CECE8F3E0849127
:103C4000882341F09091C00095FFFCCF8093C6007F
:103C50003196F5CF42E022966FAD2297722D832DDB
:103C600023969FAD23970E940928E8E8F3E084910A
:103C7000882341F09091C00095FFFCCF8093C6004F
:103C80003196F5CFB701FF0C880B990B0E94F727EF
:103C90008091C00085FFFCCF8AE08093C6000E941F
:103CA000A07EE0966CAF7DAF8EAF9FAFE0970E9495
:103CB000A07E6B017C010E94A07E68968CAC9DACBE
:103CC000AEACBFAC68972C962CAD3DAD4EAD5FADA4
:103CD0002C97820E931EA41EB51EC818D908EA0898
:103CE000FB08DC01CB018C0D9D1DAE1DBF1D813875
:103CF0009F44A241B105A8F0EBE6F3E0849188234C
:103D000041F09091C00095FFFCCF8093C6003196A2
:103D1000F5CF8091C00085FFFCCF8AE08093C6007C
:103D20009CC36A964EAD5FAD6A97AC968EAD9FAD63
:103D3000AC97841795070CF0A0CDEFE1F3E08491E8
:103D4000882341F09091C00095FFFCCF8093C6007E
:103D50003196F5CF8091C00085FFFCCF8AE080933B
:103D6000C6007BC30E94F03678C30E94CC3975C36D
:103D70000E94373372C380E090E00E9454A10E94F9
:103D800060AC83E50E9425A1882341F00E944BA1ED
:103D90000E948DC870930B0260930A0280910A0200
:103DA00090910B028230910509F0BFC088E50E9416
:103DB00025A1882349F10E944BA16B017C010E943F
:103DC000248F9B01AC0160E070E0CB010E942DC705
:103DD0009B01AC01C701B6010E9479C918161CF4F9
:103DE0000E944BA109C00E94248F9B01AC0160E09E
:103DF00070E0CB010E942DC760930402709305020E
:103E0000809306029093070282E50E9425A18823F1
:103E100051F00E944BA16093F40B7093F50B8093CB
:103E2000F60B9093F70BE1E8F8E08491882341F0DA
:103E30009091C00095FFFCCF8093C6003196F5CFDE
:103E4000E8E0F4E08491882341F09091C00095FF70
:103E5000FCCF8093C6003196F5CF62E2E62E64E097
:103E6000F62EF7018191882339F09091C00095FFDB
:103E7000FCCF8093C600F6CF6091071170910811B6
:103E80008091091190910A1142E00E94092801E9EC
:103E900013E0F8018191882339F09091C00095FFDB
:103EA000FCCF8093C600F6CF60910F117091101176
:103EB000809111119091121142E00E940928D701BE
:103EC0008D917D01882339F09091C00095FFFCCF42
:103ED0008093C600F4CF6091040270910502809136
:103EE00006029091070242E00E940928F8018191A0
:103EF0008F01882339F09091C00095FFFCCF80930B
:103F0000C600F4CF609113117091141180911511B6
:103F10009091161142E00E9409288091C00085FF0F
:103F2000FCCF8AE08093C60008C0049730F081E09F
:103F300090E090930B0280930A0210920E1A8091E7
:103F40000A0290910B02909309028093080210924A
:103F50000F1A1092101A1092111A1092121A7DC292
:103F600083E50E9425A1882309F477C20E944BA112
:103F70000E948DC8709335136093341365317105B9
:103F800034F084E190E09093351380933413809162
:103F900034139091351397FD02C00C94FC161092C7
:103FA0003513109234130C94FC1683EE93E00E94A8
:103FB000515553C20E94948350C2812C912C5401BC
:103FC0007501640100E010E020E030E040E050E0E6
:103FD00060E070E0CB010E94223B109283133DC24F
:103FE00082E50E9425A1882329F00E944BA19B0114
:103FF000AC0104C020E030E040E85FE383E5E396F5
:104000002FAFE397E4963FAFE497E5964FAFE59780
:10401000E6965FAFE6970E9425A1882309F41DC2AA
:104020000E944BA1E3962FADE397E4963FADE49752
:10403000E5964FADE597E6965FADE6970E941CC802
:104040006093F7107093F8108093F9109093FA1022
:104050000E94F03602C282E50E9425A1882329F041
:104060000E944BA19B01AC0104C020E030E040E87D
:104070005FE383E5E3962FAFE397E4963FAFE497E2
:10408000E5964FAFE597E6965FAFE6970E9425A1CC
:10409000882309F4E2C10E944BA1E3962FADE39778
:1040A000E4963FADE497E5964FADE597E6965FADB4
:1040B000E6970E941CC860931F1170932011809393
:1040C0002111909322110E94F036C7C182E50E940F
:1040D00025A1882329F00E944BA19B01AC0104C0BB
:1040E00020E030E040E85FE383E5E3962FAFE3971D
:1040F000E4963FAFE497E5964FAFE597E6965FAF5E
:10410000E6970E9425A1882309F4A7C10E944BA12C
:10411000E3962FADE397E4963FADE497E5964FAD78
:10412000E597E6965FADE6970E941CC860930C0C7D
:1041300070930D0C80930E0C90930F0C0E94F03630
:104140008CC183E50E9425A1882309F486C10E94C1
:104150004BA10E948DC8653671052CF477FF05C010
:1041600060E070E002C064E670E07093DB1860937A
:10417000DA180E94F03671C183E50E9425A18823D8
:1041800009F46BC10E944BA10E948DC8693C710566
:104190002CF477FF05C060E070E002C068EC70E0CE
:1041A0007093D9186093D8180E94F03656C183E5F1
:1041B0000E9425A1882309F450C10E944BA10E94AE
:1041C0008DC821E030E06130710511F020E030E071
:1041D00030931B0C20931A0C0E94F0363EC183E5ED
:1041E0000E9425A1882309F438C10E944BA10E9496
:1041F0008DC86D3371052CF477FF05C060E070E069
:1042000002C06CE370E070930B0C60930A0C0E9488
:10421000F03623C182E40E9425A1882351F00E9438
:104220004BA10E948DC87093A2196093A1190E949E
:10423000F03685E40E9425A1882309F40EC10E946E
:104240004BA10E948DC87093090C6093080C709369
:10425000070C6093060C0E94F036FFC083E50E94B5
:1042600025A18111BFC3F9C083E50E9425A1882340
:1042700009F4F3C00E944BA10E948DC88B0184E514
:104280000E9425A1882329F00E944BA10E948DC87D
:1042900002C06FEF7FEF0230110508F0DEC08091A1
:1042A0003C1390E06817790709F40CC46F3FFFEFE7
:1042B0007F0709F407C4CB010E9454A103C41092E4
:1042C000371310923613C9C083E50E9425A18823B5
:1042D00009F4C3C00E944BA10E948DC821E030E0C8
:1042E0006130710511F020E030E030933B132093F2
:1042F0003A130E94F036B1C083E50E9425A18823BD
:1043000009F4ABC00E944BA10E948DC821E030E0AF
:104310006130710511F020E030E03093050C2093FE
:10432000040C0E94F03699C00E94658F96C00E94CE
:10433000338F93C080E090E00E9424908EC083E58C
:104340000E9425A1882309F488C00E944BA16B011B
:104350007C0120E030E0A9010E9456C1811104C017
:1043600081E080935C0279C020E030E040E251E4DB
:10437000C701B6010E941CC86093951970939619E5
:10438000809397199093981910925C0266C01092CE
:1043900042138091441990914519A0914619B0910A
:1043A00047198093A10C9093A20CA093A30CB093F7
:1043B000A40C0E94D4B0E0E0F0E019954EC084E572
:1043C0000E9425A1882329F08FEF9FEF0E9454A11E
:1043D00044C0E1E8F8E08491882341F09091C00066
:1043E00095FFFCCF8093C6003196F5CFEAE1F4E06B
:1043F0008491882341F09091C00095FFFCCF809379
:10440000C6003196F5CF8091BC0C9091BD0C20E692
:10441000289FF001299FF00D1124EA53F34F819159
:10442000882339F09091C00095FFFCCF8093C6009F
:10443000F6CFE8E1F4E08491882341F09091C00048
:1044400095FFFCCF8093C6003196F5CF8091C000D8
:1044500085FFFCCF8AE08093C6000E94537DCFC3C6
:10446000819187FD02C00C94D310D12C0C94DD10E7
:1044700066E371E1CE0101960E94D062BE016F5FDA
:104480007F4FCE01CB960E940462CE0101960E941E
:104490003D62CE01CB960E94F85FBE01655C7F4F06
:1044A000CE0180960E94C8620F5F1F4FC090100C13
:1044B000D090110CB6E0BC9DC001BD9D900D1124A3
:1044C000801791070CF077C00696801791070CF4BF
:1044D00072C069E271E1CE0101960E94D062BE0114
:1044E0006F5F7F4FCE01CB960E940462CE01019692
:1044F0000E943D62CE01CB960E94F85F6BE374E0B0
:10450000CE0180960E945361882339F0BE01655C1C
:104510007F4FCE0180960E94EF614AEF96014203E1
:10452000C001439F900D11246801C80ED91E84E27A
:1045300093E00E944F554AE0B601CE0101960E94D9
:104540009D6289819A810E944F55CE0101960E94F9
:104550003D628BE79AE00E944F55CE0180960E9403
:10456000F85F88A199A10E944F558BE499E00E94C1
:104570004F550E94435583E393E00E944F554AE014
:10458000B601CE0101960E949D6289819A810E94A6
:104590004F55CE0101960E943D628BE79AE00E9442
:1045A0004F558BAD9CAD0E944F558BE499E00E9416
:1045B0004F550E944355CE0180960E943D620C9457
:1045C000E9100E9440A1AB01BC01409354115093EB
:1045D000551160935611709357118BEF92E10E9421
:1045E0003B4D3BCF0E944BA138CF0E9460AC88E589
:1045F0000E9425A1882311F05F9A479A89E50E94BD
:1046000025A181118A9A8AE50E9425A1882381F03B
:104610009FB7F894809108018160809308019FBF43
:104620009FB7F894809108018460809308019FBF30
:1046300085E40E9425A1882309F40FCF8D9A129A50
:104640000CCFA8968CAC9DACAEACBFACA897880E36
:10465000991EAA1EBB1EA8962CAD3DAD4EAD5FADFA
:10466000A897281B390B4A0B5B0BCA01B901289686
:104670002CAD3DAD4EAD5FAD28970E94E3C6A501C0
:1046800094010E94E4CAD301C201820F931FA41FA8
:10469000B51F84319105A105B1050CF12C013D0137
:1046A0008C3E9105A105B1052CF0FBEE4F2E512C4F
:1046B000612C712C40E84416510461047104FCF033
:1046C0008EEF90E0A0E0B0E084199509A609B70943
:1046D00028968CAF9DAFAEAFBFAF289716C0E4E170
:1046E0004E2E512C612C712C24E130E040E050E042
:1046F00028962CAF3DAF4EAF5FAF289706C02896E7
:104700004CAE5DAE6EAE7FAE2897E0E0F4E08491F3
:10471000882341F09091C00095FFFCCF8093C600A4
:104720003196F5CFC301B20162D4EBEFF3E084918F
:10473000882341F09091C00095FFFCCF8093C60084
:104740003196F5CF28966CAD7DAD8EAD9FAD289797
:104750004ED4E4EFF3E08491882341F09091C000BF
:1047600095FFFCCF8093C6003196F5CF42E061966D
:104770006FAD61976B967FAD6B976C968FAD6C97B5
:104780006D969FAD6D9745D4EDEEF3E0849188234F
:1047900041F09091C00095FFFCCF8093C600319608
:1047A000F5CF42E06E966FAD6E976F967FAD6F97C7
:1047B000A0968FADA097A1969FADA1972AD4809186
:1047C000C00085FFFCCF8AE08093C6006A962EADBC
:1047D0003FAD6A97233031050CF496C928966CAD2D
:1047E0007DAD8EAD9FAD28970E945CC120E030E08A
:1047F00040E850E40E94B3BB6B017C0161962FAD91
:1048000061976B963FAD6B976C964FAD6C976D96BD
:104810005FAD6D976E966FAD6E976F967FAD6F972C
:10482000A0968FADA097A1969FADA1970E942DC78E
:1048300020ED3FE049E450E40E94B3BB20E030E0CB
:1048400040E05FE30E94B3BB9B01AC01C701B6012E
:104850000E941CC86B017C01C501B4010E945CC1AF
:1048600020E030E04AE754E40E941CC84B015C01A0
:10487000E7EEF3E08491882341F09091C00095FF2A
:10488000FCCF8093C6003196F5CF42E0C701B60158
:10489000C0D3E1EEF3E08491882341F09091C00011
:1048A00095FFFCCF8093C6003196F5CF42E0C5015D
:1048B000B401AFD38091C00085FFFCCF8AE0809324
:1048C000C6002AE939E949E15FE3C701B6010E9460
:1048D000B3BB6B017C019B01AC010E942EC7A501FB
:1048E00094010E941CC864966CAF7DAF8EAF9FAFE1
:1048F0006497A5019401C701B6010E94B3BB20E0F3
:1049000030E040E05EE30E94B3BB4B015C01E4EDAC
:10491000F3E08491882341F09091C00095FFFCCF93
:104920008093C6003196F5CF8091C00085FFFCCF03
:104930008AE08093C600EEECF3E08491882341F096
:104940009091C00095FFFCCF8093C6003196F5CFC3
:1049500042E0C701B6015DD38091C00085FFFCCF66
:104960008AE08093C600E8ECF3E08491882341F06C
:104970009091C00095FFFCCF8093C6003196F5CF93
:1049800042E064966CAD7DAD8EAD9FAD649741D332
:104990008091C00085FFFCCF8AE08093C600E2ECE6
:1049A000F3E08491882341F09091C00095FFFCCF03
:1049B0008093C6003196F5CF42E0C501B40129D3FA
:1049C0008091C00085FFFCCF8AE08093C6009CC820
:1049D000AA96EEADFFADAA978083A8C8A2961FAE97
:1049E000A297CAC80E944BA10E948DC8611571058B
:1049F000F9F48091020C9091030C90933013809302
:104A00002F1390933213809331138091000C909167
:104A1000010C9093BB0C8093BA0C8091FE0B90918B
:104A2000FF0B90939A19809399190E94F38215CDE8
:104A300061307105F9F48091FC0B9091FD0B90931E
:104A4000301380932F1390933213809331138091FE
:104A5000FA0B9091FB0B9093BB0C8093BA0C809156
:104A6000F80B9091F90B90939A19809399190E94E1
:104A7000F382F3CC6230710569F410923013109216
:104A80002F1310923213109231131092BB0C10920C
:104A9000BA0CE3CC6330710509F0DFCC109230130F
:104AA00010922F1310923213109231131092BB0CEC
:104AB0001092BA0C0E9460AC8D9A129A80E00E940B
:104AC0001FACCBCC012B09F04DC020E030E044EB13
:104AD00052E460915F137091601380916113909123
:104AE00062130E942EC760935F13709360138093CC
:104AF0006113909362133CE3C32E33E1D32EE12C78
:104B0000F12C00E810E42FE533E14BE553E167E5D4
:104B100073E183E593E10E94A59220E030E040EA52
:104B200051E460915F1370916013809161139091D3
:104B300062130E942EC760935F137093601380937B
:104B4000611390936213E12CF12C00E010E42FE547
:104B500033E14BE553E167E573E183E593E10E94BF
:104B6000A5927BCC20E030E040EF51E460915F13F0
:104B70007091601380916113909162130E942EC70F
:104B800060935F137093601380936113909362132B
:104B90008CE3C82E83E1D82EE12CF12C00E010E448
:104BA0002FE533E14BE553E167E573E183E593E1FD
:104BB0000E94A59220E030E040EF52E460915F1344
:104BC0007091601380916113909162130E942DC7C0
:104BD00060935F13709360138093611390936213DB
:104BE000E12CF12C00EF11E42FE533E14BE553E12B
:104BF00067E573E183E593E10E94A5922ECCE296EE
:104C0000AEADBFADE2970FB6F894BEBF0FBEADBF5D
:104C1000CB58DF4F0FB6F894DEBF0FBECDBFDF918C
:104C2000CF911F910F91FF90EF90DF90CF90BF90A9
:104C3000AF909F908F907F906F905F904F903F903C
:104C40002F9008954F925F926F927F928F929F92D2
:104C5000AF92BF92FF920F931F93CF93DF93182FC2
:104C600084ED92E190935410809353101092F012BF
:104C700082E090E0A0E0B0E08093D9129093DA1245
:104C8000A093DB12B093DC121092521010924E10CF
:104C900010924F1010925010109251108FEF9FEF02
:104CA000DC0180934A1090934B10A0934C10B0936A
:104CB0004D10112379F1153008F0F9C040E060E0A3
:104CC00070E0CB010E941D5A882309F4F0C020E156
:104CD000129FC0011124865C914FFC01E254FE4FEB
:104CE00020812F7709F0E3C03C9640815181628199
:104CF0007381443651056105710508F4D8C03497B5
:104D000080809180A280B38081149104A104B104B9
:104D100021F4CDC0812C912C540140E0C501B40197
:104D20000E941D5AF82E882309F4C1C08091550EA7
:104D30009091560E8115924009F0B9C0A0915A0E7B
:104D4000AA2309F4B4C06091580E7091590E6115F0
:104D5000710509F4ACC02091570E222309F4A7C0B5
:104D6000A093EB122093DD1280E030E0E1E0F0E070
:104D7000C82FAF01082E02C0440F551F0A94E2F756
:104D80002417350741F0982F8F5F983089F789E015
:104D90008093E6128CC08093E6122091600E3091D1
:104DA000610E2115310519F040E050E008C0209156
:104DB0006E0E30916F0E4091700E5091710E2093D7
:104DC000DE123093DF124093E0125093E11224017F
:104DD0003501460E571E611C711C4092EC12509218
:104DE000ED126092EE127092EF12E0915B0EF09174
:104DF0005C0EF093F212E093F112B0E00E9414C73F
:104E0000460E571E681E791E4092F3125092F412FD
:104E10006092F5127092F61285E0EE0FFF1F8A95F0
:104E2000E1F7E150FE4FEF2FFF27E6954E0E5F1E94
:104E3000611C711C4092E7125092E8126092E912D4
:104E40007092EA1220915D0E30915E0E21153105AF
:104E500021F0890120E030E008C000916A0E109135
:104E60006B0E20916C0E30916D0EB501A4014419AA
:104E7000550966097709400F511F621F731F04C04F
:104E80007695679557954795CA95D2F74093E21264
:104E90005093E3126093E4127093E512453F2FE0C4
:104EA00052076105710528F48CE08093F012F12C13
:104EB0001AC0453F5F4F6105710510F480E111C0D4
:104EC0008091760E9091770EA091780EB091790E28
:104ED0008093F3129093F412A093F512B093F6120C
:104EE00080E28093F0128F2DDF91CF911F910F916F
:104EF000FF90BF90AF909F908F907F906F905F904A
:104F00004F9008954F925F926F927F928F929F92EF
:104F1000AF92BF92EF92FF920F931F93CF93DF93C5
:104F2000CDB7DEB7A0970FB6F894DEBF0FBECDBFEA
:104F3000611571058105910541F48091C00085FFDF
:104F4000FCCF80E38093C6003DC09E012F5F3F4FA2
:104F50007901812C912C54018901442E512C612C12
:104F6000712C3FEF831A930AA30AB30AA30192019B
:104F70000E94F2C6F70161937F01B901CA01611570
:104F800071058105910569F7A40120E030E0F1E0A9
:104F90008F1A9108A108B108F401E21BF30BE00F8E
:104FA000F11F80818A3010F4805D01C0895C90918E
:104FB000C00095FFFCCF8093C6002F5F3F4F2417A2
:104FC000350751F7A0960FB6F894DEBF0FBECDBFE0
:104FD000DF91CF911F910F91FF90EF90BF90AF9015
:104FE0009F908F907F906F905F904F90089597FF64
:104FF0000EC02091C00025FFFCCF2DE22093C600FB
:1050000090958095709561957F4F8F4F9F4F4AE0A7
:1050100079CF8F929F92AF92BF92CF92DF92EF9211
:10502000FF92CF93DF936B017C01C42F20E030E02F
:10503000A9010E9456C187FF0BC08091C00085FF67
:10504000FCCF8DE28093C600F7FAF094F7F8F09465
:10505000D0E060E070E080E09FE3DC1741F020E00A
:1050600030E040E251E40E941CC8DF5FF6CF9B01B4
:10507000AC01C701B6010E942EC76B017C010E94E2
:1050800093C84B015C010E945AC19B01AC01C7014E
:10509000B6010E942DC76B017C014AE0C501B40135
:1050A00031DFCC2361F0E0E2F9E08191882339F02F
:1050B0009091C00095FFFCCF8093C600F6CFCC2323
:1050C00009F120E030E040E251E4C701B6010E945E
:1050D000B3BB4B015C010E948DC86B01770FEE08DA
:1050E000FF08C701B60183DFC701B6010E945CC19A
:1050F0009B01AC01C501B4010E942DC76B017C016D
:10510000C150DDCFDF91CF91FF90EF90DF90CF9036
:10511000BF90AF909F908F900895682F86E590E1A3
:105120000C949E5E009769F0FC0101900020E9F765
:105130003197AF01481B590BBC0186E590E10C94F7
:105140000C5E80E090E00895BC0180E090E04AE0D1
:10515000D9DE8091C00085FFFCCF8DE08093C60032
:105160008091C00085FFFCCF8AE08093C60008953F
:105170008F929F92AF92BF92CF92DF92EF92FF9267
:105180000F931F93CF93DF9300D01F92CDB7DEB75D
:10519000FC018381813011F080E06BC0818181FF4F
:1051A000FBCF81899289A389B489892B8A2B8B2B88
:1051B00009F45EC07F0140E050E0BA01CF010E94D7
:1051C0003B4D882349F3F70185889688A788B08CE2
:1051D000C18CD28C82E090E0A0E0B0E0F601808348
:1051E0009183A283B3839E012F5F3F4FB501A4013A
:1051F000C6010E94E65A882379F200E010E0980187
:10520000B501A401C6010E94555A882329F289805C
:105210009A80AB80BC80F6018789803141F4F8EF39
:105220008F16FFEF9F06A104B10448F4DCCF88EF8E
:1052300088168FEF9806A8068FE0B806A0F2F7014F
:10524000158A168A178A108E118A128A138A148A6E
:10525000818180688183C7010E94385C882309F4BA
:105260009BCF40E050E0BA01C7010E943B4D01C016
:1052700081E00F900F900F900F90DF91CF911F91D1
:105280000F91FF90EF90DF90CF90BF90AF909F90E5
:105290008F9008952F923F924F925F926F927F92DC
:1052A0008F929F92AF92BF92CF92DF92EF92FF9236
:1052B0000F931F93CF93DF93CDB7DEB7CE55D109B0
:1052C0000FB6F894DEBF0FBECDBF809153118F9300
:1052D000809152118F9382E998E09F938F938E0172
:1052E000015C1F4F1F930F930E9427C10F900F90D7
:1052F0000F900F900F900F90F12CF801019000206B
:10530000E9F73197E01BF10BFE1684F46801CF0C2E
:10531000D11CF7FCDA94F6018081082E000C990B61
:105320000E94FACBF6018083F394E7CF40E050E08F
:10533000BA0180E691E10E943B4D6E961FAE6E97DA
:10534000CE0101967C018BE8A82E88E0B82E6E0174
:1053500091E2C90ED11C91E8292E98E0392E26E75A
:10536000422E28E0522E34E0832E912C809163113E
:10537000823040F46E962FAD6E97211114C08FEFDE
:105380009FEF16C08091681190916911A0916A11E8
:10539000B0916B118F719927AA27BB27892B8A2B74
:1053A0008B2B41F723C0809152119091531101969C
:1053B0009093531180935211C25ADF4F0FB6F89455
:1053C000DEBF0FBECDBFDF91CF911F910F91FF9038
:1053D000EF90DF90CF90BF90AF909F908F907F9095
:1053E0006F905F904F903F902F90089540E050E075
:1053F000B70180E691E10E94CD5B18160CF0BACFA0
:1054000020E0F70101900020E9F73197EE19FF093C
:105410002E17A4F43701620E711C27FD7A94F30154
:10542000808190E06F962FAF6F970E94FACBF301C7
:1054300080836F962FAD6F972F5FE3CF8A858E376E
:1054400009F494CF45E050E0B801C7010E944FCC69
:10545000892B09F08BCF1F930F93BF92AF92DF92EE
:10546000CF920E9427C10F900F900F900F900F9036
:105470000F908091480E9091490E04970CF06CC0EB
:105480002091460E3091470EF0E6F29FC001F39F47
:10549000900D1124B6018A53934F0E9448CCF1011C
:1054A0008491E1E8F8E0882349F09091C00095FFED
:1054B000FCCF8093C60031968491F5CFF2018491A0
:1054C000E6E7F8E0882349F09091C00095FFFCCF13
:1054D0008093C60031968491F5CF8091460E9091CD
:1054E000470E20E6289FF001299FF00D1124EA5372
:1054F000F34F8191882339F09091C00095FFFCCF44
:105500008093C600F6CFE4E7F8E08491882341F069
:105510009091C00095FFFCCF8093C6003196F5CFE7
:105520008091C00085FFFCCFFAE0F093C600809127
:10553000460E9091470E0196B4010E94D1CA9093F5
:10554000470E8093460E8091480E9091490E019629
:105550009093490E8093480E8091480E9091490E89
:10556000049724F487E898E00E94B98E21E06E96B3
:105570002FAF6E97FBCECF92DF92EF92FF921F93E9
:10558000CF93DF931092281180916311882321F02B
:1055900080E691E10E94244E1092D8121092D5120A
:1055A00085E38093D4120E94A07EEB0161E080919C
:1055B000D4120E94DE6384ED92E10E94374F60E0D6
:1055C00082E30E94DE6361E083E30E94DE6361E0C8
:1055D00084E30E94DE6361E085E30E94DE6361E0B4
:1055E00085E30E94AF6385E08093D61282E58CBD8F
:1055F0001DBC1AE08FEF0E943C4F1150D9F720E0FC
:1056000030E0A90160E084ED92E10E94624F182F22
:105610008093D712813049F00E94A07E6C1B7D0BD5
:10562000613D774060F381E054C02AEA31E040E018
:1056300050E068E084ED92E10E94624F82FF03C077
:105640001093D8120EC014E00E94414F8093D712DD
:105650001150D1F78A3A11F082E03BC082E080938A
:10566000D8128091D812823021F0C12CD12C760131
:1056700005C0C12CD12CE12C80E4F82E20E030E0D4
:10568000A90167E384ED92E10E94624FA7019601B0
:1056900069E284ED92E10E94624F8093D7128823E1
:1056A00049F00E94A07E6C1B7D0B613D774030F37A
:1056B0008AE00FC08091D812823011F520E030E0EE
:1056C000A9016AE384ED92E10E94624F882351F0C0
:1056D00088E08093D51284ED92E10E94374FEEE688
:1056E000F8E020C00E94414F807C803C19F483E0A8
:1056F0008093D8120E94414F0E94414F0E94414F17
:1057000084ED92E10E94374F1092D61281E09ADA2E
:10571000811145C021C09091C00095FFFCCF8093BE
:10572000C600319684918111F6CFE1E6F8E08491CC
:10573000882341F09091C00095FFFCCF8093C60074
:105740003196F5CF8091C00085FFFCCF8AE0809331
:10575000C60082EE94E073C080E074DA81111FC04D
:10576000EAE5F8E08491882341F09091C00095FF2C
:10577000FCCF8093C6003196F5CFE7E4F8E0849142
:10578000882341F09091C00095FFFCCF8093C60024
:105790003196F5CF8091C00085FFFCCF26C069ED22
:1057A00072E180E691E10E94D14D811122C0EAE5CB
:1057B000F8E08491882341F09091C00095FFFCCFE0
:1057C0008093C6003196F5CFE7E3F8E08491882313
:1057D00041F09091C00095FFFCCF8093C6003196B8
:1057E000F5CF8091C00085FFFCCF8AE08093C60092
:1057F00028C081E080932811EEE6F8E084918823A8
:1058000041F09091C00095FFFCCF8093C600319687
:10581000F5CFECE2F8E08491882341F09091C0004C
:1058200095FFFCCF8093C6003196F5CF8091C000E4
:1058300085FFFCCF8AE08093C60081E095E00E945E
:1058400051558BE1E0E6F1E1A1E8B1E101900D9263
:105850008A95E1F780915E1190915F11909380118C
:1058600080937F118CE591E190937C1180937B1163
:10587000DF91CF911F91FF90EF90DF90CF9008952F
:105880008F929F92AF92BF92CF92DF92EF92FF9250
:105890000F931F93CF93DF93CDB7DEB7CC52D14098
:1058A0000FB6F894DEBF0FBECDBF60E080E20E946D
:1058B000DE63999AA19A2FEF37EA81E621503040B2
:1058C0008040E1F700C00000E0916610F0916710A1
:1058D00012E01083E0916210F09163101082E09169
:1058E0006410F09165108FEC808310926E10E0913F
:1058F0006A10F0916B1086E08083E0916810F0915F
:105900006910808180618083E0916810F091691056
:10591000808188608083E0916810F09169108081B7
:1059200080688083E0916810F091691080818F7D9C
:1059300080839FEFA1EEB4E09150A040B040E1F72A
:1059400000C0000084E894E00E945155EFEFF9EFA9
:1059500020E0E150F0402040E1F700C000008AE183
:1059600095E00E9451553FEF89EF90E03150804023
:105970009040E1F700C000008AE295E00E94515596
:10598000AFEFB9EFE0E0A150B040E040E1F700C078
:1059900000001093C0001092C50080E18093C40005
:1059A0008091C10080618093C1008091C1008860B6
:1059B0008093C1008091C10080688093C100E8E6B7
:1059C000F9E08491882341F09091C00095FFFCCFCD
:1059D0008093C6003196F5CF8091C00085FFFCCF43
:1059E0008AE08093C60081E898E0FC01249122239C
:1059F00041F03091C00035FFFCCF2093C6003196B6
:105A0000F5CF24B720FF14C0E0E6F9E0349133234A
:105A100041F04091C00045FFFCCF3093C600319665
:105A2000F5CF3091C00035FFFCCF3AE03093C6008F
:105A300021FF14C0E0E5F9E03491332341F04091B7
:105A4000C00045FFFCCF3093C6003196F5CF3091B2
:105A5000C00035FFFCCF3AE03093C60022FF14C0EF
:105A6000EFE3F9E03491332341F04091C00045FF6A
:105A7000FCCF3093C6003196F5CF3091C00035FF92
:105A8000FCCF3AE03093C60023FF14C0EFE2F9E008
:105A90003491332341F04091C00045FFFCCF309357
:105AA000C6003196F5CF3091C00035FFFCCF3AE00B
:105AB0003093C60025FF14C0EFE1F9E024912223C2
:105AC00041F03091C00035FFFCCF2093C6003196E5
:105AD000F5CF2091C00025FFFCCF2AE02093C6001F
