:100000000C94F10B0C94220C0C94220C0C94220CEA
:100010000C94220C0C94220C0C94220C0C94220CA8
:100020000C94220C0C94220C0C94220C0C94220C98
:100030000C94220C0C94220C0C94220C0C94220C88
:100040000C94220C0C94CC5F0C94220C0C94220C7B
:100050000C94220C0C94220C0C94CF560C94445506
:100060000C94220C0C945D450C94220C0C94220CE4
:100070000C94220C0C94220C0C94220C0C94220C48
:100080000C94220C0C94220C0C94220C0C94220C38
:100090000C94220C0C94220C0C94220C0C94220C28
:1000A0000C94220C0C94220C0C94220C0C94220C18
:1000B0000C94220C0C94220C0C94220C0C94220C08
:1000C0000C94220C0C94220C0C94220C0C9455735E
:1000D0000C942C730C94220C0C94220C0C94220C77
:1000E0000C94220CC3BB82BCB9BBD7BCA6BB85BCDD
:1000F000B0BCAABCADBCADBCADBCADBCADBC345796
:1001000041575D576A5784579157AB57AD57CB70DE
:10011000CE70BD70C170C7700571D270D670DC70C2
:10012000E070E470EA70EE70F2700571F870FC70C7
:10013000007145744A744F7459746374DC746D743F
:1001400075747D74877491749B74AA74B474DC7430
:10015000BE74C874D274084AD73B3BCE016E84BCCF
:10016000BFFDC12F3D6C74319ABD56833DDA3D0011
:10017000C77F11BED9E4BB4C3E916BAAAABE00005A
:1001800000803F05A84CCDB2D44EB93836A9020C38
:1001900050B9918688083CA6AAAA2ABE0000008011
:1001A0003F004E414E494E495459494E46CDCCCC64
:1001B0003D0AD7233C17B7D13877CC2B329595E63B
:1001C000241FB14F0A000020410000C84200401C1B
:1001D0004620BCBE4CCA1B0E5AAEC59D7400407A68
:1001E00010F35A00A0724E18090010A5D4E80000C0
:1001F000E87648170000E40B54020000CA9A3B005E
:100200000000E1F505000080969800000040420FD4
:10021000000000A08601000000102700000000E898
:1002200003000000006400000000000A000000005D
:10023000000100000000002C76D888DC674F0823FE
:10024000DFC1DFAE59E1B1B796E5E3E453C63AE664
:1002500051997696E8E6C28426EB898C9B62ED4044
:100260007C6FFCEFBC9C9F40F2BAA56FA5F4900593
:100270005A2AF75C936B6CF9676DC11BFCE0E40DC7
:1002800047FEF520E6B500D0ED902E0300943577BB
:10029000050080841E080000204E0A000000C80CE3
:1002A000333333330F986E12831141EF8D2114894C
:1002B0003BE65516CFFEE6DB18D1844B381BF77CA6
:1002C0001D901DA4BBE424203284725E228100C9EB
:1002D000F124ECA1E53D272F005344207072696E94
:1002E00074696E67206279746520004E6F742053C4
:1002F00044207072696E74696E67002E0044656CEC
:100300006574696F6E206661696C65642C2046694E
:100310006C653A200046696C652064656C6574659F
:10032000643A002E006F70656E206661696C6564CA
:100330002C2046696C653A20005049442041757470
:100340006F74756E652066696E69736865642120D7
:1003500050757420746865204B702C204B692061A7
:100360006E64204B6420636F6E7374616E747320CF
:10037000696E746F20436F6E666967757261746928
:100380006F6E2E6800504944204175746F74756E0D
:1003900065206661696C6564212074696D656F759F
:1003A000740020403A006F6B20543A006F6B20427B
:1003B0003A00504944204175746F74756E6520662B
:1003C00061696C6564212054656D70657261747536
:1003D000726520746F6F206869676800204B643A0B
:1003E0002000204B693A2000204B703A2000204327
:1003F0006C617369632050494420002054753A2091
:1004000000204B753A2000206D61783A2000206D65
:10041000696E3A200020643A200020626961733AD4
:1004200020002200556E6B6E6F776E20636F6D6DCE
:10043000616E643A202200486F74656E64206F66B6
:1004400066736574733A007A5F6D696E3A2000795D
:100450005F6D696E3A2000785F6D61783A200078B0
:100460005F6D696E3A20005A3A00593A0020436F96
:10047000756E7420583A2000453A005A3A00593AAD
:1004800000583A004649524D574152455F4E414D42
:10049000453A4D61726C696E2056313B2053707243
:1004A000696E7465722F6772626C206D6173687516
:1004B0007020666F722067656E36204649524D5730
:1004C0004152455F55524C3A68747470733A2F2FFD
:1004D0007777772E6769746875622E636F6D2F74F6
:1004E000656E6C6F672050524F544F434F4C5F56B0
:1004F000455253494F4E3A312E302E30204D414314
:1005000048494E455F545950453A544C2033442095
:100510005072696E74657220455854525544455264
:100520005F434F554E543A320A002042403A002071
:10053000403A00202F0020423A002F002054313A48
:10054000002F006F6B20543A002569206D696E2CD6
:100550002025692073656300456E642066696C65BB
:10056000206C69737400426567696E2066696C650A
:10057000206C697374002020506C616E6E6572424D
:10058000756666657242797465733A20002046721A
:100590006565204D656D6F72793A20004A756E2051
:1005A0002034203230323100436F6D70696C6564E5
:1005B0003A200054656E6C6F6700207C2041757492
:1005C000686F723A20004A756E2020342032303233
:1005D000312031383A35333A333300204C6173746B
:1005E00020557064617465643A2000312E302E32DB
:1005F00034004D61726C696E200020536F66747711
:100600006172652052657365740020576174636878
:10061000646F67205265736574002042726F776E55
:10062000206F757420526573657400204578746579
:10063000726E616C20526573657400506F776572DD
:100640005570007374617274006563686F3A0025B9
:100650006920686F757273202569206D696E7574E5
:10066000657300446F6E65207072696E74696E67A1
:100670002066696C65005072696E746572207374CF
:100680006F707065642064756520746F2065727288
:100690006F72732E204669782074686520657272C7
:1006A0006F7220616E6420757365204D3939392071
:1006B000746F20726573746172742E202854656D96
:1006C00070657261747572652069732072657365F7
:1006D000742E2053657420697420616674657220DD
:1006E00072657374617274696E6729004E6F204C75
:1006F000696E65204E756D62657220776974682039
:10070000636865636B73756D2C204C617374204C4A
:10071000696E653A20004E6F20436865636B7375A0
:100720006D2077697468206C696E65206E756D62E6
:1007300065722C204C617374204C696E653A200000
:10074000636865636B73756D206D69736D61746348
:10075000682C204C617374204C696E653A20004C03
:10076000696E65204E756D626572206973206E6FCB
:1007700074204C617374204C696E65204E756D62F7
:1007800065722B312C204C617374204C696E653A74
:1007900020004572726F723A004D3131300065723F
:1007A000726F722077726974696E6720746F206649
:1007B000696C6500205A3A0020593A0020583A00E6
:1007C000656E6473746F7073206869743A20006595
:1007D00063686F3A00446F6E6520736176696E6777
:1007E0002066696C652E006F6B004D3239004E65D6
:1007F000772056616C756520457272200025730064
:1008000057726974696E6720746F2066696C653A07
:1008100020002E006F70656E206661696C65642C27
:100820002046696C653A20002E006F70656E206668
:1008300061696C65642C2046696C653A20004669E4
:100840006C652073656C6563746564002053697A18
:10085000653A200046696C65206F70656E65643A84
:1008600020002E006F70656E206661696C65642CD7
:100870002046696C653A200053442063617264200D
:100880006F6B006F70656E526F6F74206661696C7C
:10089000656400766F6C756D652E696E697420668F
:1008A00061696C6564004572726F723A005344204E
:1008B000696E6974206661696C006563686F3A00EF
:1008C0002200656E717565696E67202200220065E1
:1008D0006E717565696E67202200473238205800B6
:1008E0004D31303331004732382058004D363035E5
:1008F000205331004D313033330047323820580017
:100900004D3630352053310054300054310053748B
:100910006F7265642073657474696E6773207265A5
:10092000747269657665640048617264636F6465BA
:10093000642044656661756C742053657474696ED7
:100940006773204C6F61646564006563686F3A008B
:100950007C3C3E5E2B3D3F2F5B5D3B2C2A225C00A6
:100960006563686F3A00202D20496E76616C69647A
:10097000206578747275646572206E756D6265723B
:1009800020210070012C0190012701B0012201C03B
:10099000011D01F00118011002130130020E016067
:1009A00002090190020401C002FF000003FA0040A6
:1009B00003F5008003F000D003EB002004E6007094
:1009C00004E100E004DC004005D700C005D200408F
:1009D00006CD00D006C8008007C3003008BE00F076
:1009E00008B900C009B400B00AAF00B00BAA00D02B
:1009F0000CA500000EA000500F9B00C010960050E8
:100A000012910000148C00C0158700B0178200B04E
:100A1000197D00D01B7800001E730040206E0090EE
:100A2000226900F024640040275F0090295A00E00A
:100A30002B5500102E500020304B0010324600E0A5
:100A400033410090353C001037370070383200A039
:100A5000392D00B03A2800A03B2300603C1E001056
:100A60003D1900903D1400103E0F00703E0A00C07A
:100A70003E0500003F00003A2045787472756465B9
:100A800072207377697463686564206F66662E20D0
:100A90004D415854454D50207472696767657265C1
:100AA000642021003A204578747275646572207361
:100AB00077697463686564206F66662E204D494EC1
:100AC00054454D50207472696767657265642021D2
:100AD0000054656D7065726174757265206865613A
:100AE0007465642062656420737769746368656403
:100AF000206F66662E204D415854454D502074722B
:100B0000696767657265642021210054656D7065B1
:100B100072617475726520686561746564206265D0
:100B200064207377697463686564206F66662E203D
:100B30004D494E54454D5020747269676765726522
:100B400064202121004572726F723A0024F4D4307F
:100B500050C38E20C2A24017828B7011127A910D61
:100B6000816CD90AA861E108C7586607615143063C
:100B70001E4B5D05C145A7041A411104093D9803A8
:100B8000713931034036DB0265339102D4305402AF
:100B9000802E1D02632CEE01752AC501B028A0012C
:100BA000102781018F2564012B244B01E0223401A1
:100BB000AC211F018D200D01801FFC00841EED0063
:100BC000971DDF00B81CD200E61BC600201BBC002E
:100BD000641AB200B219A8000A19A0006A18990094
:100BE000D117910040178B00B516840031167E0096
:100BF000B31579003A157300C7146F0058146A00D2
:100C0000EE1366008813630025135E00C7125B00B5
:100C10006C12570015125400C111510070114F0091
:100C200021114B00D61049008D104700461044009A
:100C300002104200C00F4000800F3E00420F3C00F7
:100C4000060F3B00CB0E3800930E37005C0E3500CC
:100C5000270E3400F30D3200C10D3100900D30002D
:100C6000600D2E00320D2D00050D2C00D90C2B002F
:100C7000AE0C2900850C29005C0C2700350C2700E0
:100C80000E0C2600E80B2400C40B2400A00B23004C
:100C90007D0B23005A0B2100390B2100180B20007B
:100CA000F80A1F00D90A1E00BB0A1E009D0A1D007B
:100CB000800A1D00630A1C00470A1B002C0A1B0047
:100CC000110A1A00F7091A00DD091900C4091900F0
:100CD000AB091900920917007B0918006309170076
:100CE0004C09160036091600200916000A091500DD
:100CF000F5081500E0081400CC081400B80814002A
:100D0000A4081400900813007D0812006B0813005B
:100D10005808120046081200340811002308110078
:100D20001208110001081100F0071000E007100080
:100D3000D0071000C0071000B0070F00A107100077
:100D400091070E0083070F0074070F0065070E0060
:100D500057070E0049070E003B070D002E070E0037
:100D600020070D0013070D0006070D00F9060C0003
:100D7000ED060D00E0060C00D4060C00C8060C00C1
:100D8000BC060C00B0060C00A4060B0099060C0073
:100D90008D060B0082060B0077060B006C060B001D
:100DA00061060A0057060B004C060A0042060A00BC
:100DB00038060A002E060A0024060A001A060A004F
:100DC0001006090007060A00FD050900F4050900E0
:100DD000EB050900E2050900D9050900D005090065
:100DE000C7050900BE050900B5050800AD050800E6
:100DF000A50509009C050800940508008C0508005D
:100E0000840508007C050800740508006C050700CF
:100E1000650508005D050700560508004E0507003A
:100E200047050700400508003805070031050700A1
:100E30002A050700230507001C0506001605070004
:100E40000F0507000805060002050700FB04060061
:100E5000F5040700EE040600E8040600E2040700BB
:100E6000DB040600D5040600CF040600C904060012
:100E7000C3040600BD040600B7040600B104050063
:100E8000AC040600A6040600A00405009B040600AE
:100E900095040500900406008A04050085040500F9
:100EA000800406007A04050075040500700405003E
:100EB0006B04050066040500610405005C04050080
:100EC00057040500520405004D04050048040500C0
:100ED000430405003E0404003A04050035040500FF
:100EE000300404002C04050027040400230405003A
:100EF0001E0404001A040400160405001104040072
:100F00000D040400090405000404040000040400A6
:100F1000FC030400F8030400F4030400F0030400DD
:100F2000EC030400E8030400E4030400E00304000D
:100F3000DC030400D8030400D4030400D00304003D
:100F4000CC030400C8030300C503030024F404D940
:100F5000201BC40C5C0E9804C4095F026507710174
:100F6000F405F900FB04B30048048700C1036900DD
:100F70005803550003034500BE023A0084023100C5
:100F800053022A002902250004022000E4011C006B
:100F9000C8011900AF011700980114008401130063
:100FA000710110006101100051010E0043010D009C
:100FB00036010B002B010B0020010B00150109006D
:100FC0000C01090003010800FB000800F300080001
:100FD000EB000700E4000600DE000600D800060073
:100FE000D2000600CC000500C7000500C2000500C5
:100FF000BD000400B9000400B5000400B100040005
:10100000AD000400A9000400A5000300A200030035
:101010009F0004009B00030098000300950002005D
:1010200093000300900003008D0002008B0003007A
:101030008800020086000200840003008100020094
:101040007F0002007D0002007B00020079000200A8
:1010500077000100760002007400020072000100B7
:10106000710002006F0002006D0001006C000200C0
:101070006A000100690002006700010066000100CB
:1010800065000100640002006200010061000100CF
:10109000600001005F0002005D0001005C000100D3
:1010A0005B0001005A0001005900010058000100D6
:1010B00057000100560001005500010054000100D6
:1010C00053000000530001005200010051000100D4
:1010D000500001004F0001004E0000004E000100D2
:1010E0004D0001004C0001004B0000004B000100CE
:1010F0004A000100490001004800000048000100CA
:1011000047000100460000004600010045000000C5
:1011100045000100440001004300000043000100BD
:1011200042000000420001004100000041000100B7
:10113000400001003F0000003F0001003E000000B1
:101140003E0001003D0000003D0001003C000000A9
:101150003C0000003C0001003B0000003B0001009F
:101160003A0000003A000100390000003900010097
:10117000380000003800000038000100370000008F
:101180003700010036000000360000003600010084
:10119000350000003500000035000100340000007B
:1011A0003400000034000100330000003300000070
:1011B0003300010032000000320000003200010064
:1011C000310000003100000031000100300000005B
:1011D00030000000300001002F0000002F00000050
:1011E0002F0000002F0001002E0000002E00000044
:1011F0002E0001002D0000002D0000002D00000039
:101200002D0001002C0000002C0000002C0000002C
:101210002C0001002B0000002B0000002B00000020
:101220002B0001002A0000002A0000002A00000014
:101230002A00010029000000290000002900000008
:1012400029000000290001002800000028000000FB
:1012500028000000280000002800010027000000EE
:1012600027000000270000002700000027000100E1
:1012700026000000260000002600000026000000D6
:1012800026000100250000002500000025000000C8
:1012900025000000250000002500010024000000BA
:1012A00024000000240000002400000024000100AD
:1012B00023000000230000002300000023000000A2
:1012C0002300000023000000230001002200000092
:1012D0002200000022000000220000002200000086
:1012E0002200010021000000210000002100000078
:1012F0002100000021000000210000002100010069
:10130000200000002000000020000000200000005D
:10131000200000002000000020000000200001004C
:101320001F0000001F0000001F0000001F00000041
:101330001F0000001F0000001F0001001E00000031
:101340001E0000001E0000001E0000005072696EAA
:101350007465722068616C7465642E206B696C6CB6
:1013600028292063616C6C656421005072696E7479
:1013700065722073746F7070656420647565207485
:101380006F206572726F72732E20466978207468C0
:1013900065206572726F7220616E642075736520BE
:1013A0004D39393920746F20726573746172742EEF
:1013B000202854656D70657261747572652069735B
:1013C0002072657365742E205365742069742061E2
:1013D000667465722072657374617274696E6729D0
:1013E00000000048C20000000000000000000040B3
:1013F00040000040400000003F0000210024002782
:10140000002A002D00300033000101000004010714
:10141000010A0100002200250028002B002E0031C7
:1014200000340002010000050108010B010000204A
:10143000002300260029002C002F003200000100AC
:10144000000301060109010505050507050808084F
:1014500008020202020A0A08080404040401010145
:10146000010101010103030303030303030407074D
:10147000070C0C0C0C0C0C0C0C02020202060606EB
:1014800006060606060B0B0B0B0B0B0B0B010210D3
:10149000202008081020401020408002010201088E
:1014A000040201010204081020408080402010083E
:1014B0000402018004020180402010080402010897
:1014C00004020101020408102040800102040810F7
:1014D00020408000000A0B02090C0D0E08070304CF
:1014E00001000000000000000000000000000000FB
:1014F00000000000000000000000000000000012DA
:1015000011100000000000000000000000000000BA
:101510000000000000000000004D3234004D323366
:10152000202573006175746F25692E6700536574FB
:1015300074696E67732053746F726564005A323A2F
:1015400000457874656E646572204F6666736574D5
:101550003A0059323A00457874656E646572204FDE
:1015600066667365743A0058323A005365636F6E6D
:1015700064657279204D617820506F733A00204481
:10158000002049002020204D3330312050005049A8
:10159000442073657474696E67733A00205A0020A2
:1015A000590020204D323036205800486F6D65209C
:1015B0006F666673657420286D6D293A00204500BA
:1015C000205A0020580020420020540020204D3294
:1015D0003035205300416476616E63656420766126
:1015E000726961626C65733A20533D4D696E206685
:1015F0006565647261746520286D6D2F73292C20D8
:10160000543D4D696E2074726176656C2066656527
:10161000647261746520286D6D2F73292C20423D02
:101620006D696E696D756D207365676D656E74208B
:1016300074696D6520286D73292C20583D6D617883
:10164000696D756D205859206A65726B20286D6D23
:101650002F73292C20205A3D6D6178696D756D209E
:101660005A206A65726B20286D6D2F73292C2020FB
:10167000453D6D6178696D756D2045206A65726BB9
:1016800020286D6D2F73290020540020204D32300A
:1016900034205300416363656C65726174696F6ED9
:1016A0003A20533D616363656C65726174696F6E66
:1016B0002C20543D726574726163742061636365AC
:1016C0006C65726174696F6E00204500205A0020BD
:1016D000590020204D3230312058004D6178696D1D
:1016E000756D20416363656C65726174696F6E200E
:1016F000286D6D2F7332293A00204500205A0020B2
:10170000590020204D3230332058004D6178696DEA
:10171000756D2066656564726174657320286D6DF2
:101720002F73293A00204500205A0020590020201C
:101730004D393220580053746570732070657220E3
:10174000756E69743A0020746F6F206C6F6E67203D
:10175000657874727573696F6E2070726576656EE8
:101760007465640020636F6C6420657874727573AF
:10177000696F6E2070726576656E7465640065636E
:10178000686F3A00526573656E643A20006F6B00B3
:10179000486F74656E64206F6666736574733A0093
:1017A00020423A0020453A00543A0020573A00209F
:1017B000453A00543A00FFFFFF00C00A440000020F
:1017C00044008018440080FC43000002440080185C
:1017D00044000048C2000000000000000000CAC130
:1017E00086C111241FBECFEFD1E2DEBFCDBF00E026
:1017F0000CBF15E0A0E0B2E0E6E5F6EB01E00BBFC0
:1018000002C007900D92AC37B107D9F728E1ACE7D9
:10181000B5E001C01D92AF33B207E1F71BE0C0EFA6
:10182000DBE000E006C021970109802FFE010E9445
:10183000B7D9CF3ED10780E00807A9F70E9469B366
:101840000C941ADB0C9400002F923F924F925F92FF
:101850006F927F928F929F92AF92BF92CF92DF92C0
:10186000EF92FF920F931F93CF93DF93CDB7DEB725
:10187000CD56D1090FB6F894DEBF0FBECDBF809113
:101880003706882341F00E94EF2A109273151092B8
:1018900072151092370687E40E9487B1D82E8823EC
:1018A00009F48EC00E94ADB10E9444D76430710526
:1018B00009F476C0F4F46230710509F45EC00CF0EE
:1018C00064C077FF02C00C94841D812C912CF0E839
:1018D000AF2EFFE4BF2EF3ECCF2EF7ECDF2E860108
:1018E0007501A6019501C601B5010E9430980C94BE
:1018F000841D6A35710509F45AC02CF56C317105E7
:1019000011F00C94841D6FE672E183E89AE30E9463
:10191000EEB26FE672E183E89AE30E94EEB26FE600
:1019200072E183E89AE30E94EEB26FE672E183E827
:101930009AE30E94EEB260E070E080E090E00E94E6
:10194000FAA40C94841D6B357105A9F16C357105F1
:1019500011F00C94841DE0E8AE2EEFE4BE2EE3EC13
:10196000CE2EE7ECDE2E86017501A6019501C6019B
:10197000B5010E94B6B10C94841D80911B068111A3
:1019800004C00E94859781E007C080911B068111E9
:1019900007C00E94859780E00E94448F0C949F1F8F
:1019A00060E070E0CB010E94EEB20C94841D1092B6
:1019B000BB170C94841D81E08093BB170C94841D8D
:1019C0008DE40E9487B1882311F40C94361D0E9487
:1019D000ADB10E9444D76737710509F495C10CF089
:1019E000C4C06032710509F435C40CF054C06731CD
:1019F000710509F4EEC1BCF56231710509F47FC6C9
:101A000024F577FF02C00C94841D623071050CF43C
:101A10007EC16131710511F00C94841D5F98479867
:101A20008A989FB7F894809108018E7F809308016F
:101A30009FBF9FB7F894809108018B7F8093080126
:101A40009FBF8D9812980C94841D6531710509F41F
:101A5000B4C10CF0B6C16431710511F00C94841D51
:101A6000E6E6F5E061C16B31710509F4F7C13CF4BC
:101A70006931710509F4DEC10CF4C6C1E1C16E31F2
:101A8000710509F475C20CF057C46C31710509F485
:101A900039C20C94841D6C35710509F46AC69CF535
:101AA0006235710509F422C664F46035710509F4E4
:101AB00013C60CF015C66A32710509F497C40C946C
:101AC000841D6435710509F41AC60CF413C6653516
:101AD000710511F00C94841D83E50E9487B10E946A
:101AE000ADB120E030E04AE754E40E9482CA0E948F
:101AF0004AD760932C1270932D1280932E129093DC
:101B00002F120C94841D6B36710509F4DFC59CF40B
:101B10006936710509F4B2C40CF088C568367105E0
:101B200011F00C94841D6FEF7FEF8FEF9FEF0E94F9
:101B3000AEA10C94841D6237710509F4C8C65CF42B
:101B40006D36710511F00C94841D8FEF9FEF0E948C
:101B5000F19D0C94841D6337710509F492C66537B5
:101B6000710509F49DC60C94841D6F3221E0720743
:101B700011F40C947E180CF063C06D3C710511F4E7
:101B80000C944B164CF56E3B710509F449C564F491
:101B90006937710509F47EC70CF477C76C38710595
:101BA00009F442C40C94841D6B3C710511F40C942F
:101BB0000E1614F00C942B16693C710511F00C9460
:101BC000841D3EE0E32E3DE0F32E03ED12E044E001
:101BD000D42ED00E0C94F6156D3D710511F40C94B5
:101BE0009317D4F46A3D710511F40C94BE166C3D44
:101BF000710511F40C9484176E3C710511F00C946E
:101C0000841D1CEDE12E17E1F12E03ED12E083E0BF
:101C1000D82ED00E0C94AF166D3241E0740711F43B
:101C20000C94A21714F00C946A18623E710511F01E
:101C30000C94841D81E090E00E945D6C0C94841DE6
:101C4000673E83E0780711F40C941E1D6CF5663F27
:101C5000A1E07A0711F40C94B91B94F4643FE1E01D
:101C60007E0711F40C94B31B14F00C94B61B60396E
:101C7000714011F00C94841D0E945BB30C94841D80
:101C80006D3532E0730711F40C94BE1B603A43E0EB
:101C9000740709F418C3673F714011F00C94841D58
:101CA0000E9417790C94841D673084E0780711F442
:101CB0000C94C61C9CF46F3FA3E07A0711F40C94BB
:101CC000E51B6115B4E07B0711F40C94FD1B693E24
:101CD000734011F00C94841D0C94C31B6930F4E024
:101CE0007F0711F40C94C31C14F40C94151C603180
:101CF00034E0730711F40C94CB1C6A31744011F476
:101D00000C94F31C0C94841DE6EEF2E0CEC681E048
:101D100090E00E945D6C0C94841D9091C00095FF32
:101D2000FCCF8093C600319684918111F6CF8091CB
:101D3000C00085FFFCCF8AE08093C6001092681730
:101D40001092671740E050E0BA018CEA95E10E94DA
:101D5000D84D8BE1ECEAF5E1DE01159601900D928C
:101D60008A95E1F78091AA159091AB159C838B839E
:101D700087E792E09A838983BE016F5F7F4F85EE8C
:101D800094E00E946829CE0101960E94924BE8E5FA
:101D9000F5E08491882341F09091C00095FFFCCF3D
:101DA0008093C6003196F5CF8091C00085FFFCCFAF
:101DB0008AE08093C6000C94841D0E949B270C949B
:101DC000841D1092731510927215109274150C9454
:101DD000841DE0902006F090210654E0E50EF11CF1
:101DE0006AE270E0C7010E94E2DA009719F0FC0194
:101DF0003197108200E010E0980141E0B701C7017F
:101E00000E94FC2A0C94841D80917415882331F063
:101E100081E090E090937315809372150E9438557D
:101E200060938B0570938C0580938D0590938E0540
:101E30000C94841D81E090E00E945D6C0C94841DE4
:101E400080917415882311F40C94841D83E50E94FD
:101E500087B181110C94871D0C94841D8091741599
:101E6000882309F439C0E9EDF2E08491882341F038
:101E70009091C00095FFFCCF8093C6003196F5CFBE
:101E80006091A0157091A1158091A2159091A31554
:101E90004AE00E941D75E7EDF2E08491882341F04D
:101EA0009091C00095FFFCCF8093C6003196F5CF8E
:101EB0006091A4157091A5158091A6159091A71514
:101EC0004AE00E941D758091C00085FFFCCF8AE02A
:101ED0008093C6000C94841DEBEEF2E0849188237D
:101EE00041F09091C00095FFFCCF8093C6003196E1
:101EF000F5CF8091C00085FFFCCF8AE08093C600BB
:101F00000C94841D80912006909121066AE270E075
:101F100004960E94E2DA8C01892BE1F02091BA0745
:101F20003091BB0740E6429FC001439F900D1124B2
:101F30006EE470E0865C994F0E94E2DA60E270E045
:101F40000E94E2DA01969093210680932006F80120
:101F5000319710828091200690912106049600E02E
:101F600010E0980140E0BC010E94FC2A0C94841D02
:101F700080917415882311F40C94841D0E94EF2A1B
:101F800080912006909121066AE270E004960E94FA
:101F9000E2DA8C01892BE1F02091BA073091BB077E
:101FA00040E6429FC001439F900D11246EE470E013
:101FB000865C994F0E94E2DA60E270E00E94E2DA09
:101FC00001969093210680932006F80131971082A4
:101FD000009120061091210680917415882311F438
:101FE0000C94841D480184E0880E911C87E497E1DD
:101FF0000E9440541092731510927215DE011196D2
:102000007D01CD010E94994B88EA95E19093C81516
:102010008093C715F80184818F3209F08BC06FE27D
:1020200070E0C4010E94E2DA8C010F5F1F4F7AE07A
:10203000C72E0115110509F483C06FE270E0C801D5
:102040000E94E2DA5C01009709F47BC008171907C7
:1020500008F077C03C01601A710AA301B801CE01F3
:1020600080960E940BDBE0E2F0E0EC0FFD1FE60D36
:10207000F71D10828E01005E1F4FF80181918823A9
:1020800039F09091C00095FFFCCF8093C600F6CF49
:102090008091C00085FFFCCFC092C6006091C7153B
:1020A0007091C8156115710511F06C5F7F4F21E0CB
:1020B000AE01405E5F4FCE0105960E9448548111EB
:1020C00031C0E5E2F3E08491882371F09091C00083
:1020D00095FFFCCF8093C6003196F5CF9091C0005C
:1020E00095FFFCCF8093C600D8018D918D018111A1
:1020F000F5CFE3E2F3E08491882341F09091C000B2
:1021000095FFFCCF8093C6003196F5CF8091C0003B
:1021100085FFFCCF8AE08093C600C7010E94924BE6
:102120000C94841DF092C815E092C71585010F5FCD
:102130001F4F7FCF89EC95E19093C8158093C71509
:1021400084016091C7157091C8156115710511F072
:102150006C5F7F4F18A21BA222E0A801CE018096DF
:102160000E9448548823F1F0CE0180960E944B765D
:102170008823C1F06CA57DA58EA59FA541E00E9496
:10218000E84B882379F0E8A9B0E2EB9FF001112435
:10219000E85BFD4E309731F085EE80831BA20E94F4
:1021A000AA4BD82ECE0180960E940844DD2009F16A
:1021B000E5E1F3E08491882341F09091C00095FF20
:1021C000FCCF8093C6003196F5CFF801819188232A
:1021D00039F09091C00095FFFCCF8093C600F6CFF8
:1021E0001092A0151092A1151092A2151092A3158D
:1021F0002CC0EDEFF2E08491882341F09091C00073
:1022000095FFFCCF8093C6003196F5CFF801819100
:10221000882339F09091C00095FFFCCF8093C600D1
:10222000F6CFEBEFF2E08491882341F09091C0006B
:1022300095FFFCCF8093C6003196F5CF8091C0000A
:1022400085FFFCCF8AE08093C600C7010E94924BB5
:102250000C94841D8091721590917315019721F44F
:102260000E945BB30E94EF2AE0902006F0902106C6
:10227000E4E0EE0EF11C6AE270E0C7010E94E2DACF
:10228000009719F0FC013197108200E010E09801EE
:1022900041E0B701C7010E94FC2A80917415882390
:1022A00031F081E090E090937315809372150E9455
:1022B000385560938B0570938C0580938D059093B2
:1022C0008E050C94841D80912006909121066AE26F
:1022D00070E005960E94E2DA8C01892BE1F02091F2
:1022E000BA073091BB0740E6429FC001439F900D63
:1022F00011246EE470E0865C994F0E94E2DA60E29D
:1023000070E00E94E2DA0196909321068093200605
:10231000F801319710828091200690912106059650
:1023200021E02093711500E010E0980140E0BC012D
:102330000E94FC2A0C94841D0E94385560938F05DE
:1023400070939005809391059093920500918B0571
:1023500010918C0520918D0530918E05601B710BBD
:10236000820B930B28EE33E040E050E00E94A9D5A9
:10237000CA01B9012CE330E040E050E00E94A9D549
:102380007F936F933F932F9389E495E09F938F936F
:102390008E010F5F1F4F1F930F930E94DECFE9E462
:1023A000F6E084910FB6F894DEBF0FBECDBF882350
:1023B00049F09091C00095FFFCCF8093C600319604
:1023C0008491F5CFF8018191882339F09091C00074
:1023D00095FFFCCF8093C600F6CF8091C00085FFAB
:1023E000FCCF8AE08093C6000C94841D83E50E9494
:1023F00087B1882311F40C94841D0E94ADB16B0148
:102400007C0180E50E9487B1882311F40C94841D1F
:10241000C701B6010E9444D76F3F710509F010F45F
:102420000C94981D0C94841D83E50E9487B1882329
:1024300011F40C94841D0E94ADB16B017C0180915C
:10244000600C9091610C0196BC01990F880B990B5F
:102450000E9413D09B01AC01C701B6010E940DD0B0
:1024600087FD02C00C94841DC701B6010E9444D7A9
:1024700070933906609338060C94841D89E690E0C9
:102480000E94CB6C81110C94841DE3E4F5E08491EF
:10249000882341F09091C00095FFFCCF8093C60047
:1024A0003196F5CF6091580C7091590C80915A0C6F
:1024B00090915B0C41E00E94A475E1E4F5E0849109
:1024C000882341F09091C00095FFFCCF8093C60017
:1024D0003196F5CF6091131870911418072E000CE7
:1024E000880B990B0E9413D041E00E94A475ECE385
:1024F000F5E08491882341F09091C00095FFFCCFD6
:102500008093C6003196F5CF60915C0C70915D0CA4
:1025100080915E0C90915F0C41E00E94A475EAE30B
:10252000F5E08491882341F09091C00095FFFCCFA5
:102530008093C6003196F5CF6091151870911618EA
:10254000072E000C880B990B0E9413D041E00E94CB
:10255000A475E6E3F5E08491882341F09091C000F2
:1025600095FFFCCF8093C6003196F5CF6091540C57
:102570007091550C8091560C9091570C41E00E943F
:10258000A475E3E3F5E08491882341F09091C000C5
:1025900095FFFCCF8093C6003196F5CF6091380649
:1025A00070913906072E000C880B990B0E9413D0EE
:1025B00041E00E94A475EFE2F5E08491882341F0A8
:1025C0009091C00095FFFCCF8093C6003196F5CF67
:1025D000E0913412F0E0E259F34F608170E080E066
:1025E00090E00E949275EAE2F5E08491882341F040
:1025F0009091C00095FFFCCF8093C6003196F5CF37
:1026000060916D0C70E080E090E00E949275809186
:10261000C00085FFFCCF8AE08093C6000C949F1F0A
:102620008FEF9FEF0E945FA20C94841D82E50E94B1
:1026300087B1811105C020E030E040E85FE30BC0C6
:102640000E94ADB10E9444D761307105A1F723E328
:1026500033E343E250E483E5A7962FAFA797A8960C
:102660003FAFA897A9964FAFA997AA965FAFAA9731
:102670000E9487B1882311F10E94ADB1A7962FADBA
:10268000A797A8963FADA897A9964FADA997AA96E8
:102690005FADAA970E9482CA0E9444D76F3F71051E
:1026A00019F014F06FEF70E077FF02C060E070E0A7
:1026B0007093390C6093380C0C94841D8FEF90E06C
:1026C0009093390C8093380C0C94841D1092390C23
:1026D0001092380C0C94841D999AA19A0C94841D24
:1026E00061E080E00E945EB10C94841D1092BF17DF
:1026F0000C94841D81E08093BF170C94841D83E5A6
:102700000E9487B18823A1F00E94ADB120E030E0A3
:102710004AE754E40E9482CA0E944AD760932B027F
:1027200070932C0280932D0290932E020C94841DA2
:1027300088E50E9487B181110C949B1D89E50E9458
:1027400087B181110C949B1D8AE50E9487B181118C
:102750000C949B1D85E40E9487B181110C949B1DF4
:102760000E945BB38D9A129A81E00E94955F0C944F
:10277000841D53ED852E52E0952E0AEF17E067E891
:10278000A62E67E1B62E4EEF5CE05CAF4BAF312C6E
:10279000D4018D914D010E9487B1882309F45EC058
:1027A000B3E03B1254C00E94ADB12B013C0120E0CC
:1027B00030E040EA51E40E940DD087FF41C0A30100
:1027C0009201F80160817181828193810E94D3D648
:1027D0006B017C019B01AC016091731770917417C0
:1027E00080917517909176170E9482CA6093731733
:1027F000709374178093751790937617A7019601BD
:10280000D5016D917D918D919C910E9482CAF501B7
:102810006083718382839383ABADBCAD6D917D91F9
:102820008D919C910E9411D0A70196010E9482CAAD
:102830000E944AD7EBADFCAD6083718382839383A2
:10284000D8014D925D926D927C92139707C00E94C1
:10285000ADB1F801608371838283938333940C5FFD
:102860001F4FF4E0AF0EB11C2BAD3CAD2C5F3F4FC2
:102870003CAF2BAF34E033128BCF0E94D07C0C9452
:10288000841DE4E8F4E08491882311F40C94841D01
:102890009091C00095FFFCCF8093C6003196F3CF96
:1028A00000912006109121060B5F1F4F6AE270E035
:1028B000C8010E94E2DA009719F0FC0131971082FA
:1028C000B8018FEF94E10E940A720C94841DE1E834
:1028D000F4E08491882341F09091C00095FFFCCFF3
:1028E0008093C6003196F5CF6091DA077091DB07CF
:1028F0008091DC079091DD0742E00E94A475EEE72D
:10290000F4E08491882341F09091C00095FFFCCFC2
:102910008093C6003196F5CF6091DE077091DF0796
:102920008091E0079091E10742E00E94A475EBE7F7
:10293000F4E08491882341F09091C00095FFFCCF92
:102940008093C6003196F5CF6091E2077091E3075E
:102950008091E4079091E50742E00E94A475E8E7C2
:10296000F4E08491882341F09091C00095FFFCCF62
:102970008093C6003196F5CF6091E6077091E70726
:102980008091E8079091E90742E00E94A475EDE686
:10299000F4E08491882341F09091C00095FFFCCF32
:1029A0008093C6003196F5CF2FB7F8946091CA078F
:1029B0007091CB078091CC079091CD072FBF0E94DB
:1029C00013D02091FA073091FB074091FC075091FA
:1029D000FD070E94D3D642E00E94A475EAE6F4E027
:1029E0008491882341F09091C00095FFFCCF8093A3
:1029F000C6003196F5CF2FB7F8946091CE0770914D
:102A0000CF078091D0079091D1072FBF0E9413D09C
:102A10002091FE073091FF07409100085091010876
:102A20000E94D3D642E00E94A475E7E6F4E08491C8
:102A3000882341F09091C00095FFFCCF8093C600A1
:102A40003196F5CF2FB7F8946091D2077091D307E4
:102A50008091D4079091D5072FBF0E9413D0209169
:102A600002083091030840910408509105080E9423
:102A7000D3D642E00E94A4758091C00085FFFCCFB0
:102A80008AE08093C6000C94841D80E00E94655FFC
:102A90000C94841D81E00E94655F0C94841D9091CC
:102AA000C00095FFFCCF8093C60081918111F7CFC4
:102AB0008091C00085FFFCCF8AE08093C600EFE5DF
:102AC000F4E08491882341F09091C00095FFFCCF01
:102AD0008093C6003196F5CF659B03C0E7EDF2E029
:102AE00009C0ECEDF2E006C09091C00095FFFCCF6C
:102AF0008093C60081918111F7CF8091C00085FF3E
:102B0000FCCF8AE08093C600E7E5F4E08491882357
:102B100041F09091C00095FFFCCF8093C6003196A4
:102B2000F5CF649B03C0E7EDF2E009C0ECEDF2E005
:102B300006C09091C00095FFFCCF8093C6008191A4
:102B40008111F7CF8091C00085FFFCCF8AE0809390
:102B5000C600EFE4F4E08491882341F09091C00036
:102B600095FFFCCF8093C6003196F5CF809103018D
:102B700081FF03C0E7EDF2E009C0ECEDF2E006C032
:102B80009091C00095FFFCCF8093C6008191811188
:102B9000F7CF8091C00085FFFCCF8AE08093C6000C
:102BA000E7E4F4E08491882341F09091C00095FF20
:102BB000FCCF8093C6003196F5CF4B9B03C0E7ED69
:102BC000F2E009C0ECEDF2E006C09091C00095FF84
:102BD000FCCF8093C60081918111F7CF8091C00016
:102BE00085FFFCCF8AE08093C6008EC7D8018D9107
:102BF0008D010E9487B1882349F00E94ADB10E94E7
:102C00004AD7F7016083718382839383F4E0EF0EE8
:102C1000F11CD012EBCF0E94B36876C797E8E92E7B
:102C200097E1F92E03ED12E024E0D22ED00ED80168
:102C30008D918D010E9487B1882339F00E94ADB13A
:102C4000F7016083718382839383F4E0EF0EF11CBC
:102C5000D012EDCF59C783E50E9487B1882351F088
:102C60000E94ADB160937F17709380178093811796
:102C70009093821784E50E9487B1882309F444C7A2
:102C80000E94ADB16093831770938417809385176A
:102C90009093861739C783E50E9487B1882351F046
:102CA0000E94ADB160939B1770939C1780939D1702
:102CB00090939E1784E50E9487B1882351F00E946B
:102CC000ADB160939F177093A0178093A117909355
:102CD000A21782E40E9487B1882361F00E94ADB1FF
:102CE0000E944AD76093971770939817809399170B
:102CF00090939A1788E50E9487B1882351F00E942B
:102D0000ADB160937B1770937C1780937D17909380
:102D10007E178AE50E9487B1882351F00E94ADB1E9
:102D200060937717709378178093791790937A1739
:102D300085E40E9487B1882309F4E6C60E94ADB1FC
:102D40006093731770937417809375179093761729
:102D5000DBC6F4E0EF0EF11CD01609F4D5C6D8019D
:102D60008D918D010E9487B1882399F30E94ADB1A6
:102D7000F7016083718382839383EBCF8AED90E0C8
:102D80000E94CB6C8111C0C688E50E9487B1882360
:102D900081F00091341210E00E94ADB1000F111FBC
:102DA000000F111FF801ED5AFA4E60837183828380
:102DB000938389E50E9487B1882381F000913412C2
:102DC00010E00E94ADB1000F111F000F111FF8019C
:102DD000E55AFA4E60837183828393838AE50E9469
:102DE00087B1882381F00091341210E00E94ADB1C8
:102DF000000F111F000F111FF801ED59FA4E6083EB
:102E0000718382839383E9E4F6E08491882341F01F
:102E10009091C00095FFFCCF8093C6003196F5CF0E
:102E2000E7E3F4E08491882341F09091C00095FF9E
:102E3000FCCF8093C6003196F5CF1092341280916A
:102E40003412823008F058C0E4EEF4E08191882317
:102E500039F09091C00095FFFCCF8093C600F6CF6B
:102E6000E091341224E0E29FF0011124ED5AFA4E71
:102E7000608171818281938142E00E94A4750FEF8D
:102E800012E0F8018191882339F09091C00095FFFC
:102E9000FCCF8093C600F6CFE091341234E0E39F7C
:102EA000F0011124E55AFA4E60817181828193818B
:102EB00042E00E94A475D8018D918D01882339F0DC
:102EC0009091C00095FFFCCF8093C600F4CFE091B5
:102ED0003412B4E0EB9FF0011124ED59FA4E6081F9
:102EE00071818281938142E00E94A47580913412A5
:102EF0008F5F80933412A3CF8091C00085FFFCCFF9
:102F00008AE08093C60000C683E50E9487B18823CB
:102F100009F4FAC50E94ADB10E9444D770936602CD
:102F200060936502F1C583E50E9487B1882309F4A7
:102F3000EBC50E94ADB10E9444D7709330026093FC
:102F40002F02E2C580E50E9487B1882351F00E94DC
:102F5000ADB160931C0270931D0280931E0290938A
:102F60001F0289E40E9487B1882381F00E94ADB1DD
:102F70002DEB37E346E05EE30E9482CA60931802BD
:102F80007093190280931A0290931B0284E40E94AA
:102F900087B1882381F00E94ADB12DEB37E346E085
:102FA0005EE30E94D3D6609314027093150280935F
:102FB00016029093170283E40E9487B1882351F090
:102FC0000E94ADB1609300027093010280930202EF
:102FD000909303020E944C5FE1E0F3E0819188232B
:102FE00039F09091C00095FFFCCF8093C600F6CFDA
:102FF000E4E0F3E08191882339F09091C00095FFDF
:10300000FCCF8093C600F6CF60911C0270911D0228
:1030100080911E0290911F0242E00E94A475E8E098
:10302000F3E08191882339F09091C00095FFFCCFA7
:103030008093C600F6CF2DEB37E346E05EE3609168
:1030400018027091190280911A0290911B020E943D
:10305000D3D642E00E94A475ECE0F3E0819188238E
:1030600039F09091C00095FFFCCF8093C600F6CF59
:103070002DEB37E346E05EE3609114027091150298
:1030800080911602909117020E9482CA42E00E942B
:10309000A475E0E1F3E08191882339F09091C000BC
:1030A00095FFFCCF8093C600F6CF6091000270912F
:1030B0000102809102029091030242E00E94A475F5
:1030C0008091C00085FFFCCF8AE08093C6000E94FB
:1030D000D07C1AC583E50E9487B1882319F00E942D
:1030E000ADB103C060E070E0CB016093A3177093B3
:1030F000A4178093A5179093A61706C585E40E9490
:1031000087B1882341F00E94ADB10E9444D78B0162
:1031100077FD12C002C000E010E02B961FAE2B9787
:103120002C961FAE2C97E6E12D96EFAF2D97F3E48A
:103130002E96FFAF2E970EC02B961FAE2B972C9678
:103140001FAE2C972CE82D962FAF2D9732E42E969C
:103150003FAF2E9783E50E9487B1882371F00E94CC
:10316000ADB12B966FAF2B972C967FAF2C972D96EA
:103170008FAF2D972E969FAF2E9783E40E9487B135
:10318000882349F00E94ADB10E9444D7A2967FAF38
:103190006EAFA29706C045E050E0A2965FAF4EAF7B
:1031A000A2970E9438552A966CAF7DAF8EAF9FAF25
:1031B0002A97033011051CF4E4E1F3E01AC0E7E2BA
:1031C000F3E08191882339F09091C00095FFFCCF06
:1031D0008093C600F6CF8091C00085FFFCCF8AE0C7
:1031E0008093C60091C49091C00095FFFCCF80935E
:1031F000C60081918111F7CF8091C00085FFFCCF7F
:103200008AE08093C6000E948E558FE717FF63C047
:1032100080936D0C2A964CAC5DAC6EAC7FAC2A975B
:1032200064964CAE5DAE6EAE7FAE6497A6964CAE25
:103230005DAE6EAE7FAEA697AB961FAEAB9720E4A9
:10324000AC962FAFAC973CE1AD963FAFAD9746E45F
:10325000AE964FAFAE9765961FAE659766961FAE5A
:10326000669767961FAE679768961FAE68976FE779
:10327000462E512C612C712C26964CAE5DAE6EAE56
:103280007FAE26977FE7872E912CA12CB12C6E96CE
:103290001CAE1DAE1EAE1FAE6E9721E02EAF609627
:1032A0001FAE1EAE60971BAE212C312C1DAEA801A7
:1032B0004259534FA0965FAF4EAFA097C801880FF9
:1032C000991F880F991FDC01A85AB34F6A96BFAFA8
:1032D000AEAF6A9707C0F801E259F34F80839ACFE7
:1032E0000E946AA980916C0C882309F44EC10E9447
:1032F000905B17FF0BC04090540C4BAE2090550CC8
:103300003090560C5090570C5DAE0EC06A96AEAD24
:10331000BFAD6A97BC91BBAF6A96EEADFFAD6A9741
:103320002180328043804DAE2BAD322D432D5DADDB
:1033300065966FAD659766967FAD669767968FAD1C
:10334000679768969FAD68970E9430D8181674F0FA
:103350005BAC65965FAE659766962FAE669767968F
:103360003FAE67976DAC68966FAE68972BAD322D08
:10337000432D5DADAB966FADAB97AC967FADAC9783
:10338000AD968FADAD97AE969FADAE970E940DD026
:1033900087FD0EC07BACAB967FAEAB97AC962FAEE5
:1033A000AC97AD963FAEAD974DACAE964FAEAE97E7
:1033B0005EAC552009F475C02B962FAD2B972C963B
:1033C0003FAD2C972D964FAD2D972E965FAD2E9736
:1033D0006BAD722D832D9DAD0E9430D818160CF068
:1033E000D4C00E943855DC01CB012A964CAC5DACB0
:1033F0006EAC7FAC2A9784199509A609B70989385C
:103400009341A105B10508F4C0C0D501C4012696B9
:103410004CAC5DAC6EAC7FAC269784199509A609BF
:10342000B709B595A7959795879517FF03C0809322
:103430006D0C05C0A096EEADFFADA09780830E94F5
:10344000385564966CAF7DAF8EAF9FAF64972B01FC
:103450003C012A962CAD3DAD4EAD5FAD2A97421A88
:10346000530A640A750A6E964CAE5DAE6EAE7FAEC0
:103470006E972B964FAC2B9765964FAE65972C9613
:103480005FAC2C9766965FAE66972D966FAC2D97C6
:1034900067966FAE67972E967FAC2E9768967FAE35
:1034A00068972B962FAD2B972C963FAD2C972D968A
:1034B0004FAD2D972E965FAD2E976BAD722D832D50
:1034C0009DAD0E940DD087FF38C50E943855DC01A4
:1034D000CB0164964CAC5DAC6EAC7FAC6497841948
:1034E0009509A609B70989389341A105B10508F4E2
:1034F00024C50E9438552A966CAF7DAF8EAF9FAF22
:103500002A97DC01CB0184199509A609B7096096B1
:103510004EAC5FAC6097141415040CF438C32696B7
:103520008CAD9DADAEADBFAD2697880D991DAA1D82
:10353000BB1DB595A7959795879517FFF8C4809300
:103540006D0C60962EAD3FAD60972F5F3F4F60963C
:103550003FAF2EAF60972B964FAC2B97AB964FAEED
:10356000AB972C965FAC2C97AC965FAEAC972D9634
:103570006FAC2D97AD966FAEAD972E967FAC2E9714
:10358000AE967FAEAE9721E02EAF20E030E040EA6D
:1035900051E42B966FAD2B972C967FAD2C972D96E3
:1035A0008FAD2D972E969FAD2E970E94E5D59B014E
:1035B000AC016BAD722D832D9DAD0E9430D81816D5
:1035C000ACF4E2EBF3E08491882341F09091C000E9
:1035D00095FFFCCF8093C6003196F5CF8091C00057
:1035E00085FFFCCF8AE08093C6008EC20E943855CA
:1035F000DC01CB01A6964CAC5DAC6EAC7FACA69763
:1036000084199509A609B709813D9740A105B1051F
:1036100008F44EC017FF10C0E0906D0CF12CECEADE
:10362000F3E084918823D9F09091C00095FFFCCFFE
:103630008093C6003196F5CFA096AEADBFADA097F2
:10364000EC90F12CE6EAF3E08491882341F090912C
:10365000C00095FFFCCF8093C6003196F5CF42E0C5
:103660006BAD722D832D9DAD0E94A475E2EAF3E04F
:103670008491882341F09091C00095FFFCCF809306
:10368000C6003196F5CFB701FF0C880B990B0E944D
:1036900092758091C00085FFFCCF8AE08093C600C0
:1036A0000E943855A6966CAF7DAF8EAF9FAFA697A0
:1036B0000E9438556B017C010E94385564962CADF0
:1036C0003DAD4EAD5FAD64972A964CAC5DAC6EAC33
:1036D0007FAC2A97240D351D461D571DC21AD30AEB
:1036E000E40AF50ADC01CB018C0D9D1DAE1DBF1D4A
:1036F00081389F44A241B105A8F0E5E8F3E0849148
:10370000882341F09091C00095FFFCCF8093C600C4
:103710003196F5CF8091C00085FFFCCF8AE0809381
:10372000C600F2C160964EAC5FAC6097A2966EACDC
:103730007FACA297641475040CF0D2CDE9E3F3E0FA
:103740008491882341F09091C00095FFFCCF809335
:10375000C6003196F5CF8091C00085FFFCCF8AE08E
:103760008093C600D1C10E94D07CCEC10E94034A82
:10377000CBC10E945C480E94DC2FC6C18FEF9FEF37
:103780000E94E79CC1C183E50E9487B1882309F4A8
:10379000BBC10E94ADB10E9444D770939405609361
:1037A00093056531710534F084E190E090939405C0
:1037B00080939305809193059091940597FF5DC840
:1037C000109294051092930558C883E50E9487B122
:1037D000882309F499C10E94ADB10E9444D721E029
:1037E00030E06130710511F020E030E03093810568
:1037F000209380050E94D07C87C183E50E9487B119
:10380000882309F481C10E94ADB10E9444D721E010
:1038100030E06130710511F020E030E030937F0539
:1038200020937E050E94D07C6FC180916302882323
:1038300009F46AC182E090E0909373158093721549
:1038400084E50E9487B1882309F448C00E94ADB185
:103850000E9444D78B01CB010E946299FF24F3940C
:10386000012B09F0F12CAF2CB12C88E40E9487B118
:10387000882331F00E94ADB10E9444D78B0102C071
:1038800000E010E089E40E9487B18823B1F00E9433
:10389000ADB10E9444D76B01FF2059F016161706F0
:1038A0001CF4C5010E94AEA110161106BCF4C8019B
:1038B00013C01016110644F00BC0F110F5CF10160E
:1038C000110664F4C12CD12CB801C5010E94AEA12F
:1038D0001C141D041CF4C6010E94F19D60E070E000
:1038E00081EF9FEF0E94F56BC0903512D090361299
:1038F000E0903712F090381220E030E04AE754E4CC
:10390000C701B6010E9430D818164CF4C092670265
:10391000D0926802E0926902F0926A020CC080E0E4
:1039200090E0AAE7B5E48093670290936802A093C1
:103930006902B0936A02A0903912B0903A12C09016
:103940003B12D0903C1210E8E12E1FE4F12E03EC64
:1039500017ECA8019701C801B7010E94B6B11092F7
:103960007D0510927C05109273151092721580914E
:103970007415882309F4C8C081E090E09093731512
:1039800080937215C1C00E94936BBEC080E090E02E
:103990000E945D6CB9C083E50E9487B1882309F459
:1039A000B3C00E94ADB16B017C0120E030E0A90101
:1039B0000E940DD0811104C081E080936302A4C0F5
:1039C00020E030E040E251E4C701B6010E94D3D6C6
:1039D0006093340C7093350C8093360C9093370CB5
:1039E0001092630291C061E080E10E94E27361E0A5
:1039F00081E10E94E27383E50E9487B1882309F484
:103A000083C00E94ADB10E9444D76115710549F48D
:103A100061E080E10E94B37360E081E10E94B373D2
:103A200073C06130710509F06FC061E081E10E94EF
:103A3000B37360E080E10E94B37366C010921B060E
:103A40008091301290913112A0913212B0913312C4
:103A500080931C0690931D06A0931E06B0931F062C
:103A60000E940398E0E0F0E019954EC084E50E94C2
:103A700087B1882329F08FEF9FEF0E94629944C09D
:103A8000E9E4F6E08491882341F09091C00095FF2D
:103A9000FCCF8093C6003196F5CFE4E2F4E0849148
:103AA000882341F09091C00095FFFCCF8093C60021
:103AB0003196F5CF8091BA079091BB0720E6289FF9
:103AC000F001299FF00D1124E65CF94F81918823C4
:103AD00039F09091C00095FFFCCF8093C600F6CFDF
:103AE000E2E2F4E08491882341F09091C00095FFD8
:103AF000FCCF8093C6003196F5CF8091C00085FF42
:103B0000FCCF8AE08093C6000E94DB9718C20E9417
:103B1000A2B1AB01BC014093A0155093A1156093D5
:103B2000A2157093A31587E497E10E94D84DECCFBE
:103B30000E94ADB1E9CF0E945BB388E50E9487B1D6
:103B4000882311F05F9A479A89E50E9487B1811115
:103B50008A9A8AE50E9487B1882381F09FB7F894FA
:103B6000809108018160809308019FBF9FB7F894FE
:103B7000809108018460809308019FBF85E40E94C2
:103B800087B1882309F4C0CF8D9A129ABDCF6E9663
:103B90004CAC5DAC6EAC7FAC6E97480E591E6A1E85
:103BA0007B1E6E962CAD3DAD4EAD5FAD6E97281B66
:103BB000390B4A0B5B0BCA01B90126962CAD3DAD02
:103BC0004EAD5FAD26970E949AD5A30192010E9447
:103BD0009BD9D501C401820F931FA41FB51F843147
:103BE0009105A105B1050CF14C015D018C3E9105DB
:103BF000A105B1052CF04BEE842E912CA12CB12CFB
:103C000040E884169104A104B104FCF08EEF90E02A
:103C1000A0E0B0E088199909AA09BB0926968CAFE3
:103C20009DAFAEAFBFAF269716C034E1832E912C67
:103C3000A12CB12C24E130E040E050E026962CAFDE
:103C40003DAF4EAF5FAF269706C026968CAE9DAEB9
:103C5000AEAEBFAE2697EAE1F4E08491882341F04E
:103C60009091C00095FFFCCF8093C6003196F5CFB0
:103C7000C501B4010E949275E5E1F4E084918823C6
:103C800041F09091C00095FFFCCF8093C600319623
:103C9000F5CF26966CAD7DAD8EAD9FAD26970E947B
:103CA0009275EEE0F4E08491882341F09091C00099
:103CB00095FFFCCF8093C6003196F5CF42E0AB96DE
:103CC0006FADAB97AC967FADAC97AD968FADAD9722
:103CD000AE969FADAE970E94A475E7E0F4E08491A4
:103CE000882341F09091C00095FFFCCF8093C600DF
:103CF0003196F5CF42E065966FAD659766967FADDC
:103D0000669767968FAD679768969FAD68970E9494
:103D1000A4758091C00085FFFCCF8AE08093C60027
:103D200060962EAD3FAD6097233031050CF4F7CB94
:103D300026966CAD7DAD8EAD9FAD26970E9413D0BB
:103D400020E030E040E850E40E9482CA6B017C0130
:103D5000AB962FADAB97AC963FADAC97AD964FAD54
:103D6000AD97AE965FADAE9765966FAD659766966B
:103D70007FAD669767968FAD679768969FAD68979A
:103D80000E94E4D520ED3FE049E450E40E9482CA5D
:103D900020E030E040E05FE30E9482CA9B01AC017A
:103DA000C701B6010E94D3D66B017C01C301B201E9
:103DB0000E9413D020E030E04AE754E40E94D3D6BA
:103DC0002B013C01E1E0F4E08491882341F09091E3
:103DD000C00095FFFCCF8093C6003196F5CF42E03E
:103DE000C701B6010E94A475EBEFF3E0849188232C
:103DF00041F09091C00095FFFCCF8093C6003196B2
:103E0000F5CF42E0C301B2010E94A4758091C000C9
:103E100085FFFCCF8AE08093C6002AE939E949E1B1
:103E20005FE3C701B6010E9482CA6B017C019B015E
:103E3000AC010E94E5D5A30192010E94D3D622963F
:103E40006CAF7DAF8EAF9FAF2297A3019201C701E8
:103E5000B6010E9482CA20E030E040E05EE30E94AA
:103E600082CA2B013C01EEEEF3E08491882341F0FD
:103E70009091C00095FFFCCF8093C6003196F5CF9E
:103E80008091C00085FFFCCF8AE08093C600E8EEF9
:103E9000F3E08491882341F09091C00095FFFCCF1E
:103EA0008093C6003196F5CF42E0C701B6010E946B
:103EB000A4758091C00085FFFCCF8AE08093C60086
:103EC000E2EEF3E08491882341F09091C00095FFE9
:103ED000FCCF8093C6003196F5CF42E022966CADC0
:103EE0007DAD8EAD9FAD22970E94A4758091C000DC
:103EF00085FFFCCF8AE08093C600ECEDF3E084916F
:103F0000882341F09091C00095FFFCCF8093C600BC
:103F10003196F5CF42E0C301B2010E94A4758091B1
:103F2000C00085FFFCCF8AE08093C600F8CAA09647
:103F3000EEADFFADA097808304CB1EAE26CBC35958
:103F4000DF4F0FB6F894DEBF0FBECDBFDF91CF912C
:103F50001F910F91FF90EF90DF90CF90BF90AF90A7
:103F60009F908F907F906F905F904F903F902F9099
:103F700008952F923F924F925F926F927F928F920D
:103F80009F92AF92BF92CF92DF92EF92FF920F93E8
:103F90001F93CF93DF93CDB7DEB7C053D1400FB699
:103FA000F894DEBF0FBECDBF60E080E20E94E273F6
:103FB000999AA19A82E08093C0001092C50080E196
:103FC0008093C4008091C10080618093C100809182
:103FD000C10088608093C1008091C1008068809397
:103FE000C100E3E4F6E08491882341F09091C000A1
:103FF00095FFFCCF8093C6003196F5CF8091C0002D
:1040000085FFFCCF8AE08093C600E9E4F6E0849166
:10401000882341F09091C00095FFFCCF8093C600AB
:104020003196F5CF82EC91E0C050DF4F99838883C1
:10403000C050D14044E0BE016F5F7F4FCE019395E9
:104040000E94947C99808A807B806C8086EC91E0D1
:10405000C050DF4F99838883C050D14044E0BE01F7
:104060006F5F7F4FCE0193950E94947C29803A80A8
:104070004B805C808AEC91E09A83898342E0BE01A8
:104080007395CE0101960E94947CC050DF4F8881C9
:104090009981C050D1409C01215031092330310514
:1040A00020F4909305028093040220E030E0A901FF
:1040B000692D782D872D962D0E9430D820E030E094
:1040C00040E85FEB692D782D18165CF0872D962D52
:1040D0000E940DD0811125C030E020E090E080E00A
:1040E0000CC0872D962D0E940DD0811104C030E0A8
:1040F00020E090E002C09401C30140E8A42E4FE408
:10410000B42E43ECC42E47ECD42EE32EF22E092F0E
:10411000182FA201910160E070E088E492EC0E9407
:10412000B6B120E030E0A901692D782D872D962DBC
:104130000E940DD0811119C0FFEF27EA31E6F1503E
:1041400020403040E1F700C000000E94344811E0F8
:104150008091270C81118AC60E94385568387341B6
:104160008105910508F488C681C60E9434488EEC0A
:1041700091E0C050DF4F99838883C050D14044E024
:10418000BE016F5F7F4FCE0193950E94947CC980E2
:10419000DA80EB80FC801C141D041E041F040CF04C
:1041A0006DC08CE3282E312C412C512CC701B60157
:1041B000A20191010E949BD9CA01B901A2019101FA
:1041C0000E949BD94AE0CE018B5D9E4F0E94A17256
:1041D000C701B60120E13EE040E050E00E949BD9DB
:1041E000CA01B9014AE0CE01815E9E4F0E94A172D0
:1041F00064EE74E0CE0193950E94D472BE01615EBC
:104200007E4FCE0193950E94E67161E573E00E94B6
:10421000CF71BE016B5D7E4F0E94E67165E573E074
:104220000E94CF71BC01CE0101960E94CC72CE01DA
:1042300093950E946D72CE01815E9E4F0E946D72B9
:10424000CE018B5D9E4F0E946D72BE016F5F7F4FEE
:10425000CE0193950E94CC7240E0BE01739581E03F
:1042600090E00E944D2FCE0193950E946D72CE0179
:1042700001960E946D72BB24B39401C0B12CC12C75
:10428000D12C760100E010E020E030E0A901CA0165
:10429000B9010E946D7E84B780FF14C0EBE3F6E0A5
:1042A0009491992341F02091C00025FFFCCF909379
:1042B000C6003196F5CF9091C00095FFFCCF9AE0F3
:1042C0009093C60081FF14C0EBE2F6E0949199232D
:1042D00041F02091C00025FFFCCF9093C60031969D
:1042E000F5CF9091C00095FFFCCF9AE09093C60067
:1042F00082FF14C0EAE1F6E09491992341F0209105
:10430000C00025FFFCCF9093C6003196F5CF909169
:10431000C00095FFFCCF9AE09093C60083FF14C0C5
:10432000EAE0F6E09491992341F02091C00025FF46
:10433000FCCF9093C6003196F5CF9091C00095FFC9
:10434000FCCF9AE09093C60085FF14C0EAEFF5E039
:104350008491882341F09091C00095FFFCCF809319
:10436000C6003196F5CF8091C00085FFFCCF8AE072
:104370008093C60014BEE2EFF5E08491882341F0FB
:104380009091C00095FFFCCF8093C6003196F5CF89
:10439000EBEEF5E08491882341F09091C00095FF09
:1043A000FCCF8093C6003196F5CF8091C00085FF89
:1043B000FCCF8AE08093C600E9E4F6E0849188238C
:1043C00041F09091C00095FFFCCF8093C6003196DC
:1043D000F5CFEBEDF5E08491882341F09091C0009A
:1043E00095FFFCCF8093C6003196F5CFE6ECF5E063
:1043F0008491882341F09091C00095FFFCCF809379
:10440000C6003196F5CFEAEBF5E08491882341F0C0
:104410009091C00095FFFCCF8093C6003196F5CFF8
:10442000E3EBF5E08491882341F09091C00095FF83
:10443000FCCF8093C6003196F5CF8091C00085FFF8
:10444000FCCF8AE08093C600E8EAF5E084918823F7
:1044500041F09091C00095FFFCCF8093C60031964B
:10446000F5CFECE9F5E08491882341F09091C0000C
:1044700095FFFCCF8093C6003196F5CF8091C000A8
:1044800085FFFCCF8AE08093C600E9E4F6E08491E2
:10449000882341F09091C00095FFFCCF8093C60027
:1044A0003196F5CFEDE8F5E08491882341F09091C5
:1044B000C00095FFFCCF8093C6003196F5CF809168
:1044C000391890913A188E010F5F1F4F009721F411
:1044D000C8018F53984104C09801281B390BC901AA
:1044E0009A83898369817A81072E000C880B990B46
:1044F0000E949275E6E7F5E08491882341F090915F
:10450000C00095FFFCCF8093C6003196F5CF60EDDB
:1045100074E080E090E00E9492758091C00085FF79
:10452000FCCF8AE08093C6001092220610922306E8
:1045300010922406109225060E94034A20E030E0E3
:1045400048E452E46091F5147091F6148091F714E8
:104550009091F8140E94E4D520E030E040E05FE361
:104560000E9482CA60930602709307028093080239
:1045700090930902E8E5F3E08191882339F0909166
:10458000C00095FFFCCF8093C600F6CF8091C0009D
:1045900085FFFCCF8AE08093C600C8010E943C33AF
:1045A000EBE5F3E08191882339F09091C00095FF0D
:1045B000FCCF8093C600F6CF20E030E08D819E8155
:1045C00028173907B4F42817390748F489819A81E4
:1045D000009729F0FC01E20FF31F808101C080E009
:1045E0009091C00095FFFCCF8093C6002F5F3F4F96
:1045F000E5CFEDE5F3E0DF018D91882339F090916F
:10460000C00095FFFCCF8093C600F6CFAFE5B3E0C6
:104610008D91882369F09091C00095FFFCCF809325
:10462000C600F6CF9091C00095FFFCCF8093C600E6
:1046300081918111F7CFE3E6F3E08191882339F08E
:104640009091C00095FFFCCF8093C600F6CFEAE6BC
:10465000F3E08191882339F09091C00095FFFCCF61
:104660008093C600F6CF8091C00085FFFCCF8AE022
:104670008093C600C8010E946D72ECE6F3E0819160
:10468000882339F09091C00095FFFCCF8093C6003D
:10469000F6CF8091C00085FFFCCF8AE08093C600F2
:1046A0000E94DC2F009110021091110210924C0C0C
:1046B00010924D0C10924E0C10924F0C209118023B
:1046C0003091190240911A0250911B0260E070E093
:1046D0008FE793E40E94D3D66093440C7093450C0B
:1046E0008093460C9093470C109313020093120290
:1046F0001092500C1092510C1092520C1092530CBC
:104700006093480C7093490C80934A0C90934B0C27
:10471000259A249A80910101806280930101809101
:10472000010180648093010187ED80937A001092EB
:104730007E0010927D0080917D00806880937D00D6
:1047400080917D00806280937D0080917D008064F7
:1047500080937D0080E888BD80916E0084608093A6
:104760006E006AEF70E080E090E00E94E57481E006
:1047700090E09093410C8093400C60E08091220285
:10478000909123020E946E5A20E030E040E85FE3FF
:104790000E940DD087FF0AC08091220290912302CF
:1047A00040979093230280932202E7CF8091640C7C
:1047B0009091650C909311028093100260E08091BB
:1047C000680C9091690C0E946E5A6B017C0180917B
:1047D000640C9091650CBC01990F880B990B0E9499
:1047E00013D09B01AC01C701B6010E9430D8181646
:1047F00054F48091680C9091690C40969093690CE8
:104800008093680CDBCF81E090E09093430C809321
:10481000420C61E080912402909125020E946E5A20
:1048200020E030E040E85FE30E940DD087FF0AC03F
:1048300080912402909125024097909325028093C5
:104840002402E7CF8091620C9091630C9093130245
:104850008093120261E080916A0C90916B0C0E942F
:104860006E5A6B017C018091620C9091630CBC01CB
:10487000990F880B990B0E9413D09B01AC01C701C3
:10488000B6010E9430D8181654F480916A0C9091A9
:104890006B0C409690936B0C80936A0CDBCF8091ED
:1048A0002002909121020E94CF5920E030E040E8A0
:1048B0005FE30E940DD087FF0AC080912002909193
:1048C000210240979093210280932002E8CF8091AB
:1048D000660C9091670C0E94CF596B017C0180910E
:1048E000600C9091610CBC01990F880B990B0E9490
:1048F00013D09B01AC01C701B6010E9430D8181635
:1049000054F48091660C9091670C40969093670CDC
:104910008093660CDCCF10923D0C10923C0C80E131
:10492000EAEEF7E0DF011D928A95E9F71092EA0CB2
:104930001092EB0C1092EC0C1092ED0C1092EE0C0D
:104940001092EF0C1092F00C1092F10C1092F20CED
:104950001092F30C1092F40C1092F50C1092F60CCD
:104960001092F70C1092F80C1092F90C1092FA0CAD
:104970001092FB0C1092FC0C1092FD0C819A3B9A49
:10498000879A80910A01826080930A0180910701D1
:10499000806180930701849A0E9A579A5F9A3F9A92
:1049A000479A829A8A9A80910701816080930701D1
:1049B0009FB7F894809108018160809308019FBFA0
:1049C000809107018460809307019FB7F8948091DC
:1049D00008018460809308019FBF859A8D9A0A9A86
:1049E000129A6D98759A809104018D7F80930401CD
:1049F0009FB7F894809105018260809305019FBF65
:104A000053985B9A6C98749A809A88985F9A479AA0
:104A1000399A41985F9A479A869A8E988A9A809195
:104A20000A01886080930A019FB7F89480910B0176
:104A3000877F80930B019FBF8091070188608093DF
:104A400007019FB7F89480910801877F8093080140
:104A50009FBF9FB7F89480910801816080930801FF
:104A60009FBF9FB7F89480910801846080930801EC
:104A70009FBF839A8B988D9A0C9A1498129A809162
:104A800081008F7E80938100809181008860809377
:104A90008100809180008D7F8093800080918000D4
:104AA0008E7F80938000809180008F738093800040
:104AB000809180008F7C8093800080918100887F2E
:104AC00082608093810080E090E4909389008093DD
:104AD0008800109285001092840080916F0082609F
:104AE00080936F0080E00E94655F78946BE773E0CD
:104AF000FE0131962F01CF010E94D47200E0920195
:104B000044E150E060E071E780E090E00E940047FF
:104B1000C2010E946D7260E081E30E94E2739FB760
:104B2000F89480910B01816080930B019FBF03D2A9
:104B3000FFEF23ED30E3F15020403040E1F700C0BB
:104B400000008AE490E00E9496458091741565EE1D
:104B500074E0811106C0CE01815E9E4F0E94D47226
:104B6000C8C0CE018B5D9E4F0E94D472CE0193953A
:104B70000E94994B00E011E00C0F1D1F0C5F1F4FAE
:104B800021E04DE853E06CEA75E1C8010E94485409
:104B9000882309F448C0CB5EDE4F28803980C55198
:104BA000D1408FEF281A380A8AE090E0C55DDE4FC9
:104BB00099838883CB52D1409E01255D3E4FA10150
:104BC000B201C8010E94DC5365EE74E0CE01815E43
:104BD0009E4F0E94D4728201C801841995098215E2
:104BE00093055CF4D8016D918D016623A9F3CE0184
:104BF000815E9E4F0E94F771EFCF65EE74E0CE01AB
:104C0000815E9E4F0E94A34B882341F0BE01615EEE
:104C10007E4FCE018B5D9E4F0E941F72CE01815E42
:104C20009E4F0E946D7280E091E08C0F9D1F049654
:104C30000E94405465EE74E0CE018B5D9E4F0E9451
:104C4000A34B811103C0E5E9F3E026C08CE291E0BB
:104C5000C15EDE4F99838883CF51D14044E0B201D9
:104C6000CE01815E9E4F0E94947C89819A81AB81A6
:104C7000BC8181159840A105B105C0F465EE74E0D2
:104C8000CE018B5D9E4F0E940A7210C09091C000B1
:104C900095FFFCCF8093C60081918111F7CF809161
:104CA000C00085FFFCCF8AE08093C600C15EDE4F66
:104CB00019821882CF51D140CF5DDE4F1982188200
:104CC000C152D140CD5DDE4F19821882C352D1400E
:104CD000BE016B5D7E4FCE01815E9E4F0E9434729D
:104CE000CE0193950E94924BCE018B5D9E4F0E9408
:104CF0006D72BE01615E7E4FC2010E94CC7240E0C7
:104D000050E0B201CE019395F3D7C2010E946D72BB
:104D1000BE01615E7E4FCE018B5D9E4F0E94CC72C4
:104D200041E050E0BE016B5D7E4FC201E1D7CE0194
:104D30008B5D9E4F0E946D7265EE74E0CE01815EC8
:104D40009E4F0E94A34B882339F1BE017395CE017B
:104D50008B5D9E4F0E94CC7269EA73E0CE018B5D41
:104D60009E4F0E94CF71BC01CE01855D9E4F0E9477
:104D7000CC7240E0BE01655D7E4F83E090E00E9412
:104D80004D2FCE01855D9E4F0E946D72CE018B5DD1
:104D90009E4F0E946D720FC0B1100DC089E290E06D
:104DA0000E94ED47FFEF21EE34E0F150204030400B
:104DB000E1F700C0000020E030E0A901692D782D66
:104DC000872D962D0E940DD08823F1F06AE077EDB3
:104DD00083E29CE30E94EEB26AE077ED83E29CE31B
:104DE0000E94EEB26AE077ED83E29CE30E94EEB2AD
:104DF0006AE077ED83E29CE30E94EEB260E070E04F
:104E000081E090E00E94FAA481E080936302109216
:104E1000340C1092350C1092360C1092370CA19A6B
:104E2000C2010E946D72CE0193950E946D72CE01F7
:104E3000815E9E4F0E946D72C05DDE4F0FB6F8948A
:104E4000DEBF0FBECDBFDF91CF911F910F91FF90BD
:104E5000EF90DF90CF90BF90AF909F908F907F901A
:104E60006F905F904F903F902F90089585E190E074
:104E70000E94ED47B12C0FCA8091860581110EC0AA
:104E80000E940C6B109386050E9438556093820532
:104E90007093830580938405909385050E9438550F
:104EA000C0908205D0908305E0908405F090850540
:104EB000DC01CB018C199D09AE09BF09893E9340E5
:104EC000A105B10588F00E943855DC01CB018C1991
:104ED0009D09AE09BF09803D9740A105B10520F4A9
:104EE0008091860581110EC00E941C330E947E367F
:104EF0002FEF30E782E0215030408040E1F700C0E2
:104F0000000026C910928605EFCF0E94ADDACF933C
:104F1000DF93FC01C081D181209751F088818823E3
:104F200039F0082E000C990B0E94B9DA8993F6CF5C
:104F3000DF91CF910895CF92DF92EF92FF920F937E
:104F40001F93CF93DF9300D000D0CDB7DEB7109280
:104F500074158091AF15882321F08CEA95E10E94A9
:104F60004054109224171092211785E38093201744
:104F70000E9438558B0161E0809120170E94E273F6
:104F800080E297E10E940E4460E082E30E94E273B7
:104F900061E083E30E94E27361E084E30E94E273D4
:104FA00061E085E30E94E27361E085E30E94B373F0
:104FB00085E08093221782E58CBD1DBC2AE0F22E8D
:104FC0008FEF0E941344FA94F110FACF20E030E002
:104FD000A90160E080E297E10E943944F82E8093B5
:104FE000231781E0F81649F00E943855601B710BB9
:104FF000613D774058F381E056C02AEA31E040E055
:1050000050E068E080E297E10E94394482FF03C0EB
:10501000F092241710C094E0F92E0E941844809357
:105020002317FA94F110F9CF8A3A11F082E03BC0CD
:1050300082E08093241780912417823021F0C12CC4
:10504000D12C760105C0C12CD12CE12C80E4F82EA6
:1050500020E030E0A90167E380E297E10E94394453
:10506000A701960169E280E297E10E9439448093AA
:105070002317882349F00E943855601B710B613D4E
:10508000774030F38AE00FC080912417823011F509
:1050900020E030E0A9016AE380E297E10E94394410
:1050A000882351F088E08093211780E297E10E94E5
:1050B0000E44EAEBF8E021C00E941844807C803C5A
:1050C00019F483E0809324170E9418440E94184426
:1050D0000E94184480E297E10E940E441092221729
:1050E00081E00E94DD76811146C021C09091C00010
:1050F00095FFFCCF8093C600319684918111F6CF45
:10510000EDEAF8E08491882341F09091C00095FF8A
:10511000FCCF8093C6003196F5CF8091C00085FF0B
:10512000FCCF8AE08093C6006CEF73E074C080E02F
:105130000E94DD7681111FC0E6EAF8E084918823A1
:1051400041F09091C00095FFFCCF8093C60031964E
:10515000F5CFE3E9F8E08491882341F09091C00015
:1051600095FFFCCF8093C6003196F5CF8091C000AB
:1051700085FFFCCF26C065E277E18CEA95E10E94CD
:105180008A53811122C0E6EAF8E08491882341F035
:105190009091C00095FFFCCF8093C6003196F5CF6B
:1051A000E3E8F8E08491882341F09091C00095FFF6
:1051B000FCCF8093C6003196F5CF8091C00085FF6B
:1051C000FCCF8AE08093C6003AC081E080937415DA
:1051D000EAEBF8E08491882341F09091C00095FFBC
:1051E000FCCF8093C6003196F5CFE8E7F8E08491D4
:1051F000882341F09091C00095FFFCCF8093C600BA
:105200003196F5CF8091C00085FFFCCF8AE0809376
:10521000C6006DE074E0CE0101960E94D47200E0F9
:105220009E012F5F3F4F44E150E060E071E780E076
:1052300090E00E940047CE0101960E946D728BE1C2
:10524000ECEAF5E1ADECB5E101900D928A95E1F75C
:105250008091AA159091AB159093CC158093CB15A6
:1052600088EA95E19093C8158093C71526960FB6E6
:10527000F894DEBF0FBECDBFDF91CF911F910F918C
:10528000FF90EF90DF90CF9008950F931F93CF93EF
:10529000DF93FC01248135812115310519F4FB01CF
:1052A000108211C0EA0121972C173D0708F4E9018B
:1052B0008B01FC0160817181AE01C8010E940BDB92
:1052C000C00FD11F1882DF91CF911F910F910895C8
:1052D0003F924F925F926F927F928F929F92AF9286
:1052E000BF92CF92DF92EF92FF920F931F93CF93D3
:1052F000DF93CDB7DEB7C558D1090FB6F894DEBF3E
:105300000FBECDBF8C017B01312C6B0184E0C80E38
:10531000D11C82E8A82E85E1B82E90E4892E912C2C
:105320008C0E9D1EE4E08E0E911C27E7622E22E07B
:10533000722E3AEB432E38E0532EF70187818230EC
:1053400008F434C184859585A685B7858F71992722
:10535000AA27BB27892B8A2B8B2B09F027C1A114E5
:10536000B10411F01092821542E855E1BE016F5F61
:105370007F4FC6010E94205118160CF017C12C85D2
:10538000322F3871303109F0A1C0809167179091A8
:1053900068170197029708F499C0BE016F5F7F4FAD
:1053A000CE0187589F4F0E947C4BA0961FAEA097BE
:1053B000F8018081811107C068E174E0CE01815A53
:1053C0009F4F0E94D7DAB801CE01815A9F4F0E94A9
:1053D000D7DABE0167587F4FCE01815A9F4F0E9496
:1053E000D7DA68E174E0CE01815A9F4F0E94D7DA84
:1053F000CE01805C9F4F0E94994B21E0AE0147583F
:105400005F4FB601C4010E94485481113CC0809195
:10541000671790916817892BB1F5F2018491EAEB37
:10542000F8E0882349F09091C00095FFFCCF80936D
:10543000C60031968491F5CFEAE1F4E081918823AA
:1054400039F09091C00095FFFCCF8093C600F6CF55
:105450008091C00085FFFCCF8AE08093C600FE01EA
:10546000E758FF4F8191882339F09091C00095FF54
:10547000FCCF8093C600F6CF8091C00085FFFCCFA3
:105480008AE08093C6008BE1FE01EC5BFF4FDE01FA
:10549000959601900D928A95E1F724968EAD9FAD79
:1054A00024979CA38BA37AA269A2BE016F5D7F4F54
:1054B000CE01815A9F4F0CDFCE0181960E94924B04
:1054C000CE01805C9F4F0E94924B37CF8981882309
:1054D00009F46CC0853E09F430CF8E3209F42DCF2B
:1054E0008F3509F42ACF80918215882331F08E32CE
:1054F00009F423CF8F3509F420CF23FD1ECF81E09F
:10550000303109F080E080939D15811108C08985B4
:10551000873409F012CF8A858E3709F40ECFBE0189
:105520006F5F7F4F85E795E10E947C4B8091671705
:10553000909168170097F9F4F8018191882339F068
:105540009091C00095FFFCCF8093C600F6CFE5E7B1
:10555000F5E18191882339F09091C00095FFFCCF4F
:105560008093C600F6CF8091C00085FFFCCF8AE013
:105570008093C600E2CE8130910551F48091691785
:1055800090916A17019690936A1780936917D5CE08
:10559000029709F0D2CE832D90E0209169173091C7
:1055A0006A178217930711F03394C7CECB57DF4F9A
:1055B0000FB6F894DEBF0FBECDBFDF91CF911F9124
:1055C0000F91FF90EF90DF90CF90BF90AF909F90A2
:1055D0008F907F906F905F904F903F90089587E4F9
:1055E00097E10E94974D87E497E10E944054EFE6CF
:1055F000F5E11182128208952F923F924F925F92AD
:105600006F927F928F929F92AF92BF92CF92DF92D2
:10561000EF92FF920F931F93CF93DF93CDB7DEB737
:10562000C752D1400FB6F894DEBF0FBECDBF509128
:105630007415552309F4CBC218012901C95DDE4F49
:105640004883C752D1406B01CB5DDE4F998388837D
:10565000C552D14087E497E10E94405410927315DF
:10566000109272153E0128EE620E711CC3010E9459
:10567000994B88EA95E19093C8158093C715F60178
:1056800080818F3209F085C06FE270E0C6010E9410
:10569000E2DA01967C0183010C5F1F4FE114F104F3
:1056A00009F47DC06FE270E0C7010E94E2DA5C019C
:1056B000009709F475C0E816F90608F071C04C01AE
:1056C0008E189F08A401B701CE0101960E940BDB42
:1056D000E1E0F0E0EC0FFD1FE80DF91D1082CE01B6
:1056E00001967C01FC018191882339F09091C000E2
:1056F00095FFFCCF8093C600F6CF8091C00085FF58
:10570000FCCF9AE09093C6006091C7157091C815C0
:105710006115710511F06C5F7F4F21E0AE014F5FA5
:105720005F4FC8010E94485481112AC0E4E6F8E0A6
:105730008491882371F09091C00095FFFCCF8093F5
:10574000C6003196F5CF9091C00095FFFCCF8093B5
:10575000C600F70181917F018111F5CFE2E6F8E003
:105760008491882341F09091C00095FFFCCF8093F5
:10577000C6003196F5CF8091C00085FFFCCFC3C134
:105780007092C8156092C7157501FFEFEF1AFF0AF6
:1057900085CF89EC95E19093C8158093C715760164
:1057A0009091C7158091C815C95DDE4F2881C752F9
:1057B000D140692F782F222309F4ADC161157105FD
:1057C00011F06C5F7F4F21E0A70187E497E10E9411
:1057D0004854882309F46EC1809158179091591745
:1057E000A0915A17B0915B178093A4159093A515BB
:1057F000A093A615B093A715E4E5F8E0849188235B
:1058000041F09091C00095FFFCCF8093C600319687
:10581000F5CFF7018191882339F09091C00095FF71
:10582000FCCF8093C600F6CFECE4F8E084918823A7
:1058300041F09091C00095FFFCCF8093C600319657
:10584000F5CF6091A4157091A5158091A615909142
:10585000A7154AE00E941D758091C00085FFFCCF0E
:105860008AE08093C600211431044104510479F088
:105870002092A0153092A1154092A2155092A31526
:10588000B201A10187E497E10E94D84D08C01092AF
:10589000A0151092A1151092A2151092A315EEE377
:1058A000F8E08491882341F09091C00095FFFCCFEF
:1058B0008093C6003196F5CF8091C00085FFFCCF64
:1058C0008AE08093C600B701CE01815E9E4F0E94A0
:1058D000D472CB5DDE4F68817981C552D140CE0153
:1058E000875E9E4F0E94D472BE01615E7E4FCE01E4
:1058F000835F9E4F0E94CC72BE01675E7E4FCE01D9
:105900008D5E9E4F0E94CC7280917415882309F49D
:10591000AAC0CE0187539F4F0E94994B09EC10E01B
:105920000C0F1D1F0C5F1F4F21E04DE853E06CEA88
:1059300075E1C8010E944854882331F0C8010E94D3
:105940004054DD24D39401C0D12C65EE74E0CE0127
:10595000895F9E4F0E94D472BE016D5E7E4F8E01A4
:105960000F5F1F4FC8010E94CC726DE573E0C80144
:105970000E94CF71BC01CE01895F9E4F0E941F72B1
:10598000C8010E946D72CF5EDE4F48815981C151BE
:10599000D140C35FDE4F68817981CD50D140CE01C7
:1059A000895F9E4F0E94A2717E0187E9E80EF11C7B
:1059B00042E350E0B701CE01895F9E4F66DCFF9263
:1059C000EF928DEF97E09F938F931F930F930E9419
:1059D000DECF0F900F900F900F900F900F90DD2063
:1059E00011F022E101C022EC89ECE82EF12CEC0E42
:1059F000FD1E94E0E90EF11C4DE853E06CEA75E100
:105A0000C7010E944854882381F0F80101900020CA
:105A1000E9F73197AF01401B510BB801C7010E9454
:105A20006D4EC7010E94405414C0EEEEF7E0849121
:105A3000882341F09091C00095FFFCCF8093C60071
:105A40003196F5CF8091C00085FFFCCF8AE080932E
:105A5000C600CE01895F9E4F0E946D72CE018753B2
:105A60009F4F0E94924BCE018D5E9E4F0E946D72A1
:105A7000CE01835F9E4F0E946D72812C912C540148
:105A80007501640100E010E020E030E040E050E00B
:105A900060E070E0CB010E94FD7D1092060CCE010B
:105AA000875E9E4F0E946D72CE01815E9E4F0E9466
:105AB0006D728AC0EAE2F8E08491882341F0909107
:105AC000C00095FFFCCF8093C6003196F5CFF7015B
:105AD0008191882339F09091C00095FFFCCF80938D
