:100000000C947F0C0C94B00C0C94B00C0C94B00CB1
:100010000C94B00C0C94B00C0C94B00C0C94B00C70
:100020000C94B00C0C94B00C0C94B00C0C94B00C60
:100030000C94B00C0C94B00C0C94B00C0C94B00C50
:100040000C94B00C0C945F7E0C94B00C0C94B00C1F
:100050000C94B00C0C94B00C0C9452960C943AA6E0
:100060000C94B00C0C946E140C94B00C0C94B00C5A
:100070000C94B00C0C94B00C0C94B00C0C94B00C10
:100080000C94B00C0C94B00C0C94B00C0C94B00C00
:100090000C94B00C0C94B00C0C94B00C0C94B00CF0
:1000A0000C94B00C0C94B00C0C94B00C0C94B00CE0
:1000B0000C94B00C0C94B00C0C94B00C0C94B00CD0
:1000C0000C94B00C0C94B00C0C94B00C0C9477AA5B
:1000D0000C94ADAA0C94B00C0C94B00C0C94B00C15
:1000E0000C94B00CB196BF96DB96E99603971197E6
:1000F0002B972E977CA781A786A790A79AA713A8CE
:10010000A4A7ACA7B4A7BEA7C8A7D2A7E1A7EBA78F
:1001100013A8F5A7FFA709A835A838A827A82BA8D2
:1001200031A86FA83CA840A846A84AA84EA854A841
:1001300058A85CA86FA862A866A86AA8084AD73B16
:100140003BCE016E84BCBFFDC12F3D6C74319ABDA6
:1001500056833DDA3D00C77F11BED9E4BB4C3E91CA
:100160006BAAAABE000000803F05A84CCDB2D44EB9
:10017000B93836A9020C50B9918688083CA6AAAABB
:100180002ABE000000803F0048617264636F6465AE
:10019000642044656661756C742053657474696E7F
:1001A0006773204C6F616465640053746F7265649B
:1001B0002073657474696E67732072657472696503
:1001C000766564005A323A00457874656E646572EB
:1001D000204F66667365743A0059323A0045787468
:1001E000656E646572204F66667365743A005832B6
:1001F0003A005365636F6E64657279204D617820B3
:10020000506F733A002044002049002020204D33D5
:1002100030312050005049442073657474696E6712
:10022000733A00205A0020590020204D32303620E9
:100230005800486F6D65206F666673657420286D81
:100240006D293A00204500205A0020580020420025
:1002500020540020204D3230352053004164766117
:100260006E636564207661726961626C65733A20C1
:10027000533D4D696E206665656472617465202822
:100280006D6D2F73292C20543D4D696E2074726161
:1002900076656C20666565647261746520286D6D95
:1002A0002F73292C20423D6D696E696D756D207329
:1002B00065676D656E742074696D6520286D73299E
:1002C0002C20583D6D6178696D756D205859206AF4
:1002D00065726B20286D6D2F73292C20205A3D6D7F
:1002E0006178696D756D205A206A65726B20286D82
:1002F0006D2F73292C2020453D6D6178696D756DDA
:100300002045206A65726B20286D6D2F73290020AF
:10031000540020204D323034205300416363656C1B
:1003200065726174696F6E3A20533D616363656CF9
:1003300065726174696F6E2C20543D7265747261D0
:10034000637420616363656C65726174696F6E00CC
:10035000204500205A0020590020204D3230312005
:1003600058004D6178696D756D20416363656C65FA
:10037000726174696F6E20286D6D2F7332293A0097
:10038000204500205A0020590020204D32303320D3
:1003900058004D6178696D756D20666565647261A0
:1003A00074657320286D6D2F73293A002045002055
:1003B0005A0020590020204D3932205800537465CE
:1003C00070732070657220756E69743A005365749D
:1003D00074696E67732053746F7265640065636837
:1003E0006F3A0053544F505045442E2000507269CC
:1003F0006E7465722073746F7070656420647565C7
:1004000020746F206572726F72732E204669782097
:10041000746865206572726F7220616E64207573F6
:1004200065204D39393920746F207265737461729B
:10043000742E202854656D70657261747572652024
:1004400069732072657365742E2053657420697416
:100450002061667465722072657374617274696E6E
:100460006729004B494C4C45442E20005072696E60
:100470007465722068616C7465642E206B696C6CA5
:1004800028292063616C6C656421006F6B005265E4
:1004900073656E643A20002200556E6B6E6F776E46
:1004A00020636F6D6D616E643A202200486F746541
:1004B0006E64206F6666736574733A00486F746586
:1004C0006E64206F6666736574733A007A5F6D6957
:1004D0006E3A2000795F6D696E3A2000785F6D6139
:1004E000783A2000785F6D696E3A20005A3A0059D8
:1004F0003A0020436F756E7420583A2000453A0048
:100500005A3A00593A00583A004649524D5741521A
:10051000455F4E414D453A4D61726C696E205631D2
:100520003B20537072696E7465722F6772626C2023
:100530006D617368757020666F722067656E362016
:100540004649524D574152455F55524C3A68747472
:10055000703A2F2F7777772E6D656E64656C2D70EE
:10056000617274732E636F6D2050524F544F434F1E
:100570004C5F56455253494F4E3A312E30204D4133
:100580004348494E455F545950453A54656E6C6F27
:10059000672044332045585452554445525F434FD9
:1005A000554E543A320A002042403A0020403A0068
:1005B000202F0020423A00202F006F6B20543A0079
:1005C0002569206D696E2C202569207365630045BF
:1005D0006E642066696C65206C697374004265679F
:1005E000696E2066696C65206C697374004E6F20BB
:1005F0006D6F76652E00526573756D696E6720703C
:1006000072696E74005761697420666F7220757329
:1006100065722E2E2E0048656174696E6720646FC6
:100620006E652E0020573A0020453A00543A0048A3
:10063000656174696E672E2E2E0042656420646FBA
:100640006E652E0020423A0020453A00543A00429E
:1006500065642048656174696E672E0025692068AD
:100660006F757273202569206D696E7574657300EE
:10067000446F6E65207072696E74696E672066697A
:100680006C650053544F505045442E200050726901
:100690006E7465722073746F707065642064756524
:1006A00020746F206572726F72732E2046697820F5
:1006B000746865206572726F7220616E6420757354
:1006C00065204D39393920746F20726573746172F9
:1006D000742E202854656D70657261747572652082
:1006E00069732072657365742E2053657420697474
:1006F0002061667465722072657374617274696ECC
:100700006729006F6B004E6F204C696E65204E7537
:100710006D626572207769746820636865636B73C6
:10072000756D2C204C617374204C696E653A200005
:100730004E6F20436865636B73756D2077697468CD
:10074000206C696E65206E756D6265722C204C613F
:100750007374204C696E653A2000636865636B733F
:10076000756D206D69736D617463682C204C6173C5
:1007700074204C696E653A20004C696E65204E7598
:100780006D626572206973206E6F74204C617374A2
:10079000204C696E65204E756D6265722B312C2080
:1007A0004C617374204C696E653A20004D313130D4
:1007B00000536C6565702E2E2E0053544F505045DB
:1007C000442E20005072696E7465722073746F70CD
:1007D0007065642064756520746F206572726F7235
:1007E000732E2046697820746865206572726F7276
:1007F00020616E6420757365204D39393920746F1E
:1008000020726573746172742E202854656D706552
:100810007261747572652069732072657365742ED8
:100820002053657420697420616674657220726556
:100830007374617274696E6729006F6B004E6F206C
:100840004C696E65204E756D6265722077697468BB
:1008500020636865636B73756D2C204C6173742025
:100860004C696E653A20004E6F20436865636B7378
:10087000756D2077697468206C696E65206E756D82
:100880006265722C204C617374204C696E653A204D
:1008900000636865636B73756D206D69736D61745A
:1008A00063682C204C617374204C696E653A20009B
:1008B0004C696E65204E756D626572206973206E9D
:1008C0006F74204C617374204C696E65204E756D99
:1008D0006265722B312C204C617374204C696E65FB
:1008E0003A20004D31313000446F6E6520736176DF
:1008F000696E672066696C652E006F6B004D32393A
:10090000002020506C616E6E65724275666665727D
:1009100042797465733A20002046726565204D6502
:100920006D6F72793A200053657020323720323073
:10093000313900436F6D70696C65643A2000284E50
:100940006F6E652900207C20417574686F723A20B3
:100950000053657020323720323031392031353A3A
:1009600035343A323700204C61737420557064611D
:100970007465643A2000312E302E30004D61726C67
:10098000696E200020536F6674776172652052652E
:1009900073657400205761746368646F67205265E3
:1009A000736574002042726F776E206F75742052E9
:1009B00065736574002045787465726E616C2052B1
:1009C0006573657400506F7765725570007374615C
:1009D0007274002200656E717565696E6720220071
:1009E0002200656E717565696E67202200FFFFFF4A
:1009F0000000A0400000A0410000004000C00A44E8
:100A00000000024400801844000048C200000000BA
:100A1000000000000080FC430000024400801844F5
:100A2000000048C200000000000000006563686F1D
:100A30003A004572726F723A007C3C3E5E2B3D3F3D
:100A40002F5B5D3B2C2A225C004D3234004D32334B
:100A5000202573006175746F25692E6700657272B9
:100A60006F722077726974696E6720746F2066698F
:100A70006C65004E6F74205344207072696E746907
:100A80006E67002F005344207072696E74696E6740
:100A9000206279746520002E0044656C6574696F6E
:100AA0006E206661696C65642C2046696C653A202D
:100AB0000046696C652064656C657465643A002E57
:100AC000006F70656E206661696C65642C204669F4
:100AD0006C653A200057726974696E6720746F20E4
:100AE00066696C653A20002E006F70656E20666145
:100AF000696C65642C2046696C653A20002E006F95
:100B000070656E206661696C65642C2046696C6551
:100B10003A200046696C652073656C656374656492
:100B2000002053697A653A200046696C65206F7031
:100B3000656E65643A20002E006F70656E206661F8
:100B4000696C65642C2046696C653A20005344202A
:100B500063617264206F6B006F70656E526F6F74AB
:100B6000206661696C656400766F6C756D652E69D1
:100B70006E6974206661696C656400534420696E17
:100B80006974206661696C006563686F3A0045723C
:100B9000726F723A0020746F6F206C6F6E67206501
:100BA0007874727573696F6E2070726576656E7495
:100BB00065640020636F6C64206578747275736976
:100BC0006F6E2070726576656E746564006563682B
:100BD0006F3A00656E6473746F7073206869743A5D
:100BE000205A00205A3A00656E6473746F70732047
:100BF0006869743A20590020593A00656E6473742C
:100C00006F7073206869743A20580020583A006564
:100C10006E6473746F7073206869743A200024F4F2
:100C2000D43050C38E20C2A24017828B7011127A2A
:100C3000910D816CD90AA861E108C7586607615116
:100C400043061E4B5D05C145A7041A411104093D29
:100C50009803713931034036DB0265339102D43099
:100C60005402802E1D02632CEE01752AC501B028A6
:100C7000A001102781018F2564012B244B01E02264
:100C80003401AC211F018D200D01801FFC00841E4A
:100C9000ED00971DDF00B81CD200E61BC600201B2C
:100CA000BC00641AB200B219A8000A19A0006A18A0
:100CB0009900D117910040178B00B51684003116AA
:100CC0007E00B31579003A157300C7146F005814ED
:100CD0006A00EE1366008813630025135E00C712D6
:100CE0005B006C12570015125400C11151007011B5
:100CF0004F0021114B00D61049008D1047004610BF
:100D0000440002104200C00F4000800F3E00420F1E
:100D10003C00060F3B00CB0E3800930E37005C0EF4
:100D20003500270E3400F30D3200C10D3100900D57
:100D30003000600D2E00320D2D00050D2C00D90C59
:100D40002B00AE0C2900850C29005C0C2700350C0B
:100D500027000E0C2600E80B2400C40B2400A00B77
:100D600023007D0B23005A0B2100390B2100180BA7
:100D70002000F80A1F00D90A1E00BB0A1E009D0AA7
:100D80001D00800A1D00630A1C00470A1B002C0A74
:100D90001B00110A1A00F7091A00DD091900C4091D
:100DA0001900AB091900920917007B0918006309A3
:100DB00017004C09160036091600200916000A090A
:100DC0001500F5081500E0081400CC081400B80858
:100DD0001400A4081400900813007D0812006B088A
:100DE00013005808120046081200340811002308A6
:100DF00011001208110001081100F0071000E007AF
:100E00001000D0071000C0071000B0070F00A107A6
:100E1000100091070E0083070F0074070F0065078D
:100E20000E0057070E0049070E003B070D002E0766
:100E30000E0020070D0013070D0006070D00F90630
:100E40000C00ED060D00E0060C00D4060C00C806F0
:100E50000C00BC060C00B0060C00A4060B009906A2
:100E60000C008D060B0082060B0077060B006C064B
:100E70000B0061060A0057060B004C060A004206EA
:100E80000A0038060A002E060A0024060A001A067E
:100E90000A001006090007060A00FD050900F4050E
:100EA0000900EB050900E2050900D9050900D00594
:100EB0000900C7050900BE050900B5050800AD0514
:100EC0000800A50509009C050800940508008C058C
:100ED0000800840508007C050800740508006C05FE
:100EE0000700650508005D050700560508004E056A
:100EF00007004705070040050800380507003105D1
:100F000007002A050700230507001C050600160533
:100F100007000F0507000805060002050700FB048F
:100F20000600F5040700EE040600E8040600E204EB
:100F30000700DB040600D5040600CF040600C90440
:100F40000600C3040600BD040600B7040600B10491
:100F50000500AC040600A6040600A00405009B04DE
:100F6000060095040500900406008A040500850427
:100F70000500800406007A0405007504050070046D
:100F800005006B04050066040500610405005C04AF
:100F9000050057040500520405004D0405004804EF
:100FA0000500430405003E0404003A04050035042E
:100FB0000500300404002C04050027040400230469
:100FC00005001E0404001A040400160405001104A0
:100FD00004000D04040009040500040404000004D6
:100FE0000400FC030400F8030400F4030400F0030D
:100FF0000400EC030400E8030400E4030400E0033D
:101000000400DC030400D8030400D4030400D0036C
:101010000400CC030400C8030300C503030024F448
:1010200004D9201BC40C5C0E9804C4095F02650738
:101030007101F405F900FB04B30048048700C10303
:1010400069005803550003034500BE023A008402BC
:10105000310053022A002902250004022000E40185
:101060001C00C8011900AF01170098011400840189
:101070001300710110006101100051010E004301C5
:101080000D0036010B002B010B0020010B00150198
:1010900009000C01090003010800FB000800F3002F
:1010A0000800EB000700E4000600DE000600D800A0
:1010B0000600D2000600CC000500C7000500C200F3
:1010C0000500BD000400B9000400B5000400B10033
:1010D0000400AD000400A9000400A5000300A20064
:1010E00003009F0004009B0003009800030095008C
:1010F000020093000300900003008D0002008B00AB
:1011000003008800020086000200840003008100C2
:1011100002007F0002007D0002007B0002007900D7
:1011200002007700010076000200740002007200E5
:101130000100710002006F0002006D0001006C00F0
:1011400002006A00010069000200670001006600F9
:1011500001006500010064000200620001006100FE
:101160000100600001005F0002005D0001005C0002
:1011700001005B0001005A00010059000100580005
:101180000100570001005600010055000100540005
:101190000100530000005300010052000100510003
:1011A0000100500001004F0001004E0000004E0001
:1011B00001004D0001004C0001004B0000004B00FD
:1011C00001004A00010049000100480000004800F9
:1011D00001004700010046000000460001004500F4
:1011E00000004500010044000100430000004300EE
:1011F00001004200000042000100410000004100E7
:101200000100400001003F0000003F0001003E00DF
:1012100000003E0001003D0000003D0001003C00D8
:1012200000003C0000003C0001003B0000003B00CF
:1012300001003A0000003A000100390000003900C6
:1012400001003800000038000000380001003700BD
:1012500000003700010036000000360000003600B4
:1012600001003500000035000000350001003400A9
:10127000000034000000340001003300000033009F
:101280000000330001003200000032000000320094
:101290000100310000003100000031000100300089
:1012A000000030000000300001002F0000002F007F
:1012B00000002F0000002F0001002E0000002E0073
:1012C00000002E0001002D0000002D0000002D0068
:1012D00000002D0001002C0000002C0000002C005C
:1012E00000002C0001002B0000002B0000002B0050
:1012F00000002B0001002A0000002A0000002A0044
:1013000000002A0001002900000029000000290037
:10131000000029000000290001002800000028002A
:10132000000028000000280000002800010027001D
:101330000000270000002700000027000000270011
:101340000100260000002600000026000000260004
:1013500000002600010025000000250000002500F7
:1013600000002500000025000000250001002400E9
:1013700000002400000024000000240000002400DD
:1013800001002300000023000000230000002300D0
:1013900000002300000023000000230001002200C1
:1013A00000002200000022000000220000002200B5
:1013B00000002200010021000000210000002100A7
:1013C0000000210000002100000021000000210099
:1013D000010020000000200000002000000020008C
:1013E000000020000000200000002000000020007D
:1013F00001001F0000001F0000001F0000001F0070
:1014000000001F0000001F0000001F0001001E0060
:1014100000001E0000001E0000001E0000006563AA
:10142000686F3A004572723A204D494E54454D500E
:10143000204245440054656D706572617475726533
:1014400020686561746564206265642073776974DF
:1014500063686564206F66662E204D494E54454D85
:1014600050207472696767657265642021210045A8
:1014700072723A204D415854454D50204245440027
:1014800054656D706572617475726520686561740C
:10149000656420626564207377697463686564209D
:1014A0006F66662E204D415854454D502074726928
:1014B000676765726564202121004572723A204D8C
:1014C000494E54454D50003A204578747275646514
:1014D00072207377697463686564206F66662E2076
:1014E0004D494E54454D5020747269676765726569
:1014F000642021004572723A204D415854454D50A8
:10150000003A204578747275646572207377697447
:1015100063686564206F66662E204D415854454DC2
:1015200050207472696767657265642021004865A0
:101530006174696E67206661696C656400202D20A6
:10154000496E76616C696420657874727564657241
:10155000206E756D626572202100504944204175EE
:10156000746F74756E652066696E69736865642151
:101570002050757420746865204B702C204B6920B6
:10158000616E64204B6420636F6E7374616E74735C
:1015900020696E746F20436F6E666967757261743F
:1015A000696F6E2E6800504944204175746F7475E0
:1015B0006E65206661696C6564212074696D656F74
:1015C00075740020403A006F6B20543A006F6B2016
:1015D000423A00504944204175746F74756E65201D
:1015E0006661696C6564212054656D706572617413
:1015F00075726520746F6F206869676800204B649E
:101600003A2000204B693A2000204B703A200020FD
:10161000436C617369632050494420002054753A3B
:101620002000204B753A2000206D61783A20002080
:101630006D696E3A200020643A200020626961736F
:101640003A20006563686F3A004572726F723A0023
:1016500070012C0190012701B0012201C0011D0180
:10166000F00118011002130130020E01600209019D
:1016700090020401C002FF000003FA004003F500DD
:101680008003F000D003EB002004E6007004E100CA
:10169000E004DC004005D700C005D2004006CD00C4
:1016A000D006C8008007C3003008BE00F008B900AB
:1016B000C009B400B00AAF00B00BAA00D00CA5005E
:1016C000000EA000500F9B00C01096005012910019
:1016D00000148C00C0158700B0178200B0197D007F
:1016E000D01B7800001E730040206E00902269001D
:1016F000F024640040275F0090295A00E02B550039
:10170000102E500020304B0010324600E0334100D4
:1017100090353C001037370070383200A0392D006A
:10172000B03A2800A03B2300603C1E00103D190089
:10173000903D1400103E0F00703E0A00C03E0500B0
:10174000003F0000436172642072656D6F766564CE
:10175000004361726420696E73657274656400771A
:1017600077772E74656E6C6F672E636E002B2D2D50
:101770002D2D2D2D2D2D2D2D2B007C54454E4C4FD8
:1017800047202044337C002B2D2D2D2D2D2D2D2D4C
:101790002D2D2B0047323820580000000A0B02097B
:1017A0000C0D0E08070304010000000000000000FB
:1017B0000000000000000000000000000000000029
:1017C00000000000000012111000000000000000E6
:1017D0000000000000000000000000000000000009
:1017E0000102102020080810204010204080020133
:1017F0000201080402010102040810204080804018
:101800002010080402018004020180402010080416
:1018100002010804020101020408102040800102B4
:10182000040810204080050505050705080808087C
:10183000020202020A0A0808040404040101010168
:101840000101010103030303030303030407070763
:101850000C0C0C0C0C0C0C0C020202020606060608
:10186000060606060B0B0B0B0B0B0B0B00002000E8
:101870002300260029002C002F0032000001000068
:1018800003010601090100002200250028002B00A9
:101890002E003100340002010000050108010B0197
:1018A00000002100240027002A002D003000330012
:1018B00001010000040107010A014E414E494E4951
:1018C0005459494E46CDCCCC3D0AD7233C17B7D10D
:1018D0003877CC2B329595E6241FB14F0A000020B3
:1018E000410000C84200401C4620BCBE4CCA1B0E32
:1018F0005AAEC59D74003C5140A2DFAA615111242B
:101900001FBECFEFD1E2DEBFCDBF00E00CBF19E0BC
:10191000A0E0B2E0E8E9FAE701E00BBF02C00790FF
:101920000D92AC33B107D9F727E1ACE3B9E001C0C0
:101930001D92AC35B207E1F718E1CCEFD8E100E039
:1019400006C022970109FE010BBF0E941BB4C63FCF
:10195000D10780E00807A9F70E940EAF0C943ABDAA
:101960000C940000EF92FF920F931F93CF93DF939D
:101970001F92CDB7DEB78C017B01460FF701619155
:101980007F01F8018081918149830E9473BCF80135
:101990008081918101969183808349814E11EECFA0
:1019A0000F90DF91CF911F910F91FF90EF900895CD
:1019B000EF92FF920F931F93CF93DF931F92CDB7B8
:1019C000DEB78C017B01460FF8018081918149834C
:1019D0000E946BBCF70181937F01F80180819181A6
:1019E00001969183808349814E11EECF0F90DF9154
:1019F000CF911F910F91FF90EF9008950F931F9338
:101A0000CF93DF93CDB7DEB72C970FB6F894DEBF38
:101A10000FBECDBF80E390E3A0E3B0E08D839E8353
:101A2000AF83B88704E610E01C870B8744E0BE0153
:101A30006B5F7F4FCE010B9695DF40E166E575E168
:101A4000CE010B968FDF40E166E675E1CE010B9685
:101A500089DF40E166E475E1CE010B9683DF44E067
:101A60006EE375E1CE010B967DDF44E06AE375E13C
:101A7000CE010B9677DF44E062E475E1CE010B9670
:101A800071DF44E06AE275E1CE010B966BDF44E062
:101A900066E775E1CE010B9665DF44E066E375E12C
:101AA000CE010B965FDF44E062E375E1CE010B9659
:101AB00059DF44E06EE275E1CE010B9653DF4CE056
:101AC0006FEC7BE0CE010B964DDF42E06DEA76E1F4
:101AD000CE010B9647DF42E06BEA76E1CE010B9632
:101AE00041DF42E069EA76E1CE010B963BDF42E05E
:101AF00067EA76E1CE010B9635DF42E065EA76E1F2
:101B0000CE010B962FDF42E063EA76E1CE010B9621
:101B100029DF44E065E772E0CE010B9623DF44E065
:101B200061E772E0CE010B961DDF44E06DE672E0E6
:101B3000CE010B9617DF44E06EE875E1CE010B96FF
:101B400011DF44E069E875E1CE010B960BDF44E05C
:101B500065E875E1CE010B9605DF42E063E875E1CB
:101B6000CE010B96FFDE42E061E875E1CE010B96F7
:101B7000F9DE42E06AE775E1CE010B96F3DE80E222
:101B800090E09A87898742E0BE01675F7F4FCE0170
:101B90000B96E8DE86E590E3A8E3B0E089839A83BC
:101BA000AB83BC831C870B8744E0BE016F5F7F4F14
:101BB000CE010B96D7DEEDEDF3E08491882341F062
:101BC0009091C00095FFFCCF8093C6003196F5CF71
:101BD000EDECF3E08491882341F09091C00095FFF3
:101BE000FCCF8093C6003196F5CF8091C00085FF71
:101BF000FCCF8AE08093C6002C960FB6F894DEBF27
:101C00000FBECDBFDF91CF911F910F910895CF935C
:101C1000DF93CDEDD3E0FE018491882341F09091D4
:101C2000C00095FFFCCF8093C6003196F5CFEDEB59
:101C3000F3E08491882341F09091C00095FFFCCFA0
:101C40008093C6003196F5CF8091C00085FFFCCF10
:101C50008AE08093C600FE018491EDEDF3E08823D5
:101C600049F09091C00095FFFCCF8093C60031965B
:101C70008491F5CF409156155091571560915815A4
:101C80007091591585EB93E00E944E1940915A15B9
:101C900050915B1560915C1570915D1582EB93E03E
:101CA0000E944E1940915E1550915F15609160152C
:101CB000709161158FEA93E00E944E194091621570
:101CC0005091631560916415709165158CEA93E0ED
:101CD0000E944E198091C00085FFFCCF8AE080935E
:101CE000C600FE018491EDEDF3E0882349F0909168
:101CF000C00095FFFCCF8093C60031968491F5CF4C
:101D0000E2E9F3E08491882341F09091C00095FFCF
:101D1000FCCF8093C6003196F5CF8091C00085FF3F
:101D2000FCCF8AE08093C600FE018491EDEDF3E0E4
:101D3000882349F09091C00095FFFCCF8093C600A6
:101D400031968491F5CF4091661550916715609159
:101D500068157091691589E893E00E944E194091C9
:101D60006A1550916B1560916C1570916D1586E830
:101D700093E00E944E1940916E1550916F1560913D
:101D800070157091711583E893E00E944E1940918F
:101D9000721550917315609174157091751580E8E6
:101DA00093E00E944E198091C00085FFFCCF8AE02D
:101DB0008093C600FE018491EDEDF3E0882349F0A5
:101DC0009091C00095FFFCCF8093C600319684911E
:101DD000F5CFE2E6F3E08491882341F09091C000D2
:101DE00095FFFCCF8093C6003196F5CF8091C0005F
:101DF00085FFFCCF8AE08093C600FE018491EDED63
:101E0000F3E0882349F09091C00095FFFCCF8093C8
:101E1000C60031968491F5CF4091461550914715F3
:101E2000609148157091491589E593E00E945F190A
:101E300040914A1550914B1560914C1570914D157C
:101E400086E593E00E945F1940914E1550914F1521
:101E5000609150157091511583E593E00E945F19D0
:101E6000409152155091531560915415709155152C
:101E700080E593E00E945F198091C00085FFFCCF50
:101E80008AE08093C600FE018491EDEDF3E08823A3
:101E900049F09091C00095FFFCCF8093C600319629
:101EA0008491F5CFEBE1F3E08491882341F09091A8
:101EB000C00095FFFCCF8093C6003196F5CF80918E
:101EC000C00085FFFCCF8AE08093C600FE018491AC
:101ED000EDEDF3E0882349F09091C00095FFFCCF31
:101EE0008093C60031968491F5CF40913E15509174
:101EF0003F15609140157091411582E193E00E9479
:101F00004E1940913A1550913B1560913C157091D6
:101F10003D158FE093E00E944E198091C00085FF2F
:101F2000FCCF8AE08093C600FE018491EDEDF3E0E2
:101F3000882349F09091C00095FFFCCF8093C600A4
:101F400031968491F5CFECE5F2E08491882341F05D
:101F50009091C00095FFFCCF8093C6003196F5CFDD
:101F60008091C00085FFFCCF8AE08093C600FE010F
:101F70008491EDEDF3E0882349F09091C00095FF46
:101F8000FCCF8093C60031968491F5CF40914215E5
:101F900050914315609144157091451583E592E089
:101FA0000E944E1940912A1550912B1560912C15C5
:101FB00070912D1580E592E00E944E1940917615A2
:101FC0005091771560917815709179158DE492E0B4
:101FD0000E945F1940913615509137156091381560
:101FE000709139158AE492E00E944E1940913215A1
:101FF00050913315609134157091351587E492E056
:102000000E944E1940912E1550912F156091301558
:102010007091311584E492E00E944E198091C000C5
:1020200085FFFCCF8AE08093C600FE018491EDED30
:10203000F3E0882349F09091C00095FFFCCF809396
:10204000C60031968491F5CFE2E3F2E084918823D3
:1020500041F09091C00095FFFCCF8093C60031966F
:10206000F5CF8091C00085FFFCCF8AE08093C60049
:10207000FE018491EDEDF3E0882349F09091C000DA
:1020800095FFFCCF8093C60031968491F5CF4091A7
:10209000CF0B5091D00B6091D10B7091D20B89E294
:1020A00092E00E944E194091D30B5091D40B609155
:1020B000D50B7091D60B86E292E00E944E194091AA
:1020C000D70B5091D80B6091D90B7091DA0B83E24A
:1020D00092E00E944E198091C00085FFFCCF8AE0FB
:1020E0008093C600FE018491EDEDF3E0882349F072
:1020F0009091C00095FFFCCF8093C60031968491EB
:10210000F5CFE5E1F2E08491882341F09091C000A1
:1021100095FFFCCF8093C6003196F5CF8091C0002B
:1021200085FFFCCF8AE08093C600FE018491EDED2F
:10213000F3E0882349F09091C00095FFFCCF809395
:10214000C60031968491F5CF409175025091760288
:1021500060917702709178028BE092E00E944E19B4
:102160006091710270917202809173029091740279
:102170000E94FD97AB01BC0188E092E00E944E19DD
:1021800060916D0270916E0280916F029091700269
:102190000E940998AB01BC0185E092E00E944E19B3
:1021A0008091C00085FFFCCF8AE08093C600FE01CD
:1021B0008491EDEDF3E0882349F09091C00095FF04
:1021C000FCCF8093C60031968491F5CFE2EFF1E029
:1021D0008491882341F09091C00095FFFCCF8093BB
:1021E000C6003196F5CF8091C00085FFFCCF8AE014
:1021F0008093C60040918E1550918F156091901577
:10220000709191158EEE91E00E944E198091C00060
:1022100085FFFCCF8AE08093C600FE018491EDED3E
:10222000F3E0882349F09091C00095FFFCCF8093A4
:10223000C60031968491F5CFEDEDF1E084918823CD
:1022400041F09091C00095FFFCCF8093C60031967D
:10225000F5CF8091C00085FFFCCF8AE08093C60057
:102260004091891550918A1560918B1570918C154C
:1022700089ED91E00E944E198091C00085FFFCCF4E
:102280008AE08093C600FE01C491EDEDF3E0CC231B
:1022900049F08091C00085FFFCCFC093C600319605
:1022A000C491F5CFE8ECF1E08491882341F090915E
:1022B000C00095FFFCCF8093C6003196F5CF80918A
:1022C000C00085FFFCCF8AE08093C6004091851551
:1022D00050918615609187157091881584EC91E076
:1022E000DDD78091C00085FFFCCF8AE08093C600D7
:1022F000DF91CF910895AF92BF92CF92DF92EF928C
:10230000FF920F931F93CF93DF93CDB7DEB7E09784
:102310000FB6F894DEBF0FBECDBF80E1E2E9F2E078
:10232000DE01919601900D928A95E1F780E1E2EA53
:10233000F2E0DE01519601900D928A95E1F780E17D
:10234000E2EBF2E0DE01119601900D928A95E1F741
:102350006E0181E2C80ED11C86E5E82E85E1F82EDB
:102360008E010F5E1F4F66E675E1AE014F5F5F4F56
:1023700096E4A92E95E1B92E20E030E0F601819196
:102380009191A191B1916F01F70181939193A193E3
:10239000B1937F01F80181919191A191B1918F0148
:1023A000FB0181939193A193B193BF01FA018191B4
:1023B0009191A191B191AF01F50181939193A19375
:1023C000B1935F012F5F3F4F24303105B9F60E9472
:1023D000517D80E090E0AAEFB3E480933E159093A6
:1023E0003F15A0934015B093411580933A159093F3
:1023F0003B15A0933C15B0933D15109242151092D9
:102400004315109244151092451580E29EE4A0E019
:10241000B0E08093761590937715A0937815B093DC
:10242000791510922A1510922B1510922C151092D6
:102430002D1580E090E0A0EAB1E4809336159093EA
:102440003715A0933815B09339158DEC9CECACEC96
:10245000BEE38093321590933315A0933415B09357
:10246000351580E090E0A0EAB0E480932E159093BB
:102470002F15A0933015B09331151092D70B1092F1
:10248000D80B1092D90B1092DA0B1092D30B10923A
:10249000D40B1092D50B1092D60B1092CF0B10923A
:1024A000D00B1092D10B1092D20B88EC90E090934D
:1024B000AE168093AD161092AC161092AB16109219
:1024C000AA161092A9168CED90E09093A81680930E
:1024D000A71683E290E09093A6168093A51610921B
:1024E000A4161092A3168AE999E9A1EBB1E48093AE
:1024F000750290937602A0937702B093780261E719
:102500007DE38AE89FE30E94F797609371027093DE
:102510007202809373029093740260E070E084EE24
:1025200092E40E94039860936D0270936E02809310
:102530006F02909370020E947E8980E090E0A0E894
:10254000BFE38093690290936A02A0936B02B093F9
:102550006C0280E090E8AAE0B4E480938E1590933A
:102560008F15A0939015B093911580E090E0A0E9AD
:10257000B0E48093891590938A15A0938B15B0933E
:102580008C1580E090E0A0E0B0E4809385159093F6
:102590008615A0938715B09388158FEF90E09093E0
:1025A00084158093831580E590E090938215809345
:1025B000811510927B1510927A15EDEDF3E0849160
:1025C000882341F09091C00095FFFCCF8093C60016
:1025D0003196F5CFE8E8F1E08491882341F09091BD
:1025E000C00095FFFCCF8093C6003196F5CF809157
:1025F000C00085FFFCCF8AE08093C600E0960FB64E
:10260000F894DEBF0FBECDBFDF91CF911F910F9128
:10261000FF90EF90DF90CF90BF90AF90EFC9CF9336
:10262000DF93CDB7DEB72C970FB6F894DEBF0FBEA1
:10263000CDBF84E690E09C878B8786E590E3A8E396
:10264000B0E089839A83AB83BC8344E0BE016B5FB7
:102650007F4FCE010B96ACD943E050E0BE016B5FDB
:102660007F4FCE0101960E949DB9892B09F0CFC002
:1026700040E166E575E1CE010B969AD940E166E648
:1026800075E1CE010B9694D940E166E475E1CE0187
:102690000B968ED90E94517D44E06EE375E1CE0128
:1026A0000B9686D944E06AE375E1CE010B9680D99A
:1026B00044E062E475E1CE010B967AD944E06AE227
:1026C00075E1CE010B9674D944E066E775E1CE0161
:1026D0000B966ED944E066E375E1CE010B9668D99E
:1026E00044E062E375E1CE010B9662D944E06EE20C
:1026F00075E1CE010B965CD94CE06FEC7BE0CE012E
:102700000B9656D942E06DEA76E1CE010B9650D990
:1027100042E06BEA76E1CE010B964AD942E069EAE3
:1027200076E1CE010B9644D942E067EA76E1CE012C
:102730000B963ED942E065EA76E1CE010B9638D998
:1027400042E063EA76E1CE010B9632D944E065E7D8
:1027500072E0CE010B962CD944E061E772E0CE0125
:102760000B9626D944E06DE672E0CE010B9620D997
:1027700044E06EE875E1CE010B961AD944E069E8B1
:1027800075E1CE010B9614D944E065E875E1CE0100
:102790000B960ED942E063E875E1CE010B9608D99D
:1027A00042E061E875E1CE010B9602D942E06AE7AA
:1027B00075E1CE010B96FCD842E0BE01675F7F4F0A
:1027C000CE010B96F5D80E947E89EDEDF3E0849161
:1027D000882341F09091C00095FFFCCF8093C60004
:1027E0003196F5CFEAEAF1E08491882341F09091A7
:1027F000C00095FFFCCF8093C6003196F5CF809145
:10280000C00085FFFCCF8AE08093C60001C073DD65
:10281000FED92C960FB6F894DEBF0FBECDBFDF9168
:10282000CF910895DC01ED91FC910190F081E02DB4
:102830001994AC01662757FD6095762F26E089EB49
:1028400096E10C9415AABC0189EB96E10E944AAB73
:102850006FEF70E089EB96E1E5DF6FEF70E089EBF9
:1028600096E1E0DF6FEF70E089EB96E1DBCFBC0132
:1028700089EB96E10C944AAB6FEF70E089EB96E13F
:10288000D1DF6FEF70E089EB96E1CCDF6FEF70E0A6
:1028900089EB96E1C7CF60E070E089EB96E1C2DF9B
:1028A0006FEF70E089EB96E1BDDF6FEF70E089EBD1
:1028B00096E1B8DF6FEF70E089EB96E1B3CF89EB7B
:1028C00096E10E9406A921E0892B09F420E0822FDD
:1028D000089589EB96E10C941FA908951F920F9219
:1028E0000FB60F9211240BB60F922F933F934F9375
:1028F0005F936F938F939F93EF93FF936091C600C5
:102900002091BD093091BE09C90101968F779927A1
:102910004091BF095091C0098417950741F0F90112
:10292000E35CF64F60839093BE098093BD09FF91ED
:10293000EF919F918F916F915F914F913F912F9167
:102940000F900BBE0F900FBE0F901F9018959A011D
:10295000AB01211581EE38074105510549F182E0AF
:102960008093C00060E079E08DE390E00E94E9B3DD
:102970002150310941095109CA01B90122E030E071
:1029800040E050E00E94E9B33093C5002093C400BA
:102990008091C10080618093C1008091C1008860F6
:1029A0008093C1008091C10080688093C100089528
:1029B0001092C00020E130E0E7CF2091BF093091B4
:1029C000C0098091BD099091BE098217930771F0EB
:1029D000F901E35CF64F80812F5F3F4F2F7733275C
:1029E0003093C0092093BF0990E008958FEF9FEFC7
:1029F00008958091BF099091C0099093BE0980937A
:102A0000BD0908954F925F926F927F928F929F922D
:102A1000AF92BF92CF92DF92EF92FF920F931F93EC
:102A2000CF93DF93CDB7DEB7A0970FB6F894DEBF94
:102A30000FBECDBF5C014115510561057105E9F47B
:102A400020E030E040E350E060E070E0A0960FB698
:102A5000F894DEBF0FBECDBFDF91CF911F910F91D4
:102A6000FF90EF90DF90CF90BF90AF909F908F90AE
:102A70007F906F905F904F905BC08E010F5F1F4FF4
:102A8000C12CD12C76014801422E512C612C712C85
:102A90008FEFC81AD80AE80AF80ACB01BA01A301D5
:102AA00092010E94C7B3CA01F80161938F01A90185
:102AB000BC01411551056105710551F7F1E0CF1ACF
:102AC000D108E108F108F401EC0DFD1D80818A3088
:102AD00010F440E301C047E3480F552747FD5095E8
:102AE000652F752F20E030E0C50122D081E0C81AA3
:102AF000D108E108F108EFEFCE16DE06EE06FE067D
:102B000011F7A0960FB6F894DEBF0FBECDBFDF91D0
:102B1000CF911F910F91FF90EF90DF90CF90BF90DA
:102B2000AF909F908F907F906F905F904F9008959F
:102B30002115310539F48091C00085FFFCCF409309
:102B4000C60008952A30310509F41CC05BCFCF932D
:102B5000DF93EC0120E030E04DE050E060E070E019
:102B6000E7DF20E030E04AE050E060E070E0CE01D6
:102B7000DF91CF91DDCF9A01AB01662757FD6095BC
:102B8000762FD6CFCF92DF92EF92FF92CF93DF9343
:102B9000EC016A017B0177FF0FC020E030E04DE2DD
:102BA00050E060E070E0C4DFF094E094D094C09412
:102BB000C11CD11CE11CF11C2AE0B701A601CE0109
:102BC000DF91CF91FF90EF90DF90CF901BCF211539
:102BD000310539F48091C00085FFFCCF4093C600D9
:102BE000089510CF9A01462F50E060E070E0EFCFDB
:102BF000CF93DF93EC019A01AB0160E070E0E7DF77
:102C0000CE01DF91CF91A3CF8F929F92AF92BF92CF
:102C1000CF92DF92EF92FF921F93CF93DF93EC015D
:102C20006A017B01122F20E030E0A901C701B60143
:102C30000E94F6AF87FF0CC020E030E04DE250E08C
:102C400060E070E0CE0174DFF7FAF094F7F8F094EA
:102C5000B12C60E070E080E09FE3B11641F020E02D
:102C600030E040E251E40E94FDAFB394F6CF9B0107
:102C7000AC01C701B6010E941DAF6B017C010E942F
:102C80006AB04B015C010E9496B09B01AC01C70188
:102C9000B6010E941CAF6B017C012AE0B501A401C2
:102CA000CE01B0DE112361F0EAEFF6E081918823D6
:102CB00039F09091C00095FFFCCF8093C600F6CF0D
:102CC000112319F120E030E040E251E4C701B601E0
:102CD0000E94CBB26B017C010E9465B04B01AA241B
:102CE00097FCA094BA2CB501A401CE014BDFC5011D
:102CF000B4010E9498B09B01AC01C701B6010E94CB
:102D00001CAF6B017C011150DBCFDF91CF911F9184
:102D1000FF90EF90DF90CF90BF90AF909F908F90FB
:102D2000089572CFFC0165917591859194910895F4
:102D300088E09AE0F7DF2091CF0B3091D00B4091E3
:102D4000D10B5091D20B0C941DAFCF92DF92EF922A
:102D5000FF92892B29F4FF90EF90DF90CF90E8CF7E
:102D6000C090BB0BD090BC0BE090BD0BF090BE0BA5
:102D700020E030E0A901C701B6010E94F9B11816A0
:102D800044F0C0908E15D0908F15E0909015F09083
:102D90009115C701B601FF90EF90DF90CF90089595
:102DA0004F925F926F927F928F929F92AF92BF925B
:102DB000CF92DF92EF92FF920F931F93CF93DF9307
:102DC000009709F0E5C02091B60B2223D9F1822F9C
:102DD00090E0BBDF6093DB0B7093DC0B8093DD0B2B
:102DE0009093DE0B1092240210922502109226027C
:102DF00010922702C090BB0BD090BC0BE090BD0B93
:102E0000F090BE0B00918E1510918F15D0919015FA
:102E1000C091911598014D2F5C2FB601C7010E94FA
:102E2000F9B118161CF48601DE2DCF2DC801AD2F87
:102E3000BC2F8093180290931902A0931A02B093AA
:102E40001B02E7C020910C0230910D022250310983
:102E50002230310508F09CC088E09AE063DF2091C1
:102E6000CF0B3091D00B4091D10B5091D20B0E94DF
:102E70001DAF6093DB0B7093DC0B8093DD0B9093A5
:102E8000DE0B80E29AE04EDF2091CF0B3091D00B29
:102E90004091D10B5091D20B0E941DAF6093240240
:102EA00070932502809326029093270284E19AE092
:102EB00039DF2091CF0B3091D00B4091D10B509145
:102EC000D20B0E941DAF4B015C014090BB0B509098
:102ED000BC0B6090BD0B7090BE0B00918E151091D5
:102EE0008F15D0919015C091911598014D2F5C2FA1
:102EF000B201C3010E94F9B118162CF4B42DA52D0E
:102F0000F62DE72D03C0B02FA12FFE01C0900802BF
:102F1000D0900902E0900A02F0900B02A7019601FE
:102F20006B2F7A2F8F2F9E2F0E941CAF9B01AC011D
:102F3000C501B4010E94F6AF87FF0EC084E19AE09C
:102F4000F1DE2091CF0B3091D00B4091D10B5091FD
:102F5000D20B0E941DAF13C098014D2F5C2FB20100
:102F6000C3010E94F9B118161CF48201D62DC72D99
:102F7000A7019601B8018D2F9C2F0E941CAF609372
:102F800018027093190280931A0290931B0241C099
:102F9000EC01CC0FDD1FCC0FDD1FCE01885F954FFC
:102FA000C1DE9E012552344F79018E010153144F29
:102FB000F80120813181428153810E941DAFF701C8
:102FC0006083718382839383CE01805E954FAADEF6
:102FD0009E012C5D3D4F7901F801208131814281B4
:102FE00053810E941DAFF7016083718382839383B5
:102FF000CE018C5E954F96DEC85EDD4FF8012081D4
:103000003181428153810E941DAF688379838A8315
:103010009B83DF91CF911F910F91FF90EF90DF90F5
:10302000CF90BF90AF909F908F907F906F905F9068
:103030004F9008952F923F924F925F926F927F929E
:103040008F929F92AF92BF92CF92DF92EF92FF92B8
:103050000F931F93CF93DF9300D01F92CDB7DEB7AE
:103060004C01FC01E351F64F0491009721F0112728
:1030700007FD109509C08091B60B811103C00FEFB9
:103080001FEF02C001E010E0C401880F991F880FF4
:10309000991F9C838B838552944F1C01FC011082E5
:1030A00011821282138227EE3BE043EE5BE06FED6C
:1030B0007BE08BED9BE00E94867C8B819C81845021
:1030C000964F30DE6B017C01B801882777FD809533
:1030D000982F0E9498B02B013C018B819C818C55CC
:1030E000944F5C0120E030E040EC5FE3C701B601A3
:1030F0000E94CBB2A30192010E94CBB2F501608382
:103100007183828393838B819C818C5C9D4F9A8396
:103110008983FC01608171818281938160931302B4
:1031200070931402809315029093160220E030E011
:1031300040E752E40E94FDAF36EBC32E3BE0D32EB6
:103140007B018C0120EB3BE04CEA5BE068EA7BE032
:1031500084EA9BE00E94F2720E94B786F10110821D
:1031600011821282138227EE3BE043EE5BE06FEDAB
:103170007BE08BED9BE00E94867C8B819C81805163
:10318000964F9C838B83CEDD9058A30192010E94C1
:10319000CBB2F501608371838283938320E030E0BA
:1031A00048EC52E460911302709114028091150270
:1031B000909116020E94FDAF7B018C0120EB3BE059
:1031C0004CEA5BE068EA7BE084EA9BE00E94F272F2
:1031D0000E94B7868B819C81A5DD9B01AC010E947A
:1031E0001DAFA30192010E94CBB2F50160837183F0
:1031F0008283938320E030E040E05FE3E981FA815D
:1032000060817181828193810E94CBB260931302AD
:1032100070931402809315029093160220E030E020
:1032200044E353E40E94FDAF7B018C0120EB3BE0C3
:103230004CEA5BE068EA7BE084EA9BE00E94F27281
:103240000E94B786C401ACDDF10180819181A28129
:10325000B381F50180839183A283B383109213021B
:103260001092140210921502109216020F900F90F5
:103270000F900F90DF91CF911F910F91FF90EF90E2
:10328000DF90CF90BF90AF909F908F907F906F9086
:103290005F904F903F902F900C94347EFC012491CE
:1032A000222341F03091C00035FFFCCF2093C600AF
:1032B0000196F4CF22E030E08CE399E032CDFC01BE
:1032C0002491222341F03091C00035FFFCCF2093A0
:1032D000C6000196F4CF2AE030E08CE399E077CC89
:1032E000CF93DF931F921F92CDB7DEB78091561711
:1032F000909157179E012F5F3F4F009719F42C555F
:10330000374102C0281B390B3A83298389819A816E
:103310000F900F90DF91CF9108952091F90930918E
:10332000FA09243031050CF06AC04091FB09509134
:10333000FC0960E6649F9001659F300D1124BC017B
:10334000C9018D5F954F0E9496B9ECE2FAE0849135
:10335000882341F09091C00095FFFCCF8093C60078
:103360003196F5CFE2EEF9E08491882341F0909117
:10337000C00095FFFCCF8093C6003196F5CF8091B9
:10338000FB099091FC0920E6289FF001299FF00D90
:103390001124ED5FF54F8191882339F09091C000A1
:1033A00095FFFCCF8093C600F6CFE0EEF9E0849164
:1033B000882341F09091C00095FFFCCF8093C60018
:1033C0003196F5CF8091C00085FFFCCF8AE08093D5
:1033D000C6008091FB099091FC09019664E070E0C1
:1033E0000E94B4B39093FC098093FB098091F90982
:1033F0009091FA0901969093FA098093F90908953A
:103400002091F9093091FA09243031050CF06AC095
:103410004091FB095091FC0960E6649F9001659F13
:10342000300D1124BC01C9018D5F954F0E9408B970
:10343000ECE2FAE08491882341F09091C00095FF7E
:10344000FCCF8093C6003196F5CFE5EDF9E084918D
:10345000882341F09091C00095FFFCCF8093C60077
:103460003196F5CF8091FB099091FC0920E6289FC9
:10347000F001299FF00D1124ED5FF54F8191882314
:1034800039F09091C00095FFFCCF8093C600F6CF35
:10349000E3EDF9E08491882341F09091C00095FF1D
:1034A000FCCF8093C6003196F5CF8091C00085FF98
:1034B000FCCF8AE08093C6008091FB099091FC09C3
:1034C000019664E070E00E94B4B39093FC0980938D
:1034D000FB098091F9099091FA0901969093FA09F4
:1034E0008093F909089560E080E20C9470A8999A9D
:1034F000A19A0895CF93DF93EC0164E474E00E94F5
:10350000CAABDDD9882361F0E4D9682FCE010E94CF
:10351000D5AC62E070E080E090E00E94B3A6F1CF0D
:10352000CE01DF91CF9108952F923F924F925F92FB
:103530006F927F928F929F92AF92BF92CF92DF92C3
:10354000EF92FF920F931F93CF93DF9300D0CDB7ED
:10355000DEB75C014B012901FB010481158101509B
:103560001109612C712CCC24CA94DC2C212C312C17
:10357000E12CF12C7B826A82061517057CF14E1432
:103580005F042CF16A817B81C40149830E9441ADB3
:103590002A813B812F5F3F4F4981841741F08A8107
:1035A0009B818017910719F0DB82CA820CC09FEFC4
:1035B000E91AF90A1601EFEF2E1A3E0A6016710693
:1035C00011F43B832A833901CA80DB80D3CF960173
:1035D000A101B401C5010E94BAAD08C04E145F0438
:1035E000B4F364E474E0C5010E94CAABC5010F9056
:1035F0000F900F90DF91CF911F910F91FF90EF905F
:10360000DF90CF90BF90AF909F908F907F906F9002
:103610005F904F903F902F900895CF93DF93CDB759
:10362000DEB72C970FB6F894DEBF0FBECDBF2FEFDD
:1036300089EF90E0215080409040E1F700C0000009
:1036400060917A1570917B154AE0CE0107960E9431
:1036500053AC62E473E0CE0101960E94CAABCE0186
:10366000019605D9CE0101960E945FABBE01695F4C
:103670007F4FCE0101960E942AACCE010196F7D869
:10368000CE0101960E945FABF7D82FEF89EF90E053
:10369000215080409040E1F700C0000020E030E081
:1036A00048EC52E460918E1570918F1580919015C1
:1036B000909191150E94CBB20E9465B0AB01BC0104
:1036C0002AE0CE0101960E947EACBE016F5F7F4F63
:1036D000CE0107960E9432ACCE0101960E945FABEC
:1036E00068E573E0CE0101960E94CAABCE01019657
:1036F000BED8CE0101960E945FABBE01695F7F4FCD
:10370000CE0101960E942AACCE010196B0D8CE011E
:1037100001960E945FABB0D82FEF89EF90E0215067
:1037200080409040E1F700C0000020E030E048EC2D
:1037300052E46091891570918A1580918B15909152
:103740008C150E94CBB20E9465B0AB01BC012AE08F
:10375000CE0101960E947EACBE016F5F7F4FCE010D
:1037600007960E9432ACCE0101960E945FAB69E6DB
:1037700073E0CE0101960E94CAABCE01019677D8C4
:10378000CE0101960E945FABBE01695F7F4FCE0103
:1037900001960E942AACCE01019669D8CE0101960D
:1037A0000E945FAB69D82FEF89EF90E021508040F5
:1037B0009040E1F700C0000020E030E048EC52E427
:1037C0006091851570918615809187159091881567
:1037D0000E94CBB20E9465B0AB01BC012AE0CE01D1
:1037E00001960E947EACBE016F5F7F4FCE010796AF
:1037F0000E9432ACCE0101960E945FAB6AE773E093
:10380000CE0101960E94CAABCE01019630D8CE01FE
:1038100001960E945FABBE01695F7F4FCE010196AA
:103820000E942AACCE01019622D8CE0101960E94B8
:103830005FAB22D82FEF89EF90E02150804090407D
:10384000E1F700C0000020E030E048EC52E4609175
:1038500056157091571580915815909159150E94E1
:10386000CBB20E9465B0AB01BC012AE0CE0101964B
:103870000E947EACBE016F5F7F4FCE0107960E9413
:1038800032ACCE0101960E945FAB6BE873E0CE01D3
:1038900001960E94CAABCE0101960E943714CE0158
:1038A00001960E945FABBE01695F7F4FCE0101961A
:1038B0000E942AACCE0101960E943714CE010196D7
:1038C0000E945FAB0E943C142FEF89EF90E02150E3
:1038D00080409040E1F700C0000020E030E048EC7C
:1038E00052E460915A1570915B1580915C1590912E
:1038F0005D150E94CBB20E9465B0AB01BC012AE00D
:10390000CE0101960E947EACBE016F5F7F4FCE015B
:1039100007960E9432ACCE0101960E945FAB6CE923
:1039200073E0CE0101960E94CAABCE0101960E94BF
:103930003714CE0101960E945FABBE01695F7F4FD5
:10394000CE0101960E942AACCE0101960E94371446
:10395000CE0101960E945FAB0E943C142FEF89EFCD
:1039600090E0215080409040E1F700C0000020E04E
:1039700030E048EC52E460915E1570915F158091E3
:103980006015909161150E94CBB20E9465B0AB01A9
:10399000BC012AE0CE0101960E947EACBE016F5FA1
:1039A0007F4FCE0107960E9432ACCE0101960E9455
:1039B0005FAB6DEA73E0CE0101960E94CAABCE0107
:1039C00001960E943714CE0101960E945FABBE01A2
:1039D000695F7F4FCE0101960E942AACCE0101960D
:1039E0000E943714CE0101960E945FAB0E943C14E6
:1039F0002FEF89EF90E0215080409040E1F700C028
:103A0000000020E030E048EC52E4609162157091D3
:103A1000631580916415909165150E94CBB20E9448
:103A200065B0AB01BC012AE0CE0101960E947EACDC
:103A3000BE016F5F7F4FCE0107960E9432ACCE0170
:103A400001960E945FAB6EEB73E0CE0101960E947F
:103A5000CAABCE0101960E943714CE0101960E9496
:103A60005FABBE01695F7F4FCE0101960E942AAC19
:103A7000CE0101960E943714CE0101960E945FABE1
:103A80000E943C142FEF89EF90E02150804090403D
:103A9000E1F700C00000409183155091841566271E
:103AA00057FD6095762F2AE0CE0101960E947EACEC
:103AB000BE016F5F7F4FCE0107960E9432ACCE01F0
:103AC00001960E945FAB6FEC73E0CE0101960E94FD
:103AD000CAABCE0101960E943714CE0101960E9416
:103AE0005FABBE01695F7F4FCE0101960E942AAC99
:103AF000CE0101960E943714CE0101960E945FAB61
:103B00000E943C142FEF89EF90E0215080409040BC
:103B1000E1F700C0000040918115509182156627A1
:103B200057FD6095762F2AE0CE0101960E947EAC6B
:103B3000BE016F5F7F4FCE0107960E9432ACCE016F
:103B400001960E945FAB61EE73E0CE0101960E9488
:103B5000CAABCE0101960E943714CE0101960E9495
:103B60005FABBE01695F7F4FCE0101960E942AAC18
:103B7000CE0101960E943714CE0101960E945FABE0
:103B80000E943C142FEF89EF90E02150804090403C
:103B9000E1F700C0000020E030E040E251E4609135
:103BA0008E1570918F1580919015909191150E94AE
:103BB000CBB20E9465B0AB01BC012AE0CE010196F8
:103BC0000E947EACBE016F5F7F4FCE0107960E94C0
:103BD00032ACCE0101960E945FAB63EF73E0CE0181
:103BE00001960E94CAABCE0101960E943714CE0105
:103BF00001960E945FABBE01695F7F4FCE010196C7
:103C00000E942AACCE0101960E943714CE01019683
:103C10000E945FAB0E943C142FEF89EF90E021508F
:103C200080409040E1F700C000002AE040E554E108
:103C300060E070E0CE0101960E947EACBE016F5F35
:103C40007F4FCE0107960E9432ACCE0101960E94B2
:103C50005FAB63E074E0CE0101960E94CAABCE0177
:103C600001960E943714CE0101960E945FABBE01FF
:103C7000695F7F4FCE0101960E942AACCE0101966A
:103C80000E943714CE0101960E945FAB0E943C1443
:103C90002FEF89EF90E0215080409040E1F700C085
:103CA00000002AE044ED57E160E070E0CE010196AB
:103CB0000E947EACBE016F5F7F4FCE0107960E94CF
:103CC00032ACCE0101960E945FAB63E174E0CE019D
:103CD00001960E94CAABCE0101960E943714CE0114
:103CE00001960E945FABBE01695F7F4FCE010196D6
:103CF0000E942AACCE0101960E943714CE01019693
:103D00000E945FAB0E943C142FEF89EF90E021509E
:103D100080409040E1F700C0000063E274E0CE0113
:103D200001960E94CAABCE0101960E942314CE01D7
:103D300001960E945FAB2FEF89EF90E02150804009
:103D40009040E1F700C00000CE0107960E945FABF3
:103D50002C960FB6F894DEBF0FBECDBFDF91CF918A
:103D60000895DF92EF92FF920F931F93CF93DF930B
:103D7000CDB7DEB762970FB6F894DEBF0FBECDBFEA
:103D80000E944B1469E374E08E010F5F1F4FC8015E
:103D90000E94CAABC8010E942314C8010E945FABF5
:103DA000F02EE12ECE010D96A5DB64E474E0CE0189
:103DB0000D960E9411AD811186C064E474E0C801C3
:103DC0000E94CAAB61E474E0CE0107960E94CAABC0
:103DD000A801BE01695F7F4FCE010D960E94FDAD27
:103DE000CE0107960E945FABC8010E945FAB64E4FE
:103DF00074E0C8010E94CAAB63E474E0CE01079688
:103E00000E94CAABA801BE01695F7F4FCE010D962B
:103E10000E94FDADCE0107960E945FABC8010E94D3
:103E20005FABBE01635F7F4FC8010E942AAC25E0F3
:103E300030E04CE2B801CE01079676DBC8010E9463
:103E40005FAB65E474E0C8010E94CAABC8010E9480
:103E50003714C8010E945FABBE01695F7F4FC80184
:103E60000E942AACC8010E943714C8010E945FABAF
:103E70006CEB74E0C8010E94CAABC8010E94371401
:103E8000C8010E945FAB0E943C142FEF89EF90E0C5
:103E9000215080409040E1F700C0000067E574E0E9
:103EA0008F2D9E2D0E94CAAB8F2D9E2D0E94231414
:103EB0008F2D9E2D0E945FABCE0107960E945FABB7
:103EC000DD24D39407C08FE39CE90197F1F700C08C
:103ED0000000D12CCE010D960E945FABDD2009F4CD
:103EE00061CF62960FB6F894DEBF0FBECDBFDF91F3
:103EF000CF911F910F91FF90EF90DF900895CF9396
:103F0000DF9300D000D0CDB7DEB7EDDAF0DA2FEFD7
:103F100089EF90E0215080409040E1F700C0000020
:103F200080E895E20E941914EFEFF1EE24E0E150F1
:103F3000F0402040E1F700C0000063E674E0CE01ED
:103F400001960E94CAABCE0101960E942314CE01B5
:103F500001960E945FAB8FEF99EFE0E081509040B7
:103F6000E040E1F700C0000040E052EC61E070E0AA
:103F70008CE399E00E94A714EDECF9E0849188238A
:103F800041F09091C00095FFFCCF8093C600319620
:103F9000F5CF8091C00085FFFCCF8AE08093C600FA
:103FA0008CE29AE0FC012491222341F03091C00080
:103FB00035FFFCCF2093C6003196F5CF24B720FF04
:103FC00014C0E5ECF9E03491332341F04091C00096
:103FD00045FFFCCF3093C6003196F5CF3091C0003D
:103FE00035FFFCCF3AE03093C60021FF14C0E5EB6B
:103FF000F9E03491332341F04091C00045FFFCCFFC
:104000003093C6003196F5CF3091C00035FFFCCF1C
:104010003AE03093C60022FF14C0E4EAF9E034919C
:10402000332341F04091C00045FFFCCF3093C600E0
:104030003196F5CF3091C00035FFFCCF3AE0309398
:10404000C60023FF14C0E4E9F9E03491332341F0C2
:104050004091C00045FFFCCF3093C6003196F5CFAC
:104060003091C00035FFFCCF3AE03093C60025FF09
:1040700014C0E4E8F9E02491222341F03091C0001B
:1040800035FFFCCF2093C6003196F5CF2091C000BC
:1040900025FFFCCF2AE02093C60014BEECE7F9E030
:1040A0002491222341F03091C00035FFFCCF2093B2
:1040B000C6003196F5CFE6E7F9E02491222341F0DE
:1040C0003091C00035FFFCCF2093C6003196F5CF6C
:1040D0002091C00025FFFCCF2AE02093C600FC0100
:1040E0002491ECE2FAE0222349F03091C00035FF40
:1040F000FCCF2093C60031962491F5CFE6E6F9E097
:104100002491222341F03091C00035FFFCCF209351
:10411000C6003196F5CFE1E5F9E02491222341F084
:104120003091C00035FFFCCF2093C6003196F5CF0B
:10413000E5E4F9E02491222341F03091C00035FFFD
:10414000FCCF2093C6003196F5CFEEE3F9E0249141
:10415000222341F03091C00035FFFCCF2093C600F0
:104160003196F5CF2091C00025FFFCCF2AE02093A7
:10417000C600E3E3F9E02491222341F03091C0002E
:1041800035FFFCCF2093C6003196F5CFE7E2F9E08A
:104190002491222341F03091C00035FFFCCF2093C1
:1041A000C6003196F5CF2091C00025FFFCCF2AE054
:1041B0002093C600FC018491ECE2FAE0882349F0E8
:1041C0009091C00095FFFCCF8093C60031968491FA
:1041D000F5CFE8E1F9E08491882341F09091C000A7
:1041E00095FFFCCF8093C6003196F5CF79D84AE091
:1041F00050E0BC018CE399E00E94BB15E1E0F9E0DE
:104200008491882341F09091C00095FFFCCF80936A
:10421000C6003196F5CF4AE050E060EF74E08CE3E1
:1042200099E00E94BB158091C00085FFFCCF8AE019
:104230008093C6001092FF091092000A1092010AA2
:104240001092020A0E940F13E8D98BDD0E94618D43
:104250000E94DC700E940C860E94EBA3FFEF23ED0E
:1042600080E3F15020408040E1F700C000006AE6A2
:1042700074E0CE0101960E94CAABCE0101960E9465
:104280002314CE0101960E945FAB26960FB6F894D8
:10429000DEBF0FBECDBFDF91CF9108958091F309AE
:1042A0009091F40960E070E001960C9439B6809129
:1042B000F3099091F4094AE050E060E070E0019663
:1042C0000C94A1B7682F772767FD70952091FD09A1
:1042D0003091FE0940E6429FC001439F900D11249A
:1042E0008D5F954F0E9482B99093F4098093F309F2
:1042F00021E0892B09F420E0822F0895999AA19852
:1043000008958F929F92AF92BF92CF92DF92EF92D9
:10431000FF920F931F93CF93DF934C015B01EA0150
:104320008091130290911402A0911502B09116028F
:104330008093900B9093910BA093920BB093930B5F
:1043400080913202909133029093EC0B8093EB0BAF
:1043500084E690E090933302809332020E9484A618
:104360006093EF097093F0098093F1099093F2093B
:104370006FEF7FEF81E00E943B7E8091DB0B90919D
:10438000DC0BA091DD0BB091DE0B8093A40B90931E
:10439000A50BA093A60BB093A70B8091DF0B909178
:1043A000E00BA091E10BB091E20B8093A80B9093EE
:1043B000A90BA093AA0BB093AB0B8091E30B909148
:1043C000E40BA091E50BB091E60B8093AC0B9093BE
:1043D000AD0BA093AE0BB093AF0B8091E70B909118
:1043E000E80BA091E90BB091EA0B8093B00B90938E
:1043F000B10BA093B20BB093B30B109213021092B7
:104400001402109215021092160288E55BDF8111EA
:1044100011C089E557DF81110DC08AE553DF811195
:1044200009C08114910431F4A114B10419F481E09C
:10443000209709F080E080931702811134C1C130C8
:10444000D10509F430C18AE53DDF81112CC180918D
:104450001702811108C08A94892829F088E532DF83
:10446000882309F472C0F090B60B81E090E090933D
:10447000070280930602F11080E08093B60B80E083
:1044800090E00E941A188091DB0B9091DC0BA091B8
:10449000DD0BB091DE0B8093DA099093DB09A093DA
:1044A000DC09B093DD09F092B60B80E090E00E9449
:1044B0001A188091DB0B9091DC0BA091DD0BB09171
:1044C000DE0B8093C9099093CA09A093CB09B093DE
:1044D000CC0980911702811105C081E0A816B104B2
:1044E00009F072C11092CD091092CE091092CF0935
:1044F0001092D0098091E30B9091E40BA091E50B11
:10450000B091E60B8093D1099093D209A093D3097F
:10451000B093D4098091E70B9091E80BA091E90B3F
:10452000B091EA0B8093D5099093D609A093D7094F
:10453000B093D8091092C5091092C6091092C70904
:104540001092C80981E08093D909809117028111E6
:1045500050C1AA94AB2809F44CC189E5B3DE81119E
:1045600048C180911702811149C1219709F446C1C0
:104570008AE5A8DE811142C188E5A4DE8823C1F066
:1045800096DE672B682B692B99F088DE2091CF0B84
:104590003091D00B4091D10B5091D20B0E941DAFA6
:1045A0006093DB0B7093DC0B8093DD0B9093DE0B41
:1045B00089E588DE8823C1F07ADE672B682B692BBA
:1045C00099F06CDE2091D30B3091D40B4091D50B38
:1045D0005091D60B0E941DAF6093DF0B7093E00BE0
:1045E0008093E10B9093E20B8AE56CDE8823C1F0A7
:1045F0005EDE672B682B692B99F050DE2091D70B7C
:104600003091D80B4091D90B5091DA0B0E941DAF1D
:104610006093E30B7093E40B8093E50B9093E60BB0
:1046200027EE3BE043EE5BE06FED7BE08BED9BE044
:104630000E94867C1092801510927F156FEF7FEF9D
:1046400080E00E943B7E8091900B9091910BA09115
:10465000920BB091930B8093130290931402A0934A
:104660001502B09316028091EB0B9091EC0B909396
:104670003302809332020E9484A66093EF09709304
:10468000F0098093F1099093F209DF91CF911F9186
:104690000F91FF90EF90DF90CF90BF90AF909F90E1
:1046A0008F900C94347E27EE3BE043EE5BE06FEDA1
:1046B0007BE08BED9BE00E94867C20E030E040EECA
:1046C00050E46091E30B7091E40B8091E50B9091C5
:1046D000E60B0E941DAF6093AC0B7093AD0B809303
:1046E000AE0B9093AF0B60913C0270913D028091B4
:1046F0003E0290913F0260931302709314028093E4
:1047000015029093160220E030E040E752E40E9448
:10471000FDAFF6EBCF2EFBE0DF2E7B018C0120EB13
:104720003BE04CEA5BE068EA7BE084EA9BE00E94C5
:10473000F2720E94B78682E090E00E94D01627EEC7
:104740003BE043EE5BE06FED7BE08BED9BE00E9496
:10475000867C8091E30B9091E40BA091E50BB091E6
:10476000E60B8093AC0B9093AD0BA093AE0BB09384
:10477000AF0B20E030E040E752E46091130270910B
:10478000140280911502909116020E94FDAF7B01E8
:104790008C0120EB3BE04CEA5BE068EA7BE084EADA
:1047A0009BE00E94F2721092130210921402109277
:1047B0001502109216020E94B78681E090E0909355
:1047C000801580937F1543CE89E57CDD81118ACEEB
:1047D0008091DF0B9091E00BA091E10BB091E20B87
:1047E0008093CD099093CE09A093CF09B093D009BF
:1047F00081CE81E090E00E941A18B3CE81E490E06F
:10480000909355028093540282E490E09093530277
:104810008093520283E190E0909351028093500282
:1048200081E090E090937E1580937D1580937C15B8
:104830001092E30B1092E40B1092E50B1092E60B32
:104840001092DF0B1092E00B1092E10B1092E20B32
:1048500060915A1570915B1580915C1590915D1572
:104860000E9465B04B015C0180915E1590915F15CF
:10487000A0916015B091611580935A1590935B15C6
:10488000A0935C15B0935D1527EE3BE043EE5BE033
:104890006FED7BE08BED9BE00E94867C84E09AE0EC
:1048A0000E949216EFEEF9E0C49120E030E040EC77
:1048B0005FE30E94CBB26B017C016C2F772767FD11
:1048C0007095872F972F0E9498B09B01AC01C7016C
:1048D000B6010E94CBB26093AC0B7093AD0B80938A
:1048E000AE0B9093AF0B84E09AE00E949216EEEE2E
:1048F000F9E0C49120E030E040EC5FE30E94CBB2ED
:104900006B017C016C2F772767FD7095872F972FA0
:104910000E9498B09B01AC01C701B6010E94CBB2C6
:104920006093A80B7093A90B8093AA0B9093AB0B89
:1049300060913C0270913D0280913E0290913F0255
:1049400060931302709314028093150290931602E1
:1049500020E030E040E752E40E94FDAFE6EBCE2ECF
:10496000EBE0DE2E7B018C0120EB3BE04CEA5BE0D0
:1049700068EA7BE084EA9BE00E94F2720E94B786BC
:1049800082E090E00E94D01681E090E00E94D01674
:1049900027EE3BE043EE5BE06FED7BE08BED9BE0D1
:1049A0000E94867C8091E30B9091E40BA091E50B33
:1049B000B091E60B8093AC0B9093AD0BA093AE0B34
:1049C000B093AF0B8091DF0B9091E00BA091E10BC6
:1049D000B091E20B8093A80B9093A90BA093AA0B24
:1049E000B093AB0B20E030E040E752E4609113025B
:1049F0007091140280911502909116020E94FDAFF1
:104A00007B018C0120EB3BE04CEA5BE068EA7BE059
:104A100084EA9BE00E94F272109213021092140238
:104A200010921502109216020E94B7860E94347EE0
:104A30008091A40B9091A50BA091A60BB091A70B10
:104A40008093DB0B9093DC0BA093DD0BB093DE0B1C
:104A50008091A80B9091A90BA091AA0BB091AB0BE0
:104A60008093DF0B9093E00BA093E10BB093E20BEC
:104A70008091AC0B9091AD0BA091AE0BB091AF0BB0
:104A80008093E30B9093E40BA093E50BB093E60BBC
:104A900082E090E00E941A18B401882777FD809583
:104AA000982F0E9498B060935A1570935B1580936D
:104AB0005C1590935D1581E090E00E941A188CE3DC
:104AC00090E090935502809354028DE390E0909390
:104AD0005302809352028EE090E0909351028093B3
:104AE000500210927E1510927D1510927C1544CDC7
:104AF0002F923F924F925F926F927F928F929F92EE
:104B0000AF92BF92CF92DF92EF92FF920F931F93DB
:104B1000CF93DF93CDB7DEB728970FB6F894DEBFFB
:104B20000FBECDBF2B013C0129833A834B835C83AD
:104B3000ED82FE820F83188785E4C4DB882309F4A5
:104B4000F8C020E83FE443EC57ECC601B5010E94F1
:104B5000F9B118160CF4EDC0ABE28A2EA6E09A2E3D
:104B6000BFECEB2EBBE0FB2E1BED212E1BE0312E0C
:104B700010E0F40181914F01A5DB882321F113306E
:104B800059F48CDBF101608371838283938387EE18
:104B90009BE00E942B7D17C081DBF70120813181D2
:104BA000428153810E941DAFF10160837183828332
:104BB000938327EE3BE043EE5BE06FED7BE08BED14
:104BC0009BE00E94867C1F5FF4E0EF0EF11C84E006
:104BD000280E311C143069F620E83FE443EC57EC12
:104BE000C601B5010E94F9B1181664F4A092E70B52
:104BF000B092E80BC092E90BD092EA0B87EE9BE0F3
:104C00000E942B7D20E83FE443EC57ECC301B20146
:104C10000E94F9B11816F4F42091CF0B3091D00B0B
:104C20004091D10B5091D20BC301B2010E941DAF34
:104C30006093DB0B7093DC0B8093DD0B9093DE0BAA
:104C400027EE3BE043EE5BE06FED7BE08BED9BE01E
:104C50000E94867C20E83FE443EC57EC69817A812E
:104C60008B819C810E94F9B11816FCF42091D30B22
:104C70003091D40B4091D50B5091D60B69817A813C
:104C80008B819C810E941DAF6093DF0B7093E00BC2
:104C90008093E10B9093E20B27EE3BE043EE5BE069
:104CA0006FED7BE0CB010E94867C20E83FE443EC83
:104CB00057EC6D817E818F8198850E94F9B118161D
:104CC000DCF52091D70B3091D80B4091D90B509146
:104CD000DA0B6D817E818F8198850E941DAF609374
:104CE000E30B7093E40B8093E50B9093E60B27EEB8
:104CF0003BE043EE5BE06FED7BE08BED9BE02896C5
:104D00000FB6F894DEBF0FBECDBFDF91CF911F91DC
:104D10000F91FF90EF90DF90CF90BF90AF909F905A
:104D20008F907F906F905F904F903F902F900C945A
:104D3000867C0E94B78610CF28960FB6F894DEBF07
:104D40000FBECDBFDF91CF911F910F91FF90EF90DC
:104D5000DF90CF90BF90AF909F908F907F906F909B
:104D60005F904F903F902F9008950E9484A660938B
:104D7000EF097093F0098093F1099093F209E091A3
:104D8000FD09F091FE09E150F64F8081811114C0B8
:104D9000EBE8F4E08491882341F09091C00095FF06
:104DA000FCCF8093C6003196F5CF8091C00085FF7F
:104DB000FCCF8AE08093C60008958CE399E00E94BE
:104DC000F914EEE8F4E08491882341F09091C0005A
:104DD00095FFFCCF8093C6003196F5CF4091880BAC
:104DE0005091890B60918A0B70918B0B4F5F5F4FD5
:104DF0006F4F7F4F2AE030E08CE399E00E949815D6
:104E00008091C00085FFFCCF8AE08093C600ADCFC3
:104E10004F925F926F927F929F92AF92BF92CF928A
:104E2000DF92EF92FF920F931F93CF93DF9300E6F1
:104E3000B02EC4E0D0E004EC17E08AE0A82E9AE39C
:104E4000E92E98E0F92E992493940E945F14882308
:104E500009F422C28091F9099091FA0904970CF0A3
:104E60001BC20E9469148093F8092091F6093091C1
:104E7000F7098A3061F08D3051F08A3321F4909136
:104E8000F509992321F02F3531050CF42AC121159C
:104E9000310519F41092F509FFC18091FB09909139
:104EA000FC09B89E6001B99ED00C1124F601E20FF6
:104EB000F31FED5FF54F10822091F50921110CC110
:104EC000FC01E150F64F1082C6018D5F954F3C0109
:104ED0006EE470E00E9482B90097F1F19093F409BA
:104EE0008093F309861997098C0D9D1D4AE050E0C7
:104EF00060E070E08C5F954F0E94A1B760938C0BCF
:104F000070938D0B80938E0B90938F0B4090880B3A
:104F10005090890B60908A0B70908B0BEFEF4E1ABC
:104F20005E0A6E0A7E0AC090FB09D090FC096415E7
:104F300075058605970509F4F2C0BC9CC001BD9CAF
:104F4000900D112463EE78E08D5F954F0E9436B985
:104F5000892B09F0E4C073C16AE270E0C3010E94CA
:104F600082B9892B09F444C0E2E3FAE084918823F2
:104F700041F09091C00095FFFCCF8093C600319620
:104F8000F5CFEDE3F8E08491882341F09091C000E3
:104F900095FFFCCF8093C6003196F5CF4091880BEA
:104FA0005091890B60918A0B70918B0B2AE030E055
:104FB0008CE399E00E9498158091C00085FFFCCF9A
:104FC0008AE08093C6001092F7091092F60964C136
:104FD00080918C0B90918D0BA0918E0BB0918F0BCB
:104FE0008093880B9093890BA0938A0BB0938B0BC3
:104FF0008091FB099091FC09B89E6001B99ED00C8C
:105000001124C6018D5F954F3C0167E470E00E945A
:1050100082B9009709F44BC09093F4098093F30987
:10502000861997098C0D9D1D60E070E08C5F954F8F
:105030000E9439B60E9465B06430710508F037C02F
:105040008091E10981111AC08091F20B81112FC06A
:10505000F7018491EAE3F8E0882349F09091C000D9
:1050600095FFFCCF8093C60031968491F5CF809157
:10507000C00085FFFCCFA092C60019C0F801849142
:10508000E4ECF7E0882349F09091C00095FFFCCF55
:105090008093C60031968491F5CF8091C00085FF42
:1050A000FCCFA092C6008AEB97E00E94969C80916C
:1050B000FB099091FC090196BE010E94B4B3909344
:1050C000FC098093FB098091F9099091FA090196F6
:1050D0009093FA098093F9091092F7091092F60952
:1050E000B4CE8B3311F49092F5099091F50991119A
:1050F000ACCE4091FB095091FC09B9016F5F7F4F25
:105100007093F7096093F609B49EF001B59EF00D17
:105110001124E20FF31FED5FF54F808396CEBC9C08
:105120003001BD9C700C1124C3018D5F954F2C0183
:105130006AE270E00E9482B9009789F5E2E3FAE042
:105140008491882341F09091C00095FFFCCF80931B
:10515000C6003196F5CFE7E6F8E08491882341F068
:105160009091C00095FFFCCF8093C6003196F5CF9B
:105170004091880B5091890B60918A0B70918B0B39
:105180002AE030E08CE399E00E9498158091C000FD
:1051900085FFFCCF8AE08093C6000FDE14CF20E0AD
:1051A000D12CF301E20FF11DED5FF54F30813A3262
:1051B00019F02F5FD326F5CF9093F4098093F3096C
:1051C00084199509860D971D60E070E08C5F954FFE
:1051D0000E9439B60E9465B02D2D30E026173707A2
:1051E00009F4F6CEE2E3FAE08491882341F090914D
:1051F000C00095FFFCCF8093C6003196F5CFE1E962
:10520000F8E08491882341F09091C00095FFFCCF95
:105210008093C6003196F5CF4091880B5091890B51
:1052200060918A0B70918B0B2AE030E08CE399E05F
:105230000E9498158091C00085FFFCCFABCFE2E3C0
:10524000FAE08491882341F09091C00095FFFCCF53
:105250008093C6003196F5CFE0EBF8E08491882387
:1052600041F09091C00095FFFCCF8093C60031962D
:10527000F5CF4091880B5091890B60918A0B70910A
:105280008B0B2AE030E08CE399E00E949815809126
:10529000C00085FFFCCF7ECFDF91CF911F910F9192
:1052A000FF90EF90DF90CF90BF90AF909F907F9056
:1052B0006F905F904F9008952F923F924F925F9220
:1052C0006F927F928F929F92AF92BF92CF92DF9216
:1052D000EF92FF920F931F93CF93DF93CDB7DEB77B
:1052E000E6970FB6F894DEBF0FBECDBF40E6942E12
:1052F00004E010E05DE8E52E56E0F52E6AE0862E2B
:1053000073E0C72E77E0D72E772473948091BD0980
:105310009091BE092091BF093091C009821B930B67
:105320008F779927892B09F425C28091F9099091EB
:10533000FA0904970CF01EC28CE399E00E94DD1478
:105340008093F8092091F6093091F7098A3061F0CD
:105350008D3051F08A3321F49091F509992321F091
:105360002F3531050CF428C12115310509F442C14E
:105370008091FB099091FC09989E5001999EB00C78
:105380001124F501E20FF31FED5FF54F108220911C
:10539000F50921110CC1FC01E150F64F1082950175
:1053A0002D5F354F29016EE470E0C9010E9482B97A
:1053B0000097E9F19093F4098093F3098419950912
:1053C0008A0D9B1D4AE050E060E070E08C5F954FD5
:1053D0000E94A1B760938C0B70938D0B80938E0B02
:1053E00090938F0B2091880B3091890B40918A0B01
:1053F00050918B0B2F5F3F4F4F4F5F4FA090FB099A
:10540000B090FC09621773078407950709F4F5C08B
:105410009A9CC0019B9C900D11246CEA77E08D5FF3
:10542000954F0E9436B9892B09F0E7C076C16AE230
:1054300070E0C2010E9482B9892B09F444C0E2E302
:10544000FAE08491882341F09091C00095FFFCCF51
:105450008093C6003196F5CFE6E0F7E0849188238B
:1054600041F09091C00095FFFCCF8093C60031962B
:10547000F5CF4091880B5091890B60918A0B709108
:105480008B0B2AE030E08CE399E00E949815809124
:10549000C00085FFFCCF8AE08093C6001092F70918
:1054A0001092F6097EC380918C0B90918D0BA09188
:1054B0008E0BB0918F0B8093880B9093890BA093E8
:1054C0008A0BB0938B0B8091FB099091FC09989EFD
:1054D0005001999EB00C1124C5018D5F954F2C0190
:1054E00067E470E00E9482B9009709F44BC0909382
:1054F000F4098093F309841995098A0D9B1D60E0D6
:1055000070E08C5F954F0E9439B60E9465B06430A0
:10551000710508F037C08091E10981111AC08091AE
:10552000F20B81112FC0F6018491E3E0F7E08823AC
:1055300049F09091C00095FFFCCF8093C600319652
:105540008491F5CF8091C00085FFFCCF8092C6008A
:1055500019C0F7018491EDE8F6E0882349F09091B5
:10556000C00095FFFCCF8093C60031968491F5CFA3
:105570008091C00085FFFCCF8092C60083E896E052
:105580000E94969C8091FB099091FC090196B801BC
:105590000E94B4B39093FC098093FB098091F909B0
:1055A0009091FA0901969093FA098093F909109263
:1055B000F7091092F609AACE8B3311F47092F5090F
:1055C0009091F5099111A2CE4091FB095091FC09EF
:1055D000B9016F5F7F4F7093F7096093F609949E4E
:1055E000F001959EF00D1124E20FF31FED5FF54FD2
:1055F00080838CCE1092F509D4C29A9C20019B9C8A
:10560000500C1124C2018D5F954F5C016AE270E07D
:105610000E9482B9009789F5E2E3FAE08491882339
:1056200041F09091C00095FFFCCF8093C600319669
:10563000F5CFE0E3F7E08491882341F09091C0003A
:1056400095FFFCCF8093C6003196F5CF4091880B33
:105650005091890B60918A0B70918B0B2AE030E09E
:105660008CE399E00E9498158091C00085FFFCCFE3
:105670008AE08093C600A1DB11CF20E0612CF2010B
:10568000E20FF11DED5FF54F30813A3219F02F5FD7
:105690006326F5CF9093F4098093F3098A199B0947
:1056A000840D951D60E070E08C5F954F0E9439B6C7
:1056B0000E9465B0262D30E02617370709F4F3CE97
:1056C000E2E3FAE08491882341F09091C00095FFD5
:1056D000FCCF8093C6003196F5CFEAE5F7E08491E0
:1056E000882341F09091C00095FFFCCF8093C600C5
:1056F0003196F5CF4091880B5091890B60918A0BC0
:1057000070918B0B2AE030E08CE399E00E949815B1
:105710008091C00085FFFCCFABCFE2E3FAE084913B
:10572000882341F09091C00095FFFCCF8093C60084
:105730003196F5CFE9E7F7E08491882341F0909125
:10574000C00095FFFCCF8093C6003196F5CF409105
:10575000880B5091890B60918A0B70918B0B2AE01A
:1057600030E08CE399E00E9498158091C00085FF9D
:10577000FCCF7ECF8091F40B882309F412C2809174
:10578000F6099091F709892B09F00BC22CE3C22E80
:10579000D12CE12CF12C30E1432E3EE0532E612C34
:1057A000712C8E010F5F1F4F4091E30D5091E40D5E
:1057B0006091E50D7091E60D8091DB0D9091DC0D0F
:1057C000A091DD0DB091DE0D481759076A077B07E0
:1057D00008F0E7C18091F9099091FA0904970CF05B
:1057E000E0C18091C80D9091C90DA091CA0DB091F2
:1057F000CB0D8093E30D9093E40DA093E50DB09352
:10580000E60D80EC9DE00E942456482F8093F80915
:105810008A30A1F04D3091F04A3321F42091F509FE
:10582000222361F02091F6093091F7092F353105D7
:105830002CF48F3FFFEF9F0709F093C14091E30DD8
:105840005091E40D6091E50D7091E60D8091DB0DB6
:105850009091DC0DA091DD0DB091DE0D4817590738
:105860006A077B0708F447C1E0E7F6E084918823E4
:1058700041F09091C00095FFFCCF8093C600319617
:10588000F5CF8091C00085FFFCCF8AE08093C600F1
:105890000E9484A66093E3097093E4098093E5096C
:1058A0009093E6098090E7099090E809A090E909B3
:1058B000B090EA09681979098A099B0928EE33E052
:1058C00040E050E00E94C7B349015A01CA01B90142
:1058D000A70196010E94C7B3CA01B901A7019601A9
:1058E0000E94C7B31B01C501B401A30192010E942C
:1058F000C7B359013F922F92BF922F93ACE5B6E008
:10590000BF93AF931F930F930E944FBAECE2FAE05C
:1059100084910FB6F894DEBF0FBECDBF882349F047
:105920009091C00095FFFCCF8093C6003196849182
:10593000F5CFF8018191882339F09091C00095FF4F
:10594000FCCF8093C600F6CF8091C00085FFFCCFCE
:105950008AE08093C600C8010E94879C64E774E0D7
:10596000CE014F960E94CAABCE014F960E942314DF
:10597000CE014F960E945FAB6EE874E0CE014F9669
:105980000E94CAABCE014F960E942314CE014F96BF
:105990000E945FAB66EA74E0CE014F960E94CAABEC
:1059A000CE014F960E942314CE014F960E945FAB0A
:1059B00064E474E0CE01C1960E94CAAB80917A156E
:1059C00090917B154AE0B101892B19F5CE014F96D4
:1059D0000E9453AC4AE0B501CE018B960E9453ACB5
:1059E0006EEB74E0CE0185960E94CAABBE01655D88
:1059F0007F4FCE0185960E94E8AC6FEC74E00E9468
:105A0000F9ACBE01615E7F4F0E94E8AC6BED74E0C3
:105A100022C0CE014F960E9453AC4AE0B501CE01A0
:105A20008B960E9453AC66EE74E0CE0185960E9480
:105A3000CAABBE01655D7F4FCE0185960E94E8AC82
:105A400067EF74E00E94F9ACBE01615E7F4F0E9477
:105A5000E8AC6CEF74E00E94F9ACBC01CE01C196D9
:105A60000E9415ACCE0185960E945FABCE018B964D
:105A70000E945FABCE014F960E945FAB63E075E082
:105A8000CE0185960E94CAABBE016F5C7F4FCE01EE
:105A900085960E94E8AC6CEB74E00E94F9ACBC0106
:105AA000CE014F960E942AACCE014F960E9423143D
:105AB000CE014F960E945FABCE0185960E945FABF0
:105AC00069E175E0CE014F960E94CAABCE014F96B8
:105AD0000E942314CE014F960E945FAB81EF9BE0A2
