:100000000C94580C0C94890C0C94890C0C94890C4D
:100010000C94890C0C94890C0C94890C0C94890C0C
:100020000C94890C0C94890C0C94890C0C94890CFC
:100030000C94890C0C94890C0C94890C0C94890CEC
:100040000C94890C0C941D650C94890C0C94890CEF
:100050000C94890C0C94890C0C94AF360C941935C3
:100060000C94890C0C94B8640C94890C0C94890C35
:100070000C94890C0C94890C0C94890C0C94890CAC
:100080000C94890C0C94890C0C94890C0C94890C9C
:100090000C94890C0C94890C0C94890C0C94890C8C
:1000A0000C94890C0C94890C0C94890C0C94890C7C
:1000B0000C94890C0C94890C0C94890C0C94890C6C
:1000C0000C94890C0C94890C0C94890C0C948F90D2
:1000D0000C9465900C94890C0C94890C0C94890CEC
:1000E0000C94890CFA32FD32EC32F032F6323433B1
:1000F000013305330B330F33133319331D332133DE
:10010000343327332B332F3335343A343F344934A7
:100110005334CC345D3465346D34773481348B346E
:100120009A34A434CC34AE34B834C23414372137C2
:100130003D374A37643771378B378D37084AD73B9D
:100140003BCE016E84BCBFFDC12F3D6C74319ABDA6
:1001500056833DDA3D00C77F11BED9E4BB4C3E91CA
:100160006BAAAABE000000803F05A84CCDB2D44EB9
:10017000B93836A9020C50B9918688083CA6AAAABB
:100180002ABE000000803F004E414E494E4954595E
:10019000494E46CDCCCC3D0AD7233C17B7D1387752
:1001A000CC2B329595E6241FB14F0A000020410068
:1001B00000C84200401C4620BCBE4CCA1B0E5AAEB2
:1001C000C59D7400407A10F35A00A0724E180900C1
:1001D00010A5D4E80000E87648170000E40B5402AC
:1001E0000000CA9A3B000000E1F5050000809698E7
:1001F00000000040420F000000A086010000001037
:100200002700000000E80300000000640000000078
:10021000000A00000000000100000000002C76D859
:1002200088DC674F0823DFC1DFAE59E1B1B796E53F
:10023000E3E453C63AE651997696E8E6C28426EBA3
:10024000898C9B62ED407C6FFCEFBC9C9F40F2BAB6
:10025000A56FA5F490055A2AF75C936B6CF9676D4E
:10026000C11BFCE0E40D47FEF520E6B500D0ED90A3
:100270002E0300943577050080841E080000204E70
:100280000A000000C80C333333330F986E12831109
:1002900041EF8D2114893BE65516CFFEE6DB18D1E0
:1002A000844B381BF77C1D901DA4BBE424203284B2
:1002B000725E228100C9F124ECA1E53D272F005395
:1002C00044207072696E74696E672062797465206B
:1002D000004E6F74205344207072696E74696E67AB
:1002E000002E0044656C6574696F6E206661696CF0
:1002F00065642C2046696C653A200046696C65206F
:1003000064656C657465643A002E006F70656E20DC
:100310006661696C65642C2046696C653A20005002
:100320004944204175746F74756E652066696E6905
:1003300073686564212050757420746865204B7063
:100340002C204B6920616E64204B6420636F6E73B8
:1003500074616E747320696E746F20436F6E66698A
:100360006775726174696F6E2E6800504944204150
:1003700075746F74756E65206661696C65642120A3
:1003800074696D656F75740020403A006F6B20547E
:100390003A006F6B20423A00504944204175746F17
:1003A00074756E65206661696C6564212054656DA5
:1003B000706572617475726520746F6F206869670B
:1003C0006800204B643A2000204B693A2000204B03
:1003D000703A200020436C617369632050494420C7
:1003E000002054753A2000204B753A2000206D61A2
:1003F000783A2000206D696E3A200020643A20008F
:1004000020626961733A2000486F74656E64206FE2
:100410006666736574733A002200556E6B6E6F7773
:100420006E20636F6D6D616E643A202200486F74B8
:10043000656E64206F6666736574733A007A5F6DEB
:10044000696E3A2000795F6D696E3A2000785F6DC1
:1004500061783A2000785F6D696E3A20005A3A0060
:10046000593A0020436F756E7420583A2000453A7F
:10047000005A3A00593A00583A004649524D5741FD
:1004800052455F4E414D453A4D61726C696E205642
:10049000313B20537072696E7465722F6772626CA3
:1004A000206D617368757020666F722067656E36A7
:1004B000204649524D574152455F55524C3A687457
:1004C00074703A2F2F7777772E6D656E64656C2D7B
:1004D00070617274732E636F6D2050524F544F438E
:1004E0004F4C5F56455253494F4E3A312E302E30C5
:1004F000204D414348494E455F545950453A334495
:10050000205072696E7465722045585452554445A6
:10051000525F434F554E543A320A002042403A004F
:1005200020403A00202F0020423A00202F006F6B1D
:1005300020543A002569206D696E2C2025692073AE
:10054000656300456E642066696C65206C69737430
:1005500000426567696E2066696C65206C6973741A
:10056000005072696E7465722073746F7070656488
:100570002064756520746F206572726F72732E200F
:1005800046697820746865206572726F7220616EAA
:100590006420757365204D39393920746F20726578
:1005A00073746172742E202854656D706572617465
:1005B0007572652069732072657365742E205365AA
:1005C0007420697420616674657220726573746149
:1005D0007274696E6729004E6F204C696E65204EFB
:1005E000756D626572207769746820636865636BF6
:1005F00073756D2C204C617374204C696E653A20C4
:10060000004E6F20436865636B73756D2077697466
:1006100068206C696E65206E756D6265722C204C69
:10062000617374204C696E653A2000636865636B82
:1006300073756D206D69736D617463682C204C61F6
:100640007374204C696E653A20004C696E65204ECB
:10065000756D626572206973206E6F74204C6173D2
:1006600074204C696E65204E756D6265722B312C5D
:10067000204C617374204C696E653A20004D313115
:100680003000256920686F757273202569206D69B7
:100690006E7574657300446F6E65207072696E7458
:1006A000696E672066696C65005072696E74657268
:1006B0002073746F707065642064756520746F209A
:1006C0006572726F72732E20466978207468652097
:1006D0006572726F7220616E6420757365204D398A
:1006E000393920746F20726573746172742E2028FA
:1006F00054656D70657261747572652069732072DE
:10070000657365742E205365742069742061667466
:1007100065722072657374617274696E6729004E28
:100720006F204C696E65204E756D62657220776929
:10073000746820636865636B73756D2C204C6173FE
:1007400074204C696E653A20004E6F2043686563E3
:100750006B73756D2077697468206C696E65206EA7
:10076000756D6265722C204C617374204C696E65E6
:100770003A2000636865636B73756D206D69736DF6
:10078000617463682C204C617374204C696E653A07
:1007900020004C696E65204E756D6265722069732C
:1007A000206E6F74204C617374204C696E65204E0E
:1007B000756D6265722B312C204C617374204C690D
:1007C0006E653A20004572726F723A004D313130D9
:1007D000006572726F722077726974696E67207437
:1007E0006F2066696C6500205A3A0020593A002053
:1007F000583A00656E6473746F7073206869743A58
:1008000020006563686F3A00446F6E6520736176FF
:10081000696E672066696C652E006F6B004D32391A
:100820000053442063617264206F6B006F70656ECB
:10083000526F6F74206661696C656400766F6C75C9
:100840006D652E696E6974206661696C656400452A
:1008500072726F723A00534420696E697420666147
:10086000696C006563686F3A002200656E7175659A
:10087000696E672022006563686F3A004D3234006C
:100880004D3233202573006175746F25692E670022
:100890002020506C616E6E657242756666657242AC
:1008A000797465733A20002046726565204D656D48
:1008B0006F72793A2000446563203233203230323F
:1008C0003000436F6D70696C65643A200054656E4A
:1008D0006C6F6700207C20417574686F723A20004D
:1008E00044656320323320323032302031393A309F
:1008F000383A313400204C6173742055706461744F
:1009000065643A2000312E302E3135004D61726C15
:10091000696E200020536F6674776172652052659E
:1009200073657400205761746368646F6720526553
:10093000736574002042726F776E206F7574205259
:1009400065736574002045787465726E616C205221
:100950006573657400506F776572557000737461CC
:1009600072740070012C0190012701B0012201C0B6
:10097000011D01F00118011002130130020E016087
:1009800002090190020401C002FF000003FA0040C6
:1009900003F5008003F000D003EB002004E60070B4
:1009A00004E100E004DC004005D700C005D20040AF
:1009B00006CD00D006C8008007C3003008BE00F096
:1009C00008B900C009B400B00AAF00B00BAA00D04B
:1009D0000CA500000EA000500F9B00C01096005008
:1009E00012910000148C00C0158700B0178200B06F
:1009F000197D00D01B7800001E730040206E00900F
:100A0000226900F024640040275F0090295A00E02A
:100A10002B5500102E500020304B0010324600E0C5
:100A200033410090353C001037370070383200A059
:100A3000392D00B03A2800A03B2300603C1E001076
:100A40003D1900903D1400103E0F00703E0A00C09A
:100A50003E0500003F00003A2045787472756465D9
:100A600072207377697463686564206F66662E20F0
:100A70004D415854454D50207472696767657265E1
:100A8000642021003A204578747275646572207381
:100A900077697463686564206F66662E204D494EE1
:100AA00054454D50207472696767657265642021F2
:100AB0000054656D7065726174757265206865615A
:100AC0007465642062656420737769746368656423
:100AD000206F66662E204D415854454D502074724B
:100AE000696767657265642021210054656D7065D2
:100AF00072617475726520686561746564206265F1
:100B000064207377697463686564206F66662E205D
:100B10004D494E54454D5020747269676765726542
:100B200064202121004572726F723A00000021009A
:100B3000240027002A002D003000330001010000AE
:100B4000040107010A0100002200250028002B00F3
:100B50002E003100340002010000050108010B01E4
:100B6000000020002300260029002C002F00320066
:100B7000000100000301060109010505050507053F
:100B800008080808020202020A0A08080404040409
:100B90000101010101010101030303030303030335
:100BA000040707070C0C0C0C0C0C0C0C02020202C4
:100BB00006060606060606060B0B0B0B0B0B0B0BAD
:100BC000010210202008081020401020408002015F
:100BD0000201080402010102040810204080804044
:100BE0002010080402018004020180402010080443
:100BF00002010804020101020408102040800102E1
:100C000004081020408000000A0B02090C0D0E0899
:100C100007030401000000000000000000000000C5
:100C200000000000000000000000000000000000C4
:100C30000000121110000000000000000000000081
:100C40000000000000000000000000005365747404
:100C5000696E67732053746F726564005A323A008C
:100C6000457874656E646572204F66667365743A84
:100C70000059323A00457874656E646572204F669B
:100C8000667365743A0058323A005365636F6E6458
:100C9000657279204D617820506F733A00204400CE
:100CA0002049002020204D3330312050005049444D
:100CB0002073657474696E67733A00205A00205976
:100CC0000020204D323036205800486F6D65206F6F
:100CD000666673657420286D6D293A0020450020F2
:100CE0005A0020580020420020540020204D32306D
:100CF00035205300416476616E63656420766172CD
:100D00006961626C65733A20533D4D696E2066657A
:100D100065647261746520286D6D2F73292C2054D1
:100D20003D4D696E2074726176656C206665656400
:100D30007261746520286D6D2F73292C20423D6DE2
:100D4000696E696D756D207365676D656E7420746D
:100D5000696D6520286D73292C20583D6D61786977
:100D60006D756D205859206A65726B20286D6D2F46
:100D700073292C20205A3D6D6178696D756D205A5C
:100D8000206A65726B20286D6D2F73292C202045F9
:100D90003D6D6178696D756D2045206A65726B20C7
:100DA000286D6D2F73290020540020204D323034DF
:100DB000205300416363656C65726174696F6E3ABC
:100DC00020533D616363656C65726174696F6E2C5D
:100DD00020543D7265747261637420616363656C55
:100DE00065726174696F6E00204500205A002059B9
:100DF0000020204D3230312058004D6178696D75EA
:100E00006D20416363656C65726174696F6E202843
:100E10006D6D2F7332293A00204500205A00205969
:100E20000020204D3230332058004D6178696D75B7
:100E30006D2066656564726174657320286D6D2F21
:100E400073293A00204500205A0020590020204DE7
:100E500039322058005374657073207065722075A4
:100E60006E69743A0053746F7265642073657474AC
:100E7000696E67732072657472696576656400488F
:100E8000617264636F6465642044656661756C7447
:100E90002053657474696E6773204C6F6164656478
:100EA000006563686F3A00473238205859000000E7
:100EB00048C200000000000000002200656E71754D
:100EC00065696E672022000000404000004040003D
:100ED00000003F20746F6F206C6F6E672065787420
:100EE000727573696F6E2070726576656E74656475
:100EF0000020636F6C6420657874727573696F6E1F
:100F00002070726576656E746564006563686F3A1B
:100F1000004E65772056616C756520457272200021
:100F200025730057726974696E6720746F20666953
:100F30006C653A20002E006F70656E206661696CEA
:100F400065642C2046696C653A20002E006F706540
:100F50006E206661696C65642C2046696C653A2078
:100F60000046696C652073656C6563746564002078
:100F700053697A653A200046696C65206F70656E2A
:100F800065643A20002E006F70656E206661696CA2
:100F900065642C2046696C653A20007C3C3E5E2BE3
:100FA0003D3F2F5B5D3B2C2A225C0024F4D4305063
:100FB000C38E20C2A24017828B7011127A910D81CC
:100FC0006CD90AA861E108C7586607615143061E3B
:100FD0004B5D05C145A7041A411104093D980371F1
:100FE0003931034036DB0265339102D4305402803C
:100FF0002E1D02632CEE01752AC501B028A0011038
:101000002781018F2564012B244B01E0223401ACA0
:10101000211F018D200D01801FFC00841EED009713
:101020001DDF00B81CD200E61BC600201BBC0064FC
:101030001AB200B219A8000A19A0006A189900D1C2
:1010400017910040178B00B516840031167E00B34F
:101050001579003A157300C7146F0058146A00EE32
:101060001366008813630025135E00C7125B006CD3
:1010700012570015125400C111510070114F002178
:10108000114B00D61049008D104700461044000255
:10109000104200C00F4000800F3E00420F3C00068F
:1010A0000F3B00CB0E3800930E37005C0E35002747
:1010B0000E3400F30D3200C10D3100900D30006090
:1010C0000D2E00320D2D00050D2C00D90C2B00AE7D
:1010D0000C2900850C29005C0C2700350C27000E1C
:1010E0000C2600E80B2400C40B2400A00B23007D79
:1010F0000B23005A0B2100390B2100180B2000F89C
:101100000A1F00D90A1E00BB0A1E009D0A1D00808E
:101110000A1D00630A1C00470A1B002C0A1B001151
:101120000A1A00F7091A00DD091900C4091900ABF1
:10113000091900920917007B091800630917004C70
:1011400009160036091600200916000A091500F5CF
:10115000081500E0081400CC081400B8081400A416
:10116000081400900813007D0812006B0813005843
:10117000081200460812003408110023081100125A
:1011800008110001081100F0071000E0071000D05E
:10119000071000C0071000B0070F00A10710009152
:1011A000070E0083070F0074070F0065070E005736
:1011B000070E0049070E003B070D002E070E00200A
:1011C000070D0013070D0006070D00F9060C00EDD2
:1011D000060D00E0060C00D4060C00C8060C00BC8E
:1011E000060C00B0060C00A4060B0099060C008D3E
:1011F000060B0082060B0077060B006C060B0061E5
:10120000060A0057060B004C060A0042060A003880
:10121000060A002E060A0024060A001A060A001012
:1012200006090007060A00FD050900F4050900EBA0
:10123000050900E2050900D9050900D0050900C724
:10124000050900BE050900B5050800AD050800A5A3
:101250000509009C050800940508008C0508008419
:101260000508007C050800740508006C050700658A
:101270000508005D050700560508004E05070047F4
:101280000507004005080038050700310507002A5A
:10129000050700230507001C050600160507000FBB
:1012A0000507000805060002050700FB040600F517
:1012B000040700EE040600E8040600E2040700DB71
:1012C000040600D5040600CF040600C9040600C3C6
:1012D000040600BD040600B7040600B1040500AC16
:1012E000040600A6040600A00405009B0406009561
:1012F000040500900406008A0405008504050080AA
:101300000406007A04050075040500700405006BEE
:1013100004050066040500610405005C040500572F
:10132000040500520405004D04050048040500436F
:101330000405003E0404003A0405003504050030AD
:101340000404002C04050027040400230405001EE7
:101350000404001A04040016040500110404000D1E
:10136000040400090405000404040000040400FC53
:10137000030400F8030400F4030400F0030400EC89
:10138000030400E8030400E4030400E0030400DCB9
:10139000030400D8030400D4030400D0030400CCE9
:1013A000030400C8030300C503030024F404D92088
:1013B0001BC40C5C0E9804C4095F0265077101F43C
:1013C00005F900FB04B30048048700C10369005815
:1013D00003550003034500BE023A00840231005366
:1013E000022A002902250004022000E4011C00C892
:1013F000011900AF01170098011400840113007156
:101400000110006101100051010E0043010D003672
:10141000010B002B010B0020010B00150109000C32
:1014200001090003010800FB000800F3000800EBBD
:10143000000700E4000600DE000600D8000600D227
:10144000000600CC000500C7000500C2000500BD75
:10145000000400B9000400B5000400B1000400ADB0
:10146000000400A9000400A5000300A20003009FDF
:101470000004009B00030098000300950002009305
:10148000000300900003008D0002008B0003008821
:101490000002008600020084000300810002007F39
:1014A0000002007D0002007B00020079000200774C
:1014B0000001007600020074000200720001007159
:1014C0000002006F0002006D0001006C0002006A63
:1014D000000100690002006700010066000100656C
:1014E0000001006400020062000100610001006070
:1014F0000001005F0002005D0001005C0001005B74
:101500000001005A00010059000100580001005775
:101510000001005600010055000100540001005375
:101520000000005300010052000100510001005072
:101530000001004F0001004E0000004E0001004D70
:101540000001004C0001004B0000004B0001004A6C
:101550000001004900010048000000480001004768
:101560000001004600000046000100450000004563
:10157000000100440001004300000043000100425C
:101580000000004200010041000000410001004055
:101590000001003F0000003F0001003E0000003E4F
:1015A0000001003D0000003D0001003C0000003C47
:1015B0000000003C0001003B0000003B0001003A3D
:1015C0000000003A00010039000000390001003835
:1015D000000000380000003800010037000000372C
:1015E0000001003600000036000000360001003522
:1015F0000000003500000035000100340000003418
:10160000000000340001003300000033000000330C
:101610000001003200000032000000320001003101
:1016200000000031000000310001003000000030F7
:10163000000000300001002F0000002F0000002FEC
:101640000000002F0001002E0000002E0000002EE0
:101650000001002D0000002D0000002D0000002DD5
:101660000001002C0000002C0000002C0000002CC9
:101670000001002B0000002B0000002B0000002BBD
:101680000001002A0000002A0000002A0000002AB1
:1016900000010029000000290000002900000029A5
:1016A0000000002900010028000000280000002898
:1016B000000000280000002800010027000000278B
:1016C000000000270000002700000027000100267E
:1016D0000000002600000026000000260000002672
:1016E0000001002500000025000000250000002565
:1016F0000000002500000025000100240000002457
:101700000000002400000024000000240001002349
:10171000000000230000002300000023000000233D
:10172000000000230000002300010022000000222E
:101730000000002200000022000000220000002221
:101740000001002100000021000000210000002114
:101750000000002100000021000000210001002005
:1017600000000020000000200000002000000020F9
:101770000000002000000020000000200001001FE9
:101780000000001F0000001F0000001F0000001FDD
:101790000000001F0000001F0001001E0000001ECE
:1017A0000000001E0000001E000000004017440062
:1017B000001B4400801844000048C20000000000E4
:1017C00000000020423A0020453A00543A0050728E
:1017D000696E7465722068616C7465642E206B6933
:1017E0006C6C28292063616C6C65642100507269FF
:1017F0006E7465722073746F7070656420647565B3
:1018000020746F206572726F72732E204669782083
:10181000746865206572726F7220616E64207573E2
:1018200065204D39393920746F2072657374617287
:10183000742E202854656D70657261747572652010
:1018400069732072657365742E2053657420697402
:101850002061667465722072657374617274696E5A
:10186000672900526573656E643A20006F6B002033
:10187000573A0020453A00543A006563686F3A00D1
:10188000202D20496E76616C6964206578747275CC
:10189000646572206E756D626572202100FFFFFF26
:1018A00000C0234400001B440080184430B80BB82B
:1018B00011241FBECFEFD1E2DEBFCDBF00E00CBFD1
:1018C0001BE0A0E0B2E0EEECF3E901E00BBF02C0E8
:1018D00007900D92A234B107D9F729E1A2E4BBE049
:1018E00001C01D92A937B207E1F71CE0C7E5DCE0B3
:1018F00000E006C021970109802FFE010E9450C818
:10190000C635D10780E00807A9F70E9485AE0C9480
:10191000D6C90C9400002F923F924F925F926F9223
:101920007F928F929F92AF92BF92CF92DF92EF926F
:10193000FF920F931F93CF93DF93CDB7DEB7C557B9
:10194000D1090FB6F894DEBF0FBECDBF2DB73EB79D
:10195000E2963FAF2EAFE2978091050C882341F0CD
:101960000E94E05610926710109266101092050CBB
:1019700087E40E94E9AD782E882309F48CC00E9488
:101980000FAE0E94DDC56430710509F474C0E4F443
:101990006230710509F45CC00CF062C077FF02C0D0
:1019A0000C94A121A0E8AA2EAFE4BA2EA3ECCA2E73
:1019B000A7ECDA2E86017501A6019501C601B501D5
:1019C0000E94175A0C94A1216A35710509F45AC076
:1019D0002CF56C31710511F00C94A1216FE672E1C8
:1019E00083E89AE30E9418AE6FE672E183E89AE317
:1019F0000E9418AE6FE672E183E89AE30E9418AE87
:101A00006FE672E183E89AE30E9418AE60E070E04E
:101A100080E090E00E943AA90C94A1216B357105F9
:101A2000A9F16C35710511F00C94A121F0E8AF2EED
:101A3000FFE4BF2EF3ECCF2EF7ECDF2E860175010D
:101A4000A6019501C601B5010E94BE7E0C94A1219C
:101A500080912F13811104C00E948B9E81E007C0EA
:101A600080912F13811107C00E948B9E80E00E94FD
:101A7000F0950C94732560E070E0CB010E9418AEE5
:101A80000C94A1211092BA180C94A12181E08093AA
:101A9000BA180C94A1218DE40E94E9AD882311F4B9
:101AA0000C9453210E940FAE0E94DDC5693C710564
:101AB00011F40C945F180CF0E0C06035710511F45E
:101AC0000C948D150CF071C06731710509F401C4D7
:101AD0000CF041C06231710511F40C94A01524F58D
:101AE00077FF02C00C94A121623071050CF4D1C1C2
:101AF0006131710511F00C94A1215F9847988A9883
:101B00009FB7F894809108018E7F809308019FBF52
:101B10009FB7F894809108018B7F809308019FBF45
:101B20008D9812980C94A1216431710509F47AC33F
:101B30000CF4B5C16531710509F4C7C3663171058F
:101B400011F00C94A121109267101092661010925F
:101B500068100C94A1216C31710509F453C484F40C
:101B60006931710509F4E6C30CF4CEC36A3171051D
:101B700009F4E6C36B31710509F4F0C30C94A1219B
:101B80006F31710509F458C634F46E31710509F4EA
:101B90006FC40C94A1216032710509F4DBC56A326F
:101BA000710509F4A7C60C94A1216B36710509F4DF
:101BB000AEC754F56535710509F4FCC784F4623588
:101BC000710509F4B4C70CF4ACC76335710509F4A9
:101BD000B2C76435710509F4B3C70C94A121683606
:101BE000710509F4A2C634F46C35710509F4F9C71E
:101BF0000C94A1216936710509F4B0C66A367105E5
:101C000009F455C70C94A1216737710509F43DC14A
:101C1000ECF46237710511F40C94CF165CF46D3658
:101C2000710511F00C94A1218FEF9FEF0E94369F58
:101C30000C94A1216337710511F40C94AE1665372D
:101C4000710511F40C94BD160C94A121693771052E
:101C500011F40C94B21714F40C94AD176C38710590
:101C600009F46BC66E3B710511F00C94A1218FEF46
:101C70009FEF0E948F7C0C94A121673E33E0730795
:101C800011F40C943B210CF076C06D3251E07507D5
:101C900011F40C941C1ADCF56E3C710511F40C94D3
:101CA0001919C4F46C3C710511F40C94971814F0D4
:101CB0000C94B9186B3C710511F00C94A1211DED29
:101CC000E12E12E1F12E06EC12E084E0D82ED00EC7
:101CD0000C9488186C3D710511F40C94FE193CF4B9
:101CE0006A3D710511F40C9437190C94A1216D3DD6
:101CF000710511F40C940D1A623E710511F00C94EB
:101D0000A12181E090E00E9427910C94A121653FE0
:101D100091E0790711F40C94671EC4F46F32B1E0BE
:101D20007B0711F40C94F81A14F40C94E41A60393B
:101D3000F1E07F0711F40C94641E643F714011F0D0
:101D40000C94A1210E94753E0C94A121673F31E0C3
:101D5000730711F40C946F1E14F40C946A1E6D3505
:101D600052E0750711F40C94721E603A734009F446
:101D70002AC50C94A121683F93E0790711F40C94D3
:101D80007B200CF04AC0633FB3E07B0711F40C9456
:101D9000941F6CF56A3EF3E07F0711F40C948C1FDE
:101DA0003CF4693E734011F40C94671F0C94A1211C
:101DB0006B3E43E0740711F40C94911F6C3E73402A
:101DC00011F00C94A121812C912C54017501640116
:101DD00000E010E020E030E040E050E060E070E043
:101DE000CB010E949B42109270130C94A121653F7D
:101DF00083E0780711F40C940A2014F40C94CF1F9C
:101E0000663FA3E07A0711F40C944520673F7340C6
:101E100011F40C9460200C94A1216730E4E07E075B
:101E200011F40C940E21DCF46B3F23E0720711F4E3
:101E30000C94AE203CF4693F734011F40C94932051
:101E40000C94A1216D3F53E0750711F40C94D2203E
:101E50006E3F734011F40C94D8200C94A12169308A
:101E600094E0790711F40C940B2114F40C940821DC
:101E70006A30B4E07B0711F40C94032160317440A4
:101E800011F40C9413210C94A121EFEDF2E00C94C9
:101E9000BD1781E090E00E9427910C94A12183E579
:101EA0000E94E9AD882341F00E940FAE0E94DDC57B
:101EB00070935D0B60935C0B8DEB90E19093BC1085
:101EC0008093BB1081E090E090935C1280935B1252
:101ED00010925E1210925D1240E050E0BA0181EC67
:101EE00090E10E94F65C8091BB109091BC102BE1B8
:101EF000FC013496DE01159601900D922A95E1F7CA
:101F0000DC0112968D919C9113979C838B838EEBB1
:101F100092E09A838983BE016F5F7F4F87E394E0ED
:101F20000E945955CE0101960E949872D0905D1280
:101F3000AD2CB0905E128091C410882309F446C085
:101F40008250823030F48FE28093691010926A10D0
:101F50003DC06091CD107091CE108091CF109091C6
:101F6000D01040E00E94EA72882381F12091D110C4
:101F7000B0E22B9F90011124C9018A56924F892B00
:101F800029F180E090E0E0E05EE2DC01A20FB31F07
:101F9000AA56B24F4C91403289F08830910539F4FD
:101FA000AE2FB0E0AD59BF4E16965C93EF5FAE2FEB
:101FB000B0E0AD59BF4E16964C93EF5F01968B3053
:101FC000910519F7F0E0ED59FF4E168280915C0BF8
:101FD00090915D0B892B59F488EF92E00E940F6578
:101FE00083E093E00E940F6501E010E007C08FE0FE
:101FF00093E00E940F658AE193E0F4CF86E293E0DC
:102000000E940D654AE0B801CE0101960E94DA8F68
:1020100089819A810E940D65CE0101960E947A8F76
:1020200081EB94E00E940D650E94016585E393E0D9
:102030000E940D654AE0B801CE0101960E94DA8F38
:1020400089819A810E940D65CE0101960E947A8F46
:1020500081EB94E00E940D650E9401650F5F1F4FA8
:102060000730110559F6E12CF12C00E010E07DEB72
:10207000672E70E1772EDA942296DFAE2297EEEB90
:102080008E2EE2E09E2EEA14FB0409F492C07092B8
:10209000BC106092BB10E2E0F0E0F0935C12E093C1
:1020A0005B1222968FAD22978E1990E090935E126C
:1020B00080935D1240E050E0BA0181EC90E10E9413
:1020C000F65C8091BB109091BC10FC013496DE014F
:1020D00015962BE101900D922A95E1F7DC011296FD
:1020E0008D919C9113979C838B839A828982BE01E8
:1020F0006F5F7F4F87E394E00E945955CE010196B0
:102100000E94987269E670E1CE01CB960E940D9014
:1021100080919110811145C021968EAD9FAD219780
:10212000892B09F43EC0BE01655C7F4FCE0101964C
:102130000E9405902DB63EB64D815E812A01F1E0E8
:102140004F1A51082DB73EB7241B350B0FB6F89424
:102150003EBF0FBE2DBF8DB79EB701966C014115D6
:10216000510541F0C114D10429F0B601CE01019608
:102170000E943655F601CF018C199D0984159505ED
:1021800014F40C94A421DD24D3940FB6F8943EBE2D
:102190000FBE2DBECE0101960E947A8FD1100C94F5
:1021A000AC21CE01CB960E947A8F5FEFE51AF50A3B
:1021B0006ACF84E493E00E940D6560915C0B70919E
:1021C0005D0B4AE0CE0101960E94DA8F89819A81E7
:1021D0000E940D65CE0101960E947A8F0E940165D2
:1021E00080915C0B90915D0B019646E0489F9001B9
:1021F000499F300D11242017310754F08DE593E0ED
:102200000E940F658AE693E00E940F650C94A1215D
:1022100088E793E00E940F6585E893E00E940F65D0
:102220000C94A121E1E5F5E08491882341F090919F
:10223000C00095FFFCCF8093C6003196F5CF80910A
:10224000C00085FFFCCF8AE08093C60010925C122C
:1022500010925B1240E050E0BA0180EA90E10E94E7
:10226000F65C8BE1E0EAF0E1DE01159601900D925B
:102270008A95E1F780919E1090919F109C838B83AB
:102280008EEB92E09A838983BE016F5F7F4F87E375
:1022900094E00E945955CE0101960E949872E3E4A1
:1022A000F5E08491882341F09091C00095FFFCCF28
:1022B0008093C6003196F5CF8091C00085FFFCCF9A
:1022C0008AE08093C6000C94A1210E94382A0C94C5
:1022D000A121E090F10BF090F20B84E0E80EF11CEC
:1022E0006AE270E0C7010E9484C9009719F0FC01FE
:1022F0003197108200E010E0980141E0B701C7017A
:102300000E94EC560C94A12180916810882331F032
:1023100081E090E090936710809366100E940D35E5
:102320006093610B7093620B8093630B9093640BCB
:102330000C94A12181E090E00E9427910C94A121AE
:1023400080916810882311F40C94A12183E50E94E8
:10235000E9AD81110C9455220C94A1218091681053
:10236000882309F439C0EFEBF2E08491882341F02F
:102370009091C00095FFFCCF8093C6003196F5CFB9
:102380006091941070919510809196109091971093
:102390004AE00E94F626EDEBF2E08491882341F0BA
:1023A0009091C00095FFFCCF8093C6003196F5CF89
:1023B000609198107091991080919A1090919B1053
:1023C0004AE00E94F6268091C00085FFFCCF8AE09B
:1023D0008093C6000C94A121E1EDF2E08491882362
:1023E00041F09091C00095FFFCCF8093C6003196DC
:1023F000F5CF8091C00085FFFCCF8AE08093C600B6
:102400000C94A1218091F10B9091F20B6AE270E0A3
:1024100004960E9484C98C01892BE1F02091080C5C
:102420003091090C40E6429FC001439F900D11245A
:102430006EE470E08E5E934F0E9484C960E270E0AB
:102440000E9484C901969093F20B8093F10BF801DE
:10245000319710828091F10B9091F20B049600E07D
:1024600010E0980140E0BC010E94EC560C94A121C0
:1024700080916810882311F40C94A1210E94E056E9
:102480008091F10B9091F20B6AE270E004960E9449
:1024900084C98C01892BE1F02091080C3091090C42
:1024A00040E6429FC001439F900D11246EE470E00E
:1024B0008E5E934F0E9484C960E270E00E9484C9DE
:1024C00001969093F20B8093F10BF80131971082F3
:1024D0000091F10B1091F20B480194E0890E911CD0
:1024E00080916810882311F40C94A1218BE392E170
:1024F0000E94DF5D1092671010926610DE01119647
:102500007D01CD010E94A0728CE990E19093BC10F6
:102510008093BB10F80184818F3209F08BC06FE289
:1025200070E0C4010E9484C98C010F5F1F4F6AE0F4
:10253000662E0115110509F483C06FE270E0C80131
:102540000E9484C96C01009709F47BC00817190721
:1025500008F077C05C01A01AB10AA501B801CE014C
:1025600080960E94ADC9E0E2F0E0EC0FFD1FEA0D9D
:10257000FB1D10828E01005E1F4FF80181918823A0
:1025800039F09091C00095FFFCCF8093C600F6CF44
:102590008091C00085FFFCCF6092C6006091BB10A7
:1025A0007091BC106115710511F06C5F7F4F21E0D7
:1025B000AE01405E5F4FCE0105960E9466638111B9
:1025C00031C0EBE0F3E08491882371F09091C0007A
:1025D00095FFFCCF8093C6003196F5CF9091C00057
:1025E00095FFFCCF8093C600D8018D918D0181119C
:1025F000F5CFE9E0F3E08491882341F09091C000A9
:1026000095FFFCCF8093C6003196F5CF8091C00036
:1026100085FFFCCF8AE08093C600C7010E949872B4
:102620000C94A121F092BC10E092BB1086010F5FC8
:102630001F4F7FCF8DEB90E19093BC108093BB1028
:1026400084016091BB107091BC106115710511F08F
:102650006C5F7F4F18A21BA222E0A801CE018096DA
:102660000E9466638823F1F0CE0180960E942C2898
:102670008823C1F06CA57DA58EA59FA541E00E9491
:10268000EA72882379F0E8A9B0E2EB9FF001112407
:10269000EA56F24F309731F085EE80831BA20E94FC
:1026A000AA72782ECE0180960E94ED5E772009F105
:1026B000EBEFF2E08491882341F09091C00095FF08
:1026C000FCCF8093C6003196F5CFF8018191882325
:1026D00039F09091C00095FFFCCF8093C600F6CFF3
:1026E00010929410109295101092961010929710CC
:1026F0002CC0E3EEF2E08491882341F09091C00079
:1027000095FFFCCF8093C6003196F5CFF8018191FB
:10271000882339F09091C00095FFFCCF8093C600CC
:10272000F6CFE1EEF2E08491882341F09091C00071
:1027300095FFFCCF8093C6003196F5CF8091C00005
:1027400085FFFCCF8AE08093C600C7010E94987283
:102750000C94A1218091661090916710019721F44B
:102760000E942DA90E94E056E090F10BF090F20B30
:10277000E4E0EE0EF11C6AE270E0C7010E9484C939
:10278000009719F0FC013197108200E010E09801E9
:1027900041E0B701C7010E94EC5680916810882380
:1027A00031F081E090E090936710809366100E9472
:1027B0000D356093610B7093620B8093630B909364
:1027C000640B0C94A1218091F10B9091F20B6AE2C1
:1027D00070E005960E9484C98C01892BE1F020915C
:1027E000080C3091090C40E6429FC001439F900DB8
:1027F00011246EE470E08E5E934F0E9484C960E203
:1028000070E00E9484C901969093F20B8093F10BC3
:10281000F801319710828091F10B9091F20B05969F
:1028200021E02093651000E010E0980140E0BC0139
:102830000E94EC560C94A1210E940D356093650B0B
:102840007093660B8093670B9093680B0091610BFC
:102850001091620B2091630B3091640B601B710B24
:10286000820B930B28EE33E040E050E00E9442C41C
:10287000CA01B9012CE330E040E050E00E9442C4BC
:102880007F936F933F932F9384E395E09F938F9370
:102890008E010F5F1F4F1F930F930E9477BEE6E7D5
:1028A000F8E084912DB73EB7285F3F4F0FB6F894FC
:1028B0003EBF0FBE2DBF882349F09091C00095FF09
:1028C000FCCF8093C60031968491F5CFF8018191B9
:1028D000882339F09091C00095FFFCCF8093C6000B
:1028E000F6CF8091C00085FFFCCF8AE08093C600C0
:1028F0000C94A12183E50E94E9AD882311F40C9486
:10290000A1210E940FAE0E94DDC58B0180E50E94CF
:10291000E9AD882311F40C94A1210F3F110509F0B2
:1029200010F40C9466220C94A1216FEF7FEF8FEFCF
:102930009FEF0E9474A30C94A12183E50E94E9AD4E
:10294000882311F40C94A1210E940FAE0E94DDC5D2
:102950007093070C6093060C0C94A12189E690E01B
:102960000E948F9281110C94A121EEE2F5E08491F6
:10297000882341F09091C00095FFFCCF8093C60062
:102980003196F5CFE091B31834E0E39FF0011124C4
:10299000E158FD4E608171818281938141E00E9406
:1029A0007D27EBE2F5E08491882341F09091C0000F
:1029B00095FFFCCF8093C6003196F5CFE091B31818
:1029C000F0E0EE0FFF1FEF5DFC4E60817181072E7E
:1029D000000C880B990B0E94ACBE41E00E947D2741
:1029E000E7E2F5E08491882341F09091C00095FFE3
:1029F000FCCF8093C6003196F5CF60916F12709135
:102A00007012809171129091721241E00E947D27A4
:102A1000E4E2F5E08491882341F09091C00095FFB5
:102A2000FCCF8093C6003196F5CF6091060C709173
:102A3000070C072E000C880B990B0E94ACBE41E0DE
:102A40000E947D27E0E2F5E08491882341F0909197
:102A5000C00095FFFCCF8093C6003196F5CFE09182
:102A6000B318F0E0E157FD4E608170E080E090E047
:102A70000E946B27EBE1F5E08491882341F090916F
:102A8000C00095FFFCCF8093C6003196F5CF6091D2
:102A90008E1270E080E090E00E946B278091C00071
:102AA00085FFFCCF8AE08093C6000C94732583E5F4
:102AB0000E94E9AD882319F10E940FAE20E030E0BA
:102AC000A9010E94A6BE87FD0FC00E940FAE20E0A4
:102AD00030E04FE753E40E94C9C6181644F00E9444
:102AE0000FAE0E94DDC505C060E070E002C06FEF70
:102AF00070E07093D1186093D0180C94A1218FEFDF
:102B000090E09093D1188093D0180C94A12110924A
:102B1000D1181092D0180C94A121999AA19A0C94D2
:102B2000A12161E080E00E94C0AD0C94A12110922F
:102B3000BE180C94A12181E08093BE180C94A121B1
:102B400083E50E94E9AD8823A1F00E940FAE20E04A
:102B500030E04AE754E40E9403B90E94E3C5609361
:102B6000190270931A0280931B0290931C020C941A
:102B7000A12188E50E94E9AD81110C94692289E5C3
:102B80000E94E9AD81110C9469228AE50E94E9ADA9
:102B900081110C94692285E40E94E9AD81110C94A5
:102BA00069220E942DA98D9A129A81E00E94ECA8B8
:102BB0000C94A12183E50E94E9AD0E940FAE20E0B4
:102BC00030E04AE754E40E9403B90E94E3C56093F1
:102BD000AB187093AC188093AD189093AE180C940A
:102BE000A12182E50E94E9AD882329F00E940FAE61
:102BF0004B015C0106C0812C912C40E8A42E4FE3D0
:102C0000B42E46EC52E026965FAF4EAF269700E614
:102C100013E18DED92E124969FAF8EAF249734E7B8
:102C2000232E33E1332E22961FAE22972696AEAD89
:102C3000BFAD26978D912696BFAFAEAF26970E9467
:102C4000E9AD882309F46DC02296BFAD2297B33059
:102C500009F05CC00E940FAEA50194010E946CC5F2
:102C60002B013C0120E030E040EA51E40E94A6BE86
:102C700087FF45C0A3019201F801608171818281C3
:102C800093810E946CC56B017C019B01AC0160913A
:102C9000C9127091CA128091CB129091CC120E94ED
:102CA00003B96093C9127093CA128093CB129093A8
:102CB000CC12A70196012496AEADBFAD24976D91BD
:102CC0007D918D919C910E9403B92496EEADFFAD4C
:102CD00024976083718382839383D1016D917D9169
:102CE0008D919C910E94AABEA70196010E9403B9F2
:102CF0000E94E3C5F1016083718382839383D801CD
:102D00004D925D926D927C9213970BC00E940FAE14
:102D1000A50194010E946CC5F801608371838283D0
:102D200093832296FFAD2297FF5F2296FFAF2297F3
:102D30000C5F1F4F24962EAD3FAD24972C5F3F4F65
:102D400024963FAF2EAF249734E0230E311CF4308D
:102D500009F06CCF0E94753E0C94A121EAE7F4E0E3
:102D60008491882311F40C94A1219091C00095FFC7
:102D7000FCCF8093C6003196F3CF8091F10B9091F8
:102D8000F20B6AE270E005960E9484C9009711F484
:102D90000C94A121FC01319710820C94A121E7E74A
:102DA000F4E08491882341F09091C00095FFFCCF1E
:102DB0008093C6003196F5CF609140137091411316
:102DC000809142139091431342E00E947D27E4E7F3
:102DD000F4E08491882341F09091C00095FFFCCFEE
:102DE0008093C6003196F5CF6091441370914513DE
:102DF000809146139091471342E00E947D27E1E7BE
:102E0000F4E08491882341F09091C00095FFFCCFBD
:102E10008093C6003196F5CF6091481370914913A5
:102E200080914A1390914B1342E00E947D27EEE679
:102E3000F4E08491882341F09091C00095FFFCCF8D
:102E40008093C6003196F5CF60914C1370914D136D
:102E500080914E1390914F1342E00E947D27E3E64C
:102E6000F4E08491882341F09091C00095FFFCCF5D
:102E70008093C6003196F5CF2FB7F8946091301348
:102E80007091311380913213909133132FBF0E94B0
:102E9000ACBE209160133091611340916213509148
:102EA00063130E946CC542E00E947D27E0E6F4E0D7
:102EB0008491882341F09091C00095FFFCCF8093CE
:102EC000C6003196F5CF2FB7F89460913413709106
:102ED000351380913613909137132FBF0E94ACBEEB
:102EE00020916413309165134091661350916713DC
:102EF0000E946CC542E00E947D27EDE5F4E08491DC
:102F0000882341F09091C00095FFFCCF8093C600CC
:102F10003196F5CF2FB7F89460913813709139132B
:102F200080913A1390913B132FBF0E94ACBE209129
:102F300068133091691340916A1350916B130E948A
:102F40006CC542E00E947D278091C00085FFFCCFC8
:102F50008AE08093C6000C94A12180E00E94C1A861
:102F60000C94A12181E00E94C1A80C94A121909110
:102F7000C00095FFFCCF8093C60081918111F7CFEF
:102F80008091C00085FFFCCF8AE08093C600E5E514
:102F9000F4E08491882341F09091C00095FFFCCF2C
:102FA0008093C6003196F5CF659B03C0E0EDF2E05B
:102FB00009C0E5EDF2E006C09091C00095FFFCCF9E
:102FC0008093C60081918111F7CF8091C00085FF69
:102FD000FCCF8AE08093C600EDE4F4E0849188237E
:102FE00041F09091C00095FFFCCF8093C6003196D0
:102FF000F5CF649B03C0E0EDF2E009C0E5EDF2E03F
:1030000006C09091C00095FFFCCF8093C6008191CF
:103010008111F7CF8091C00085FFFCCF8AE08093BB
:10302000C600E5E4F4E08491882341F09091C0006B
:1030300095FFFCCF8093C6003196F5CF80910301B8
:1030400081FF03C0E0EDF2E009C0E5EDF2E006C06B
:103050009091C00095FFFCCF8093C60081918111B3
:10306000F7CF8091C00085FFFCCF8AE08093C60037
:10307000EDE3F4E08491882341F09091C00095FF46
:10308000FCCF8093C6003196F5CF4B9B03C0E0ED9B
:10309000F2E009C0E5EDF2E006C09091C00095FFB6
:1030A000FCCF8093C60081918111F7CF8091C00041
:1030B00085FFFCCF8AE08093C6000C94A12194E8A0
:1030C000E92E93E1F92E06EC12E024E0D22ED00E88
:1030D000D8018D918D010E94E9AD882349F00E94AD
:1030E0000FAE0E94E3C5F7016083718382839383EF
:1030F000F4E0EF0EF11CD012EBCF0E94FF6D0C94A8
:10310000A121F4E0EF0EF11CD01611F40C94A121D2
:10311000D8018D918D010E94E9AD882391F30E9421
:103120000FAEF7016083718382839383EACF83E5D7
:103130000E94E9AD882351F00E940FAE6093D51232
:103140007093D6128093D7129093D81284E50E9480
:10315000E9AD882311F40C94A1210E940FAE609375
:10316000D9127093DA128093DB129093DC120C94D4
:10317000A12183E50E94E9AD882351F00E940FAEA2
:103180006093F1127093F2128093F3129093F41201
:1031900084E50E94E9AD882351F00E940FAE609350
:1031A000F5127093F6128093F7129093F81282E45E
:1031B0000E94E9AD882361F00E940FAE0E94E3C532
:1031C0006093ED127093EE128093EF129093F012D1
:1031D00088E50E94E9AD882351F00E940FAE60930C
:1031E000D1127093D2128093D3129093D4128AE5A5
:1031F0000E94E9AD882351F00E940FAE6093CD127A
:103200007093CE128093CF129093D01285E40E94D7
:10321000E9AD882311F40C94A1210E940FAE6093B4
:10322000C9127093CA128093CB129093CC120C9453
:10323000A121A5E3EA2EA9E1FA2E06EC12E0B3E003
:10324000DB2ED00ED8018D918D010E94E9AD88232F
:1032500039F00E940FAEF7016083718382839383FC
:10326000F4E0EF0EF11CD012EDCF0C94A1218AED09
:1032700090E00E948F9281110C94A12188E50E9418
:10328000E9AD882381F00091B31810E00E940FAEE1
:10329000000F111F000F111FF801E95BFF4E608343
:1032A00071838283938389E50E94E9AD882381F04D
:1032B0000091B31810E00E940FAE000F111F000F15
:1032C000111FF801E15BFF4E60837183828393835A
:1032D0008AE50E94E9AD882381F00091B31810E0DF
:1032E0000E940FAE000F111F000F111FF801E95AC5
:1032F000FF4E6083718382839383E6E7F8E08491D5
:10330000882341F09091C00095FFFCCF8093C600C8
:103310003196F5CFEDE2F4E08491882341F090916D
:10332000C00095FFFCCF8093C6003196F5CF109278
:10333000B3188091B318823008F058C0EEE1F4E081
:103340008191882339F09091C00095FFFCCF809344
:10335000C600F6CFE091B31824E0E29FF0011124FB
:10336000E95BFF4E608171818281938142E00E941E
:103370007D2703E913E0F8018191882339F09091CA
:10338000C00095FFFCCF8093C600F6CFE091B31844
:1033900034E0E39FF0011124E15BFF4E6081718115
:1033A0008281938142E00E947D27D8018D918D0119
:1033B000882339F09091C00095FFFCCF8093C60020
:1033C000F4CFE091B318B4E0EB9FF0011124E95A77
:1033D000FF4E608171818281938142E00E947D274E
:1033E0008091B3188F5F8093B318A3CF8091C000F2
:1033F00085FFFCCF8AE08093C600A3C783E50E94C7
:10340000E9AD882309F49DC70E940FAE0E94DDC577
:10341000709361026093600294C783E50E94E9ADF6
:10342000882309F48EC70E940FAE0E94DDC57093F9
:10343000100260930F0285C780E50E94E9AD8823E2
:1034400051F00E940FAE609342027093430280934A
:1034500044029093450289E40E94E9AD882381F0FB
:103460000E940FAE2DEB37E346E05EE30E9403B906
:1034700060933E0270933F0280934002909341021A
:1034800084E40E94E9AD882381F00E940FAE2DEB09
:1034900037E346E05EE30E946CC560933A027093A6
:1034A0003B0280933C0290933D0283E40E94E9AD8D
:1034B000882351F00E940FAE6093000270930102C6
:1034C00080930202909303020E94A8A8E5E9F3E02A
:1034D0008191882339F09091C00095FFFCCF8093B3
:1034E000C600F6CFE8E9F3E08191882339F09091A6
:1034F000C00095FFFCCF8093C600F6CF60914202DA
:1035000070914302809144029091450242E00E94F2
:103510007D27ECE9F3E08191882339F09091C00098
:1035200095FFFCCF8093C600F6CF2DEB37E346E046
:103530005EE360913E0270913F0280914002909163
:1035400041020E946CC542E00E947D27E0EAF3E060
:103550008191882339F09091C00095FFFCCF809332
:10356000C600F6CF2DEB37E346E05EE360913A020A
:1035700070913B0280913C0290913D020E9403B900
:1035800042E00E947D27E4EAF3E08191882339F04C
:103590009091C00095FFFCCF8093C600F6CF60915C
:1035A000000270910102809102029091030242E0B8
:1035B0000E947D278091C00085FFFCCF8AE0809328
:1035C000C6000E94753EBDC683E50E94E9AD882312
:1035D00019F00E940FAE03C060E070E0CB01609371
:1035E000F9127093FA128093FB129093FC12A9C601
:1035F00085E40E94E9AD882341F00E940FAE0E944D
:10360000DDC58B0177FD12C002C000E010E02D96F1
:103610001FAE2D972E961FAE2E97E6E12F96EFAF99
:103620002F97F3E46096FFAF60970EC02D961FAE04
:103630002D972E961FAE2E972CE82F962FAF2F97F3
:1036400032E460963FAF609783E50E94E9AD88233E
:1036500071F00E940FAE2D966FAF2D972E967FAF13
:103660002E972F968FAF2F9760969FAF609783E42A
:103670000E94E9AD882349F00E940FAE0E94DDC58B
:10368000AC967FAF6EAFAC9706C045E050E0AC960D
:103690005FAF4EAFAC970E940D352C966CAF7DAFEF
:1036A0008EAF9FAF2C97033011051CF4E8EAF3E0CE
:1036B0001AC0EBEBF3E08191882339F09091C000C0
:1036C00095FFFCCF8093C600F6CF8091C00085FFA8
:1036D000FCCF8AE08093C60034C69091C00095FF6D
:1036E000FCCF8093C60081918111F7CF8091C000FB
:1036F00085FFFCCF8AE08093C6000E9463358FE788
:1037000017FF68C080938E122C968CAD9DADAEAD28
:10371000BFAD2C976A968CAF9DAFAEAFBFAF6A9727
:10372000E0968CAF9DAFAEAFBFAFE09761961FAE96
:10373000619790E46F969FAF6F97ACE1A096AFAFA3
:10374000A097B6E4A196BFAFA1976B961FAE6B97FB
:103750006C961FAE6C976D961FAE6D976E961FAEF2
:103760006E972FE730E040E050E028962CAF3DAF59
:103770004EAF5FAF28973FE7432E512C612C712C41
:10378000A8961CAE1DAE1EAE1FAEA89731E0A29645
:103790003FAFA29766961FAE1EAE669722961FAEEB
:1037A0002297212C312C23961FAE2397A801415735
:1037B0005D4EAA965FAF4EAFAA97C801880F991FBA
:1037C000880F991FDC01A158BD4EA496BFAFAEAFC4
:1037D000A49707C0F801E157FD4E808395CF0E9462
:1037E000813280918D12882309F478C10E946C3A4D
:1037F00017FF0FC0B0916F122296BFAF2297209093
:10380000701230907112E09172122396EFAF2397ED
:1038100012C0A496AEADBFADA497BC912296BFAF27
:103820002297A496EEADFFADA49721803280F3815C
:103830002396FFAF239722962FAD2297322D432D4B
:1038400023965FAD23976B966FAD6B976C967FADAC
:103850006C976D968FAD6D976E969FAD6E970E942B
:10386000C9C6181694F022962FAD22976B962FAFEB
:103870006B976C962FAE6C976D963FAE6D972396B7
:103880003FAD23976E963FAF6E9722962FAD22974E
:10389000322D432D23965FAD239761966FAD6197CF
:1038A0006F967FAD6F97A0968FADA097A1969FADB5
:1038B000A1970E94A6BE87FD12C022964FAD229707
:1038C00061964FAF61976F962FAE6F97A0963FAE00
:1038D000A09723965FAD2397A1965FAFA197A2967D
:1038E0008FADA297882309F479C02D962FAD2D971F
:1038F0002E963FAD2E972F964FAD2F9760965FADCA
:10390000609722966FAD2297722D832D23969FADDF
:1039100023970E94C9C618160CF0E0C00E940D350E
:10392000DC01CB012C962CAD3DAD4EAD5FAD2C979F
:10393000821B930BA40BB50B89389341A105B105EC
:1039400008F4CCC0D301C20128962CAD3DAD4EADDC
:103950005FAD2897821B930BA40BB50BB595A7956C
:103960009795879517FF03C080938E1205C0AA967E
:10397000EEADFFADAA9780830E940D356A966CAFBD
:103980007DAF8EAF9FAF6A979B01AC012C968CAD3B
:103990009DADAEADBFAD2C97281B390B4A0B5B0B11
:1039A000A8962CAF3DAF4EAF5FAFA8972D969FADB9
:1039B0002D976B969FAF6B972E96AFAD2E976C960B
:1039C000AFAF6C972F96BFAD2F976D96BFAF6D972A
:1039D0006096EFAD60976E96EFAF6E972D962FAD18
:1039E0002D972E963FAD2E972F964FAD2F97609621
:1039F0005FAD609722966FAD2297722D832D23962F
:103A00009FAD23970E94A6BE87FF5CC70E940D351D
:103A1000DC01CB016A962CAD3DAD4EAD5FAD6A9732
:103A2000821B930BA40BB50B89389341A105B105FB
:103A300008F448C70E940D352C966CAF7DAF8EAF51
:103A40009FAF2C97DC01CB016A962CAD3DAD4EADFE
:103A50005FAD6A97821B930BA40BB50B66964EADB8
:103A60005FAD6697141615060CF45FC528968CADED
:103A70009DADAEADBFAD2897840D951DA61DB71D9C
:103A8000B595A7959795879517FF16C780938E12C2
:103A900066962EAD3FAD66972F5F3F4F66963FAF60
:103AA0002EAF66972D963FAD2D9761963FAF6197EC
:103AB0002E964FAD2E976F964FAF6F972F965FADA7
:103AC0002F97A0965FAFA09760968FAD6097A19655
:103AD0008FAFA19791E0A2969FAFA29720E030E030
:103AE00040EA51E42D966FAD2D972E967FAD2E971F
:103AF0002F968FAD2F9760969FAD60970E947EC4E2
:103B00009B01AC0122966FAD2297722D832D2396D7
:103B10009FAD23970E94C9C61816ACF4E8E9F3E0FC
:103B20008491882341F09091C00095FFFCCF809351
:103B3000C6003196F5CF8091C00085FFFCCF8AE0AA
:103B40008093C600FEC30E940D35DC01CB01E096D8
:103B50002CAD3DAD4EAD5FADE097821B930BA40B3A
:103B6000B50B813D9740A105B10508F452C017FF80
:103B700010C0E0908E12F12CE2E9F3E084918823EA
:103B8000D9F09091C00095FFFCCF8093C60031968C
:103B9000F5CFAA96AEADBFADAA97EC90F12CECE8AC
:103BA000F3E08491882341F09091C00095FFFCCF11
:103BB0008093C6003196F5CF42E022966FAD2297F2
:103BC000722D832D23969FAD23970E947D27E8E8D1
:103BD000F3E08491882341F09091C00095FFFCCFE1
:103BE0008093C6003196F5CFB701FF0C880B990B77
:103BF0000E946B278091C00085FFFCCF8AE08093F4
:103C0000C6000E940D35E0966CAF7DAF8EAF9FAFC2
:103C1000E0970E940D356B017C010E940D356A967C
:103C20008CAC9DACAEACBFAC6A972C962CAD3DADC8
:103C30004EAD5FAD2C97820E931EA41EB51EC81804
:103C4000D908EA08FB08DC01CB018C0D9D1DAE1DD7
:103C5000BF1D81389F44A241B105A8F0EBE6F3E017
:103C60008491882341F09091C00095FFFCCF809310
:103C7000C6003196F5CF8091C00085FFFCCF8AE069
:103C80008093C6005EC366964EAD5FAD6697AC96F8
:103C90008EAD9FADAC97841795070CF0A0CDEFE1EA
:103CA000F3E08491882341F09091C00095FFFCCF10
:103CB0008093C6003196F5CF8091C00085FFFCCF80
:103CC0008AE08093C6003DC30E942DA93AC30E949A
:103CD0004B4137C30E94A23F0E944B6E32C30E94E9
:103CE0009F3A2FC380E090E00E944D810E942DA951
:103CF00083E50E94E9AD882341F00E940FAE0E9447
:103D0000DDC57093140260931302809113029091A9
:103D100014028230910509F0BFC088E50E94E9AD28
:103D2000882349F10E940FAE6B017C010E943A5436
:103D30009B01AC0160E070E0CB010E947DC49B015F
:103D4000AC01C701B6010E94C9C618161CF40E9436
:103D50000FAE09C00E943A549B01AC0160E070E0D4
:103D6000CB010E947DC4609304027093050280938E
:103D700006029093070282E50E94E9AD882351F084
:103D80000E940FAE6093420B7093430B8093440BE1
:103D90009093450BE6E7F8E08491882341F09091F9
:103DA000C00095FFFCCF8093C6003196F5CFE8E0C8
:103DB000F4E08491882341F09091C00095FFFCCFFE
:103DC0008093C6003196F5CF6EE1E62E64E0F62EC4
:103DD000F7018191882339F09091C00095FFFCCFC5
:103DE0008093C600F6CF6091471070914810809183
:103DF000491090914A1042E00E947D2703E913E0A8
:103E0000F8018191882339F09091C00095FFFCCF93
:103E10008093C600F6CF60914F1070915010809142
:103E200051109091521042E00E947D27D7018D9150
:103E30007D01882339F09091C00095FFFCCF8093DD
:103E4000C600F4CF609104027091050280910602D1
:103E50009091070242E00E947D27F80181918F0135
:103E6000882339F09091C00095FFFCCF8093C60065
:103E7000F4CF60915310709154108091551090912F
:103E8000561042E00E947D278091C00085FFFCCF44
:103E90008AE08093C60008C0049730F081E090E08B
:103EA000909314028093130210924219809113028E
:103EB0009091140290931202809311021092431970
:103EC0001092441910924519109246193AC283E58E
:103ED0000E94E9AD882309F434C20E940FAE0E940B
:103EE000DDC570932713609326136230710534F09B
:103EF00081E090E0909327138093261380912613FE
:103F00009091271397FD02C00C94AA1610922713C4
:103F1000109226130C94AA1685EE93E00E940F656A
:103F200010C20E94CD840DC282E50E94E9AD8823B3
:103F300029F00E940FAE9B01AC0104C020E030E0EC
:103F400040E85FE383E5E3962FAFE397E4963FAF66
:103F5000E497E5964FAFE597E6965FAFE6970E9448
:103F6000E9AD882309F4EDC10E940FAEE3962FADB1
:103F7000E397E4963FADE497E5964FADE597E69677
:103F80005FADE6970E946CC5609343107093441038
:103F900080934510909346100E94753ED2C182E5F1
:103FA0000E94E9AD882329F00E940FAE9B01AC016D
:103FB00004C020E030E040E85FE383E5E3962FAF04
:103FC000E397E4963FAFE497E5964FAFE597E69623
:103FD0005FAFE6970E94E9AD882309F4B2C10E9461
:103FE0000FAEE3962FADE397E4963FADE497E596E9
:103FF0004FADE597E6965FADE6970E946CC560937E
:104000005F107093601080936110909362100E9413
:10401000753E97C182E50E94E9AD882329F00E9490
:104020000FAE9B01AC0104C020E030E040E85FE34C
:1040300083E5E3962FAFE397E4963FAFE497E596E9
:104040004FAFE597E6965FAFE6970E94E9AD88230C
:1040500009F477C10E940FAEE3962FADE397E49683
:104060003FADE497E5964FADE597E6965FADE697F1
:104070000E946CC56093580B7093590B80935A0B38
:1040800090935B0B0E94753E5CC183E50E94E9AD95
:10409000882309F456C10E940FAE0E94DDC5653623
:1040A00071052CF477FF05C060E070E002C064E6A3
:1040B00070E07093AA186093A9180E94753E41C1E0
:1040C00083E50E94E9AD882309F43BC10E940FAE4D
:1040D0000E94DDC5693C71052CF477FF05C060E0E6
:1040E00070E002C068EC70E07093A8186093A718A5
:1040F0000E94753E26C183E50E94E9AD882309F43C
:1041000020C10E940FAE0E94DDC521E030E0613089
:10411000710511F020E030E030935F0B20935E0BCF
:104120000E94753E0EC183E50E94E9AD882309F423
:1041300008C10E940FAE0E94DDC56D3371052CF4DD
:1041400077FF05C060E070E002C06CE370E0709340
:10415000570B6093560B0E94753EF3C082E40E9499
:10416000E9AD882351F00E940FAE0E94DDC5709327
:10417000D8186093D7180E94753E85E40E94E9AD77
:10418000882309F4DEC00E940FAE0E94DDC5709343
:10419000550B6093540B7093530B6093520B0E941A
:1041A000753ECFC083E50E94E9AD81118FC3C9C0C0
:1041B00083E50E94E9AD882309F4C3C00E940FAED5
:1041C0000E94DDC58B0184E50E94E9AD882329F0BA
:1041D0000E940FAE0E94DDC502C06FEF7FEF02307C
:1041E000110508F0AEC080912E1390E06817790792
:1041F00009F4DCC36F3FFFEF7F0709F4D7C3CB019E
:104200000E944D81D3C3109229131092281399C094
:104210000E94765496C00E94495493C080E090E07A
:104220000E9427918EC083E50E94E9AD882309F49E
:1042300088C00E940FAE6B017C0120E030E0A90134
:104240000E94A6BE811104C081E080935E0279C005
:1042500020E030E040E251E4C701B6010E946CC5A5
:104260006093CC187093CD188093CE189093CF188C
:1042700010925E0266C010922F138091AF18909139
:10428000B018A091B118B091B2188093ED0B909333
:10429000EE0BA093EF0BB093F00B0E94099FE0E0B0
:1042A000F0E019954EC084E50E94E9AD882329F01D
:1042B0008FEF9FEF0E944D8144C0E6E7F8E08491C4
:1042C000882341F09091C00095FFFCCF8093C600F9
:1042D0003196F5CFEAE1F4E08491882341F09091A2
:1042E000C00095FFFCCF8093C6003196F5CF80913A
:1042F000080C9091090C20E6289FF001299FF00DF1
:104300001124EE5EF34F8191882339F09091C00023
:1043100095FFFCCF8093C600F6CFE8E1F4E08491EE
:10432000882341F09091C00095FFFCCF8093C60098
:104330003196F5CF8091C00085FFFCCF8AE0809355
:10434000C6000E94E19ECFC3819187FD02C00C94FC
:10435000BB10D12C0C94C51066E770E1CE0101961C
:104360000E940D90BE016F5F7F4FCE01CB960E94E1
:10437000418FCE0101960E947A8FCE01CB960E948A
:10438000358DBE01655C7F4FCE0180960E94059001
:104390000F5F1F4FC0905C0BD0905D0BB6E0BC9DD3
:1043A000C001BD9D900D1124801791070CF077C0BE
:1043B0000696801791070CF472C069E670E1CE0191
:1043C00001960E940D90BE016F5F7F4FCE01CB968C
:1043D0000E94418FCE0101960E947A8FCE01CB962A
:1043E0000E94358D67E374E0CE0180960E94908E26
:1043F000882339F0BE01655C7F4FCE0180960E9414
:104400002C8F4AEF96014203C001439F900D112467
:104410006801C80ED91E86E293E00E940D654AE04D
:10442000B601CE0101960E94DA8F89819A810E949D
:104430000D65CE0101960E947A8F84ED99E00E946D
:104440000D65CE0180960E94358D88A199A10E94AC
:104450000D6587EB94E00E940D650E94016585E380
:1044600093E00E940D654AE0B601CE0101960E94DC
:10447000DA8F89819A810E940D65CE0101960E9492
:104480007A8F84ED99E00E940D658BAD9CAD0E9402
:104490000D6587EB94E00E940D650E940165CE01D9
:1044A00080960E947A8F0C94D1100E9404AEAB01CA
:1044B000BC014093941050939510609396107093A4
:1044C00097108BE392E10E94F65C3BCF0E940FAE07
:1044D00038CF0E942DA988E50E94E9AD882311F00C
:1044E0005F9A479A89E50E94E9AD81118A9A8AE527
:1044F0000E94E9AD882381F09FB7F894809108016C
:104500008160809308019FBF9FB7F8948091080154
:104510008460809308019FBF85E40E94E9AD8823F1
:1045200009F40FCF8D9A129A0CCFA8968CAC9DAC43
:10453000AEACBFACA897880E991EAA1EBB1EA8964B
:104540002CAD3DAD4EAD5FADA897281B390B4A0B86
:104550005B0BCA01B90128962CAD3DAD4EAD5FADE8
:1045600028970E9433C4A50194010E9434C8D30146
:10457000C201820F931FA41FB51F84319105A105AD
:10458000B1050CF12C013D018C3E9105A105B10551
:104590002CF0FBEE4F2E512C612C712C40E8441670
:1045A000510461047104FCF08EEF90E0A0E0B0E0F3
:1045B00084199509A609B70928968CAF9DAFAEAFAF
:1045C000BFAF289716C0E4E14E2E512C612C712C00
:1045D00024E130E040E050E028962CAF3DAF4EAFF4
:1045E0005FAF289706C028964CAE5DAE6EAE7FAE2C
:1045F0002897E0E0F4E08491882341F09091C00096
:1046000095FFFCCF8093C6003196F5CFC301B20170
:1046100062D4EBEFF3E08491882341F09091C000E5
:1046200095FFFCCF8093C6003196F5CF28966CADF0
:104630007DAD8EAD9FAD28974ED4E4EFF3E084912D
:10464000882341F09091C00095FFFCCF8093C60075
:104650003196F5CF42E061966FAD61976F967FAD71
:104660006F97A0968FADA097A1969FADA19745D4C7
:10467000EDEEF3E08491882341F09091C00095FF26
:10468000FCCF8093C6003196F5CF42E06B966FADBC
:104690006B976C967FAD6C976D968FAD6D976E96A0
:1046A0009FAD6E972AD48091C00085FFFCCF8AE031
:1046B0008093C60066962EAD3FAD669723303105D8
:1046C0000CF4D4C928966CAD7DAD8EAD9FAD289706
:1046D0000E94ACBE20E030E040E850E40E9403B904
:1046E0006B017C0161962FAD61976F963FAD6F971F
:1046F000A0964FADA097A1965FADA1976B966FADB9
:104700006B976C967FAD6C976D968FAD6D976E962F
:104710009FAD6E970E947DC420ED3FE049E450E4D8
:104720000E9403B920E030E040E05FE30E9403B95B
:104730009B01AC01C701B6010E946CC56B017C01F5
:10474000C501B4010E94ACBE20E030E04AE754E469
:104750000E946CC54B015C01E7EEF3E08491882375
:1047600041F09091C00095FFFCCF8093C600319638
:10477000F5CF42E0C701B601C0D3E1EEF3E084918A
:10478000882341F09091C00095FFFCCF8093C60034
:104790003196F5CF42E0C501B401AFD38091C0009E
:1047A00085FFFCCF8AE08093C6002AE939E949E118
:1047B0005FE3C701B6010E9403B96B017C019B0155
:1047C000AC010E947EC4A50194010E946CC5649650
:1047D0006CAF7DAF8EAF9FAF6497A5019401C70109
:1047E000B6010E9403B920E030E040E05EE30E94A1
:1047F00003B94B015C01E4EDF3E08491882341F0BF
:104800009091C00095FFFCCF8093C6003196F5CF04
:104810008091C00085FFFCCF8AE08093C600EEEC5B
:10482000F3E08491882341F09091C00095FFFCCF84
:104830008093C6003196F5CF42E0C701B6015DD343
:104840008091C00085FFFCCF8AE08093C600E8EC31
:10485000F3E08491882341F09091C00095FFFCCF54
:104860008093C6003196F5CF42E064966CAD7DAD85
:104870008EAD9FAD649741D38091C00085FFFCCF82
:104880008AE08093C600E2ECF3E08491882341F053
:104890009091C00095FFFCCF8093C6003196F5CF74
:1048A00042E0C501B40129D38091C00085FFFCCF4F
:1048B0008AE08093C600DAC8AA96EEADFFADAA974B
:1048C0008083E6C8A2961FAEA29708C90E940FAEC9
:1048D0000E94DDC561157105F9F48091500B90912E
:1048E000510B909322138093211390932413809360
:1048F000231380914E0B90914F0B9093070C809354
:10490000060C80914C0B90914D0B9093D118809395
:10491000D0180E94603915CD61307105F9F480918D
:104920004A0B90914B0B90932213809321139093F9
:104930002413809323138091480B9091490B9093FB
:10494000070C8093060C8091460B9091470B909337
:10495000D1188093D0180E946039F3CC6230710571
:1049600069F41092221310922113109224131092C2
:1049700023131092070C1092060CE3CC63307105E0
:1049800009F0DFCC109222131092211310922413FD
:10499000109223131092070C1092060C0E942DA95E
:1049A0008D9A129A80E00E94ECA8CBCC012B09F0E2
:1049B0004DC020E030E044EB52E460914C13709124
:1049C0004D1380914E1390914F130E947EC46093BB
:1049D0004C1370934D1380934E1390934F133EE2FC
:1049E000C32E33E1D32EE12CF12C00E211E42CE4B0
:1049F00033E148E453E164E473E180E493E10E942D
:104A0000854520E030E040EA51E460914C1370911C
:104A10004D1380914E1390914F130E947EC460936A
:104A20004C1370934D1380934E1390934F13E12CBE
:104A3000F12C00E010E42CE433E148E453E164E4B9
:104A400073E180E493E10E9485457BCC20E030E077
:104A500040EF51E460914C1370914D1380914E13CF
:104A600090914F130E947EC460934C1370934D132A
:104A700080934E1390934F138EE2C82E83E1D82E6D
:104A8000E12CF12C00E010E42CE433E148E453E1A4
:104A900064E473E180E493E10E94854520E030E026
:104AA00040EF52E460914C1370914D1380914E137E
:104AB00090914F130E947DC460934C1370934D13DB
:104AC00080934E1390934F13E12CF12C08E412E4E1
:104AD0002CE433E148E453E164E473E180E493E1DE
:104AE0000E9485452ECCE296AEADBFADE2970FB6E3
:104AF000F894BEBF0FBEADBFCB58DF4F0FB6F894D2
:104B0000DEBF0FBECDBFDF91CF911F910F91FF9000
:104B1000EF90DF90CF90BF90AF909F908F907F905D
:104B20006F905F904F903F902F9008954F925F92BB
:104B30006F927F928F929F92AF92BF92FF920F934C
:104B40001F93CF93DF93182F84E192E19093A00FEE
:104B500080939F0F1092301282E090E0A0E0B0E0CE
:104B60008093191290931A12A0931B12B0931C12E7
:104B700010929E0F10929A0F10929B0F10929C0F02
:104B800010929D0F8FEF9FEFDC018093960F909313
:104B9000970FA093980FB093990F112379F11530C7
:104BA00008F0F9C040E060E070E0CB010E94EA72DA
:104BB000882309F4F0C020E1129FC00111248A5714
:104BC000924FFC01E254FE4F20812F7709F0E3C0A1
:104BD0003C96408151816281738144365105610563
:104BE000710508F4D8C0349780809180A280B3808A
:104BF00081149104A104B10421F4CDC0812C912C25
:104C0000540140E0C501B4010E94EA72F82E8823E5
:104C100009F4C1C08091A10D9091A20D811592401F
:104C200009F0B9C0A091A60DAA2309F4B4C06091FF
:104C3000A40D7091A50D6115710509F4ACC020910A
:104C4000A30D222309F4A7C0A0932B1220931D12B9
:104C500080E030E0E1E0F0E0C82FAF01082E02C0B4
:104C6000440F551F0A94E2F72417350741F0982F97
:104C70008F5F983089F789E0809326128CC08093EB
:104C800026122091AC0D3091AD0D2115310519F092
:104C900040E050E008C02091BA0D3091BB0D40912A
:104CA000BC0D5091BD0D20931E1230931F124093E6
:104CB00020125093211224013501460E571E611C0B
:104CC000711C40922C1250922D1260922E127092F2
:104CD0002F12E091A70DF091A80DF0933212E093FE
:104CE0003112B0E00E9464C4460E571E681E791E41
:104CF00040923312509234126092351270923612F2
:104D000085E0EE0FFF1F8A95E1F7E150FE4FEF2F90
:104D1000FF27E6954E0E5F1E611C711C4092271204
:104D2000509228126092291270922A122091A90D95
:104D30003091AA0D2115310521F0890120E030E0E4
:104D400008C00091B60D1091B70D2091B80D3091AB
:104D5000B90DB501A4014419550966097709400F39
:104D6000511F621F731F04C076956795579547952D
:104D7000CA95D2F7409322125093231260932412C3
:104D800070932512453F2FE052076105710528F405
:104D90008CE080933012F12C1AC0453F5F4F6105C3
:104DA000710510F480E111C08091C20D9091C30D86
:104DB000A091C40DB091C50D80933312909334121D
:104DC000A0933512B093361280E2809330128F2D6B
:104DD000DF91CF911F910F91FF90BF90AF909F9067
:104DE0008F907F906F905F904F9008954F925F9259
:104DF0006F927F928F929F92AF92BF92EF92FF92AB
:104E00000F931F93CF93DF93CDB7DEB7A0970FB665
:104E1000F894DEBF0FBECDBF611571058105910508
:104E200041F48091C00085FFFCCF80E38093C600F1
:104E30003DC09E012F5F3F4F7901812C912C540181
:104E40008901442E512C612C712C3FEF831A930A57
:104E5000A30AB30AA30192010E9442C4F70161931D
:104E60007F01B901CA01611571058105910569F7D5
:104E7000A40120E030E0F1E08F1A9108A108B10808
:104E8000F401E21BF30BE00FF11F80818A3010F474
:104E9000805D01C0895C9091C00095FFFCCF80933C
:104EA000C6002F5F3F4F2417350751F7A0960FB666
:104EB000F894DEBF0FBECDBFDF91CF911F910F9150
:104EC000FF90EF90BF90AF909F908F907F906F90EA
:104ED0005F904F90089597FF0EC02091C00025FF6E
:104EE000FCCF2DE22093C60090958095709561953A
:104EF0007F4F8F4F9F4F4AE079CF8F929F92AF9213
:104F0000BF92CF92DF92EF92FF92CF93DF936B012C
:104F10007C01C42F20E030E0A9010E94A6BE87FFDB
:104F20000BC08091C00085FFFCCF8DE28093C6004E
:104F3000F7FAF094F7F8F094D0E060E070E080E0E9
:104F40009FE3DC1741F020E030E040E251E40E94B2
:104F50006CC5DF5FF6CF9B01AC01C701B6010E94B3
:104F60007EC46B017C010E94E3C54B015C010E9481
:104F7000AABE9B01AC01C701B6010E947DC46B01B2
:104F80007C014AE0C501B40131DFCC2361F0E1E2EC
:104F9000F5E08191882339F09091C00095FFFCCF16
:104FA0008093C600F6CFCC2309F120E030E040E248
:104FB00051E4C701B6010E9403B94B015C010E9494
:104FC000DDC56B01770FEE08FF08C701B60183DF6F
:104FD000C701B6010E94ACBE9B01AC01C501B40182
:104FE0000E947DC46B017C01C150DDCFDF91CF9168
:104FF000FF90EF90DF90CF90BF90AF909F908F90F9
:105000000895682F82EA9FE00C94C18C009769F0A4
:10501000FC0101900020E9F73197AF01481B590BC3
:10502000BC0182EA9FE00C94F68B80E090E008954A
:10503000BC0180E090E04AE0D9DE8091C00085FFAD
:10504000FCCF8DE08093C6008091C00085FFFCCF2F
:105050008AE08093C60008958F929F92AF92BF928C
:10506000CF92DF92EF92FF920F931F93CF93DF9334
:1050700000D01F92CDB7DEB7FC018381813011F0E3
:1050800080E06BC0818181FFFBCF81899289A389F8
:10509000B489892B8A2B8B2B09F45EC07F0140E0F9
:1050A00050E0BA01CF010E94F65C882349F3F70172
:1050B00085889688A788B08CC18CD28C82E090E0DD
:1050C000A0E0B0E0F60180839183A283B3839E01C8
:1050D0002F5F3F4FB501A401C6010E94B37388231F
:1050E00079F200E010E09801B501A401C6010E9428
:1050F0002273882329F289809A80AB80BC80F601D4
:105100008789803141F4F8EF8F16FFEF9F06A104E5
:10511000B10448F4DCCF88EF88168FEF9806A80614
:105120008FE0B806A0F2F701158A168A178A108E4A
:10513000118A128A138A148A818180688183C70147
:105140000E940575882309F49BCF40E050E0BA0126
:10515000C7010E94F65C01C081E00F900F900F9094
:105160000F90DF91CF911F910F91FF90EF90DF9003
:10517000CF90BF90AF909F908F90089567E374E0B9
:105180000E94908E91E0811190E0892F08952F92D6
:105190003F924F925F926F927F928F929F92AF92C7
:1051A000BF92CF92DF92EF92FF920F931F93CF9314
:1051B000DF93CDB7DEB7CE55D1090FB6F894DEBF79
:1051C0000FBECDBF809193108F93809192108F93DB
:1051D00087E898E09F938F938E01015C1F4F1F9388
:1051E0000F930E9477BE0F900F900F900F900F902B
:1051F0000F90F12CF80101900020E9F73197E01BA6
:10520000F10BFE1684F46801CF0CD11CF7FCDA9484
:10521000F6018081082E000C990B0E944AC9F60104
:105220008083F394E7CF40E050E0BA0180EA90E158
:105230000E94F65C6E961FAE6E97CE0101967C01C1
:1052400080E8A82E88E0B82E6E0191E2C90ED11C2C
:1052500096E7292E98E0392E2BE6422E28E0522E92
:1052600034E0832E912C8091A310823040F46E960E
:105270002FAD6E97211114C08FEF9FEF16C0809154
:10528000A8109091A910A091AA10B091AB108F71A5
:105290009927AA27BB27892B8A2B8B2B41F723C061
:1052A0008091921090919310019690939310809317
:1052B0009210C25ADF4F0FB6F894DEBF0FBECDBFBB
:1052C000DF91CF911F910F91FF90EF90DF90CF90E2
:1052D000BF90AF909F908F907F906F905F904F9016
:1052E0003F902F90089540E050E0B70180EA90E1B0
:1052F0000E949A7418160CF0BACF20E0F7010190C2
:105300000020E9F73197EE19FF092E17A4F43701B1
:10531000620E711C27FD7A94F301808190E06F96F4
:105320002FAF6F970E944AC9F30180836F962FAD0C
:105330006F972F5FE3CF8A858E3709F494CF45E0CE
:1053400050E0B801C7010E949FC9892B09F08BCF9B
:105350001F930F93BF92AF92DF92CF920E9477BEBE
:105360000F900F900F900F900F900F908091940DD1
:105370009091950D04970CF06CC02091920D309196
:10538000930DF0E6F29FC001F39F900D1124B6013A
:105390008E5E934F0E9498C9F1018491E6E7F8E090
:1053A000882349F09091C00095FFFCCF8093C60000
:1053B00031968491F5CFF2018491EBE6F8E08823F1
:1053C00049F09091C00095FFFCCF8093C6003196C4
:1053D0008491F5CF8091920D9091930D20E6289FB6
:1053E000F001299FF00D1124EE5EF34F8191882387
:1053F00039F09091C00095FFFCCF8093C600F6CFA6
:10540000E9E6F8E08491882341F09091C00095FF8F
:10541000FCCF8093C6003196F5CF8091C00085FF08
:10542000FCCFFAE0F093C6008091920D9091930D1D
:105430000196B4010E9421C89093930D8093920D20
:105440008091940D9091950D01969093950D809378
:10545000940D8091940D9091950D049724F48CE710
:1054600098E00E94CF5321E06E962FAF6E97FBCE4F
:10547000CF92DF92EF92FF921F93CF93DF93109220
:1054800068108091A310882321F080EA90E10E94A7
:10549000DF5D109218121092151285E3809314129A
:1054A0000E940D35EB0161E0809114120E94D2330D
:1054B00084E192E10E94F25E60E082E30E94D233D6
:1054C00061E083E30E94D23361E084E30E94D2333F
:1054D00061E085E30E94D23361E085E30E94A3335B
:1054E00085E08093161282E58CBD1DBC1AE08FEF1B
:1054F0000E94F75E1150D9F720E030E0A90160E08A
:1055000084E192E10E941D5F182F80931712813071
:1055100049F00E940D356C1B7D0B613D774060F3B7
:1055200081E054C02AEA31E040E050E068E084E1E4
:1055300092E10E941D5F82FF03C0109318120EC0FB
:1055400014E00E94FC5E809317121150D1F78A3A42
:1055500011F082E03BC082E0809318128091181213
:10556000823021F0C12CD12C760105C0C12CD12C68
:10557000E12C80E4F82E20E030E0A90167E384E12B
:1055800092E10E941D5FA701960169E284E192E128
:105590000E941D5F80931712882349F00E940D35E9
:1055A0006C1B7D0B613D774030F38AE00FC080912A
:1055B0001812823011F520E030E0A9016AE384E19D
:1055C00092E10E941D5F882351F088E080931512BC
:1055D00084E192E10E94F25EE3E6F8E020C00E94DE
:1055E000FC5E807C803C19F483E0809318120E945A
:1055F000FC5E0E94FC5E0E94FC5E84E192E10E94DF
:10560000F25E1092161281E091DA811145C021C03C
:105610009091C00095FFFCCF8093C6003196849195
:105620008111F6CFE6E5F8E08491882341F090916E
:10563000C00095FFFCCF8093C6003196F5CF8091D6
:10564000C00085FFFCCF8AE08093C60085EC94E023
:1056500073C080E06BDA81111FC0EFE4F8E0849141
:10566000882341F09091C00095FFFCCF8093C60045
:105670003196F5CFECE3F8E08491882341F09091E6
:10568000C00095FFFCCF8093C6003196F5CF809186
:10569000C00085FFFCCF26C069E172E180EA90E19D
:1056A0000E948C5D811122C0EFE4F8E08491882390
:1056B00041F09091C00095FFFCCF8093C6003196D9
:1056C000F5CFECE2F8E08491882341F09091C0009E
:1056D00095FFFCCF8093C6003196F5CF8091C00036
:1056E00085FFFCCF8AE08093C60028C081E08093CC
:1056F0006810E3E6F8E08491882341F09091C000BF
:1057000095FFFCCF8093C6003196F5CFE1E2F8E03B
:105710008491882341F09091C00095FFFCCF809345
:10572000C6003196F5CF8091C00085FFFCCF8AE09E
:105730008093C60084EE94E00E940F658BE1E0EA5E
:10574000F0E1A1ECB0E101900D928A95E1F7809132
:105750009E1090919F109093C0108093BF108CE981
:1057600090E19093BC108093BB10DF91CF911F917B
:10577000FF90EF90DF90CF9008958F929F92AF921D
:10578000BF92CF92DF92EF92FF920F931F93CF932E
:10579000DF93CDB7DEB7CC52D1400FB6F894DEBF61
:1057A0000FBECDBF60E080E2FDD7999AA19A2FEF9E
:1057B00037EA81E6215030408040E1F700C0000028
:1057C000E091B20FF091B30F12E01083E091AE0FB1
:1057D000F091AF0F1082E091B00FF091B10F8FEC0C
:1057E00080831092BA0FE091B60FF091B70F86E068
:1057F0008083E091B40FF091B50F80818061808348
:10580000E091B40FF091B50F808188608083E091C2
:10581000B40FF091B50F808180688083E091B40F60
:10582000F091B50F80818F7D80839FEFA1EEB4E072
:105830009150A040B040E1F700C0000087E694E03E
:105840000E940F65EFEFF9EF20E0E150F0402040BB
:10585000E1F700C000008DEF94E00E940F653FEF7C
:1058600089EF90E0315080409040E1F700C00000A7
:105870008DE095E00E940F65AFEFB9EFE0E0A15039
:10588000B040E040E1F700C000001093C00010926B
:10589000C50080E18093C4008091C1008061809345
:1058A000C1008091C10088608093C1008091C100D7
:1058B00080688093C100EDE5F9E08491882341F090
:1058C0009091C00095FFFCCF8093C6003196F5CF34
:1058D0008091C00085FFFCCF8AE08093C60086E7F8
:1058E00098E0FC012491222341F03091C00035FF63
:1058F000FCCF2093C6003196F5CF24B720FF14C00B
:10590000E5E5F9E03491332341F04091C00045FFD3
:10591000FCCF3093C6003196F5CF3091C00035FFF3
:10592000FCCF3AE03093C60021FF14C0E5E4F9E073
:105930003491332341F04091C00045FFFCCF3093B8
:10594000C6003196F5CF3091C00035FFFCCF3AE06C
:105950003093C60022FF14C0E4E3F9E0349133230E
:1059600041F04091C00045FFFCCF3093C600319616
:10597000F5CF3091C00035FFFCCF3AE03093C60040
:1059800023FF14C0E4E2F9E03491332341F0409165
:10599000C00045FFFCCF3093C6003196F5CF309163
:1059A000C00035FFFCCF3AE03093C60025FF14C09D
:1059B000E4E1F9E02491222341F03091C00035FF69
:1059C000FCCF2093C6003196F5CF2091C00025FF73
:1059D000FCCF2AE02093C60014BEECE0F9E024914D
:1059E000222341F03091C00035FFFCCF2093C60048
:1059F0003196F5CFE5E0F9E02491222341F0309192
:105A0000C00035FFFCCF2093C6003196F5CF209122
:105A1000C00025FFFCCF2AE02093C600FC012491A2
:105A2000E6E7F8E0222349F03091C00035FFFCCFD3
:105A30002093C60031962491F5CFE5EFF8E024914C
:105A4000222341F03091C00035FFFCCF2093C600E7
:105A50003196F5CFE0EEF8E02491222341F0309129
:105A6000C00035FFFCCF2093C6003196F5CFE4EDA2
:105A7000F8E02491222341F03091C00035FFFCCFA3
:105A80002093C6003196F5CFEDECF8E02491222367
:105A900041F03091C00035FFFCCF2093C600319615
:105AA000F5CF2091C00025FFFCCF2AE02093C6004F
:105AB000E2ECF8E02491222341F03091C00035FF60
:105AC000FCCF2093C6003196F5CFE6EBF8E02491A9
:105AD000222341F03091C00035FFFCCF2093C60057
