:100000000C94540C0C94850C0C94850C0C94850C5D
:100010000C94850C0C94850C0C94850C0C94850C1C
:100020000C94850C0C94850C0C94850C0C94850C0C
:100030000C94850C0C94850C0C94850C0C94850CFC
:100040000C94850C0C942C590C94850C0C94850CF8
:100050000C94850C0C94850C0C945C6C0C94596A73
:100060000C94850C0C9408260C94850C0C94850C2F
:100070000C94850C0C94850C0C94850C0C94850CBC
:100080000C94850C0C94850C0C94850C0C94850CAC
:100090000C94850C0C94850C0C94850C0C94850C9C
:1000A0000C94850C0C94850C0C94850C0C94850C8C
:1000B0000C94850C0C94850C0C94850C0C94850C7C
:1000C0000C94850C0C94850C0C94850C0C94CF47E7
:1000D0000C94A6470C94850C0C94850C0C94850C00
:1000E0000C94850CB143B443A343A743AD43EB4306
:1000F000B843BC43C243C643CA43D043D443D843A6
:10010000EB43DE43E243E643BF48C448C948D34813
:10011000DD485649E748EF48F74801490B4915497A
:1001200024492E495649384942494C49C86CD56C36
:10013000F16CFE6C186D256D3F6D416D084AD73B23
:100140003BCE016E84BCBFFDC12F3D6C74319ABDA6
:1001500056833DDA3D00C77F11BED9E4BB4C3E91CA
:100160006BAAAABE000000803F05A84CCDB2D44EB9
:10017000B93836A9020C50B9918688083CA6AAAABB
:100180002ABE000000803F004E414E494E4954595E
:10019000494E46CDCCCC3D0AD7233C17B7D1387752
:1001A000CC2B329595E6241FB14F0A000020410068
:1001B00000C84200401C4620BCBE4CCA1B0E5AAEB2
:1001C000C59D7400407A10F35A00A0724E180900C1
:1001D00010A5D4E80000E87648170000E40B5402AC
:1001E0000000CA9A3B000000E1F5050000809698E7
:1001F00000000040420F000000A086010000001037
:100200002700000000E80300000000640000000078
:10021000000A00000000000100000000002C76D859
:1002200088DC674F0823DFC1DFAE59E1B1B796E53F
:10023000E3E453C63AE651997696E8E6C28426EBA3
:10024000898C9B62ED407C6FFCEFBC9C9F40F2BAB6
:10025000A56FA5F490055A2AF75C936B6CF9676D4E
:10026000C11BFCE0E40D47FEF520E6B500D0ED90A3
:100270002E0300943577050080841E080000204E70
:100280000A000000C80C333333330F986E12831109
:1002900041EF8D2114893BE65516CFFEE6DB18D1E0
:1002A000844B381BF77C1D901DA4BBE424203284B2
:1002B000725E228100C9F124ECA1E53D272F005395
:1002C00044207072696E74696E672062797465206B
:1002D000004E6F74205344207072696E74696E67AB
:1002E000002E0044656C6574696F6E206661696CF0
:1002F00065642C2046696C653A200046696C65206F
:1003000064656C657465643A002E006F70656E20DC
:100310006661696C65642C2046696C653A20005002
:100320004944204175746F74756E652066696E6905
:1003300073686564212050757420746865204B7063
:100340002C204B6920616E64204B6420636F6E73B8
:1003500074616E747320696E746F20436F6E66698A
:100360006775726174696F6E2E6800504944204150
:1003700075746F74756E65206661696C65642120A3
:1003800074696D656F75740020403A006F6B20547E
:100390003A006F6B20423A00504944204175746F17
:1003A00074756E65206661696C6564212054656DA5
:1003B000706572617475726520746F6F206869670B
:1003C0006800204B643A2000204B693A2000204B03
:1003D000703A200020436C617369632050494420C7
:1003E000002054753A2000204B753A2000206D61A2
:1003F000783A2000206D696E3A200020643A20008F
:1004000020626961733A2000486F74656E64206FE2
:100410006666736574733A002200556E6B6E6F7773
:100420006E20636F6D6D616E643A202200486F74B8
:10043000656E64206F6666736574733A007A5F6DEB
:10044000696E3A2000795F6D696E3A2000785F6DC1
:1004500061783A2000785F6D696E3A20005A3A0060
:10046000593A0020436F756E7420583A2000453A7F
:10047000005A3A00593A00583A004649524D5741FD
:1004800052455F4E414D453A4D61726C696E205642
:10049000313B20537072696E7465722F6772626CA3
:1004A000206D617368757020666F722067656E36A7
:1004B000204649524D574152455F55524C3A687457
:1004C00074703A2F2F7777772E6D656E64656C2D7B
:1004D00070617274732E636F6D2050524F544F438E
:1004E0004F4C5F56455253494F4E3A312E302E39BC
:1004F000204D414348494E455F545950453A334495
:10050000205072696E7465722045585452554445A6
:10051000525F434F554E543A320A002042403A004F
:1005200020403A00202F0020423A00202F006F6B1D
:1005300020543A002569206D696E2C2025692073AE
:10054000656300456E642066696C65206C69737430
:1005500000426567696E2066696C65206C6973741A
:10056000002020506C616E6E657242756666657221
:1005700042797465733A20002046726565204D65A6
:100580006D6F72793A20004F63742031352032301C
:10059000323000436F6D70696C65643A20005465B9
:1005A0006E6C6F6700207C20417574686F723A2012
:1005B000004F637420313520323032302031363AEA
:1005C00030343A353200204C6173742055706461C8
:1005D0007465643A2000312E302E30004D61726C0B
:1005E000696E200020536F667477617265205265D2
:1005F00073657400205761746368646F6720526587
:10060000736574002042726F776E206F757420528C
:1006100065736574002045787465726E616C205254
:100620006573657400506F776572557000737461FF
:100630007274005072696E7465722073746F70709A
:1006400065642064756520746F206572726F7273C3
:100650002E2046697820746865206572726F72205A
:10066000616E6420757365204D39393920746F20AF
:10067000726573746172742E202854656D70657292
:1006800061747572652069732072657365742E20BC
:100690005365742069742061667465722072657395
:1006A00074617274696E6729004E6F204C696E65C3
:1006B000204E756D62657220776974682063686585
:1006C000636B73756D2C204C617374204C696E657F
:1006D0003A20004E6F20436865636B73756D207719
:1006E000697468206C696E65206E756D6265722C28
:1006F000204C617374204C696E653A200063686514
:10070000636B73756D206D69736D617463682C2004
:100710004C617374204C696E653A20004C696E65BB
:10072000204E756D626572206973206E6F74204C67
:10073000617374204C696E65204E756D6265722B15
:10074000312C204C617374204C696E653A20004D49
:1007500031313000256920686F757273202569205A
:100760006D696E7574657300446F6E652070726993
:100770006E74696E672066696C65005072696E748C
:1007800065722073746F7070656420647565207481
:100790006F206572726F72732E20466978207468BC
:1007A00065206572726F7220616E642075736520BA
:1007B0004D39393920746F20726573746172742EEB
:1007C000202854656D706572617475726520697357
:1007D0002072657365742E205365742069742061DE
:1007E000667465722072657374617274696E6729CC
:1007F000004E6F204C696E65204E756D62657220EB
:100800007769746820636865636B73756D2C204C21
:10081000617374204C696E653A20004E6F20436806
:1008200065636B73756D2077697468206C696E659C
:10083000206E756D6265722C204C617374204C695A
:100840006E653A2000636865636B73756D206D6932
:10085000736D617463682C204C617374204C696EF5
:10086000653A20004C696E65204E756D6265722098
:100870006973206E6F74204C617374204C696E65CF
:10088000204E756D6265722B312C204C6173742083
:100890004C696E653A20004572726F723A004D31B4
:1008A0003130006572726F722077726974696E6799
:1008B00020746F2066696C6500205A3A0020593A0E
:1008C0000020583A00656E6473746F707320686915
:1008D000743A20006563686F3A00446F6E65207358
:1008E0006176696E672066696C652E006F6B004DDE
:1008F00032390053657474696E67732053746F7274
:100900006564005A323A00457874656E64657220F9
:100910004F66667365743A0059323A0045787465DB
:100920006E646572204F66667365743A0058323A99
:10093000005365636F6E64657279204D6178205055
:100940006F733A002044002049002020204D3330AE
:10095000312050005049442073657474696E677388
:100960003A00205A0020590020204D3230362058BD
:1009700000486F6D65206F666673657420286D6D25
:10098000293A00204500205A00205800204200202B
:10099000540020204D323035205300416476616E82
:1009A000636564207661726961626C65733A205395
:1009B0003D4D696E20666565647261746520286DC1
:1009C0006D2F73292C20543D4D696E207472617611
:1009D000656C20666565647261746520286D6D2F95
:1009E00073292C20423D6D696E696D756D207365AC
:1009F000676D656E742074696D6520286D73292C90
:100A000020583D6D6178696D756D205859206A6573
:100A1000726B20286D6D2F73292C20205A3D6D613B
:100A200078696D756D205A206A65726B20286D6D2E
:100A30002F73292C2020453D6D6178696D756D20DF
:100A400045206A65726B20286D6D2F732900205434
:100A50000020204D323034205300416363656C65C3
:100A6000726174696F6E3A20533D616363656C65B2
:100A7000726174696F6E2C20543D7265747261638B
:100A80007420616363656C65726174696F6E0020C8
:100A90004500205A0020590020204D323031205886
:100AA000004D6178696D756D20416363656C657299
:100AB0006174696F6E20286D6D2F7332293A0020A2
:100AC0004500205A0020590020204D323033205854
:100AD000004D6178696D756D20666565647261743D
:100AE000657320286D6D2F73293A00204500205A28
:100AF0000020590020204D39322058005374657071
:100B0000732070657220756E69743A0053746F7249
:100B100065642073657474696E677320726574729E
:100B200069657665640048617264636F646564201A
:100B300044656661756C742053657474696E67737F
:100B4000204C6F61646564006563686F3A005072A1
:100B5000696E7465722068616C7465642E206B69BF
:100B60006C6C28292063616C6C656421005072698B
:100B70006E7465722073746F70706564206475653F
:100B800020746F206572726F72732E204669782010
:100B9000746865206572726F7220616E642075736F
:100BA00065204D39393920746F2072657374617214
:100BB000742E202854656D7065726174757265209D
:100BC00069732072657365742E205365742069748F
:100BD0002061667465722072657374617274696EE7
:100BE000672900000048C20000000000000000006B
:100BF00000A04000002041000000405344206361F9
:100C00007264206F6B006F70656E526F6F74206638
:100C100061696C656400766F6C756D652E696E69CF
:100C200074206661696C6564004572726F723A0087
:100C3000534420696E6974206661696C006563685D
:100C40006F3A002200656E717565696E672022003B
:100C50002200656E717565696E67202200656368A4
:100C60006F3A004D3234004D3233202573006175E8
:100C7000746F25692E670000002100240027002AD8
:100C8000002D003000330001010000040107010ABB
:100C90000100002200250028002B002E0031003426
:100CA0000002010000050108010B010000200023E3
:100CB00000260029002C002F003200000100000354
:100CC00001060109010505050507050808080802D0
:100CD0000202020A0A0808040404040101010101D5
:100CE0000101010303030303030303040707070CC4
:100CF0000C0C0C0C0C0C0C0202020206060606067A
:100D00000606060B0B0B0B0B0B0B0B010210202026
:100D1000080810204010204080020102010804024F
:100D200001010204081020408080402010080402C5
:100D3000018004020180402010080402010804021E
:100D40000101020408102040800102040810204024
:100D50008000000A0B02090C0D0E080703040100B5
:100D60000000000000000000000000000000000083
:100D70000000000000000000000000000012111040
:100D80000000000000000000000000000000000063
:100D9000000000000000004E65772056616C75650C
:100DA00020457272200025730057726974696E675E
:100DB00020746F2066696C653A20002E006F7065A4
:100DC0006E206661696C65642C2046696C653A200A
:100DD000002E006F70656E206661696C65642C2062
:100DE00046696C653A200046696C652073656C65E0
:100DF00063746564002053697A653A200046696C23
:100E000065206F70656E65643A20002E006F706516
:100E10006E206661696C65642C2046696C653A20B9
:100E20000024F4D43050C38E20C2A24017828B70AD
:100E300011127A910D816CD90AA861E108C7586630
:100E400007615143061E4B5D05C145A7041A4111B8
:100E500004093D9803713931034036DB0265339153
:100E600002D4305402802E1D02632CEE01752AC577
:100E700001B028A001102781018F2564012B244B8C
:100E800001E0223401AC211F018D200D01801FFCE7
:100E900000841EED00971DDF00B81CD200E61BC6C3
:100EA00000201BBC00641AB200B219A8000A19A0E5
:100EB000006A189900D117910040178B00B516846D
:100EC0000031167E00B31579003A157300C7146F10
:100ED0000058146A00EE1366008813630025135E41
:100EE00000C7125B006C12570015125400C111515B
:100EF0000070114F0021114B00D61049008D104792
:100F0000004610440002104200C00F4000800F3E17
:100F100000420F3C00060F3B00CB0E3800930E370B
:100F2000005C0E3500270E3400F30D3200C10D3188
:100F300000900D3000600D2E00320D2D00050D2C9F
:100F400000D90C2B00AE0C2900850C29005C0C2765
:100F500000350C27000E0C2600E80B2400C40B24DF
:100F600000A00B23007D0B23005A0B2100390B211D
:100F700000180B2000F80A1F00D90A1E00BB0A1E29
:100F8000009D0A1D00800A1D00630A1C00470A1B01
:100F9000002C0A1B00110A1A00F7091A00DD0919B2
:100FA00000C4091900AB091900920917007B091840
:100FB00000630917004C09160036091600200916AF
:100FC000000A091500F5081500E0081400CC081403
:100FD00000B8081400A4081400900813007D08123B
:100FE000006B08130058081200460812003408115C
:100FF00000230811001208110001081100F0071069
:1010000000E0071000D0071000C0071000B0070F65
:1010100000A107100091070E0083070F0074070F4F
:101020000065070E0057070E0049070E003B070D2D
:10103000002E070E0020070D0013070D0006070DF8
:1010400000F9060C00ED060D00E0060C00D4060CBD
:1010500000C8060C00BC060C00B0060C00A4060B71
:101060000099060C008D060B0082060B0077060B1C
:10107000006C060B0061060A0057060B004C060ABE
:101080000042060A0038060A002E060A0024060A54
:10109000001A060A001006090007060A00FD0509E5
:1010A00000F4050900EB050900E2050900D905096E
:1010B00000D0050900C7050900BE050900B50508EF
:1010C00000AD050800A50509009C05080094050869
:1010D000008C050800840508007C050800740508DC
:1010E000006C050700650508005D0507005605084A
:1010F000004E0507004705070040050800380507B2
:1011000000310507002A050700230507001C050616
:1011100000160507000F0507000805060002050771
:1011200000FB040600F5040700EE040600E80406D0
:1011300000E2040700DB040600D5040600CF040625
:1011400000C9040600C3040600BD040600B7040677
:1011500000B1040500AC040600A6040600A00405C6
:10116000009B04060095040500900406008A04050F
:101170000085040500800406007A04050075040556
:1011800000700405006B0405006604050061040599
:10119000005C04050057040500520405004D0405D9
:1011A0000048040500430405003E0404003A040519
:1011B0000035040500300404002C04050027040455
:1011C00000230405001E0404001A0404001604058C
:1011D00000110404000D04040009040500040404C3
:1011E0000000040400FC030400F8030400F40304FA
:1011F00000F0030400EC030400E8030400E403042B
:1012000000E0030400DC030400D8030400D403045A
:1012100000D0030400CC030400C8030300C503038B
:101220000024F404D9201BC40C5C0E9804C4095F8C
:101230000265077101F405F900FB04B30048048757
:1012400000C10369005803550003034500BE023A7C
:10125000008402310053022A0029022500040220E2
:1012600000E4011C00C8011900AF01170098011427
:101270000084011300710110006101100051010E82
:101280000043010D0036010B002B010B0020010B68
:1012900000150109000C01090003010800FB00080A
:1012A00000F3000800EB000700E4000600DE000683
:1012B00000D8000600D2000600CC000500C70005DB
:1012C00000C2000500BD000400B9000400B5000420
:1012D00000B1000400AD000400A9000400A5000353
:1012E00000A20003009F0004009B0003009800037D
:1012F000009500020093000300900003008D00029F
:10130000008B0003008800020086000200840003B6
:1013100000810002007F0002007D0002007B0002CD
:1013200000790002007700010076000200740002DC
:101330000072000100710002006F0002006D0001E8
:10134000006C0002006A00010069000200670001F1
:1013500000660001006500010064000200620001F7
:101360000061000100600001005F0002005D0001FB
:10137000005C0001005B0001005A000100590001FF
:1013800000580001005700010056000100550001FF
:1013900000540001005300000053000100520001FE
:1013A0000051000100500001004F0001004E0000FC
:1013B000004E0001004D0001004C0001004B0000F8
:1013C000004B0001004A00010049000100480000F4
:1013D00000480001004700010046000000460001EF
:1013E00000450000004500010044000100430000EA
:1013F00000430001004200000042000100410000E3
:101400000041000100400001003F0000003F0001DA
:10141000003E0000003E0001003D0000003D0001D4
:10142000003C0000003C0000003C0001003B0000CC
:10143000003B0001003A0000003A000100390000C2
:1014400000390001003800000038000000380001B9
:1014500000370000003700010036000000360000B1
:1014600000360001003500000035000000350001A5
:10147000003400000034000000340001003300009C
:101480000033000000330001003200000032000091
:101490000032000100310000003100000031000185
:1014A000003000000030000000300001002F00007C
:1014B000002F0000002F0000002F0001002E000070
:1014C000002E0000002E0001002D0000002D000065
:1014D000002D0000002D0001002C0000002C000059
:1014E000002C0000002C0001002B0000002B00004D
:1014F000002B0000002B0001002A0000002A000041
:10150000002A0000002A0001002900000029000034
:101510000029000000290000002900010028000027
:10152000002800000028000000280000002800011A
:10153000002700000027000000270000002700000F
:101540000027000100260000002600000026000001
:1015500000260000002600010025000000250000F4
:1015600000250000002500000025000000250001E6
:1015700000240000002400000024000000240000DB
:1015800000240001002300000023000000230000CD
:1015900000230000002300000023000000230001BE
:1015A00000220000002200000022000000220000B3
:1015B00000220000002200010021000000210000A4
:1015C0000021000000210000002100000021000097
:1015D0000021000100200000002000000020000089
:1015E000002000000020000000200000002000007B
:1015F00000200001001F0000001F0000001F00006D
:10160000001F0000001F0000001F0000001F00015D
:10161000001E0000001E0000001E0000001E000052
:101620000020423A0020453A00543A0020573A0040
:1016300020453A00543A00202D20496E76616C69AD
:1016400064206578747275646572206E756D62656C
:101650007220210070012C0190012701B0012201AC
:10166000C0011D01F00118011002130130020E012A
:101670006002090190020401C002FF000003FA00A9
:101680004003F5008003F000D003EB002004E600E7
:101690007004E100E004DC004005D700C005D20082
:1016A0004006CD00D006C8008007C3003008BE0049
:1016B000F008B900C009B400B00AAF00B00BAA002E
:1016C000D00CA500000EA000500F9B00C01096008B
:1016D0005012910000148C00C0158700B0178200D2
:1016E000B0197D00D01B7800001E730040206E00F2
:1016F00090226900F024640040275F0090295A007E
:10170000E02B5500102E500020304B0010324600C8
:10171000E033410090353C0010373700703832001C
:10172000A0392D00B03A2800A03B2300603C1E00E9
:10173000103D1900903D1400103E0F00703E0A004D
:10174000C03E0500003F00003A2045787472756481
:101750006572207377697463686564206F66662EAE
:10176000204D415854454D50207472696767657229
:1017700065642021003A2045787472756465722092
:101780007377697463686564206F66662E204D49BF
:101790004E54454D502074726967676572656420C8
:1017A000210054656D70657261747572652068659D
:1017B0006174656420626564207377697463686529
:1017C00064206F66662E204D415854454D5020745C
:1017D00072696767657265642021210054656D70C8
:1017E00065726174757265206865617465642062F4
:1017F0006564207377697463686564206F66662E1C
:10180000204D494E54454D5020747269676765728A
:101810006564202121004572726F723A0020746F56
:101820006F206C6F6E6720657874727573696F6E68
:101830002070726576656E7465640020636F6C64F9
:1018400020657874727573696F6E20707265766545
:101850006E746564006563686F3A007C3C3E5E2B85
:101860003D3F2F5B5D3B2C2A225C0000401744006B
:10187000001B4400801844000048C2000000000023
:10188000000000FFFFFF00C0234400001B44008055
:1018900018446563686F3A00526573656E643A2058
:1018A000006F6B00D8B6B7B611241FBECFEFD1E2E0
:1018B000DEBFCDBF00E00CBF1BE0A0E0B2E0E2E184
:1018C000F1E901E00BBF02C007900D92AC38B107FF
:1018D000D9F729E1ACE8BBE001C01D92A43BB207F7
:1018E000E1F71CE0C3E5DCE000E006C02197010958
:1018F000802FFE010E94F2C6C235D10780E00807A2
:10190000A9F70E94DDA70C9478C80C9400002F92D0
:101910003F924F925F926F927F928F929F92AF927F
:10192000BF92CF92DF92EF92FF920F931F93CF93CC
:10193000DF93CDB7DEB7C557D1090FB6F894DEBF38
:101940000FBECDBF2DB73EB7E2963FAF2EAFE297A9
:101950008091840C882341F00E940354109212114C
:10196000109211111092840C87E40E946795782ED2
:10197000882309F48CC00E948D950E947FC4643036
:10198000710509F474C0E4F46230710509F45CC0B7
:101990000CF062C077FF02C00C940A22A0E8AA2EC5
:1019A000AFE4BA2EA3ECCA2EA7ECDA2E860175019D
:1019B000A6019501C601B5010E94A2680C940A22F5
:1019C0006A35710509F45AC02CF56C31710511F0B6
:1019D0000C940A226FE672E183E89AE30E94839AEC
:1019E0006FE672E183E89AE30E94839A6FE672E100
:1019F00083E89AE30E94839A6FE672E183E89AE3B0
:101A00000E94839A60E070E080E090E00E94EF9A8C
:101A10000C940A226B357105A9F16C35710511F032
:101A20000C940A22F0E8AF2EFFE4BF2EF3ECCF2E89
:101A3000F7ECDF2E86017501A6019501C601B501FF
:101A40000E9405990C940A2280916D0C811104C0AA
:101A50000E9495A681E007C080916D0C811107C09E
:101A60000E9495A680E00E9482340C94692560E073
:101A700070E0CB010E94839A0C940A221092A9195B
:101A80000C940A2281E08093A9190C940A228DE417
:101A90000E946795882311F40C94BC210E948D95B7
:101AA0000E947FC4693C710511F40C945C180CF021
:101AB000E0C06035710511F40C948B150CF071C009
:101AC0006731710509F401C40CF041C06231710540
:101AD00011F40C949D1524F577FF02C00C940A2292
:101AE000623071050CF4D1C16131710511F00C94B3
:101AF0000A225F9847988A989FB7F89480910801C6
:101B00008E7F809308019FBF9FB7F8948091080152
:101B10008B7F809308019FBF8D9812980C940A22A6
:101B20006431710509F47AC30CF4B5C165317105EE
:101B300009F4C7C36631710511F00C940A221092A2
:101B4000121110921111109213110C940A226C317F
:101B5000710509F451C484F46931710509F4E4C3D1
:101B60000CF4CCC36A31710509F4E4C36B3171051F
:101B700009F4EEC30C940A226F31710509F452C6C0
:101B800034F46E31710509F46CC40C940A2260328D
:101B9000710509F4D8C56A32710509F4A2C60C941E
:101BA0000A226B36710509F4B0C754F56535710525
:101BB00009F4FDC784F46235710509F4B5C70CF466
:101BC000AEC76335710509F4B3C76435710509F40F
:101BD000B4C70C940A226836710509F49DC634F422
:101BE0006C35710509F4FAC70C940A22693671053F
:101BF00009F4B2C66A36710509F457C70C940A2273
:101C00006737710509F43DC1ECF46237710511F4D1
:101C10000C94CC165CF46D36710511F00C940A220C
:101C20008FEF9FEF0E943E620C940A22633771058A
:101C300011F40C94AB166537710511F40C94BA16B7
:101C40000C940A226937710511F40C94AF1714F43F
:101C50000C94AA176C38710509F46DC66E3B7105BA
:101C600011F00C940A228FEF9FEF0E9476660C947D
:101C70000A22673E33E0730711F40C94A7210CF09D
:101C800076C06D3251E0750711F40C941B1ADCF527
:101C90006E3C710511F40C941619C4F46C3C71057A
:101CA00011F40C94941814F00C94B6186B3C710554
:101CB00011F00C940A221AEEE12E18E1F12E00ED3B
:101CC00012E084E0D82ED00E0C9485186C3D71057E
:101CD00011F40C94FC193CF46A3D710511F40C9458
:101CE00034190C940A226D3D710511F40C940C1AF0
:101CF000623E710511F00C940A2281E090E00E948E
:101D000035310C940A22653F91E0790711F40C9467
:101D1000671EC4F46F32B1E07B0711F40C94F71A1C
:101D200014F40C94E31A6039F1E07F0711F40C9479
:101D3000641E643F714011F00C940A220E94432AF1
:101D40000C940A22673F31E0730711F40C946F1E64
:101D500014F40C946A1E6D3552E0750711F40C945E
:101D6000711E603A734009F425C50C940A22683F3D
:101D700093E0790711F40C9477200CF04AC0633F8C
:101D8000B3E07B0711F40C948E1F6CF56A3EF3E010
:101D90007F0711F40C94871F3CF4693E734011F4E3
:101DA0000C94621F0C940A226B3E43E0740711F4FA
:101DB0000C948B1F6C3E734011F00C940A22812C02
:101DC000912C54017501640100E010E020E030E046
:101DD00040E050E060E070E0CB010E94572E10928E
:101DE00039130C940A22653F83E0780711F40C94B0
:101DF000042014F40C94C91F663FA3E07A0711F481
:101E00000C943F20673F734011F40C945B200C94BA
:101E10000A226730E4E07E0711F40C946F21DCF4B1
:101E20006B3F23E0720711F40C94AA203CF4693F45
:101E3000734011F40C948F200C940A226D3F53E0F0
:101E4000750711F40C94CE206E3F734011F40C947E
:101E500044210C940A22693094E0790711F40C941F
:101E6000772114F40C9474216A30B4E07B0711F4E8
:101E70000C947A216031744011F40C947F210C94FD
:101E80000A22E3EEF2E00C94BA1781E090E00E949F
:101E900035310C940A2283E50E946795882341F02E
:101EA0000E948D950E947FC470939F0B60939E0B40
:101EB00088E691E1909367118093661181E090E04C
:101EC000909307138093061310920913109208132E
:101ED00040E050E0BA018CE691E10E94CB74809121
:101EE0006611909167112BE1FC013496DE01159685
:101EF00001900D922A95E1F7DC0112968D919C914B
:101F000013979C838B8382EC92E09A838983BE0132
:101F10006F5F7F4F88E695E00E947C52CE0101966C
:101F20000E948872D0900813AD2CB0900913809154
:101F30006F11882309F446C08250823030F48FE25A
:101F400080931411109215113DC060917811709119
:101F5000791180917A1190917B1140E00E94DA72A0
:101F6000882381F120917C11B0E22B9F90011124F4
:101F7000C9018F5B914F892B29F180E090E0E0E06F
:101F80005EE2DC01A20FB31FAF5BB14F4C91403258
:101F900089F08830910539F4AE2FB0E0A25FBE4ED3
:101FA00016965C93EF5FAE2FB0E0A25FBE4E169622
:101FB0004C93EF5F01968B30910519F7F0E0E25FEB
:101FC000FE4E168280919E0B90919F0B892B59F4A7
:101FD0008CEF92E00E945F2687E093E00E945F26EC
:101FE00001E010E007C083E193E00E945F268EE1EC
:101FF00093E0F4CF8AE293E00E945D264AE0B801C4
:10200000CE0101960E941B4789819A810E945D261C
:10201000CE0101960E94BB468EEC95E00E945D26A3
:102020000E94512689E393E00E945D264AE0B801B0
:10203000CE0101960E941B4789819A810E945D26EC
:10204000CE0101960E94BB468EEC95E00E945D2673
:102050000E9451260F5F1F4F0730110559F6E12CE2
:10206000F12C00E010E078E6672E71E1772EDA942B
:102070002296DFAE2297E2EC8E2EE2E09E2EEA144C
:10208000FB0409F492C07092671160926611E2E05D
:10209000F0E0F0930713E093061322968FAD22979A
:1020A0008E1990E0909309138093081340E050E05C
:1020B000BA018CE691E10E94CB74809166119091F7
:1020C0006711FC013496DE0115962BE101900D920B
:1020D0002A95E1F7DC0112968D919C9113979C83D0
:1020E0008B839A828982BE016F5F7F4F88E695E07D
:1020F0000E947C52CE0101960E94887264E171E1D7
:10210000CE01CB960E944E4780913C11811145C073
:1021100021968EAD9FAD2197892B09F43EC0BE015B
:10212000655C7F4FCE0101960E9446472DB63EB6B4
:102130004D815E812A0121E0421A51088DB79EB778
:10214000841B950B0FB6F8949EBF0FBE8DBFADB725
:10215000BEB711966D014115510541F0C114D1046E
:1021600029F0B601CE0101960E944142F601CF014D
:102170008C199D098415950514F40C940D22DD2409
:10218000D3940FB6F8943EBE0FBE2DBECE0101967D
:102190000E94BB46D1100C941522CE01CB960E9412
:1021A000BB465FEFE51AF50A6ACF88E493E00E9428
:1021B0005D2660919E0B70919F0B4AE0CE010196C7
:1021C0000E941B4789819A810E945D26CE0101965B
:1021D0000E94BB460E94512680919E0B90919F0BBE
:1021E000019646E0489F9001499F300D1124201729
:1021F000310754F081E693E00E945F268EE693E07B
:102200000E945F260C940A228CE793E00E945F26CE
:1022100089E893E00E945F260C940A22E1E5F5E04C
:102220008491882341F09091C00095FFFCCF80936A
:10223000C6003196F5CF8091C00085FFFCCF8AE0C3
:102240008093C600109207131092061340E050E0EE
:10225000BA018BE491E10E94CB748BE1EBE4F1E1F4
:10226000DE01159601900D928A95E1F78091491152
:1022700090914A119C838B8382EC92E09A838983AC
:10228000BE016F5F7F4F88E695E00E947C52CE01D1
:1022900001960E948872E3E4F5E08491882341F07E
:1022A0009091C00095FFFCCF8093C6003196F5CF8A
:1022B0008091C00085FFFCCF8AE08093C6000C941B
:1022C0000A220E94C2400C940A220091720C1091C2
:1022D000730C0C5F1F4F6AE270E0C8010E9426C8B1
:1022E000009719F0FC013197108220E030E0A9013D
:1022F00061E0C8010E9428550C940A2280911311B4
:10230000882331F081E090E09093121180931111B5
:102310000E944D6A6093E10B7093E20B8093E30B94
:102320009093E40B0C940A2281E090E00E943531F6
:102330000C940A2280911311882311F40C940A2220
:1023400083E50E94679581110C94B2220C940A22B5
:1023500080911311882309F439C0EFEBF2E08491E6
:10236000882341F09091C00095FFFCCF8093C60078
:102370003196F5CF60913F117091401180914111DC
:10238000909142114AE00E94233DEDEBF2E08491EE
:10239000882341F09091C00095FFFCCF8093C60048
:1023A0003196F5CF609143117091441180914511A0
:1023B000909146114AE00E94233D8091C00085FF24
:1023C000FCCF8AE08093C6000C940A22E1EDF2E093
:1023D0008491882341F09091C00095FFFCCF8093B9
:1023E000C6003196F5CF8091C00085FFFCCF8AE012
:1023F0008093C6000C940A228091720C9091730C09
:102400006AE270E004960E9426C88C01892BE1F0F4
:102410002091870C3091880C40E6429FC001439F79
:10242000900D11246EE470E08354934F0E9426C8EF
:1024300060E270E00E9426C801969093730C80932E
:10244000720CF801319710828091720C9091730C8C
:1024500020E030E0A90160E004960E9428550C9429
:102460000A2280911311882311F40C940A220E94ED
:1024700003548091720C9091730C6AE270E00496A0
:102480000E9426C88C01892BE1F02091870C3091A5
:10249000880C40E6429FC001439F900D11246EE4DA
:1024A00070E08354934F0E9426C860E270E00E945F
:1024B00026C801969093730C8093720CF8013197A3
:1024C00010820091720C1091730C480184E0880E08
:1024D000911C80911311882311F40C940A2286EE2A
:1024E00092E10E94E18E1092121110921111DE0100
:1024F00011967D01CD010E94907287E491E1909345
:10250000671180936611F80184818F3209F08BC0C6
:102510006FE270E0C4010E9426C88C010F5F1F4F5C
:102520006AE0662E0115110509F483C06FE270E0C0
:10253000C8010E9426C86C01009709F47BC00817E7
:10254000190708F077C05C01A01AB10AA501B8010B
:10255000CE0180960E944FC8E0E2F0E0EC0FFD1F34
:10256000EA0DFB1D10828E01005E1F4FF801819164
:10257000882339F09091C00095FFFCCF8093C6006E
:10258000F6CF8091C00085FFFCCF6092C6006091BD
:102590006611709167116115710511F06C5F7F4FC5
:1025A00021E0AE01405E5F4FCE0105960E94819210
:1025B000811131C0EBE0F3E08491882371F09091B8
:1025C000C00095FFFCCF8093C6003196F5CF909167
:1025D000C00095FFFCCF8093C600D8018D918D017E
:1025E0008111F5CFE9E0F3E08491882341F09091E7
:1025F000C00095FFFCCF8093C6003196F5CF809147
:10260000C00085FFFCCF8AE08093C600C7010E940E
:1026100088720C940A22F0926711E092661186018A
:102620000F5F1F4F7FCF88E691E1909367118093F2
:1026300066118401609166117091671161157105D1
:1026400011F06C5F7F4F18A21BA222E0A801CE01FF
:1026500080960E9481928823F1F0CE0180960E949C
:10266000573E8823C1F06CA57DA58EA59FA541E0AE
:102670000E94DA72882379F0E8A9B0E2EB9FF001BA
:102680001124EF5BF14F309731F085EE80831BA270
:102690000E949A72782ECE0180960E94EF8F77204A
:1026A00009F1EBEFF2E08491882341F09091C000B2
:1026B00095FFFCCF8093C6003196F5CFF80181914C
:1026C000882339F09091C00095FFFCCF8093C6001D
:1026D000F6CF10923F1110924011109241111092BA
:1026E00042112CC0E3EEF2E08491882341F09091F6
:1026F000C00095FFFCCF8093C6003196F5CFF8015E
:102700008191882339F09091C00095FFFCCF809390
:10271000C600F6CFE1EEF2E08491882341F090917B
:10272000C00095FFFCCF8093C6003196F5CF809115
:10273000C00085FFFCCF8AE08093C600C7010E94DD
:1027400088720C940A2280911111909112110197B4
:1027500021F40E94A6A30E9403540091720C1091D0
:10276000730C0C5F1F4F6AE270E0C8010E9426C81C
:10277000009719F0FC013197108220E030E0A901A8
:1027800061E0C8010E94285580911311882331F01F
:1027900081E090E090931211809311110E944D6A94
:1027A0006093E10B7093E20B8093E30B9093E40B47
:1027B0000C940A228091720C9091730C6AE270E082
:1027C00005960E9426C88C01892BE1F02091870C88
:1027D0003091880C40E6429FC001439F900D112428
:1027E0006EE470E08354934F0E9426C860E270E06C
:1027F0000E9426C801969093730C8093720CF80186
:10280000319710828091720C9091730C21E020938B
:10281000101120E030E0A90160E005960E942855E3
:102820000C940A220E944D6A6093E50B7093E60BAC
:102830008093E70B9093E80B0091E10B1091E20B72
:102840002091E30B3091E40B601B710B820B930B17
:1028500028EE33E040E050E00E94E4C2CA01B90132
:102860002CE330E040E050E00E94E4C27F936F939D
:102870003F932F9384E395E09F938F938E010F5F97
:102880001F4F1F930F930E9419BDEDE5FCE084914B
:10289000EDB7FEB738960FB6F894FEBF0FBEEDBF8A
:1028A000EDE5FCE0882349F09091C00095FFFCCF56
:1028B0008093C60031968491F5CFF80181918823E9
:1028C00039F09091C00095FFFCCF8093C600F6CF01
:1028D0008091C00085FFFCCF8AE08093C6000C94F5
:1028E0000A2283E50E946795882311F40C940A223A
:1028F0000E948D950E947FC48B0180E50E946795A0
:10290000882311F40C940A220F3F110509F010F4EA
:102910000C94C3220C940A2288E690E00E94C832EC
:1029200081110C940A226FEF7FEF8FEF9FEF0E94CF
:102930003C2F0C940A2283E50E946795882311F4AA
:102940000C940A220E948D950E947FC47093860C7D
:102950006093850C0C940A2289E690E00E94C832AC
:1029600081110C940A22EEE2F5E08491882341F073
:102970009091C00095FFFCCF8093C6003196F5CFB3
:10298000E091B30C24E0E29FF0011124E256F74EEF
:10299000608171818281938141E00E94AA3DEBE2D6
:1029A000F5E08491882341F09091C00095FFFCCF21
:1029B0008093C6003196F5CFE091B30CF0E0EE0FB6
:1029C000FF1FE65BFC4E60817181072E000C880BB7
:1029D000990B0E944EBD41E00E94AA3DE7E2F5E05E
:1029E0008491882341F09091C00095FFFCCF8093A3
:1029F000C6003196F5CF60918E1870918F18809136
:102A000090189091911841E00E94AA3DE4E2F5E00F
:102A10008491882341F09091C00095FFFCCF809372
:102A2000C6003196F5CF6091850C7091860C072E0B
:102A3000000C880B990B0E944EBD41E00E94AA3DFC
:102A4000E0E2F5E08491882341F09091C00095FF89
:102A5000FCCF8093C6003196F5CFE091B30CF0E047
:102A6000E855F74E608170E080E090E00E94983D6C
:102A7000EBE1F5E08491882341F09091C00095FF4F
:102A8000FCCF8093C6003196F5CF6091A71870E017
:102A900080E090E00E94983D8091C00085FFFCCFCF
:102AA0008AE08093C6000C94692583E50E946795AF
:102AB000882319F10E948D9520E030E0A9010E9441
:102AC00048BD87FD0FC00E948D9520E030E04FE7A4
:102AD00053E40E946BC5181644F00E948D950E9425
:102AE0007FC405C060E070E002C06FEF70E07093DB
:102AF000601960935F190C940A228FEF90E0909315
:102B0000601980935F190C940A2210926019109238
:102B10005F190C940A22999AA19A0C940A2280E0D7
:102B20000E9443950C940A221092AD190C940A222B
:102B300081E08093AD190C940A2283E50E94679589
:102B40008823A1F00E948D9520E030E04AE754E40C
:102B50000E94A5B70E9485C4609318027093190261
:102B600080931A0290931B020C940A2288E50E941B
:102B7000679581110C94C62289E50E9467958111A1
:102B80000C94C6228AE50E94679581110C94C62296
:102B900085E40E94679581110C94C6220E94A6A329
:102BA0008D9A129A81E00E9465A30C940A2283E513
:102BB0000E9467950E948D9520E030E04AE754E43A
:102BC0000E94A5B70E9485C46093A50C7093A60CC3
:102BD0008093A70C9093A80C0C940A2282E50E9483
:102BE0006795882329F00E948D954B015C0106C0F2
:102BF000812C912C40E8A42E4FE3B42E40ED52E0FE
:102C000026965FAF4EAF26970EE413E18AEE98E169
:102C100024969FAF8EAF249731E6232E33E1332ED7
:102C200022961FAE22972696AEADBFAD26978D9108
:102C30002696BFAFAEAF26970E946795882309F40A
:102C40006DC02296BFAD2297B33009F05CC00E94E0
:102C50008D95A50194010E940EC42B013C0120E03A
:102C600030E040EA51E40E9448BD87FF45C0A3011F
:102C70009201F80160817181828193810E940EC46A
:102C80006B017C019B01AC016091D6187091D71843
:102C90008091D8189091D9180E94A5B76093D61842
:102CA0007093D7188093D8189093D918A7019601DC
:102CB0002496AEADBFAD24976D917D918D919C9181
:102CC0000E94A5B72496EEADFFAD24976083718373
:102CD00082839383D1016D917D918D919C910E940E
:102CE0004CBDA70196010E94A5B70E9485C4F101C1
:102CF0006083718382839383D8014D925D926D923C
:102D00007C9213970BC00E948D95A50194010E949F
:102D10000EC4F80160837183828393832296FFAD92
:102D20002297FF5F2296FFAF22970C5F1F4F2496DA
:102D30002EAD3FAD24972C5F3F4F24963FAF2EAF73
:102D4000249734E0230E311CF43009F06CCF0E943C
:102D5000432A0C940A22EAE7F4E08491882311F4D0
:102D60000C940A229091C00095FFFCCF8093C6007E
:102D70003196F3CF8091720C9091730C6AE270E0FF
:102D800005960E9426C8009711F40C940A22FC01B3
:102D9000319710820C940A22E7E7F4E084918823AB
:102DA00041F09091C00095FFFCCF8093C600319612
:102DB000F5CF60913A1370913B1380913C13909141
:102DC0003D1342E00E94AA3DE4E7F4E084918823A9
:102DD00041F09091C00095FFFCCF8093C6003196E2
:102DE000F5CF60913E1370913F1380914013909105
:102DF000411342E00E94AA3DE1E7F4E08491882378
:102E000041F09091C00095FFFCCF8093C6003196B1
:102E1000F5CF6091421370914313809144139091C8
:102E2000451342E00E94AA3DEEE6F4E08491882337
:102E300041F09091C00095FFFCCF8093C600319681
:102E4000F5CF60914613709147138091481390918C
:102E5000491342E00E94AA3DE3E6F4E0849188230E
:102E600041F09091C00095FFFCCF8093C600319651
:102E7000F5CF2FB7F8946091191370911A138091C0
:102E80001B1390911C132FBF0E944EBD20914E1317
:102E900030914F1340915013509151130E940EC422
:102EA00042E00E94AA3DE0E6F4E08491882341F0EC
:102EB0009091C00095FFFCCF8093C6003196F5CF6E
:102EC0002FB7F89460911D1370911E1380911F13FA
:102ED000909120132FBF0E944EBD2091521330912C
:102EE000531340915413509155130E940EC442E065
:102EF0000E94AA3DEDE5F4E08491882341F0909191
:102F0000C00095FFFCCF8093C6003196F5CF2FB758
:102F1000F894609121137091221380912313909162
:102F200024132FBF0E944EBD20915613309157138A
:102F300040915813509159130E940EC442E00E94D0
:102F4000AA3D8091C00085FFFCCF8AE08093C60037
:102F50000C940A2280E00E943AA30C940A2281E099
:102F60000E943AA30C940A229091C00095FFFCCFD6
:102F70008093C60081918111F7CF8091C00085FFB9
:102F8000FCCF8AE08093C600E5E5F4E084918823D5
:102F900041F09091C00095FFFCCF8093C600319620
:102FA000F5CF659B03C0E4EDF2E009C0E9EDF2E086
:102FB00006C09091C00095FFFCCF8093C600819120
:102FC0008111F7CF8091C00085FFFCCF8AE080930C
:102FD000C600EDE4F4E08491882341F09091C000B4
:102FE00095FFFCCF8093C6003196F5CF649B03C05C
:102FF000E4EDF2E009C0E9EDF2E006C09091C00016
:1030000095FFFCCF8093C60081918111F7CF80910D
:10301000C00085FFFCCF8AE08093C600E5E4F4E0C1
:103020008491882341F09091C00095FFFCCF80935C
:10303000C6003196F5CF8091030181FF03C0E4ED16
:10304000F2E009C0E9EDF2E006C09091C00095FF02
:10305000FCCF8093C60081918111F7CF8091C00091
:1030600085FFFCCF8AE08093C600EDE3F4E0849115
:10307000882341F09091C00095FFFCCF8093C6005B
:103080003196F5CF4B9B03C0E4EDF2E009C0E9EDCA
:10309000F2E006C09091C00095FFFCCF8093C6007F
:1030A00081918111F7CF8091C00085FFFCCF8AE02C
:1030B0008093C6000C940A2291E7E92E93E1F92E41
:1030C00000ED12E024E0D22ED00ED8018D918D01BA
:1030D0000E946795882349F00E948D950E9485C4BF
:1030E000F7016083718382839383F4E0EF0EF11C18
:1030F000D012EBCF0E94F6610C940A22F4E0EF0E9E
:10310000F11CD01611F40C940A22D8018D918D0176
:103110000E946795882391F30E948D95F701608343
:10312000718382839383EACF83E50E946795882326
:1031300051F00E948D956093E2187093E31880938C
:10314000E4189093E51884E50E946795882311F4AC
:103150000C940A220E948D956093E6187093E718EC
:103160008093E8189093E9180C940A2283E50E9452
:103170006795882351F00E948D956093FE18709397
:10318000FF18809300199093011984E50E946795B8
:10319000882351F00E948D95609302197093031952
:1031A000809304199093051982E40E9467958823FF
:1031B00061F00E948D950E9485C46093FA18709307
:1031C000FB188093FC189093FD1888E50E94679582
:1031D000882351F00E948D956093DE187093DF185C
:1031E0008093E0189093E1188AE50E946795882300
:1031F00051F00E948D956093DA187093DB188093DC
:10320000DC189093DD1885E40E946795882311F4FB
:103210000C940A220E948D956093D6187093D7184B
:103220008093D8189093D9180C940A22A1E2EA2E20
:10323000A9E1FA2E00ED12E0B3E0DB2ED00ED801AA
:103240008D918D010E946795882339F00E948D959C
:10325000F7016083718382839383F4E0EF0EF11CA6
:10326000D012EDCF0C940A228AED90E00E94C83271
:1032700081110C940A2288E50E946795882381F0C9
:103280000091B30C10E00E948D95000F111F000FEC
:10329000111FF801EE50FF4E608371838283938388
:1032A00089E50E946795882381F00091B30C10E0B6
:1032B0000E948D95000F111F000F111FF801E6509D
:1032C000FF4E60837183828393838AE50E946795B2
:1032D000882381F00091B30C10E00E948D95000FBF
:1032E000111F000F111FF801EE5FFE4E6083718306
:1032F00082839383EDE5FCE08491882341F09091F3
:10330000C00095FFFCCF8093C6003196F5CFEDE26B
:10331000F4E08491882341F09091C00095FFFCCFA8
:103320008093C6003196F5CF1092B30C8091B30C08
:10333000823008F058C0EFE4F5E08191882339F03D
:103340009091C00095FFFCCF8093C600F6CFE0912E
:10335000B30C24E0E29FF0011124EE50FF4E608197
:1033600071818281938142E00E94AA3D07E913E0C6
:10337000F8018191882339F09091C00095FFFCCF2E
:103380008093C600F6CFE091B30C34E0E39FF001E8
:103390001124E650FF4E608171818281938142E069
:1033A0000E94AA3DD8018D918D01882339F090911A
:1033B000C00095FFFCCF8093C600F4CFE091B30C22
:1033C000B4E0EB9FF0011124EE5FFE4E608171814D
:1033D0008281938142E00E94AA3D8091B30C8F5F6D
:1033E0008093B30CA3CF8091C00085FFFCCF8AE00F
:1033F0008093C6000C940A2283E50E946795882377
:1034000011F40C940A220E948D950E947FC470933F
:10341000440260934302FEC783E50E9467958823B8
:1034200009F4F8C70E948D950E947FC4709325020D
:1034300060932402EFC780E50E946795882351F0CE
:103440000E948D9560934E0270934F0280935002BC
:103450009093510289E40E946795882381F00E942D
:103460008D952DEB37E346E05EE30E94A5B76093B0
:103470000A0270930B0280930C0290930D0284E475
:103480000E946795882381F00E948D952DEB37E38C
:1034900046E05EE30E940EC460934A0270934B02C2
:1034A00080934C0290934D0283E40E946795882399
:1034B00051F00E948D9560930002709301028093F9
:1034C0000202909303020E9421A3E9E9F3E08191B3
:1034D000882339F09091C00095FFFCCF8093C600FF
:1034E000F6CFECE9F3E08191882339F09091C000A8
:1034F00095FFFCCF8093C600F6CF60914E0270918D
:103500004F02809150029091510242E00E94AA3DE8
:10351000E0EAF3E08191882339F09091C00095FFB3
:10352000FCCF8093C600F6CF2DEB37E346E05EE399
:1035300060910A0270910B0280910C0290910D0231
:103540000E940EC442E00E94AA3DE4EAF3E08191A9
:10355000882339F09091C00095FFFCCF8093C6007E
:10356000F6CF2DEB37E346E05EE360914A027091BF
:103570004B0280914C0290914D020E94A5B742E00F
:103580000E94AA3DE8EAF3E08191882339F0909106
:10359000C00095FFFCCF8093C600F6CF609100027B
:1035A00070910102809102029091030242E00E9418
:1035B000AA3D8091C00085FFFCCF8AE08093C600C1
:1035C0000E94432A27C783E50E946795882319F044
:1035D0000E948D9503C060E070E0CB0160930619F6
:1035E00070930719809308199093091913C785E4FC
:1035F0000E946795882341F00E948D950E947FC4A8
:103600008B0177FD12C002C000E010E02D961FAEC6
:103610002D972E961FAE2E97E6E12F96EFAF2F97A0
:10362000F3E46096FFAF60970EC02D961FAE2D9706
:103630002E961FAE2E972CE82F962FAF2F9732E4A1
:1036400060963FAF609783E50E946795882371F08D
:103650000E948D952D966FAF2D972E967FAF2E974A
:103660002F968FAF2F9760969FAF609783E40E944D
:103670006795882349F00E948D950E947FC4AC967F
:103680007FAF6EAFAC9706C045E050E0AC965FAF41
:103690004EAFAC970E944D6A2C966CAF7DAF8EAF4B
:1036A0009FAF2C97033011051CF4ECEAF3E01AC02D
:1036B000EFEBF3E08191882339F09091C00095FF02
:1036C000FCCF8093C600F6CF8091C00085FFFCCF71
:1036D0008AE08093C6009EC69091C00095FFFCCF03
:1036E0008093C60081918111F7CF8091C00085FF42
:1036F000FCCF8AE08093C6000E94A36A8FE717FF81
:1037000068C08093A7182C968CAD9DADAEADBFADB3
:103710002C976A968CAF9DAFAEAFBFAF6A97E0961D
:103720008CAF9DAFAEAFBFAFE09761961FAE619714
:1037300090E46F969FAF6F97ACE1A096AFAFA09764
:10374000B6E4A196BFAFA1976B961FAE6B976C9630
:103750001FAE6C976D961FAE6D976E961FAE6E97EF
:103760002FE730E040E050E028962CAF3DAF4EAF61
:103770005FAF28973FE7432E512C612C712CA89600
:103780001CAE1DAE1EAE1FAEA89731E0A2963FAF95
:10379000A29766961FAE1EAE669722961FAE229720
:1037A000212C312C23961FAE2397A8014855574E44
:1037B000AA965FAF4EAFAA97C801880F991F880FCE
:1037C000991FDC01A256B74EA496BFAFAEAFA49727
:1037D00007C0F801E855F74E808395CF0E945E9AA6
:1037E0008091A618882309F479C10E94B37117FF4C
:1037F0000FC0B0918E182296BFAF229720908F18DD
:1038000030909018E09191182396EFAF239712C053
:10381000A496AEADBFADA497BC912296BFAF229740
:10382000A496EEADFFADA49721803280F38123965C
:10383000FFAF239722962FAD2297322D432D23964B
:103840005FAD23976B966FAD6B976C967FAD6C9762
:103850006D968FAD6D976E969FAD6E970E946BC5FE
:10386000181694F022962FAD22976B962FAF6B9778
:103870006C962FAE6C976D963FAE6D9723963FADCD
:1038800023976E963FAF6E9722962FAD2297322DDB
:10389000432D23965FAD239761966FAD61976F9629
:1038A0007FAD6F97A0968FADA097A1969FADA19782
:1038B0000E9448BD87FD12C022964FAD22976196A7
:1038C0004FAF61976F962FAE6F97A0963FAEA097C0
:1038D00023965FAD2397A1965FAFA197A2968FAD78
:1038E000A297882309F479C02D962FAD2D972E9697
:1038F0003FAD2E972F964FAD2F9760965FAD609797
:1039000022966FAD2297722D832D23969FAD23971C
:103910000E946BC518160CF0E1C00E944D6ADC01D4
:10392000CB012C962CAD3DAD4EAD5FAD2C97821BDF
:10393000930BA40BB50B89389341A105B10508F48D
:10394000CDC0D301C20128962CAD3DAD4EAD5FADCB
:103950002897821B930BA40BB50BB595A79597954C
:10396000879517FF03C08093A71805C0AA96EEADF0
:10397000FFADAA9780830E944D6A6A966CAF7DAFB7
:103980008EAF9FAF6A979B01AC012C968CAD9DAD1D
:10399000AEADBFAD2C97281B390B4A0B5B0BA8961D
:1039A0002CAF3DAF4EAF5FAFA8972D969FAD2D9733
:1039B0006B969FAF6B972E96AFAD2E976C96AFAF71
:1039C0006C972F96BFAD2F976D96BFAF6D97609692
:1039D000EFAD60976E96EFAF6E972D962FAD2D974A
:1039E0002E963FAD2E972F964FAD2F9760965FADD9
:1039F000609722966FAD2297722D832D23969FADEF
:103A000023970E9448BD87FD01C0C2C70E944D6A2E
:103A1000DC01CB016A962CAD3DAD4EAD5FAD6A9732
:103A2000821B930BA40BB50B89389341A105B105FB
:103A300008F4AEC70E944D6A2C966CAF7DAF8EAF76
:103A40009FAF2C97DC01CB016A962CAD3DAD4EADFE
:103A50005FAD6A97821B930BA40BB50B66964EADB8
:103A60005FAD6697141615060CF4BCC528968CAD90
:103A70009DADAEADBFAD2897840D951DA61DB71D9C
:103A8000B595A7959795879517FF7CC78093A7183D
:103A900066962EAD3FAD66972F5F3F4F66963FAF60
:103AA0002EAF66972D963FAD2D9761963FAF6197EC
:103AB0002E964FAD2E976F964FAF6F972F965FADA7
:103AC0002F97A0965FAFA09760968FAD6097A19655
:103AD0008FAFA19791E0A2969FAFA29720E030E030
:103AE00040EA51E42D966FAD2D972E967FAD2E971F
:103AF0002F968FAD2F9760969FAD60970E9420C341
:103B00009B01AC0122966FAD2297722D832D2396D7
:103B10009FAD23970E946BC51816ACF4E8E9F3E05B
:103B20008491882341F09091C00095FFFCCF809351
:103B3000C6003196F5CF8091C00085FFFCCF8AE0AA
:103B40008093C60067C40E944D6ADC01CB01E096F9
:103B50002CAD3DAD4EAD5FADE097821B930BA40B3A
:103B6000B50B813D9740A105B10508F452C017FF80
:103B700010C0E090A718F12CE2E9F3E084918823CB
:103B8000D9F09091C00095FFFCCF8093C60031968C
:103B9000F5CFAA96AEADBFADAA97EC90F12CECE8AC
:103BA000F3E08491882341F09091C00095FFFCCF11
:103BB0008093C6003196F5CF42E022966FAD2297F2
:103BC000722D832D23969FAD23970E94AA3DE8E88E
:103BD000F3E08491882341F09091C00095FFFCCFE1
:103BE0008093C6003196F5CFB701FF0C880B990B77
:103BF0000E94983D8091C00085FFFCCF8AE08093B1
:103C0000C6000E944D6AE0966CAF7DAF8EAF9FAF4D
:103C1000E0970E944D6A6B017C010E944D6A6A9692
:103C20008CAC9DACAEACBFAC6A972C962CAD3DADC8
:103C30004EAD5FAD2C97820E931EA41EB51EC81804
:103C4000D908EA08FB08DC01CB018C0D9D1DAE1DD7
:103C5000BF1D81389F44A241B105A8F0EBE6F3E017
:103C60008491882341F09091C00095FFFCCF809310
:103C7000C6003196F5CF8091C00085FFFCCF8AE069
:103C80008093C600C7C366964EAD5FAD6697AC968F
:103C90008EAD9FADAC97841795070CF09FCDEFE1EB
:103CA000F3E08491882341F09091C00095FFFCCF10
:103CB0008093C6003196F5CF8091C00085FFFCCF80
:103CC0008AE08093C600A6C30E94A6A3A3C30E9455
:103CD0000D2DA0C30E946A2B0E9497499BC3FDD75C
:103CE00099C30E94A6A383E50E946795882341F0AB
:103CF0000E948D950E947FC47093130260931202FC
:103D000080911202909113028230910509F0BFC098
:103D100088E50E946795882349F10E948D956B0183
:103D20007C010E9411319B01AC0160E070E0CB018D
:103D30000E941FC39B01AC01C701B6010E946BC565
:103D400018161CF40E948D9509C00E9411319B0128
:103D5000AC0160E070E0CB010E941FC360931402CD
:103D600070931502809316029093170282E50E94C9
:103D70006795882351F00E948D956093AF0C7093E6
:103D8000B00C8093B10C9093B20CEDE5FCE0849103
:103D9000882341F09091C00095FFFCCF8093C6002E
:103DA0003196F5CFE8E0F4E08491882341F09091DA
:103DB000C00095FFFCCF8093C6003196F5CF6FE42D
:103DC000E62E65E0F62EF7018191882339F0909177
:103DD000C00095FFFCCF8093C600F6CF6091F21033
:103DE0007091F3108091F4109091F51042E00E94D0
:103DF000AA3D07E913E0F8018191882339F09091F9
:103E0000C00095FFFCCF8093C600F6CF6091FA10FA
:103E10007091FB108091FC109091FD1042E00E9487
:103E2000AA3DD7018D917D01882339F09091C00082
:103E300095FFFCCF8093C600F4CF6091140270917F
:103E40001502809116029091170242E00E94AA3D4D
:103E5000F80181918F01882339F09091C00095FF7E
:103E6000FCCF8093C600F4CF6091FE107091FF10DC
:103E7000809100119091011142E00E94AA3D809131
:103E8000C00085FFFCCF8AE08093C60008C004977D
:103E900030F081E090E09093130280931202109230
:103EA0002E19809112029091130290931D0280931B
:103EB0001C0210922F191092301910923119109281
:103EC0003219A8C283E50E946795882309F4A2C22B
:103ED0000E948D950E947FC47093E00B6093DF0B6E
:103EE0006230710534F081E090E09093E00B8093B4
:103EF000DF0B8091DF0B9091E00B97FD02C00C94DB
:103F0000A7161092E00B1092DF0B0C94A71689EE07
:103F100093E0D5D67FC20E94CF787CC282E50E9412
:103F20006795882329F00E948D959B01AC0104C000
:103F300020E030E040E85FE383E5E3962FAFE397CE
:103F4000E4963FAFE497E5964FAFE597E6965FAF0F
:103F5000E6970E946795882309F45CC20E948D95BC
:103F6000E3962FADE397E4963FADE497E5964FAD2A
:103F7000E597E6965FADE6970E940EC46093EE105B
:103F80007093EF108093F0109093F1100E94432AE9
:103F900041C282E50E946795882329F00E948D9591
:103FA0009B01AC0104C020E030E040E85FE383E522
:103FB000E3962FAFE397E4963FAFE497E5964FAFD4
:103FC000E597E6965FAFE6970E946795882309F428
:103FD00021C20E948D95E3962FADE397E4963FAD05
:103FE000E497E5964FADE597E6965FADE6970E94BC
:103FF0000EC460930A1170930B1180930C1190936F
:104000000D110E94432A06C282E50E94679588230B
:1040100029F00E948D959B01AC0104C020E030E0A6
:1040200040E85FE383E5E3962FAFE397E4963FAF85
:10403000E497E5964FAFE597E6965FAFE6970E9467
:104040006795882309F4E6C10E948D95E3962FAD0C
:10405000E397E4963FADE497E5964FADE597E69696
:104060005FADE6970E940EC460939A0B70939B0B12
:1040700080939C0B90939D0B0E94432ACBC183E5B8
:104080000E946795882309F4C5C10E948D950E94FE
:104090007FC46F3F710509F02CF477FF05C060E025
:1040A00070E002C068EC70E07093A40C6093A30C05
:1040B0000E94432AAFC183E50E946795882309F4D3
:1040C000A9C10E948D950E947FC46536710534F4A4
:1040D0006E3171052CF46EE170E002C064E670E0B0
:1040E0007093A20C6093A10C0E94432A93C183E5B4
:1040F0000E946795882309F48DC10E948D950E94C6
:104100007FC421E030E06130710511F020E030E043
:104110003093DD0B2093DC0B0E94432A7BC183E5A7
:104120000E946795882309F475C10E948D950E94AD
:104130007FC46D3371052CF477FF05C060E070E03B
:1041400002C06CE370E07093990B6093980B0E942F
:10415000432A60C182E40E946795882351F00E943F
:104160008D950E947FC47093A10B6093A00B0E9459
:10417000432A85E40E946795882309F44BC10E9475
:104180008D950E947FC47093AB0B6093AA0B7093C4
:10419000A50B6093A40B0E94432A3CC183E50E94B7
:1041A0006795882309F436C10E948D950E947FC4CB
:1041B00061157105F9F48091900B9091910B90939A
:1041C0004B1380934A1390934D1380934C1380911B
:1041D0008E0B90918F0B9093860C8093850C809121
:1041E0008C0B90918D0B9093601980935F190E94B6
:1041F000856F10C161307105F9F48091960B909133
:10420000970B90934B1380934A1390934D13809385
:104210004C138091940B9091950B9093860C809306
:10422000850C8091920B9091930B909360198093E1
:104230005F190E94856FEEC06230710569F41092BB
:104240004B1310924A1310924D1310924C1310926C
:10425000860C1092850CDEC06330710509F0DAC05F
:1042600010924B1310924A1310924D1310924C134C
:104270001092860C1092850C0E94A6A38D9A129A19
:1042800080E00E9465A3C6C083E50E9467958823ED
:1042900009F4C0C00E948D950E947FC48B0184E503
:1042A0000E946795882329F00E948D950E947FC403
:1042B00002C06FEF7FEF0230110508F0ABC08091B4
:1042C0005E1390E06817790709F466C36F3FFFEF4C
:1042D0007F0709F461C3CB010E9496955DC380E01E
:1042E00090E00E94353196C00E94413393C00E94F5
:1042F000203190C01092DB0B1092DA0B8BC083E55B
:104300000E946795882309F485C00E948D956B01F2
:104310007C0120E030E0A9010E9448BD811104C069
:1043200081E08093410276C020E030E040E251E439
:10433000C701B6010E940EC46093D60B7093D70BD1
:104340008093D80B9093D90B1092410263C01092C6
:104350006D0C8091A90C9091AA0CA091AB0CB0911E
:10436000AC0C80936E0C90936F0CA093700CB09378
:10437000710C0E940DA74EC084E50E9467958823AA
:1043800029F08FEF9FEF0E94969544C0EDE5FCE089
:104390008491882341F09091C00095FFFCCF8093D9
:1043A000C6003196F5CFEAE1F4E08491882341F02C
:1043B0009091C00095FFFCCF8093C6003196F5CF59
:1043C0008091870C9091880C20E6289FF001299F0E
:1043D000F00D1124E354F34F8191882339F090912B
:1043E000C00095FFFCCF8093C600F6CFE8E1F4E073
:1043F0008491882341F09091C00095FFFCCF809379
:10440000C6003196F5CF8091C00085FFFCCF8AE0D1
:104410008093C6000E94E5A65CC3819187FD02C01F
:104420000C94B710D12C0C94C11061E271E1CE0153
:1044300001960E944E47BE016F5F7F4FCE01CB9623
:104440000E948246CE0101960E94BB46CE01CB96C9
:104450000E947644BE01655C7F4FCE0180960E942B
:1044600046470F5F1F4FC0909E0BD0909F0BB6E04A
:10447000BC9DC001BD9D900D1124801791070CF0CB
:104480006BC00696801791070CF466C064E171E179
:10449000CE0101960E944E47BE016F5F7F4FCE0155
:1044A000CB960E948246CE0101960E94BB46CE0169
:1044B000CB960E94764468E675E0CE0180960E9415
:1044C000D145882339F0BE01655C7F4FCE018096CF
:1044D0000E946D464AEF96014203C001439F900D32
:1044E00011246801C80ED91E8AE293E0E6D34AE09F
:1044F000B601CE0101960E941B4789819A81DDD3C6
:10450000CE0101960E94BB468CE096E0D6D3CE0148
:1045100080960E94764488A199A1CFD384ED95E03E
:10452000CCD3BFD389E393E0C8D34AE0B601CE0130
:1045300001960E941B4789819A81BFD3CE010196C3
:104540000E94BB468CE096E0B8D38BAD9CADB5D352
:1045500084ED95E0B2D3A5D3CE0180960E94BB46F0
:104560000C94CD100E948295AB01BC0140933F1189
:1045700050934011609341117093421186EE92E185
:104580000E94CB7447CF0E948D9544CF0E94A6A372
:1045900088E50E946795882311F05F9A479A89E51C
:1045A0000E94679581118A9A8AE50E9467958823FF
:1045B00081F09FB7F8948091080181608093080191
:1045C0009FBF9FB7F8948091080184608093080191
:1045D0009FBF85E40E946795882309F41BCF8D9ABD
:1045E000129A18CFA8968CAC9DACAEACBFACA89775
:1045F000880E991EAA1EBB1EA8962CAD3DAD4EADD1
:104600005FADA897281B390B4A0B5B0BCA01B90198
:1046100028962CAD3DAD4EAD5FAD28970E94D5C21A
:10462000A50194010E94D6C6D301C201820F931F37
:10463000A41FB51F84319105A105B1050CF12C0112
:104640003D018C3E9105A105B1052CF0FBEE4F2EEE
:10465000512C612C712C40E8441651046104710402
:10466000FCF08EEF90E0A0E0B0E084199509A60977
:10467000B70928968CAF9DAFAEAFBFAF289716C0D5
:10468000E4E14E2E512C612C712C24E130E040E00D
:1046900050E028962CAF3DAF4EAF5FAF289706C0D5
:1046A00028964CAE5DAE6EAE7FAE2897E0E0F4E0AB
:1046B0008491882341F09091C00095FFFCCF8093B6
:1046C000C6003196F5CFC301B2010E94983DEBEFD1
:1046D000F3E08491882341F09091C00095FFFCCFD6
:1046E0008093C6003196F5CF28966CAD7DAD8EAD2A
:1046F0009FAD28970E94983DE4EFF3E084918823D2
:1047000041F09091C00095FFFCCF8093C600319698
:10471000F5CF42E061966FAD61976F967FAD6F9771
:10472000A0968FADA097A1969FADA1970E94AA3D9C
:10473000EDEEF3E08491882341F09091C00095FF65
:10474000FCCF8093C6003196F5CF42E06B966FADFB
:104750006B976C967FAD6C976D968FAD6D976E96DF
:104760009FAD6E970E94AA3D8091C00085FFFCCF4F
:104770008AE08093C60066962EAD3FAD66972330E3
:1047800031050CF473C928966CAD7DAD8EAD9FAD2F
:1047900028970E944EBD20E030E040E850E40E949F
:1047A000A5B76B017C0161962FAD61976F963FAD08
:1047B0006F97A0964FADA097A1965FADA1976B960E
:1047C0006FAD6B976C967FAD6C976D968FAD6D9757
:1047D0006E969FAD6E970E941FC320ED3FE049E4A7
:1047E00050E40E94A5B720E030E040E05FE30E9483
:1047F000A5B79B01AC01C701B6010E940EC46B01B5
:104800007C01C501B4010E944EBD20E030E04AE7C2
:1048100054E40E940EC44B015C01E7EEF3E0849186
:10482000882341F09091C00095FFFCCF8093C60093
:104830003196F5CF42E0C701B6010E94AA3DE1EEF4
:10484000F3E08491882341F09091C00095FFFCCF64
:104850008093C6003196F5CF42E0C501B4010E94B5
:10486000AA3D8091C00085FFFCCF8AE08093C600FE
:104870002AE939E949E15FE3C701B6010E94A5B71A
:104880006B017C019B01AC010E9420C3A501940136
:104890000E940EC464966CAF7DAF8EAF9FAF6497DD
:1048A000A5019401C701B6010E94A5B720E030E040
:1048B00040E05EE30E94A5B74B015C01E4EDF3E04C
:1048C0008491882341F09091C00095FFFCCF8093A4
:1048D000C6003196F5CF8091C00085FFFCCF8AE0FD
:1048E0008093C600EEECF3E08491882341F0909130
:1048F000C00095FFFCCF8093C6003196F5CF42E013
:10490000C701B6010E94AA3D8091C00085FFFCCF7F
:104910008AE08093C600E8ECF3E08491882341F0BC
:104920009091C00095FFFCCF8093C6003196F5CFE3
:1049300042E064966CAD7DAD8EAD9FAD64970E94F4
:10494000AA3D8091C00085FFFCCF8AE08093C6001D
:10495000E2ECF3E08491882341F09091C00095FF50
:10496000FCCF8093C6003196F5CF42E0C501B4017B
:104970000E94AA3D8091C00085FFFCCF8AE0809311
:10498000C60074C8AA96EEADFFADAA97808380C812
:10499000A2961FAEA297A2C8012B09F04DC020E03D
:1049A00030E044EB52E460914613709147138091DC
:1049B0004813909149130E9420C36093461370934B
:1049C000471380934813909349133EE5C32E33E178
:1049D000D32EE12CF12C00E211E426E433E142E491
:1049E00053E16EE373E18AE393E10E94A18120E049
:1049F00030E040EA51E46091461370914713809192
:104A00004813909149130E9420C3609346137093FA
:104A100047138093481390934913E12CF12C00E045
:104A200010E426E433E142E453E16EE373E18AE308
:104A300093E10E94A181EECC20E030E040EF51E410
:104A400060914613709147138091481390914913D8
:104A50000E9420C3609346137093471380934813BA
:104A6000909349138EE5C82E83E1D82EE12CF12CCA
:104A700000E010E426E433E142E453E16EE373E145
:104A80008AE393E10E94A18120E030E040EF52E40C
:104A90006091461370914713809148139091491388
:104AA0000E941FC36093461370934713809348136B
:104AB00090934913E12CF12C08E412E426E433E14D
:104AC00042E453E16EE373E18AE393E10E94A18142
:104AD000A1CCE296EEADFFADE2970FB6F894FEBF23
:104AE0000FBEEDBFCB58DF4F0FB6F894DEBF0FBE41
:104AF000CDBFDF91CF911F910F91FF90EF90DF908D
:104B0000CF90BF90AF909F908F907F906F905F906D
:104B10004F903F902F9008958EBD0DB407FEFDCFAE
:104B200008958FEF8EBD0DB407FEFDCF8EB50895AD
:104B3000CF92DF92EF92FF921F93CF93DF9300D03B
:104B40001F92CDB7DEB76C01162FFC019281892F21
:104B5000806A86958CBD90FD03C081E0963009F493
:104B600080E08DBD60E0F601808129833A834B832C
:104B70005C830E942D486CE271E0C6010E94F48FB4
:104B8000812F8064C9DF88E1E82EF12C5C814B81A4
:104B90003A812981DA01C9010E2C04C0B695A79586
:104BA000979587950A94D2F729833A834B835C8340
:104BB000B3DFF8E0EF1AF10829813A814B815C817B
:104BC00088EFE8168FEFF80629F7112321F0183047
:104BD00021F08FEF03C085E901C087E89DDF1C301D
:104BE00009F49FDF10E09DDFF601838387FF04C097
:104BF0001F3F11F01F5FF7CF0F900F900F900F9096
:104C0000DF91CF911F91FF90EF90DF90CF900895AB
:104C10001F920F920FB60F9211240BB60F922F9383
:104C20003F934F936F937F938F939F93EF93FF9354
:104C30004091C6002091690C30916A0CC90101961F
:104C40008F77992760916B0C70916C0C8617970782
:104C500041F0F901E751F44F408390936A0C80933F
:104C6000690CFF91EF919F918F917F916F914F917F
:104C70003F912F910F900BBE0F900FBE0F901F9082
:104C8000189580E090E00E942E3E8FEF9FEF0E94EB
:104C90002E3E8FEF9FEF0E942E3E8FEF9FEF0C94E2
:104CA0002E3E8FEF9FEF0E942E3E8FEF9FEF0E94D0
:104CB0002E3E8FEF9FEF0C942E3E0C94323E0E94BE
:104CC000323E8FEF9FEF0E942E3E8FEF9FEF0E94AC
:104CD0002E3E8FEF9FEF0C942E3ECF93DF93C8E4D0
:104CE000DBE0FE018491882341F09091C00095FFA4
:104CF000FCCF8093C6003196F5CFECEFFAE08491BB
:104D0000882341F09091C00095FFFCCF8093C600AE
:104D10003196F5CF8091C00085FFFCCF8AE080936B
:104D2000C600FE018491E8E4FBE0882349F09091FD
:104D3000C00095FFFCCF8093C60031968491F5CFDB
:104D400040914E1350914F13609150137091511335
:104D500084EF9AE00E946172409152135091531374
:104D6000609154137091551381EF9AE00E94617223
:104D700040915613509157136091581370915913E5
:104D80008EEE9AE00E94617240915A1350915B132B
:104D900060915C1370915D138BEE9AE00E946172DA
:104DA0008091C00085FFFCCF8AE08093C600FE01A1
:104DB0008491E8E4FBE0882349F09091C00095FFDE
:104DC000FCCF8093C60031968491F5CFE1EDFAE0F7
:104DD0008491882341F09091C00095FFFCCF80938F
:104DE000C6003196F5CF8091C00085FFFCCF8AE0E8
:104DF0008093C600FE018491E8E4FBE0882349F03B
:104E00009091C00095FFFCCF8093C60031968491AD
:104E1000F5CF4091EA185091EB186091EC18709121
:104E2000ED1888EC9AE00E9461724091EE18509162
:104E3000EF186091F0187091F11885EC9AE00E94DB
:104E400061724091F2185091F3186091F4187091CA
:104E5000F51882EC9AE00E9461724091F618509128
:104E6000F7186091F8187091F9188FEB9AE00E948A
:104E700061728091C00085FFFCCF8AE08093C600FC
:104E8000FE018491E8E4FBE0882349F09091C000A2
:104E900095FFFCCF8093C60031968491F5CFE1EA6F
:104EA000FAE08491882341F09091C00095FFFCCFF7
:104EB0008093C6003196F5CF8091C00085FFFCCF6E
:104EC0008AE08093C600FE018491E8E4FBE0882339
:104ED00049F09091C00095FFFCCF8093C6003196B9
:104EE0008491F5CF409171135091721360917313B7
:104EF0007091741388E99AE00E9450724091751382
:104F000050917613609177137091781385E99AE048
:104F10000E9450724091791350917A1360917B13E3
:104F200070917C1382E99AE00E94507240917D1347
:104F300050917E1360917F13709180138FE89AE0F7
:104F40000E9450728091C00085FFFCCF8AE0809360
:104F5000C600FE018491E8E4FBE0882349F09091CB
:104F6000C00095FFFCCF8093C60031968491F5CFA9
:104F7000EAE5FAE08491882341F09091C00095FF22
:104F8000FCCF8093C6003196F5CF8091C00085FF9D
:104F9000FCCF8AE08093C600FE018491E8E4FBE048
:104FA000882349F09091C00095FFFCCF8093C60004
:104FB00031968491F5CF4091E2185091E3186091B9
:104FC000E4187091E51881E59AE00E9461724091C1
:104FD000E6185091E7186091E8187091E9188EE48E
:104FE0009AE00E9461728091C00085FFFCCF8AE048
:104FF0008093C600FE018491E8E4FBE0882349F039
:105000009091C00095FFFCCF8093C60031968491AB
:10501000F5CFEBE9F9E08491882341F09091C0004D
:1050200095FFFCCF8093C6003196F5CF8091C000EC
:1050300085FFFCCF8AE08093C600FE018491E8E4FE
:10504000FBE0882349F09091C00095FFFCCF80934E
:10505000C60031968491F5CF4091FE185091FF180B
:10506000609100197091011982E999E00E946172C2
:10507000409102195091031960910419709105191A
:105080008FE899E00E9461724091FA185091FB18E4
:105090006091FC187091FD188CE899E00E945072A4
:1050A0004091DE185091DF186091E0187091E1187E
:1050B00089E899E00E9461724091DA185091DB18FA
:1050C0006091DC187091DD1886E899E00E946172A9
:1050D0004091D6185091D7186091D8187091D9186E
:1050E00083E899E00E9461728091C00085FFFCCF47
:1050F0008AE08093C600FE018491E8E4FBE0882307
:1051000049F09091C00095FFFCCF8093C600319686
:105110008491F5CFE1E7F9E08491882341F0909103
:10512000C00095FFFCCF8093C6003196F5CF8091EB
:10513000C00085FFFCCF8AE08093C600FE01849109
:10514000E8E4FBE0882349F09091C00095FFFCCF94
:105150008093C60031968491F5CF409121195091EA
:105160002219609123197091241988E699E00E9410
:1051700061724091251950912619609127197091FB
:10518000281985E699E00E94617240912919509191
:105190002A1960912B1970912C1982E699E00E94CE
:1051A00061728091C00085FFFCCF8AE08093C600C9
:1051B000FE018491E8E4FBE0882349F09091C0006F
:1051C00095FFFCCF8093C60031968491F5CFE4E53E
:1051D000F9E08491882341F09091C00095FFFCCFC5
:1051E0008093C6003196F5CF8091C00085FFFCCF3B
:1051F0008AE08093C600FE018491E8E4FBE0882306
:1052000049F09091C00095FFFCCF8093C600319685
:105210008491F5CF40914E0250914F02609150021F
:10522000709151028AE499E00E9461722DEB37E39C
:1052300046E05EE360910A0270910B0280910C02DD
:1052400090910D020E940EC4AB01BC0187E499E06D
:105250000E9461722DEB37E346E05EE360914A0203
:1052600070914B0280914C0290914D020E94A5B723
:10527000AB01BC0184E499E00E9461728091C0009E
:1052800085FFFCCF8AE08093C600FE018491E8E4AC
:10529000FBE0882349F09091C00095FFFCCF8093FC
:1052A000C60031968491F5CFE1E3F9E0849188233B
:1052B00041F09091C00095FFFCCF8093C6003196DD
:1052C000F5CF8091C00085FFFCCF8AE08093C600B7
:1052D0004091EE105091EF106091F0107091F1102C
:1052E0008DE299E00E9461728091C00085FFFCCF41
:1052F0008AE08093C600FE018491E8E4FBE0882305
:1053000049F09091C00095FFFCCF8093C600319684
:105310008491F5CFECE1F9E08491882341F09091FC
:10532000C00095FFFCCF8093C6003196F5CF8091E9
:10533000C00085FFFCCF8AE08093C60040910A112F
:1053400050910B1160910C1170910D1188E199E051
:105350000E9461728091C00085FFFCCF8AE080933B
:10536000C600FE01C491E8E4FBE0CC2349F0809143
:10537000C00085FFFCCFC093C6003196C491F5CF25
:10538000E7E0F9E08491882341F09091C00095FF17
:10539000FCCF8093C6003196F5CF8091C00085FF89
:1053A000FCCF8AE08093C60040919A0B50919B0BF2
:1053B00060919C0B70919D0B83E099E00E9461725B
:1053C0008091C00085FFFCCF8AE08093C600E6EDA7
:1053D000F5E08191882339F09091C00095FFFCCFD2
:1053E0008093C600F6CF6091DC0B7091DD0B072E29
:1053F000000C880B990B0E94983D8091C00085FF9E
:10540000FCCF8AE08093C600DF91CF910895EF92A0
:10541000FF921F93CF93DF937C01C62FD72F142FBA
:10542000160FF701808191810E94BFC28993F70115
:10543000808191810196918380831C13F2CFDF914B
:10544000CF911F91FF90EF900895EF92FF921F93DD
:10545000CF93DF937C01C62FD72F142F160F69919E
:10546000F701808191810E94C7C2F70180819181FB
:105470000196918380831C13F2CFDF91CF911F910E
:10548000FF90EF9008950F931F93CF93DF93CDB7C5
:10549000DEB72C970FB6F894DEBF0FBECDBF80E30A
:1054A00090E3A0E3B0E08D839E83AF83B88704E6EA
:1054B00010E01C870B8744E0BE016B5F7F4FCE017D
:1054C0000B96C3DF40E16EE473E1CE010B96BDDFC6
:1054D00040E16AEE78E1CE010B96B7DF40E161E78B
:1054E00073E1CE010B96B1DF44E062EE78E1CE01CC
:1054F0000B96ABDF44E066EE78E1CE010B96A5DFBC
:1055000044E06EEF78E1CE010B969FDF44E062E06D
:1055100079E1CE010B9699DF44E06AEF78E1CE01A4
:105520000B9693DF44E06EED78E1CE010B968DDFB4
:1055300044E06AED78E1CE010B9687DF44E066ED4A
:1055400078E1CE010B9681DF4CE061E279E1CE019A
:105550000B967BDF42E066E97BE0CE010B9675DFC0
:1055600042E064E97BE0CE010B966FDF42E062E946
:105570007BE0CE010B9669DF42E060E97BE0CE0183
:105580000B9663DF42E06EE87BE0CE010B965DDFB9
:1055900042E06CE87BE0CE010B9657DF44E06EE41E
:1055A00072E0CE010B9651DF44E06AE072E0CE017A
:1055B0000B964BDF44E06AE472E0CE010B9645DFC8
:1055C00044E06EEE70E1CE010B963FDF44E06AE00E
:1055D00071E1CE010B9639DF44E06AE97BE0CE0150
:1055E0000B9633DF42E063EA7CE0CE010B962DDFC1
:1055F00042E061EA7CE0CE010B9627DF42E06FEDEE
:105600007BE0CE010B9621DF42E06CED7BE0CE012A
:105610000B961BDF42E068E97BE0CE010B9615DFBD
:1056200042E06AEA7BE0CE010B960FDF42E064EADB
:105630007BE0CE010B9609DF42E060EA7BE0CE0121
:105640000B9603DF80E290E09A87898742E0BE01F3
:10565000675F7F4FCE010B96F8DE86E590E3A8E307
:10566000B0E089839A83AB83BC831C870B8744E0BB
:10567000BE016F5F7F4FCE010B96E7DEE8E4FBE0F3
:105680008491882341F09091C00095FFFCCF8093D6
:10569000C6003196F5CFE3EFF8E08491882341F01E
:1056A0009091C00095FFFCCF8093C6003196F5CF56
:1056B0008091C00085FFFCCF8AE08093C6002C96C5
:1056C0000FB6F894DEBF0FBECDBFDF91CF911F9113
:1056D0000F910895AF92BF92CF92DF92EF92FF9217
:1056E0000F931F93CF93DF93CDB7DEB7E0970FB63D
:1056F000F894DEBF0FBECDBF80E1E0E7F2E0DE014F
:10570000919601900D928A95E1F780E1E0E8F2E050
:10571000DE01519601900D928A95E1F780E1E0E972
:10572000F2E0DE01119601900D928A95E1F7DE011B
:1057300091966EE473E1AE014F5E5F4F2AEE38E161
:10574000CE0101965C0181E793E18E010F5C1F4F52
:10575000CD90DD90ED90FD90FB01C192D192E19250
:10576000F192BF01FA01C190D190E190F190AF01A7
:10577000F901C192D192E192F1929F01F501C1909C
:10578000D190E190F1905F01FC01C192D192E19240
:10579000F192CF01A017B107D9F60E94F66180E01F
:1057A00090E0AAEFB3E48093E2189093E318A093FB
:1057B000E418B093E5188093E6189093E718A09347
:1057C000E818B093E91880E090E0A0EAB0E4809394
:1057D000FE189093FF18A0930019B093011940E2AE
:1057E0005EE460E070E04093FA185093FB18609319
:1057F000FC187093FD1840E050E060E771E44093BE
:10580000021950930319609304197093051940E02D
:1058100050E060EA71E44093DE185093DF18609323
:10582000E0187093E1184DEC5CEC6CEC7EE3409377
:10583000DA185093DB186093DC187093DD188093AE
:10584000D6189093D718A093D818B093D91810925F
:10585000291910922A1910922B1910922C191092B2
:1058600025191092261910922719109228191092B2
:10587000211910922219109223191092241908EC60
:1058800010E01093970B0093960B1092950B1092CB
:10589000940B1092930B1092920B8CED90E09093DE
:1058A000910B8093900B83E290E090938F0B809309
:1058B0008E0B10928D0B10928C0B8AE097EDA1EB62
:1058C000B1E480934E0290934F02A0935002B093A4
:1058D00051028EE297E1A8E5BEE380930A0290931D
:1058E0000B02A0930C02B0930D028EE395ECA2E1A3
:1058F000B4E480934A0290934B02A0934C02B0937D
:105900004D020E9421A380E090E0A0E8BFE38093D5
:10591000000290930102A0930202B093030280E080
:1059200090E8A3E2B4E48093EE109093EF10A0937C
:10593000F010B093F11010922D1980E991E090933E
:10594000AB0B8093AA0B9093A50B8093A40B88E7D5
:1059500090E09093A10B8093A00B80E090E0A0E9F1
:10596000B0E480930A1190930B11A0930C11B093A3
:105970000D1180E090E0A0E0B0E480939A0B90934A
:105980009B0BA0939C0BB0939D0B1093A40C0093C6
:10599000A30C80E590E09093A20C8093A10C109250
:1059A000E00B1092DF0B1092990B1092980B109253
:1059B000DD0B1092DC0BE8E4FBE08491882341F0DE
:1059C0009091C00095FFFCCF8093C6003196F5CF33
:1059D000E6E2FBE08491882341F09091C00095FFBE
:1059E000FCCF8093C6003196F5CF8091C00085FF33
:1059F000FCCF8AE08093C600E0960FB6F894DEBF35
:105A00000FBECDBFDF91CF911F910F91FF90EF900F
:105A1000DF90CF90BF90AF9036CDCF93DF93CDB7CF
:105A2000DEB72C970FB6F894DEBF0FBECDBF84E66D
:105A300090E09C878B8786E590E3A8E3B0E08983BC
:105A40009A83AB83BC8344E0BE016B5F7F4FCE0182
:105A50000B96DDDC43E050E0BE016B5F7F4FCE0173
:105A600001960E9441C8892B09F016C140E16EE4FD
:105A700073E1CE010B96CBDC40E16AEE78E1CE011A
:105A80000B96C5DC40E161E773E1CE010B96BFDC0C
:105A90000E94F66144E062EE78E1CE010B96B7DC3D
:105AA00044E066EE78E1CE010B96B1DC44E06EEFA7
:105AB00078E1CE010B96ABDC44E062E079E1CE0107
:105AC0000B96A5DC44E06AEF78E1CE010B969FDCF3
:105AD00044E06EED78E1CE010B9699DC44E06AED8E
