:100000000C94590C0C948A0C0C948A0C0C948A0C49
:100010000C948A0C0C948A0C0C948A0C0C948A0C08
:100020000C948A0C0C948A0C0C948A0C0C948A0CF8
:100030000C948A0C0C948A0C0C948A0C0C948A0CE8
:100040000C948A0C0C9433610C948A0C0C948A0CDA
:100050000C948A0C0C948A0C0C94F4310C94F22FAE
:100060000C948A0C0C9490270C948A0C0C948A0C97
:100070000C948A0C0C948A0C0C948A0C0C948A0CA8
:100080000C948A0C0C948A0C0C948A0C0C948A0C98
:100090000C948A0C0C948A0C0C948A0C0C948A0C88
:1000A0000C948A0C0C948A0C0C948A0C0C948A0C78
:1000B0000C948A0C0C948A0C0C948A0C0C948A0C68
:1000C0000C948A0C0C948A0C0C948A0C0C94B858DE
:1000D0000C948F580C948A0C0C948A0C0C948A0CF7
:1000E0000C948A0C60326D3289329632B032BD3255
:1000F000D732D9329A549D548C5490549654D45437
:10010000A154A554AB54AF54B354B954BD54C154C5
:10011000D454C754CB54CF54A859AD59B259BC5933
:10012000C6593F5AD059D859E059EA59F459FE599D
:100130000D5A175A3F5A215A2B5A355A084AD73B5B
:100140003BCE016E84BCBFFDC12F3D6C74319ABDA6
:1001500056833DDA3D00C77F11BED9E4BB4C3E91CA
:100160006BAAAABE000000803F05A84CCDB2D44EB9
:10017000B93836A9020C50B9918688083CA6AAAABB
:100180002ABE000000803F004E414E494E4954595E
:10019000494E46CDCCCC3D0AD7233C17B7D1387752
:1001A000CC2B329595E6241FB14F0A000020410068
:1001B00000C84200401C4620BCBE4CCA1B0E5AAEB2
:1001C000C59D7400407A10F35A00A0724E180900C1
:1001D00010A5D4E80000E87648170000E40B5402AC
:1001E0000000CA9A3B000000E1F5050000809698E7
:1001F00000000040420F000000A086010000001037
:100200002700000000E80300000000640000000078
:10021000000A00000000000100000000002C76D859
:1002200088DC674F0823DFC1DFAE59E1B1B796E53F
:10023000E3E453C63AE651997696E8E6C28426EBA3
:10024000898C9B62ED407C6FFCEFBC9C9F40F2BAB6
:10025000A56FA5F490055A2AF75C936B6CF9676D4E
:10026000C11BFCE0E40D47FEF520E6B500D0ED90A3
:100270002E0300943577050080841E080000204E70
:100280000A000000C80C333333330F986E12831109
:1002900041EF8D2114893BE65516CFFEE6DB18D1E0
:1002A000844B381BF77C1D901DA4BBE424203284B2
:1002B000725E228100C9F124ECA1E53D272F005395
:1002C00044207072696E74696E672062797465206B
:1002D000004E6F74205344207072696E74696E67AB
:1002E000002E0044656C6574696F6E206661696CF0
:1002F00065642C2046696C653A200046696C65206F
:1003000064656C657465643A002E006F70656E20DC
:100310006661696C65642C2046696C653A20005002
:100320004944204175746F74756E652066696E6905
:1003300073686564212050757420746865204B7063
:100340002C204B6920616E64204B6420636F6E73B8
:1003500074616E747320696E746F20436F6E66698A
:100360006775726174696F6E2E6800504944204150
:1003700075746F74756E65206661696C65642120A3
:1003800074696D656F75740020403A006F6B20547E
:100390003A006F6B20423A00504944204175746F17
:1003A00074756E65206661696C6564212054656DA5
:1003B000706572617475726520746F6F206869670B
:1003C0006800204B643A2000204B693A2000204B03
:1003D000703A200020436C617369632050494420C7
:1003E000002054753A2000204B753A2000206D61A2
:1003F000783A2000206D696E3A200020643A20008F
:1004000020626961733A2000486F74656E64206FE2
:100410006666736574733A002200556E6B6E6F7773
:100420006E20636F6D6D616E643A202200486F74B8
:10043000656E64206F6666736574733A007A5F6DEB
:10044000696E3A2000795F6D696E3A2000785F6DC1
:1004500061783A2000785F6D696E3A20005A3A0060
:10046000593A0020436F756E7420583A2000453A7F
:10047000005A3A00593A00583A004649524D5741FD
:1004800052455F4E414D453A4D61726C696E205642
:10049000313B20537072696E7465722F6772626CA3
:1004A000206D617368757020666F722067656E36A7
:1004B000204649524D574152455F55524C3A687457
:1004C00074703A2F2F7777772E6D656E64656C2D7B
:1004D00070617274732E636F6D2050524F544F438E
:1004E0004F4C5F56455253494F4E3A312E30204DB6
:1004F000414348494E455F545950453A3344205092
:1005000072696E7465722045585452554445525F65
:10051000434F554E543A320A002042403A002040A0
:100520003A00202F0020423A00202F006F6B205409
:100530003A002569206D696E2C202569207365635A
:1005400000456E642066696C65206C6973740042B6
:100550006567696E2066696C65206C69737400500C
:1005600072696E7465722073746F70706564206454
:10057000756520746F206572726F72732E204669E4
:100580007820746865206572726F7220616E6420D5
:10059000757365204D39393920746F207265737415
:1005A0006172742E202854656D7065726174757265
:1005B000652069732072657365742E2053657420FD
:1005C00069742061667465722072657374617274F7
:1005D000696E6729006F6B004E6F204C696E652055
:1005E0004E756D6265722077697468206368656313
:1005F0006B73756D2C204C617374204C696E653A79
:1006000020004E6F20436865636B73756D207769BA
:100610007468206C696E65206E756D6265722C2041
:100620004C617374204C696E653A200063686563A1
:100630006B73756D206D69736D617463682C204CEC
:10064000617374204C696E653A20004C696E6520B8
:100650004E756D626572206973206E6F74204C61F7
:100660007374204C696E65204E756D6265722B3116
:100670002C204C617374204C696E653A20004D311A
:10068000313000256920686F757273202569206DEF
:10069000696E7574657300446F6E65207072696E63
:1006A00074696E672066696C65005072696E746566
:1006B000722073746F707065642064756520746F48
:1006C000206572726F72732E204669782074686597
:1006D000206572726F7220616E6420757365204DA3
:1006E00039393920746F20726573746172742E20E9
:1006F0002854656D70657261747572652069732028
:1007000072657365742E2053657420697420616668
:100710007465722072657374617274696E67290002
:100720006F6B004E6F204C696E65204E756D626573
:1007300072207769746820636865636B73756D2CCC
:10074000204C617374204C696E653A20004E6F2016
:10075000436865636B73756D2077697468206C6995
:100760006E65206E756D6265722C204C617374200D
:100770004C696E653A2000636865636B73756D2024
:100780006D69736D617463682C204C617374204CC7
:10079000696E653A20004C696E65204E756D626524
:1007A00072206973206E6F74204C617374204C69E1
:1007B0006E65204E756D6265722B312C204C617315
:1007C00074204C696E653A20004572726F723A006F
:1007D0004D313130006572726F72207772697469C1
:1007E0006E6720746F2066696C6500205A3A00209D
:1007F000593A0020583A00656E6473746F70732024
:100800006869743A20006563686F3A00446F6E65EA
:1008100020736176696E672066696C652E006F6B68
:10082000004D32390053657474696E6773205374D8
:100830006F726564005A323A00457874656E64657B
:1008400072204F66667365743A0059323A004578F3
:1008500074656E646572204F66667365743A0058FD
:10086000323A005365636F6E64657279204D61782A
:1008700020506F733A002044002049002020204D72
:100880003330312050005049442073657474696ED0
:1008900067733A00205A0020590020204D3230362C
:1008A000205800486F6D65206F6666736574202858
:1008B0006D6D293A00204500205A00205800204242
:1008C0000020540020204D32303520530041647602
:1008D000616E636564207661726961626C65733A0A
:1008E00020533D4D696E20666565647261746520B4
:1008F000286D6D2F73292C20543D4D696E20747224
:100900006176656C20666565647261746520286D2A
:100910006D2F73292C20423D6D696E696D756D20B8
:100920007365676D656E742074696D6520286D73DD
:10093000292C20583D6D6178696D756D20585920BE
:100940006A65726B20286D6D2F73292C20205A3D0B
:100950006D6178696D756D205A206A65726B20280B
:100960006D6D2F73292C2020453D6D6178696D7563
:100970006D2045206A65726B20286D6D2F732900EC
:1009800020540020204D32303420530041636365F1
:100990006C65726174696F6E3A20533D6163636583
:1009A0006C65726174696F6E2C20543D726574724F
:1009B00061637420616363656C65726174696F6EF5
:1009C00000204500205A0020590020204D323031AF
:1009D0002058004D6178696D756D20416363656CC9
:1009E00065726174696F6E20286D6D2F7332293ABC
:1009F00000204500205A0020590020204D3230337D
:100A00002058004D6178696D756D2066656564726A
:100A10006174657320286D6D2F73293A002045009D
:100A2000205A0020590020204D393220580053749C
:100A30006570732070657220756E69743A00537426
:100A40006F7265642073657474696E677320726574
:100A5000747269657665640048617264636F646589
:100A6000642044656661756C742053657474696EA6
:100A70006773204C6F61646564006563686F3A005A
:100A80006563686F3A00202D20496E76616C696459
:100A9000206578747275646572206E756D6265721A
:100AA00020210070012C0190012701B0012201C01A
:100AB000011D01F00118011002130130020E016046
:100AC00002090190020401C002FF000003FA004085
:100AD00003F5008003F000D003EB002004E6007073
:100AE00004E100E004DC004005D700C005D200406E
:100AF00006CD00D006C8008007C3003008BE00F055
:100B000008B900C009B400B00AAF00B00BAA00D009
:100B10000CA500000EA000500F9B00C010960050C6
:100B200012910000148C00C0158700B0178200B02D
:100B3000197D00D01B7800001E730040206E0090CD
:100B4000226900F024640040275F0090295A00E0E9
:100B50002B5500102E500020304B0010324600E084
:100B600033410090353C001037370070383200A018
:100B7000392D00B03A2800A03B2300603C1E001035
:100B80003D1900903D1400103E0F00703E0A00C059
:100B90003E0500003F00003A204578747275646598
:100BA00072207377697463686564206F66662E20AF
:100BB0004D415854454D50207472696767657265A0
:100BC000642021003A204578747275646572207340
:100BD00077697463686564206F66662E204D494EA0
:100BE00054454D50207472696767657265642021B1
:100BF0000054656D70657261747572652068656119
:100C000074656420626564207377697463686564E1
:100C1000206F66662E204D415854454D5020747209
:100C2000696767657265642021210054656D706590
:100C300072617475726520686561746564206265AF
:100C400064207377697463686564206F66662E201C
:100C50004D494E54454D5020747269676765726501
:100C600064202121004572726F723A002020506C7E
:100C7000616E6E65724275666665724279746573FF
:100C80003A20002046726565204D656D6F72793A95
:100C90002000446563203233203230313900436F05
:100CA0006D70696C65643A200054656E6C6F670006
:100CB000207C20417574686F723A2000446563207F
:100CC000323320323031392031373A35353A343108
:100CD00000204C61737420557064617465643A201F
:100CE00000312E302E30004D61726C696E20002074
:100CF000536F667477617265205265736574002066
:100D00005761746368646F6720526573657400206F
:100D100042726F776E206F75742052657365740030
:100D20002045787465726E616C205265736574003D
:100D3000506F77657255700073746172740047323A
:100D400038205800000048C20000000000000000E9
:100D50000000A04000002041000000402200656E1D
:100D6000717565696E6720220020746F6F206C6F4B
:100D70006E6720657874727573696F6E2070726526
:100D800076656E7465640020636F6C6420657874AA
:100D9000727573696F6E2070726576656E746564C6
:100DA000006563686F3A0000002100240027002AD4
:100DB000002D003000330001010000040107010A8A
:100DC0000100002200250028002B002E00310034F5
:100DD0000002010000050108010B010000200023B2
:100DE00000260029002C002F003200000100000323
:100DF000010601090105050505070508080808029F
:100E00000202020A0A0808040404040101010101A3
:100E10000101010303030303030303040707070C92
:100E20000C0C0C0C0C0C0C02020202060606060648
:100E30000606060B0B0B0B0B0B0B0B0102102020F5
:100E4000080810204010204080020102010804021E
:100E50000101020408102040808040201008040294
:100E600001800402018040201008040201080402ED
:100E700001010204081020408001020408102040F3
:100E80008000000A0B02090C0D0E08070304010084
:100E90000000000000000000000000000000000052
:100EA000000000000000000000000000001211100F
:100EB0000000000000000000000000000000000032
:100EC0000000000000000053442063617264206F42
:100ED0006B006F70656E526F6F74206661696C6530
:100EE0006400766F6C756D652E696E69742066613D
:100EF000696C6564004572726F723A0053442069F0
:100F00006E6974206661696C006563686F3A0022DF
:100F100000656E717565696E672022006563686F94
:100F20003A004D3234004D32332025730061757420
:100F30006F25692E670024F4D43050C38E20C2A2DE
:100F40004017828B7011127A910D816CD90AA861B9
:100F5000E108C7586607615143061E4B5D05C14550
:100F6000A7041A411104093D980371393103403631
:100F7000DB0265339102D4305402802E1D02632CB3
:100F8000EE01752AC501B028A001102781018F2527
:100F900064012B244B01E0223401AC211F018D2080
:100FA0000D01801FFC00841EED00971DDF00B81CA2
:100FB000D200E61BC600201BBC00641AB200B219A6
:100FC000A8000A19A0006A189900D11791004017CB
:100FD0008B00B516840031167E00B31579003A15E2
:100FE0007300C7146F0058146A00EE13660088136C
:100FF000630025135E00C7125B006C1257001512C8
:101000005400C111510070114F0021114B00D61036
:1010100049008D1047004610440002104200C00FE6
:101020004000800F3E00420F3C00060F3B00CB0EFD
:101030003800930E37005C0E3500270E3400F30D98
:101040003200C10D3100900D3000600D2E00320DC8
:101050002D00050D2C00D90C2B00AE0C2900850CA1
:1010600029005C0C2700350C27000E0C2600E80B2D
:101070002400C40B2400A00B23007D0B23005A0B7B
:101080002100390B2100180B2000F80A1F00D90A93
:101090001E00BB0A1E009D0A1D00800A1D00630A77
:1010A0001C00470A1B002C0A1B00110A1A00F70932
:1010B0001A00DD091900C4091900AB0919009209C9
:1010C00017007B091800630917004C091600360940
:1010D0001600200916000A091500F5081500E00899
:1010E0001400CC081400B8081400A40814009008D8
:1010F00013007D0812006B08130058081200460800
:101100001200340811002308110012081100010810
:101110001100F0071000E0071000D0071000C00712
:101120001000B0070F00A107100091070E00830701
:101130000F0074070F0065070E0057070E004907E0
:101140000E003B070D002E070E0020070D001307B1
:101150000D0006070D00F9060C00ED060D00E00677
:101160000C00D4060C00C8060C00BC060C00B0062F
:101170000C00A4060B0099060C008D060B008206DD
:101180000B0077060B006C060B0061060A00570681
:101190000B004C060A0042060A0038060A002E061A
:1011A0000A0024060A001A060A00100609000706AB
:1011B0000A00FD050900F4050900EB050900E20538
:1011C0000900D9050900D0050900C7050900BE05B9
:1011D0000900B5050800AD050800A50509009C0536
:1011E0000800940508008C050800840508007C05AB
:1011F0000800740508006C050700650508005D051A
:101200000700560508004E05070047050700400582
:10121000080038050700310507002A0507002305E7
:1012200007001C050600160507000F050700080546
:10123000060002050700FB040600F5040700EE04A3
:101240000600E8040600E2040700DB040600D504FB
:101250000600CF040600C9040600C3040600BD044E
:101260000600B7040600B1040500AC040600A6049D
:101270000600A00405009B040600950405009004E8
:1012800006008A04050085040500800406007A042F
:10129000050075040500700405006B040500660474
:1012A0000500610405005C040500570405005204B4
:1012B00005004D04050048040500430405003E04F4
:1012C00004003A04050035040500300404002C0431
:1012D000050027040400230405001E0404001A046A
:1012E000040016040500110404000D0404000904A0
:1012F00005000404040000040400FC030400F803D7
:101300000400F4030400F0030400EC030400E80309
:101310000400E4030400E0030400DC030400D80339
:101320000400D4030400D0030400CC030400C80369
:101330000300C503030024F404D9201BC40C5C0E75
:101340009804C4095F0265077101F405F900FB0404
:10135000B30048048700C103690058035500030324
:101360004500BE023A008402310053022A002902DD
:10137000250004022000E4011C00C8011900AF018F
:10138000170098011400840113007101100061011D
:10139000100051010E0043010D0036010B002B011E
:1013A0000B0020010B00150109000C0109000301CD
:1013B0000800FB000800F3000800EB000700E40051
:1013C0000600DE000600D8000600D2000600CC00B1
:1013D0000500C7000500C2000500BD000400B900FB
:1013E0000400B5000400B1000400AD000400A90031
:1013F0000400A5000300A20003009F0004009B005E
:101400000300980003009500020093000300900081
:1014100003008D0002008B0003008800020086009C
:10142000020084000300810002007F0002007D00B2
:1014300002007B00020079000200770001007600C4
:1014400002007400020072000100710002006F00CF
:1014500002006D0001006C0002006A0001006900DA
:1014600002006700010066000100650001006400E1
:1014700002006200010061000100600001005F00E5
:1014800002005D0001005C0001005B0001005A00E9
:1014900001005900010058000100570001005600EA
:1014A00001005500010054000100530000005300EA
:1014B00001005200010051000100500001004F00E6
:1014C00001004E0000004E0001004D0001004C00E4
:1014D00001004B0000004B0001004A0001004900E0
:1014E00001004800000048000100470001004600DC
:1014F00000004600010045000000450001004400D6
:1015000001004300000043000100420000004200CF
:1015100001004100000041000100400001003F00C7
:1015200000003F0001003E0000003E0001003D00C1
:1015300000003D0001003C0000003C0000003C00B9
:1015400001003B0000003B0001003A0000003A00AF
:1015500001003900000039000100380000003800A7
:10156000000038000100370000003700010036009D
:101570000000360000003600010035000000350094
:101580000000350001003400000034000000340089
:10159000010033000000330000003300010032007E
:1015A0000000320000003200010031000000310074
:1015B0000000310001003000000030000000300069
:1015C00001002F0000002F0000002F0000002F005E
:1015D00001002E0000002E0000002E0001002D0052
:1015E00000002D0000002D0000002D0001002C0047
:1015F00000002C0000002C0000002C0001002B003B
:1016000000002B0000002B0000002B0001002A002E
:1016100000002A0000002A0000002A000100290022
:101620000000290000002900000029000000290016
:101630000100280000002800000028000000280009
:1016400000002800010027000000270000002700FC
:1016500000002700000027000100260000002600EF
:1016600000002600000026000000260001002500E2
:1016700000002500000025000000250000002500D6
:1016800000002500010024000000240000002400C8
:1016900000002400000024000100230000002300BB
:1016A00000002300000023000000230000002300AE
:1016B00000002300010022000000220000002200A0
:1016C0000000220000002200000022000100210092
:1016D0000000210000002100000021000000210086
:1016E0000000210000002100010020000000200077
:1016F000000020000000200000002000000020006A
:10170000000020000000200001001F0000001F005A
:1017100000001F0000001F0000001F0000001F004D
:1017200000001F0001001E0000001E0000001E003F
:1017300000001E0000007C3C3E5E2B3D3F2F5B5DA9
:101740003B2C2A225C0020423A0020453A00543AC1
:101750000020573A0020453A00543A004E65772061
:1017600056616C75652045727220002573005772B2
:101770006974696E6720746F2066696C653A200031
:101780002E006F70656E206661696C65642C204662
:10179000696C653A20002E006F70656E2066616985
:1017A0006C65642C2046696C653A200046696C655E
:1017B0002073656C6563746564002053697A653ACB
:1017C000200046696C65206F70656E65643A200084
:1017D0002E006F70656E206661696C65642C204612
:1017E000696C653A2000526573656E643A20006F3B
:1017F0006B005072696E7465722068616C74656408
:101800002E206B696C6C28292063616C6C656421E7
:10181000005072696E7465722073746F70706564C5
:101820002064756520746F206572726F72732E204C
:1018300046697820746865206572726F7220616EE7
:101840006420757365204D39393920746F207265B5
:1018500073746172742E202854656D7065726174A2
:101860007572652069732072657365742E205365E7
:101870007420697420616674657220726573746186
:101880007274696E6729000080CA430000D2430069
:1018900000CD43000048C20000000000000000FF2F
:1018A000FFFF0080E3430000D2430000CD436CB350
:1018B0004BB311241FBECFEFD1E2DEBFCDBF00E09E
:1018C0000CBF1AE0A0E0B2E0EAE3FAE801E00BBFE7
:1018D00002C007900D92A03BB107D9F728E1A0EB19
:1018E000BAE001C01D92AA3AB207E1F71CE0C8E5D0
:1018F000DCE000E006C021970109802FFE010E9474
:1019000086C3C735D10780E00807A9F70E9490A9D0
:101910000C940CC50C9400002F923F924F925F9252
:101920006F927F928F929F92AF92BF92CF92DF92EF
:10193000EF92FF920F931F93CF93DF93CDB7DEB754
:10194000CF56D1090FB6F894DEBF0FBECDBF2DB76D
:101950003EB7AC963FAF2EAFAC9780916C0B88230F
:1019600041F00E94CF8A1092BB101092BA101092D0
:101970006C0B87E40E94F39D782E882309F474C0D1
:101980000E94199E0E9413C16430710509F45CC065
:10199000E4F46230710509F444C00CF04AC077FFEA
:1019A00002C00C945921A0E8AA2EAFE4BA2EA3ECF1
:1019B000CA2EA7ECDA2E86017501A6019501C60193
:1019C000B5010E9442880C9459216A35710509F4C9
:1019D00042C06CF46C31710511F00C94592160E037
:1019E00070E080E090E00E94FDA10C9459216B35DD
:1019F0007105A9F16C35710511F00C945921F0E8CD
:101A0000AF2EFFE4BF2EF3ECCF2EF7ECDF2E8601D6
:101A10007501A6019501C601B5010E94A3790C9438
:101A200059218091520B811104C00E94A19781E03D
:101A300007C08091520B811107C00E94A19780E0DE
:101A40000E94B48F0C94A62460E070E0CB010E9449
:101A500091A10C94592110923E180C94592181E0C7
:101A600080933E180C9459218DE40E94F39D8823A5
:101A700011F40C940B210E94199E0E9413C16C3822
:101A8000710509F42AC70CF0CBC06A32710509F45C
:101A9000FAC60CF068C06731710509F4E8C30CF0B0
:101AA00041C06231710511F40C94701524F577FF73
:101AB00002C00C945921623071050CF4C1C161312E
:101AC000710511F00C9459215F9847988A989FB737
:101AD000F894809108018E7F809308019FBF9FB783
:101AE000F894809108018B7F809308019FBF8D98A7
:101AF00012980C9459216431710509F461C30CF4F6
:101B0000A5C16531710509F4AEC36631710511F0E7
:101B10000C9459211092BB101092BA101092BC1064
:101B20000C9459216B31710509F4E4C33CF469311B
:101B3000710509F4CBC30CF4B3C3CEC36E31710588
:101B400009F461C434F46C31710509F427C40C94B0
:101B500059216F31710509F437C66032710509F4F6
:101B6000C4C50C9459216936710509F4C7C624F51A
:101B70006335710509F4AFC77CF46135710509F46B
:101B8000A2C70CF0A4C76035710511F00C9459215F
:101B9000999AA19A0C9459216535710509F4D3C716
:101BA0000CF49EC76C35710509F4E4C768367105FD
:101BB00009F484C60C9459216337710511F40C940F
:101BC0005F169CF46B36710509F477C70CF445C7B2
:101BD0006D36710509F43BC76237710511F00C943D
:101BE0005921E7E7F4E00C9487166737710509F48B
:101BF00023C13CF46537710511F40C946E160C94F6
:101C000059216837710511F40C945B176937710518
:101C100011F00C94592181E00E94B7600C94592175
:101C20006D3532E0730711F40C94F21D0CF07AC09C
:101C30006D3D710511F40C94BE197CF56C3C710579
:101C400011F40C944818ACF4693C710511F40C942F
:101C500008186B3C710511F40C942A186E3B710541
:101C600011F00C9459218FEF9FEF0E9413860C9472
:101C700059216E3C710511F40C94CA1814F40C949B
:101C80006A186A3D710511F40C94E8186C3D7105F1
:101C900011F40C94AF190C945921603951E0750777
:101CA00011F40C94E71DFCF46D3291E0790711F406
:101CB0000C94CD195CF4623E710511F00C9459211D
:101CC00081E090E00E9442980C9459216E32B1E07C
:101CD0007B0711F40C94931A6F32714011F40C9439
:101CE000A71A0C945921653FF1E07F0711F40C9479
:101CF000EA1D4CF4643F714011F00C9459210E948C
:101D0000BB2B0C945921663F41E0740711F40C94ED
:101D1000ED1D673F714011F00C9459210E94E52799
:101D20000C945921663F83E0780711F40C94BC1F92
:101D30000CF046C06B3EA3E07A0711F40C94081F28
:101D400094F4673EE3E07E0711F40C94F620693EBC
:101D5000F3E07F0711F40C94E31E603A734011F036
:101D60000C945921F9C4633F33E0730711F40C94C8
:101D70000B1FCCF46C3E734011F00C945921812C54
:101D8000912C54017501640100E010E020E030E086
:101D900040E050E060E070E0CB010E94762F1092AE
:101DA00014180C945921643F83E0780711F40C94C3
:101DB000461F653F734011F40C94811F0C94592108
:101DC0006E3FA3E07A0711F40C949D20B4F4683FB1
:101DD000E3E07E0711F40C94F41F14F40C94D81F64
:101DE000693F23E0720711F40C940C206D3F73409F
:101DF00011F40C9427200C945921683044E07407A6
:101E000011F40C94C8205CF46730744011F00C9409
:101E1000592180E090E00E9442980C945921693049
:101E200094E0790711F40C94CB206031744011F4E4
:101E30000C94CE200C945921E1EEF2E00C9466173C
:101E400081E090E00E9442980C94592183E50E9421
:101E5000F39D882341F00E94199E0E9413C1709344
:101E6000C30A6093C20A81E191E1909310118093BB
:101E70000F1181E090E09093B0128093AF12109216
:101E8000B2121092B11240E050E0BA0185E191E146
:101E90000E94AE7280910F11909110112BE1FC0104
:101EA0003496DE01159601900D922A95E1F7FC011A
:101EB000828193819C838B8386EC92E09A838983D1
:101EC000BE016F5F7F4F81EC96E00E944889CE0192
:101ED00001960E9467709090B112C92CD090B212F6
:101EE00080911811882309F446C08250823030F462
:101EF0008FE28093BD101092BE103DC06091211101
:101F000070912211809123119091241140E00E9440
:101F10003572882381F120912511F0E22F9F9001E5
:101F20001124C9018651924F892B29F180E090E05C
:101F3000E0E05EE2DC01A20FB31FA651B24F4C916C
:101F4000403289F08830910539F4AE2FB0E0A954C1
:101F5000BF4E16965C93EF5FAE2FB0E0A954BF4E14
:101F600016964C93EF5F01968B30910519F7F0E0D0
:101F7000E954FF4E16828091C20A9091C30A892BC0
:101F800059F48AEF92E00E94D72785E093E00E94FF
:101F9000D72701E010E007C081E193E00E94D72736
:101FA0008CE193E0F4CF88E293E00E94D5274AE0E9
:101FB000B801CE0101960E94045889819A810E943D
:101FC000D527CE0101960E94A45781E394E00E9498
:101FD000D5270E94C92787E393E00E94D5274AE0CE
:101FE000B801CE0101960E94045889819A810E940D
:101FF000D527CE0101960E94A45781E394E00E9468
:10200000D5270E94C9270F5F1F4F0730110559F6CA
:10201000E12CF12C00E010E072E0A72EB12C9A9494
:102020009BAEE6EC8E2EE2E09E2EEC14FD0409F44D
:102030008EC021E131E13093101120930F11B09245
:10204000B012A092AF128BAD8E1990E09093B212A5
:102050008093B11240E050E0BA0185E191E10E9425
:10206000AE7280910F1190911011FC013496DE0137
:1020700015962BE101900D922A95E1F7DC0112965D
:102080008D919C9113979C838B839A828982BE0148
:102090006F5F7F4F81EC96E00E944889CE010196E8
:1020A0000E9467706DEB70E1CE0180960E943758F8
:1020B0008091E510811143C08CA19DA1892B09F469
:1020C0003EC0BE01605E7F4FCE0101960E942F5838
:1020D0002DB63EB64D815E812A0121E0421A51089B
:1020E0008DB79EB7841B950B0FB6F8949EBF0FBE9D
:1020F0008DBFADB7BEB711963D014115510541F0F9
:102100006114710429F0B301CE0101960E9494601C
:10211000F301CF01861997098415950514F40C94E1
:102120005C21772473940FB6F8943EBE0FBE2DBE8B
:10213000CE0101960E94A45771100C946421CE0127
:1021400080960E94A4575FEFE51AF50A6ECF86E4E9
:1021500093E00E94D5276091C20A7091C30A4AE0B9
:10216000CE0101960E94045889819A810E94D52748
:10217000CE0101960E94A4570E94C9278091C20AED
:102180009091C30A019646E0489F9001499F300D07
:1021900011242017310754F08FE593E00E94D727D0
:1021A0008CE693E00E94D7270C9459218AE793E0AC
:1021B0000E94D72787E893E00E94D7270C945921E3
:1021C000EFE4F5E08491882341F09091C00095FF01
:1021D000FCCF8093C6003196F5CF8091C00085FF7B
:1021E000FCCF8AE08093C6001092B0121092AF121A
:1021F00040E050E0BA0184EF90E10E94AE728BE1C2
:10220000E4EFF0E1DE01159601900D928A95E1F779
:102210008091F2109091F3109C838B8386EC92E076
:102220009A838983BE016F5F7F4F81EC96E00E94A5
:102230004889CE0101960E946770E1E4F5E084913F
:10224000882341F09091C00095FFFCCF8093C60099
:102250003196F5CF8091C00085FFFCCF8AE0809356
:10226000C6000C9459210E94215F0C9459210091C1
:10227000570B1091580B0C5F1F4F6AE270E0C801BA
:102280000E94BAC4009719F0FC013197108220E037
:1022900030E0A90161E0C8010E94F98B0C9459213A
:1022A0008091BC10882331F081E090E09093BB10C6
:1022B0008093BA100E94E62F6093C60A7093C70AF3
:1022C0008093C80A9093C90A0C94592181E090E048
:1022D0000E9442980C9459218091BC10882311F4DB
:1022E0000C94592183E50E94F39D81110C94E72100
:1022F0000C9459218091BC10882309F439C0EFEB6C
:10230000F2E08491882341F09091C00095FFFCCFCA
:102310008093C6003196F5CF6091E8107091E91076
:102320008091EA109091EB104AE00E94E05BEDEBA7
:10233000F2E08491882341F09091C00095FFFCCF9A
:102340008093C6003196F5CF6091EC107091ED103E
:102350008091EE109091EF104AE00E94E05B809136
:10236000C00085FFFCCF8AE08093C6000C94592101
:10237000E1EDF2E08491882341F09091C00095FF57
:10238000FCCF8093C6003196F5CF8091C00085FFC9
:10239000FCCF8AE08093C6000C9459218091570BA2
:1023A0009091580B6AE270E004960E94BAC48C01C6
:1023B000892BE1F020916F0B3091700B40E6429F2A
:1023C000C001439F900D11246EE470E08A59934F31
:1023D0000E94BAC460E270E00E94BAC40196909371
:1023E000580B8093570BF801319710828091570B4F
:1023F0009091580B20E030E0A90160E004960E9423
:10240000F98B0C9459218091BC10882311F40C9401
:1024100059210E94CF8A8091570B9091580B6AE204
:1024200070E004960E94BAC48C01892BE1F02091DF
:102430006F0B3091700B40E6429FC001439F900D9F
:1024400011246EE470E08A59934F0E94BAC460E28E
:1024500070E00E94BAC401969093580B8093570B7A
:10246000F801319710820091570B1091580B4801D9
:1024700084E0880E911C8091BC10882311F40C9488
:1024800059218FE892E10E942E251092BB101092E4
:10249000BA10DE0111967D01CD010E946F7080EFB0
:1024A00090E19093101180930F11F80184818F3285
:1024B00009F08BC06FE270E0C4010E94BAC48C01C5
:1024C0000F5F1F4F6AE0662E0115110509F483C0E6
:1024D0006FE270E0C8010E94BAC46C01009709F471
:1024E0007BC00817190708F077C05C01A01AB10A71
:1024F000A501B801CE0180960E94E3C4E0E2F0E0BD
:10250000EC0FFD1FEA0DFB1D10828E01005E1F4FB8
:10251000F8018191882339F09091C00095FFFCCF9C
:102520008093C600F6CF8091C00085FFFCCF6092FB
:10253000C60060910F11709110116115710511F0B5
:102540006C5F7F4F21E0AE01405E5F4FCE0105968C
:102550000E94B278811131C0EBE0F3E084918823CE
:1025600071F09091C00095FFFCCF8093C60031962A
:10257000F5CF9091C00095FFFCCF8093C600D801A5
:102580008D918D018111F5CFE9E0F3E084918823ED
:1025900041F09091C00095FFFCCF8093C60031962A
:1025A000F5CF8091C00085FFFCCF8AE08093C60004
:1025B000C7010E9467700C945921F0921011E092AB
:1025C0000F1186010F5F1F4F7FCF81E191E1909343
:1025D000101180930F11840160910F1170911011EF
:1025E0006115710511F06C5F7F4F18A21BA222E0EC
:1025F000A801CE0180960E94B2788823F1F0CE0126
:1026000080960E94165D8823C1F06CA57DA58EA5DD
:102610009FA541E00E943572882379F0E8A9B0E2D5
:10262000EB9FF0011124E651F24F309731F085EE27
:1026300080831BA20E94F571782ECE0180960E94A5
:102640003C26772009F1EBEFF2E08491882341F0FA
:102650009091C00095FFFCCF8093C6003196F5CFD6
:10266000F8018191882339F09091C00095FFFCCF4B
:102670008093C600F6CF1092E8101092E9101092E5
:10268000EA101092EB102CC0E3EEF2E08491882364
:1026900041F09091C00095FFFCCF8093C600319629
:1026A000F5CFF8018191882339F09091C00095FF12
:1026B000FCCF8093C600F6CFE1EEF2E08491882350
:1026C00041F09091C00095FFFCCF8093C6003196F9
:1026D000F5CF8091C00085FFFCCF8AE08093C600D3
:1026E000C7010E9467700C9459218091BA10909193
:1026F000BB10019721F40E9425610E94CF8A0091AE
:10270000570B1091580B0C5F1F4F6AE270E0C80125
:102710000E94BAC4009719F0FC013197108220E0A2
:1027200030E0A90161E0C8010E94F98B8091BC10E2
:10273000882331F081E090E09093BB108093BA1031
:102740000E94E62F6093C60A7093C70A8093C80A56
:102750009093C90A0C9459218091570B9091580B72
:102760006AE270E005960E94BAC48C01892BE1F000
:1027700020916F0B3091700B40E6429FC001439F48
:10278000900D11246EE470E08A59934F0E94BAC4F0
:1027900060E270E00E94BAC401969093580B809357
:1027A000570BF801319710828091570B9091580B7D
:1027B00021E02093B91020E030E0A90160E0059607
:1027C0000E94F98B0C9459210E94E62F6093CA0A4B
:1027D0007093CB0A8093CC0A9093CD0A0091C60ADD
:1027E0001091C70A2091C80A3091C90A601B710B69
:1027F000820B930B28EE33E040E050E00E9478BF5C
:10280000CA01B9012CE330E040E050E00E9478BFFB
:102810007F936F933F932F9382E395E09F938F93E2
:102820008E010F5F1F4F1F930F930E94ADB9ECE114
:10283000FFE08491EDB7FEB738960FB6F894FEBF6F
:102840000FBEEDBFECE1FFE0882349F09091C0009E
:1028500095FFFCCF8093C60031968491F5CFF801A7
:102860008191882339F09091C00095FFFCCF80932F
:10287000C600F6CF8091C00085FFFCCF8AE0809330
:10288000C6000C94592183E50E94F39D882311F41E
:102890000C9459210E94199E0E9413C18B0180E55E
:1028A0000E94F39D882311F40C9459210F3F1105C8
:1028B00009F010F40C94F8210C94592188E690E06A
:1028C0000E94D59981110C9459216FEF7FEF8FEF02
:1028D0009FEF0E94EC4F0C94592183E50E94F39DD9
:1028E000882311F40C9459210E94199E0E9413C14F
:1028F00070936E0B60936D0B0C94592189E690E0F8
:102900000E94D59981110C945921ECE2F5E0849153
:10291000882341F09091C00095FFFCCF8093C600C2
:102920003196F5CFE0911D0C24E0E29FF0011124D7
:10293000EF56F44F608171818281938141E00E9462
:10294000675CE9E2F5E08491882341F09091C00052
:1029500095FFFCCF8093C6003196F5CFE0911D0C1A
:10296000F0E0EE0FFF1FEB5DF74E60817181072EE7
:10297000000C880B990B0E94E2B941E00E94675C51
:10298000E5E2F5E08491882341F09091C00095FF45
:10299000FCCF8093C6003196F5CF60918D0B70917E
:1029A0008E0B80918F0B9091900B41E00E94675CA1
:1029B000E2E2F5E08491882341F09091C00095FF18
:1029C000FCCF8093C6003196F5CF60916D0B70916E
:1029D0006E0B072E000C880B990B0E94E2B941E0A8
:1029E0000E94675CEEE1F5E08491882341F09091CC
:1029F000C00095FFFCCF8093C6003196F5CFE091E3
:102A00001D0CF0E0EF55F44F608170E080E090E045
:102A10000E94555CE9E1F5E08491882341F09091B2
:102A2000C00095FFFCCF8093C6003196F5CF609132
:102A3000A00B70E080E090E00E94555C8091C000A7
:102A400085FFFCCF8AE08093C6000C94A6248FEF0C
:102A50009FEF0E94D5810C94592183E50E94F39D3C
:102A6000882319F10E94199E20E030E0A9010E94FC
:102A7000DCB987FD0FC00E94199E20E030E04FE7CF
:102A800053E40E94FFC1181644F00E94199E0E9450
:102A900013C105C060E070E002C06FEF70E070939A
:102AA000BE176093BD170C9459218FEF90E090935F
:102AB000BE178093BD170C9459211092BE17109227
:102AC000BD170C9459210E94D39D0C94592110924A
:102AD00042180C94592181E0809342180C9459219A
:102AE00083E50E94F39D8823A1F00E94199E20E0B7
:102AF00030E04AE754E40E9439B40E9419C160935F
:102B000043027093440280934502909346020C94D2
:102B1000592188E50E94F39D81110C94FB2189E5E0
:102B20000E94F39D81110C94FB218AE50E94F39D84
:102B300081110C94FB2185E40E94F39D81110C947A
:102B4000FB210C94272283E50E94F39D0E94199E8D
:102B500020E030E04AE754E40E9439B40E9419C1F1
:102B60006093531870935418809355189093561887
:102B70000C94592182E50E94F39D882329F00E943C
:102B8000199E4B015C0106C0812C912C40E8A42EBB
:102B90004FE3B42E4EEC52E05FAF4EAF09E218E1C6
:102BA00082E39CE09DAF8CAF39EC232E32E1332ED3
:102BB0001BAEAEADBFAD8D91BFAFAEAF0E94F39D6A
:102BC000882309F467C0BBADB33009F058C00E9438
:102BD000199EA50194010E94A2C02B013C0120E096
:102BE00030E040EA51E40E94DCB987FF41C0A30114
:102BF0009201F80160817181828193810E94A2C05B
:102C00006B017C019B01AC0160911E0C70911F0C4B
:102C10008091200C9091210C0E9439B460931E0C7D
:102C200070931F0C8093200C9093210CA7019601A8
:102C3000ACADBDAD6D917D918D919C910E9439B4EB
:102C4000ECADFDAD6083718382839383D1016D917F
:102C50007D918D919C910E94E0B9A70196010E94FF
:102C600039B40E9419C1F101608371838283938317
:102C7000D8014D925D926D927C9213970BC00E9489
:102C8000199EA50194010E94A2C0F801608371837E
:102C900082839383FBADFF5FFBAF0C5F1F4F2CADB7
:102CA0003DAD2C5F3F4F3DAF2CAF34E0230E311CC8
:102CB000F43009F07ECF0E94BB2B0C945921EAE737
:102CC000F4E08491882311F40C9459219091C00070
:102CD00095FFFCCF8093C6003196F3CF8091570BC0
:102CE0009091580B6AE270E005960E94BAC4009772
:102CF00011F40C945921FC01319710820C94592144
:102D00009091C00095FFFCCF8093C60031968491CE
:102D10008111F6CF609115187091161880911718CF
:102D20009091181842E00E94675CE4E7F4E0849117
:102D3000882341F09091C00095FFFCCF8093C6009E
:102D40003196F5CF6091191870911A1880911B185F
:102D500090911C1842E00E94675CE1E7F4E08491E6
:102D6000882341F09091C00095FFFCCF8093C6006E
:102D70003196F5CF60911D1870911E1880911F1823
:102D80009091201842E00E94675CEEE6F4E08491A6
:102D9000882341F09091C00095FFFCCF8093C6003E
:102DA0003196F5CF609121187091221880912318E7
:102DB0009091241842E00E94675CE3E6F4E084917D
:102DC000882341F09091C00095FFFCCF8093C6000E
:102DD0003196F5CF2FB7F8946091F4177091F517ED
:102DE0008091F6179091F7172FBF0E94E2B92091BA
:102DF000291830912A1840912B1850912C180E94B4
:102E0000A2C042E00E94675CE0E6F4E0849188237F
:102E100041F09091C00095FFFCCF8093C6003196A1
:102E2000F5CF2FB7F8946091F8177091F91780914A
:102E3000FA179091FB172FBF0E94E2B920912D182D
:102E400030912E1840912F18509130180E94A2C036
:102E500042E00E94675CEDE5F4E08491882341F054
:102E60009091C00095FFFCCF8093C6003196F5CFBE
:102E70002FB7F8946091FC177091FD178091FE17A1
:102E80009091FF172FBF0E94E2B920913118309125
:102E9000321840913318509134180E94A2C042E079
:102EA0000E94675C8091C00085FFFCCF8AE0809320
:102EB000C6000C94592180E00E94B7600C945921FF
:102EC0009091C00095FFFCCF8093C6008191811145
:102ED000F7CF8091C00085FFFCCF8AE08093C600C9
:102EE000E5E5F4E08491882341F09091C00095FFDE
:102EF000FCCF8093C6003196F5CF659B03C0E2ED11
:102F0000F2E009C0E7EDF2E006C09091C00095FF45
:102F1000FCCF8093C60081918111F7CF8091C000D2
:102F200085FFFCCF8AE08093C600EDE4F4E0849155
:102F3000882341F09091C00095FFFCCF8093C6009C
:102F40003196F5CF649B03C0E2EDF2E009C0E7EDF6
:102F5000F2E006C09091C00095FFFCCF8093C600C0
:102F600081918111F7CF8091C00085FFFCCF8AE06D
:102F70008093C600E5E4F4E08491882341F09091C9
:102F8000C00095FFFCCF8093C6003196F5CF8091AD
:102F9000030181FD03C0E2EDF2E009C0E7EDF2E0DC
:102FA00006C09091C00095FFFCCF8093C600819130
:102FB0008111F7CF8091C00085FFFCCF8AE080931C
:102FC000C600EDE3F4E08491882341F09091C000C5
:102FD00095FFFCCF8093C6003196F5CF4B9B03C085
:102FE000E2EDF2E009C0E7EDF2E006C09091C0002A
:102FF00095FFFCCF8093C60081918111F7CF80911E
:10300000C00085FFFCCF8AE08093C6000C94592154
:1030100099EDE92E92E1F92E0EEC12E024E0D22E89
:10302000D00ED8018D918D010E94F39D882349F027
:103030000E94199E0E9419C1F701608371838283E7
:103040009383F4E0EF0EF11CD012EBCF0E9447699E
:103050000C94592112E3E12E1CE0F12E0EEC12E04B
:1030600084E0D82ED00ED8018D918D010E94F39D61
:10307000882339F00E94199EF7016083718382834F
:103080009383F4E0EF0EF11CD012EDCF0C94592194
:1030900083E50E94F39D882351F00E94199E60935E
:1030A0002A0C70932B0C80932C0C90932D0C84E5A0
:1030B0000E94F39D882311F40C9459210E94199EBB
:1030C00060932E0C70932F0C8093300C9093310CE6
:1030D0000C94592183E50E94F39D882351F00E94AE
:1030E000199E6093460C7093470C8093480C909304
:1030F000490C84E50E94F39D882351F00E94199E9B
:1031000060934A0C70934B0C80934C0C90934D0C35
:1031100082E40E94F39D882361F00E94199E0E9420
:1031200019C16093420C7093430C8093440C9093AC
:10313000450C88E50E94F39D882351F00E94199E5A
:103140006093260C7093270C8093280C9093290C85
:103150008AE50E94F39D882351F00E94199E609396
:10316000220C7093230C8093240C9093250C85E4FF
:103170000E94F39D882311F40C9459210E94199EFA
:1031800060931E0C70931F0C8093200C9093210C65
:103190000C945921A0E6EA2EA8E1FA2E0EEC12E0DA
:1031A000B3E0DB2ED00ED8018D918D010E94F39DEE
:1031B000882339F00E94199EF7016083718382830E
:1031C0009383F4E0EF0EF11CD012EDCF0C94592153
:1031D0008AED90E00E94D59981110C94592188E5DF
:1031E0000E94F39D882381F000911D0C10E00E9445
:1031F000199E000F111F000F111FF801E556FF4E19
:10320000608371838283938389E50E94F39D882381
:1032100081F000911D0C10E00E94199E000F111FFB
:10322000000F111FF801ED55FF4E608371838283FB
:1032300093838AE50E94F39D882381F000911D0C01
:1032400010E00E94199E000F111F000F111FF801BE
:10325000E555FF4E6083718382839383ECE1FFE049
:103260008491882341F09091C00095FFFCCF80931A
:10327000C6003196F5CFEDE2F4E08491882341F069
:103280009091C00095FFFCCF8093C6003196F5CF9A
:1032900010921D0C80911D0C823008F058C0E8E49B
:1032A000F4E08191882339F09091C00095FFFCCF24
:1032B0008093C600F6CFE0911D0C24E0E29FF00160
:1032C0001124E556FF4E608171818281938142E035
:1032D0000E94675C05E913E0F8018191882339F0C9
:1032E0009091C00095FFFCCF8093C600F6CFE0918F
:1032F0001D0C34E0E39FF0011124ED55FF4E608179
:1033000071818281938142E00E94675CD8018D9136
:103310008D01882339F09091C00095FFFCCF8093F8
:10332000C600F4CFE0911D0CB4E0EB9FF001112436
:10333000E555FF4E608171818281938142E00E9458
:10334000675C80911D0C8F5F80931D0CA3CF8091D3
:10335000C00085FFFCCF8AE08093C600AAC783E542
:103360000E94F39D882309F4A4C70E94199E0E941D
:1033700013C170936302609362029BC783E50E944E
:10338000F39D882309F495C70E94199E0E9413C1DA
:1033900070932202609321028CC780E50E94F39D06
:1033A000882351F00E94199E6093160270931702B1
:1033B000809318029093190289E40E94F39D882358
:1033C00081F00E94199E2DEB37E346E05EE30E94F8
:1033D00039B4609312027093130280931402909395
:1033E000150284E40E94F39D882381F00E94199EB7
:1033F0002DEB37E346E05EE30E94A2C060930E022D
:1034000070930F02809310029093110283E40E9444
:10341000F39D882351F00E94199E609300027093DF
:10342000010280930202909303020E94C33AE7E9EB
:10343000F3E08191882339F09091C00095FFFCCF93
:103440008093C600F6CFEAE9F3E08191882339F052
:103450009091C00095FFFCCF8093C600F6CF60919D
:10346000160270911702809118029091190242E0A1
:103470000E94675CEEE9F3E08191882339F0909136
:10348000C00095FFFCCF8093C600F6CF2DEB37E34D
:1034900046E05EE360911202709113028091140283
:1034A000909115020E94A2C042E00E94675CE2EA8D
:1034B000F3E08191882339F09091C00095FFFCCF13
:1034C0008093C600F6CF2DEB37E346E05EE36091D4
:1034D0000E0270910F0280911002909111020E94D1
:1034E00039B442E00E94675CE6EAF3E08191882308
:1034F00039F09091C00095FFFCCF8093C600F6CFC5
:103500006091000270910102809102029091030289
:1035100042E00E94675C8091C00085FFFCCF8AE09A
:103520008093C600C6C683E50E94F39D882319F0E8
:103530000E94199E03C060E070E0CB0160934E0CC6
:1035400070934F0C8093500C9093510CB2C685E44D
:103550000E94F39D882341F00E94199E0E9413C18E
:103560008B0177FD12C002C000E010E027961FAE6D
:10357000279728961FAE2897E6E12996EFAF29975F
:10358000F3E42A96FFAF2A970EC027961FAE27971F
:1035900028961FAE28972CE829962FAF299732E45A
:1035A0002A963FAF2A9783E50E94F39D882371F006
:1035B0000E94199E27966FAF279728967FAF28976E
:1035C00029968FAF29972A969FAF2A9783E40E9466
:1035D000F39D882349F00E94199E0E9413C1A6966C
:1035E0007FAF6EAFA69706C045E050E0A6965FAFEE
:1035F0004EAFA6970E94E62F26966CAF7DAF8EAF9A
:103600009FAF2697033011051CF4EAEAF3E01AC0D5
:10361000EDEBF3E08191882339F09091C00095FFA4
:10362000FCCF8093C600F6CF8091C00085FFFCCF11
:103630008AE08093C6003DC69091C00095FFFCCF04
:103640008093C60081918111F7CF8091C00085FFE2
:10365000FCCF8AE08093C6000E943C308FE717FFC2
:1036600064C08093A00B26968CAD9DADAEADBFAD72
:10367000269764968CAF9DAFAEAFBFAF6497AA9606
:103680008CAF9DAFAEAFBFAFAA972B961FAE2B9757
:1036900090E469969FAF6997ACE16A96AFAF6A977D
:1036A000B6E46B96BFAF6B9765961FAE659766964F
:1036B0001FAE669767961FAE679768961FAE6897AE
:1036C0002FE730E040E050E022962CAF3DAF4EAF08
:1036D0005FAF22973FE7432E512C612C712CA296AD
:1036E0001CAE1DAE1EAE1FAEA29731E06C963FAF72
:1036F0006C9760961FAE1EAE60971BAE212C312CCE
:103700001CAEA8014F55544FA4965FAF4EAFA4977F
:10371000C801880F991F880F991FDC01AF56B44F5D
:103720006E96BFAFAEAF6E9707C0F801EF55F44F7E
:10373000808399CF0E946BA980919F0B882309F405
:1037400058C10E94C93617FF0BC0B0918D0BBBAF9B
:1037500020908E0B30908F0BE091900BECAF0EC051
:103760006E96AEADBFAD6E97BC91BBAF6E96EEAD33
:10377000FFAD6E9721803280F381FCAF2BAD322DEF
:10378000432D5CAD65966FAD659766967FAD669788
:1037900067968FAD679768969FAD68970E94FFC147
:1037A000181674F02BAD65962FAF659766962FAE01
:1037B000669767963FAE67973CAD68963FAF689750
:1037C0002BAD322D432D5CAD2B966FAD2B976996AB
:1037D0007FAD69976A968FAD6A976B969FAD6B9731
:1037E0000E94DCB987FD0EC04BAD2B964FAF2B97D7
:1037F00069962FAE69976A963FAE6A975CAD6B96F5
:103800005FAF6B976C968FAD6C97882309F475C08A
:1038100027962FAD279728963FAD289729964FAD2D
:1038200029972A965FAD2A976BAD722D832D9CAD9B
:103830000E94FFC118160CF0DCC00E94E62FDC01CC
:10384000CB0126962CAD3DAD4EAD5FAD2697821BCC
:10385000930BA40BB50B89389341A105B10508F46E
:10386000C8C0D301C20122962CAD3DAD4EAD5FADB7
:103870002297821B930BA40BB50BB595A795979533
:10388000879517FF03C08093A00B05C0A496EEADEB
:10389000FFADA49780830E94E62F64966CAF7DAF46
:1038A0008EAF9FAF64979B01AC0126968CAD9DAD0A
:1038B000AEADBFAD2697281B390B4A0B5B0BA2960A
:1038C0002CAF3DAF4EAF5FAFA29727969FAD279726
:1038D00065969FAF65972896AFAD28976696AFAF70
:1038E00066972996BFAD29976796BFAF67972A96C7
:1038F000EFAD2A976896EFAF689727962FAD279779
:1039000028963FAD289729964FAD29972A965FAD07
:103910002A976BAD722D832D9CAD0E94DCB987FF79
:1039200074C70E94E62FDC01CB0164962CAD3DAD3F
:103930004EAD5FAD6497821B930BA40BB50B89381A
:103940009341A105B10508F460C70E94E62F2696B1
:103950006CAF7DAF8EAF9FAF2697DC01CB01649635
:103960002CAD3DAD4EAD5FAD6497821B930BA40BA8
:10397000B50B60964EAD5FAD6097141615060CF44E
:103980006EC522968CAD9DADAEADBFAD2297840DB8
:10399000951DA61DB71DB595A7959795879517FFFA
:1039A0002EC78093A00B60962EAD3FAD60972F5F22
:1039B0003F4F60963FAF2EAF609727963FAD27975A
:1039C0002B963FAF2B9728964FAD289769964FAF10
:1039D000699729965FAD29976A965FAF6A972A968D
:1039E0008FAD2A976B968FAF6B9791E06C969FAFD8
:1039F0006C9720E030E040EA51E427966FAD2797BE
:103A000028967FAD289729968FAD29972A969FAD46
:103A10002A970E94B4BF9B01AC016BAD722D832D20
:103A20009CAD0E94FFC11816ACF4E8E9F3E0849164
:103A3000882341F09091C00095FFFCCF8093C60091
:103A40003196F5CF8091C00085FFFCCF8AE080934E
:103A5000C6002FC40E94E62FDC01CB01AA962CAD34
:103A60003DAD4EAD5FADAA97821B930BA40BB50B7A
:103A7000813D9740A105B10508F44EC017FF10C065
:103A8000E090A00BF12CE2E9F3E084918823D9F0D7
:103A90009091C00095FFFCCF8093C6003196F5CF82
:103AA000A496AEADBFADA497EC90F12CECE8F3E09A
:103AB0008491882341F09091C00095FFFCCF8093C2
:103AC000C6003196F5CF42E06BAD722D832D9CADD3
:103AD0000E94675CE8E8F3E08491882341F09091CC
:103AE000C00095FFFCCF8093C6003196F5CFB7019B
:103AF000FF0C880B990B0E94555C8091C00085FFDC
:103B0000FCCF8AE08093C6000E94E62FAA966CAF95
:103B10007DAF8EAF9FAFAA970E94E62F6B017C010D
:103B20000E94E62F64968CAC9DACAEACBFAC6497A3
:103B300026962CAD3DAD4EAD5FAD2697820E931E01
:103B4000A41EB51EC818D908EA08FB08DC01CB0181
:103B50008C0D9D1DAE1DBF1D81389F44A241B10536
:103B6000A8F0EBE6F3E08491882341F09091C00047
:103B700095FFFCCF8093C6003196F5CF8091C000B1
:103B800085FFFCCF8AE08093C60093C360964EAD5C
:103B90005FAD6097A6968EAD9FADA69784179507EB
:103BA0000CF0C8CDEFE1F3E08491882341F09091CF
:103BB000C00095FFFCCF8093C6003196F5CF809171
:103BC000C00085FFFCCF8AE08093C60072C30E94CC
:103BD00025616FC30E94672E6CC30E94D02C0E9487
:103BE00059A667C30E94256183E50E94F39D88233F
:103BF00041F00E94199E0E9413C1709305026093C8
:103C0000040280910402909105028230910509F02E
:103C1000BFC088E50E94F39D882349F10E94199E48
:103C20006B017C010E94F8519B01AC0160E070E0E7
:103C3000CB010E94B3BF9B01AC01C701B6010E943A
:103C4000FFC118161CF40E94199E09C00E94F85169
:103C50009B01AC0160E070E0CB010E94B3BF6093B8
:103C6000060270930702809308029093090282E58E
:103C70000E94F39D882351F00E94199E6093190CB5
:103C800070931A0C80931B0C90931C0CECE1FFE0DA
:103C90008491882341F09091C00095FFFCCF8093E0
:103CA000C6003196F5CFE8E0F4E08491882341F036
:103CB0009091C00095FFFCCF8093C6003196F5CF60
:103CC00068E4E62E64E0F62EF7018191882339F04E
:103CD0009091C00095FFFCCF8093C600F6CF609115
:103CE0009B1070919C1080919D1090919E1042E0CD
:103CF0000E94675C05E913E0F8018191882339F09F
:103D00009091C00095FFFCCF8093C600F6CF6091E4
:103D1000A3107091A4108091A5109091A61042E07C
:103D20000E94675CD7018D917D01882339F09091C5
:103D3000C00095FFFCCF8093C600F4CF60910602CF
:103D400070910702809108029091090242E00E945E
:103D5000675CF80181918F01882339F09091C00050
:103D600095FFFCCF8093C600F4CF6091A7107091AF
:103D7000A8108091A9109091AA1042E00E94675C5F
:103D80008091C00085FFFCCF8AE08093C60008C008
:103D9000049730F081E090E0909305028093040254
:103DA00010926F18809104029091050290932A025C
:103DB0008093290210927018109271181092721844
:103DC0001092731876C283E50E94F39D882309F44C
:103DD00070C20E94199E0E9413C170935E0B609383
:103DE0005D0B6230710534F081E090E090935E0BE2
:103DF00080935D0B80915D0B90915E0B97FD02C0EF
:103E00000C945B1610925E0B10925D0B0C945B167B
:103E10000E94E07A4EC282E50E94F39D882329F039
:103E20000E94199E9B01AC0104C020E030E040E8F4
:103E30005FE383E5AD962FAFAD97AE963FAFAE97FC
:103E4000AF964FAFAF97E0965FAFE0970E94F39DBC
:103E5000882309F42EC20E94199EAD962FADAD970E
:103E6000AE963FADAE97AF964FADAF97E0965FADD4
:103E7000E0970E94A2C0609397107093981080936F
:103E8000991090939A100E94BB2B13C282E50E9456
:103E9000F39D882329F00E94199E9B01AC0104C068
:103EA00020E030E040E85FE383E5AD962FAFAD97CB
:103EB000AE963FAFAE97AF964FAFAF97E0965FAF7E
:103EC000E0970E94F39D882309F4F3C10E94199E94
:103ED000AD962FADAD97AE963FADAE97AF964FADC9
:103EE000AF97E0965FADE0970E94A2C06093B310D9
:103EF0007093B4108093B5109093B6100E94BB2BB2
:103F0000D8C182E50E94F39D882329F00E94199E62
:103F10009B01AC0104C020E030E040E85FE383E5B2
:103F2000AD962FAFAD97AE963FAFAE97AF964FAF72
:103F3000AF97E0965FAFE0970E94F39D882309F466
:103F4000B8C10E94199EAD962FADAD97AE963FAD0C
:103F5000AE97AF964FADAF97E0965FADE0970E94FA
:103F6000A2C06093BE0A7093BF0A8093C00A909368
:103F7000C10A0E94BB2B9DC183E50E94F39D88234B
:103F800009F497C10E94199E0E9413C16F3F7105E9
:103F900009F02CF477FF05C060E070E002C06FEF1D
:103FA00070E070935218609351180E94BB2B81C12E
:103FB00083E50E94F39D882309F47BC10E94199E2A
:103FC0000E9413C16536710534F46E3171052CF40D
:103FD0006EE170E002C064E670E070935018609388
:103FE0004F180E94BB2B65C183E50E94F39D882377
:103FF00009F45FC10E94199E0E9413C121E030E0C4
:104000006130710511F020E030E03093C50A209353
:10401000C40A0E94BB2B4DC183E50E94F39D8823F7
:1040200009F447C10E94199E0E9413C16D337105A6
:104030002CF477FF05C060E070E002C06CE370E034
:104040007093BD0A6093BC0A0E94BB2B32C183E50A
:104050000E94F39D882309F42CC10E94199E0E949E
:1040600013C161157105F9F48091B40A9091B50AF4
:1040700090932618809325189093281880932718DA
:104080008091B20A9091B30A90936E0B80936D0B5E
:104090008091B00A9091B10A9093BE178093BD179A
:1040A0000E949B3406C161307105F9F48091BA0A0F
:1040B0009091BB0A90932618809325189093281806
:1040C000809327188091B80A9091B90A90936E0B4B
:1040D00080936D0B8091B60A9091B70A9093BE17AA
:1040E0008093BD170E949B34E4C06230710569F46F
:1040F000109226181092251810922818109227183E
:1041000010926E0B10926D0BD4C06330710509F0E4
:10411000D0C01092261810922518109228181092CC
:10412000271810926E0B10926D0B0E9425618D9ACC
:10413000129A80E00E94E260BCC083E50E94F39D79
:10414000882309F4B6C00E94199E0E9413C18B01F6
:1041500084E50E94F39D882329F00E94199E0E9405
:1041600013C102C06FEF7FEF0230110508F0A1C04C
:104170008091391890E06817790709F44AC36F3FB6
:10418000FFEF7F0709F445C3CB010E94229E41C384
:104190000E949C528EC00E9407528BC083E50E94F1
:1041A000F39D882309F485C00E94199E6B017C0150
:1041B00020E030E0A9010E94DCB9811104C081E057
:1041C0008093600276C020E030E040E251E4C70115
:1041D000B6010E94A2C06093B9177093BA1780937A
:1041E000BB179093BC171092600263C01092520BE1
:1041F0008091571890915818A0915918B0915A1859
:104200008093530B9093540BA093550BB093560B84
:104210000E9415984EC084E50E94F39D882329F0E2
:104220008FEF9FEF0E94229E44C0ECE1FFE084915B
:10423000882341F09091C00095FFFCCF8093C60089
:104240003196F5CFEAE1F4E08491882341F0909132
:10425000C00095FFFCCF8093C6003196F5CF8091CA
:104260006F0B9091700B20E6289FF001299FF00DB5
:104270001124EA59F34F8191882339F09091C000BD
:1042800095FFFCCF8093C600F6CFE8E1F4E084917F
:10429000882341F09091C00095FFFCCF8093C60029
:1042A0003196F5CF8091C00085FFFCCF8AE08093E6
:1042B000C6000E94ED974AC3819187FD02C00C940D
:1042C0008910712C0C9493106AEC70E1CE01019668
:1042D0000E943758BE016F5F7F4FCE0180960E94CB
:1042E0006B57CE0101960E94A457CE0180960E9482
:1042F0005F550F5F1F4F2091C20A3091C30AB6E08D
:10430000B29FC001B39F900D11248017910714F044
:104310000C949F1006968017910714F40C949F102C
:104320004AEF42033001439F700C1124600E711E4E
:1043300088E293E03AD64AE0B301CE0101960E94AA
:10434000045889819A8131D6CE0101960E94A457E2
:1043500089E898E02AD6CE0180960E945F5588A110
:1043600099A123D687E394E020D613D687E393E080
:104370001CD64AE0B301CE0101960E9404588981FF
:104380009A8113D6CE0101960E94A45789E898E03D
:104390000CD66DEB70E1CE0101960E943758BE013C
:1043A0006F5F7F4FCE0180960E946B57CE010196C2
:1043B0000E94A457CE0180960E945F5588A199A1C2
:1043C000F4D587E394E0F1D5E4D50C949F100E94D6
:1043D0000E9EAB01BC014093E8105093E91060932E
:1043E000EA107093EB108FE892E10E94AE7261CFF9
:1043F0000E94199E5ECF0E94256188E50E94F39D70
:10440000882311F05F9A479A89E50E94F39D8111F4
:104410008A9A8AE50E94F39D882381F09FB7F894D9
:10442000809108018160809308019FBF9FB7F89435
:10443000809108018460809308019FBF85E40E94F9
:10444000F39D882309F435CF8D9A129A32CF0E94BA
:1044500025618D9A129A81E00E94E2602ACFA2968D
:104460008CAC9DACAEACBFACA297880E991EAA1EB8
:10447000BB1EA2962CAD3DAD4EAD5FADA297281BE5
:10448000390B4A0B5B0BCA01B90122962CAD3DAD2D
:104490004EAD5FAD22970E9469BFA50194010E94B5
:1044A0006AC3D301C201820F931FA41FB51F8431B9
:1044B0009105A105B1050CF12C013D018C3E910542
:1044C000A105B1052CF0FBEE4F2E512C612C712C67
:1044D00040E84416510461047104FCF08EEF90E052
:1044E000A0E0B0E084199509A609B70922968CAF1F
:1044F0009DAFAEAFBFAF229716C0E4E14E2E512C58
:10450000612C712C24E130E040E050E022962CAF89
:104510003DAF4EAF5FAF229706C022964CAE5DAE68
:104520006EAE7FAE2297E0E0F4E08491882341F004
:104530009091C00095FFFCCF8093C6003196F5CFD7
:10454000C301B2010E94555CEBEFF3E08491882334
:1045500041F09091C00095FFFCCF8093C60031964A
:10456000F5CF22966CAD7DAD8EAD9FAD22970E94AA
:10457000555CE4EFF3E08491882341F09091C00012
:1045800095FFFCCF8093C6003196F5CF42E02B9685
:104590006FAD2B9769967FAD69976A968FAD6A97D5
:1045A0006B969FAD6B970E94675CEDEEF3E0849194
:1045B000882341F09091C00095FFFCCF8093C60006
:1045C0003196F5CF42E065966FAD659766967FAD03
:1045D000669767968FAD679768969FAD68970E94BC
:1045E000675C8091C00085FFFCCF8AE08093C600A5
:1045F00060962EAD3FAD6097233031050CF4C1C9F4
:1046000022966CAD7DAD8EAD9FAD22970E94E2B932
:1046100020E030E040E850E40E9439B46B017C01B6
:104620002B962FAD2B9769963FAD69976A964FAD44
:104630006A976B965FAD6B9765966FAD659766965B
:104640007FAD669767968FAD679768969FAD6897C1
:104650000E94B3BF20ED3FE049E450E40E9439B42A
:1046600020E030E040E05FE30E9439B49B01AC0100
:10467000C701B6010E94A2C06B017C01C501B40153
:104680000E94E2B920E030E04AE754E40E94A2C070
:104690004B015C01E7EEF3E08491882341F09091B7
:1046A000C00095FFFCCF8093C6003196F5CF42E065
:1046B000C701B6010E94675CE1EEF3E084918823B4
:1046C00041F09091C00095FFFCCF8093C6003196D9
:1046D000F5CF42E0C501B4010E94675C8091C00043
:1046E00085FFFCCF8AE08093C6002AE939E949E1D9
:1046F0005FE3C701B6010E9439B46B017C019B01E5
:10470000AC010E94B4BFA50194010E94A2C02E96E4
:104710006CAF7DAF8EAF9FAF2E97A5019401C701FF
:10472000B6010E9439B420E030E040E05EE30E9430
:1047300039B44B015C01E4EDF3E08491882341F04E
:104740009091C00095FFFCCF8093C6003196F5CFC5
:104750008091C00085FFFCCF8AE08093C600EEEC1C
:10476000F3E08491882341F09091C00095FFFCCF45
:104770008093C6003196F5CF42E0C701B6010E9492
:10478000675C8091C00085FFFCCF8AE08093C60003
:10479000E8ECF3E08491882341F09091C00095FF0C
:1047A000FCCF8093C6003196F5CF42E02E966CADDB
:1047B0007DAD8EAD9FAD2E970E94675C8091C0004D
:1047C00085FFFCCF8AE08093C600E2ECF3E08491A1
:1047D000882341F09091C00095FFFCCF8093C600E4
:1047E0003196F5CF42E0C501B4010E94675C80912B
:1047F000C00085FFFCCF8AE08093C600C2C8A496A3
:10480000EEADFFADA4978083CEC86C961FAE6C97BB
:10481000F0C8012B09F04DC020E030E044EB52E439
:10482000609121187091221880912318909124187A
:104830000E94B4BF609321187093221880932318AC
:104840009093241839E3C32E38E1D32EE12CF12CB8
:1048500000E211E421E238E14DE158E169E178E15B
:1048600085E198E10E94114320E030E040EA51E404
:10487000609121187091221880912318909124182A
:104880000E94B4BF6093211870932218809323185C
:1048900090932418E12CF12C00E010E421E238E19F
:1048A0004DE158E169E178E185E198E10E94114329
:1048B00000CD20E030E040EF51E46091211870918C
:1048C000221880912318909124180E94B4BF6093FD
:1048D000211870932218809323189093241889E349
:1048E000C82E88E1D82EE12CF12C00E010E421E262
:1048F00038E14DE158E169E178E185E198E10E9414
:10490000114320E030E040EF52E4609121187091B3
:10491000221880912318909124180E94B3BF6093AD
:104920002118709322188093231890932418E12C57
:10493000F12C08E412E421E238E14DE158E169E1AB
:1049400078E185E198E10E941143B3CCAC96EEADDD
:10495000FFADAC970FB6F894FEBF0FBEEDBFC159C7
:10496000DF4F0FB6F894DEBF0FBECDBFDF91CF9102
:104970001F910F91FF90EF90DF90CF90BF90AF907D
:104980009F908F907F906F905F904F903F902F906F
:1049900008954F925F926F927F928F929F92AF9203
:1049A000BF92CF92DF92EF92FF920F931F93CF931C
:1049B000DF931F92CDB7DEB75C016B014A0139016D
:1049C00044244A94542CE12CF12C87010F5F1F4F93
:1049D000081519056CF541E050E0BE016F5F7F4F8F
:1049E000C5010E94D4742C0181E04816510401F5E0
:1049F00069816D3099F0F601EE0DFF1D6083611441
:104A0000710419F46A3059F40DC0062E000C770BAE
:104A1000C3010E94BAC4892B11F004C08701780138
:104A2000D4CF8701F601E00FF11F1082C80104C046
:104A300057FEF7CF8FEF9FEF0F90DF91CF911F9130
:104A40000F91FF90EF90DF90CF90BF90AF909F902D
:104A50008F907F906F905F904F900895CF93DF93EA
:104A6000EC010E946D721B82DF91CF9108953F92FD
:104A70004F925F926F927F928F929F92AF92BF926E
:104A8000CF92DF92EF92FF920F931F93CF93DF931A
:104A9000CDB7DEB72C970FB6F894DEBF0FBECDBFF3
:104AA0005C01DC0159968D909C905A97F4018185A8
:104AB0009285A385B4859C01AD012F5F3F4F4F4F79
:104AC0005F4F29873A874B875C87D5011496CD9035
:104AD000DD90ED90FC901797C114D104E104F1042E
:104AE00039F0BFEFCB1ADB0AEB0AFB0A312C07C007
:104AF000F401C080D180E280F38033243394260116
:104B000037011D821E821F821886F40181859285DD
:104B1000A385B4852D813E814F815885281739079B
:104B20004A075B0708F064C089859A85AB85BC8518
:104B30008C159D05AE05BF0550F482E0C82ED12C22
:104B4000E12CF12C92E0492E512C612C712C9E010C
:104B50002F5F3F4FB701A601C4010E940A7188234D
:104B600009F446C089819A81AB81BC81892B8A2B4B
:104B70008B2B41F0260137019FEF491A590A690A28
:104B8000790A05C0C414D504E604F70491F02D8118
:104B90003E814F8158852F5F3F4F4F4F5F4F2D8391
:104BA0003E834F8358873FEFC31AD30AE30AF30AC1
:104BB000ACCF0FEF1FEF2FEF3FE0B301A201C40115
:104BC0000E947970F82E882399F0D50114964D91A2
:104BD0005D916D917C9117974115510561057105A6
:104BE00049F093018201C4010E947970811102C0D1
:104BF000F12C29C0D50114964D925D926D927C9254
:104C00001797332051F0D301C2010196A11DB11DA8
:104C1000F40180839183A283B383F501858996890A
:104C2000A789B08D892B8A2B8B2B69F4D5015596DA
:104C30004D925D926D927C92589711968C9111973E
:104C4000806811968C938F2D2C960FB6F894DEBF4A
:104C50000FBECDBFDF91CF911F910F91FF90EF90CD
:104C6000DF90CF90BF90AF909F908F907F906F908C
:104C70005F904F903F900895FC0123812111EECE6B
:104C8000089561E0FC0180810C9416598EBD0DB42D
:104C900007FEFDCF08958FEF8EBD0DB407FEFDCF4B
:104CA0008EB508950F931F93CF93DF938B010E94CE
:104CB000E62FEB01F0DF8F3F49F00E94E62F6C1BDF
:104CC0007D0B60177107B0F380E001C081E0DF91D8
:104CD000CF911F910F910895CF92DF92EF92FF92A3
:104CE0001F93CF93DF9300D01F92CDB7DEB76C0137
:104CF000162FFC019281892F806A86958CBD90FDCC
:104D000003C081E0963009F480E08DBD60E0F601DB
:104D1000808129833A834B835C830E9416596CE21D
:104D200071E0C601BFDF812F8064B0DF88E1E82E2B
:104D3000F12C5C814B813A812981DA01C9010E2C69
:104D400004C0B695A795979587950A94D2F72983BD
:104D50003A834B835C839ADFF8E0EF1AF1082981EC
:104D60003A814B815C8188EFE8168FEFF80629F7CE
:104D7000112321F0183021F08FEF03C085E901C025
:104D800087E884DF1C3009F486DF10E084DFF60159
:104D9000838387FF04C01F3F11F01F5FF7CF0F9081
:104DA0000F900F900F90DF91CF911F91FF90EF9098
:104DB000DF90CF9008950F931F93CF93DF93EC0173
:104DC00089018C81833039F089E0440F551F661FBB
:104DD000771F8A95D1F79A01AB0168E1CE017CDF9C
:104DE000882311F086E02FC08EEF8EBD80E090E02A
:104DF0000DB407FEFDCFF801E80FF91F20812EBD8D
:104E00000DB407FEFDCF21812EBD0296811522E053
:104E1000920771F70DB407FEFDCF8FEF37DF8FEFED
:104E200035DF39DF8B838F71853029F083E189830A
:104E3000CE0127DF09C068E572E0CE0133DF182F0D
:104E4000811106C087E18983CE011BDF10E00FC00E
:104E500020E030E0A9016DE0CE013EDF811103C00A
:104E60001ADF882311F086E1EECFCE010ADF812F11
:104E7000DF91CF911F910F910895EF92FF920F93C1
:104E80001F93CF93DF93EC0179018C81833039F04C
:104E900089E0440F551F661F771F8A95D1F79A0145
:104EA000AB0161E1CE0118DF882311F084E013C06B
:104EB0000E94E62F8B01EFDE8B838F3F49F40E9427
:104EC000E62F601B710B6D327140A8F381E103C0C6
:104ED0008E3F31F08FE08983CE01D3DE80E019C0B0
:104EE0008FEF8EBDF701D701A150BE4F0DB407FE65
:104EF000FDCF9EB591938EBDEA17FB07B9F70DB4B0
:104F000007FEFDCF8EB58C93C6DEC5DECE01B9DEC1
:104F100081E0DF91CF911F910F91FF90EF90089565
:104F20001F920F920FB60F9211240BB60F922F9370
:104F30003F934F936F937F938F939F93EF93FF9341
:104F40004091C60020914E0B30914F0BC901019644
:104F50008F7799276091500B7091510B86179707A7
:104F600041F0F901E253F54F408390934F0B80934A
:104F70004E0BFF91EF919F918F917F916F914F9188
:104F80003F912F910F900BBE0F900FBE0F901F906F
:104F900018958FEF9FEF0E94EB5C8FEF9FEF0E94C1
:104FA000EB5C8FEF9FEF0C94EB5C0C94F05C0E9439
:104FB000F05C8FEF9FEF0E94EB5C8FEF9FEF0E9402
:104FC000EB5C8FEF9FEF0C94EB5CCF93DF93CAE722
:104FD000DAE0FE018491882341F09091C00095FFB2
:104FE000FCCF8093C6003196F5CFEEE2FAE08491D3
:104FF000882341F09091C00095FFFCCF8093C600BC
:105000003196F5CF8091C00085FFFCCF8AE0809378
:10501000C600FE018491EAE7FAE0882349F0909106
:10502000C00095FFFCCF8093C60031968491F5CFE8
:105030004091291850912A1860912B1870912C18C2
:1050400086E29AE00E94407040912D1850912E18EF
:1050500060912F187091301883E29AE00E9440709E
:105060004091311850913218609133187091341872
:1050700080E29AE00E9440704091351850913618B5
:1050800060913718709138188DE19AE00E94407055
:105090008091C00085FFFCCF8AE08093C600FE01AE
:1050A0008491EAE7FAE0882349F09091C00095FFE7
:1050B000FCCF8093C60031968491F5CFE3E0FAE00F
:1050C0008491882341F09091C00095FFFCCF80939C
:1050D000C6003196F5CF8091C00085FFFCCF8AE0F5
:1050E0008093C600FE018491EAE7FAE0882349F044
:1050F0009091C00095FFFCCF8093C60031968491BB
:10510000F5CF4091320C5091330C6091340C70917A
:10511000350C8AEF99E00E9440704091360C509116
:10512000370C6091380C7091390C87EF99E00E9430
:10513000407040913A0C50913B0C60913C0C709146
:105140003D0C84EF99E00E94407040913E0C5091DC
:105150003F0C6091400C7091410C81EF99E00E94EE
:1051600040708091C00085FFFCCF8AE08093C6002C
:10517000FE018491EAE7FAE0882349F09091C000AB
:1051800095FFFCCF8093C60031968491F5CFE3ED77
:10519000F9E08491882341F09091C00095FFFCCF05
:1051A0008093C6003196F5CF8091C00085FFFCCF7B
:1051B0008AE08093C600FE018491EAE7FAE0882342
:1051C00049F09091C00095FFFCCF8093C6003196C6
:1051D0008491F5CF4091D9125091DA126091DB128F
:1051E0007091DC128AEC99E00E942F704091DD12E0
:1051F0005091DE126091DF127091E01287EC99E01D
:105200000E942F704091E1125091E2126091E312DE
:105210007091E41284EC99E00E942F704091E512A5
:105220005091E6126091E7127091E81281EC99E0DA
:105230000E942F708091C00085FFFCCF8AE0809390
:10524000C600FE018491EAE7FAE0882349F09091D4
:10525000C00095FFFCCF8093C60031968491F5CFB6
:10526000ECE8F9E08491882341F09091C00095FF2B
:10527000FCCF8093C6003196F5CF8091C00085FFAA
:10528000FCCF8AE08093C600FE018491EAE7FAE051
:10529000882349F09091C00095FFFCCF8093C60011
:1052A00031968491F5CF40912A0C50912B0C60914E
:1052B0002C0C70912D0C83E899E00E944070409175
:1052C0002E0C50912F0C6091300C7091310C80E8B5
:1052D00099E00E9440708091C00085FFFCCF8AE079
:1052E0008093C600FE018491EAE7FAE0882349F042
:1052F0009091C00095FFFCCF8093C60031968491B9
:10530000F5CFEDECF8E08491882341F09091C00056
:1053100095FFFCCF8093C6003196F5CF8091C000F9
:1053200085FFFCCF8AE08093C600FE018491EAE706
:10533000FAE0882349F09091C00095FFFCCF80935C
:10534000C60031968491F5CF4091460C5091470CA0
:105350006091480C7091490C84EC98E00E94407078
:1053600040914A0C50914B0C60914C0C70914D0C3B
:1053700081EC98E00E9440704091420C5091430CA7
:105380006091440C7091450C8EEB98E00E942F7058
:105390004091260C5091270C6091280C7091290C9B
:1053A0008BEB98E00E9440704091220C5091230CAE
:1053B0006091240C7091250C88EB98E00E9440705D
:1053C00040911E0C50911F0C6091200C7091210C8B
:1053D00085EB98E00E9440708091C00085FFFCCF73
:1053E0008AE08093C600FE018491EAE7FAE0882310
:1053F00049F09091C00095FFFCCF8093C600319694
:105400008491F5CFE3EAF8E08491882341F090910C
:10541000C00095FFFCCF8093C6003196F5CF8091F8
:10542000C00085FFFCCF8AE08093C600FE01849116
:10543000EAE7FAE0882349F09091C00095FFFCCF9D
:105440008093C60031968491F5CF409160185091B9
:10545000611860916218709163188AE998E00E945F
:105460004070409164185091651860916618709171
:10547000671887E998E00E94407040916818509141
:10548000691860916A1870916B1884E998E00E941D
:1054900040708091C00085FFFCCF8AE08093C600F9
:1054A000FE018491EAE7FAE0882349F09091C00078
:1054B00095FFFCCF8093C60031968491F5CFE6E846
:1054C000F8E08491882341F09091C00095FFFCCFD3
:1054D0008093C6003196F5CF8091C00085FFFCCF48
:1054E0008AE08093C600FE018491EAE7FAE088230F
:1054F00049F09091C00095FFFCCF8093C600319693
:105500008491F5CF409116025091170260911802D4
:10551000709119028CE798E00E9440702DEB37E300
:1055200046E05EE3609112027091130280911402D2
:10553000909115020E94A2C0AB01BC0189E798E0DE
:105540000E9440702DEB37E346E05EE360910E026F
:1055500070910F0280911002909111020E9439B453
:10556000AB01BC0186E798E00E9440708091C000CA
:1055700085FFFCCF8AE08093C600FE018491EAE7B4
:10558000FAE0882349F09091C00095FFFCCF80930A
:10559000C60031968491F5CFE3E6F8E08491882344
:1055A00041F09091C00095FFFCCF8093C6003196EA
:1055B000F5CF8091C00085FFFCCF8AE08093C600C4
:1055C00040919710509198106091991070919A1095
:1055D0008FE598E00E9440708091C00085FFFCCF6D
:1055E0008AE08093C600FE018491EAE7FAE088230E
:1055F00049F09091C00095FFFCCF8093C600319692
:105600008491F5CFEEE4F8E08491882341F0909105
:10561000C00095FFFCCF8093C6003196F5CF8091F6
:10562000C00085FFFCCF8AE08093C6004091B31094
:105630005091B4106091B5107091B6108AE498E062
:105640000E9440708091C00085FFFCCF8AE080936B
:10565000C600FE01C491EAE7FAE0CC2349F080914C
:10566000C00085FFFCCFC093C6003196C491F5CF32
:10567000E9E3F8E08491882341F09091C00095FF20
:10568000FCCF8093C6003196F5CF8091C00085FF96
:10569000FCCF8AE08093C6004091BE0A5091BF0AB9
:1056A0006091C00A7091C10A85E398E00E94407041
:1056B0008091C00085FFFCCF8AE08093C600EFE4B4
:1056C000F5E08191882339F09091C00095FFFCCFDF
:1056D0008093C600F6CF6091C40A7091C50A072E68
:1056E000000C880B990B0E94555C8091C00085FFCF
:1056F000FCCF8AE08093C600DF91CF910895EF92AE
:10570000FF921F93CF93DF937C01C62FD72F142FC7
:10571000160FF701808191810E9453BF8993F70191
:10572000808191810196918380831C13F2CFDF9158
:10573000CF911F91FF90EF900895EF92FF921F93EA
:10574000CF93DF937C01C62FD72F142F160F6991AB
:10575000F701808191810E945BBFF7018081918177
:105760000196918380831C13F2CFDF91CF911F911B
:10577000FF90EF9008950F931F93CF93DF93CDB7D2
:10578000DEB72C970FB6F894DEBF0FBECDBF80E317
:1057900090E3A0E3B0E08D839E83AF83B88704E6F7
:1057A00010E01C870B8744E0BE016B5F7F4FCE018A
:1057B0000B96C3DF40E169E278E1CE010B96BDDFD5
:1057C00040E162E37CE0CE010B96B7DF40E169ED9A
:1057D00072E1CE010B96B1DF44E06AE27CE0CE01DB
:1057E0000B96ABDF44E06EE27CE0CE010B96A5DFCA
:1057F00044E066E47CE0CE010B969FDF44E06AE47F
:105800007CE0CE010B9699DF44E062E47CE0CE01BF
:105810000B9693DF44E066E27CE0CE010B968DDFD1
:1058200044E062E27CE0CE010B9687DF44E06EE16B
:105830007CE0CE010B9681DF4CE060E678E1CE01A2
:105840000B967BDF42E06AEB7AE0CE010B9675DFC8
:1058500042E068EB7AE0CE010B966FDF42E066EB48
:105860007AE0CE010B9669DF42E064EB7AE0CE018C
:105870000B9663DF42E062EB7AE0CE010B965DDFD0
:1058800042E060EB7AE0CE010B9657DF44E066E140
:1058900072E0CE010B9651DF44E062E172E0CE018E
:1058A0000B964BDF44E06EE072E0CE010B9645DFD5
:1058B00044E067E970E1CE010B963FDF44E063EB23
:1058C00070E1CE010B9639DF44E06EEB7AE0CE0159
:1058D0000B9633DF42E061E578E1CE010B962DDFD8
:1058E00042E06FE478E1CE010B9627DF42E06DE500
:1058F0007BE0CE010B9621DF42E064EC7AE0CE0142
:105900000B961BDF42E06CEB7AE0CE010B9615DFC5
:1059100080E290E09A87898742E0BE01675F7F4F0F
:10592000CE010B960ADF86E590E3A8E3B0E0898319
:105930009A83AB83BC831C870B8744E0BE016F5FF7
:105940007F4FCE010B96F9DEEAE7FAE084918823D7
:1059500041F09091C00095FFFCCF8093C600319636
:10596000F5CFE5E2F8E08491882341F09091C00002
:1059700095FFFCCF8093C6003196F5CF8091C00093
:1059800085FFFCCF8AE08093C6002C960FB6F89472
:10599000DEBF0FBECDBFDF91CF911F910F91089554
:1059A000AF92BF92CF92DF92EF92FF920F931F932D
:1059B000CF93DF93CDB7DEB7E0970FB6F894DEBF95
:1059C0000FBECDBF80E1EEE6F2E0DE0191960190E0
:1059D0000D928A95E1F780E1EEE7F2E0DE01519663
:1059E00001900D928A95E1F780E1EEE8F2E0DE01A8
:1059F000119601900D928A95E1F7DE01919669E288
:105A000078E1AE014F5E5F4F22E33CE0CE010196AC
:105A10005C0189ED92E18E010F5C1F4FCD90DD900E
:105A2000ED90FD90FB01C192D192E192F192BF0104
:105A3000FA01C190D190E190F190AF01F901C192CA
:105A4000D192E192F1929F01F501C190D190E19044
:105A5000F1905F01FC01C192D192E192F192CF01EC
:105A6000A017B107D9F60E94476980E090E0AAEF3D
:105A7000B3E480932A0C90932B0CA0932C0CB0933E
:105A80002D0C80932E0C90932F0CA093300CB09380
:105A9000310C80E090E0A0E2B1E48093460C90935A
:105AA000470CA093480CB093490C80E29EE4A0E020
:105AB000B0E08093420C9093430CA093440CB093BD
:105AC000450C80E090E0A0EFB1E480934A0C909305
:105AD0004B0CA0934C0CB0934D0C80E090E0A0EAEE
