:100000000C944C0C0C947D0C0C947D0C0C947D0C7D
:100010000C947D0C0C947D0C0C947D0C0C947D0C3C
:100020000C947D0C0C947D0C0C947D0C0C947D0C2C
:100030000C947D0C0C947D0C0C947D0C0C947D0C1C
:100040000C947D0C0C94C9810C947D0C0C947D0C4B
:100050000C947D0C0C947D0C0C9409330C940F3192
:100060000C947D0C0C9437290C947D0C0C947D0C15
:100070000C947D0C0C947D0C0C947D0C0C947D0CDC
:100080000C947D0C0C947D0C0C947D0C0C947D0CCC
:100090000C947D0C0C947D0C0C947D0C0C947D0CBC
:1000A0000C947D0C0C947D0C0C947D0C0C947D0CAC
:1000B0000C947D0C0C947D0C0C947D0C0C947D0C9C
:1000C0000C947D0C0C947D0C0C947D0C0C947C5C3D
:1000D0000C94535C0C947D0C0C947D0C0C947D0C56
:1000E0000C947D0C71337E339A33A733C133CE33F6
:1000F000E833EA33D058D358C258C658CC580A59B6
:10010000D758DB58E158E558E958EF58F358F758F5
:100110000A59FD58015905596C5D715D765D805D28
:100120008A5D035E945D9C5DA45DAE5DB85DC25D5D
:10013000D15DDB5D035EE55DEF5DF95D084AD73BB0
:100140003BCE016E84BCBFFDC12F3D6C74319ABDA6
:1001500056833DDA3D00C77F11BED9E4BB4C3E91CA
:100160006BAAAABE000000803F05A84CCDB2D44EB9
:10017000B93836A9020C50B9918688083CA6AAAABB
:100180002ABE000000803F004E414E494E4954595E
:10019000494E46CDCCCC3D0AD7233C17B7D1387752
:1001A000CC2B329595E6241FB14F0A000020410068
:1001B00000C84200401C4620BCBE4CCA1B0E5AAEB2
:1001C000C59D7400407A10F35A00A0724E180900C1
:1001D00010A5D4E80000E87648170000E40B5402AC
:1001E0000000CA9A3B000000E1F5050000809698E7
:1001F00000000040420F000000A086010000001037
:100200002700000000E80300000000640000000078
:10021000000A00000000000100000000002C76D859
:1002200088DC674F0823DFC1DFAE59E1B1B796E53F
:10023000E3E453C63AE651997696E8E6C28426EBA3
:10024000898C9B62ED407C6FFCEFBC9C9F40F2BAB6
:10025000A56FA5F490055A2AF75C936B6CF9676D4E
:10026000C11BFCE0E40D47FEF520E6B500D0ED90A3
:100270002E0300943577050080841E080000204E70
:100280000A000000C80C333333330F986E12831109
:1002900041EF8D2114893BE65516CFFEE6DB18D1E0
:1002A000844B381BF77C1D901DA4BBE424203284B2
:1002B000725E228100C9F124ECA1E53D272F005395
:1002C00044207072696E74696E672062797465206B
:1002D000004E6F74205344207072696E74696E67AB
:1002E000002E0044656C6574696F6E206661696CF0
:1002F00065642C2046696C653A200046696C65206F
:1003000064656C657465643A002E006F70656E20DC
:100310006661696C65642C2046696C653A20002032
:10032000423A0020453A00543A00486F74656E64C2
:10033000206F6666736574733A002200556E6B6EAB
:100340006F776E20636F6D6D616E643A2022004896
:100350006F74656E64206F6666736574733A007AB5
:100360005F6D696E3A2000795F6D696E3A200078A2
:100370005F6D61783A2000785F6D696E3A20005AAF
:100380003A00593A0020436F756E7420583A2000A5
:10039000453A005A3A00593A00583A004649524DF7
:1003A000574152455F4E414D453A4D61726C696E01
:1003B0002056313B20537072696E7465722F6772DC
:1003C000626C206D617368757020666F722067655E
:1003D0006E36204649524D574152455F55524C3A70
:1003E000687474703A2F2F7777772E6D656E646519
:1003F0006C2D70617274732E636F6D2050524F5468
:100400004F434F4C5F56455253494F4E3A312E3071
:10041000204D414348494E455F545950453A334475
:10042000205072696E746572204558545255444587
:10043000525F434F554E543A320A002042403A0030
:1004400020403A00202F0020423A00202F006F6BFE
:1004500020543A002569206D696E2C20256920738F
:10046000656300456E642066696C65206C69737411
:1004700000426567696E2066696C65206C697374FB
:10048000002020506C616E6E657242756666657202
:1004900042797465733A20002046726565204D6587
:1004A0006D6F72793A20004170722020372032300F
:1004B000323000436F6D70696C65643A200054659A
:1004C0006E6C6F6700207C20417574686F723A20F3
:1004D0000041707220203720323032302031363ADD
:1004E00033303A353300204C6173742055706461A9
:1004F0007465643A2000312E302E30004D61726CEC
:10050000696E200020536F667477617265205265B2
:1005100073657400205761746368646F6720526567
:10052000736574002042726F776E206F757420526D
:1005300065736574002045787465726E616C205235
:100540006573657400506F776572557000737461E0
:100550007274005072696E7465722073746F70707B
:1005600065642064756520746F206572726F7273A4
:100570002E2046697820746865206572726F72203B
:10058000616E6420757365204D39393920746F2090
:10059000726573746172742E202854656D70657273
:1005A00061747572652069732072657365742E209D
:1005B0005365742069742061667465722072657376
:1005C00074617274696E6729004E6F204C696E65A4
:1005D000204E756D62657220776974682063686566
:1005E000636B73756D2C204C617374204C696E6560
:1005F0003A20004E6F20436865636B73756D2077FA
:10060000697468206C696E65206E756D6265722C08
:10061000204C617374204C696E653A2000636865F4
:10062000636B73756D206D69736D617463682C20E5
:100630004C617374204C696E653A20004C696E659C
:10064000204E756D626572206973206E6F74204C48
:10065000617374204C696E65204E756D6265722BF6
:10066000312C204C617374204C696E653A20004D2A
:1006700031313000256920686F757273202569203B
:100680006D696E7574657300446F6E652070726974
:100690006E74696E672066696C65005072696E746D
:1006A00065722073746F7070656420647565207462
:1006B0006F206572726F72732E204669782074689D
:1006C00065206572726F7220616E6420757365209B
:1006D0004D39393920746F20726573746172742ECC
:1006E000202854656D706572617475726520697338
:1006F0002072657365742E205365742069742061BF
:10070000667465722072657374617274696E6729AC
:10071000004E6F204C696E65204E756D62657220CB
:100720007769746820636865636B73756D2C204C02
:10073000617374204C696E653A20004E6F204368E7
:1007400065636B73756D2077697468206C696E657D
:10075000206E756D6265722C204C617374204C693B
:100760006E653A2000636865636B73756D206D6913
:10077000736D617463682C204C617374204C696ED6
:10078000653A20004C696E65204E756D6265722079
:100790006973206E6F74204C617374204C696E65B0
:1007A000204E756D6265722B312C204C6173742064
:1007B0004C696E653A20004572726F723A004D3195
:1007C0003130006572726F722077726974696E677A
:1007D00020746F2066696C6500205A3A0020593AEF
:1007E0000020583A00656E6473746F7073206869F6
:1007F000743A20006563686F3A00446F6E65207339
:100800006176696E672066696C652E006F6B004DBE
:1008100032390053657474696E67732053746F7254
:100820006564005A323A00457874656E64657220DA
:100830004F66667365743A0059323A0045787465BC
:100840006E646572204F66667365743A0058323A7A
:10085000005365636F6E64657279204D6178205036
:100860006F733A002044002049002020204D33308F
:10087000312050005049442073657474696E677369
:100880003A00205A0020590020204D32303620589E
:1008900000486F6D65206F666673657420286D6D06
:1008A000293A00204500205A00205800204200200C
:1008B000540020204D323035205300416476616E63
:1008C000636564207661726961626C65733A205376
:1008D0003D4D696E20666565647261746520286DA2
:1008E0006D2F73292C20543D4D696E2074726176F2
:1008F000656C20666565647261746520286D6D2F76
:1009000073292C20423D6D696E696D756D2073658C
:10091000676D656E742074696D6520286D73292C70
:1009200020583D6D6178696D756D205859206A6554
:10093000726B20286D6D2F73292C20205A3D6D611C
:1009400078696D756D205A206A65726B20286D6D0F
:100950002F73292C2020453D6D6178696D756D20C0
:1009600045206A65726B20286D6D2F732900205415
:100970000020204D323034205300416363656C65A4
:10098000726174696F6E3A20533D616363656C6593
:10099000726174696F6E2C20543D7265747261636C
:1009A0007420616363656C65726174696F6E0020A9
:1009B0004500205A0020590020204D323031205867
:1009C000004D6178696D756D20416363656C65727A
:1009D0006174696F6E20286D6D2F7332293A002083
:1009E0004500205A0020590020204D323033205835
:1009F000004D6178696D756D20666565647261741E
:100A0000657320286D6D2F73293A00204500205A08
:100A10000020590020204D39322058005374657051
:100A2000732070657220756E69743A0053746F722A
:100A300065642073657474696E677320726574727F
:100A400069657665640048617264636F64656420FB
:100A500044656661756C742053657474696E677360
:100A6000204C6F61646564006563686F3A0065637C
:100A7000686F3A00202D20496E76616C69642065AC
:100A800078747275646572206E756D62657220216E
:100A90000070012C0190012701B0012201C0011D4D
:100AA00001F00118011002130130020E0160020969
:100AB0000190020401C002FF000003FA004003F5A8
:100AC000008003F000D003EB002004E6007004E196
:100AD00000E004DC004005D700C005D2004006CD90
:100AE00000D006C8008007C3003008BE00F008B977
:100AF00000C009B400B00AAF00B00BAA00D00CA52A
:100B000000000EA000500F9B00C0109600501291E4
:100B10000000148C00C0158700B0178200B0197D4A
:100B200000D01B7800001E730040206E00902269E8
:100B300000F024640040275F0090295A00E02B5504
:100B400000102E500020304B0010324600E03341A0
:100B50000090353C001037370070383200A0392D36
:100B600000B03A2800A03B2300603C1E00103D1955
:100B700000903D1400103E0F00703E0A00C03E057C
:100B800000003F00003A2045787472756465722059
:100B90007377697463686564206F66662E204D41C3
:100BA0005854454D502074726967676572656420BA
:100BB00021003A20457874727564657220737769F4
:100BC0007463686564206F66662E204D494E5445F7
:100BD0004D50207472696767657265642021005406
:100BE000656D7065726174757265206865617465A4
:100BF0006420626564207377697463686564206F3C
:100C000066662E204D415854454D502074726967D8
:100C100067657265642021210054656D706572619D
:100C2000747572652068656174656420626564200E
:100C30007377697463686564206F66662E204D491A
:100C40004E54454D50207472696767657265642023
:100C50002121004572726F723A005072696E74659C
:100C6000722068616C7465642E206B696C6C282935
:100C70002063616C6C656421005072696E746572EA
:100C80002073746F707065642064756520746F20C4
:100C90006572726F72732E204669782074686520C1
:100CA0006572726F7220616E6420757365204D39B4
:100CB000393920746F20726573746172742E202824
:100CC00054656D7065726174757265206973207208
:100CD000657365742E205365742069742061667491
:100CE00065722072657374617274696E672900475A
:100CF0003238205800000048C20000000000000008
:100D0000000000A0400000204100000040000087DB
:100D1000430000614300008243FFFFFF5344206310
:100D2000617264206F6B006F70656E526F6F74201C
:100D30006661696C656400766F6C756D652E696EB1
:100D40006974206661696C6564004572726F723AFD
:100D500000534420696E6974206661696C006563A4
:100D6000686F3A002200656E717565696E672022B2
:100D7000006563686F3A004D3234004D32332025F0
:100D800073006175746F25692E67000000210024CF
:100D90000027002A002D003000330001010000046C
:100DA0000107010A0100002200250028002B002E67
:100DB000003100340002010000050108010B0100B0
:100DC0000020002300260029002C002F0032000004
:100DD00001000003010601090105050505070508D5
:100DE000080808020202020A0A08080404040401AE
:100DF00001010101010101030303030303030304D0
:100E00000707070C0C0C0C0C0C0C0C02020202065F
:100E1000060606060606060B0B0B0B0B0B0B0B014F
:100E200002102020080810204010204080020102FB
:100E300001080402010102040810204080804020C3
:100E400010080402018004020180402010080402FE
:100E5000010804020101020408102040800102047C
:100E6000081020408000000A0B02090C0D0E080734
:100E7000030401000000000000000000000000006A
:100E80000000000000000000000000000000000062
:100E9000001211100000000000000000000000001F
:100EA00000000000000000000000007C3C3E5E2BC3
:100EB0003D3F2F5B5D3B2C2A225C002200656E715A
:100EC0007565696E6720220020746F6F206C6F6EED
:100ED0006720657874727573696F6E2070726576BD
:100EE000656E7465640020636F6C6420657874724D
:100EF0007573696F6E2070726576656E74656400D7
:100F00006563686F3A0000005C43000061430000C5
:100F10008243000048C2000000000000000020578B
:100F20003A0020453A00543A0024F4D43050C38E9D
:100F300020C2A24017828B7011127A910D816CD958
:100F40000AA861E108C7586607615143061E4B5D58
:100F500005C145A7041A411104093D9803713931AF
:100F6000034036DB0265339102D4305402802E1DDB
:100F700002632CEE01752AC501B028A0011027815B
:100F8000018F2564012B244B01E0223401AC211F89
:100F9000018D200D01801FFC00841EED00971DDFD8
:100FA00000B81CD200E61BC600201BBC00641AB2AD
:100FB00000B219A8000A19A0006A189900D1179167
:100FC0000040178B00B516840031167E00B31579EA
:100FD000003A157300C7146F0058146A00EE1366C8
:100FE000008813630025135E00C7125B006C125764
:100FF0000015125400C111510070114F0021114B06
:1010000000D61049008D10470046104400021042DF
:1010100000C00F4000800F3E00420F3C00060F3B17
:1010200000CB0E3800930E37005C0E3500270E34CF
:1010300000F30D3200C10D3100900D3000600D2E17
:1010400000320D2D00050D2C00D90C2B00AE0C2903
:1010500000850C29005C0C2700350C27000E0C269F
:1010600000E80B2400C40B2400A00B23007D0B23FD
:10107000005A0B2100390B2100180B2000F80A1F21
:1010800000D90A1E00BB0A1E009D0A1D00800A1D11
:1010900000630A1C00470A1B002C0A1B00110A1AD5
:1010A00000F7091A00DD091900C4091900AB091974
:1010B00000920917007B091800630917004C0916F4
:1010C0000036091600200916000A091500F5081552
:1010D00000E0081400CC081400B8081400A4081498
:1010E00000900813007D0812006B081300580812C6
:1010F00000460812003408110023081100120811DC
:101100000001081100F0071000E0071000D00710E0
:1011100000C0071000B0070F00A107100091070ED4
:101120000083070F0074070F0065070E0057070EB6
:101130000049070E003B070D002E070E0020070D8B
:101140000013070D0006070D00F9060C00ED060D53
:1011500000E0060C00D4060C00C8060C00BC060C0F
:1011600000B0060C00A4060B0099060C008D060BBF
:101170000082060B0077060B006C060B0061060A66
:101180000057060B004C060A0042060A0038060A01
:10119000002E060A0024060A001A060A0010060994
:1011A0000007060A00FD050900F4050900EB050922
:1011B00000E2050900D9050900D0050900C70509A5
:1011C00000BE050900B5050800AD050800A5050924
:1011D000009C050800940508008C0508008405089B
:1011E000007C050800740508006C0507006505080B
:1011F000005D050700560508004E05070047050776
:10120000004005080038050700310507002A0507DA
:1012100000230507001C050600160507000F05073B
:10122000000805060002050700FB040600F5040798
:1012300000EE040600E8040600E2040700DB0406F2
:1012400000D5040600CF040600C9040600C3040646
:1012500000BD040600B7040600B1040500AC040696
:1012600000A6040600A00405009B040600950405E2
:1012700000900406008A0405008504050080040629
:10128000007A04050075040500700405006B040570
:101290000066040500610405005C040500570405B0
:1012A00000520405004D04050048040500430405F0
:1012B000003E0404003A040500350405003004042F
:1012C000002C04050027040400230405001E040468
:1012D000001A04040016040500110404000D04049F
:1012E00000090405000404040000040400FC0304D5
:1012F00000F8030400F4030400F0030400EC03040A
:1013000000E8030400E4030400E0030400DC030439
:1013100000D8030400D4030400D0030400CC030469
:1013200000C8030300C503030024F404D9201BC430
:101330000C5C0E9804C4095F0265077101F405F99D
:1013400000FB04B30048048700C10369005803553B
:101350000003034500BE023A008402310053022A12
:10136000002902250004022000E4011C00C8011924
:1013700000AF0117009801140084011300710110DF
:10138000006101100051010E0043010D0036010BF8
:10139000002B010B0020010B00150109000C0109B5
:1013A0000003010800FB000800F3000800EB000741
:1013B00000E4000600DE000600D8000600D20006A9
:1013C00000CC000500C7000500C2000500BD0004F8
:1013D00000B9000400B5000400B1000400AD000431
:1013E00000A9000400A5000300A20003009F000460
:1013F000009B000300980003009500020093000387
:1014000000900003008D0002008B000300880002A2
:10141000008600020084000300810002007F0002B9
:10142000007D0002007B00020079000200770001CD
:1014300000760002007400020072000100710002D8
:10144000006F0002006D0001006C0002006A0001E4
:1014500000690002006700010066000100650001EC
:1014600000640002006200010061000100600001F0
:10147000005F0002005D0001005C0001005B0001F4
:10148000005A0001005900010058000100570001F6
:1014900000560001005500010054000100530000F7
:1014A00000530001005200010051000100500001F2
:1014B000004F0001004E0000004E0001004D0001F1
:1014C000004C0001004B0000004B0001004A0001ED
:1014D00000490001004800000048000100470001E9
:1014E00000460000004600010045000000450001E4
:1014F00000440001004300000043000100420000DE
:1015000000420001004100000041000100400001D4
:10151000003F0000003F0001003E0000003E0001CF
:10152000003D0000003D0001003C0000003C0000C8
:10153000003C0001003B0000003B0001003A0000BD
:10154000003A0001003900000039000100380000B5
:1015500000380000003800010037000000370001AB
:1015600000360000003600000036000100350000A3
:101570000035000000350001003400000034000098
:10158000003400010033000000330000003300018C
:101590000032000000320000003200010031000083
:1015A0000031000000310001003000000030000078
:1015B00000300001002F0000002F0000002F00006D
:1015C000002F0001002E0000002E0000002E000160
:1015D000002D0000002D0000002D0000002D000156
:1015E000002C0000002C0000002C0000002C00014A
:1015F000002B0000002B0000002B0000002B00013E
:10160000002A0000002A0000002A0000002A000131
:101610000029000000290000002900000029000026
:101620000029000100280000002800000028000018
:10163000002800000028000100270000002700000B
:1016400000270000002700000027000100260000FE
:1016500000260000002600000026000000260001F1
:1016600000250000002500000025000000250000E6
:1016700000250000002500010024000000240000D7
:1016800000240000002400000024000100230000CA
:1016900000230000002300000023000000230000BE
:1016A00000230000002300010022000000220000AF
:1016B00000220000002200000022000000220001A1
:1016C0000021000000210000002100000021000096
:1016D0000021000000210000002100010020000086
:1016E000002000000020000000200000002000007A
:1016F000002000000020000000200001001F00006A
:10170000001F0000001F0000001F0000001F00005D
:10171000001F0000001F0001001E0000001E00004E
:10172000001E0000001E00000057726974696E6799
:1017300020746F2066696C653A20002E006F70651A
:101740006E206661696C65642C2046696C653A2080
:10175000002E006F70656E206661696C65642C20D8
:1017600046696C653A200046696C652073656C6556
:1017700063746564002053697A653A200046696C99
:1017800065206F70656E65643A20002E006F70658D
:101790006E206661696C65642C2046696C653A2030
:1017A00000504944204175746F74756E65206669F8
:1017B0006E697368656421205075742074686520B3
:1017C0004B702C204B6920616E64204B6420636F4A
:1017D0006E7374616E747320696E746F20436F6EE4
:1017E00066696775726174696F6E2E68005049444E
:1017F000204175746F74756E65206661696C6564EF
:10180000212074696D656F75740020403A006F6B1C
:1018100020543A006F6B20423A00504944204175F1
:10182000746F74756E65206661696C6564212054FF
:10183000656D706572617475726520746F6F206874
:1018400069676800204B643A2000204B693A200009
:10185000204B703A200020436C617369632050492B
:101860004420002054753A2000204B753A20002077
:101870006D61783A2000206D696E3A200020643A4C
:10188000200020626961733A2000526573656E64BE
:101890003A20000065A444A411241FBECFEFD1E27A
:1018A000DEBFCDBF00E00CBF19E0A0E0B2E0EEE685
:1018B000FCE601E00BBF02C007900D92A836B1070D
:1018C000D9F727E1A8E6B9E001C01D92A136B20719
:1018D000E1F71CE0CBE4DCE000E006C02197010961
:1018E000802FFE010E94A0B4CA34D10780E008070F
:1018F000A9F70E94EE960C9426B60C9400002F9245
:101900003F924F925F926F927F928F929F92AF928F
:10191000BF92CF92DF92EF92FF920F931F93CF93DC
:10192000DF93CDB7DEB7C155D1090FB6F894DEBF4E
:101930000FBECDBF2DB73EB72E963FAF2EAF2E9721
:1019400080915B0A882341F00E94598E1092900F7B
:1019500010928F0F10925B0A87E40E94EB79F82EA9
:10196000882309F492C20E94117A0E942DB2643039
:10197000710509F450C04CF462307105C9F10CF0E6
:101980003FC077FF1EC00C946D226A35710509F4C3
:1019900073C234F46C31710509F489C00C946D2262
:1019A0006B35710509F46CC26C35710511F00C943E
:1019B0006D2260E87FE483EC97EC0E94668E0C94C5
:1019C0006D228091450A81110C946D22E0E8AE2EC3
:1019D000EFE4BE2EE3ECCE2EE7ECDE2E86017501A1
:1019E000A6019501C601B5010E948A760C946D226C
:1019F0008091450A811104C00E94679681E007C06A
:101A00008091450A811107C00E94679680E00E947C
:101A10002E4A0C947F2680E50E94EB79882339F0CA
:101A20000E94117A0E9433B24B015C0103C0812CE9
:101A3000912C540183E50E94EB79882361F00E9488
:101A4000117A20E030E04AE754E40E9456A50E9453
:101A500033B24B015C010E9477930E940331860EE2
:101A6000971EA81EB91E0E94033160931B0B709332
:101A70001C0B80931D0B90931E0B0E940331681565
:101A800079058A059B0510F00C946D220E9403389D
:101A900080915B0A882331F00E94598E1092900F3A
:101AA00010928F0F0E94F94F0E943944E6CF809127
:101AB0002B0290912C02A0912D02B0912E028093C6
:101AC0007D0990937E09A0937F09B093800980914E
:101AD00021029091220290937C0980937B0984E6F5
:101AE00090E090932202809321020E940331609340
:101AF0001B0B70931C0B80931D0B90931E0B81E0AE
:101B00000E94099380910D1790910E17A0910F17C5
:101B1000B09110178093230B9093240BA093250B67
:101B2000B093260B8091111790911217A091131763
:101B3000B09114178093270B9093280BA093290B37
:101B4000B0932A0B8091151790911617A091171733
:101B5000B091181780932B0B90932C0BA0932D0B07
:101B6000B0932E0B8091191790911A17A0911B1703
:101B7000B0911C1780932F0B9093300BA093310BD7
:101B8000B093320B10922B0210922C0210922D0265
:101B900010922E0288E50E94EB79882311F080E0F4
:101BA0000AC089E50E94EB798111F9CF8AE50E948C
:101BB000EB7991E0892780930002882331F08091AE
:101BC000170281110C94782207C08AE50E94EB79F4
:101BD0008111F5CF0C94782280918F0F9091900F06
:101BE000019711F00C947822992493948090170215
:101BF00080910002882321F0911007C00C947B2271
:101C00008AE50E94EB798111F7CF81E0809317027A
:101C100080910002811106C088E50E94EB7988233B
:101C200009F478C010914F1781E090E090934C0236
:101C300080934B02111180E080934F1780E090E079
:101C40000E94904580910D1790910E17A0910F174B
:101C5000B09110178093680F9093690FA0936A0F4B
:101C6000B0936B0F10934F1780E090E00E94904567
:101C700080910D1790910E17A0910F17B09110172A
:101C800080933D1790933E17A0933F17B093401752
:101C900080910002811107C089E50E94EB798823B9
:101CA00011F40C94252310924117109242171092B0
:101CB0004317109244178091151790911617A09111
:101CC0001717B09118178093451790934617A09354
:101CD0004717B09348178091191790911A17A09140
:101CE0001B17B0911C178093491790934A17A09324
:101CF0004B17B0934C171092130B1092140B1092B9
:101D0000150B1092160B81E08093020B882011F4C2
:101D10000C940D238091000281110C94372389E5E6
:101D20000E94EB7981110C943723809217028091E5
:101D30000002882321F0911007C00C943D238AE50E
:101D40000E94EB798111F7CF88E50E94EB79882317
:101D5000D1F00E94067A672B682B692BA1F00E94B4
:101D6000117A2091F1163091F2164091F3165091AC
:101D7000F4160E94CEB060930D1770930E178093E7
:101D80000F179093101789E50E94EB798823D1F003
:101D90000E94067A672B682B692BA1F00E94117AAA
:101DA0002091F5163091F6164091F7165091F816DD
:101DB0000E94CEB06093111770931217809313177F
:101DC000909314178AE50E94EB798823D1F00E9442
:101DD000067A672B682B692BA1F00E94117A20915B
:101DE000F9163091FA164091FB165091FC160E949C
:101DF000CEB06093151770931617809317179093B2
:101E0000181729E137E145E157E161E177E18DE01C
:101E100097E10E94298A1092F5111092F41180E046
:101E20000E94099380917D0990917E09A0917F097C
:101E3000B091800980932B0290932C02A0932D02E5
:101E4000B0932E0280917B0990917C09909322029D
:101E5000809321020E94033160931B0B70931C0B33
:101E600080931D0B90931E0B10925A0A1092590AE0
:101E70001092580A0C946D22109256170C946D22F1
:101E800081E0809356170C946D228DE40E94EB79CB
:101E9000882311F40C941F220E94117A0E942DB203
:101EA0006937710511F40C949C1B0CF0D3C06A3295
:101EB000710509F4D9C60CF068C06731710509F4E1
:101EC000C5C30CF041C06231710511F40C9498192E
:101ED00024F577FF02C00C946D22623071050CF47A
:101EE0009FC16131710511F00C946D225F98479884
:101EF0008A989FB7F894809108018E7F809308019B
:101F00009FBF9FB7F894809108018B7F8093080151
:101F10009FBF8D9812980C946D226431710509F45D
:101F20003EC30CF483C16531710509F48BC366317E
:101F3000710511F00C946D221092900F10928F0F7A
:101F40001092910F0C946D226B31710509F4BEC390
:101F50003CF46931710509F4A5C30CF48DC3A8C321
:101F60006E31710509F438C434F46C31710509F42B
:101F700001C40C946D226F31710509F416C66032EC
:101F8000710509F4A3C50C946D226936710509F435
:101F9000A9C654F56335710511F40C9493198CF4AA
:101FA0006135710511F40C945B1914F00C948F19C0
:101FB0006035710511F00C946D22999AA19A0C94D8
:101FC0006D226535710511F40C94D21914F40C943A
:101FD00098196C35710511F40C94E919683671057E
:101FE00009F460C60C946D226237710511F40C94EB
:101FF000BF1A9CF46B36710511F40C94551914F446
:102000000C9425196D36710511F00C946D228FEF2B
:102010009FEF0E941A7A0C946D226537710511F4B6
:102020000C94AF1A4CF46337710511F00C946D22C7
:10203000ECE9F3E00C94AB1A6737710509F4ECC0D6
:102040006837710511F00C946D2280E00E940993AD
:102050000C946D22663F31E0730711F40C941E1F3F
:102060000CF064C06C3D710511F40C94E61D4CF548
:102070006B3C710511F40C94681C7CF46E3B71058B
:1020800009F4D9C6693C710511F40C94471C6C38ED
:10209000710511F00C946D2214C66D3C710511F49C
:1020A0000C94A51C14F40C94851C6E3C710511F461
:1020B0000C94031D6A3D710511F40C94201D0C94C1
:1020C0006D226E3281E0780711F40C94CC1E8CF4F2
:1020D000623E710509F463C56D32E1E07E0711F4DB
:1020E0000C94041E6D3D710511F00C946D220C943E
:1020F000F51D6039F1E07F0711F40C94181F3CF4D2
:102100006F32714011F40C94E01E0C946D22643F08
:1021100041E0740711F40C941B1F653F714011F0EE
:102120000C946D220E94B72F0C946D22663F93E0B1
:10213000790711F40C94E820B4F5673EF3E07F07CB
:1021400011F40C940A22A4F46D3532E0730711F4F3
:102150000C94231F603A43E0740709F4EBC4673F13
:10216000714011F00C946D220E949C290C946D22F8
:10217000633F93E0790711F40C9437203CF4693EF7
:10218000734011F40C9414200C946D22643F23E0EE
:10219000720711F40C947220653F734011F40C9493
:1021A000AD200C946D226E3F43E0740711F40C9443
:1021B000B1219CF4693F93E0790711F40C9420213C
:1021C0006D3FE3E07E0711F40C943B21673F7340C1
:1021D00011F00C946D220C940421683024E07207F5
:1021E00011F40C94DC215CF46730744011F00C9411
:1021F0006D2280E090E00E94FC460C946D226930D4
:1022000084E0780711F40C94DF216031744011F4FC
:102210000C94E2210C946D22E1EEF2E00C94A61BEA
:1022200081E090E00E94FC460C946D2283E50E94C0
:10223000EB79882341F00E94117A0E942DB27093AD
:1022400082096093810986EE9FE09093E50F809369
:10225000E40F81E090E090938511809384111092B7
:1022600087111092861140E050E0BA018AEE9FE09B
:102270000E947B608091E40F9091E50F2BE1FC01BF
:102280003496DE01159601900D922A95E1F7FC0136
:10229000828193819C838B838AEB92E09A838983EA
:1022A000BE016F5F7F4F83EE94E00E94F68ACE01FD
:1022B00001960E94FE44F09086112F2C30908711D9
:1022C0008091ED0F882309F446C08250823030F4AB
:1022D0008FE28093920F1092930F3DC06091F60FA2
:1022E0007091F70F8091F80F9091F90F40E00E94E4
:1022F0008A5E882381F12091FA0FF0E22F9F9001EE
:102300001124C9018154934F892B29F180E090E079
:10231000E0E05EE2DC01A20FB31FA154B34F4C9189
:10232000403289F08830910539F4AE2FB0E0A457DF
:10233000B04F16965C93EF5FAE2FB0E0A457B04F4E
:1023400016964C93EF5F01968B30910519F7F0E0EC
:10235000E457F04F16828091810990918209892B70
:1023600059F48AEF92E00E948E2985E093E00E9462
:102370008E2901E010E007C081E193E00E948E29E0
:102380008CE193E0F4CF88E293E00E948C294AE04C
:10239000B801CE0101960E94C85B89819A810E9492
:1023A0008C29CE0101960E94975B83EB94E00E94FA
:1023B0008C290E94802987E393E00E948C294AE0BF
:1023C000B801CE0101960E94C85B89819A810E9462
:1023D0008C29CE0101960E94975B83EB94E00E94CA
:1023E0008C290E9480290F5F1F4F0730110559F675
:1023F000812C912C00E010E066EE462E6FE0562E08
:10240000FA942896FFAE28978214930409F48EC09C
:102410005092E50F4092E40F22E030E030938511B6
:102420002093841128968FAD2897881990E0909377
:1024300087118093861140E050E0BA018AEE9FE058
:102440000E947B608091E40F9091E50FFC0134962F
:10245000DE0115962BE101900D922A95E1F7FC0122
:10246000828193819C838B832AEB32E03A83298398
:10247000BE016F5F7F4F83EE94E00E94F68ACE012B
:1024800001960E94FE4462E97FE0CE01CB960E9455
:10249000FB5B8091BA0F811141C021968EAD9FAD3B
:1024A0002197892BD9F1BE01655C7F4FCE01019642
:1024B0000E94F35BEDB6FEB68D819E813C0121E06A
:1024C000621A7108EDB7FEB7E81BF90B0FB6F89466
:1024D000FEBF0FBEEDBF2DB73EB72F5F3F4F690167
:1024E000009729F0C114D10411F00C94ED24F601E9
:1024F000CF018C199D098615970514F40C94FE24C0
:10250000DD24D3940FB6F894FEBE0FBEEDBECE010F
:1025100001960E94975BD1100C940625CE01CB96B4
:102520000E94975B8FEF881A980A6ECF86E493E03B
:102530000E948C2960918109709182094AE0CE0144
:1025400001960E94C85B89819A810E948C29CE01E4
:1025500001960E94975B0E94802980918109909149
:102560008209019646E0489F9001499F300D112451
:102570002017310754F08FE593E00E948E298CE6F6
:1025800093E00E948E290C946D228AE793E00E94CA
:102590008E2987E893E00E948E290C946D22E1E752
:1025A000F4E08491882341F09091C00095FFFCCF26
:1025B0008093C6003196F5CF8091C00085FFFCCF97
:1025C0008AE08093C600109285111092841140E039
:1025D00050E0BA0189EC9FE00E947B608BE1E9EC5E
:1025E000FFE0DE01159601900D928A95E1F780914A
:1025F000C70F9091C80F9C838B838AEB92E09A83DC
:102600008983BE016F5F7F4F83EE94E00E94F68A5C
:10261000CE0101960E94FE44E3E6F4E08491882313
:1026200041F09091C00095FFFCCF8093C600319699
:10263000F5CF8091C00085FFFCCF8AE08093C60073
:102640000C946D220E9404560C946D2200914A0A4B
:1026500010914B0A0C5F1F4F6AE270E0C8010E94A4
:10266000D4B5009719F0FC013197108261E0C801E0
:102670000E94788C0C946D228091910F882331F008
:1026800081E090E09093900F80938F0F0E94033130
:102690006093B9097093BA098093BB099093BC0900
:1026A0000C946D2281E090E00E94FC460C946D2217
:1026B0008091910F882311F40C946D2283E50E9480
:1026C000EB7981110C94A2250C946D228091910FCD
:1026D000882309F439C0EFEBF2E08491882341F0BC
:1026E0009091C00095FFFCCF8093C6003196F5CF46
:1026F0006091BD0F7091BE0F8091BF0F9091C00F80
:102700004AE00E94CD52EDEBF2E08491882341F043
:102710009091C00095FFFCCF8093C6003196F5CF15
:102720006091C10F7091C20F8091C30F9091C40F3F
:102730004AE00E94CD528091C00085FFFCCF8AE024
:102740008093C6000C946D22E1EDF2E08491882321
:1027500041F09091C00095FFFCCF8093C600319668
:10276000F5CF8091C00085FFFCCF8AE08093C60042
:102770000C946D2280914A0A90914B0A6AE270E0B3
:1027800004960E94D4B58C01892BE1F020915C0A5B
:1027900030915D0A40E6429FC001439F900D112495
:1027A0006EE470E0855C944F0E94D4B560E270E006
:1027B0000E94D4B5019690934B0A80934A0AF8017F
:1027C0003197108280914A0A90914B0A60E00496FA
:1027D0000E94788C0C946D228091910F882311F4C3
:1027E0000C946D220E94598E80914A0A90914B0A56
:1027F0006AE270E004960E94D4B58C01892BE1F066
:1028000020915C0A30915D0A40E6429FC001439FDF
:10281000900D11246EE470E0855C944F0E94D4B555
:1028200060E270E00E94D4B5019690934B0A8093C9
:102830004A0AF8013197108200914A0A10914B0A16
:102840008091910F882311F40C946D22480194E03B
:10285000890E911C84E691E10E947F661092900F90
:1028600010928F0F1D8218861C821B828AEB92E0C9
:102870009A83898385EC9FE09093E50F8093E40F22
:10288000F80184818F3209F090C06FE270E0C401DA
:102890000E94D4B58C010F5F1F4F5AE0552E9E0148
:1028A0002F5F3F4F39010115110509F484C06FE214
:1028B00070E0C8010E94D4B56C01009709F47CC097
:1028C0000817190708F078C05C01A01AB10AA50121
:1028D000B801CE0180960E94FDB5E0E2F0E0EC0F79
:1028E000FD1FEA0DFB1D10828E01005E1F4FF801D7
:1028F0008191882339F09091C00095FFFCCF80939F
:10290000C600F6CF8091C00085FFFCCF5092C60074
:102910006091E40F7091E50F6115710511F06C5F26
:102920007F4F21E0AE01405E5F4FCE0105960E94D1
:102930008766811132C0EBE0F3E08491882371F067
:102940009091C00095FFFCCF8093C6003196F5CFE3
:102950009091C00095FFFCCF8093C600F801819153
:102960008F018111F5CFE9E0F3E08491882341F0F4
:102970009091C00095FFFCCF8093C6003196F5CFB3
:102980008091C00085FFFCCF8AE08093C600CE0115
:1029900001960E94FE440C946D227092E50F6092A5
:1029A000E40F86010F5F1F4F7ECF86EE9FE090936E
:1029B000E50F8093E40F84016091E40F7091E50FBF
:1029C0006115710511F06C5F7F4F18A21BA222E008
:1029D000A801CE0180960E9487668823F1F0CE017F
:1029E00080960E9401548823C1F06CA57DA58EA518
:1029F0009FA541E00E948A5E882379F0E8A920E241
:102A0000E29FF0011124E154F34F309731F085EE4D
:102A100080831BA20E944A5EF82ECE0180960E94FF
:102A2000E327FF2009F1EBEFF2E08491882341F0E6
:102A30009091C00095FFFCCF8093C6003196F5CFF2
:102A4000F8018191882339F09091C00095FFFCCF67
:102A50008093C600F6CF1092BD0F1092BE0F109259
:102A6000BF0F1092C00F2CC0E3EEF2E084918823D8
:102A700041F09091C00095FFFCCF8093C600319645
:102A8000F5CFF8018191882339F09091C00095FF2E
:102A9000FCCF8093C600F6CFE1EEF2E0849188236C
:102AA00041F09091C00095FFFCCF8093C600319615
:102AB000F5CF8091C00085FFFCCF8AE08093C600EF
:102AC000CE0101960E94FE440C946D2280918F0FDE
:102AD0009091900F019721F40E9477930E94598E54
:102AE00000914A0A10914B0A0C5F1F4F6AE270E096
:102AF000C8010E94D4B5009719F0FC0131971082EB
:102B000061E0C8010E94788C8091910F882331F098
:102B100081E090E09093900F80938F0F0E9403319B
:102B20006093B9097093BA098093BB099093BC096B
:102B30000C946D2280914A0A90914B0A6AE270E0EF
:102B400005960E94D4B58C01892BE1F020915C0A96
:102B500030915D0A40E6429FC001439F900D1124D1
:102B60006EE470E0855C944F0E94D4B560E270E042
:102B70000E94D4B5019690934B0A80934A0AF801BB
:102B80003197108280914A0A90914B0A21E020935C
:102B90008E0F60E005960E94788C0C946D2281E087
:102BA00090E00E94FC460C946D220E9403316093D9
:102BB000BD097093BE098093BF099093C00900912D
:102BC000B9091091BA092091BB093091BC09601B69
:102BD000710B820B930B28EE33E040E050E00E9433
:102BE00092B0CA01B9012CE330E040E050E00E940D
:102BF00092B07F936F933F932F9384E594E09F93DC
:102C00008F938E010F5F1F4F1F930F930E94C7AAD0
:102C1000E1E7FDE08491EDB7FEB738960FB6F89482
:102C2000FEBF0FBEEDBFE1E7FDE0882349F09091C4
:102C3000C00095FFFCCF8093C60031968491F5CFFC
:102C4000F8018191882339F09091C00095FFFCCF65
:102C50008093C600F6CF8091C00085FFFCCF8AE04C
:102C60008093C6000C946D2283E50E94EB79882343
:102C700011F40C946D220E94117A4B015C0180E5E5
:102C80000E94EB79882311F40C946D22C501B401E4
:102C90000E942DB26F3F710509F010F40C94B3251A
:102CA0000C946D2288E690E00E949D4881110C945E
:102CB0006D226FEF7FEF8FEF9FEF0E9429760C94CC
:102CC0006D2283E50E94EB79882311F40C946D2228
:102CD0000E94117A0E942DB270937B0A60937A0A47
:102CE0000C946D2289E690E00E949D4881110C941D
:102CF0006D22EEE4F4E08491882341F09091C000CD
:102D000095FFFCCF8093C6003196F5CFE0918F11EF
:102D100024E0E29FF0011124EE58F54F60817181AB
:102D20008281938141E00E945453EBE4F4E084916A
:102D3000882341F09091C00095FFFCCF8093C6009E
:102D40003196F5CFE0918F11F0E0EE0FFF1FE458C0
:102D5000F54F60817181072E000C880B990B0E9442
:102D6000FCAA41E00E945453E7E4F4E084918823F4
:102D700041F09091C00095FFFCCF8093C600319642
:102D8000F5CF60916E0A70916F0A8091700A9091F0
:102D9000710A41E00E945453E4E4F4E084918823F2
:102DA00041F09091C00095FFFCCF8093C600319612
:102DB000F5CF60917A0A70917B0A072E000C880B80
:102DC000990B0E94FCAA41E00E945453E0E4F4E015
:102DD0008491882341F09091C00095FFFCCF8093AF
:102DE000C6003196F5CFE0918F11F0E0EE57F54F28
:102DF000608170E080E090E00E944253EBE3F4E0F9
:102E00008491882341F09091C00095FFFCCF80937E
:102E1000C6003196F5CF6091810A70E080E090E0C5
:102E20000E9442538091C00085FFFCCF8AE08093CE
:102E3000C6000C947F2683E50E94EB79882361F01D
:102E40000E94117A0E942DB270937B0A60937A0AD5
:102E500081E0809301020FC082E50E94EB79882314
:102E600051F00E94117A0E942DB270937B0A6093F8
:102E70007A0A109201020E9403312B013C016091F9
:102E80007A0A70917B0A072E000C880B990B0E941E
:102E9000FCAAFF24F39420916E0A30916F0A4091AE
:102EA000700A5091710A0E9419B318160CF0F12C97
:102EB000F092680981E080938C0F87E2C82E83E04E
:102EC000D82E93E2A92E93E0B92E2FE1822E23E093
:102ED000922E3AE0F32E8091680960917A0A7091FF
:102EE0007B0A882309F489C1072E000C880B990BF3
:102EF0000E94FCAA20916E0A30916F0A4091700ADC
:102F00005091710A0E9419B318160CF090C10E94DA
:102F10000331DC01CB0184199509A609B709893E63
:102F20009340A105B10508F457C1E0914F1744E063
:102F3000E49FF0011124EE58F54F60817181828188
:102F40009381F6012491E7E2F3E0222349F03091E6
:102F5000C00035FFFCCF2093C60031962491F5CFF9
:102F600042E00E945453F5018491E3E2F3E08823A8
:102F700049F09091C00095FFFCCF8093C600319638
:102F80008491F5CF60914F1770E080E090E00E944F
:102F90004253F4018491EFE1F3E0882349F09091EA
:102FA000C00095FFFCCF8093C60031968491F5CF89
:102FB00060916E0A70916F0A8091700A9091710A07
:102FC00041E00E9454538091C00085FFFCCFF092F5
:102FD000C6000E9403312B013C01CE018F5B9F4F45
:102FE0000E94094463EE74E0CE018F5B9F4F0E9404
:102FF000C05A8111ECC063EE74E0CE0180960E944D
:10300000FB5B65E973E0CE0101960E94FB5BAE01BC
:10301000405E5F4FBE016F5F7F4FCE018F5B9F4F62
:103020000E947959CE0101960E94975BCE0180964D
:103030000E94975B63EE74E0CE0180960E94FB5B7A
:1030400062EE74E0CE0101960E94FB5BAE01405E31
:103050005F4FBE016F5F7F4FCE018F5B9F4F0E941E
:103060007959CE0101960E94975BCE0180960E940D
:10307000975BBE016F5B7F4FCE0101960E94F35BB1
:1030800020E030E040E2BE016F5F7F4FCE01CB9683
:103090000E945E44CE0101960E94975B67E973E04F
:1030A000CE01CB960E94C05A882309F450C0BE01BD
:1030B0006F5B7F4FCE0101960E94F35B21E030E011
:1030C00040E2BE016F5F7F4FCE0180960E945E445A
:1030D000CE0101960E94975B21E030E040E050E095
:1030E000BE01605E7F4FCE0101960E940F5C6CE9CD
:1030F00073E0CE0101960E94C05A382ECE0101968F
:103100000E94975B3320D1F02CA13DA141E050E01B
:10311000BE01605E7F4FCE0101960E940F5C8981E7
:103120009A81009719F00E94E5A903C060E070E061
:10313000CB018B01CE0101960E94975B10937B0A15
:1031400000937A0ACE0180960E94975B3CC06EE99C
:1031500073E0CE018F5B9F4F0E94C05A882319F005
:103160000E94DB4630C064EA73E0CE018F5B9F4F64
:103170000E94C05A882329F080E090E00E94FC461B
:1031800022C06AEA73E0CE018F5B9F4F0E94C05A53
:10319000811119C025E030E040E050E0BE016F5BD6
:1031A0007F4FCE0101960E940F5C63EB73E0CE016E
:1031B00001960E94C05A382ECE0101960E94975B5C
:1031C00031100E941649CE01CB960E94975BCE012A
:1031D0008F5B9F4F0E94975B0E94033880915B0A30
:1031E000882331F00E94598E1092900F10928F0F09
:1031F0000E94F94F0E9439446ECE072E000C880BB6
:10320000990B0E94FCAA20916E0A30916F0A40919E
:10321000700A5091710A0E94F6AA87FF08C0809137
:103220000102811104C080916711811170CE10924A
:103230008C0F0E94033160931B0B70931C0B8093C7
:103240001D0B90931E0B0C946D2283E50E94EB796D
:10325000882319F10E94117A20E030E0A9010E9430
:10326000F6AA87FD0FC00E94117A20E030E04FE7F8
:1032700053E40E9419B3181644F00E94117A0E9478
:103280002DB205C060E070E002C06FEF70E0709397
:103290004E1760934D170C946D228FEF90E0909332
:1032A0004E1780934D170C946D2210924E1710926A
:1032B0004D170C946D22999A89EB93E00E948E2908
:1032C00068EE73E080E090E00E940C5EA19861E0FF
:1032D00088E00E94DA5C61E08BE00E94DA5C61E0E9
:1032E0008AE00E94DA5C61E085E00E94DA5C61E0DD
:1032F00089E00E94DA5C68E873E180E090E00E9477
:103300000C5E60E088E00E94DA5C60E08BE00E9486
:10331000DA5C60E08AE00E94DA5C0C946D22109224
:103320005A170C946D2281E080935A170C946D22E9
:1033300083E50E94EB798823A1F00E94117A20E0B6
:1033400030E04AE754E40E9456A50E9433B26093ED
:1033500023027093240280932502909326020C94FA
:103360006D2288E50E94EB7981110C94B62589E5E0
:103370000E94EB7981110C94B6258AE50E94EB79C5
:1033800081110C94B62585E40E94EB7981110C948F
:10339000B6250E9477938D9A129A81E00E94349309
:1033A0000C946D2283E50E94EB790E94117A20E053
:1033B00030E04AE754E40E9456A50E9433B260937D
:1033C000170B7093180B8093190B90931A0B0C9496
:1033D0006D2282E50E94EB79882329F00E94117A00
:1033E0004B015C0106C0812C912C10E8A12E1FE33B
:1033F000B12E2EEC32E02C963FAF2EAF2C970DE283
:1034000017E184EA91E129969FAF8EAF2997B4ED39
:103410002B2EB1E13B2E2A961FAE2A972C96EEADAD
:10342000FFAD2C9781912C96FFAFEEAF2C970E94A9
:10343000EB79882309F46CC02A96FFAD2A97F33004
:1034400009F05BC00E94117AA50194010E94BCB1F1
:103450002B013C0120E030E040EA51E40E94F6AA52
:1034600087FF45C0A3019201F801608171818281CB
:1034700093810E94BCB16B017C019B01AC01609106
:1034800090117091911180919211909193110E94DD
:1034900056A560939011709391118093921190931F
:1034A0009311A70196012996EEADFFAD2997608192
:1034B0007181828193810E9456A52996EEADFFAD60
:1034C00029976083718382839383F1016081718185
:1034D000828193810E94FAAAA70196010E9456A5B3
:1034E0000E9433B2F1016083718382839383F80178
:1034F00040825182628273820BC00E94117AA501C0
:1035000094010E94BCB1F80160837183828393832C
:103510002A96FFAD2A97FF5F2A96FFAF2A970C5F86
:103520001F4F29962EAD3FAD29972C5F3F4F29960F
:103530003FAF2EAF299734E0230E311CF43009F051
:103540006DCF0E94192DC9C79091C00095FFFCCF87
:103550008093C600319684918111F6CFBEC78091C9
:103560004A0A90914B0A6AE270E005960E94D4B52F
:10357000009709F4B2C7FC0131971082AEC7E9E9A0
:10358000F3E08491882341F09091C00095FFFCCF37
:103590008093C6003196F5CF60910D1770910E178C
:1035A00080910F179091101742E00E945453E6E962
:1035B000F3E08491882341F09091C00095FFFCCF07
:1035C0008093C6003196F5CF609111177091121754
:1035D000809113179091141742E00E945453E3E92D
:1035E000F3E08491882341F09091C00095FFFCCFD7
:1035F0008093C6003196F5CF60911517709116171C
:10360000809117179091181742E00E945453E0E9F7
:10361000F3E08491882341F09091C00095FFFCCFA6
:103620008093C6003196F5CF6091191770911A17E3
:1036300080911B1790911C1742E00E945453E5E8BB
:10364000F3E08491882341F09091C00095FFFCCF76
:103650008093C6003196F5CF2FB7F8946091FD1690
:103660007091FE168091FF16909100172FBF0E9457
:10367000FCAA20912D1730912E1740912F175091B1
:1036800030170E94BCB142E00E945453E2E8F3E0DC
:103690008491882341F09091C00095FFFCCF8093E6
:1036A000C6003196F5CF2FB7F8946091011770914D
:1036B000021780910317909104172FBF0E94FCAA54
:1036C00020913117309132174091331750913417B0
:1036D0000E94BCB142E00E945453EFE7F3E08491B2
:1036E000882341F09091C00095FFFCCF8093C600E5
:1036F0003196F5CF2FB7F8946091051770910617A2
:1037000080910717909108172FBF0E94FCAA209163
:1037100035173091361740913717509138170E945E
:10372000BCB142E00E9454538091C00085FFFCCFA1
:103730008AE08093C600D1C681E00E940993CDC67D
:103740009091C00095FFFCCF8093C60081918111BC
:10375000F7CF8091C00085FFFCCF8AE08093C60040
:10376000E7E7F3E08491882341F09091C00095FF52
:10377000FCCF8093C6003196F5CF659B03C0E2ED88
:10378000F2E009C0E7EDF2E006C09091C00095FFBD
:10379000FCCF8093C60081918111F7CF8091C0004A
:1037A00085FFFCCF8AE08093C600EFE6F3E08491CA
:1037B000882341F09091C00095FFFCCF8093C60014
:1037C0003196F5CF649B03C0E2EDF2E009C0E7ED6E
:1037D000F2E006C09091C00095FFFCCF8093C60038
:1037E00081918111F7CF8091C00085FFFCCF8AE0E5
:1037F0008093C600E7E6F3E08491882341F090913E
:10380000C00095FFFCCF8093C6003196F5CF809124
:10381000030181FD03C0E2EDF2E009C0E7EDF2E053
:1038200006C09091C00095FFFCCF8093C6008191A7
:103830008111F7CF8091C00085FFFCCF8AE0809393
:10384000C600EFE5F3E08491882341F09091C00039
:1038500095FFFCCF8093C6003196F5CF4B9B03C0FC
:10386000E2EDF2E009C0E7EDF2E006C09091C000A1
:1038700095FFFCCF8093C60081918111F7CF809195
:10388000C00085FFFCCF8AE08093C60026C6F4EE18
:10389000CF2EF1E1DF2E0EEC12E0A4E0FA2EF00EB6
:1038A000F80181918F010E94EB79882349F00E94F1
:1038B000117A0E9433B2F60160837183828393830D
:1038C000F4E0CF0ED11CF012EBCF0E94E18905C6C7
:1038D00074EAC72E71E1D72E0EEC12E0E4E0FE2E62
:1038E000F00EF80181918F010E94EB79882339F065
:1038F0000E94117AF6016083718382839383F4E0DE
:10390000CF0ED11CF012EDCFE8C583E50E94EB7914
:10391000882351F00E94117A60939C1170939D113D
:1039200080939E1190939F1184E50E94EB798823E8
:1039300009F4D3C50E94117A6093A0117093A1116C
:103940008093A2119093A311C8C583E50E94EB79DF
:10395000882351F00E94117A6093B8117093B911C5
:103960008093BA119093BB1184E50E94EB79882370
:1039700051F00E94117A6093BC117093BD11809335
:10398000BE119093BF1182E40E94EB79882361F00D
:103990000E94117A0E9433B26093B4117093B511F2
:1039A0008093B6119093B71188E50E94EB79882334
:1039B00051F00E94117A609398117093991180933D
:1039C0009A1190939B118AE50E94EB79882351F01C
:1039D0000E94117A609394117093951180939611BF
:1039E0009093971185E40E94EB79882309F475C5BB
:1039F0000E94117A609390117093911180939211AB
:103A0000909393116AC551EFC52E56E1D52E0EEC59
:103A100012E063E0F62EF00EF80181918F010E9412
:103A2000EB79882339F00E94117AF6016083718363
:103A300082839383F4E0CF0ED11CF012EDCF4DC5FD
:103A40008AED90E00E949D48811147C588E50E945B
:103A5000EB79882381F000918F1110E00E94117A98
:103A6000000F111F000F111FF801E059F04F608384
:103A700071838283938389E50E94EB79882381F0A7
:103A800000918F1110E00E94117A000F111F000F9A
:103A9000111FF801E858F04F60837183828393838C
:103AA0008AE50E94EB79882381F000918F1110E064
:103AB0000E94117A000F111F000F111FF801E0582A
:103AC000F04F6083718382839383E1E7FDE084910B
:103AD000882341F09091C00095FFFCCF8093C600F1
:103AE0003196F5CFEFE4F3E08491882341F0909193
:103AF000C00095FFFCCF8093C6003196F5CF1092A1
:103B00008F1180918F11823008F058C0EFE3F5E0FB
:103B10008191882339F09091C00095FFFCCF80936C
:103B2000C600F6CFE0918F1124E0E29FF00111244E
:103B3000E059F04F608171818281938142E00E945F
:103B4000545307EC13E0F8018191882339F09091E8
:103B5000C00095FFFCCF8093C600F6CFE0918F1197
:103B600034E0E39FF0011124E858F04F6081718147
:103B70008281938142E00E945453F80181918F0128
:103B8000882339F09091C00095FFFCCF8093C60048
:103B9000F4CFE0918F1124E0E29FF0011124E0586E
:103BA000F04F608171818281938142E00E94545381
:103BB00080918F118F5F80938F11A3CF8091C00070
:103BC00085FFFCCF8AE08093C60087C483E50E940E
:103BD000EB79882309F481C40E94117A0E942DB2E6
:103BE000709322026093210278C483E50E94EB79EE
:103BF000882309F472C40E94117A0E942DB2709336
:103C0000400260933F0269C480E50E94EB798823FB
:103C100051F00E94117A60931C0270931D028093F0
:103C20001E0290931F0289E40E94EB79882381F0A1
:103C30000E94117A2DEB37E346E05EE30E9456A521
:103C400060930C0270930D0280930E0290930F020A
:103C500084E40E94EB79882381F00E94117A2DEB95
:103C600037E346E05EE30E94BCB1609318027093B4
:103C7000190280931A0290931B0283E40E94EB794D
:103C8000882351F00E94117A60930202709303021C
:103C900080930402909305020E94C23BE9ECF3E09A
:103CA0008191882339F09091C00095FFFCCF8093DB
:103CB000C600F6CFECECF3E08191882339F09091C7
:103CC000C00095FFFCCF8093C600F6CF60911C0228
:103CD00070911D0280911E0290911F0242E00E948D
:103CE0005453E0EDF3E08191882339F09091C000C6
:103CF00095FFFCCF8093C600F6CF2DEB37E346E06F
:103D00005EE360910C0270910D0280910E02909121
:103D10000F020E94BCB142E00E945453E4EDF3E074
:103D20008191882339F09091C00095FFFCCF80935A
:103D3000C600F6CF2DEB37E346E05EE36091180254
:103D40007091190280911A0290911B020E9456A54F
:103D500042E00E945453E8EDF3E08191882339F06A
:103D60009091C00095FFFCCF8093C600F6CF609184
:103D7000020270910302809104029091050242E0D8
:103D80000E9454538091C00085FFFCCF8AE080934D
:103D9000C6000E94192DA1C383E50E94EB798823F8
:103DA00019F00E94117A03C060E070E0CB016093CB
:103DB000C0117093C1118093C2119093C3118DC330
:103DC00085E40E94EB79882341F00E94117A0E94D9
:103DD0002DB28B0177FD0AC002C000E010E0812CFB
:103DE000912C86E1A82E83E4B82E06C0812C912C5C
:103DF000BCE8AB2EB2E4BB2E83E50E94EB798823AE
:103E000021F00E94117A4B015C0183E40E94EB795E
:103E1000882331F00E94117A0E942DB29B0102C0CA
:103E200025E030E0A801C501B4010E94EC8E55C325
:103E30000E94779352C30E94192D4FC30E94282ECF
:103E40000E9452414AC30E94779383E50E94EB7916
:103E5000882341F00E94117A0E942DB270934E0285
:103E600060934D0280914D0290914E0282309105F7
:103E700009F0BFC088E50E94EB79882349F10E94D0
:103E8000117A4B015C010E94CC469B01AC0160E0C1
:103E900070E0CB010E94CDB09B01AC01C501B40123
:103EA0000E9419B318161CF40E94117A09C00E94CE
:103EB000CC469B01AC0160E070E0CB010E94CDB02C
:103EC00060932702709328028093290290932A021C
:103ED00082E50E94EB79882351F00E94117A609369
:103EE0008B1170938C1180938D1190938E11E1E75B
:103EF000FDE08491882341F09091C00095FFFCCFB4
:103F00008093C6003196F5CFEAE2F3E084918823EE
:103F100041F09091C00095FFFCCF8093C600319690
:103F2000F5CFAFE3CA2EA5E0DA2EF6018191882302
:103F300039F09091C00095FFFCCF8093C600F6CF7A
:103F40006091700F7091710F8091720F9091730F4B
:103F500042E00E94545307EC13E0F801819188235A
:103F600039F09091C00095FFFCCF8093C600F6CF4A
:103F70006091780F7091790F80917A0F90917B0FFB
:103F800042E00E945453F60181916F01882339F079
:103F90009091C00095FFFCCF8093C600F4CF609154
:103FA0002702709128028091290290912A0242E012
:103FB0000E945453F80181918F01882339F0909128
:103FC000C00095FFFCCF8093C600F4CF60917C0FBA
:103FD00070917D0F80917E0F90917F0F42E00E9443
:103FE00054538091C00085FFFCCF8AE08093C600C7
:103FF00008C0049730F081E090E090934E028093E7
:104000004D021092020B80914D0290914E029093BE
:104010004C0280934B021092130B1092140B1092CF
:10402000150B1092160B59C283E50E94EB79882379
:1040300009F453C20E94117A0E942DB262307105B8
:104040002CF47093B8096093B70906C081E090E042
:104050009093B8098093B7098091B7099091B809F6
:1040600097FF6FCA1092B8091092B7096ACA82E521
:104070000E94EB79882329F00E94117A9B01AC0100
:1040800004C020E030E040E85FE383E52F962FAFE7
:104090002F9760963FAF609761964FAF619762969A
:1040A0005FAF62970E94EB79882309F416C20E94E1
:1040B000117A2F962FAD2F9760963FAD609761963E
:1040C0004FAD619762965FAD62970E94BCB16093FD
:1040D0006C0F70936D0F80936E0F90936F0F0E9413
:1040E000192DFBC182E50E94EB79882329F00E94FB
:1040F000117A9B01AC0104C020E030E040E85FE3AE
:1041000083E52F962FAF2F9760963FAF609761960C
:104110004FAF619762965FAF62970E94EB798823F9
:1041200009F4DBC10E94117A2F962FAD2F9760966C
:104130003FAD609761964FAD619762965FAD6297B4
:104140000E94BCB16093880F7093890F80938A0F8F
:1041500090938B0F0E94192DC0C182E50E94EB79CC
:10416000882329F00E94117A9B01AC0104C020E051
:1041700030E040E85FE383E52F962FAF2F976096FE
:104180003FAF609761964FAF619762965FAF62975E
:104190000E94EB79882309F4A0C10E94117A2F961E
:1041A0002FAD2F9760963FAD609761964FAD6197A9
:1041B00062965FAD62970E94BCB16093770970937D
:1041C00078098093790990937A090E94192D85C105
:1041D00083E50E94EB79882309F47FC10E94117A5C
:1041E0000E942DB26F3F710509F02CF477FF05C0D6
:1041F00060E070E002C06FEF70E07093120B6093AC
:10420000110B0E94192D69C183E50E94EB79882367
:1042100009F463C10E94117A0E942DB265367105BE
:1042200034F46E3171052CF46EE170E002C064E686
:1042300070E07093100B60930F0B0E94192D4DC10D
:1042400083E50E94EB79882309F447C10E94117A23
:104250000E942DB26D3371052CF477FF05C060E02C
:1042600070E002C06CE370E07093760960937509AA
:104270000E94192D32C183E50E94EB79882309F44D
:104280002CC10E94117A0E942DB261157105F9F4BA
:1042900080916D0990916E0990937D0A80937C0ABC
:1042A00090937F0A80937E0A80916B0990916C09AC
:1042B00090937B0A80937A0A8091690990916A09A8
:1042C00090934E1780934D170E94A43506C161301C
:1042D0007105F9F4809173099091740990937D0AA6
:1042E00080937C0A90937F0A80937E0A8091710963
:1042F0009091720990937B0A80937A0A80916F095A
:104300009091700990934E1780934D170E94A43599
:10431000E4C06230710569F410927D0A10927C0A43
:1043200010927F0A10927E0A10927B0A10927A0AEB
:10433000D4C06330710509F0D0C010927D0A10928C
:104340007C0A10927F0A10927E0A10927B0A1092C9
:104350007A0A0E9477938D9A129A80E00E94349391
:10436000BCC083E50E94EB79882309F4B6C00E94A3
:10437000117A0E942DB28B0184E50E94EB7988238B
:1043800029F00E94117A0E942DB202C06FEF7FEFD8
:104390000230110508F0A1C080914F1790E0681716
:1043A000790709F40FC46F3FFFEF7F0709F40AC4D0
:1043B000CB010E94587E06C40E9416498EC00E94FE
:1043C000DB468BC083E50E94EB79882309F485C026
:1043D0000E94117A4B015C0120E030E0A9010E94AB
:1043E000F6AA811104C081E08093170276C020E014
:1043F00030E040E251E4C501B4010E94BCB16093D9
:10440000B3097093B4098093B5099093B6091092DB
:10441000170263C01092450A80911F0B9091200BE8
:10442000A091210BB091220B8093460A9093470AEA
:10443000A093480AB093490A0E94B7964EC084E5FB
:104440000E94EB79882329F08FEF9FEF0E94587E1E
:1044500044C0E1E7FDE08491882341F09091C000E1
:1044600095FFFCCF8093C6003196F5CFECE3F3E0E7
:104470008491882341F09091C00095FFFCCF8093F8
:10448000C6003196F5CF80915C0A90915D0A20E6D6
:10449000289FF001299FF00D1124E55CF44F8191D4
:1044A000882339F09091C00095FFFCCF8093C6001F
:1044B000F6CFEAE3F3E08491882341F09091C000C5
:1044C00095FFFCCF8093C6003196F5CF8091C00058
:1044D00085FFFCCF8AE08093C6000E940331609381
:1044E0001B0B70931C0B80931D0B90931E0B07C42A
:1044F000912C0C94F60D29E137E145E157E161E19A
:1045000077E18DE097E10E94298A20E030E040EEDB
:1045100050E46091151770911617809117179091BC
:1045200018170E94CEB060932B0B70932C0B8093C6
:104530002D0B90932E0B6091370270913802809171
:10454000390290913A0260932B0270932C0280936F
:104550002D0290932E0220E030E040E752E40E94CA
:10456000BCB13FE4C32E37E1D32E7B018C012FE297
:104570003BE04BE25BE067E27BE083E29BE00E9492
:104580004E690E94779382E090E00E94A17829E131
:1045900037E145E157E161E177E18DE097E10E9484
:1045A000298A8091151790911617A0911717B0912D
:1045B000181780932B0B90932C0BA0932D0BB0937B
:1045C0002E0B20E030E040E752E460912B02709126
:1045D0002C0280912D0290912E020E94BCB17B0191
:1045E0008C012FE23BE04BE25BE067E27BE083E2A1
:1045F0009BE00E944E6910922B0210922C021092A6
:104600002D0210922E020E94779381E090E0909309
:10461000F5118093F4110C94050E8091450A8111D7
:104620000C948A0E70E8A72E7FE4B72E73ECC72E89
:1046300077ECD72E86017501A601950160E070E048
:10464000CB010E948A760C948A0E8091111790916A
:104650001217A0911317B0911417809341179093DC
:104660004217A0934317B09344170C945B0E81E05C
:1046700090E00E9490450C94950E81E490E0909318
:1046800042028093410282E490E09093460280933C
:10469000450283E190E0909344028093430281E0DD
:1046A00090E09093F7118093F6118093F811109297
:1046B00015171092161710921717109218171092BC
:1046C000111710921217109213171092141760916D
:1046D00031177091321780913317909134170E94DF
:1046E0002DB24B015C018091351790913617A09146
:1046F0003717B09138178093311790933217A093E2
:104700003317B093341729E137E145E157E161E10F
:1047100077E18DE097E10E94298A85E19DE00E9482
:104720009B78EBE1FDE0149120E030E040EC5FE3AA
:104730000E9456A52B013C01612F110F770B880BAE
:10474000990B0E94FCAA9B01AC01C301B2010E941B
:1047500056A560932B0B70932C0B80932D0B90938D
:104760002E0B85E19DE00E949B78EAE1FDE014912B
:1047700020E030E040EC5FE30E9456A52B013C01B5
:10478000612F110F770B880B990B0E94FCAA9B01DC
:10479000AC01C301B2010E9456A56093270B709330
:1047A000280B8093290B90932A0B6091370270910C
:1047B00038028091390290913A0260932B027093F3
:1047C0002C0280932D0290932E0220E030E040E7EF
:1047D00052E40E94BCB12FE4C22E27E1D22E7B010D
:1047E0008C012FE23BE04BE25BE067E27BE083E29F
:1047F0009BE00E944E690E94779382E090E00E94C5
:10480000A17881E090E00E94A17829E137E145E1BB
:1048100057E161E177E18DE097E10E94298A80917B
:10482000151790911617A0911717B091181780932C
:104830002B0B90932C0BA0932D0BB0932E0B8091F0
:10484000111790911217A0911317B091141780931C
:10485000270B9093280BA093290BB0932A0B20E0F1
:1048600030E040E752E460912B0270912C0280917D
:104870002D0290912E020E94BCB17B018C012FE28F
:104880003BE04BE25BE067E27BE083E29BE00E947F
:104890004E6910922B0210922C0210922D0210924F
:1048A0002E020E94779310925A0A1092590A10927F
:1048B000580A8091230B9091240BA091250BB09165
:1048C000260B80930D1790930E17A0930F17B0939C
:1048D00010178091270B9091280BA091290BB09174
:1048E0002A0B8093111790931217A0931317B0936C
:1048F000141780912B0B90912C0BA0912D0BB09144
:104900002E0B8093151790931617A0931717B0933B
:1049100018176091330270913402809135029091A2
:1049200036020E942DB22B013C0182E090E00E94F1
:104930009045B401990C880B990B0E94FCAA6093D6
:10494000311770933217809333179093341720E008
:1049500030E040E051E4609137027091380280917C
:10496000390290913A020E9456A5609333027093E7
:104970003402809335029093360281E090E00E94E9
:104980009045B201550C880B990B0E94FCAA6093CC
:1049900033027093340280933502909336028CE395
:1049A00090E090934202809341028DE390E09093D7
:1049B0004602809345028EE090E0909344028093FB
:1049C00043021092F7111092F6111092F81182E042
:1049D00090E00E9490450C94A40E53018615970513
:1049E00008F45C0169817A81A501C6010E94FDB5C8
:1049F000F601EA0DFB1D10820C947712819187FD60
:104A000002C00C947812D12C0C9482126FE97FE0D2
:104A1000CE0101960E94FB5BBE016F5F7F4FCE010E
:104A2000CB960E945E5BCE0101960E94975BCE0101
:104A3000CB960E946559BE01655C7F4FCE01809682
:104A40000E94F35B0F5F1F4FA0908109B090820915
:104A500036E03A9DC0013B9D900D112480179107CF
:104A60000CF06AC00696801791070CF465C062E9E5
:104A70007FE0CE0101960E94FB5BBE016F5F7F4F1E
:104A8000CE01CB960E945E5BCE0101960E94975BA1
:104A9000CE01CB960E94655963EE74E0CE018096FC
:104AA0000E94C05A882339F0BE01655C7F4FCE0159
:104AB00080960E94495B4AEF950142036001439F43
:104AC000D00C1124C00ED11E88E293E025D44AE018
:104AD000B601CE0101960E94C85B89819A811CD4DF
:104AE000CE0101960E94975B84E197E015D4CE0138
:104AF00080960E94655988A199A10ED489EB94E013
:104B00000BD4FED387E393E007D44AE0B601CE018D
:104B100001960E94C85B89819A81FED3CE010196DD
:104B20000E94975B84E197E0F7D38BAD9CADF4D303
:104B300089EB94E0F1D3E4D3CE0180960E94975B99
:104B40000C948E120E94067AAB01BC014093BD0FFB
:104B50005093BE0F6093BF0F7093C00F84E691E136
:104B60000E947B60BACC0E94117AB7CC0E947793E6
:104B700088E50E94EB79882311F05F9A479A89E5CE
:104B80000E94EB7981118A9A8AE50E94EB79882349
:104B900081F09FB7F89480910801816080930801AB
:104BA0009FBF9FB7F89480910801846080930801AB
:104BB0009FBF85E40E94EB79882309F48ECC8D9AFF
:104BC000129A8BCC012B09F04DC020E030E044EB71
:104BD00052E46091191770911A1780911B179091E8
:104BE0001C170E94CEB06093191770931A17809308
:104BF0001B1790931C177FE4C72E77E1D72EE12C6B
:104C0000F12C00E211E429E137E145E157E161E1EE
:104C100077E18DE097E10E944E6920E030E040EAC4
:104C200051E46091191770911A1780911B17909198
:104C30001C170E94CEB06093191770931A178093B7
:104C40001B1790931C17E12CF12C00E010E429E1D4
:104C500037E145E157E161E177E18DE097E10E94BD
:104C60004E693BCC20E030E040EF51E460911917F1
:104C700070911A1780911B1790911C170E94CEB04B
:104C80006093191770931A1780931B1790931C1732
:104C90004FE4C42E47E1D42EE12CF12C00E010E4C7
:104CA00029E137E145E157E161E177E18DE097E105
:104CB0000E944E6920E030E040EF52E46091191705
:104CC00070911A1780911B1790911C170E94CDB0FC
:104CD0006093191770931A1780931B1790931C17E2
:104CE000E12CF12C08E412E429E137E145E157E138
:104CF00061E177E18DE097E10E944E69EECB2E965F
:104D00008EAD9FAD2E970FB6F8949EBF0FBE8DBF90
:104D1000CF5ADF4F0FB6F894DEBF0FBECDBFDF9185
:104D2000CF911F910F91FF90EF90DF90CF90BF90A8
:104D3000AF909F908F907F906F905F904F903F903B
:104D40002F900895EF92FF921F93CF93DF937C01F2
:104D5000C62FD72F142F160FF701808191810E9443
:104D60006DB08993F7018081918101969183808351
:104D70001C13F2CFDF91CF911F91FF90EF90089518
:104D8000EF92FF921F93CF93DF937C01C62FD72F13
:104D9000142F160F6991F701808191810E9475B0DF
:104DA000F701808191810196918380831C13F2CF5A
:104DB000DF91CF911F91FF90EF9008953F924F9216
:104DC0005F926F927F928F929F92AF92BF92CF929B
:104DD000DF92EF92FF920F931F93CF93DF93CDB7A4
:104DE000DEB72C970FB6F894DEBF0FBECDBF5C01C7
:104DF000DC0159968D909C905A97F401818592859B
:104E0000A385B4859C01AD012F5F3F4F4F4F5F4F8E
:104E100029873A874B875C87D5011496CD90DD9022
:104E2000ED90FC901797C114D104E104F10439F01E
:104E3000BFEFCB1ADB0AEB0AFB0A312C07C0F401E7
:104E4000C080D180E280F38033243394260137017F
:104E50001D821E821F821886F40181859285A3859A
:104E6000B4852D813E814F815885281739074A071F
:104E70005B0708F064C089859A85AB85BC858C1575
:104E80009D05AE05BF0550F482E0C82ED12CE12C63
:104E9000F12C92E0492E512C612C712C9E012F5F38
:104EA0003F4FB701A601C4010E94535F882309F454
:104EB00046C089819A81AB81BC81892B8A2B8B2B3F
:104EC00041F0260137019FEF491A590A690A790A08
:104ED00005C0C414D504E604F70491F02D813E8189
:104EE0004F8158852F5F3F4F4F4F5F4F2D833E833C
:104EF0004F8358873FEFC31AD30AE30AF30AACCFB4
:104F00000FEF1FEF2FEF3FE0B301A201C4010E949A
:104F1000C25EF82E882399F0D50114964D915D91CB
:104F20006D917C911797411551056105710549F007
:104F300093018201C4010E94C25E811102C0F12C62
:104F400029C0D50114964D925D926D927C9217976F
:104F5000332051F0D301C2010196A11DB11DF4010E
:104F600080839183A283B383F50185899689A7897C
:104F7000B08D892B8A2B8B2B69F4D50155964D92D8
:104F80005D926D927C92589711968C9111978068E2
:104F900011968C938F2D2C960FB6F894DEBF0FBE12
:104FA000CDBFDF91CF911F910F91FF90EF90DF90D8
:104FB000CF90BF90AF909F908F907F906F905F90B9
:104FC0004F903F900895FC01238121110C947F663E
:104FD000089561E0FC0180810C94DA5C8EBD0DB413
:104FE00007FEFDCF08958FEF8EBD0DB407FEFDCFF8
:104FF0008EB508950F931F93CF93DF938B010E947B
:105000000331EB01F0DF8F3F49F00E9403316C1B4D
:105010007D0B60177107B0F380E001C081E0DF9184
:10502000CF911F910F910895CF92DF92EF92FF924F
:105030001F93CF93DF9300D01F92CDB7DEB76C01E3
:10504000162FFC019281892F806A86958CBD90FD78
:1050500003C081E0963009F480E08DBD60E0F60188
:10506000808129833A834B835C830E94DA5C6CE203
:1050700071E0C601BFDF812F8064B0DF88E1E82ED8
:10508000F12C5C814B813A812981DA01C9010E2C16
:1050900004C0B695A795979587950A94D2F729836A
:1050A0003A834B835C839ADFF8E0EF1AF108298199
:1050B0003A814B815C8188EFE8168FEFF80629F77B
:1050C000112321F0183021F08FEF03C085E901C0D2
:1050D00087E884DF1C3009F486DF10E084DFF60106
:1050E000838387FF04C01F3F11F01F5FF7CF0F902E
:1050F0000F900F900F90DF91CF911F91FF90EF9045
:10510000DF90CF9008950F931F93CF93DF93EC011F
:1051100089018C81833039F089E0440F551F661F67
:10512000771F8A95D1F79A01AB0168E1CE017CDF48
:10513000882311F086E02FC08EEF8EBD80E090E0D6
:105140000DB407FEFDCFF801E80FF91F20812EBD39
:105150000DB407FEFDCF21812EBD0296811522E000
:10516000920771F70DB407FEFDCF8FEF37DF8FEF9A
:1051700035DF39DF8B838F71853029F083E18983B7
:10518000CE0127DF09C068E572E0CE0133DF182FBA
:10519000811106C087E18983CE011BDF10E00FC0BB
:1051A00020E030E0A9016DE0CE013EDF811103C0B7
:1051B0001ADF882311F086E1EECFCE010ADF812FBE
:1051C000DF91CF911F910F910895EF92FF920F936E
:1051D0001F93CF93DF93EC0179018C81833039F0F9
:1051E00089E0440F551F661F771F8A95D1F79A01F2
:1051F000AB0161E1CE0118DF882311F084E012C019
:105200000E9403318B01EFDE8B838F3F41F4FBD78C
:10521000601B710B6D327140B0F381E103C08E3FB2
:1052200031F08FE08983CE01D4DE80E019C08FEFAA
:105230008EBDF701D701A150BE4F0DB407FEFDCFC3
:105240009EB591938EBDEA17FB07B9F70DB407FE23
:10525000FDCF8EB58C93C7DEC6DECE01BADE81E00F
:10526000DF91CF911F910F91FF90EF9008951F92C2
:105270000F920FB60F9211240BB60F922F933F93FC
:105280004F936F937F938F939F93EF93FF934091EF
:10529000C6002091410A3091420AC90101968F77D8
:1052A00099276091430A7091440A8617970741F045
:1052B000F901EF53F64F40839093420A8093410ADD
:1052C000FF91EF919F918F917F916F914F913F91BE
:1052D0002F910F900BBE0F900FBE0F901F9018953F
:1052E00080E090E00E94D8538FEF9FEF0E94D85348
:1052F0008FEF9FEF0E94D8538FEF9FEF0C94D853FE
:105300008FEF9FEF0E94D8538FEF9FEF0E94D853EB
:105310008FEF9FEF0C94D8530C94DC530E94DC5316
:105320008FEF9FEF0E94D8538FEF9FEF0E94D853CB
:105330008FEF9FEF0C94D853CF93DF93C8E6DAE05A
:10534000FE018491882341F09091C00095FFFCCF2D
:105350008093C6003196F5CFECE1FAE08491882382
:1053600041F09091C00095FFFCCF8093C60031962C
:10537000F5CF8091C00085FFFCCF8AE08093C60006
:10538000FE018491E8E6FAE0882349F09091C0009C
:1053900095FFFCCF8093C60031968491F5CF409164
:1053A0002D1750912E1760912F177091301784E1AF
:1053B0009AE00E94D7444091311750913217609182
:1053C00033177091341781E19AE00E94D7444091DD
:1053D00035175091361760913717709138178EE056
:1053E0009AE00E94D7444091391750913A17609142
:1053F0003B1770913C178BE09AE00E94D744809154
:10540000C00085FFFCCF8AE08093C600FE01849136
:10541000E8E6FAE0882349F09091C00095FFFCCFC0
:105420008093C60031968491F5CFE1EFF9E0849145
:10543000882341F09091C00095FFFCCF8093C60077
:105440003196F5CF8091C00085FFFCCF8AE0809334
:10545000C600FE018491E8E6FAE0882349F09091C5
:10546000C00095FFFCCF8093C60031968491F5CFA4
:105470004091A4115091A5116091A6117091A711AE
:1054800088EE99E00E94D7444091A8115091A9114B
:105490006091AA117091AB1185EE99E00E94D744FA
:1054A0004091AC115091AD116091AE117091AF115E
:1054B00082EE99E00E94D7444091B0115091B11111
:1054C0006091B2117091B3118FED99E00E94D744B1
:1054D0008091C00085FFFCCF8AE08093C600FE016A
:1054E0008491E8E6FAE0882349F09091C00095FFA6
:1054F000FCCF8093C60031968491F5CFE1ECF9E0C2
:105500008491882341F09091C00095FFFCCF809357
:10551000C6003196F5CF8091C00085FFFCCF8AE0B0
:105520008093C600FE018491E8E6FAE0882349F002
:105530009091C00095FFFCCF8093C6003196849176
:10554000F5CF4091E4115091E5116091E611709111
:10555000E71188EB99E00E94C6444091E811509110
:10556000E9116091EA117091EB1185EB99E00E94CD
:10557000C6444091EC115091ED116091EE11709183
:10558000EF1182EB99E00E94C6444091F0115091D6
:10559000F1116091F2117091F3118FEA99E00E947C
:1055A000C6448091C00085FFFCCF8AE08093C6008E
:1055B000FE018491E8E6FAE0882349F09091C0006A
:1055C00095FFFCCF8093C60031968491F5CFEAE732
:1055D000F9E08491882341F09091C00095FFFCCFC1
:1055E0008093C6003196F5CF8091C00085FFFCCF37
:1055F0008AE08093C600FE018491E8E6FAE0882301
:1056000049F09091C00095FFFCCF8093C600319681
:105610008491F5CF40919C1150919D1160919E1104
:1056200070919F1181E799E00E94D7444091A011A9
:105630005091A1116091A2117091A3118EE699E091
:105640000E94D7448091C00085FFFCCF8AE0809300
:10565000C600FE018491E8E6FAE0882349F09091C3
:10566000C00095FFFCCF8093C60031968491F5CFA2
:10567000EBEBF8E08491882341F09091C00095FF16
:10568000FCCF8093C6003196F5CF8091C00085FF96
:10569000FCCF8AE08093C600FE018491E8E6FAE040
:1056A000882349F09091C00095FFFCCF8093C600FD
:1056B00031968491F5CF4091B8115091B911609114
:1056C000BA117091BB1182EB98E00E94D7444091CF
:1056D000BC115091BD116091BE117091BF118FEA44
:1056E00098E00E94D7444091B4115091B511609157
:1056F000B6117091B7118CEA98E00E94C6444091AF
:1057000098115091991160919A1170919B1189EAA9
:1057100098E00E94D7444091941150919511609166
:1057200096117091971186EA98E00E94D7444091B3
:10573000901150919111609192117091931183EA9F
:1057400098E00E94D7448091C00085FFFCCF8AE09A
:105750008093C600FE018491E8E6FAE0882349F0D0
:105760009091C00095FFFCCF8093C6003196849144
:10577000F5CFE1E9F8E08491882341F09091C000F1
:1057800095FFFCCF8093C6003196F5CF8091C00085
:1057900085FFFCCF8AE08093C600FE018491E8E695
:1057A000FAE0882349F09091C00095FFFCCF8093E8
:1057B000C60031968491F5CF4091F1165091F216C2
:1057C0006091F3167091F41688E898E00E94D7442F
:1057D0004091F5165091F6166091F7167091F816F3
:1057E00085E898E00E94D7444091F9165091FA1646
:1057F0006091FB167091FC1682E898E00E94D744F5
:105800008091C00085FFFCCF8AE08093C600FE0136
:105810008491E8E6FAE0882349F09091C00095FF72
:10582000FCCF8093C60031968491F5CFE4E7F8E091
:105830008491882341F09091C00095FFFCCF809324
:10584000C6003196F5CF8091C00085FFFCCF8AE07D
:105850008093C600FE018491E8E6FAE0882349F0CF
:105860009091C00095FFFCCF8093C6003196849143
:10587000F5CF40911C0250911D0260911E02709163
:105880001F028AE698E00E94D7442DEB37E346E0FA
:105890005EE360910C0270910D0280910E02909176
:1058A0000F020E94BCB1AB01BC0187E698E00E94E8
:1058B000D7442DEB37E346E05EE360911802709128
:1058C000190280911A0290911B020E9456A5AB0109
:1058D000BC0184E698E00E94D7448091C00085FF17
:1058E000FCCF8AE08093C600FE018491E8E6FAE0EE
:1058F000882349F09091C00095FFFCCF8093C600AB
:1059000031968491F5CFE1E5F8E08491882341F068
:105910009091C00095FFFCCF8093C6003196F5CFE3
:105920008091C00085FFFCCF8AE08093C600409143
:105930006C0F50916D0F60916E0F70916F0F8DE431
:1059400098E00E94D7448091C00085FFFCCF8AE098
:105950008093C600FE018491E8E6FAE0882349F0CE
:105960009091C00095FFFCCF8093C6003196849142
:10597000F5CFECE3F8E08491882341F09091C000EA
:1059800095FFFCCF8093C6003196F5CF8091C00083
:1059900085FFFCCF8AE08093C6004091880F50912C
:1059A000890F60918A0F70918B0F88E398E00E94B5
:1059B000D7448091C00085FFFCCF8AE08093C60069
:1059C000FE01C491E8E6FAE0CC2349F08091C000E2
:1059D00085FFFCCFC093C6003196C491F5CFE7E2B6
:1059E000F8E08491882341F09091C00095FFFCCFAE
:1059F0008093C6003196F5CF8091C00085FFFCCF23
:105A00008AE08093C60040917709509178096091AF
:105A1000790970917A0983E298E00E94D7448091D5
:105A2000C00085FFFCCF8AE08093C600DF91CF9154
:105A300008950F931F93CF93DF93CDB7DEB72C97C5
:105A40000FB6F894DEBF0FBECDBF80E390E3A0E3B6
:105A5000B0E08D839E83AF83B88704E610E01C8797
:105A60000B8744E0BE016B5F7F4FCE010B9688D958
:105A700040E16DE277E1CE010B9682D940E164EA24
:105A800071E1CE010B967CD940E164EE71E1CE016B
:105A90000B9676D944E06CE971E1CE010B9670D992
:105AA00044E060EA71E1CE010B966AD944E068EB0C
:105AB00071E1CE010B9664D944E06CEB71E1CE014B
:105AC0000B965ED944E064EB71E1CE010B9658D998
:105AD00044E068E971E1CE010B9652D944E064E9F3
