:100000000C94590C0C948A0C0C948A0C0C948A0C49
:100010000C948A0C0C948A0C0C948A0C0C948A0C08
:100020000C948A0C0C948A0C0C948A0C0C948A0CF8
:100030000C948A0C0C948A0C0C948A0C0C948A0CE8
:100040000C948A0C0C94F97A0C948A0C0C948A0CFB
:100050000C948A0C0C948A0C0C945F850C945D8330
:100060000C948A0C0C94EB260C948A0C0C948A0C3D
:100070000C948A0C0C948A0C0C948A0C0C948A0CA8
:100080000C948A0C0C948A0C0C948A0C0C948A0C98
:100090000C948A0C0C948A0C0C948A0C0C948A0C88
:1000A0000C948A0C0C948A0C0C948A0C0C948A0C78
:1000B0000C948A0C0C948A0C0C948A0C0C948A0C68
:1000C0000C948A0C0C948A0C0C948A0C0C94134299
:1000D0000C94EA410C948A0C0C948A0C0C948A0CB3
:1000E0000C948A0CF53DF83DE73DEB3DF13D2F3E8C
:1000F000FC3D003E063E0A3E0E3E143E183E1C3EAF
:100100002F3E223E263E2A3E034308430D4317431B
:1001100021439A432B4333433B4345434F43594386
:10012000684372439A437C4386439043CB85D8858A
:10013000F48501861B86288642864486084AD73B7A
:100140003BCE016E84BCBFFDC12F3D6C74319ABDA6
:1001500056833DDA3D00C77F11BED9E4BB4C3E91CA
:100160006BAAAABE000000803F05A84CCDB2D44EB9
:10017000B93836A9020C50B9918688083CA6AAAABB
:100180002ABE000000803F004E414E494E4954595E
:10019000494E46CDCCCC3D0AD7233C17B7D1387752
:1001A000CC2B329595E6241FB14F0A000020410068
:1001B00000C84200401C4620BCBE4CCA1B0E5AAEB2
:1001C000C59D7400407A10F35A00A0724E180900C1
:1001D00010A5D4E80000E87648170000E40B5402AC
:1001E0000000CA9A3B000000E1F5050000809698E7
:1001F00000000040420F000000A086010000001037
:100200002700000000E80300000000640000000078
:10021000000A00000000000100000000002C76D859
:1002200088DC674F0823DFC1DFAE59E1B1B796E53F
:10023000E3E453C63AE651997696E8E6C28426EBA3
:10024000898C9B62ED407C6FFCEFBC9C9F40F2BAB6
:10025000A56FA5F490055A2AF75C936B6CF9676D4E
:10026000C11BFCE0E40D47FEF520E6B500D0ED90A3
:100270002E0300943577050080841E080000204E70
:100280000A000000C80C333333330F986E12831109
:1002900041EF8D2114893BE65516CFFEE6DB18D1E0
:1002A000844B381BF77C1D901DA4BBE424203284B2
:1002B000725E228100C9F124ECA1E53D272F005395
:1002C00044207072696E74696E672062797465206B
:1002D000004E6F74205344207072696E74696E67AB
:1002E000002E0044656C6574696F6E206661696CF0
:1002F00065642C2046696C653A200046696C65206F
:1003000064656C657465643A002E006F70656E20DC
:100310006661696C65642C2046696C653A20005002
:100320004944204175746F74756E652066696E6905
:1003300073686564212050757420746865204B7063
:100340002C204B6920616E64204B6420636F6E73B8
:1003500074616E747320696E746F20436F6E66698A
:100360006775726174696F6E2E6800504944204150
:1003700075746F74756E65206661696C65642120A3
:1003800074696D656F75740020403A006F6B20547E
:100390003A006F6B20423A00504944204175746F17
:1003A00074756E65206661696C6564212054656DA5
:1003B000706572617475726520746F6F206869670B
:1003C0006800204B643A2000204B693A2000204B03
:1003D000703A200020436C617369632050494420C7
:1003E000002054753A2000204B753A2000206D61A2
:1003F000783A2000206D696E3A200020643A20008F
:1004000020626961733A2000486F74656E64206FE2
:100410006666736574733A002200556E6B6E6F7773
:100420006E20636F6D6D616E643A202200486F74B8
:10043000656E64206F6666736574733A007A5F6DEB
:10044000696E3A2000795F6D696E3A2000785F6DC1
:1004500061783A2000785F6D696E3A20005A3A0060
:10046000593A0020436F756E7420583A2000453A7F
:10047000005A3A00593A00583A004649524D5741FD
:1004800052455F4E414D453A4D61726C696E205642
:10049000313B20537072696E7465722F6772626CA3
:1004A000206D617368757020666F722067656E36A7
:1004B000204649524D574152455F55524C3A687457
:1004C00074703A2F2F7777772E6D656E64656C2D7B
:1004D00070617274732E636F6D2050524F544F438E
:1004E0004F4C5F56455253494F4E3A312E30204DB6
:1004F000414348494E455F545950453A3344205092
:1005000072696E7465722045585452554445525F65
:10051000434F554E543A320A002042403A002040A0
:100520003A00202F0020423A00202F006F6B205409
:100530003A002569206D696E2C202569207365635A
:1005400000456E642066696C65206C6973740042B6
:100550006567696E2066696C65206C69737400203C
:1005600020506C616E6E6572427566666572427986
:100570007465733A20002046726565204D656D6F85
:1005800072793A20004465632031312032303139AC
:1005900000436F6D70696C65643A2000284E6F6E81
:1005A000652900207C20417574686F723A200044F0
:1005B000656320313120323031392031363A3535DA
:1005C0003A333900204C617374205570646174654E
:1005D000643A2000312E302E30004D61726C696E0D
:1005E000200020536F6674776172652052657365D1
:1005F0007400205761746368646F67205265736587
:1006000074002042726F776E206F7574205265738C
:100610006574002045787465726E616C2052657354
:10062000657400506F7765725570007374617274F1
:10063000005072696E7465722073746F70706564B7
:100640002064756520746F206572726F72732E203E
:1006500046697820746865206572726F7220616ED9
:100660006420757365204D39393920746F207265A7
:1006700073746172742E202854656D706572617494
:100680007572652069732072657365742E205365D9
:100690007420697420616674657220726573746178
:1006A0007274696E6729006F6B004E6F204C696E23
:1006B00065204E756D626572207769746820636885
:1006C00065636B73756D2C204C617374204C696E7F
:1006D000653A20004E6F20436865636B73756D202B
:1006E00077697468206C696E65206E756D626572DD
:1006F0002C204C617374204C696E653A200063684D
:1007000065636B73756D206D69736D617463682CBF
:10071000204C617374204C696E653A20004C696E00
:1007200065204E756D626572206973206E6F74204E
:100730004C617374204C696E65204E756D626572F4
:100740002B312C204C617374204C696E653A20006B
:100750004D31313000256920686F7572732025692D
:10076000206D696E7574657300446F6E65207072DC
:10077000696E74696E672066696C65005072696E97
:100780007465722073746F70706564206475652081
:10079000746F206572726F72732E204669782074B0
:1007A0006865206572726F7220616E642075736572
:1007B000204D39393920746F2072657374617274F9
:1007C0002E202854656D706572617475726520699C
:1007D000732072657365742E2053657420697420CC
:1007E00061667465722072657374617274696E6794
:1007F00029006F6B004E6F204C696E65204E756D41
:10080000626572207769746820636865636B7375CD
:100810006D2C204C617374204C696E653A20004E3B
:100820006F20436865636B73756D2077697468200A
:100830006C696E65206E756D6265722C204C6173FB
:1008400074204C696E653A2000636865636B73754C
:100850006D206D69736D617463682C204C617374D5
:10086000204C696E653A20004C696E65204E756DAE
:10087000626572206973206E6F74204C61737420FE
:100880004C696E65204E756D6265722B312C204C63
:10089000617374204C696E653A20004572726F7204
:1008A0003A004D313130006572726F722077726993
:1008B00074696E6720746F2066696C6500205A3A0F
:1008C0000020593A0020583A00656E6473746F70C6
:1008D00073206869743A20006563686F3A00446F5A
:1008E0006E6520736176696E672066696C652E009F
:1008F0006F6B004D32390053657474696E677320F5
:1009000053746F726564005A323A00457874656EAC
:10091000646572204F66667365743A0059323A0016
:10092000457874656E646572204F66667365743AC7
:100930000058323A005365636F6E64657279204DDA
:10094000617820506F733A00204400204900202035
:10095000204D333031205000504944207365747469
:10096000696E67733A00205A0020590020204D32EA
:100970003036205800486F6D65206F666673657469
:1009800020286D6D293A00204500205A002058008B
:1009900020420020540020204D32303520530041A9
:1009A0006476616E636564207661726961626C650C
:1009B000733A20533D4D696E2066656564726174BB
:1009C0006520286D6D2F73292C20543D4D696E20B4
:1009D00074726176656C2066656564726174652009
:1009E000286D6D2F73292C20423D6D696E696D75E0
:1009F0006D207365676D656E742074696D65202860
:100A00006D73292C20583D6D6178696D756D205886
:100A100059206A65726B20286D6D2F73292C202058
:100A20005A3D6D6178696D756D205A206A65726BEB
:100A300020286D6D2F73292C2020453D6D6178692C
:100A40006D756D2045206A65726B20286D6D2F7362
:100A5000290020540020204D3230342053004163BF
:100A600063656C65726174696F6E3A20533D6163B2
:100A700063656C65726174696F6E2C20543D72659C
:100A8000747261637420616363656C65726174691B
:100A90006F6E00204500205A0020590020204D3262
:100AA00030312058004D6178696D756D2041636368
:100AB000656C65726174696F6E20286D6D2F73327D
:100AC000293A00204500205A0020590020204D32AC
:100AD00030332058004D6178696D756D206665650D
:100AE00064726174657320286D6D2F73293A00203C
:100AF0004500205A0020590020204D39322058004E
:100B000053746570732070657220756E69743A0055
:100B100053746F7265642073657474696E677320B3
:100B20007265747269657665640048617264636FAA
:100B30006465642044656661756C742053657474E3
:100B4000696E6773204C6F61646564006563686FEC
:100B50003A00526573656E643A20006F6B00507204
:100B6000696E7465722068616C7465642E206B69AF
:100B70006C6C28292063616C6C656421005072697B
:100B80006E7465722073746F70706564206475652F
:100B900020746F206572726F72732E204669782000
:100BA000746865206572726F7220616E642075735F
:100BB00065204D39393920746F2072657374617204
:100BC000742E202854656D7065726174757265208D
:100BD00069732072657365742E205365742069747F
:100BE0002061667465722072657374617274696ED7
:100BF00067290000002100240027002A002D003072
:100C000000330001010000040107010A0100002275
:100C100000250028002B002E0031003400020100C6
:100C200000050108010B0100002000230026002917
:100C3000002C002F00320000010000030106010912
:100C40000105050505070508080808020202020A51
:100C50000A0808040404040101010101010101035F
:100C600003030303030303040707070C0C0C0C0C1A
:100C70000C0C0C0202020206060606060606060B0D
:100C80000B0B0B0B0B0B0B01021020200808102084
:100C90004010204080020102010804020101020408
:100CA00008102040808040201008040201800402C7
:100CB000018040201008040201080402010102041E
:100CC0000810204080010204081020408000000A23
:100CD0000B02090C0D0E08070304010000000000C0
:100CE0000000000000000000000000000000000004
:100CF00000000000000000000012111000000000C1
:100D000000000000000000000000000000000000E3
:100D100000000053442063617264206F6B006F70A9
:100D2000656E526F6F74206661696C656400766FE2
:100D30006C756D652E696E6974206661696C656499
:100D4000004572726F723A00534420696E697420D4
:100D50006661696C006563686F3A002200656E71B8
:100D60007565696E672022006563686F3A004D32D1
:100D700034004D3233202573006175746F25692E60
:100D80006700473238205800000048C200000000C9
:100D9000000000000000A0400000204100000040D2
:100DA0002200656E717565696E6720220020746F80
:100DB0006F206C6F6E6720657874727573696F6EE3
:100DC0002070726576656E7465640020636F6C6474
:100DD00020657874727573696F6E207072657665C0
:100DE0006E746564006563686F3A004E65772056DF
:100DF000616C756520457272200025730057726919
:100E000074696E6720746F2066696C653A20002EE5
:100E1000006F70656E206661696C65642C204669A0
:100E20006C653A20002E006F70656E206661696CFB
:100E300065642C2046696C653A200046696C652023
:100E400073656C6563746564002053697A653A2044
:100E50000046696C65206F70656E65643A20002EEF
:100E6000006F70656E206661696C65642C20466950
:100E70006C653A20007C3C3E5E2B3D3F2F5B5D3B2A
:100E80002C2A225C0020423A0020453A00543A00C5
:100E900020573A0020453A00543A0024F4D4305008
:100EA000C38E20C2A24017828B7011127A910D81DD
:100EB0006CD90AA861E108C7586607615143061E4C
:100EC0004B5D05C145A7041A411104093D98037102
:100ED0003931034036DB0265339102D4305402804D
:100EE0002E1D02632CEE01752AC501B028A0011049
:100EF0002781018F2564012B244B01E0223401ACB2
:100F0000211F018D200D01801FFC00841EED009724
:100F10001DDF00B81CD200E61BC600201BBC00640D
:100F20001AB200B219A8000A19A0006A189900D1D3
:100F300017910040178B00B516840031167E00B360
:100F40001579003A157300C7146F0058146A00EE43
:100F50001366008813630025135E00C7125B006CE4
:100F600012570015125400C111510070114F002189
:100F7000114B00D61049008D104700461044000266
:100F8000104200C00F4000800F3E00420F3C0006A0
:100F90000F3B00CB0E3800930E37005C0E35002758
:100FA0000E3400F30D3200C10D3100900D300060A1
:100FB0000D2E00320D2D00050D2C00D90C2B00AE8E
:100FC0000C2900850C29005C0C2700350C27000E2D
:100FD0000C2600E80B2400C40B2400A00B23007D8A
:100FE0000B23005A0B2100390B2100180B2000F8AD
:100FF0000A1F00D90A1E00BB0A1E009D0A1D0080A0
:101000000A1D00630A1C00470A1B002C0A1B001162
:101010000A1A00F7091A00DD091900C4091900AB02
:10102000091900920917007B091800630917004C81
:1010300009160036091600200916000A091500F5E0
:10104000081500E0081400CC081400B8081400A427
:10105000081400900813007D0812006B0813005854
:10106000081200460812003408110023081100126B
:1010700008110001081100F0071000E0071000D06F
:10108000071000C0071000B0070F00A10710009163
:10109000070E0083070F0074070F0065070E005747
:1010A000070E0049070E003B070D002E070E00201B
:1010B000070D0013070D0006070D00F9060C00EDE3
:1010C000060D00E0060C00D4060C00C8060C00BC9F
:1010D000060C00B0060C00A4060B0099060C008D4F
:1010E000060B0082060B0077060B006C060B0061F6
:1010F000060A0057060B004C060A0042060A003892
:10110000060A002E060A0024060A001A060A001023
:1011100006090007060A00FD050900F4050900EBB1
:10112000050900E2050900D9050900D0050900C735
:10113000050900BE050900B5050800AD050800A5B4
:101140000509009C050800940508008C050800842A
:101150000508007C050800740508006C050700659B
:101160000508005D050700560508004E0507004705
:101170000507004005080038050700310507002A6B
:10118000050700230507001C050600160507000FCC
:101190000507000805060002050700FB040600F528
:1011A000040700EE040600E8040600E2040700DB82
:1011B000040600D5040600CF040600C9040600C3D7
:1011C000040600BD040600B7040600B1040500AC27
:1011D000040600A6040600A00405009B0406009572
:1011E000040500900406008A0405008504050080BB
:1011F0000406007A04050075040500700405006B00
:1012000004050066040500610405005C0405005740
:10121000040500520405004D040500480405004380
:101220000405003E0404003A0405003504050030BE
:101230000404002C04050027040400230405001EF8
:101240000404001A04040016040500110404000D2F
:10125000040400090405000404040000040400FC64
:10126000030400F8030400F4030400F0030400EC9A
:10127000030400E8030400E4030400E0030400DCCA
:10128000030400D8030400D4030400D0030400CCFA
:10129000030400C8030300C503030024F404D92099
:1012A0001BC40C5C0E9804C4095F0265077101F44D
:1012B00005F900FB04B30048048700C10369005826
:1012C00003550003034500BE023A00840231005377
:1012D000022A002902250004022000E4011C00C8A3
:1012E000011900AF01170098011400840113007167
:1012F0000110006101100051010E0043010D003684
:10130000010B002B010B0020010B00150109000C43
:1013100001090003010800FB000800F3000800EBCE
:10132000000700E4000600DE000600D8000600D238
:10133000000600CC000500C7000500C2000500BD86
:10134000000400B9000400B5000400B1000400ADC1
:10135000000400A9000400A5000300A20003009FF0
:101360000004009B00030098000300950002009316
:10137000000300900003008D0002008B0003008832
:101380000002008600020084000300810002007F4A
:101390000002007D0002007B00020079000200775D
:1013A000000100760002007400020072000100716A
:1013B0000002006F0002006D0001006C0002006A74
:1013C000000100690002006700010066000100657D
:1013D0000001006400020062000100610001006081
:1013E0000001005F0002005D0001005C0001005B85
:1013F0000001005A00010059000100580001005787
:101400000001005600010055000100540001005386
:101410000000005300010052000100510001005083
:101420000001004F0001004E0000004E0001004D81
:101430000001004C0001004B0000004B0001004A7D
:101440000001004900010048000000480001004779
:101450000001004600000046000100450000004574
:10146000000100440001004300000043000100426D
:101470000000004200010041000000410001004066
:101480000001003F0000003F0001003E0000003E60
:101490000001003D0000003D0001003C0000003C58
:1014A0000000003C0001003B0000003B0001003A4E
:1014B0000000003A00010039000000390001003846
:1014C000000000380000003800010037000000373D
:1014D0000001003600000036000000360001003533
:1014E0000000003500000035000100340000003429
:1014F000000000340001003300000033000000331E
:101500000001003200000032000000320001003112
:101510000000003100000031000100300000003008
:10152000000000300001002F0000002F0000002FFD
:101530000000002F0001002E0000002E0000002EF1
:101540000001002D0000002D0000002D0000002DE6
:101550000001002C0000002C0000002C0000002CDA
:101560000001002B0000002B0000002B0000002BCE
:101570000001002A0000002A0000002A0000002AC2
:1015800000010029000000290000002900000029B6
:1015900000000029000100280000002800000028A9
:1015A000000000280000002800010027000000279C
:1015B000000000270000002700000027000100268F
:1015C0000000002600000026000000260000002683
:1015D0000001002500000025000000250000002576
:1015E0000000002500000025000100240000002468
:1015F000000000240000002400000024000100235B
:10160000000000230000002300000023000000234E
:10161000000000230000002300010022000000223F
:101620000000002200000022000000220000002232
:101630000001002100000021000000210000002125
:101640000000002100000021000000210001002016
:10165000000000200000002000000020000000200A
:101660000000002000000020000000200001001FFA
:101670000000001F0000001F0000001F0000001FEE
:101680000000001F0000001F0001001E0000001EDF
:101690000000001E0000001E000000202D20496EEA
:1016A00076616C6964206578747275646572206E09
:1016B000756D62657220210070012C019001270177
:1016C000B0012201C0011D01F00118011002130137
:1016D00030020E016002090190020401C002FF0005
:1016E0000003FA004003F5008003F000D003EB0094
:1016F0002004E6007004E100E004DC004005D700AF
:10170000C005D2004006CD00D006C8008007C30047
:101710003008BE00F008B900C009B400B00AAF003C
:10172000B00BAA00D00CA500000EA000500F9B002B
:10173000C01096005012910000148C00C015870054
:10174000B0178200B0197D00D01B7800001E730016
:1017500040206E0090226900F024640040275F0062
:1017600090295A00E02B5500102E500020304B00DD
:1017700010324600E033410090353C00103737000E
:1017800070383200A0392D00B03A2800A03B230069
:10179000603C1E00103D1900903D1400103E0F00EB
:1017A000703E0A00C03E0500003F00003A20457828
:1017B00074727564657220737769746368656420F8
:1017C0006F66662E204D415854454D502074726905
:1017D0006767657265642021003A204578747275E8
:1017E000646572207377697463686564206F6666E8
:1017F0002E204D494E54454D5020747269676765DF
:1018000072656420210054656D7065726174757233
:10181000652068656174656420626564207377691A
:101820007463686564206F66662E204D4158544588
:101830004D502074726967676572656420212100CC
:1018400054656D7065726174757265206865617448
:1018500065642062656420737769746368656420D9
:101860006F66662E204D494E54454D502074726966
:10187000676765726564202121004572726F723A54
:10188000000040174400001B44008018440000483A
:10189000C20000000000000000FFFFFF00C0234462
:1018A00000001B44008018446563686F3A00A3B1D0
:1018B0006DB211241FBECFEFD1E2DEBFCDBF00E07D
:1018C0000CBF1AE0A0E0B2E0EAEEF6E801E00BBFE0
:1018D00002C007900D92A639B107D9F728E1A6E911
:1018E000BAE001C01D92AC37B207E1F71CE0C8E5D1
:1018F000DCE000E006C021970109802FFE010E9474
:10190000DEC1C735D10780E00807A9F70E94B5A25C
:101910000C9464C30C9400002F923F924F925F92FC
:101920006F927F928F929F92AF92BF92CF92DF92EF
:10193000EF92FF920F931F93CF93DF93CDB7DEB754
:10194000CF56D1090FB6F894DEBF0FBECDBF2DB76D
:101950003EB7AC963FAF2EAFAC9780916E0B88230D
:1019600041F00E94C9641092FB0F1092FA0F10927E
:101970006E0B87E40E94038C782E882309F474C0D0
:101980000E94298C0E946BBF6430710509F45CC011
:10199000E4F46230710509F444C00CF04AC077FFEA
:1019A00002C00C942121A0E8AA2EAFE4BA2EA3EC29
:1019B000CA2EA7ECDA2E86017501A6019501C60193
:1019C000B5010E94F3790C9421216A35710509F45F
:1019D00042C06CF46C31710511F00C94212160E06F
:1019E00070E080E090E00E94189A0C9421216B3501
:1019F0007105A9F16C35710511F00C942121F0E805
:101A0000AF2EFFE4BF2EF3ECCF2EF7ECDF2E8601D6
:101A10007501A6019501C601B5010E9456720C948C
:101A200021218091540B811104C00E94043C81E06B
:101A300007C08091540B811107C00E94043C80E0D4
:101A40000E94A8320C946E2460E070E0CB010E94EA
:101A50009D8F0C94212110927F0B0C94212181E009
:101A600080937F0B0C9421218DE40E94038C8823AA
:101A700011F40C94D3200E94298C0E946BBF6C3807
:101A8000710509F409C70CF0CAC06A32710509F47E
:101A9000D6C60CF067C06731710509F4C4C30CF0F9
:101AA00040C06231710509F4FAC724F577FF02C01E
:101AB0000C942121623071050CF4A5C161317105CE
:101AC00011F00C9421215F9847988A989FB7F89459
:101AD000809108018E7F809308019FBF9FB7F89483
:101AE000809108018B7F809308019FBF8D98129889
:101AF0000C9421216431710509F43EC30CF489C1B1
:101B00006531710509F48BC36631710511F00C94D0
:101B100021211092FB0F1092FA0F1092FC0F0C94DF
:101B200021216B31710509F4C1C33CF469317105A0
:101B300009F4A8C30CF490C3ABC36E31710509F46A
:101B40003EC434F46C31710509F404C40C942121B1
:101B50006F31710509F414C66032710509F4A1C52D
:101B60000C9421216936710509F4A7C624F5633563
:101B7000710509F48FC77CF46135710509F482C7DA
:101B80000CF084C76035710511F00C942121999AED
:101B9000A19A0C9421216535710509F4B3C70CF4A1
:101BA0007EC76C35710509F4C4C76836710509F440
:101BB00064C60C9421216337710511F40C943E1610
:101BC0009CF46B36710509F457C70CF425C76D36C4
:101BD000710509F41BC76237710511F00C942121BE
:101BE000E7E7F4E00C9466166737710509F407C15E
:101BF0003CF46537710511F40C944D160C942121B9
:101C00006837710511F40C943A176937710511F0B2
:101C10000C94212181E00E9445A20C942121673F70
:101C200031E0730711F40C94CC1D0CF071C06D3DC4
:101C3000710511F40C949D197CF56C3C710511F43F
:101C40000C942718ACF4693C710511F40C94E71757
:101C50006B3C710511F40C9409186E3B710511F081
:101C60000C9421218FEF9FEF0E94C3770C942121C8
:101C70006E3C710511F40C94A91814F40C944918D5
:101C80006A3D710511F40C94C7186C3D710511F48F
:101C90000C948E190C9421216F3251E0750711F4C8
:101CA0000C94861AA4F46D3291E0790711F40C9427
:101CB000AC1914F00C94721A623E710511F00C9478
:101CC000212181E090E00E9413300C942121643F97
:101CD000B1E07B0711F40C94C61D4CF460397140DF
:101CE00011F00C9421210E94A8A20C942121653F9F
:101CF00021E0720711F40C94C91D663F714011F088
:101D00000C9421210E94432C0E940B900C942121C1
:101D1000653F43E0740711F40C946F1FB4F5693EFE
:101D200083E0780711F40C94C01E94F4603AA3E0A9
:101D30007A0709F4EDC4673EB3E07B0711F40C9415
:101D4000BE206D35724011F00C9421210C94CF1DF2
:101D50006C3EF3E07F0711F40C94E61E4CF46B3EEE
:101D6000734011F00C9421210E941D930C942121A9
:101D7000633F43E0740711F40C94F91E643F734011
:101D800011F40C94341F0C9421216D3F83E07807EB
:101D900011F40C941520B4F4673FA3E07A0711F412
:101DA0000C94C61F14F40C94AA1F683FE3E07E074E
:101DB00011F40C94E21F693F734011F40C94FA1F64
:101DC0000C942121673024E0720711F40C94B620A2
:101DD0003CF46E3F734011F40C948B200C94212141
:101DE000683054E0750711F40C94BB2069307440DE
:101DF00011F00C9421210E9472620C942121E0EEDA
:101E0000F2E00C94451781E090E00E9413300C94AE
:101E1000212183E50E94038C882341F00E94298CB4
:101E20000E946BBF7093A90A6093A80A8DE490E1A9
:101E300090934C1080934B1081E090E09093F011C0
:101E40008093EF111092F2111092F11140E050E0E6
:101E5000BA0181E590E10E94EE6A80914B10909169
:101E60004C102BE1FC013496DE01159601900D9289
:101E70002A95E1F7DC0112968D919C9113979C8332
:101E80008B8383EC92E09A838983BE016F5F7F4FDF
:101E900080E194E00E944263CE0101960E9473505B
:101EA0009090F111C92CD090F21180915410882398
:101EB00009F446C08250823030F48FE28093FD0FE7
:101EC0001092FE0F3DC060915D1070915E10809188
:101ED0005F109091601040E00E948550882381F14E
:101EE00020916110B0E22B9F90011124C901865D01
:101EF000924F892B29F180E090E0E0E05EE2DC0186
:101F0000A20FB31FA65DB24F4C91403289F08830CA
:101F1000910539F4AE2FB0E0A950B04F16965C93FE
:101F2000EF5FAE2FB0E0A950B04F16964C93EF5F25
:101F300001968B30910519F7F0E0E950F04F1682C9
:101F40008091A80A9091A90A892B59F489EF92E00F
:101F50000E94322784E093E00E94322701E010E0E3
:101F600007C080E193E00E9432278BE193E0F4CF39
:101F700087E293E00E9430274AE0B801CE01019643
:101F80000E945F41E980FA80CE0101960E94FF40E5
:101F9000C7010E9430278EE395E00E9430270E94FF
:101FA000242786E393E00E943027C7010E94302750
:101FB0008EE395E00E9430270E9424270F5F1F4F79
:101FC00007301105A9F6E12CF12C00E010E072E0D9
:101FD000A72EB12C9A949BAEE3EC8E2EE2E09E2EBF
:101FE000EC14FD0409F48EC0EDE4F0E1F0934C1024
:101FF000E0934B10B092F011A092EF118BAD8E19BF
:1020000090E09093F2118093F11140E050E0BA011A
:1020100081E590E10E94EE6A80914B1090914C1006
:10202000FC013496DE0115962BE101900D922A9564
:10203000E1F7DC0112968D919C9113979C838B8321
:102040009A828982BE016F5F7F4F80E194E00E9497
:102050004263CE0101960E9473506DEF7FE0CE0186
:1020600080960E94924180912510811143C08CA1DD
:102070009DA1892B09F43EC0BE01605E7F4FCE0159
:1020800001960E948A412DB63EB64D815E812A019D
:1020900021E0421A51088DB79EB7841B950B0FB6ED
:1020A000F8949EBF0FBE8DBFADB7BEB711963D0170
:1020B0004115510541F06114710429F0B301CE01BD
:1020C00001960E94F849F301CF01861997098415FA
:1020D000950514F40C942421772473940FB6F89486
:1020E0003EBE0FBE2DBECE0101960E94FF40711074
:1020F0000C942C21CE0180960E94FF405FEFE51AE0
:10210000F50A6ECF85E493E00E9430276091A80A1B
:102110007091A90A4AE0CE0101960E945F41E980D0
:10212000FA80CE0101960E94FF40C7010E9430272D
:102130000E9424278091A80A9091A90A019646E05E
:10214000489F9001499F300D11242017310754F00A
:102150008EE593E00E9432278BE693E00E943227BF
:102160000C94212189E793E00E94322786E893E0CE
:102170000E9432270C942121EFE4F5E0849188231A
:1021800041F09091C00095FFFCCF8093C60031963E
:10219000F5CF8091C00085FFFCCF8AE08093C60018
:1021A0001092F0111092EF1140E050E0BA0180E37C
:1021B00090E10E94EE6A8BE1E0E3F0E1DE0115962A
:1021C00001900D928A95E1F780912E1090912F1039
:1021D0009C838B8383EC92E09A838983BE016F5F3B
:1021E0007F4F80E194E00E944263CE0101960E94FD
:1021F0007350E1E4F5E08491882341F09091C000B0
:1022000095FFFCCF8093C6003196F5CF8091C0003A
:1022100085FFFCCF8AE08093C6000C9421210E94A8
:1022200088480C9421210091590B10915A0B0C5F96
:102230001F4F6AE270E0C8010E9412C3009719F0B4
:10224000FC013197108220E030E0A90161E0C80173
:102250000E9493660C9421218091FC0F882331F019
:1022600081E090E09093FB0F8093FA0F0E94DB4394
:102270006093C80A7093C90A8093CA0A9093CB0AE4
:102280000C94212181E090E00E9413300C942121D4
:102290008091FC0F882311F40C94212183E50E9486
:1022A000038C81110C94AF210C9421218091FC0F9F
:1022B000882309F439C0EFEBF2E08491882341F0E0
:1022C0009091C00095FFFCCF8093C6003196F5CF6A
:1022D000609128107091291080912A1090912B10F4
:1022E0004AE00E944745EDEBF2E08491882341F0FB
:1022F0009091C00095FFFCCF8093C6003196F5CF3A
:102300006091E6117091E7118091E8119091E911C7
:102310004AE00E9447458091C00085FFFCCF8AE0DB
:102320008093C6000C942121E1EDF2E08491882392
:1023300041F09091C00095FFFCCF8093C60031968C
:10234000F5CF8091C00085FFFCCF8AE08093C60066
:102350000C9421218091590B90915A0B6AE270E004
:1023600004960E9412C38C01892BE1F02091710B1D
:102370003091720B40E6429FC001439F900D1124A3
:102380006EE470E08A55944F0E9412C360E270E0E0
:102390000E9412C3019690935A0B8093590BF80137
:1023A000319710828091590B90915A0B20E030E0C8
:1023B000A90160E004960E9493660C94212180910B
:1023C000FC0F882311F40C9421210E94C964809190
:1023D000590B90915A0B6AE270E004960E9412C366
:1023E0008C01892BE1F02091710B3091720B40E64A
:1023F000429FC001439F900D11246EE470E08A5506
:10240000944F0E9412C360E270E00E9412C30196D2
:1024100090935A0B8093590BF801319710820091D9
:10242000590B10915A0B8091FC0F882311F40C94D6
:102430002121480184E0880E911C8BEC91E10E94DF
:102440005E711092FB0F1092FA0FDE0111967D0162
:10245000CD010E947B508CE290E190934C108093D0
:102460004B10F80184818F3209F08BC06FE270E06D
:10247000C4010E9412C38C010F5F1F4F6AE0662ED9
:102480000115110509F483C06FE270E0C8010E94D4
:1024900012C36C01009709F47BC00817190708F0F4
:1024A00077C05C01A01AB10AA501B801CE018096DF
:1024B0000E943BC3E0E2F0E0EC0FFD1FEA0DFB1DC4
:1024C00010828E01005E1F4FF8018191882339F040
:1024D0009091C00095FFFCCF8093C600F6CF80910D
:1024E000C00085FFFCCF6092C60060914B107091D8
:1024F0004C106115710511F06C5F7F4F21E0AE014A
:10250000405E5F4FCE0105960E946671811131C019
:10251000EBE0F3E08491882371F09091C00095FF87
:10252000FCCF8093C6003196F5CF9091C00095FF07
:10253000FCCF8093C600D8018D918D018111F5CF1C
:10254000E9E0F3E08491882341F09091C00095FF89
:10255000FCCF8093C6003196F5CF8091C00085FFF7
:10256000FCCF8AE08093C600C7010E9473500C9490
:102570002121F0924C10E0924B1086010F5F1F4F0B
:102580007FCF8DE490E190934C1080934B108401A9
:1025900060914B1070914C106115710511F06C5FDA
:1025A0007F4F18A21BA222E0A801CE0180960E94B4
:1025B00066718823F1F0CE0180960E947D468823C3
:1025C000C1F06CA57DA58EA59FA541E00E94855018
:1025D000882379F0E8A9B0E2EB9FF0011124E65DD1
:1025E000F24F309731F085EE80831BA20E946C6A17
:1025F000782ECE0180960E949625772009F1EBEF88
:10260000F2E08491882341F09091C00095FFFCCFC7
:102610008093C6003196F5CFF8018191882339F077
:102620009091C00095FFFCCF8093C600F6CF10922A
:1026300028101092291010922A1010922B102CC0E2
:10264000E3EEF2E08491882341F09091C00095FF81
:10265000FCCF8093C6003196F5CFF8018191882395
:1026600039F09091C00095FFFCCF8093C600F6CF63
:10267000E1EEF2E08491882341F09091C00095FF53
:10268000FCCF8093C6003196F5CF8091C00085FFC6
:10269000FCCF8AE08093C600C7010E9473500C945F
:1026A00021218091FA0F9091FB0F019721F40E9454
:1026B000A8A20E94C9640091590B10915A0B0C5F9B
:1026C0001F4F6AE270E0C8010E9412C3009719F020
:1026D000FC013197108220E030E0A90161E0C801DF
:1026E0000E9493668091FC0F882331F081E090E096
:1026F0009093FB0F8093FA0F0E94DB436093C80A0C
:102700007093C90A8093CA0A9093CB0A0C94212132
:102710008091590B90915A0B6AE270E005960E94E5
:1027200012C38C01892BE1F02091710B3091720B57
:1027300040E6429FC001439F900D11246EE470E07B
:102740008A55944F0E9412C360E270E00E9412C347
:10275000019690935A0B8093590BF8013197108290
:102760008091590B90915A0B21E02093F90F20E0B2
:1027700030E0A90160E005960E9493660C94212147
:102780000E94DB436093CC0A7093CD0A8093CE0AFB
:102790009093CF0A0091C80A1091C90A2091CA0AE1
:1027A0003091CB0A601B710B820B930B28EE33E048
:1027B00040E050E00E94D0BDCA01B9012CE330E0F6
:1027C00040E050E00E94D0BD7F936F933F932F93E2
:1027D00082E395E09F938F938E010F5F1F4F1F93AE
:1027E0000F930E9405B8E8E6FDE08491EDB7FEB7CF
:1027F00038960FB6F894FEBF0FBEEDBFE8E6FDE0D9
:10280000882349F09091C00095FFFCCF8093C600CB
:1028100031968491F5CFF8018191882339F0909118
:10282000C00095FFFCCF8093C600F6CF8091C0001A
:1028300085FFFCCF8AE08093C6000C94212183E5BC
:102840000E94038C882311F40C9421210E94298C6E
:102850006B017C0180E50E94038C882311F40C94A9
:102860002121C701B6010E946BBF6F3F710509F0BE
:1028700010F40C94C0210C94212188E690E00E9471
:10288000A03181110C9421216FEF7FEF8FEF9FEF2B
:102890000E94D75F0C94212183E50E94038C88233A
:1028A00011F40C9421210E94298C0E946BBF70931B
:1028B000700B60936F0B0C94212189E690E00E94CD
:1028C000A03181110C942121ECE2F5E08491882360
:1028D00041F09091C00095FFFCCF8093C6003196E7
:1028E000F5CFE0910D1224E0E29FF0011124EB53AB
:1028F000F84E608171818281938141E00E94CE45D2
:10290000E9E2F5E08491882341F09091C00095FFC1
:10291000FCCF8093C6003196F5CFE0910D12F0E028
:10292000EE0FFF1FE957FD4E60817181072E000CED
:10293000880B990B0E943AB841E00E94CE45E5E22F
:10294000F5E08491882341F09091C00095FFFCCF81
:102950008093C6003196F5CF6091B5177091B61788
:102960008091B7179091B81741E00E94CE45E2E2FE
:10297000F5E08491882341F09091C00095FFFCCF51
:102980008093C6003196F5CF60916F0B7091700BFC
:10299000072E000C880B990B0E943AB841E00E9468
:1029A000CE45EEE1F5E08491882341F09091C0009E
:1029B00095FFFCCF8093C6003196F5CFE0910D12C4
:1029C000F0E0E153F84E608170E080E090E00E941A
:1029D000BC45E9E1F5E08491882341F09091C00085
:1029E00095FFFCCF8093C6003196F5CF6091CE174E
:1029F00070E080E090E00E94BC458091C00085FFBF
:102A0000FCCF8AE08093C6000C946E248FEF9FEF7A
:102A10000E9484730C94212183E50E94038C8823F7
:102A200019F10E94298C20E030E0A9010E9434B8FD
:102A300087FD0FC00E94298C20E030E04FE753E46F
:102A40000E9457C0181644F00E94298C0E946BBF48
:102A500005C060E070E002C06FEF70E07093311865
:102A6000609330180C9421218FEF90E090933118EF
:102A7000809330180C942121109231181092301844
:102A80000C9421210E94E38B0C9421211092830B42
:102A90000C94212181E08093830B0C94212183E508
:102AA0000E94038C8823A1F00E94298C20E030E052
:102AB0004AE754E40E9491B20E9471BF60933002D1
:102AC0007093310280933202909333020C9421214F
:102AD00088E50E94038C81110C94C32189E50E9432
:102AE000038C81110C94C3218AE50E94038C81110F
:102AF0000C94C32185E40E94038C81110C94C321A2
:102B00000C94EF2183E50E94038C0E94298C20E025
:102B100030E04AE754E40E9491B20E9471BF609392
:102B2000880B7093890B80938A0B90938B0B0C947A
:102B3000212182E50E94038C882329F00E94298CA0
:102B40004B015C0106C0812C912C40E8A42E4FE380
:102B5000B42E4DE952E05FAF4EAF0BE812E182E2D6
:102B600092E19DAF8CAF3DE9232E32E1332E1BAEB7
:102B7000AEADBFAD8D91BFAFAEAF0E94038C8823C9
:102B800009F467C0BBADB33009F058C00E94298C6E
:102B9000A50194010E94FABE2B013C0120E030E027
:102BA00040EA51E40E9434B887FF41C0A30192017A
:102BB000F80160817181828193810E94FABE6B016C
:102BC0007C019B01AC0160910E1270910F128091FB
:102BD0001012909111120E9491B260930E12709394
:102BE0000F128093101290931112A7019601ACADB1
:102BF000BDAD6D917D918D919C910E9491B2ECAD96
:102C0000FDAD6083718382839383D1016D917D914A
:102C10008D919C910E9438B8A70196010E9491B2B3
:102C20000E9471BFF1016083718382839383D80115
:102C30004D925D926D927C9213970BC00E94298CED
:102C4000A50194010E94FABEF8016083718382831A
:102C50009383FBADFF5FFBAF0C5F1F4F2CAD3DAD12
:102C60002C5F3F4F3DAF2CAF34E0230E311CF430CE
:102C700009F07ECF0E94162B0C942121EAE7F4E0A4
:102C80008491882311F40C9421219091C00095FF28
:102C9000FCCF8093C6003196F3CF8091590B909171
:102CA0005A0B6AE270E005960E9412C3009711F475
:102CB0000C942121FC01319710820C9421219091D8
:102CC000C00095FFFCCF8093C6003196849181119E
:102CD000F6CF60917712709178128091791290916D
:102CE0007A1242E00E94CE45E4E7F4E08491882322
:102CF00041F09091C00095FFFCCF8093C6003196C3
:102D0000F5CF60917B1270917C1280917D12909131
:102D10007E1242E00E94CE45E1E7F4E084918823F0
:102D200041F09091C00095FFFCCF8093C600319692
:102D3000F5CF60917F1270918012809181129091F5
:102D4000821242E00E94CE45EEE6F4E084918823B0
:102D500041F09091C00095FFFCCF8093C600319662
:102D6000F5CF6091831270918412809185129091B9
:102D7000861242E00E94CE45E3E6F4E08491882387
:102D800041F09091C00095FFFCCF8093C600319632
:102D9000F5CF2FB7F894609143127091441280914F
:102DA0004512909146122FBF0E943AB820918B1283
:102DB00030918C1240918D1250918E120E94FABE69
:102DC00042E00E94CE45E0E6F4E08491882341F0A1
:102DD0009091C00095FFFCCF8093C6003196F5CF4F
:102DE0002FB7F89460914712709148128091491260
:102DF00090914A122FBF0E943AB820918F123091C1
:102E0000901240919112509192120E94FABE42E0AB
:102E10000E94CE45EDE5F4E08491882341F0909145
:102E2000C00095FFFCCF8093C6003196F5CF2FB739
:102E3000F89460914B1270914C1280914D129091C8
:102E40004E122FBF0E943AB82091931230919412E3
:102E500040919512509196120E94FABE42E00E9453
:102E6000CE458091C00085FFFCCF8AE08093C600EC
:102E70000C94212180E00E9445A20C942121909184
:102E8000C00095FFFCCF8093C60081918111F7CFE0
:102E90008091C00085FFFCCF8AE08093C600E5E505
:102EA000F4E08491882341F09091C00095FFFCCF1D
:102EB0008093C6003196F5CF659B03C0E1EDF2E04B
:102EC00009C0E6EDF2E006C09091C00095FFFCCF8E
:102ED0008093C60081918111F7CF8091C00085FF5A
:102EE000FCCF8AE08093C600EDE4F4E0849188236F
:102EF00041F09091C00095FFFCCF8093C6003196C1
:102F0000F5CF649B03C0E1EDF2E009C0E6EDF2E02D
:102F100006C09091C00095FFFCCF8093C6008191C0
:102F20008111F7CF8091C00085FFFCCF8AE08093AC
:102F3000C600E5E4F4E08491882341F09091C0005C
:102F400095FFFCCF8093C6003196F5CF80910301A9
:102F500081FD03C0E1EDF2E009C0E6EDF2E006C05C
:102F60009091C00095FFFCCF8093C60081918111A4
:102F7000F7CF8091C00085FFFCCF8AE08093C60028
:102F8000EDE3F4E08491882341F09091C00095FF37
:102F9000FCCF8093C6003196F5CF4B9B03C0E1ED8B
:102FA000F2E009C0E6EDF2E006C09091C00095FFA6
:102FB000FCCF8093C60081918111F7CF8091C00032
:102FC00085FFFCCF8AE08093C6000C9421219DEA06
:102FD000E92E92E1F92E0DE912E024E0D22ED00E76
:102FE000D8018D918D010E94038C882349F00E94A5
:102FF000298C0E9471BFF701608371838283938360
:10300000F4E0EF0EF11CD012EBCF0E9415830C946C
:10301000212112E2E12E12E1F12E0DE912E084E00D
:10302000D82ED00ED8018D918D010E94038C88235B
:1030300039F00E94298CF701608371838283938326
:10304000F4E0EF0EF11CD012EDCF0C94212183E5BA
:103050000E94038C882351F00E94298C60931A12DD
:1030600070931B1280931C1290931D1284E50E9492
:10307000038C882311F40C9421210E94298C6093E5
:103080001E1270931F1280932012909321120C94A1
:10309000212183E50E94038C882351F00E94298C12
:1030A00060933612709337128093381290933912CE
:1030B00084E50E94038C882351F00E94298C609340
:1030C0003A1270933B1280933C1290933D1282E42B
:1030D0000E94038C882361F00E94298C0E9471BF9A
:1030E000609332127093331280933412909335129E
:1030F00088E50E94038C882351F00E94298C6093FC
:1031000016127093171280931812909319128AE571
:103110000E94038C882351F00E94298C6093121224
:1031200070931312809314129093151285E40E94E9
:10313000038C882311F40C9421210E94298C609324
:103140000E1270930F1280931012909311120C9420
:103150002121A0EFEA2EA7E1FA2E0DE912E0B3E05B
:10316000DB2ED00ED8018D918D010E94038C882317
:1031700039F00E94298CF7016083718382839383E5
:10318000F4E0EF0EF11CD012EDCF0C9421218AED6A
:1031900090E00E94A03181110C94212188E50E94C9
:1031A000038C882381F000910D1210E00E94298C7D
:1031B000000F111F000F111FF801E552F04F60833F
:1031C00071838283938389E50E94038C882381F035
:1031D00000910D1210E00E94298C000F111F000FAA
:1031E000111FF801ED51F04F608371838283938347
:1031F0008AE50E94038C882381F000910D1210E073
:103200000E94298C000F111F000F111FF801E551BA
:10321000F04F6083718382839383E8E6FDE08491BD
:10322000882341F09091C00095FFFCCF8093C600A9
:103230003196F5CFEDE2F4E08491882341F090914E
:10324000C00095FFFCCF8093C6003196F5CF109259
:103250000D1280910D12823008F058C0E5E5F5E0BE
:103260008191882339F09091C00095FFFCCF809325
:10327000C600F6CFE0910D1224E0E29FF001112488
:10328000E552F04F608171818281938142E00E941A
:10329000CE4504E913E0F8018191882339F090913B
:1032A000C00095FFFCCF8093C600F6CFE0910D12D1
:1032B00034E0E39FF0011124ED51F04F6081718102
:1032C0008281938142E00E94CE45D8018D918D018B
:1032D000882339F09091C00095FFFCCF8093C60001
:1032E000F4CFE0910D12B4E0EB9FF0011124E55111
:1032F000F04F608171818281938142E00E94CE45CE
:1033000080910D128F5F80930D12A3CF8091C0002A
:1033100085FFFCCF8AE08093C60093C783E50E94B7
:10332000038C882309F48DC70E94298C0E946BBFEF
:10333000709359026093580284C783E50E94038CFE
:10334000882309F47EC70E94298C0E946BBF70936A
:1033500035026093340275C780E50E94038C882390
:1033600051F00E94298C60936302709364028093F1
:1033700065029093660289E40E94038C882381F0A1
:103380000E94298C2DEB37E346E05EE30E9491B268
:1033900060930A0270930B0280930C0290930D02CB
:1033A00084E40E94038C882381F00E94298C2DEBF9
:1033B00037E346E05EE30E94FABE60935F027093DB
:1033C0006002809361029093620283E40E94038C06
:1033D000882351F00E94298C6093000270930102AF
:1033E00080930202909303020E942CA2E6E9F3E08C
:1033F0008191882339F09091C00095FFFCCF809394
:10340000C600F6CFE9E9F3E08191882339F0909185
:10341000C00095FFFCCF8093C600F6CF6091630299
:1034200070916402809165029091660242E00E9470
:10343000CE45EDE9F3E08191882339F09091C00009
:1034400095FFFCCF8093C600F6CF2DEB37E346E027
:103450005EE360910A0270910B0280910C029091E0
:103460000D020E94FABE42E00E94CE45E1EAF3E07E
:103470008191882339F09091C00095FFFCCF809313
:10348000C600F6CF2DEB37E346E05EE360915F02C6
:103490007091600280916102909162020E9491B2EB
:1034A00042E00E94CE45E5EAF3E08191882339F0BD
:1034B0009091C00095FFFCCF8093C600F6CF60913D
:1034C000000270910102809102029091030242E099
:1034D0000E94CE458091C00085FFFCCF8AE080939A
:1034E000C600AFC683E50E94038C882319F00E94B2
:1034F000298C03C060E070E0CB0160933E127093B2
:103500003F1280934012909341129BC685E40E9423
:10351000038C882341F00E94298C0E946BBF8B0191
:1035200077FD12C002C000E010E027961FAE27977B
:1035300028961FAE2897E6E12996EFAF2997F3E486
:103540002A96FFAF2A970EC027961FAE2797289678
:103550001FAE28972CE829962FAF299732E42A9698
:103560003FAF2A9783E50E94038C882371F00E9465
:10357000298C27966FAF279728967FAF2897299693
:103580008FAF29972A969FAF2A9783E40E94038CD6
:10359000882349F00E94298C0E946BBFA6967FAFBA
:1035A0006EAFA69706C045E050E0A6965FAF4EAF5F
:1035B000A6970E94DB4326966CAF7DAF8EAF9FAF80
:1035C0002697033011051CF4E9EAF3E01AC0ECEB8E
:1035D000F3E08191882339F09091C00095FFFCCFF2
:1035E0008093C600F6CF8091C00085FFFCCF8AE0B3
:1035F0008093C60026C69091C00095FFFCCF8093B3
:10360000C60081918111F7CF8091C00085FFFCCF6A
:103610008AE08093C6000E94A7838FE717FF64C0EB
:103620008093CE1726968CAD9DADAEADBFAD2697DF
:1036300064968CAF9DAFAEAFBFAF6497AA968CAFC8
:103640009DAFAEAFBFAFAA972B961FAE2B9790E45E
:1036500069969FAF6997ACE16A96AFAF6A97B6E497
:103660006B96BFAF6B9765961FAE659766961FAE5C
:10367000669767961FAE679768961FAE68972FE7A5
:1036800030E040E050E022962CAF3DAF4EAF5FAF50
:1036900022973FE7432E512C612C712CA2961CAE31
:1036A0001DAE1EAE1FAEA29731E06C963FAF6C9779
:1036B00060961FAE1EAE60971BAE212C312C1CAE47
:1036C000A8014153584EA4965FAF4EAFA497C801CE
:1036D000880F991F880F991FDC01AB53B84E6E9667
:1036E000BFAFAEAF6E9707C0F801E153F84E8083CD
:1036F00099CF0E94924F8091CD17882309F458C129
:103700000E94368A17FF0BC0B091B517BBAF20904F
:10371000B6173090B717E091B817ECAF0EC06E96A1
:10372000AEADBFAD6E97BC91BBAF6E96EEADFFADCB
:103730006E9721803280F381FCAF2BAD322D432D6B
:103740005CAD65966FAD659766967FAD669767963B
:103750008FAD679768969FAD68970E9457C01816FF
:1037600074F02BAD65962FAF659766962FAE669772
:1037700067963FAE67973CAD68963FAF68972BADB5
:10378000322D432D5CAD2B966FAD2B9769967FAD97
:1037900069976A968FAD6A976B969FAD6B970E94FB
:1037A00034B887FD0EC04BAD2B964FAF2B97699663
:1037B0002FAE69976A963FAE6A975CAD6B965FAF26
:1037C0006B976C968FAD6C97882309F475C027961C
:1037D0002FAD279728963FAD289729964FAD29976B
:1037E0002A965FAD2A976BAD722D832D9CAD0E94FA
:1037F00057C018160CF0DCC00E94DB43DC01CB0183
:1038000026962CAD3DAD4EAD5FAD2697821B930B3A
:10381000A40BB50B89389341A105B10508F4C8C0C4
:10382000D301C20122962CAD3DAD4EAD5FAD2297C6
:10383000821B930BA40BB50BB595A7959795879510
:1038400017FF03C08093CE1705C0A496EEADFFAD61
:10385000A49780830E94DB4364966CAF7DAF8EAFEC
:103860009FAF64979B01AC0126968CAD9DADAEAD2C
:10387000BFAD2697281B390B4A0B5B0BA2962CAFCA
:103880003DAF4EAF5FAFA29727969FAD2797659646
:103890009FAF65972896AFAD28976696AFAF6697AE
:1038A0002996BFAD29976796BFAF67972A96EFAD68
:1038B0002A976896EFAF689727962FAD2797289697
:1038C0003FAD289729964FAD29972A965FAD2A9745
:1038D0006BAD722D832D9CAD0E9434B887FF5DC700
:1038E0000E94DB43DC01CB0164962CAD3DAD4EADB7
:1038F0005FAD6497821B930BA40BB50B8938934182
:10390000A105B10508F449C70E94DB4326966CAFB8
:103910007DAF8EAF9FAF2697DC01CB0164962CADB7
:103920003DAD4EAD5FAD6497821B930BA40BB50B01
:1039300060964EAD5FAD6097141615060CF457C532
:1039400022968CAD9DADAEADBFAD2297840D951D79
:10395000A61DB71DB595A7959795879517FF17C70E
:103960008093CE1760962EAD3FAD60972F5F3F4F8F
:1039700060963FAF2EAF609727963FAD27972B9667
:103980003FAF2B9728964FAD289769964FAF699711
:1039900029965FAD29976A965FAF6A972A968FAD91
:1039A0002A976B968FAF6B9791E06C969FAF6C9751
:1039B00020E030E040EA51E427966FAD2797289643
:1039C0007FAD289729968FAD29972A969FAD2A9784
:1039D0000E940CBE9B01AC016BAD722D832D9CAD82
:1039E0000E9457C01816ACF4E8E9F3E084918823EC
:1039F00041F09091C00095FFFCCF8093C6003196B6
:103A0000F5CF8091C00085FFFCCF8AE08093C6008F
:103A100018C40E94DB43DC01CB01AA962CAD3DAD5E
:103A20004EAD5FADAA97821B930BA40BB50B813DE6
:103A30009740A105B10508F44EC017FF10C0E090F3
:103A4000CE17F12CE2E9F3E084918823D9F090912C
:103A5000C00095FFFCCF8093C6003196F5CFA496A9
:103A6000AEADBFADA497EC90F12CECE8F3E08491FF
:103A7000882341F09091C00095FFFCCF8093C60051
:103A80003196F5CF42E06BAD722D832D9CAD0E9437
:103A9000CE45E8E8F3E08491882341F09091C0009E
:103AA00095FFFCCF8093C6003196F5CFB701FF0C90
:103AB000880B990B0E94BC458091C00085FFFCCF0C
:103AC0008AE08093C6000E94DB43AA966CAF7DAF6C
:103AD0008EAF9FAFAA970E94DB436B017C010E94CF
:103AE000DB4364968CAC9DACAEACBFAC64972696C1
:103AF0002CAD3DAD4EAD5FAD2697820E931EA41E3C
:103B0000B51EC818D908EA08FB08DC01CB018C0DEA
:103B10009D1DAE1DBF1D81389F44A241B105A8F077
:103B2000EBE6F3E08491882341F09091C00095FF8B
:103B3000FCCF8093C6003196F5CF8091C00085FF01
:103B4000FCCF8AE08093C6007CC360964EAD5FAD2B
:103B50006097A6968EAD9FADA697841795070CF03B
:103B6000C8CDEFE1F3E08491882341F09091C0004B
:103B700095FFFCCF8093C6003196F5CF8091C000B1
:103B800085FFFCCF8AE08093C6005BC30E94162BA2
:103B900058C30E94D22D55C30E94402752C30E9491
:103BA000A8A283E50E94038C882341F00E94298CFF
:103BB0000E946BBF709313026093120280911202F5
:103BC000909113028230910509F0BFC088E50E94F0
:103BD000038C882349F10E94298C6B017C010E948F
:103BE000EE619B01AC0160E070E0CB010E940BBE76
:103BF0009B01AC01C701B6010E9457C018161CF406
:103C00000E94298C09C00E94EE619B01AC0160E01A
:103C100070E0CB010E940BBE6093140270931502FA
:103C2000809316029093170282E50E94038C8823EA
:103C300051F00E94298C6093091270930A128093AC
:103C40000B1290930C12E8E6FDE08491882341F07A
:103C50009091C00095FFFCCF8093C6003196F5CFC0
:103C6000E8E0F4E08491882341F09091C00095FF52
:103C7000FCCF8093C6003196F5CF65E5E62E65E072
:103C8000F62EF7018191882339F09091C00095FFBD
:103C9000FCCF8093C600F6CF6091DB0F7091DC0FF4
:103CA0008091DD0F9091DE0F42E00E94CE4504E945
:103CB00013E0F8018191882339F09091C00095FFBD
:103CC000FCCF8093C600F6CF6091E30F7091E40FB4
:103CD0008091E50F9091E60F42E00E94CE45D7011A
:103CE0008D917D01882339F09091C00095FFFCCF24
:103CF0008093C600F4CF60911402709115028091F8
:103D000016029091170242E00E94CE45F80181917F
:103D10008F01882339F09091C00095FFFCCF8093EC
:103D2000C600F4CF6091E70F7091E80F8091E90F22
:103D30009091EA0F42E00E94CE458091C00085FF3D
:103D4000FCCF8AE08093C60008C0049730F081E081
:103D500090E090931302809312021092FF178091CB
:103D600012029091130290933702809336021092C0
:103D7000001810920118109202181092031861C2D4
:103D800083E50E94038C882309F45BC20E94298C7E
:103D90000E946BBF623071052CF47093600B6093CE
:103DA0005F0B06C081E090E09093600B80935F0B07
:103DB00080915F0B9091600B97FD02C00C943A16B6
:103DC0001092600B10925F0B0C943A16812C912C80
:103DD00054017501640100E010E020E030E040E0B3
:103DE00050E060E070E0CB010E94E72E109242129A
:103DF00028C282E50E94038C882329F00E94298C26
:103E00009B01AC0104C020E030E040E85FE383E5C3
:103E1000AD962FAFAD97AE963FAFAE97AF964FAF83
:103E2000AF97E0965FAFE0970E94038C882309F478
:103E300008C20E94298CAD962FADAD97AE963FADCE
:103E4000AE97AF964FADAF97E0965FADE0970E940B
:103E5000FABE6093D70F7093D80F8093D90F9093C9
:103E6000DA0F0E94162BEDC182E50E94038C882395
:103E700029F00E94298C9B01AC0104C020E030E0B5
:103E800040E85FE383E5AD962FAFAD97AE963FAFC9
:103E9000AE97AF964FAFAF97E0965FAFE0970E94B7
:103EA000038C882309F4CDC10E94298CAD962FADD7
:103EB000AD97AE963FADAE97AF964FADAF97E0964C
:103EC0005FADE0970E94FABE6093F30F7093F40F1A
:103ED0008093F50F9093F60F0E94162BB2C182E5E6
:103EE0000E94038C882329F00E94298C9B01AC013D
:103EF00004C020E030E040E85FE383E5AD962FAFFB
:103F0000AD97AE963FAFAE97AF964FAFAF97E096F7
:103F10005FAFE0970E94038C882309F492C10E944E
:103F2000298CAD962FADAD97AE963FADAE97AF96BF
:103F30004FADAF97E0965FADE0970E94FABE6093F9
:103F4000A40A7093A50A8093A60A9093A70A0E94D8
:103F5000162B77C183E50E94038C882309F471C175
:103F60000E94298C0E946BBF6F3F710509F02CF4F1
:103F700077FF05C060E070E002C06FEF70E0709303
:103F8000870B6093860B0E94162B5BC183E50E9412
:103F9000038C882309F455C10E94298C0E946BBFB1
:103FA0006536710534F46E3171052CF46EE170E004
:103FB00002C064E670E07093850B6093840B0E94EE
:103FC000162B3FC183E50E94038C882309F439C175
:103FD0000E94298C0E946BBF21E030E061307105A6
:103FE00011F020E030E03093C70A2093C60A0E9407
:103FF000162B27C183E50E94038C882309F421C175
:104000000E94298C0E946BBF6D3371052CF477FFE1
:1040100005C060E070E002C06CE370E07093A30A3A
:104020006093A20A0E94162B0CC183E50E94038CA8
:10403000882309F406C10E94298C0E946BBF611578
:104040007105F9F480919A0A90919B0A90938812D5
:104050008093871290938A12809389128091980A94
:104060009091990A9093700B80936F0B8091960AB0
:104070009091970A90933118809330180E94068887
:10408000E0C061307105F9F48091A00A9091A10A15
:10409000909388128093871290938A12809389124A
:1040A00080919E0A90919F0A9093700B80936F0B62
:1040B00080919C0A90919D0A9093311880933018BA
:1040C0000E940688BEC06230710569F410928812A1
:1040D0001092871210928A12109289121092700B0D
:1040E00010926F0BAEC06330710509F0AAC0109238
:1040F00088121092871210928A12109289121092CE
:10410000700B10926F0B0E94A8A28D9A129A80E0F9
:104110000E9470A296C083E50E94038C882309F454
:1041200090C00E94298C0E946BBF8B0184E50E9485
:10413000038C882329F00E94298C0E946BBF02C047
:104140006FEF7FEF0230110508F07BC080919B126A
:1041500090E06817790709F424C36F3FFFEF7F07EA
:1041600009F41FC3CB010E94328C1BC380E090E096
:104170000E94133066C00E94966263C01092540B76
:1041800080918C0B90918D0BA0918E0BB0918F0B29
:104190008093550B9093560BA093570BB093580BED
:1041A0000E947B3C4EC084E50E94038C882329F04A
:1041B0008FEF9FEF0E94328C44C0E8E6FDE08491CF
:1041C000882341F09091C00095FFFCCF8093C600FA
:1041D0003196F5CFEAE1F4E08491882341F09091A3
:1041E000C00095FFFCCF8093C6003196F5CF80913B
:1041F000710B9091720B20E6289FF001299FF00D22
:104200001124EA55F44F8191882339F09091C00030
:1042100095FFFCCF8093C600F6CFE8E1F4E08491EF
:10422000882341F09091C00095FFFCCF8093C60099
:104230003196F5CF8091C00085FFFCCF8AE0809356
:10424000C6000E94543C4AC3819187FD02C00C9471
:104250006410712C0C946E106AE070E1CE0101962E
:104260000E949241BE016F5F7F4FCE0180960E94F7
:10427000C640CE0101960E94FF40CE0180960E946A
:10428000BA3E0F5F1F4F2091A80A3091A90AB6E0ED
:10429000B29FC001B39F900D11248017910714F0B5
:1042A0000C947A1006968017910714F40C947A10E7
:1042B0004AEF42033001439F700C1124600E711EBF
:1042C00087E293E0CDD54AE0B301CE0101960E948A
:1042D0005F4189819A81C4D5CE0101960E94FF4039
:1042E00080E796E0BDD5CE0180960E94BA3E88A1B7
:1042F00099A1B6D584E495E0B3D5A6D586E393E03D
:10430000AFD54AE0B301CE0101960E945F41898199
:104310009A81A6D5CE0101960E94FF4080E796E0E3
:104320009FD56DEF7FE0CE0101960E949241BE01C4
:104330006F5F7F4FCE0180960E94C640CE010196EE
:104340000E94FF40CE0180960E94BA3E88A199A1AA
:1043500087D584E495E084D577D50C947A100E94B3
:104360001E8CAB01BC014093281050932910609320
:104370002A1070932B108BEC91E10E94EE6A61CFB2
:104380000E94298C5ECF0E94A8A288E50E94038C1F
:10439000882311F05F9A479A89E50E94038C811166
:1043A0008A9A8AE50E94038C882381F09FB7F8944B
:1043B000809108018160809308019FBF9FB7F894A6
:1043C000809108018460809308019FBF85E40E946A
:1043D000038C882309F435CF8D9A129A32CF0E942C
:1043E000A8A28D9A129A81E00E9470A22ACFA2966A
:1043F0008CAC9DACAEACBFACA297880E991EAA1E29
:10440000BB1EA2962CAD3DAD4EAD5FADA297281B55
:10441000390B4A0B5B0BCA01B90122962CAD3DAD9D
:104420004EAD5FAD22970E94C1BDA50194010E94CF
:10443000C2C1D301C201820F931FA41FB51F8431D3
:104440009105A105B1050CF12C013D018C3E9105B2
:10445000A105B1052CF0FBEE4F2E512C612C712CD7
:1044600040E84416510461047104FCF08EEF90E0C2
:10447000A0E0B0E084199509A609B70922968CAF8F
:104480009DAFAEAFBFAF229716C0E4E14E2E512CC8
:10449000612C712C24E130E040E050E022962CAFFA
:1044A0003DAF4EAF5FAF229706C022964CAE5DAED9
:1044B0006EAE7FAE2297E0E0F4E08491882341F075
:1044C0009091C00095FFFCCF8093C6003196F5CF48
:1044D000C301B2010E94BC45EBEFF3E08491882355
:1044E00041F09091C00095FFFCCF8093C6003196BB
:1044F000F5CF22966CAD7DAD8EAD9FAD22970E941B
:10450000BC45E4EFF3E08491882341F09091C00032
:1045100095FFFCCF8093C6003196F5CF42E02B96F5
:104520006FAD2B9769967FAD69976A968FAD6A9745
:104530006B969FAD6B970E94CE45EDEEF3E08491B4
:10454000882341F09091C00095FFFCCF8093C60076
:104550003196F5CF42E065966FAD659766967FAD73
:10456000669767968FAD679768969FAD68970E942C
:10457000CE458091C00085FFFCCF8AE08093C600C5
:1045800060962EAD3FAD6097233031050CF4D8C94D
:1045900022966CAD7DAD8EAD9FAD22970E943AB84C
:1045A00020E030E040E850E40E9491B26B017C01D1
:1045B0002B962FAD2B9769963FAD69976A964FADB5
:1045C0006A976B965FAD6B9765966FAD65976696CC
:1045D0007FAD669767968FAD679768969FAD689732
:1045E0000E940BBE20ED3FE049E450E40E9491B2EE
:1045F00020E030E040E05FE30E9491B29B01AC011B
:10460000C701B6010E94FABE6B017C01C501B4016D
:104610000E943AB820E030E04AE754E40E94FABE33
:104620004B015C01E7EEF3E08491882341F0909127
:10463000C00095FFFCCF8093C6003196F5CF42E0D5
:10464000C701B6010E94CE45E1EEF3E084918823D4
:1046500041F09091C00095FFFCCF8093C600319649
:10466000F5CF42E0C501B4010E94CE458091C00063
:1046700085FFFCCF8AE08093C6002AE939E949E149
:104680005FE3C701B6010E9491B26B017C019B01FF
:10469000AC010E940CBEA50194010E94FABE2E96A8
:1046A0006CAF7DAF8EAF9FAF2E97A5019401C70170
:1046B000B6010E9491B220E030E040E05EE30E944B
:1046C00091B24B015C01E4EDF3E08491882341F069
:1046D0009091C00095FFFCCF8093C6003196F5CF36
:1046E0008091C00085FFFCCF8AE08093C600EEEC8D
:1046F000F3E08491882341F09091C00095FFFCCFB6
:104700008093C6003196F5CF42E0C701B6010E9402
:10471000CE458091C00085FFFCCF8AE08093C60023
:10472000E8ECF3E08491882341F09091C00095FF7C
:10473000FCCF8093C6003196F5CF42E02E966CAD4B
:104740007DAD8EAD9FAD2E970E94CE458091C0006D
:1047500085FFFCCF8AE08093C600E2ECF3E0849111
:10476000882341F09091C00095FFFCCF8093C60054
:104770003196F5CF42E0C501B4010E94CE4580914B
:10478000C00085FFFCCF8AE08093C600D9C8A496FC
:10479000EEADFFADA4978083E5C86C961FAE6C9715
:1047A00007C9012B09F04DC020E030E044EB52E492
:1047B000609183127091841280918512909186127B
:1047C0000E940CBE609383127093841280938512B2
:1047D000909386123BE9C32E32E1D32EE12CF12CCB
:1047E00000E211E423E832E14FE752E16BE772E1C6
:1047F00087E792E10E940D5420E030E040EA51E466
:10480000609183127091841280918512909186122A
:104810000E940CBE60938312709384128093851261
:1048200090938612E12CF12C00E010E423E832E1B1
:104830004FE752E16BE772E187E792E10E940D5486
:1048400000CD20E030E040EF51E4609183127091A0
:10485000841280918512909186120E940CBE609302
:1048600083127093841280938512909386128BE941
:10487000C82E82E1D82EE12CF12C00E010E423E8D0
:1048800032E14FE752E16BE772E187E792E10E9484
:104890000D5420E030E040EF52E4609183127091BB
:1048A000841280918512909186120E940BBE6093B3
:1048B0008312709384128093851290938612E12C58
:1048C000F12C08E412E423E832E14FE752E16BE710
:1048D00072E187E792E10E940D54B3CCAC96EEAD45
:1048E000FFADAC970FB6F894FEBF0FBEEDBFC15938
:1048F000DF4F0FB6F894DEBF0FBECDBFDF91CF9173
:104900001F910F91FF90EF90DF90CF90BF90AF90ED
:104910009F908F907F906F905F904F903F902F90DF
:1049200008953F924F925F926F927F928F929F92E3
:10493000AF92BF92CF92DF92EF92FF920F931F93AD
:10494000CF93DF93CDB7DEB72C970FB6F894DEBFC9
:104950000FBECDBF5C01DC0159968D909C905A979B
:10496000F40181859285A385B4859C01AD012F5FFB
:104970003F4F4F4F5F4F29873A874B875C87D50161
:104980001496CD90DD90ED90FC901797C114D10452
:10499000E104F10439F0BFEFCB1ADB0AEB0AFB0AA2
:1049A000312C07C0F401C080D180E280F380332431
:1049B0003394260137011D821E821F821886F4015E
:1049C00081859285A385B4852D813E814F8158854F
:1049D000281739074A075B0708F064C089859A855C
:1049E000AB85BC858C159D05AE05BF0550F482E0F6
:1049F000C82ED12CE12CF12C92E0492E512C612CA7
:104A0000712C9E012F5F3F4FB701A601C4010E9488
:104A10004F51882309F446C089819A81AB81BC81BA
:104A2000892B8A2B8B2B41F0260137019FEF491AE6
:104A3000590A690A790A05C0C414D504E604F704C2
:104A400091F02D813E814F8158852F5F3F4F4F4F11
:104A50005F4F2D833E834F8358873FEFC31AD30A9E
:104A6000E30AF30AACCF0FEF1FEF2FEF3FE0B301E4
:104A7000A201C4010E94BE50F82E882399F0D501EE
:104A800014964D915D916D917C911797411551054B
:104A90006105710549F093018201C4010E94BE5075
:104AA000811102C0F12C29C0D50114964D925D925E
:104AB0006D927C921797332051F0D301C201019679
:104AC000A11DB11DF40180839183A283B383F501FD
:104AD00085899689A789B08D892B8A2B8B2B69F4C0
:104AE000D50155964D925D926D927C925897119694
:104AF0008C911197806811968C938F2D2C960FB600
:104B0000F894DEBF0FBECDBFDF91CF911F910F9103
:104B1000FF90EF90DF90CF90BF90AF909F908F90DD
:104B20007F906F905F904F903F900895FC0123819C
:104B300021110C945E71089561E0FC0180810C9458
:104B400071428EBD0DB407FEFDCF08958FEF8EBD6F
:104B50000DB407FEFDCF8EB508950F931F93CF932D
:104B6000DF938B010E94DB43EB01F0DF8F3F49F0C5
:104B70000E94DB436C1B7D0B60177107B0F380E074
:104B800001C081E0DF91CF911F910F910895CF92E5
:104B9000DF92EF92FF921F93CF93DF9300D01F928B
:104BA000CDB7DEB76C01162FFC019281892F806A88
:104BB00086958CBD90FD03C081E0963009F480E0BD
:104BC0008DBD60E0F601808129833A834B835C834D
:104BD0000E9471426CE271E0C601BFDF812F8064E8
:104BE000B0DF88E1E82EF12C5C814B813A8129818C
:104BF000DA01C9010E2C04C0B695A7959795879543
:104C00000A94D2F729833A834B835C839ADFF8E0D6
:104C1000EF1AF10829813A814B815C8188EFE8160F
:104C20008FEFF80629F7112321F0183021F08FEFCC
:104C300003C085E901C087E884DF1C3009F486DF02
:104C400010E084DFF601838387FF04C01F3F11F06B
:104C50001F5FF7CF0F900F900F900F90DF91CF91C4
:104C60001F91FF90EF90DF90CF9008950F931F93C7
:104C7000CF93DF93EC0189018C81833039F089E097
:104C8000440F551F661F771F8A95D1F79A01AB0114
:104C900068E1CE017CDF882311F086E02FC08EEF23
:104CA0008EBD80E090E00DB407FEFDCFF801E80F67
:104CB000F91F20812EBD0DB407FEFDCF21812EBD31
:104CC0000296811522E0920771F70DB407FEFDCF21
:104CD0008FEF37DF8FEF35DF39DF8B838F718530D3
:104CE00029F083E18983CE0127DF09C068E572E0FE
:104CF000CE0133DF182F811106C087E18983CE01F1
:104D00001BDF10E00FC020E030E0A9016DE0CE0114
:104D10003EDF811103C01ADF882311F086E1EECF58
:104D2000CE010ADF812FDF91CF911F910F9108955E
:104D3000EF92FF920F931F93CF93DF93EC017901D2
:104D40008C81833039F089E0440F551F661F771F2F
:104D50008A95D1F79A01AB0161E1CE0118DF882372
:104D600011F084E013C00E94DB438B01EFDE8B83E4
:104D70008F3F49F40E94DB43601B710B6D32714021
:104D8000A8F381E103C08E3F31F08FE08983CE012B
:104D9000D3DE80E019C08FEF8EBDF701D701A1509F
:104DA000BE4F0DB407FEFDCF9EB591938EBDEA17A1
:104DB000FB07B9F70DB407FEFDCF8EB58C93C6DEA9
:104DC000C5DECE01B9DE81E0DF91CF911F910F9159
:104DD000FF90EF9008951F920F920FB60F9211243B
:104DE0000BB60F922F933F934F936F937F938F93B5
:104DF0009F93EF93FF934091C6002091500B309109
:104E0000510BC90101968F7799276091520B7091D0
:104E1000530B8617970741F0F901E053F54F408394
:104E20009093510B8093500BFF91EF919F918F9135
:104E30007F916F914F913F912F910F900BBE0F90EB
:104E40000FBE0F901F9018958FEF9FEF0E94524654
:104E50008FEF9FEF0E9452468FEF9FEF0C945246C8
:104E60000C9457460E9457468FEF9FEF0E94524680
:104E70008FEF9FEF0E9452468FEF9FEF0C945246A8
:104E8000CF93DF93CCE4DBE0FE018491882341F0F3
:104E90009091C00095FFFCCF8093C6003196F5CF6E
:104EA000E0E0FBE08491882341F09091C00095FF01
:104EB000FCCF8093C6003196F5CF8091C00085FF6E
:104EC000FCCF8AE08093C600FE018491ECE4FBE015
:104ED000882349F09091C00095FFFCCF8093C600D5
:104EE00031968491F5CF40918B1250918C12609144
:104EF0008D1270918E1288EF9AE00E944C50409172
:104F00008F1250919012609191127091921285EFD0
:104F10009AE00E944C5040919312509194126091EB
:104F200095127091961282EF9AE00E944C50409137
:104F30009712509198126091991270919A128FEE77
:104F40009AE00E944C508091C00085FFFCCF8AE01F
:104F50008093C600FE018491ECE4FBE0882349F0D5
:104F60009091C00095FFFCCF8093C600319684914C
:104F7000F5CFE5EDFAE08491882341F09091C000EF
:104F800095FFFCCF8093C6003196F5CF8091C0008D
:104F900085FFFCCF8AE08093C600FE018491ECE49B
:104FA000FBE0882349F09091C00095FFFCCF8093EF
:104FB000C60031968491F5CF409122125091231270
:104FC00060912412709125128CEC9AE00E944C5052
:104FD0004091261250912712609128127091291247
:104FE00089EC9AE00E944C5040912A1250912B1269
:104FF00060912C1270912D1286EC9AE00E944C5018
:1050000040912E1250912F126091301270913112F6
:1050100083EC9AE00E944C508091C00085FFFCCF49
:105020008AE08093C600FE018491ECE4FBE08823D3
:1050300049F09091C00095FFFCCF8093C600319657
:105040008491F5CFE5EAFAE08491882341F09091CC
:10505000C00095FFFCCF8093C6003196F5CF8091BC
:10506000C00085FFFCCF8AE08093C600FE018491DA
:10507000ECE4FBE0882349F09091C00095FFFCCF61
:105080008093C60031968491F5CF4091AD12509136
:10509000AE126091AF127091B0128CE99AE00E944A
:1050A0003B504091B1125091B2126091B312709185
:1050B000B41289E99AE00E943B504091B512509198
:1050C000B6126091B7127091B81286E99AE00E9408
:1050D0003B504091B9125091BA126091BB1270913D
:1050E000BC1283E99AE00E943B508091C00085FF8A
:1050F000FCCF8AE08093C600FE018491ECE4FBE0E3
:10510000882349F09091C00095FFFCCF8093C600A2
:1051100031968491F5CFEEE5FAE08491882341F051
:105120009091C00095FFFCCF8093C6003196F5CFDB
:105130008091C00085FFFCCF8AE08093C600FE010D
:105140008491ECE4FBE0882349F09091C00095FF46
:10515000FCCF8093C60031968491F5CF40911A120E
:1051600050911B1260911C1270911D1285E59AE0FE
:105170000E944C5040911E1250911F1260912012BB
:105180007091211282E59AE00E944C508091C000FB
:1051900085FFFCCF8AE08093C600FE018491ECE499
:1051A000FBE0882349F09091C00095FFFCCF8093ED
:1051B000C60031968491F5CFEFE9F9E08491882318
:1051C00041F09091C00095FFFCCF8093C6003196CE
:1051D000F5CF8091C00085FFFCCF8AE08093C600A8
:1051E000FE018491ECE4FBE0882349F09091C0003B
:1051F00095FFFCCF8093C60031968491F5CF409106
:10520000361250913712609138127091391286E936
:1052100099E00E944C5040913A1250913B1260919B
:105220003C1270913D1283E999E00E944C504091EC
:10523000321250913312609134127091351280E91C
:1052400099E00E943B5040911612509117126091C4
:105250001812709119128DE899E00E944C504091FB
:1052600012125091131260911412709115128AE863
:1052700099E00E944C5040910E1250910F12609193
:1052800010127091111287E899E00E944C508091A1
:10529000C00085FFFCCF8AE08093C600FE018491A8
:1052A000ECE4FBE0882349F09091C00095FFFCCF2F
:1052B0008093C60031968491F5CFE5E7F9E08491BB
:1052C000882341F09091C00095FFFCCF8093C600E9
:1052D0003196F5CF8091C00085FFFCCF8AE08093A6
:1052E000C600FE018491ECE4FBE0882349F0909134
:1052F000C00095FFFCCF8093C60031968491F5CF16
:105300004091F0175091F1176091F2177091F317D7
:105310008CE699E00E944C504091F4175091F5179B
:105320006091F6177091F71789E699E00E944C504A
:105330004091F8175091F9176091FA177091FB1787
:1053400086E699E00E944C508091C00085FFFCCF1A
:105350008AE08093C600FE018491ECE4FBE08823A0
:1053600049F09091C00095FFFCCF8093C600319624
:105370008491F5CFE8E5F9E08491882341F090919C
:10538000C00095FFFCCF8093C6003196F5CF809189
:10539000C00085FFFCCF8AE08093C600FE018491A7
:1053A000ECE4FBE0882349F09091C00095FFFCCF2E
:1053B0008093C60031968491F5CF4091630250915D
:1053C000640260916502709166028EE499E00E9429
:1053D0004C502DEB37E346E05EE360910A0270919A
:1053E0000B0280910C0290910D020E94FABEAB015B
:1053F000BC018BE499E00E944C502DEB37E346E072
:105400005EE360915F027091600280916102909111
:1054100062020E9491B2AB01BC0188E499E00E9453
:105420004C508091C00085FFFCCF8AE08093C6007D
:10543000FE018491ECE4FBE0882349F09091C000E8
:1054400095FFFCCF8093C60031968491F5CFE5E3BC
:10545000F9E08491882341F09091C00095FFFCCF42
:105460008093C6003196F5CF8091C00085FFFCCFB8
:105470008AE08093C6004091D70F5091D80F609179
:10548000D90F7091DA0F81E399E00E944C5080911E
:10549000C00085FFFCCF8AE08093C600FE018491A6
:1054A000ECE4FBE0882349F09091C00095FFFCCF2D
:1054B0008093C60031968491F5CFE0E2F9E08491C3
:1054C000882341F09091C00095FFFCCF8093C600E7
:1054D0003196F5CF8091C00085FFFCCF8AE08093A4
:1054E000C6004091F30F5091F40F6091F50F709149
:1054F000F60F8CE199E00E944C508091C00085FF2E
:10550000FCCF8AE08093C600FE01C491ECE4FBE08E
:10551000CC2349F08091C00085FFFCCFC093C6002A
:105520003196C491F5CFEBE0F9E08491882341F006
:105530009091C00095FFFCCF8093C6003196F5CFC7
:105540008091C00085FFFCCF8AE08093C600409127
:10555000A40A5091A50A6091A60A7091A70A87E053
:1055600099E00E944C508091C00085FFFCCF8AE0FA
:105570008093C600EAE3F6E08191882339F09091A8
:10558000C00095FFFCCF8093C600F6CF6091C60A9D
:105590007091C70A072E000C880B990B0E94BC451E
:1055A0008091C00085FFFCCF8AE08093C600DF9128
:1055B000CF910895EF92FF921F93CF93DF937C01D9
:1055C000C62FD72F142F160FF701808191810E94CB
:1055D000ABBD8993F701808191810196918380838E
:1055E0001C13F2CFDF91CF911F91FF90EF900895A0
:1055F000EF92FF921F93CF93DF937C01C62FD72F9B
:10560000142F160F6991F701808191810E94B3BD1B
:10561000F701808191810196918380831C13F2CFE1
:10562000DF91CF911F91FF90EF9008950F931F93FB
:10563000CF93DF93CDB7DEB768970FB6F894DEBF90
:105640000FBECDBF80E390E3A0E3B0E08D839E83E7
:10565000AF83B88704E610E0188F0F8B44E0BE01DB
:105660006B5F7F4FCE014796C3DF40E16BE872E18D
:10567000CE014796BDDF40E162E272E1CE0147967E
:10568000B7DF40E16DEA72E1CE014796B1DF44E059
:105690006AE172E1CE014796ABDF44E06EE172E170
:1056A000CE014796A5DF44E066E372E1CE0147965E
:1056B0009FDF44E06AE372E1CE01479699DF44E060
:1056C00062E372E1CE01479693DF44E066E172E166
:1056D000CE0147968DDF44E062E172E1CE0147964C
:1056E00087DF44E06EE072E1CE01479681DF4CE057
:1056F00060EF77E1CE0147967BDF88EC90E09E8BF0
:105700008D8B1C8A1B8A1A8A198A8CED90E0988BE3
:105710008F8783E290E09E878D871C861B8642E000
:10572000BE016B5E7F4FCE01479662DF42E0BE0155
:105730006D5E7F4FCE0147965BDF42E0BE016F5E3C
:105740007F4FCE01479654DF42E0BE01615F7F4F3D
:10575000CE0147964DDF42E0BE01635F7F4FCE0131
:10576000479646DF42E0BE01655F7F4FCE01479618
:105770003FDF44E063E672E0CE01479639DF44E064
:105780006AE072E0CE01479633DF44E06FE572E0F5
:10579000CE0147962DDF44E067ED7FE0CE014796CE
:1057A00027DF44E063EF7FE0CE01479621DF44E04E
:1057B00064EA7AE0CE0147961BDF42E066E87BE0D0
:1057C000CE01479615DF42E064E87BE0CE014796C4
:1057D0000FDF42E06FE57BE0CE01479609DF42E054
:1057E00066EC7AE0CE01479603DF42E062EA7AE0B7
:1057F000CE014796FDDE80E290E09A87898742E0FD
:10580000BE01675F7F4FCE014796F2DE86E590E3EB
:10581000A8E3B0E089839A83AB83BC83188F0F8B96
:1058200044E0BE016F5F7F4FCE014796E1DEECE4BE
:10583000FBE08491882341F09091C00095FFFCCF5C
:105840008093C6003196F5CFE7EFF8E08491882386
:1058500041F09091C00095FFFCCF8093C600319637
:10586000F5CF8091C00085FFFCCF8AE08093C60011
:1058700068960FB6F894DEBF0FBECDBFDF91CF9113
:105880001F910F910895AF92BF92CF92DF92EF9246
:10589000FF920F931F93CF93DF93CDB7DEB7E097BF
:1058A0000FB6F894DEBF0FBECDBF80E1EDE6F2E0AB
:1058B000DE01919601900D928A95E1F780E1EDE786
:1058C000F2E0DE01519601900D928A95E1F780E1B8
:1058D000EDE8F2E0DE01119601900D928A95E1F774
:1058E000DE0191966BE872E1AE014F5E5F4F22E2FE
:1058F00032E1CE0101965C018DEA92E18E010F5CEE
:105900001F4FCD90DD90ED90FD90FB01C192D192A3
:10591000E192F192BF01FA01C190D190E190F19032
:10592000AF01F901C192D192E192F1929F01F5018B
:10593000C190D190E190F1905F01FC01C192D192B0
:10594000E192F192CF01A017B107D9F60E94158319
:1059500080E090E0AAEFB3E480931A1290931B12B8
:10596000A0931C12B0931D1280931E1290931F12CD
:10597000A0932012B0932112109236121092371277
:10598000109238121092391280E29EE4A0E0B0E04A
:105990008093321290933312A0933412B093351245
:1059A00010923A1210923B1210923C1210923D1239
:1059B00080E090E0A0EAB1E4809316129093171271
:1059C000A0931812B09319128DEC9CECACECBEE3D2
:1059D0008093121290931312A0931412B093151285
:1059E00080E090E0A0EAB0E480930E1290930F1252
:1059F000A0931012B09311121092F8171092F91789
:105A00001092FA171092FB171092F4171092F517D4
:105A10001092F6171092F7171092F0171092F117D4
:105A20001092F2171092F31788EC90E09093A10A6D
:105A30008093A00A10929F0A10929E0A10929D0ACB
:105A400010929C0A8CED90E090939B0A80939A0AA6
:105A500083E290E09093990A8093980A1092970AB3
:105A60001092960A8AE999E9A1EBB1E48093630266
:105A700090936402A0936502B093660285E894EF68
:105A8000A0E1BEE380930A0290930B02A0930C0264
:105A9000B0930D0280E190E7A9E5B4E480935F0242
:105AA00090936002A0936102B09362020E942CA2C4
:105AB00080E090E0A0E8BFE38093000290930102B1
:105AC000A0930202B093030280E090E8A3E2B4E462
:105AD0008093D70F9093D80FA093D90FB093DA0F7C
