:100000000C94E00C0C94110D0C94110D0C94110D2A
:100010000C94110D0C94110D0C94110D0C94110DE8
:100020000C94110D0C94110D0C94110D0C94110DD8
:100030000C94110D0C94110D0C94110D0C94110DC8
:100040000C94110D0C9451790C94110D0C94110D0C
:100050000C94110D0C94110D0C94E25B0C94EC407B
:100060000C94110D0C941B290C94110D0C94110D72
:100070000C94110D0C94110D0C94110D0C94110D88
:100080000C94110D0C94110D0C94110D0C94110D78
:100090000C94110D0C94110D0C94110D0C94110D68
:1000A0000C94110D0C94110D0C94110D0C94110D58
:1000B0000C94110D0C94110D0C94110D0C94110D48
:1000C0000C94110D0C94110D0C94110D0C94183FFF
:1000D0000C94EF3E0C94110D0C94110D0C94110D19
:1000E0000C94110D473B4A3B393B3D3B433B813B25
:1000F0004E3B523B583B5C3B603B663B6A3B6E3B36
:10010000813B743B783B7C3B08400D4012401C40D7
:1001100026409F403040384040404A4054405E4076
:100120006D4077409F4081408B4095404A5C575CD2
:10013000735C805C9A5CA75CC15CC35C084AD73B7B
:100140003BCE016E84BCBFFDC12F3D6C74319ABDA6
:1001500056833DDA3D00C77F11BED9E4BB4C3E91CA
:100160006BAAAABE000000803F05A84CCDB2D44EB9
:10017000B93836A9020C50B9918688083CA6AAAABB
:100180002ABE000000803F004E414E494E4954595E
:10019000494E46CDCCCC3D0AD7233C17B7D1387752
:1001A000CC2B329595E6241FB14F0A000020410068
:1001B00000C84200401C4620BCBE4CCA1B0E5AAEB2
:1001C000C59D7400407A10F35A00A0724E180900C1
:1001D00010A5D4E80000E87648170000E40B5402AC
:1001E0000000CA9A3B000000E1F5050000809698E7
:1001F00000000040420F000000A086010000001037
:100200002700000000E80300000000640000000078
:10021000000A00000000000100000000002C76D859
:1002200088DC674F0823DFC1DFAE59E1B1B796E53F
:10023000E3E453C63AE651997696E8E6C28426EBA3
:10024000898C9B62ED407C6FFCEFBC9C9F40F2BAB6
:10025000A56FA5F490055A2AF75C936B6CF9676D4E
:10026000C11BFCE0E40D47FEF520E6B500D0ED90A3
:100270002E0300943577050080841E080000204E70
:100280000A000000C80C333333330F986E12831109
:1002900041EF8D2114893BE65516CFFEE6DB18D1E0
:1002A000844B381BF77C1D901DA4BBE424203284B2
:1002B000725E228100C9F124ECA1E53D27536C65F3
:1002C00065702E2E2E002F005344207072696E74BC
:1002D000696E67206279746520004E6F7420534404
:1002E000207072696E74696E67002E0044656C65DB
:1002F00074696F6E206661696C65642C2046696C58
:10030000653A200046696C652064656C65746564B7
:100310003A002E006F70656E206661696C65642C12
:100320002046696C653A200042656420646F6E6502
:100330002E0020423A0020453A00543A00426564BB
:100340002048656174696E672E00486F74656E643D
:10035000206F6666736574733A002200556E6B6E8B
:100360006F776E20636F6D6D616E643A2022004876
:100370006F74656E64206F6666736574733A007A95
:100380005F6D696E3A2000795F6D696E3A20007882
:100390005F6D61783A2000785F6D696E3A20005A8F
:1003A0003A00593A0020436F756E7420583A200085
:1003B000453A005A3A00593A00583A004649524DD7
:1003C000574152455F4E414D453A4D61726C696EE1
:1003D0002056313B20537072696E7465722F6772BC
:1003E000626C206D617368757020666F722067653E
:1003F0006E36204649524D574152455F55524C3A50
:10040000687474703A2F2F7777772E6D656E6465F8
:100410006C2D70617274732E636F6D2050524F5447
:100420004F434F4C5F56455253494F4E3A312E3051
:10043000204D414348494E455F545950453A334455
:10044000205072696E746572204558545255444567
:10045000525F434F554E543A320A002042403A0010
:1004600020403A00202F0020423A00202F006F6BDE
:1004700020543A002569206D696E2C20256920736F
:10048000656300456E642066696C65206C697374F1
:1004900000426567696E2066696C65206C697374DB
:1004A000004E6F206D6F76652E00526573756D6915
:1004B0006E67207072696E74005761697420666F90
:1004C0007220757365722E2E2E002020506C616E86
:1004D0006E657242756666657242797465733A201C
:1004E000002046726565204D656D6F72793A200077
:1004F0004E6F76203139203230313900436F6D70C4
:10050000696C65643A2000284E6F6E652900207C76
:1005100020417574686F723A20004E6F7620313931
:1005200020323031392031363A35323A35380020F0
:100530004C61737420557064617465643A200031B5
:100540002E302E30004D61726C696E200020536F8A
:100550006674776172652052657365740020576117
:10056000746368646F67205265736574002042721B
:100570006F776E206F757420526573657400204527
:10058000787465726E616C20526573657400506F8B
:1005900077657255700073746172740053544F50D4
:1005A0005045442E20005072696E74657220737439
:1005B0006F707065642064756520746F2065727259
:1005C0006F72732E20466978207468652065727298
:1005D0006F7220616E6420757365204D3939392042
:1005E000746F20726573746172742E202854656D67
:1005F00070657261747572652069732072657365C8
:10060000742E2053657420697420616674657220AD
:1006100072657374617274696E6729006F6B004E46
:100620006F204C696E65204E756D6265722077692A
:10063000746820636865636B73756D2C204C6173FF
:1006400074204C696E653A20004E6F2043686563E4
:100650006B73756D2077697468206C696E65206EA8
:10066000756D6265722C204C617374204C696E65E7
:100670003A2000636865636B73756D206D69736DF7
:10068000617463682C204C617374204C696E653A08
:1006900020004C696E65204E756D6265722069732D
:1006A000206E6F74204C617374204C696E65204E0F
:1006B000756D6265722B312C204C617374204C690E
:1006C0006E653A20004D31313000256920686F7524
:1006D0007273202569206D696E7574657300446FAF
:1006E0006E65207072696E74696E672066696C65EC
:1006F0000053544F505045442E20005072696E7480
:1007000065722073746F7070656420647565207401
:100710006F206572726F72732E204669782074683C
:1007200065206572726F7220616E6420757365203A
:100730004D39393920746F20726573746172742E6B
:10074000202854656D7065726174757265206973D7
:100750002072657365742E2053657420697420615E
:10076000667465722072657374617274696E67294C
:10077000006F6B004E6F204C696E65204E756D6288
:100780006572207769746820636865636B73756D43
:100790002C204C617374204C696E653A20004E6FBA
:1007A00020436865636B73756D2077697468206C8E
:1007B000696E65206E756D6265722C204C61737474
:1007C000204C696E653A2000636865636B73756DD4
:1007D000206D69736D617463682C204C61737420A3
:1007E0004C696E653A20004C696E65204E756D62ED
:1007F0006572206973206E6F74204C617374204C95
:10080000696E65204E756D6265722B312C204C61CE
:100810007374204C696E653A20004572726F723AAB
:10082000004D313130006572726F722077726974D9
:10083000696E6720746F2066696C6500656E64730D
:10084000746F7073206869743A205A00205A3A0015
:10085000656E6473746F7073206869743A20590010
:1008600020593A00656E6473746F70732068697400
:100870003A20580020583A00656E6473746F7073A4
:10088000206869743A20006563686F3A00446F6EAF
:100890006520736176696E672066696C652E006FEE
:1008A0006B004D32390053657474696E6773205361
:1008B000746F726564005A323A00457874656E64EC
:1008C0006572204F66667365743A0059323A004586
:1008D0007874656E646572204F66667365743A005D
:1008E00058323A005365636F6E64657279204D61CA
:1008F0007820506F733A00204400204900202020C7
:100900004D33303120500050494420736574746970
:100910006E67733A00205A0020590020204D323073
:1009200036205800486F6D65206F666673657420C9
:10093000286D6D293A00204500205A0020580020DB
:10094000420020540020204D3230352053004164B5
:1009500076616E636564207661726961626C65734D
:100960003A20533D4D696E20666565647261746519
:1009700020286D6D2F73292C20543D4D696E2074F5
:10098000726176656C2066656564726174652028A5
:100990006D6D2F73292C20423D6D696E696D756DEB
:1009A000207365676D656E742074696D6520286DB0
:1009B00073292C20583D6D6178696D756D205859EB
:1009C000206A65726B20286D6D2F73292C20205AA8
:1009D0003D6D6178696D756D205A206A65726B2076
:1009E000286D6D2F73292C2020453D6D6178696D30
:1009F000756D2045206A65726B20286D6D2F7329F7
:100A00000020540020204D323034205300416363D5
:100A1000656C65726174696F6E3A20533D61636302
:100A2000656C65726174696F6E2C20543D726574DB
:100A30007261637420616363656C65726174696F70
:100A40006E00204500205A0020590020204D3230F1
:100A5000312058004D6178696D756D204163636583
:100A60006C65726174696F6E20286D6D2F73322909
:100A70003A00204500205A0020590020204D3230F5
:100A8000332058004D6178696D756D206665656429
:100A9000726174657320286D6D2F73293A002045AB
:100AA00000205A0020590020204D39322058005390
:100AB000746570732070657220756E69743A0053A6
:100AC000746F7265642073657474696E67732072E5
:100AD00065747269657665640048617264636F6409
:100AE00065642044656661756C742053657474692F
:100AF0006E6773204C6F61646564006563686F3A6C
:100B00000000002100240027002A002D00300033BF
:100B10000001010000040107010A01000022002574
:100B20000028002B002E00310034000201000005D7
:100B30000108010B01000020002300260029002CE1
:100B4000002F003200000100000301060109010529
:100B5000050505070508080808020202020A0A0836
:100B6000080404040401010101010101010303035C
:100B70000303030303040707070C0C0C0C0C0C0CF9
:100B80000C0202020206060606060606060B0B0B00
:100B90000B0B0B0B0B01021020200808102040103B
:100BA0002040800201020108040201010204081031
:100BB000204080804020100804020180040201804F
:100BC0004020100804020108040201010204081078
:100BD000204080010204081020408000000A0B021F
:100BE000090C0D0E080703040100000000000000BE
:100BF00000000000000000000000000000000000F5
:100C000000000000000000121110000000000000B1
:100C100000000000000000000000000000000000D4
:100C20000053442063617264206F6B006F70656EC7
:100C3000526F6F74206661696C656400766F6C75C5
:100C40006D652E696E6974206661696C6564004526
:100C500072726F723A00534420696E697420666143
:100C6000696C006563686F3A002200656E71756596
:100C7000696E672022006563686F3A004D32340068
:100C80004D3233202573006175746F25692E67001E
:100C9000436172642072656D6F76656400436172B2
:100CA0006420696E73657274656400504944204124
:100CB00075746F74756E652066696E6973686564B6
:100CC000212050757420746865204B702C204B696E
:100CD00020616E64204B6420636F6E7374616E7468
:100CE0007320696E746F20436F6E666967757261F9
:100CF00074696F6E2E6800504944204175746F749A
:100D0000756E65206661696C6564212074696D6526
:100D10006F75740020403A006F6B20543A006F6B7F
:100D200020423A00504944204175746F74756E65D5
:100D3000206661696C6564212054656D706572611F
:100D40007475726520746F6F206869676800204B46
:100D5000643A2000204B693A2000204B703A200072
:100D600020436C617369632050494420002054750E
:100D70003A2000204B753A2000206D61783A20001F
:100D8000206D696E3A200020643A2000206269617B
:100D9000733A20006563686F3A0048656174696E54
:100DA00067206661696C656400202D20496E76615C
:100DB0006C6964206578747275646572206E756DF7
:100DC00062657220210070012C0190012701B001A1
:100DD0002201C0011D01F0011801100213013002AF
:100DE0000E016002090190020401C002FF0000032D
:100DF000FA004003F5008003F000D003EB0020046C
:100E0000E6007004E100E004DC004005D700C00506
:100E1000D2004006CD00D006C8008007C3003008CD
:100E2000BE00F008B900C009B400B00AAF00B00BB2
:100E3000AA00D00CA500000EA000500F9B00C0100F
:100E400096005012910000148C00C0158700B01756
:100E50008200B0197D00D01B7800001E7300402076
:100E60006E0090226900F024640040275F00902902
:100E70005A00E02B5500102E500020304B0010324D
:100E80004600E033410090353C00103737007038A1
:100E90003200A0392D00B03A2800A03B2300603C6E
:100EA0001E00103D1900903D1400103E0F00703ED2
:100EB0000A00C03E0500003F00004572723A204D16
:100EC000415854454D50003A204578747275646518
:100ED00072207377697463686564206F66662E207C
:100EE0004D415854454D502074726967676572656D
:100EF000642021004572723A204D494E54454D50B0
:100F0000003A20457874727564657220737769744D
:100F100063686564206F66662E204D494E54454DCA
:100F2000502074726967676572656420210045729C
:100F3000723A204D415854454D502042454400548A
:100F4000656D706572617475726520686561746540
:100F50006420626564207377697463686564206FD8
:100F600066662E204D415854454D50207472696775
:100F70006765726564202121004572723A204D49EF
:100F80004E54454D50204245440054656D70657285
:100F9000617475726520686561746564206265645A
:100FA000207377697463686564206F66662E204DD0
:100FB000494E54454D502074726967676572656487
:100FC000202121004572726F723A000000614300D7
:100FD00000614300007A43000048C20000000000A6
:100FE00000000048656174696E6720646F6E652E4D
:100FF0000020573A0020453A00543A004865617491
:10100000696E672E2E2E002200656E717565696E01
:101010006720220020746F6F206C6F6E67206578E8
:1010200074727573696F6E2070726576656E746523
:10103000640020636F6C6420657874727573696FE7
:101040006E2070726576656E746564006563686FA6
:101050003A0024F4D43050C38E20C2A24017828BB1
:101060007011127A910D816CD90AA861E108C758F4
:101070006607615143061E4B5D05C145A7041A4131
:101080001104093D9803713931034036DB026533A1
:101090009102D4305402802E1D02632CEE01752A79
:1010A000C501B028A001102781018F2564012B24E0
:1010B0004B01E0223401AC211F018D200D01801F66
:1010C000FC00841EED00971DDF00B81CD200E61B5B
:1010D000C600201BBC00641AB200B219A8000A198D
:1010E000A0006A189900D117910040178B00B5161F
:1010F000840031167E00B31579003A157300C714C9
:101100006F0058146A00EE136600881363002513FD
:101110005E00C7125B006C12570015125400C1111B
:10112000510070114F0021114B00D61049008D1055
:1011300047004610440002104200C00F4000800FDC
:101140003E00420F3C00060F3B00CB0E3800930ED2
:1011500037005C0E3500270E3400F30D3200C10D50
:101160003100900D3000600D2E00320D2D00050D68
:101170002C00D90C2B00AE0C2900850C29005C0C2E
:101180002700350C27000E0C2600E80B2400C40BAA
:101190002400A00B23007D0B23005A0B2100390BE8
:1011A0002100180B2000F80A1F00D90A1E00BB0AF4
:1011B0001E009D0A1D00800A1D00630A1C00470ACC
:1011C0001B002C0A1B00110A1A00F7091A00DD097E
:1011D0001900C4091900AB091900920917007B090D
:1011E0001800630917004C0916003609160020097B
:1011F00016000A091500F5081500E0081400CC08CF
:101200001400B8081400A4081400900813007D0806
:1012100012006B0813005808120046081200340828
:101220001100230811001208110001081100F00735
:101230001000E0071000D0071000C0071000B00732
:101240000F00A107100091070E0083070F0074071D
:101250000F0065070E0057070E0049070E003B07F9
:101260000D002E070E0020070D0013070D000607C6
:101270000D00F9060C00ED060D00E0060C00D4068A
:101280000C00C8060C00BC060C00B0060C00A4063E
:101290000B0099060C008D060B0082060B007706EA
:1012A0000B006C060B0061060A0057060B004C068B
:1012B0000A0042060A0038060A002E060A00240622
:1012C0000A001A060A001006090007060A00FD05B2
:1012D0000900F4050900EB050900E2050900D9053C
:1012E0000900D0050900C7050900BE050900B505BC
:1012F0000800AD050800A50509009C050800940537
:1013000008008C050800840508007C0508007405A9
:1013100008006C050700650508005D050700560517
:1013200008004E050700470507004005080038057E
:101330000700310507002A050700230507001C05E3
:101340000600160507000F05070008050600020540
:101350000700FB040600F5040700EE040600E8049D
:101360000600E2040700DB040600D5040600CF04F3
:101370000600C9040600C3040600BD040600B70445
:101380000600B1040500AC040600A6040600A00493
:1013900005009B04060095040500900406008A04DD
:1013A000050085040500800406007A040500750424
:1013B0000500700405006B04050066040500610467
:1013C00005005C04050057040500520405004D04A7
:1013D000050048040500430405003E0404003A04E7
:1013E000050035040500300404002C040500270422
:1013F0000400230405001E0404001A04040016045B
:101400000500110404000D0404000904050004048F
:10141000040000040400FC030400F8030400F403C7
:101420000400F0030400EC030400E8030400E403F8
:101430000400E0030400DC030400D8030400D40328
:101440000400D0030400CC030400C8030300C50358
:10145000030024F404D9201BC40C5C0E9804C409B6
:101460005F0265077101F405F900FB04B30048044D
:101470008700C10369005803550003034500BE02FD
:101480003A008402310053022A0029022500040296
:101490002000E4011C00C8011900AF0117009801E9
:1014A000140084011300710110006101100051014A
:1014B0000E0043010D0036010B002B010B00200133
:1014C0000B00150109000C01090003010800FB00D5
:1014D0000800F3000800EB000700E4000600DE004F
:1014E0000600D8000600D2000600CC000500C700A8
:1014F0000500C2000500BD000400B9000400B500ED
:101500000400B1000400AD000400A9000400A5001F
:101510000300A20003009F0004009B00030098004A
:1015200003009500020093000300900003008D006B
:1015300002008B0003008800020086000200840085
:101540000300810002007F0002007D0002007B009A
:1015500002007900020077000100760002007400AA
:10156000020072000100710002006F0002006D00B5
:1015700001006C0002006A000100690002006700BF
:1015800001006600010065000100640002006200C5
:10159000010061000100600001005F0002005D00C9
:1015A00001005C0001005B0001005A0001005900CD
:1015B00001005800010057000100560001005500CD
:1015C00001005400010053000000530001005200CC
:1015D000010051000100500001004F0001004E00C9
:1015E00000004E0001004D0001004C0001004B00C6
:1015F00000004B0001004A000100490001004800C2
:1016000000004800010047000100460000004600BD
:1016100001004500000045000100440001004300B6
:1016200000004300010042000000420001004100B0
:10163000000041000100400001003F0000003F00A9
:1016400001003E0000003E0001003D0000003D00A2
:1016500001003C0000003C0000003C0001003B0099
:1016600000003B0001003A0000003A000100390090
:101670000000390001003800000038000000380088
:10168000010037000000370001003600000036007E
:101690000000360001003500000035000000350074
:1016A0000100340000003400000034000100330069
:1016B000000033000000330001003200000032005F
:1016C0000000320001003100000031000000310054
:1016D00001003000000030000000300001002F0049
:1016E00000002F0000002F0000002F0001002E003E
:1016F00000002E0000002E0001002D0000002D0033
:1017000000002D0000002D0001002C0000002C0026
:1017100000002C0000002C0001002B0000002B001A
:1017200000002B0000002B0001002A0000002A000E
:1017300000002A0000002A00010029000000290002
:1017400000002900000029000000290001002800F5
:1017500000002800000028000000280000002800E9
:1017600001002700000027000000270000002700DC
:1017700000002700010026000000260000002600CF
:1017800000002600000026000100250000002500C2
:1017900000002500000025000000250000002500B5
:1017A00001002400000024000000240000002400A8
:1017B000000024000100230000002300000023009B
:1017C000000023000000230000002300000023008D
:1017D0000100220000002200000022000000220080
:1017E0000000220000002200010021000000210072
:1017F0000000210000002100000021000000210065
:101800000000210001002000000020000000200056
:101810000000200000002000000020000000200048
:101820000000200001001F0000001F0000001F003A
:1018300000001F0000001F0000001F0000001F002C
:1018400001001E0000001E0000001E0000001E001F
:10185000000057726974696E6720746F2066696C46
:10186000653A20002E006F70656E206661696C65B8
:10187000642C2046696C653A20002E006F70656EFE
:10188000206661696C65642C2046696C653A2000AD
:1018900046696C652073656C6563746564002053EC
:1018A000697A653A200046696C65206F70656E65DF
:1018B000643A20002E006F70656E206661696C6569
:1018C000642C2046696C653A20007C3C3E5E2B3DD2
:1018D0003F2F5B5D3B2C2A225C004B494C4C45441E
:1018E0002E20005072696E7465722068616C746598
:1018F000642E206B696C6C28292063616C6C6564B4
:10190000210053544F505045442E20005072696EB0
:101910007465722073746F707065642064756520DF
:10192000746F206572726F72732E2046697820740E
:101930006865206572726F7220616E6420757365D0
:10194000204D39393920746F207265737461727457
:101950002E202854656D70657261747572652069FA
:10196000732072657365742E20536574206974202A
:1019700061667465722072657374617274696E67F2
:101980002900473238205800000048C200000000FB
:10199000000000000000A0400000204100000040C6
:1019A000008089430000614300007A43FFFFFF523B
:1019B0006573656E643A20006F6B000096ABADAC4A
:1019C00011241FBECFEFD1E2DEBFCDBF00E00CBFC0
:1019D0001AE0A0E0B2E0E2E8FBE701E00BBF02C0E2
:1019E00007900D92AE3BB107D9F728E1AEEBBAE014
:1019F00001C01D92A33EB207E1F71CE0CFEDDCE091
:101A000000E006C021970109802FFE010E942ABC38
:101A1000CE3DD10780E00807A9F70E94389D0C94BD
:101A2000B0BD0C9400002F923F924F925F926F9244
:101A30007F928F929F92AF92BF92CF92DF92EF925E
:101A4000FF920F931F93CF93DF93CDB7DEB7C155AE
:101A5000D1090FB6F894DEBF0FBECDBF2DB73EB78C
:101A60002E963FAF2EAF2E978091A00B882341F08A
:101A70000E94618410922110109220101092A00BED
:101A800087E40E94E130F82E882309F470C20E9496
:101A900007310E94B7B96430710509F450C04CF4A5
:101AA00062307105C9F10CF03FC077FF1EC00C9485
:101AB000A0236A35710509F451C234F46C31710503
:101AC00009F48DC00C94A0236B35710509F44AC24A
:101AD0006C35710511F00C94A02360E87FE483EC71
:101AE00097EC0E94F69A0C94A0238091830B8111AD
:101AF0000C94A02370E8A72E7FE4B72E73ECC72EBA
:101B000077ECD72E86017501A6019501C601B501B6
:101B10000E944B770C94A0238091830B811104C009
:101B20000E94279A81E007C08091830B811107C032
:101B30000E94279A80E00E9446920C94E4278DEB45
:101B400092E00E94694D80E50E94E130882339F0DF
:101B50000E9407310E94BDB94B015C0103C0812C7A
:101B6000912C540183E50E94E130882361F00E94AA
:101B7000073120E030E04AE754E40E94D1AC0E94F3
:101B8000BDB94B015C010E9443790E94E040860E82
:101B9000971EA81EB91E0E94E0406093941870938F
:101BA000951880939618909397180E94E0406815B6
:101BB00079058A059B0510F00C94A0230E9418500B
:101BC0008091A00B882331F00E9461841092211033
:101BD000109220100E9416900E949A4DE6CF80919C
:101BE000760290917702A0917802B0917902809369
:101BF000D30A9093D40AA093D50AB093D60A8091C1
:101C00001702909118029093D20A8093D10A84E629
:101C100090E090931802809317020E94E040609336
:101C2000941870939518809396189093971881E064
:101C30000E9442588091441890914518A0914618EE
:101C4000B091471880939C1890939D18A0939E186C
:101C5000B0939F188091481890914918A0914A1804
:101C6000B0914B188093A0189093A118A093A2183C
:101C7000B093A31880914C1890914D18A0914E18D4
:101C8000B0914F188093A4189093A518A093A6180C
:101C9000B093A7188091501890915118A0915218A4
:101CA000B09153188093A8189093A918A093AA18DC
:101CB000B093AB18109276021092770210927802CD
:101CC0001092790288E50E94E130882311F080E0CB
:101CD0000AC089E50E94E1308111F9CF8AE50E94AE
:101CE000E13091E089278093000281110C94A323B5
:101CF0008AE50E94E13081110C94A32380910002B7
:101D0000811106C088E50E94E130882309F47CC077
:101D10001091D01881E090E090934902809348029E
:101D2000111180E08093D01880E090E00E947C8CBC
:101D30008091441890914518A0914618B091471889
:101D40008093F90F9093FA0FA093FB0FB093FC0FC1
:101D50001093D01880E090E00E947C8C8091441811
:101D600090914518A0914618B09147188093FC17A0
:101D70009093FD17A093FE17B093FF178091000278
:101D800081110C942D2489E50E94E13081110C947D
:101D90002D248091481890914918A0914A18B0912B
:101DA0004B188093001890930118A0930218B093D9
:101DB000031880914C1890914D18A0914E18B09135
:101DC0004F188093041890930518A0930618B093A9
:101DD00007188091501890915118A0915218B09105
:101DE00053188093081890930918A0930A18B09379
:101DF0000B1810928C1810928D1810928E18109249
:101E00008F1881E08093B5188091000281110C94A5
:101E1000372489E50E94E13081110C9437248091A8
:101E2000000281110C943D248AE50E94E130811169
:101E30000C943D2488E50E94E1308823D1F00E9473
:101E4000FC30672B682B692BA1F00E940731209191
:101E5000D1183091D2184091D3185091D4180E94C3
:101E600058B860934418709345188093461890931F
:101E7000471889E50E94E1308823D1F00E94FC30A8
:101E8000672B682B692BA1F00E9407312091D51890
:101E90003091D6184091D7185091D8180E9458B850
:101EA000609348187093491880934A1890934B1880
:101EB0008AE50E94E1308823D1F00E94FC30672B34
:101EC000682B692BA1F00E9407312091D91830911D
:101ED000DA184091DB185091DC180E9458B86093D2
:101EE0004C1870934D1880934E1890934F186CE4D3
:101EF00078E184E498E10E944585109208131092DD
:101F0000071380E00E9442588091D30A9091D40A2E
:101F1000A091D50AB091D60A809376029093770269
:101F2000A0937802B09379028091D10A9091D20A5D
:101F300090931802809317020E94E04060939418D7
:101F400070939518809396189093971810929F0B02
:101F500010929E0B10929D0B0C94A0231092B0181F
:101F60000C94A02381E08093B0180C94A0238DE4FE
:101F70000E94E130882311F40C9452230E9407310F
:101F80000E94B7B96837710511F40C94DC1C0CF091
:101F9000FDC06032710509F41AC70CF096C06631B5
:101FA000710509F4C4C4ACF56231710511F40C94E7
:101FB000D41A44F577FF02C00C94A0236230710557
:101FC0000CF4D5C16131710511F00C94A02381EAA4
:101FD00094E00E94694D5F9847988A989FB7F8945B
:101FE000809108018E7F809308019FBF9FB7F8946E
:101FF000809108018B7F809308019FBF8D98129874
:102000000C94A0236431710509F43AC40CF406C29F
:102010008AC46A31710509F4CCC43CF46831710595
:1020200009F4A3C40CF48BC4B6C46C31710509F473
:1020300022C50CF4CCC46E31710509F44EC56F3164
:10204000710511F00C94A0230E94E0406093FB0AFC
:102050007093FC0A8093FD0A9093FE0A0091F70AA0
:102060001091F80A2091F90A3091FA0A601B710B5D
:10207000820B930B28EE33E040E050E00E941CB846
:10208000CA01B9012CE330E040E050E00E941CB8E6
:102090007F936F933F932F9384E794E09F938F9365
:1020A0008E010F5F1F4F1F930F930E9451B2E6E7FF
:1020B000FCE09491EDB7FEB738960FB6F894FEBFEA
:1020C0000FBEEDBFE6E7FCE0F3C66836710509F424
:1020D00023C744F56235710511F40C94CB1A74F4DE
:1020E0006035710511F40C949B1A14F00C949F1A2E
:1020F0006A32710509F4F5C60C94A02364357105A4
:1021000011F40C94D41A14F40C94CF1A653571059B
:1021100011F40C940E1B6C35710511F40C94251BF5
:102120000C94A0236D36710509F4BFC794F46A3688
:10213000710511F40C946B1A0CF40EC76B36710513
:1021400011F00C94A02310921C1210921B120C94EC
:10215000A0236337710511F40C94E01B4CF4623733
:10216000710511F00C94A023E9EBF3E00C94091C29
:102170006537710511F40C94EE1B6737710511F08A
:102180000C94A023E5E8F3E00C94E61C653F31E0F5
:10219000730711F40C9451200CF066C06E3C71056D
:1021A00011F40C943B1E84F5693C710511F40C94F8
:1021B000871D94F46C38710509F4BDC66E3B71053A
:1021C00009F479C76937710511F00C94A02381E0F7
:1021D0000E9442580C94A0236C3C710511F40C949D
:1021E000BD1D14F00C94DD1D6B3C710511F00C94B9
:1021F000A02377ECC72E72E1D72E02E713E0E4E0CC
:10220000FE2EF00E0C94AE1D6D3281E0780711F4B5
:102210000C943C1F8CF46C3D710511F40C941E1F42
:102220006D3D710511F40C942D1F6A3D710511F07F
:102230000C94A0230C94581E6F32E1E07E0711F439
:102240000C94162014F40C940220603921E07207DB
:1022500011F40C944E20643F714011F00C94A023B3
:102260000E94FB2C0C94A023653F43E0740711F4FB
:102270000C94E5210CF047C0603A93E0790709F42B
:10228000DAC584F4673FF1E07F0711F40C9459201C
:1022900014F40C9454206D35724011F40C945C20AD
:1022A0000C94A023693E43E0740711F40C944D2173
:1022B000ECF4673E734011F00C94A0231092830B52
:1022C00010922D128091981890919918A0919A18B7
:1022D000B0919B188093840B9093850BA093860BF1
:1022E000B093870B0E949F9A0C94A023633FE3E076
:1022F0007E0711F40C946F21643F734011F40C9429
:10230000AA210C94A0236D3F23E0720711F40C94D2
:10231000732284F4673F43E0740711F40C943C2269
:1023200014F40C942022693F734011F40C94582249
:102330000C94A0236730E4E07E0711F40C944C2346
:102340003CF46E3F734011F40C9421230C94A023B1
:10235000683034E0730711F40C944F2369307440F3
:1023600011F00C94A0230E945C8E0C94A02389EBA6
:1023700094E00E94694D80E50E94E130882339F0A5
:102380000E9407310E94BDB94B015C0103C0812C42
:10239000912C540183E50E94E130882361F00E9472
:1023A000073120E030E04AE754E40E94D1AC0E94BB
:1023B000BDB94B015C010E9443790E94E0406093EB
:1023C0009418709395188093961890939718811489
:1023D0009104A104B104A9F00E94E040860E971E6A
:1023E000A81EB91E0E94E040681579058A059B0564
:1023F00010F40C94E5250C94F7250E9416900E9489
:102400009A4D0E9418508091A00B8823B1F30E942E
:1024100061841092211010922010EFCF83E50E946A
:10242000E130882341F00E9407310E94B7B97093D0
:10243000D80A6093D70A83E790E190937210809353
:10244000711081E090E09093161280931512109213
:1024500018121092171240E050E0BA0187E790E19D
:102460000E94E68580917110909172102BE1FC0121
:102470003496DE01159601900D922A95E1F7FC0144
:10248000828193819C838B8388ED92E09A838983F8
:10249000BE016F5F7F4F8CE394E00E94FA80CE0113
:1024A00001960E94C435F09017122F2C309018120C
:1024B00080917A10882309F446C08250823030F42B
:1024C0008FE280932310109224103DC060918310FE
:1024D00070918410809185109091861040E00E9448
:1024E0000C36882381F120918710F0E22F9F900114
:1024F0001124C901885C924F892B29F180E090E07A
:10250000E0E05EE2DC01A20FB31FA85CB24F4C9189
:10251000403289F08830910539F4AE2FB0E0A35EE7
:10252000BF4E16965C93EF5FAE2FB0E0A35EBF4E3A
:1025300016964C93EF5F01968B30910519F7F0E0FA
:10254000E35EFF4E16828091D70A9091D80A892BBC
:10255000F9F46EE973E0CE0101960E94973ECE0138
:1025600001960E946929CE0101960E94333E69EAD4
:1025700073E0CE0101960E94973ECE0101960E9423
:102580006929CE0101960E94333E01E010E011C09E
:1025900065EB73E0CE0101960E94973ECE01019655
:1025A0000E946929CE0101960E94333E60EC73E0DF
:1025B000E0CF6CEC73E0CE0101960E94973ECE0115
:1025C00001960E946029CE0101960E94333E4AE0A6
:1025D000B801CE0101960E94643ECE0101960E9490
:1025E0006029CE0101960E94333E63E075E0CE0182
:1025F00001960E94973ECE0101960E946029CE016D
:1026000001960E94333E0E9454296BED73E0CE0187
:1026100001960E94973ECE0101960E946029CE014C
:1026200001960E94333E4AE0B801CE0101960E9415
:10263000643ECE0101960E946029CE0101960E945F
:10264000333E63E075E0CE0101960E94973ECE01D5
:1026500001960E946029CE0101960E94333E0E949D
:1026600054290F5F1F4F0730110509F0A2CF812CAD
:10267000912C00E010E0FA942896FFAE289768EDC0
:10268000662E62E0762E8214930409F48EC023E74E
:1026900030E1309372102093711082E090E09093BB
:1026A00016128093151228968FAD2897881990E0FE
:1026B000909318128093171240E050E0BA0187E718
:1026C00090E10E94E6858091711090917210FC015A
:1026D0003496DE0115962BE101900D922A95E1F7D3
:1026E000FC01828193819C838B837A826982BE0103
:1026F0006F5F7F4F8CE394E00E94FA80CE010196D9
:102700000E94C43563E270E1CE01CB960E94973EF1
:1027100080914B10811141C021968EAD9FAD2197C4
:10272000892BD9F1BE01655C7F4FCE0101960E94D5
:102730008F3EEDB6FEB68D819E812C0121E0421ABE
:102740005108EDB7FEB7E81BF90B0FB6F894FEBFC2
:102750000FBEEDBF2DB73EB72F5F3F4F690100970A
:1027600029F0C114D10411F00C94FC25F601CF011D
:102770008C199D098415950514F40C940D26DD24FF
:10278000D3940FB6F894FEBE0FBEEDBECE010196F7
:102790000E94333ED1100C941526CE01CB960E9498
:1027A000333E8FEF881A980A6ECF6AEE73E0CE013F
:1027B00001960E94973ECE0101960E946029CE01AB
:1027C00001960E94333E6091D70A7091D80A4AE080
:1027D000CE0101960E94643ECE0101960E946029BE
:1027E000CE0101960E94333E0E9454298091D70A5F
:1027F0009091D80A019646E0489F9001499F300D7C
:10280000112420173107F4F063E074E0CE01019643
:102810000E94973ECE0101960E946929CE01019641
:102820000E94333E60E174E0CE0101960E94973E23
:10283000CE0101960E946929CE0101960E94333E85
:102840000C94A0236EE174E0CE0101960E94973EA5
:10285000CE0101960E946929CE0101960E94333E65
:102860006BE274E0CE0101960E94973ECE01019684
:102870000E946929CE0101960E94333E0C94A02348
:10288000E1E9F4E08491882341F09091C00095FF44
:10289000FCCF8093C6003196F5CF8091C00085FFB4
:1028A000FCCF8AE08093C600109216121092151287
:1028B00040E050E0BA0186E590E10E94E6858BE1B8
:1028C000E6E5F0E1DE01159601900D928A95E1F7BB
:1028D00080915410909155109C838B8388ED92E0E9
:1028E0009A838983BE016F5F7F4F8CE394E00E94DF
:1028F000FA80CE0101960E94C435E3E8F4E08491A9
:10290000882341F09091C00095FFFCCF8093C600D2
:102910003196F5CF8091C00085FFFCCF8AE080938F
:10292000C6000C94A0230E94FB450C94A023109297
:10293000211010922010109222100C94A0230091CC
:10294000880B1091890B0C5F1F4F6AE270E0C80181
:102950000E945EBD009719F0FC013197108261E082
:10296000C8010E947C820C94A023809122108823AD
:1029700031F081E090E090932110809320100E942C
:10298000E0406093F70A7093F80A8093F90A9093F5
:10299000FA0A0C94A02380912010909121100197A5
:1029A00011F00C94A02310922110109220100C947E
:1029B000A02380912210882311F40C94A02383E596
:1029C0000E94E13081110C9407270C94A023809180
:1029D0002210882309F439C0E8ECF2E084918823BE
:1029E00041F09091C00095FFFCCF8093C6003196D6
:1029F000F5CF60914E1070914F10809150109091D2
:102A000051104AE00E94D442E6ECF2E0849188231F
:102A100041F09091C00095FFFCCF8093C6003196A5
:102A2000F5CF60910C1270910D1280910E12909161
:102A30000F124AE00E94D4428091C00085FFFCCF73
:102A40008AE08093C6000C94A023EAEDF2E0849122
:102A5000882341F09091C00095FFFCCF8093C60081
:102A60003196F5CF8091C00085FFFCCF8AE080933E
:102A7000C6000C94A0238091880B9091890B6AE288
:102A800070E004960E945EBD8C01892BE1F02091DC
:102A9000A10B3091A20B40E6429FC001439F900DD5
:102AA00011246EE470E08C54944F0E945EBD60E28D
:102AB00070E00E945EBD01969093890B8093880B15
:102AC000F801319710828091880B9091890B60E01A
:102AD00004960E947C820C94A0238091221088236B
:102AE00011F40C94A0230E9461848091880B909132
:102AF000890B6AE270E004960E945EBD8C01892B0E
:102B0000E1F02091A10B3091A20B40E6429FC00161
:102B1000439F900D11246EE470E08C54944F0E94FA
:102B20005EBD60E270E00E945EBD01969093890BED
:102B30008093880BF801319710820091880B1091D7
:102B4000890B480194E0890E911C80912210882302
:102B500011F40C94A02381EF91E10E94F38710926D
:102B60002110109220101D8218861C821B8288ED75
:102B700092E09A83898382E590E19093721080932A
:102B80007110F80184818F3209F090C06FE270E01B
:102B9000C4010E945EBD8C010F5F1F4F5AE0552E8D
:102BA0009E012F5F3F4F39010115110509F484C0C3
:102BB0006FE270E0C8010E945EBD6C01009709F4ED
:102BC0007CC00817190708F078C05C01A01AB10A88
:102BD000A501B801CE0180960E9487BDE0E2F0E039
:102BE000EC0FFD1FEA0DFB1D10828E01005E1F4FD2
:102BF000F8018191882339F09091C00095FFFCCFB6
:102C00008093C600F6CF8091C00085FFFCCF509224
:102C1000C60060917110709172106115710511F00C
:102C20006C5F7F4F21E0AE01405E5F4FCE010596A5
:102C30000E948E8B811132C0E4E1F3E084918823FD
:102C400071F09091C00095FFFCCF8093C600319643
:102C5000F5CF9091C00095FFFCCF8093C600F8019E
:102C600081918F018111F5CFE2E1F3E08491882316
:102C700041F09091C00095FFFCCF8093C600319643
:102C8000F5CF8091C00085FFFCCF8AE08093C6001D
:102C9000CE0101960E94C4350C94A023709272104C
:102CA0006092711086010F5F1F4F7ECF83E790E126
:102CB00090937210809371108401609171107091E3
:102CC00072106115710511F06C5F7F4F18A21BA285
:102CD00022E0A801CE0180960E948E8B8823F1F01D
:102CE000CE0180960E94F8438823C1F06CA57DA593
:102CF0008EA59FA541E00E940C36882379F0E8A9B3
:102D000020E2E29FF0011124E85CF24F309731F0AD
:102D100085EE80831BA20E94CC35F82ECE018096D2
:102D20000E940189FF2009F1E4E0F3E08491882307
:102D300041F09091C00095FFFCCF8093C600319682
:102D4000F5CFF8018191882339F09091C00095FF6B
:102D5000FCCF8093C600F6CF10924E1010924F1009
:102D600010925010109251102CC0ECEEF2E08491B1
:102D7000882341F09091C00095FFFCCF8093C6005E
:102D80003196F5CFF8018191882339F09091C000F8
:102D900095FFFCCF8093C600F6CFEAEEF2E0849177
:102DA000882341F09091C00095FFFCCF8093C6002E
:102DB0003196F5CF8091C00085FFFCCF8AE08093EB
:102DC000C600CE0101960E94C4350C94A0238091C8
:102DD000201090912110019721F40E9443790E94C4
:102DE00061840091880B1091890B0C5F1F4F6AE280
:102DF00070E0C8010E945EBD009719F0FC01319798
:102E0000108261E0C8010E947C8280912210882398
:102E100031F081E090E090932110809320100E9487
:102E2000E0406093F70A7093F80A8093F90A909350
:102E3000FA0A0C94A0238091880B9091890B6AE286
:102E400070E005960E945EBD8C01892BE1F0209117
:102E5000A10B3091A20B40E6429FC001439F900D11
:102E600011246EE470E08C54944F0E945EBD60E2C9
:102E700070E00E945EBD01969093890B8093880B51
:102E8000F801319710828091880B9091890B21E095
:102E900020931F1060E005960E947C820C94A02372
:102EA0008091C00085FFFCCF9093C600319694912D
:102EB0009111F6CFF8018191882339F09091C000EB
:102EC00095FFFCCF8093C600F6CF8091C00085FFB0
:102ED000FCCF8AE08093C600C8010E948B4D0C9401
:102EE000A02383E50E94E130882311F40C94A023F1
:102EF0000E9407310E94B7B98B0180E50E94E13042
:102F0000882311F40C94A0230F3F110509F010F44D
:102F10000C9418270C94A02388E690E00E94828EDF
:102F200081110C94A0236FEF7FEF8FEF9FEF0E9432
:102F3000E6760C94A02383E50E94E130882311F407
:102F40000C94A0230E9407310E94B7B97093CB184C
:102F50006093CA180C94A02389E690E00E94828EA8
:102F600081110C94A023EEE6F4E08491882341F0D3
:102F70009091C00095FFFCCF8093C6003196F5CFAD
:102F8000E091B21224E0E29FF0011124EF5DFD4ECA
:102F9000608171818281938141E00E945B43EBE615
:102FA000F4E08491882341F09091C00095FFFCCF1C
:102FB0008093C6003196F5CFE091B212F0E0EE0FAB
:102FC000FF1FE453F74E60817181072E000C880BC0
:102FD000990B0E9486B241E00E945B43E7E6F4E071
:102FE0008491882341F09091C00095FFFCCF80939D
:102FF000C6003196F5CF60911D1270911E1280911E
:103000001F129091201241E00E945B43E4E6F4E03D
:103010008491882341F09091C00095FFFCCF80936C
:10302000C6003196F5CF6091CA187091CB18072E63
:10303000000C880B990B0E9486B241E00E945B4312
:10304000E0E6F4E08491882341F09091C00095FF80
:10305000FCCF8093C6003196F5CFE091B212F0E03C
:10306000EF56FD4E608170E080E090E00E944943A1
:10307000EBE5F4E08491882341F09091C00095FF46
:10308000FCCF8093C6003196F5CF6091901270E02E
:1030900080E090E00E9449438091C00085FFFCCF12
:1030A0008AE08093C6000C94E4278FEF9FEF0E9484
:1030B000765F0C94A0238DE393E00E94694D83E535
:1030C0000E94E130882361F00E9407310E94B7B965
:1030D0007093CB186093CA1881E0809301020FC0EF
:1030E00082E50E94E130882351F00E9407310E945E
:1030F000B7B97093CB186093CA18109201020E945E
:10310000E0402B013C016091CA187091CB18072E4A
:10311000000C880B990B0E9486B2FF24F394209137
:103120001D1230911E1240911F12509120120E94C8
:10313000A3BA18160CF0F12CF092BE0A81E080932D
:103140001D108AE3C82E83E0D82E96E3A92E93E0C3
:10315000B92E22E3822E23E0922E3AE0F32E8091C4
:10316000BE0A6091CA187091CB18882309F487C1F0
:10317000072E000C880B990B0E9486B220911D121D
:1031800030911E1240911F12509120120E94A3BA3A
:1031900018160CF08EC10E94E040DC01CB018419AE
:1031A0009509A609B709893E9340A105B10508F420
:1031B00055C1E091D01844E0E49FF0011124EF5D87
:1031C000FD4E6081718182819381F6012491EAE351
:1031D000F3E0222349F03091C00035FFFCCF20936B
:1031E000C60031962491F5CF42E00E945B43F50181
:1031F0008491E6E3F3E0882349F09091C00095FFC5
:10320000FCCF8093C60031968491F5CF6091D018A1
:1032100070E080E090E00E944943F4018491E2E391
:10322000F3E0882349F09091C00095FFFCCF809394
:10323000C60031968491F5CF60911D1270911E12D7
:1032400080911F129091201241E00E945B43809177
:10325000C00085FFFCCFF092C6000E94E0402B0129
:103260003C01CE018F5B9F4F0E945F356CE374E0A1
:10327000CE018F5B9F4F0E945C3D8111EAC06CE3E1
:1032800074E0CE0180960E94973E69E374E0CE011F
:1032900001960E94973EAE01405E5F4FBE016F5F98
:1032A0007F4FCE018F5B9F4F0E94153CCE01019650
:1032B0000E94333ECE0180960E94333E6CE374E060
:1032C000CE0180960E94973E6BE374E0CE0101969A
:1032D0000E94973EAE01405E5F4FBE016F5F7F4F21
:1032E000CE018F5B9F4F0E94153CCE0101960E943C
:1032F000333ECE0180960E94333EBE016F5B7F4F0E
:10330000CE0101960E948F3E20E030E040E2BE01F7
:103310006F5F7F4FCE01CB960E94F734CE010196AE
:103320000E94333E6DE374E0CE01CB960E945C3D7B
:10333000882309F450C0BE016F5B7F4FCE01019618
:103340000E948F3E21E030E040E2BE016F5F7F4F80
:10335000CE0180960E94F734CE0101960E94333E42
:1033600021E030E040E050E0BE01605E7F4FCE01E2
:1033700001960E94AB3E62E474E0CE0101960E9489
:103380005C3D382ECE0101960E94333E3320D1F0B1
:103390002CA13DA141E050E0BE01605E7F4FCE0117
:1033A00001960E94AB3E89819A81009719F00E9494
:1033B00060B103C060E070E0CB018B01CE010196EB
:1033C0000E94333E1093CB180093CA18CE0180960A
:1033D0000E94333E3AC064E474E0CE018F5B9F4F9D
:1033E0000E945C3D882319F00E945C8E2EC06AE426
:1033F00074E0CE018F5B9F4F0E945C3D882319F0E3
:103400000E947A9B22C060E574E0CE018F5B9F4FE3
:103410000E945C3D811119C025E030E040E050E0A1
:10342000BE016F5B7F4FCE0101960E94AB3E69E506
:1034300074E0CE0101960E945C3D382ECE010196CB
:103440000E94333E31100E94FB8ECE01CB960E942B
:10345000333ECE018F5B9F4F0E94333E0E94185037
:103460008091A00B882331F00E946184109221107A
:10347000109220100E9416900E949A4D70CE072E36
:10348000000C880B990B0E9486B220911D1230917E
:103490001E1240911F12509120120E9480B287FF8D
:1034A00008C080910102811104C08091F411811142
:1034B00072CE10921D1088E293E00E94694D0E9426
:1034C000E0406093941870939518809396189093A9
:1034D00097180C94A02383E50E94E130882319F10A
:1034E0000E94073120E030E0A9010E9480B287FDF0
:1034F0000FC00E94073120E030E04FE753E40E9404
:10350000A3BA181644F00E9407310E94B7B905C04B
:1035100060E070E002C06FEF70E070931C12609387
:103520001B120C94A0238FEF90E090931C128093B9
:103530001B120C94A023999AA19A0C94A023999AF7
:103540006FE574E0CE0101960E94973ECE01019690
:103550000E946929CE0101960E94333E68EE73E015
:1035600080E090E00E94A840A19861E088E00E947D
:10357000763F61E08BE00E94763F61E08AE00E9446
:10358000763F61E085E00E94763F61E089E00E943D
:10359000763F0C94A0231092B4180C94A02381E0E1
:1035A0008093B4180C94A02383E50E94E130882313
:1035B000A1F00E94073120E030E04AE754E40E9485
:1035C000D1AC0E94BDB960934A0270934B028093C4
:1035D0004C0290934D020C94A02388E50E94E130A8
:1035E00081110C941B2789E50E94E13081110C9414
:1035F0001B278AE50E94E13081110C941B2785E48A
:103600000E94E13081110C941B270E9443798D9A0E
:10361000129A81E00E94F4780C94A02383E50E9422
:10362000E1300E94073120E030E04AE754E40E9494
:10363000D1AC0E94BDB9609390187093911880939B
:103640009218909393180C94A02382E50E94E13085
:10365000882329F00E9407314B015C0106C0812CB0
:10366000912C10E8A12E1FE3B12E22E733E02C9617
:103670003FAF2EAF2C9708E718E187EC92E129962F
:103680009FAF8EAF2997B7EE2B2EB2E13B2E2A9635
:103690001FAE2A972C96EEADFFAD2C9781912C96FC
:1036A000FFAFEEAF2C970E94E130882309F46CC085
:1036B0002A96FFAD2A97F33009F05BC00E940731CC
:1036C000A50194010E9446B92B013C0120E030E0A5
:1036D00040EA51E40E9480B287FF45C0A3019201F5
:1036E000F80160817181828193810E9446B96B01EA
:1036F0007C019B01AC016091B3127091B412809176
:10370000B5129091B6120E94D1AC6093B31270932F
:10371000B4128093B5129093B612A7019601299620
:10372000EEADFFAD299760817181828193810E9406
:10373000D1AC2996EEADFFAD29976083718382836A
:103740009383F10160817181828193810E9484B2AF
:10375000A70196010E94D1AC0E94BDB9F10160831E
:10376000718382839383F8014082518262827382E3
:103770000BC00E940731A50194010E9446B9F801CF
:1037800060837183828393832A96FFAD2A97FF5FBC
:103790002A96FFAF2A970C5F1F4F29962EAD3FAD9B
:1037A00029972C5F3F4F29963FAF2EAF299734E0E2
:1037B000230E311CF43009F06DCF0E94FB2CC0C7E2
:1037C000ECEBF3E08491882309F4BAC79091C00030
:1037D00095FFFCCF8093C6003196F4CF0091880B03
:1037E0001091890B0B5F1F4F6AE270E0C8010E94C5
:1037F0005EBD009719F0FC0131971082C8010E944C
:103800008B4D9EC79091C00095FFFCCF8093C60062
:10381000319684918111F6CF6091441870914518CA
:10382000809146189091471842E00E945B43E6EB76
:10383000F3E08491882341F09091C00095FFFCCF84
:103840008093C6003196F5CF609148187091491861
:1038500080914A1890914B1842E00E945B43E3EB41
:10386000F3E08491882341F09091C00095FFFCCF54
:103870008093C6003196F5CF60914C1870914D1829
:1038800080914E1890914F1842E00E945B43E0EB0C
:10389000F3E08491882341F09091C00095FFFCCF24
:1038A0008093C6003196F5CF6091501870915118F1
:1038B000809152189091531842E00E945B43E5EAD0
:1038C000F3E08491882341F09091C00095FFFCCFF4
:1038D0008093C6003196F5CF2FB7F89460913418D5
:1038E0007091351880913618909137182FBF0E942B
:1038F00086B2209178183091791840917A185091B9
:103900007B180E9446B942E00E945B43E2EAF3E082
:103910008491882341F09091C00095FFFCCF809363
:10392000C6003196F5CF2FB7F89460913818709192
:10393000391880913A1890913B182FBF0E9486B297
:1039400020917C1830917D1840917E1850917F18FD
:103950000E9446B942E00E945B43EFE9F3E08491A4
:10396000882341F09091C00095FFFCCF8093C60062
:103970003196F5CF2FB7F89460913C1870913D18AF
:1039800080913E1890913F182FBF0E9486B22091DF
:1039900080183091811840918218509183180E94AC
:1039A00046B942E00E945B438091C00085FFFCCF96
:1039B0008AE08093C600C4C680E00E944258C0C618
:1039C0009091C00095FFFCCF8093C600819181113A
:1039D000F7CF8091C00085FFFCCF8AE08093C600BE
:1039E000E7E9F3E08491882341F09091C00095FFCE
:1039F000FCCF8093C6003196F5CF659B03C0E6E708
:103A0000F3E009C0EBE7F3E006C09091C00095FF3A
:103A1000FCCF8093C60081918111F7CF8091C000C7
:103A200085FFFCCF8AE08093C600EFE8F3E0849145
:103A3000882341F09091C00095FFFCCF8093C60091
:103A40003196F5CF649B03C0E6E7F3E009C0EBE7EE
:103A5000F3E006C09091C00095FFFCCF8093C600B4
:103A600081918111F7CF8091C00085FFFCCF8AE062
:103A70008093C600E7E8F3E08491882341F09091B9
:103A8000C00095FFFCCF8093C6003196F5CF8091A2
:103A9000030181FD03C0E6E7F3E009C0EBE7F3E0D3
:103AA00006C09091C00095FFFCCF8093C600819125
:103AB0008111F7CF8091C00085FFFCCF8AE0809311
:103AC000C600EFE7F3E08491882341F09091C000B5
:103AD00095FFFCCF8093C6003196F5CF4B9B03C07A
:103AE000E6E7F3E009C0EBE7F3E006C09091C00021
:103AF00095FFFCCF8093C60081918111F7CF809113
:103B0000C00085FFFCCF8AE08093C60019C6F7EF9E
:103B1000CF2EF2E1DF2E02E713E0A4E0FA2EF00E42
:103B2000F80181918F010E94E130882349F00E94C1
:103B300007310E94BDB9F60160837183828393834C
:103B4000F4E0CF0ED11CF012EBCF0E94D36AF8C57F
:103B5000F4E0CF0ED11CF01609F4F2C5F801819102
:103B60008F010E94E130882399F30E940731F6010A
:103B70006083718382839383EBCF83E50E94E1307E
:103B8000882351F00E9407316093BF127093C012D6
:103B90008093C1129093C21284E50E94E130882381
:103BA00009F4CEC50E9407316093C3127093C4120A
:103BB0008093C5129093C612C3C583E50E94E1307D
:103BC000882351F00E9407316093DB127093DC125E
:103BD0008093DD129093DE1284E50E94E130882309
:103BE00051F00E9407316093DF127093E0128093CE
:103BF000E1129093E21282E40E94E130882361F0A6
:103C00000E9407310E94BDB96093D7127093D812F9
:103C10008093D9129093DA1288E50E94E1308823CC
:103C200051F00E9407316093BB127093BC128093D5
:103C3000BD129093BE128AE50E94E130882351F0B4
:103C40000E9407316093B7127093B8128093B91233
:103C50009093BA1285E40E94E130882309F470C57C
:103C60000E9407316093B3127093B4128093B5121F
:103C70009093B61265C551EDC52E58E1D52E02E7D9
:103C800013E063E0F62EF00EF80181918F010E949F
:103C9000E130882339F00E940731F6016083718397
:103CA00082839383F4E0CF0ED11CF012EDCF48C590
:103CB0008AED90E00E94828E811142C588E50E94C3
:103CC000E130882381F00091B21210E00E940731A8
:103CD000000F111F000F111FF801EF5FFF4E6083EF
:103CE00071838283938389E50E94E130882381F088
:103CF0000091B21210E00E940731000F111F000F57
:103D0000111FF801E75FFF4E608371838283938305
:103D10008AE50E94E130882381F00091B21210E020
:103D20000E940731000F111F000F111FF801EF5EF5
:103D3000FF4E6083718382839383E6E7FCE0849186
:103D4000882341F09091C00095FFFCCF8093C6007E
:103D50003196F5CFEFE6F3E08491882341F090911E
:103D6000C00095FFFCCF8093C6003196F5CF10922E
:103D7000B2128091B212823008F058C0EBEBF8E03A
:103D80008191882339F09091C00095FFFCCF8093FA
:103D9000C600F6CFE091B21224E0E29FF0011124B8
:103DA000EF5FFF4E608171818281938142E00E94CA
:103DB0005B430DE614E0F8018191882339F090917E
:103DC000C00095FFFCCF8093C600F6CFE091B21201
:103DD00034E0E39FF0011124E75FFF4E60817181C1
:103DE0008281938142E00E945B43F80181918F01BF
:103DF000882339F09091C00095FFFCCF8093C600D6
:103E0000F4CFE091B21224E0E29FF0011124EF5EC2
:103E1000FF4E608171818281938142E00E945B4309
:103E20008091B2128F5F8093B212A3CF8091C000B5
:103E300085FFFCCF8AE08093C60082C483E50E94A0
:103E4000E130882309F47CC40E9407310E94B7B98D
:103E5000709318026093170273C483E50E94E130E7
:103E6000882309F46DC40E9407310E94B7B970938A
:103E70003D0260933C0264C480E50E94E1308823E7
:103E800051F00E940731609336027093370280939D
:103E900038029093390289E40E94E130882381F04E
:103EA0000E9407312DEB37E346E05EE30E94D1AC80
:103EB00060930C0270930D0280930E0290930F0298
:103EC00084E40E94E130882381F00E9407312DEBC9
:103ED00037E346E05EE30E9446B960933202709396
:103EE0003302809334029093350283E40E94E130E0
:103EF000882351F00E9407316093020270930302FD
:103F000080930402909305020E940E54EFE6F4E0C1
:103F10008191882339F09091C00095FFFCCF809368
:103F2000C600F6CFE2E7F4E08191882339F0909162
:103F3000C00095FFFCCF8093C600F6CF609136029B
:103F400070913702809138029091390242E00E94CC
:103F50005B43E6E7F4E08191882339F09091C0005B
:103F600095FFFCCF8093C600F6CF2DEB37E346E0FC
:103F70005EE360910C0270910D0280910E029091AF
:103F80000F020E9446B942E00E945B43EAE7F4E078
:103F90008191882339F09091C00095FFFCCF8093E8
:103FA000C600F6CF2DEB37E346E05EE360913202C8
:103FB0007091330280913402909135020E94D1AC0D
:103FC00042E00E945B43EEE7F4E08191882339F000
:103FD0009091C00095FFFCCF8093C600F6CF609112
:103FE000020270910302809104029091050242E066
:103FF0000E945B438091C00085FFFCCF8AE08093E4
:10400000C6009EC383E50E94E130882319F00E9418
:10401000073103C060E070E0CB016093E31270935E
:10402000E4128093E5129093E6128AC385E40E941D
:10403000E130882341F00E9407310E94B7B98B011B
:1040400077FD0AC002C000E010E0812C912C86E1CF
:10405000A82E83E4B82E06C0812C912CBCE8AB2E90
:10406000B2E4BB2E83E50E94E130882321F00E9458
:1040700007314B015C0183E40E94E130882331F079
:104080000E9407310E94B7B99B0102C025E030E0D1
:10409000A801C501B4010E94275452C30E9443796C
:1040A0004FC30E94952F4CC30E940A2E0E941031CC
:1040B00047C30E947E2944C30E94437983E50E943E
:1040C000E130882341F00E9407310E94B7B9709314
:1040D0007F0260937E0280917E0290917F02823007
:1040E000910509F0BFC088E50E94E130882349F1BD
:1040F0000E9407314B015C010E94C38D9B01AC0102
:1041000060E070E0CB010E9457B89B01AC01C50193
:10411000B4010E94A3BA18161CF40E94073109C00A
:104120000E94C38D9B01AC0160E070E0CB010E9456
:1041300057B860937A0270937B0280937C029093CD
:104140007D0282E50E94E130882351F00E94073110
:104150006093AE127093AF128093B0129093B1122D
:10416000E6E7FCE08491882341F09091C00095FF40
:10417000FCCF8093C6003196F5CFEAE4F3E084915A
:10418000882341F09091C00095FFFCCF8093C6003A
:104190003196F5CFABEBCA2EA8E0DA2EF60181916D
:1041A000882339F09091C00095FFFCCF8093C60022
:1041B000F6CF6091011070910210809103109091E0
:1041C000041042E00E945B430DE614E0F801819187
:1041D000882339F09091C00095FFFCCF8093C600F2
:1041E000F6CF6091091070910A1080910B10909198
:1041F0000C1042E00E945B43F60181916F0188231D
:1042000039F09091C00095FFFCCF8093C600F4CFA9
:1042100060917A0270917B0280917C0290917D0284
:1042200042E00E945B43F80181918F01882339F0BD
:104230009091C00095FFFCCF8093C600F4CF6091B1
:104240000D1070910E1080910F109091101042E09F
:104250000E945B438091C00085FFFCCF8AE0809381
:10426000C60008C0049730F081E090E090937F0290
:1042700080937E021092B51880917E0290917F0209
:10428000909349028093480210928C1810928D18D6
:1042900010928E1810928F1853C283E50E94E1305D
:1042A000882309F44DC20E9407310E94B7B9709368
:1042B0008F0B60938E0B6230710534F081E090E0DB
:1042C00090938F0B80938E0B80918E0B90918F0B20
:1042D00097FF73CA10928F0B10928E0B6ECA82E5F5
:1042E0000E94E130882329F00E9407319B01AC0134
:1042F00004C020E030E040E85FE383E52F962FAF75
:104300002F9760963FAF609761964FAF6197629627
:104310005FAF62970E94E130882309F411C20E94C6
:1043200007312F962FAD2F9760963FAD609761961E
:104330004FAD619762965FAD62970E9446B96093F8
:10434000FD0F7093FE0F8093FF0F909300100E945B
:10435000FB2CF6C182E50E94E130882329F00E94FF
:1043600007319B01AC0104C020E030E040E85FE38E
:1043700083E52F962FAF2F9760963FAF609761969A
:104380004FAF619762965FAF62970E94E1308823DA
:1043900009F4D6C10E9407312F962FAD2F97609652
:1043A0003FAD609761964FAD619762965FAD629742
:1043B0000E9446B96093191070931A1080931B10D5
:1043C00090931C100E94FB2CBBC182E50E94E1303F
:1043D000882329F00E9407319B01AC0104C020E032
:1043E00030E040E85FE383E52F962FAF2F9760968C
:1043F0003FAF609761964FAF619762965FAF6297EC
:104400000E94E130882309F49BC10E9407312F9656
:104410002FAD2F9760963FAD609761964FAD619736
:1044200062965FAD62970E9446B96093CD0A709321
:10443000CE0A8093CF0A9093D00A0E94FB2C80C1B1
:1044400083E50E94E130882309F47AC10E94073194
:104450000E94B7B96F3F710509F02CF477FF05C0D2
:1044600060E070E002C06FEF70E070938B186093B3
:104470008A180E94FB2C64C183E50E94E1308823E6
:1044800009F45EC10E9407310E94B7B96536710513
:1044900034F46E3171052CF46EE170E002C064E614
:1044A00070E070938918609388180E94FB2C48C1B3
:1044B00083E50E94E130882309F442C10E9407315C
:1044C0000E94B7B96D3371052CF477FF05C060E029
:1044D00070E002C06CE370E07093CC0A6093CB0A8A
:1044E0000E94FB2C2DC183E50E94E130882309F452
:1044F00027C10E9407310E94B7B96115710569F59E
:104500008091C30A9091C40A9093CD188093CC18DF
:104510009093CF188093CE188091C10A9091C20ACF
:104520009093CB188093CA188091BF0A9091C00ACB
:1045300090931C1280931B121092291210922A122F
:1045400010922B1210922C128CE49DE49093300266
:1045500080932F020E94D35EF3C06130710569F52C
:104560008091C90A9091CA0A9093CD188093CC1873
:104570009093CF188093CE188091C70A9091C80A63
:104580009093CB188093CA188091C50A9091C60A5F
:1045900090931C1280931B121092291210922A12CF
:1045A00010922B1210922C128CE49DE49093300206
:1045B00080932F020E94D35EC3C062307105D9F48C
:1045C0001092CD181092CC181092CF181092CE18CD
:1045D0001092CB181092CA181092291210922A1217
:1045E00010922B1210922C128CE49DE490933002C6
:1045F00080932F02A5C06330710509F0A1C010920D
:10460000CD181092CC181092CF181092CE1810928C
:10461000CB181092CA181092291210922A121092D6
:104620002B1210922C128CE49DE490933002809314
:104630002F020E9443798D9A129A80E00E94F478AA
:104640007FC083E50E94E130882309F479C00E948D
:1046500007310E94B7B98B0184E50E94E1308823BD
:1046600029F00E9407310E94B7B902C06FEF7FEFB7
:104670000230110508F064C08091D01890E06817EE
:10468000790709F404C46F3FFFEF7F0709F4FFC304
:10469000CB010E941F65FBC30E947A9B51C00E9400
:1046A000FB8E4EC084E50E94E130882329F08FEF15
:1046B0009FEF0E941F6544C0E6E7FCE084918823D9
:1046C00041F09091C00095FFFCCF8093C6003196D9
:1046D000F5CFECE5F3E08491882341F09091C000A0
:1046E00095FFFCCF8093C6003196F5CF8091A10B4A
:1046F0009091A20B20E6289FF001299FF00D112434
:10470000EC54F44F8191882339F09091C00095FFCB
:10471000FCCF8093C600F6CFEAE5F3E084918823CE
:1047200041F09091C00095FFFCCF8093C600319678
:10473000F5CF8091C00085FFFCCF8AE08093C60052
:104740000E94779A41C46CE478E184E498E10E9485
:10475000458520E030E040EE50E460914C187091C7
:104760004D1880914E1890914F180E9458B8609340
:10477000A4187093A5188093A6189093A718609119
:10478000560270915702809158029091590260939D
:10479000760270937702809378029093790220E0FA
:1047A00030E040E752E40E9446B930EDC32E38E1D4
:1047B000D32E7B018C0128EA38E144EA58E160EA13
:1047C00078E18CE998E10E941B6B0E94437982E0BA
:1047D00090E00E94CD636CE478E184E498E10E946B
:1047E000458580914C1890914D18A0914E18B0912C
:1047F0004F188093A4189093A518A093A618B0936F
:10480000A71820E030E040E752E460917602709112
:10481000770280917802909179020E9446B97B01DB
:104820008C0128EA38E144EA58E160EA78E18CE951
:1048300098E10E941B6B1092760210927702109200
:104840007802109279020E94437981E090E090937F
:104850000813809307130C947E0E10920018109288
:10486000011810920218109203180C94D90E81E0CE
:1048700090E00E947C8C0C940F0F81E490E0909368
:104880003F0280933E0282E490E090934302809343
:10489000420283E190E0909341028093400281E0E4
:1048A00090E090930A138093091380930B13109256
:1048B0004C1810924D1810924E1810924F181092DA
:1048C00048181092491810924A1810924B1860918B
:1048D0007C1870917D1880917E1890917F180E94AD
:1048E000B7B94B015C018091801890918118A0911B
:1048F0008218B091831880937C1890937D18A093B0
:104900007E18B0937F186CE478E184E498E10E940B
:10491000458588EA99E10E94DB30EEEAF9E11491DD
:1049200020E030E040EC5FE30E94D1AC2B013C0181
:10493000612F110F770B880B990B0E9486B29B0198
:10494000AC01C301B2010E94D1AC6093A418709372
:10495000A5188093A6189093A71888EA99E10E9459
:10496000DB30EDEAF9E1149120E030E040EC5FE368
:104970000E94D1AC2B013C01612F110F770B880BEA
:10498000990B0E9486B29B01AC01C301B2010E9447
:10499000D1AC6093A0187093A1188093A218909343
:1049A000A31860915602709157028091580290911D
:1049B0005902609376027093770280937802909305
:1049C000790220E030E040E752E40E9446B920ED51
:1049D000C22E28E1D22E7B018C0128EA38E144EA7C
:1049E00058E160EA78E18CE998E10E941B6B0E9433
:1049F000437982E090E00E94CD6381E090E00E94E4
:104A0000CD636CE478E184E498E10E94458580916F
:104A10004C1890914D18A0914E18B0914F1880935A
:104A2000A4189093A518A093A618B093A7188091E6
:104A3000481890914918A0914A18B0914B1880934A
:104A4000A0189093A118A093A218B093A31820E0E7
:104A500030E040E752E460917602709177028091F5
:104A60007802909179020E9446B97B018C0128EA74
:104A700038E144EA58E160EA78E18CE998E10E9483
:104A80001B6B1092760210927702109278021092AD
:104A900079020E94437910929F0B10929E0B109204
:104AA0009D0B80919C1890919D18A0919E18B0919B
:104AB0009F188093441890934518A0934618B0937C
:104AC00047188091A0189091A118A091A218B091B8
:104AD000A3188093481890934918A0934A18B0934C
:104AE0004B188091A4189091A518A091A618B09188
:104AF000A71880934C1890934D18A0934E18B0931C
:104B00004F1860915202709153028091540290911B
:104B100055020E94B7B92B013C0182E090E00E944F
:104B20007C8CB401990C880B990B0E9486B260931F
:104B30007C1870937D1880937E1890937F1820E0E6
:104B400030E040E051E4609156027091570280914C
:104B50005802909159020E94D1AC60935202709316
:104B60005302809354029093550281E090E00E949A
:104B70007C8CB201550C880B990B0E9486B2609315
:104B800052027093530280935402909355028CE327
:104B900090E090933F0280933E028DE390E09093EB
:104BA0004302809342028EE090E090934102809312
:104BB000400210920A131092091310920B1382E014
:104BC00090E00E947C8C0C941A0F0E9418508091E7
:104BD000A00B882331F00E94618410922110109262
:104BE00020100E9416900E949A4D0C94F2118AEAAD
:104BF00094E00E94694DA4CD52018415950508F4F6
:104C00005C0169817A81A501C6010E9487BDF60118
:104C1000EA0DFB1D10820C94B613819187FD02C032
:104C20000C94B713D12C0C94C11360E370E1CE0146
:104C300001960E94973EBE016F5F7F4FCE01CB96DB
:104C40000E94FA3DCE0101960E94333ECE01CB96E2
:104C50000E94013C0F5F1F4F2091D70A3091D80A64
:104C6000F6E0F29FC001F39F900D11248017910789
:104C700014F00C94CD1306968017910714F40C943D
:104C8000CD134AEF4203B001439F700D1124600F12
:104C9000711F4AE0CE0180960E94643E6CEC73E086
:104CA000CE0101960E94973ECE01019609D3CE0116
:104CB00001960E94333EBE01605E7F4FCE01019699
:104CC0000E948F3ECE010196FBD2CE0101960E943A
:104CD000333E62E27AE0CE0101960E94973ECE0119
:104CE0000196EED2CE0101960E94333E21962EAD62
:104CF0003FAD2197A90146505109BE01655C7F4F28
:104D0000CE0101960E94AB3ECE0101960E94333E39
:104D1000CE01CB960E94013CBE01655C7F4FCE0167
:104D200001960E948F3ECE010196CAD2CE01019615
:104D30000E94333E69E075E0CE0101960E94973EE5
:104D4000CE010196BDD2CE0101960E94333EACD277
:104D50006BED73E0CE0101960E94973ECE01019665
:104D6000AFD2CE0101960E94333EBE01605E7F4FFE
:104D7000CE0101960E948F3ECE010196A1D2CE01B6
:104D800001960E94333E62E27AE0CE0101960E94D3
:104D9000973ECE01019694D2CE0101960E94333EF9
:104DA00063E270E1CE0101960E94973EBE016F5F03
:104DB0007F4FCE01CB960E94FA3DCE0101960E9414
:104DC000333ECE01CB960E94013CBE01655C7F4F15
:104DD000CE0101960E948F3ECE01019671D2CE0186
:104DE00001960E94333E69E075E0CE0101960E9473
:104DF000973ECE01019664D2CE0101960E94333EC9
:104E000053D2CE0180960E94333E0C94CD130E9463
:104E1000FC30AB01BC0140934E1050934F10609397
:104E200050107093511081EF91E10E94E68588CC7B
:104E30000E94073185CC0E94437988E50E94E130C9
:104E4000882311F05F9A479A89E50E94E130811129
:104E50008A9A8AE50E94E130882381F09FB7F8940E
:104E6000809108018160809308019FBF9FB7F894EB
:104E7000809108018460809308019FBF85E40E94AF
:104E8000E130882309F45CCC8D9A129A59CC012B1D
:104E900009F04DC020E030E044EB52E4609150183E
:104EA0007091511880915218909153180E9458B8DF
:104EB0006093501870935118809352189093531820
:104EC00070EDC72E78E1D72EE12CF12C00E211E431
:104ED00020E538E14CE458E168E478E184E498E1C5
:104EE0000E941B6B20E030E040EA51E460915018D2
:104EF0007091511880915218909153180E9458B88F
:104F000060935018709351188093521890935318CF
:104F1000E12CF12C00E010E420E538E14CE458E10C
:104F200068E478E184E498E10E941B6B09CC20E0FE
:104F300030E040EF51E46091501870915118809129
:104F40005218909153180E9458B86093501870935B
:104F50005118809352189093531840EDC42E48E195
:104F6000D42EE12CF12C00E010E420E538E14CE4F3
:104F700058E168E478E184E498E10E941B6B20E04A
:104F800030E040EF52E460915018709151188091D8
:104F90005218909153180E9457B86093501870930C
:104FA00051188093521890935318E12CF12C08E477
:104FB00012E420E538E14CE458E168E478E184E467
:104FC00098E10E941B6BBCCB2E968EAD9FAD2E97A9
:104FD0000FB6F8949EBF0FBE8DBFCF5ADF4F0FB6EE
:104FE000F894DEBF0FBECDBFDF91CF911F910F911F
:104FF000FF90EF90DF90CF90BF90AF909F908F90F9
:105000007F906F905F904F903F902F9008950895FC
:1050100080E090E00895EF92FF921F93CF93DF938B
:105020007C01C62FD72F142F160FF7018081918195
:105030000E94F7B78993F70180819181019691834E
:1050400080831C13F2CFDF91CF911F91FF90EF90DF
:105050000895EF92FF921F93CF93DF937C01C62FA9
:10506000D72F142F160F6991F701808191810E942B
:10507000FFB7F701808191810196918380831C1392
:10508000F2CFDF91CF911F91FF90EF90089561E0F3
:10509000FC0180810C94763F8EBD0DB407FEFDCFE0
:1050A00008958FEF8EBD0DB407FEFDCF8EB5089528
:1050B000CF92DF92EF92FF921F93CF93DF9300D0B6
:1050C0001F92CDB7DEB76C01162FFC019281892F9C
:1050D000806A86958CBD90FD03C081E0963009F40E
:1050E00080E08DBD60E0F601808129833A834B83A7
:1050F0005C830E94763F6CE271E0C6010E940689E3
:10510000812F8064C9DF88E1E82EF12C5C814B811E
:105110003A812981DA01C9010E2C04C0B695A79500
:10512000979587950A94D2F729833A834B835C83BA
:10513000B3DFF8E0EF1AF10829813A814B815C81F5
:1051400088EFE8168FEFF80629F7112321F01830C1
:1051500021F08FEF03C085E901C087E89DDF1C3097
:1051600009F49FDF10E09DDFF601838387FF04C011
:105170001F3F11F01F5FF7CF0F900F900F900F9010
:10518000DF91CF911F91FF90EF90DF90CF90089526
:10519000EF92FF920F931F93CF93DF93EC0179016E
:1051A0008C81833039F089E0440F551F661F771FCB
:1051B0008A95D1F79A01AB0161E1CE0179DF8823AD
:1051C00011F084E013C00E94E0408B016ADF8B8302
:1051D0008F3F49F40E94E040601B710B6D327140BB
:1051E000A8F381E103C08E3F31F08FE08983CE01C7
:1051F0004EDF80E019C08FEF8EBDF701D701A150BF
:10520000BE4F0DB407FEFDCF9EB591938EBDEA173C
:10521000FB07B9F70DB407FEFDCF8EB58C9341DFC8
:1052200040DFCE0134DF81E0DF91CF911F910F91FC
:10523000FF90EF9008951F920F920FB60F921124D6
:105240000BB60F922F933F934F936F937F938F9350
:105250009F93EF93FF934091C60020917F0B309175
:10526000800BC90101968F7799276091810B70910E
:10527000820B8617970741F0F901E150F54F408303
:105280009093800B80937F0BFF91EF919F918F9173
:105290007F916F914F913F912F910F900BBE0F9087
:1052A0000FBE0F901F9018958FEF9FEF0E94DF4366
:1052B0008FEF9FEF0E94DF438FEF9FEF0C94DF4350
:1052C000FC01448155816081718184E49FE00C94EC
:1052D000FB39FC01448155816081718184E49FE048
:1052E0000E94FB398FEF9FEF0E94DF438FEF9FEF0C
:1052F0000E94DF438FEF9FEF0C94DF43CF93DF9348
:10530000CBEFDAE0FE018491882341F09091C00058
:1053100095FFFCCF8093C6003196F5CFEFEAFAE017
:105320008491882341F09091C00095FFFCCF809339
:10533000C6003196F5CF8091C00085FFFCCF8AE092
:105340008093C600FE018491EBEFFAE0882349F0D8
:105350009091C00095FFFCCF8093C6003196849158
:10536000F5CF409178185091791860917A18709122
:105370007B1887EA9AE00E949D3540917C185091F5
:105380007D1860917E1870917F1884EA9AE00E94DF
:105390009D354091801850918118609182187091CC
:1053A000831881EA9AE00E949D35409184185091BB
:1053B000851860918618709187188EE99AE00E948E
:1053C0009D358091C00085FFFCCF8AE08093C600A8
:1053D000FE018491EBEFFAE0882349F09091C00040
:1053E00095FFFCCF8093C60031968491F5CFE4E819
:1053F000FAE08491882341F09091C00095FFFCCFA2
:105400008093C6003196F5CF8091C00085FFFCCF18
:105410008AE08093C600FE018491EBEFFAE08823D6
:1054200049F09091C00095FFFCCF8093C600319663
:105430008491F5CF4091C7125091C8126091C91262
:105440007091CA128BE79AE00E949D354091CB1271
:105450005091CC126091CD127091CE1288E79AE0F3
:105460000E949D354091CF125091D0126091D1127F
:105470007091D21285E79AE00E949D354091D31237
:105480005091D4126091D5127091D61282E79AE0B1
:105490000E949D358091C00085FFFCCF8AE08093FB
:1054A000C600FE018491EBEFFAE0882349F0909169
:1054B000C00095FFFCCF8093C60031968491F5CF54
:1054C000E4E5FAE08491882341F09091C00095FFD3
:1054D000FCCF8093C6003196F5CF8091C00085FF48
:1054E000FCCF8AE08093C600FE018491EBEFFAE0E6
:1054F000882349F09091C00095FFFCCF8093C600AF
:1055000031968491F5CF4091F7125091F812609145
:10551000F9127091FA128BE49AE00E948C35409156
:10552000FB125091FC126091FD127091FE1288E402
:105530009AE00E948C354091FF12509100136091C7
:1055400001137091021385E49AE00E948C3540911A
:10555000031350910413609105137091061382E4B4
:105560009AE00E948C358091C00085FFFCCF8AE0D4
:105570008093C600FE018491EBEFFAE0882349F0A6
:105580009091C00095FFFCCF8093C6003196849126
:10559000F5CFEDE0FAE08491882341F09091C000CE
:1055A00095FFFCCF8093C6003196F5CF8091C00067
:1055B00085FFFCCF8AE08093C600FE018491EBEF6B
:1055C000FAE0882349F09091C00095FFFCCF8093CA
:1055D000C60031968491F5CF4091BF125091C01210
:1055E0006091C1127091C21284E09AE00E949D35D0
:1055F0004091C3125091C4126091C5127091C612AD
:1056000081E09AE00E949D358091C00085FFFCCF2B
:105610008AE08093C600FE018491EBEFFAE08823D4
:1056200049F09091C00095FFFCCF8093C600319661
:105630008491F5CFEEE4F9E08491882341F09091D4
:10564000C00095FFFCCF8093C6003196F5CF8091C6
:10565000C00085FFFCCF8AE08093C600FE018491E4
:10566000EBEFFAE0882349F09091C00095FFFCCF62
:105670008093C60031968491F5CF4091DB12509112
:10568000DC126091DD127091DE1285E499E00E94D7
:105690009D354091DF125091E0126091E1127091BE
:1056A000E21282E499E00E949D354091D712509118
:1056B000D8126091D9127091DA128FE399E00E94AA
:1056C0008C354091BB125091BC126091BD1270910B
:1056D000BE128CE399E00E949D354091B712509123
:1056E000B8126091B9127091BA1289E399E00E94E0
:1056F0009D354091B3125091B4126091B5127091E2
:10570000B61286E399E00E949D358091C00085FF26
:10571000FCCF8AE08093C600FE018491EBEFFAE0B3
:10572000882349F09091C00095FFFCCF8093C6007C
:1057300031968491F5CFE4E2F9E08491882341F039
:105740009091C00095FFFCCF8093C6003196F5CFB5
:105750008091C00085FFFCCF8AE08093C600FE01E7
:105760008491EBEFFAE0882349F09091C00095FF17
:10577000FCCF8093C60031968491F5CF4091D1182B
:105780005091D2186091D3187091D4188BE199E0A0
:105790000E949D354091D5185091D6186091D71828
:1057A0007091D81888E199E00E949D354091D918F0
:1057B0005091DA186091DB187091DC1885E199E05E
:1057C0000E949D358091C00085FFFCCF8AE08093C8
:1057D000C600FE018491EBEFFAE0882349F0909136
:1057E000C00095FFFCCF8093C60031968491F5CF21
:1057F000E7E0F9E08491882341F09091C00095FFA3
:10580000FCCF8093C6003196F5CF8091C00085FF14
:10581000FCCF8AE08093C600FE018491EBEFFAE0B2
:10582000882349F09091C00095FFFCCF8093C6007B
:1058300031968491F5CF40913602509137026091B4
:105840003802709139028DEF98E00E949D352DEB62
:1058500037E346E05EE360910C0270910D028091A7
:105860000E0290910F020E9446B9AB01BC018AEF73
:1058700098E00E949D352DEB37E346E05EE36091B2
:1058800032027091330280913402909135020E946D
:10589000D1ACAB01BC0187EF98E00E949D358091AF
:1058A000C00085FFFCCF8AE08093C600FE01849192
:1058B000EBEFFAE0882349F09091C00095FFFCCF10
:1058C0008093C60031968491F5CFE4EEF8E08491A0
:1058D000882341F09091C00095FFFCCF8093C600D3
:1058E0003196F5CF8091C00085FFFCCF8AE0809390
:1058F000C6004091FD0F5091FE0F6091FF0F709117
:10590000001080EE98E00E949D358091C00085FFD8
:10591000FCCF8AE08093C600FE018491EBEFFAE0B1
:10592000882349F09091C00095FFFCCF8093C6007A
:1059300031968491F5CFEFECF8E08491882341F023
:105940009091C00095FFFCCF8093C6003196F5CFB3
:105950008091C00085FFFCCF8AE08093C600409113
:10596000191050911A1060911B1070911C108BEC43
:1059700098E00E949D358091C00085FFFCCF8AE0B1
:105980008093C600FE01C491EBEFFAE0CC2349F00E
:105990008091C00085FFFCCFC093C6003196C491B2
:1059A000F5CFEAEBF8E08491882341F09091C000B4
:1059B00095FFFCCF8093C6003196F5CF8091C00053
:1059C00085FFFCCF8AE08093C6004091CD0A5091BC
:1059D000CE0A6091CF0A7091D00A86EB98E00E94BF
:1059E0009D358091C00085FFFCCF8AE08093C60082
:1059F000DF91CF9108950F931F93CF93DF93CDB78E
:105A0000DEB72C970FB6F894DEBF0FBECDBF80E394
:105A100090E3A0E3B0E08D839E83AF83B88704E674
:105A200010E01C870B8744E0BE016B5F7F4FCE0107
:105A30000B960FDB40E168E778E1CE010B9609DBBE
:105A400040E167EC72E1CE010B9603DB40E167EFCA
:105A500072E1CE010B96FDDA44E06FEB72E1CE010C
:105A60000B96F7DA44E063EC72E1CE010B96F1DAC3
:105A700044E06BED72E1CE010B96EBDA44E06FEDA2
:105A800072E1CE010B96E5DA44E067ED72E1CE01FA
:105A90000B96DFDA44E06BEB72E1CE010B96D9DABC
:105AA00044E067EB72E1CE010B96D3DA44E063EB9E
:105AB00072E1CE010B96CDDA4CE061ED78E1CE01DA
:105AC0000B96C7DA42E069EC7AE0CE010B96C1DAB8
:105AD00042E067EC7AE0CE010B96BBDA42E065EC7F
