:100000000C94560C0C94870C0C94870C0C94870C55
:100010000C94870C0C94870C0C94870C0C94870C14
:100020000C94870C0C94870C0C94870C0C94870C04
:100030000C94870C0C94870C0C94870C0C94870CF4
:100040000C94870C0C9442620C94870C0C94870CD3
:100050000C94870C0C94870C0C9424820C942380B1
:100060000C94870C0C9488290C94870C0C94870CA6
:100070000C94870C0C94870C0C94870C0C94870CB4
:100080000C94870C0C94870C0C94870C0C94870CA4
:100090000C94870C0C94870C0C94870C0C94870C94
:1000A0000C94870C0C94870C0C94870C0C94870C84
:1000B0000C94870C0C94870C0C94870C0C94870C74
:1000C0000C94870C0C94870C0C94870C0C94B158EE
:1000D0000C9488580C94870C0C94870C0C94870C07
:1000E0000C94870CB854BB54AA54AE54B454F25474
:1000F000BF54C354C954CD54D154D754DB54DF54E6
:10010000F254E554E954ED54A159A659AB59B559E7
:10011000BF59385AC959D159D959E359ED59F759E5
:10012000065A105A385A1A5A245A2E5A90829D82C8
:10013000B982C682E082ED8207830983084AD73BF1
:100140003BCE016E84BCBFFDC12F3D6C74319ABDA6
:1001500056833DDA3D00C77F11BED9E4BB4C3E91CA
:100160006BAAAABE000000803F05A84CCDB2D44EB9
:10017000B93836A9020C50B9918688083CA6AAAABB
:100180002ABE000000803F004E414E494E4954595E
:10019000494E46CDCCCC3D0AD7233C17B7D1387752
:1001A000CC2B329595E6241FB14F0A000020410068
:1001B00000C84200401C4620BCBE4CCA1B0E5AAEB2
:1001C000C59D7400407A10F35A00A0724E180900C1
:1001D00010A5D4E80000E87648170000E40B5402AC
:1001E0000000CA9A3B000000E1F5050000809698E7
:1001F00000000040420F000000A086010000001037
:100200002700000000E80300000000640000000078
:10021000000A00000000000100000000002C76D859
:1002200088DC674F0823DFC1DFAE59E1B1B796E53F
:10023000E3E453C63AE651997696E8E6C28426EBA3
:10024000898C9B62ED407C6FFCEFBC9C9F40F2BAB6
:10025000A56FA5F490055A2AF75C936B6CF9676D4E
:10026000C11BFCE0E40D47FEF520E6B500D0ED90A3
:100270002E0300943577050080841E080000204E70
:100280000A000000C80C333333330F986E12831109
:1002900041EF8D2114893BE65516CFFEE6DB18D1E0
:1002A000844B381BF77C1D901DA4BBE424203284B2
:1002B000725E228100C9F124ECA1E53D272F005395
:1002C00044207072696E74696E672062797465206B
:1002D000004E6F74205344207072696E74696E67AB
:1002E000002E0044656C6574696F6E206661696CF0
:1002F00065642C2046696C653A200046696C65206F
:1003000064656C657465643A002E006F70656E20DC
:100310006661696C65642C2046696C653A20005002
:100320004944204175746F74756E652066696E6905
:1003300073686564212050757420746865204B7063
:100340002C204B6920616E64204B6420636F6E73B8
:1003500074616E747320696E746F20436F6E66698A
:100360006775726174696F6E2E6800504944204150
:1003700075746F74756E65206661696C65642120A3
:1003800074696D656F75740020403A006F6B20547E
:100390003A006F6B20423A00504944204175746F17
:1003A00074756E65206661696C6564212054656DA5
:1003B000706572617475726520746F6F206869670B
:1003C0006800204B643A2000204B693A2000204B03
:1003D000703A200020436C617369632050494420C7
:1003E000002054753A2000204B753A2000206D61A2
:1003F000783A2000206D696E3A200020643A20008F
:1004000020626961733A2000486F74656E64206FE2
:100410006666736574733A002200556E6B6E6F7773
:100420006E20636F6D6D616E643A202200486F74B8
:10043000656E64206F6666736574733A007A5F6DEB
:10044000696E3A2000795F6D696E3A2000785F6DC1
:1004500061783A2000785F6D696E3A20005A3A0060
:10046000593A0020436F756E7420583A2000453A7F
:10047000005A3A00593A00583A004649524D5741FD
:1004800052455F4E414D453A4D61726C696E205642
:10049000313B20537072696E7465722F6772626CA3
:1004A000206D617368757020666F722067656E36A7
:1004B000204649524D574152455F55524C3A687457
:1004C00074703A2F2F7777772E6D656E64656C2D7B
:1004D00070617274732E636F6D2050524F544F438E
:1004E0004F4C5F56455253494F4E3A312E30204DB6
:1004F000414348494E455F545950453A3344205092
:1005000072696E7465722045585452554445525F65
:10051000434F554E543A320A002042403A002040A0
:100520003A00202F0020423A00202F006F6B205409
:100530003A002569206D696E2C202569207365635A
:1005400000456E642066696C65206C6973740042B6
:100550006567696E2066696C65206C697374005309
:10056000657474696E67732053746F726564005AA2
:10057000323A00457874656E646572204F66667322
:1005800065743A0059323A00457874656E64657254
:10059000204F66667365743A0058323A00536563BB
:1005A0006F6E64657279204D617820506F733A00E8
:1005B0002044002049002020204D333031205000BD
:1005C0005049442073657474696E67733A00205A09
:1005D0000020590020204D323036205800486F6DE1
:1005E00065206F666673657420286D6D293A00205A
:1005F0004500205A002058002042002054002020AE
:100600004D323035205300416476616E636564205D
:100610007661726961626C65733A20533D4D696E13
:1006200020666565647261746520286D6D2F73297D
:100630002C20543D4D696E2074726176656C206685
:100640006565647261746520286D6D2F73292C2097
:10065000423D6D696E696D756D207365676D656E80
:10066000742074696D6520286D73292C20583D6DA8
:100670006178696D756D205859206A65726B202804
:100680006D6D2F73292C20205A3D6D6178696D7531
:100690006D205A206A65726B20286D6D2F73292C8E
:1006A0002020453D6D6178696D756D2045206A6536
:1006B000726B20286D6D2F73290020540020204D6F
:1006C000323034205300416363656C657261746934
:1006D0006F6E3A20533D616363656C657261746946
:1006E0006F6E2C20543D7265747261637420616377
:1006F00063656C65726174696F6E00204500205AF5
:100700000020590020204D3230312058004D6178B2
:10071000696D756D20416363656C65726174696FA5
:100720006E20286D6D2F7332293A00204500205A23
:100730000020590020204D3230332058004D617880
:10074000696D756D206665656472617465732028D6
:100750006D6D2F73293A00204500205A0020590062
:1007600020204D3932205800537465707320706515
:100770007220756E69743A0053746F7265642073E9
:10078000657474696E6773207265747269657665E5
:10079000640048617264636F6465642044656661E7
:1007A000756C742053657474696E6773204C6F6147
:1007B000646564006563686F3A007C3C3E5E2B3D77
:1007C0003F2F5B5D3B2C2A225C005072696E746582
:1007D000722073746F707065642064756520746F27
:1007E000206572726F72732E204669782074686576
:1007F000206572726F7220616E6420757365204D82
:1008000039393920746F20726573746172742E20C7
:100810002854656D70657261747572652069732006
:1008200072657365742E2053657420697420616647
:100830007465722072657374617274696E672900E1
:100840004E6F204C696E65204E756D626572207723
:1008500069746820636865636B73756D2C204C61E7
:100860007374204C696E653A20004E6F20436865B2
:10087000636B73756D2077697468206C696E652091
:100880006E756D6265722C204C617374204C696EBC
:10089000653A2000636865636B73756D206D6973DD
:1008A0006D617463682C204C617374204C696E65B3
:1008B0003A20004C696E65204E756D626572206944
:1008C00073206E6F74204C617374204C696E6520C8
:1008D0004E756D6265722B312C204C617374204C07
:1008E000696E653A20004D31313000256920686F0E
:1008F000757273202569206D696E75746573004487
:100900006F6E65207072696E74696E672066696CBF
:1009100065005072696E7465722073746F707065D3
:10092000642064756520746F206572726F72732E17
:100930002046697820746865206572726F72206144
:100940006E6420757365204D39393920746F2072BB
:100950006573746172742E202854656D70657261C0
:10096000747572652069732072657365742E2053E7
:100970006574206974206166746572207265737491
:10098000617274696E6729004E6F204C696E652034
:100990004E756D626572207769746820636865635F
:1009A0006B73756D2C204C617374204C696E653AC5
:1009B00020004E6F20436865636B73756D20776907
:1009C0007468206C696E65206E756D6265722C208E
:1009D0004C617374204C696E653A200063686563EE
:1009E0006B73756D206D69736D617463682C204C39
:1009F000617374204C696E653A20004C696E652005
:100A00004E756D626572206973206E6F74204C6143
:100A10007374204C696E65204E756D6265722B3162
:100A20002C204C617374204C696E653A200045722D
:100A3000726F723A004D313130006572726F722000
:100A400077726974696E6720746F2066696C6500DF
:100A5000205A3A0020593A0020583A00656E6473D3
:100A6000746F7073206869743A20006563686F3A28
:100A700000446F6E6520736176696E672066696CED
:100A8000652E006F6B004D3239002020506C616E76
:100A90006E657242756666657242797465733A2056
:100AA000002046726565204D656D6F72793A2000B1
:100AB000417072203230203230323000436F6D701E
:100AC000696C65643A200054656E6C6F6700207C29
:100AD00020417574686F723A200041707220323084
:100AE00020323032302031333A35393A3333002036
:100AF0004C61737420557064617465643A200031F0
:100B00002E302E30004D61726C696E200020536FC4
:100B10006674776172652052657365740020576151
:100B2000746368646F672052657365740020427255
:100B30006F776E206F757420526573657400204561
:100B4000787465726E616C20526573657400506FC5
:100B5000776572557000737461727400534420633A
:100B6000617264206F6B006F70656E526F6F7420DE
:100B70006661696C656400766F6C756D652E696E73
:100B80006974206661696C6564004572726F723ABF
:100B900000534420696E6974206661696C00656366
:100BA000686F3A002200656E717565696E67202274
:100BB000006563686F3A004D3234004D32332025B2
:100BC00073006175746F25692E67005072696E74C9
:100BD00065722068616C7465642E206B696C6C288A
:100BE000292063616C6C656421005072696E7465C4
:100BF000722073746F707065642064756520746F03
:100C0000206572726F72732E204669782074686551
:100C1000206572726F7220616E6420757365204D5D
:100C200039393920746F20726573746172742E20A3
:100C30002854656D706572617475726520697320E2
:100C400072657365742E2053657420697420616623
:100C50007465722072657374617274696E672900BD
:100C6000473238205800000048C200000000000051
:100C700000000000A04000002041000000402200D1
:100C8000656E717565696E67202200000021002481
:100C90000027002A002D003000330001010000046D
:100CA0000107010A0100002200250028002B002E68
:100CB000003100340002010000050108010B0100B1
:100CC0000020002300260029002C002F0032000005
:100CD00001000003010601090105050505070508D6
:100CE000080808020202020A0A08080404040401AF
:100CF00001010101010101030303030303030304D1
:100D00000707070C0C0C0C0C0C0C0C020202020660
:100D1000060606060606060B0B0B0B0B0B0B0B0150
:100D200002102020080810204010204080020102FC
:100D300001080402010102040810204080804020C4
:100D400010080402018004020180402010080402FF
:100D5000010804020101020408102040800102047D
:100D6000081020408000000A0B02090C0D0E080735
:100D7000030401000000000000000000000000006B
:100D80000000000000000000000000000000000063
:100D90000012111000000000000000000000000020
:100DA000000000000000000000000024F4D43050D7
:100DB000C38E20C2A24017828B7011127A910D81CE
:100DC0006CD90AA861E108C7586607615143061E3D
:100DD0004B5D05C145A7041A411104093D980371F3
:100DE0003931034036DB0265339102D4305402803E
:100DF0002E1D02632CEE01752AC501B028A001103A
:100E00002781018F2564012B244B01E0223401ACA2
:100E1000211F018D200D01801FFC00841EED009715
:100E20001DDF00B81CD200E61BC600201BBC0064FE
:100E30001AB200B219A8000A19A0006A189900D1C4
:100E400017910040178B00B516840031167E00B351
:100E50001579003A157300C7146F0058146A00EE34
:100E60001366008813630025135E00C7125B006CD5
:100E700012570015125400C111510070114F00217A
:100E8000114B00D61049008D104700461044000257
:100E9000104200C00F4000800F3E00420F3C000691
:100EA0000F3B00CB0E3800930E37005C0E35002749
:100EB0000E3400F30D3200C10D3100900D30006092
:100EC0000D2E00320D2D00050D2C00D90C2B00AE7F
:100ED0000C2900850C29005C0C2700350C27000E1E
:100EE0000C2600E80B2400C40B2400A00B23007D7B
:100EF0000B23005A0B2100390B2100180B2000F89E
:100F00000A1F00D90A1E00BB0A1E009D0A1D008090
:100F10000A1D00630A1C00470A1B002C0A1B001153
:100F20000A1A00F7091A00DD091900C4091900ABF3
:100F3000091900920917007B091800630917004C72
:100F400009160036091600200916000A091500F5D1
:100F5000081500E0081400CC081400B8081400A418
:100F6000081400900813007D0812006B0813005845
:100F7000081200460812003408110023081100125C
:100F800008110001081100F0071000E0071000D060
:100F9000071000C0071000B0070F00A10710009154
:100FA000070E0083070F0074070F0065070E005738
:100FB000070E0049070E003B070D002E070E00200C
:100FC000070D0013070D0006070D00F9060C00EDD4
:100FD000060D00E0060C00D4060C00C8060C00BC90
:100FE000060C00B0060C00A4060B0099060C008D40
:100FF000060B0082060B0077060B006C060B0061E7
:10100000060A0057060B004C060A0042060A003882
:10101000060A002E060A0024060A001A060A001014
:1010200006090007060A00FD050900F4050900EBA2
:10103000050900E2050900D9050900D0050900C726
:10104000050900BE050900B5050800AD050800A5A5
:101050000509009C050800940508008C050800841B
:101060000508007C050800740508006C050700658C
:101070000508005D050700560508004E05070047F6
:101080000507004005080038050700310507002A5C
:10109000050700230507001C050600160507000FBD
:1010A0000507000805060002050700FB040600F519
:1010B000040700EE040600E8040600E2040700DB73
:1010C000040600D5040600CF040600C9040600C3C8
:1010D000040600BD040600B7040600B1040500AC18
:1010E000040600A6040600A00405009B0406009563
:1010F000040500900406008A0405008504050080AC
:101100000406007A04050075040500700405006BF0
:1011100004050066040500610405005C0405005731
:10112000040500520405004D040500480405004371
:101130000405003E0404003A0405003504050030AF
:101140000404002C04050027040400230405001EE9
:101150000404001A04040016040500110404000D20
:10116000040400090405000404040000040400FC55
:10117000030400F8030400F4030400F0030400EC8B
:10118000030400E8030400E4030400E0030400DCBB
:10119000030400D8030400D4030400D0030400CCEB
:1011A000030400C8030300C503030024F404D9208A
:1011B0001BC40C5C0E9804C4095F0265077101F43E
:1011C00005F900FB04B30048048700C10369005817
:1011D00003550003034500BE023A00840231005368
:1011E000022A002902250004022000E4011C00C894
:1011F000011900AF01170098011400840113007158
:101200000110006101100051010E0043010D003674
:10121000010B002B010B0020010B00150109000C34
:1012200001090003010800FB000800F3000800EBBF
:10123000000700E4000600DE000600D8000600D229
:10124000000600CC000500C7000500C2000500BD77
:10125000000400B9000400B5000400B1000400ADB2
:10126000000400A9000400A5000300A20003009FE1
:101270000004009B00030098000300950002009307
:10128000000300900003008D0002008B0003008823
:101290000002008600020084000300810002007F3B
:1012A0000002007D0002007B00020079000200774E
:1012B000000100760002007400020072000100715B
:1012C0000002006F0002006D0001006C0002006A65
:1012D000000100690002006700010066000100656E
:1012E0000001006400020062000100610001006072
:1012F0000001005F0002005D0001005C0001005B76
:101300000001005A00010059000100580001005777
:101310000001005600010055000100540001005377
:101320000000005300010052000100510001005074
:101330000001004F0001004E0000004E0001004D72
:101340000001004C0001004B0000004B0001004A6E
:10135000000100490001004800000048000100476A
:101360000001004600000046000100450000004565
:10137000000100440001004300000043000100425E
:101380000000004200010041000000410001004057
:101390000001003F0000003F0001003E0000003E51
:1013A0000001003D0000003D0001003C0000003C49
:1013B0000000003C0001003B0000003B0001003A3F
:1013C0000000003A00010039000000390001003837
:1013D000000000380000003800010037000000372E
:1013E0000001003600000036000000360001003524
:1013F000000000350000003500010034000000341A
:10140000000000340001003300000033000000330E
:101410000001003200000032000000320001003103
:1014200000000031000000310001003000000030F9
:10143000000000300001002F0000002F0000002FEE
:101440000000002F0001002E0000002E0000002EE2
:101450000001002D0000002D0000002D0000002DD7
:101460000001002C0000002C0000002C0000002CCB
:101470000001002B0000002B0000002B0000002BBF
:101480000001002A0000002A0000002A0000002AB3
:1014900000010029000000290000002900000029A7
:1014A000000000290001002800000028000000289A
:1014B000000000280000002800010027000000278D
:1014C0000000002700000027000000270001002680
:1014D0000000002600000026000000260000002674
:1014E0000001002500000025000000250000002567
:1014F0000000002500000025000100240000002459
:10150000000000240000002400000024000100234B
:10151000000000230000002300000023000000233F
:101520000000002300000023000100220000002230
:101530000000002200000022000000220000002223
:101540000001002100000021000000210000002116
:101550000000002100000021000000210001002007
:1015600000000020000000200000002000000020FB
:101570000000002000000020000000200001001FEB
:101580000000001F0000001F0000001F0000001FDF
:101590000000001F0000001F0001001E0000001ED0
:1015A0000000001E0000001E00000020423A002043
:1015B000453A00543A0020573A0020453A00543A40
:1015C000004E65772056616C75652045727220006B
:1015D00025730057726974696E6720746F2066699D
:1015E0006C653A20002E006F70656E206661696C34
:1015F00065642C2046696C653A20002E006F70658A
:101600006E206661696C65642C2046696C653A20C1
:101610000046696C652073656C65637465640020C1
:1016200053697A653A200046696C65206F70656E73
:1016300065643A20002E006F70656E206661696CEB
:1016400065642C2046696C653A20003A2045787420
:101650007275646572207377697463686564206F5E
:1016600066662E204D415854454D5020747269676E
:1016700067657265642021003A204578747275644C
:101680006572207377697463686564206F66662E7F
:10169000204D494E54454D502074726967676572FC
:1016A000656420210054656D7065726174757265A2
:1016B000206865617465642062656420737769746D
:1016C00063686564206F66662E204D415854454D11
:1016D0005020747269676765726564202121005427
:1016E000656D706572617475726520686561746599
:1016F0006420626564207377697463686564206F31
:1017000066662E204D494E54454D502074726967CF
:101710006765726564202121004572726F723A001C
:1017200020746F6F206C6F6E6720657874727573AC
:10173000696F6E2070726576656E746564002063F3
:101740006F6C6420657874727573696F6E20707247
:101750006576656E746564006563686F3A00004085
:10176000174400001B4400801844000048C20000D9
:101770000000000000006563686F3A00202D2049DA
:101780006E76616C69642065787472756465722028
:101790006E756D62657220210070012C0190012729
:1017A00001B0012201C0011D01F001180110021356
:1017B0000130020E016002090190020401C002FF23
:1017C000000003FA004003F5008003F000D003EBB3
:1017D000002004E6007004E100E004DC004005D7CE
:1017E00000C005D2004006CD00D006C8008007C367
:1017F000003008BE00F008B900C009B400B00AAF5C
:1018000000B00BAA00D00CA500000EA000500F9B4A
:1018100000C01096005012910000148C00C0158773
:1018200000B0178200B0197D00D01B7800001E7335
:101830000040206E0090226900F024640040275F81
:101840000090295A00E02B5500102E500020304BFC
:101850000010324600E033410090353C001037372D
:101860000070383200A0392D00B03A2800A03B2388
:1018700000603C1E00103D1900903D1400103E0F0A
:1018800000703E0A00C03E0500003F000052657334
:10189000656E643A20006F6B00FFFFFF00C02344B9
:1018A00000001B44008018447AB544B611241FBEC2
:1018B000CFEFD1E2DEBFCDBF00E00CBF1BE0A0E068
:1018C000B2E0E8E9FEE801E00BBF02C007900D922C
:1018D000AE35B107D9F729E1AEE5BBE001C01D92F5
:1018E000A136B207E1F71CE0C5E5DCE000E006C088
:1018F00021970109802FFE010E94B5C5C435D1078B
:1019000080E00807A9F70E9457AC0C943BC70C94E1
:1019100000002F923F924F925F926F927F928F9230
:101920009F92AF92BF92CF92DF92EF92FF920F936E
:101930001F93CF93DF93CDB7DEB7C557D1090FB64D
:10194000F894DEBF0FBECDBF2DB73EB7E2963FAFD6
:101950002EAFE2978091190C882341F00E947C748D
:1019600010927F1010927E101092190C87E40E9442
:10197000D395782E882309F474C00E94F9950E94AB
:1019800042C36430710509F45CC0E4F4623071054F
:1019900009F444C00CF04AC077FF02C00C944E22F8
:1019A000A0E8AA2EAFE4BA2EA3ECCA2EA7ECDA2E3A
:1019B00086017501A6019501C601B5010E947771E6
:1019C0000C944E226A35710509F442C06CF46C31F6
:1019D000710511F00C944E2260E070E080E090E020
:1019E0000E9449A70C944E226B357105A9F16C3504
:1019F000710511F00C944E22F0E8AF2EFFE4BF2EDB
:101A0000F3ECCF2EF7ECDF2E86017501A6019501D0
:101A1000C601B5010E9470990C944E228091020C6F
:101A2000811104C00E94A4A681E007C08091020C2D
:101A3000811107C00E94A4A680E00E942A500C9445
:101A4000AD2560E070E0CB010E94A89A0C944E2274
:101A50001092FD180C944E2281E08093FD180C9496
:101A60004E228DE40E94D395882311F40C94002219
:101A70000E94F9950E9442C36E3B710511F40C94CB
:101A800067150CF0F6C06035710511F40C949D15C6
:101A90000CF071C06731710509F41DC40CF041C030
:101AA0006231710511F40C94AA1524F577FF02C078
:101AB0000C944E22623071050CF4EFC16131710556
:101AC00011F00C944E225F9847988A989FB7F8942B
:101AD000809108018E7F809308019FBF9FB7F89483
:101AE000809108018B7F809308019FBF8D98129889
:101AF0000C944E226431710509F496C30CF4D3C1E1
:101B00006531710509F4E3C36631710511F00C9478
:101B10004E2210927F1010927E10109280100C9422
:101B20004E226C31710509F46DC484F4693171057C
:101B300009F400C40CF4E8C36A31710509F400C467
:101B40006B31710509F40AC40C944E226F31710592
:101B500009F474C634F46E31710509F488C40C9428
:101B60004E226032710509F4F4C56A32710509F438
:101B7000C4C60C944E226A36710509F4AEC7DCF572
:101B80006435710509F4E6C754F46235710509F44A
:101B9000D8C70CF0DAC70E9499950C944E226C3588
:101BA000710511F40C94E415E4F46535710511F038
:101BB0000C944E2283E50E94D3950E94F99520E073
:101BC00030E04AE754E40E9468B60E9448C360933C
:101BD000891270938A1280938B1290938C120C94BA
:101BE0004E226836710509F4A3C66936710509F4F9
:101BF000BFC60C944E226537710511F40C94AD16D6
:101C0000F4F46D36710509F45CC75CF46B3671054C
:101C100011F00C944E2210929E1810929D180C9464
:101C20004E226237710511F40C94BF1663377105AB
:101C300011F00C944E22EAE7F4E00C94A8166837F1
:101C4000710511F40C949D174CF46737710511F070
:101C50000C944E22E1EEF2E00C94AD176937710559
:101C600011F40C94A2176C38710509F470C60C9429
:101C70004E22603A33E0730709F4A2C50CF080C02D
:101C8000623E710509F4D4C50CF040C06D3C71058D
:101C900011F40C94A818C4F46B3C710511F40C9465
:101CA000681814F00C948618693C710511F00C94B6
:101CB0004E229DEBE92E92E1F92E0EEC12E024E08B
:101CC000D22ED00E0C944F186A3D710511F40C946D
:101CD0001E1984F46E3C710511F00C944E22A5E09F
:101CE000EA2EA9E1FA2E0EEC12E0B3E0DB2ED00EC4
:101CF0000C940F196C3D710511F40C94E6196D3DAF
:101D0000710511F40C94F7190C944E22643F51E0C4
:101D1000750711F40C94541EECF46E3291E07907BF
:101D200011F40C94D01A3CF46D32714011F40C94FF
:101D3000081A0C944E226F32E1E07E0711F40C94E5
:101D4000E41A6039714011F00C944E220E942EA1C9
:101D50000C944E22663F21E0720711F40C945A1E37
:101D600014F40C94571E673F41E0740711F40C946F
:101D70005F1E6D35724011F40C94621E0C944E225D
:101D8000673F83E0780711F40C945B200CF049C0A6
:101D90006C3EA3E07A0711F40C947B1F3CF5693E7E
:101DA000E3E07E0711F40C94531F6B3EF3E07F07D2
:101DB00011F40C94781F673E734011F00C944E227E
:101DC0001092020C80918D1290918E12A0918F1220
:101DD000B09190128093030C9093040CA093050C87
:101DE000B093060C0E941CA70C944E22643F33E073
:101DF000730711F40C94C91F3CF4633F734011F452
:101E00000C948E1F0C944E22653F83E0780711F4EA
:101E10000C940420663F734011F40C943F200C9402
:101E20004E226E3FA3E07A0711F40C94A721B4F47C
:101E3000693FE3E07E0711F40C948F2014F40C94B6
:101E400077206A3F23E0720711F40C94AA206D3FBB
:101E5000734011F40C9431210C944E22683044E00C
:101E6000740711F40C94D2215CF46730744011F0C3
:101E70000C944E2280E090E00E94634B0C944E2222
:101E8000693094E0790711F40C94D52160317440E5
:101E900011F40C94D8210C944E2281E090E00E9421
:101EA000634B0C944E2283E50E94D395882341F026
:101EB0000E94F9950E9442C37093710B6093700B5E
:101EC00085ED90E19093D4108093D31081E090E061
:101ED000909374128093731210927612109275126E
:101EE00040E050E0BA0189ED90E10E94AE4280915D
:101EF000D3109091D4102BE1FC013496DE0115969D
:101F000001900D922A95E1F7FC01828193819C83D7
:101F10008B8380EC92E09A838983BE016F5F7F4F51
:101F200089EB94E00E94F572CE0101960E946B400D
:101F3000D0907512AD2CB09076128091DC10882371
:101F400009F446C08250823030F48FE280938110D1
:101F5000109282103DC06091E5107091E610809162
:101F6000E7109091E81040E00E94BD40882381F185
:101F70002091E910F0E22F9F90011124C9018255B0
:101F8000924F892B29F180E090E0E0E05EE2DC01F5
:101F9000A20FB31FA255B24F4C91403289F0883046
:101FA000910539F4AE2FB0E0A558BF4E16965C935C
:101FB000EF5FAE2FB0E0A558BF4E16964C93EF5F83
:101FC00001968B30910519F7F0E0E558FF4E168227
:101FD0008091700B9091710B892B59F48AEF92E0EC
:101FE0000E94DF2985E093E00E94DF2901E010E0F4
:101FF00007C081E193E00E94DF298CE193E0F4CFF8
:1020000088E293E00E94DD294AE0B801CE01019602
:102010000E94FD5789819A810E94DD29CE01019697
:102020000E949D5789E894E00E94DD290E94D129F1
:1020300087E393E00E94DD294AE0B801CE010196D2
:102040000E94FD5789819A810E94DD29CE01019667
:102050000E949D5789E894E00E94DD290E94D129C1
:102060000F5F1F4F0730110559F6E12CF12C00E0EE
:1020700010E075ED672E70E1772EDA942296DFAED0
:102080002297E0EC8E2EE2E09E2EEA14FB0409F487
:1020900092C07092D4106092D31022E030E030935E
:1020A00074122093731222968FAD22978E1990E0AE
:1020B000909376128093751240E050E0BA0189ED5A
:1020C00090E10E94AE428091D3109091D410FC0117
:1020D0003496DE0115962BE101900D922A95E1F7D9
:1020E000DC0112968D919C9113979C838B839A822D
:1020F0008982BE016F5F7F4F89EB94E00E94F57289
:10210000CE0101960E946B4061E870E1CE01CB9652
:102110000E9430588091A910811145C021968EAD42
:102120009FAD2197892B09F43EC0BE01655C7F4FAE
:10213000CE0101960E9428582DB63EB64D815E8193
:102140002A0181E0481A5108ADB7BEB7A41BB50BF0
:102150000FB6F894BEBF0FBEADBFEDB7FEB7319658
:102160006F014115510541F0C114D10429F0B601A8
:10217000CE0101960E94893FF601CF018C199D097D
:102180008415950514F40C945122DD24D3940FB6D4
:10219000F8943EBE0FBE2DBECE0101960E949D5703
:1021A000D1100C945922CE01CB960E949D575FEF1F
:1021B000E51AF50A6ACF86E493E00E94DD29609172
:1021C000700B7091710B4AE0CE0101960E94FD5791
:1021D00089819A810E94DD29CE0101960E949D5736
:1021E0000E94D1298091700B9091710B019646E06D
:1021F000489F9001499F300D11242017310754F05A
:102200008FE593E00E94DF298CE693E00E94DF29AE
:102210000C944E228AE793E00E94DF2987E893E03E
:102220000E94DF290C944E22EFE4F5E0849188238C
:1022300041F09091C00095FFFCCF8093C60031968D
:10224000F5CF8091C00085FFFCCF8AE08093C60067
:10225000109274121092731240E050E0BA0188EBB1
:1022600090E10E94AE428BE1E8EBF0E1DE011596D1
:1022700001900D928A95E1F78091B6109091B71078
:102280009C838B8380EC92E09A838983BE016F5F8D
:102290007F4F89EB94E00E94F572CE0101960E9477
:1022A0006B40E1E4F5E08491882341F09091C00017
:1022B00095FFFCCF8093C6003196F5CF8091C0008A
:1022C00085FFFCCF8AE08093C6000C944E220E94CA
:1022D000053E0C944E220091070C1091080C0C5FE7
:1022E0001F4F6AE270E0C8010E94E9C6009719F02A
:1022F000FC013197108220E030E0A90161E0C801C3
:102300000E94C1750C944E2280918010882331F078
:1023100081E090E090937F1080937E100E94178060
:102320006093760B7093770B8093780B9093790B77
:102330000C944E2281E090E00E94634B0C944E225C
:1023400080918010882311F40C944E2283E50E9422
:10235000D39581110C94F6220C944E22809180101A
:10236000882309F439C0EFEBF2E08491882341F02F
:102370009091C00095FFFCCF8093C6003196F5CFB9
:102380006091AC107091AD108091AE109091AF1033
:102390004AE00E94C93AEDEBF2E08491882341F0D3
:1023A0009091C00095FFFCCF8093C6003196F5CF89
:1023B0006091B0107091B1108091B2109091B310F3
:1023C0004AE00E94C93A8091C00085FFFCCF8AE0B4
:1023D0008093C6000C944E22E1EDF2E084918823B4
:1023E00041F09091C00095FFFCCF8093C6003196DC
:1023F000F5CF8091C00085FFFCCF8AE08093C600B6
:102400000C944E228091070C9091080C6AE270E0C7
:1024100004960E94E9C68C01892BE1F020911C0CE6
:1024200030911D0C40E6429FC001439F900D112446
:102430006EE470E0865D934F0E94E9C660E270E052
:102440000E94E9C601969093080C8093070CF8014E
:10245000319710828091070C9091080C20E030E0B9
:10246000A90160E004960E94C1750C944E228091EF
:102470008010882311F40C944E220E947C74809169
:10248000070C9091080C6AE270E004960E94E9C67D
:102490008C01892BE1F020911C0C30911D0C40E641
:1024A000429FC001439F900D11246EE470E0865D51
:1024B000934F0E94E9C660E270E00E94E9C601966F
:1024C0009093080C8093070CF801319710820091CB
:1024D000070C1091080C480184E0880E911C809133
:1024E0008010882311F40C944E2283E592E10E941F
:1024F000352610927F1010927E10DE0111967D011C
:10250000CD010E94734084EB90E19093D4108093AE
:10251000D310F80184818F3209F08BC06FE270E034
:10252000C4010E94E9C68C010F5F1F4F6AE0662E4E
:102530000115110509F483C06FE270E0C8010E9423
:10254000E9C66C01009709F47BC00817190708F069
:1025500077C05C01A01AB10AA501B801CE0180962E
:102560000E9412C7E0E2F0E0EC0FFD1FEA0DFB1D38
:1025700010828E01005E1F4FF8018191882339F08F
:102580009091C00095FFFCCF8093C600F6CF80915C
:10259000C00085FFFCCF6092C6006091D31070919F
:1025A000D4106115710511F06C5F7F4F21E0AE0111
:1025B000405E5F4FCE0105960E944827811131C0D1
:1025C000EBE0F3E08491882371F09091C00095FFD7
:1025D000FCCF8093C6003196F5CF9091C00095FF57
:1025E000FCCF8093C600D8018D918D018111F5CF6C
:1025F000E9E0F3E08491882341F09091C00095FFD9
:10260000FCCF8093C6003196F5CF8091C00085FF46
:10261000FCCF8AE08093C600C7010E946B400C94F7
:102620004E22F092D410E092D31086010F5F1F4F1C
:102630007FCF85ED90E19093D4108093D3108401E7
:102640006091D3107091D4106115710511F06C5F19
:102650007F4F18A21BA222E0A801CE0180960E9403
:1026600048278823F1F0CE0180960E94FF3B882303
:10267000C1F06CA57DA58EA59FA541E00E94BD403F
:10268000882379F0E8A9B0E2EB9FF0011124E2552C
:10269000F24F309731F085EE80831BA20E947D407F
:1026A000782ECE0180960E944327772009F1EBEF28
:1026B000F2E08491882341F09091C00095FFFCCF17
:1026C0008093C6003196F5CFF8018191882339F0C7
:1026D0009091C00095FFFCCF8093C600F6CF10927A
:1026E000AC101092AD101092AE101092AF102CC022
:1026F000E3EEF2E08491882341F09091C00095FFD1
:10270000FCCF8093C6003196F5CFF80181918823E4
:1027100039F09091C00095FFFCCF8093C600F6CFB2
:10272000E1EEF2E08491882341F09091C00095FFA2
:10273000FCCF8093C6003196F5CF8091C00085FF15
:10274000FCCF8AE08093C600C7010E946B400C94C6
:102750004E2280917E1090917F10019721F40E946B
:102760002EA10E947C740091070C1091080C0C5F44
:102770001F4F6AE270E0C8010E94E9C6009719F095
:10278000FC013197108220E030E0A90161E0C8012E
:102790000E94C17580918010882331F081E090E023
:1027A00090937F1080937E100E9417806093760B29
:1027B0007093770B8093780B9093790B0C944E2247
:1027C0008091070C9091080C6AE270E005960E94D7
:1027D000E9C68C01892BE1F020911C0C30911D0C75
:1027E00040E6429FC001439F900D11246EE470E0CB
:1027F000865D934F0E94E9C660E270E00E94E9C6E0
:1028000001969093080C8093070CF8013197108281
:102810008091070C9091080C21E020937D1020E01E
:1028200030E0A90160E005960E94C1750C944E222B
:1028300081E090E00E94634B0C944E220E9417802E
:1028400060937A0B70937B0B80937C0B90937D0B42
:102850000091760B1091770B2091780B3091790BCA
:10286000601B710B820B930B28EE33E040E050E0CD
:102870000E94A7C1CA01B9012CE330E040E050E05A
:102880000E94A7C17F936F933F932F9382E395E0BC
:102890009F938F938E010F5F1F4F1F930F930E9483
:1028A000DCBBE1EBFBE08491EDB7FEB738960FB6E9
:1028B000F894FEBF0FBEEDBFE1EBFBE0882349F0CB
:1028C0009091C00095FFFCCF8093C6003196849113
:1028D000F5CFF8018191882339F09091C00095FFE0
:1028E000FCCF8093C600F6CF8091C00085FFFCCF5F
:1028F0008AE08093C6000C944E2283E50E94D39513
:10290000882311F40C944E220E94F9950E9442C330
:102910008B0180E50E94D395882311F40C944E22FC
:102920000F3F110509F010F40C9407230C944E226C
:1029300088E690E00E94F64C81110C944E226FEFD5
:102940007FEF8FEF9FEF0E9428490C944E2283E582
:102950000E94D395882311F40C944E220E94F9957D
:102960000E9442C370931B0C60931A0C0C944E226D
:1029700089E690E00E94F64C81110C944E22ECE224
:10298000F5E08491882341F09091C00095FFFCCF41
:102990008093C6003196F5CFE091961224E0E29F35
:1029A000F0011124E15EF74E608171818281938193
:1029B00041E00E94503BE9E2F5E08491882341F038
:1029C0009091C00095FFFCCF8093C6003196F5CF63
:1029D000E0919612F0E0EE0FFF1FE650F84E608196
:1029E0007181072E000C880B990B0E9411BC41E0ED
:1029F0000E94503BE5E2F5E08491882341F09091FC
:102A0000C00095FFFCCF8093C6003196F5CF609152
:102A10000F1870911018809111189091121841E0C0
:102A20000E94503BE2E2F5E08491882341F09091CE
:102A3000C00095FFFCCF8093C6003196F5CF609122
:102A40001A0C70911B0C072E000C880B990B0E941E
:102A500011BC41E00E94503BEEE1F5E084918823F7
:102A600041F09091C00095FFFCCF8093C600319655
:102A7000F5CFE0919612F0E0E15DF74E608170E0F5
:102A800080E090E00E943E3BE9E1F5E084918823FC
:102A900041F09091C00095FFFCCF8093C600319625
:102AA000F5CF60912E1870E080E090E00E943E3BF0
:102AB0008091C00085FFFCCF8AE08093C6000C9413
:102AC000AD258FEF9FEF0E940A6B0C944E228FEF83
:102AD0009FEF0E94486F0C944E2283E50E94D3958D
:102AE000882319F10E94F99520E030E0A9010E94A5
:102AF0000BBC87FD0FC00E94F99520E030E04FE746
:102B000053E40E942EC4181644F00E94F9950E94C6
:102B100042C305C060E070E002C06FEF70E07093E8
:102B20009E1860939D180C944E228FEF90E0909326
:102B30009E1880939D180C944E22999AA19A0C94F9
:102B40004E22109201190C944E2281E080930119BB
:102B50000C944E2283E50E94D3958823A1F00E9415
:102B6000F99520E030E04AE754E40E9468B60E94FC
:102B700048C360930A0270930B0280930C029093F7
:102B80000D020C944E2288E50E94D39581110C947D
:102B90000A2389E50E94D39581110C940A238AE5C2
:102BA0000E94D39581110C940A2385E40E94D39549
:102BB00081110C940A230E942EA18D9A129A81E011
:102BC0000E94EBA00C944E2282E50E94D3958823AC
:102BD00029F00E94F9954B015C0106C0812C912CD3
:102BE00040E8A42E4FE3B42E4EEC52E026965FAFA1
:102BF0004EAF26970EEF17E189E698E124969FAF36
:102C00008EAF24973DEA232E32E1332E22961FAE5B
:102C100022972696AEADBFAD26978D912696BFAF73
:102C2000AEAF26970E94D395882309F46DC02296F3
:102C3000BFAD2297B33009F05CC00E94F995A501A1
:102C400094010E94D1C22B013C0120E030E040EA17
:102C500051E40E940BBC87FF45C0A3019201F8011B
:102C600060817181828193810E94D1C26B017C015C
:102C70009B01AC01609155187091561880915718BE
:102C8000909158180E9468B6609355187093561822
:102C90008093571890935818A70196012496AEADCB
:102CA000BFAD24976D917D918D919C910E9468B6E6
:102CB0002496EEADFFAD2497608371838283938366
:102CC000D1016D917D918D919C910E940FBCA701C6
:102CD00096010E9468B60E9448C3F1016083718327
:102CE00082839383D8014D925D926D927C9213976B
:102CF0000BC00E94F995A50194010E94D1C2F80170
:102D000060837183828393832296FFAD2297FF5F56
:102D10002296FFAF22970C5F1F4F24962EAD3FAD3A
:102D200024972C5F3F4F24963FAF2EAF249734E07B
:102D3000230E311CF43009F06CCF0E94452E0C9408
:102D40004E229091C00095FFFCCF8093C600319633
:102D500084918111F6CF0C944E228091070C9091B2
:102D6000080C6AE270E005960E94E9C6009711F42B
:102D70000C944E22FC01319710820C944E22E7E70E
:102D8000F4E08491882341F09091C00095FFFCCF3E
:102D90008093C6003196F5CF6091EA177091EB17DA
:102DA0008091EC179091ED1742E00E94503BE4E7D0
:102DB000F4E08491882341F09091C00095FFFCCF0E
:102DC0008093C6003196F5CF6091EE177091EF17A2
:102DD0008091F0179091F11742E00E94503BE1E79B
:102DE000F4E08491882341F09091C00095FFFCCFDE
:102DF0008093C6003196F5CF6091F2177091F3176A
:102E00008091F4179091F51742E00E94503BEEE656
:102E1000F4E08491882341F09091C00095FFFCCFAD
:102E20008093C6003196F5CF6091F6177091F71731
:102E30008091F8179091F91742E00E94503BE3E629
:102E4000F4E08491882341F09091C00095FFFCCF7D
:102E50008093C6003196F5CF2FB7F8946091C917CB
:102E60007091CA178091CB179091CC172FBF0E94F9
:102E700011BC2091FE173091FF174091001850911E
:102E800001180E94D1C242E00E94503BE0E6F4E00B
:102E90008491882341F09091C00095FFFCCF8093EE
:102EA000C6003196F5CF2FB7F8946091CD17709189
:102EB000CE178091CF179091D0172FBF0E9411BCD1
:102EC0002091021830910318409104185091051870
:102ED0000E94D1C242E00E94503BEDE5F4E08491B3
:102EE000882341F09091C00095FFFCCF8093C600ED
:102EF0003196F5CF2FB7F8946091D1177091D21712
:102F00008091D3179091D4172FBF0E9411BC2091AC
:102F100006183091071840910818509109180E941E
:102F2000D1C242E00E94503B8091C00085FFFCCF9F
:102F30008AE08093C6000C944E2280E00E94C0A0DC
:102F40000C944E2281E00E94C0A00C944E229091DD
:102F5000C00095FFFCCF8093C60081918111F7CF0F
:102F60008091C00085FFFCCF8AE08093C600E5E534
:102F7000F4E08491882341F09091C00095FFFCCF4C
:102F80008093C6003196F5CF659B03C0E2EDF2E079
:102F900009C0E7EDF2E006C09091C00095FFFCCFBC
:102FA0008093C60081918111F7CF8091C00085FF89
:102FB000FCCF8AE08093C600EDE4F4E0849188239E
:102FC00041F09091C00095FFFCCF8093C6003196F0
:102FD000F5CF649B03C0E2EDF2E009C0E7EDF2E05B
:102FE00006C09091C00095FFFCCF8093C6008191F0
:102FF0008111F7CF8091C00085FFFCCF8AE08093DC
:10300000C600E5E4F4E08491882341F09091C0008B
:1030100095FFFCCF8093C6003196F5CF80910301D8
:1030200081FD03C0E2EDF2E009C0E7EDF2E006C089
:103030009091C00095FFFCCF8093C60081918111D3
:10304000F7CF8091C00085FFFCCF8AE08093C60057
:10305000EDE3F4E08491882341F09091C00095FF66
:10306000FCCF8093C6003196F5CF4B9B03C0E2EDB9
:10307000F2E009C0E7EDF2E006C09091C00095FFD4
:10308000FCCF8093C60081918111F7CF8091C00061
:1030900085FFFCCF8AE08093C6000C944E22D801B5
:1030A0008D918D010E94D395882349F00E94F99556
:1030B0000E9448C3F7016083718382839383F4E0A5
:1030C000EF0EF11CD012EBCF0E94C26A0C944E227C
:1030D00019E6E12E18E1F12E0EEC12E084E0D82E74
:1030E000D00ED8018D918D010E94D395882339F09F
:1030F0000E94F995F7016083718382839383F4E0E2
:10310000EF0EF11CD012EDCF0C944E2283E50E94FD
:10311000D395882351F00E94F995609361187093BC
:103120006218809363189093641884E50E94D39585
:10313000882311F40C944E220E94F995609365182F
:103140007093661880936718909368180C944E22B9
:1031500083E50E94D395882351F00E94F9956093EE
:103160007D1870937E1880937F189093801884E563
:103170000E94D395882351F00E94F995609381189D
:1031800070938218809383189093841882E40E942D
:10319000D395882361F00E94F9950E9448C36093FB
:1031A000791870937A1880937B1890937C1888E52F
:1031B0000E94D395882351F00E94F99560935D1881
:1031C00070935E1880935F18909360188AE50E9450
:1031D000D395882351F00E94F99560935918709304
:1031E0005A1880935B1890935C1885E40E94D395DD
:1031F000882311F40C944E220E94F995609355187F
:103200007093561880935718909358180C944E2228
:10321000F4E0EF0EF11CD01611F40C944E22D801FC
:103220008D918D010E94D395882391F30E94F99589
:10323000F7016083718382839383EACF8AED90E004
:103240000E94F64C81110C944E2288E50E94D39581
:10325000882381F00091961210E00E94F995000FEA
:10326000111F000F111FF801E15AFF4E6083718397
:103270008283938389E50E94D395882381F000910E
:10328000961210E00E94F995000F111F000F111FF8
:10329000F801E959FF4E60837183828393838AE545
:1032A0000E94D395882381F00091961210E00E942D
:1032B000F995000F111F000F111FF801E159FF4E82
:1032C0006083718382839383E1EBFBE084918823A5
:1032D00041F09091C00095FFFCCF8093C6003196DD
:1032E000F5CFEDE2F4E08491882341F09091C000A5
:1032F00095FFFCCF8093C6003196F5CF10929612C1
:1033000080919612823008F058C0E0EAF4E0819192
:10331000882339F09091C00095FFFCCF8093C600C0
:10332000F6CFE091961224E0E29FF0011124E15AD9
:10333000FF4E608171818281938142E00E94503B07
:1033400005E913E0F8018191882339F09091C000DC
:1033500095FFFCCF8093C600F6CFE091961234E043
:10336000E39FF0011124E959FF4E60817181828150
:10337000938142E00E94503BD8018D918D018823BA
:1033800039F09091C00095FFFCCF8093C600F4CF38
:10339000E0919612B4E0EB9FF0011124E159FF4E49
:1033A000608171818281938142E00E94503B8091D3
:1033B00096128F5F80939612A3CF8091C00085FFF5
:1033C000FCCF8AE08093C6000C944E2283E50E94D5
:1033D000D395882311F40C944E220E94F9950E94F3
:1033E00042C370936302609362020C944E2283E5A1
:1033F0000E94D395882311F40C944E220E94F995D3
:103400000E9442C370931D0260931C020C944E22D2
:1034100080E50E94D395882351F00E94F99560932E
:103420002B0270932C0280932D0290932E0289E43C
:103430000E94D395882381F00E94F9952DEB37E304
:1034400046E05EE30E9468B660932702709328020C
:103450008093290290932A0284E40E94D3958823C2
:1034600081F00E94F9952DEB37E346E05EE30E9480
:10347000D1C260932302709324028093250290931B
:10348000260283E40E94D395882351F00E94F99587
:1034900060930002709301028093020290930302F2
:1034A0000E94A7A0E7E9F3E08191882339F0909189
:1034B000C00095FFFCCF8093C600F6CFEAE9F3E0A9
:1034C0008191882339F09091C00095FFFCCF8093C3
:1034D000C600F6CF60912B0270912C0280912D02D4
:1034E00090912E0242E00E94503BEEE9F3E0819180
:1034F000882339F09091C00095FFFCCF8093C600DF
:10350000F6CF2DEB37E346E05EE360912702709142
:1035100028028091290290912A020E94D1C242E0A1
:103520000E94503BE2EAF3E08191882339F09091C8
:10353000C00095FFFCCF8093C600F6CF2DEB37E39C
:1035400046E05EE36091230270912402809125029F
:10355000909126020E9468B642E00E94503BE6EA43
:10356000F3E08191882339F09091C00095FFFCCF62
:103570008093C600F6CF60910002709101028091A5
:1035800002029091030242E00E94503B8091C000F1
:1035900085FFFCCF8AE08093C6000E94452E7EC73F
:1035A00083E50E94D395882319F00E94F99503C002
:1035B00060E070E0CB01609385187093861880936B
:1035C0008718909388186AC785E40E94D39588234A
:1035D00041F00E94F9950E9442C38B0177FD12C011
:1035E00002C000E010E02D961FAE2D972E961FAE64
:1035F0002E97E6E12F96EFAF2F97F3E46096FFAF9B
:1036000060970EC02D961FAE2D972E961FAE2E974B
:103610002CE82F962FAF2F9732E460963FAF60973C
:1036200083E50E94D395882371F00E94F9952D9629
:103630006FAF2D972E967FAF2E972F968FAF2F9728
:1036400060969FAF609783E40E94D395882349F0EA
:103650000E94F9950E9442C3AC967FAF6EAFAC97C3
:1036600006C045E050E0AC965FAF4EAFAC970E940D
:1036700017802C966CAF7DAF8EAF9FAF2C97033029
:1036800011051CF4EAEAF3E01AC0EDEBF3E08191D6
:10369000882339F09091C00095FFFCCF8093C6003D
:1036A000F6CF8091C00085FFFCCF8AE08093C600F2
:1036B000F5C69091C00095FFFCCF8093C600819124
:1036C0008111F7CF8091C00085FFFCCF8AE0809305
:1036D000C6000E946D808FE717FF68C080932E1888
:1036E0002C968CAD9DADAEADBFAD2C976A968CAFD0
:1036F0009DAFAEAFBFAF6A97E0968CAF9DAFAEAF58
:10370000BFAFE09761961FAE619790E46B969FAF55
:103710006B97ACE16C96AFAF6C97B6E46D96BFAFAC
:103720006D976E961FAE6E976F961FAE6F97A096B1
:103730001FAEA097A1961FAEA1972FE730E040E003
:1037400050E028962CAF3DAF4EAF5FAF28973FE7D4
:10375000432E512C612C712CA8961CAE1DAE1EAEB2
:103760001FAEA89731E0A2963FAFA29766961FAE14
:103770001EAE669722961FAE2297212C312C2396DF
:103780001FAE2397A801415D574EAA965FAF4EAF7B
:10379000AA97C801880F991F880F991FDC01A15EA5
:1037A000B74EA496BFAFAEAFA49707C0F801E15DD6
:1037B000F74E808395CF0E941E6280912D1888233A
:1037C00009F47CC10E94378517FF0FC0B0910F1814
:1037D0002296BFAF22972090101830901118E091D8
:1037E00012182396EFAF239712C0A496AEADBFADCB
:1037F000A497BC912296BFAF2297A496EEADFFADE1
:10380000A49721803280F3812396FFAF23972296DD
:103810002FAD2297322D432D23965FAD23976E96C1
:103820006FAD6E976F967FAD6F97A0968FADA09797
:10383000A1969FADA1970E942EC4181694F02296CF
:103840002FAD22976E962FAF6E976F962FAE6F9714
:10385000A0963FAEA09723963FAD2397A1963FAF8A
:10386000A19722962FAD2297322D432D23965FAD3F
:10387000239761966FAD61976B967FAD6B976C9652
:103880008FAD6C976D969FAD6D970E940BBC87FDB9
:1038900012C022964FAD229761964FAF61976B96FB
:1038A0002FAE6B976C963FAE6C9723965FAD2397C8
:1038B0006D965FAF6D97A2968FADA297882309F49E
:1038C00079C02D962FAD2D972E963FAD2E972F9622
:1038D0004FAD2F9760965FAD609722966FAD2297A0
:1038E000722D832D23969FAD23970E942EC4181608
:1038F0000CF0E4C00E941780DC01CB012C962CADAB
:103900003DAD4EAD5FAD2C97821B930BA40BB50B59
:1039100089389341A105B10508F4D0C0D301C20193
:1039200028962CAD3DAD4EAD5FAD2897821B930B15
:10393000A40BB50BB595A7959795879517FF03C071
:1039400080932E1805C0AA96EEADFFADAA9780838E
:103950000E9417806A966CAF7DAF8EAF9FAF6A975B
:103960009B01AC012C968CAD9DADAEADBFAD2C973F
:10397000281B390B4A0B5B0BA8962CAF3DAF4EAF03
:103980005FAFA8972D969FAD2D976E969FAF6E97C0
:103990002E96AFAD2E976F96AFAF6F972F96BFADA8
:1039A0002F97A096BFAFA0976096EFAD6097A196B6
:1039B000EFAFA1972D962FAD2D972E963FAD2E9759
:1039C0002F964FAD2F9760965FAD609722966FADA3
:1039D0002297722D832D23969FAD23970E940BBCB7
:1039E00087FD02C00C940C250E941780DC01CB01DE
:1039F0006A962CAD3DAD4EAD5FAD6A97821B930BC1
:103A0000A40BB50B89389341A105B10510F40C94B2
:103A10000C250E9417802C966CAF7DAF8EAF9FAFA8
:103A20002C97DC01CB016A962CAD3DAD4EAD5FAD60
:103A30006A97821B930BA40BB50B66964EAD5FADD8
:103A40006697141615060CF411C628968CAD9DAD1C
:103A5000AEADBFAD2897840D951DA61DB71DB595BC
:103A6000A7959795879517FD01C0D0C780932E180D
:103A700066962EAD3FAD66972F5F3F4F66963FAF80
:103A80002EAF66972D963FAD2D9761963FAF61970C
:103A90002E964FAD2E976B964FAF6B972F965FADCF
:103AA0002F976C965FAF6C9760968FAD60976D9611
:103AB0008FAF6D9791E0A2969FAFA29720E030E084
:103AC00040EA51E42D966FAD2D972E967FAD2E973F
:103AD0002F968FAD2F9760969FAD60970E94E3C1A0
:103AE0009B01AC0122966FAD2297722D832D2396F8
:103AF0009FAD23970E942EC41816ACF4E8E9F3E0BA
:103B00008491882341F09091C00095FFFCCF809371
:103B1000C6003196F5CF8091C00085FFFCCF8AE0CA
:103B20008093C600BBC40E941780DC01CB01E096E5
:103B30002CAD3DAD4EAD5FADE097821B930BA40B5A
:103B4000B50B813D9740A105B10508F452C017FFA0
:103B500010C0E0902E18F12CE2E9F3E08491882364
:103B6000D9F09091C00095FFFCCF8093C6003196AC
:103B7000F5CFAA96AEADBFADAA97EC90F12CECE8CC
:103B8000F3E08491882341F09091C00095FFFCCF31
:103B90008093C6003196F5CF42E022966FAD229712
:103BA000722D832D23969FAD23970E94503BE8E80A
:103BB000F3E08491882341F09091C00095FFFCCF01
:103BC0008093C6003196F5CFB701FF0C880B990B97
:103BD0000E943E3B8091C00085FFFCCF8AE080932D
:103BE000C6000E941780E0966CAF7DAF8EAF9FAF8E
:103BF000E0970E9417806B017C010E9417806A96F3
:103C00008CAC9DACAEACBFAC6A972C962CAD3DADE8
:103C10004EAD5FAD2C97820E931EA41EB51EC81824
:103C2000D908EA08FB08DC01CB018C0D9D1DAE1DF7
:103C3000BF1D81389F44A241B105A8F0EBE6F3E037
:103C40008491882341F09091C00095FFFCCF809330
:103C5000C6003196F5CF8091C00085FFFCCF8AE089
:103C60008093C6001BC466964EAD5FAD6697AC965A
:103C70008EAD9FADAC97841795070CF09CCDEFE10E
:103C8000F3E08491882341F09091C00095FFFCCF30
:103C90008093C6003196F5CF8091C00085FFFCCFA0
:103CA0008AE08093C600FAC30E94452EF7C30E94A3
:103CB0001831F4C30E947C2F0E94125FEFC30E9450
:103CC000ED29ECC30E942EA183E50E94D3958823A1
:103CD00041F00E94F9950E9442C3709305026093DF
:103CE000040280910402909105028230910509F04E
:103CF000BFC088E50E94D395882349F10E94F995B9
:103D00006B017C010E94344B9B01AC0160E070E0D0
:103D1000CB010E94E2C19B01AC01C701B6010E9428
:103D20002EC418161CF40E94F99509C00E94344B49
:103D30009B01AC0160E070E0CB010E94E2C16093A6
:103D4000060270930702809308029093090282E5AD
:103D50000E94D395882351F00E94F99560939212A6
:103D6000709393128093941290939512E1EBFBE081
:103D70008491882341F09091C00095FFFCCF8093FF
:103D8000C6003196F5CFE8E0F4E08491882341F055
:103D90009091C00095FFFCCF8093C6003196F5CF7F
:103DA00060EAE62E64E0F62EF7018191882339F06F
:103DB0009091C00095FFFCCF8093C600F6CF609134
:103DC0005F1070916010809161109091621042E0DC
:103DD0000E94503B05E913E0F8018191882339F0F6
:103DE0009091C00095FFFCCF8093C600F6CF609104
:103DF0006710709168108091691090916A1042E08C
:103E00000E94503BD7018D917D01882339F090911C
:103E1000C00095FFFCCF8093C600F4CF60910602EE
:103E200070910702809108029091090242E00E947D
:103E3000503BF80181918F01882339F09091C000A7
:103E400095FFFCCF8093C600F4CF60916B1070910A
:103E50006C1080916D1090916E1042E00E94503B6A
:103E60008091C00085FFFCCF8AE08093C60008C027
:103E7000049730F081E090E0909305028093040273
:103E800010921619809104029091050290931402E9
:103E90008093130210921719109218191092191981
:103EA00010921A19FBC283E50E94D395882309F466
:103EB000F5C20E94F9950E9442C37093750B6093FE
:103EC000740B6230710534F081E090E09093750BD3
:103ED0008093740B8091740B9091750B97FD02C0C9
:103EE0000C949D161092750B1092740B0C949D16E9
:103EF0000E94C078D3C2812C912C540175016401B9
:103F000000E010E020E030E040E050E060E070E0F1
:103F1000CB010E944A321092E917C0C282E50E948A
:103F2000D395882329F00E94F9959B01AC0104C028
:103F300020E030E040E85FE383E5E3962FAFE397CE
:103F4000E4963FAFE497E5964FAFE597E6965FAF0F
:103F5000E6970E94D395882309F4A0C20E94F995A0
:103F6000E3962FADE397E4963FADE497E5964FAD2A
:103F7000E597E6965FADE6970E94D1C260935B102D
:103F800070935C1080935D1090935E100E94452E9C
:103F900085C282E50E94D395882329F00E94F99575
:103FA0009B01AC0104C020E030E040E85FE383E522
:103FB000E3962FAFE397E4963FAFE497E5964FAFD4
:103FC000E597E6965FAFE6970E94D395882309F4BC
:103FD00065C20E94F995E3962FADE397E4963FAD55
:103FE000E497E5964FADE597E6965FADE6970E94BC
:103FF000D1C260937710709378108093791090936A
:104000007A100E94452E4AC282E50E94D3958823E9
:1040100029F00E94F9959B01AC0104C020E030E03A
:1040200040E85FE383E5E3962FAFE397E4963FAF85
:10403000E497E5964FAFE597E6965FAFE6970E9467
:10404000D395882309F42AC20E94F995E3962FADEF
:10405000E397E4963FADE497E5964FADE597E69696
:104060005FADE6970E94D1C260936C0B70936D0BAD
:1040700080936E0B90936F0B0E94452E0FC283E5C9
:104080000E94D395882309F409C20E94F9950E94E1
:1040900042C36F3F710509F02CF477FF05C060E063
:1040A00070E002C068EC70E0709388126093871231
:1040B0000E94452EF3C183E50E94D395882309F41D
:1040C000EDC10E94F9950E9442C36536710534F432
:1040D0006E3171052CF46EE170E002C064E670E0B0
:1040E00070938612609385120E94452ED7C183E596
:1040F0000E94D395882309F4D1C10E94F9950E94AA
:1041000042C321E030E06130710511F020E030E081
:104110003093730B2093720B0E94452EBFC183E531
:104120000E94D395882309F4B9C10E94F9950E9491
:1041300042C36D3371052CF477FF05C060E070E079
:1041400002C06CE370E070936B0B60936A0B0E948B
:10415000452EA4C183E50E94D395882331F10E94A6
:10416000F9950E9442C36C37F3E17F0769F481E05F
:104170008093CF1210921119809313191092CE12BE
:104180008093CD120C949D16603A784009F086C158
:104190001092CF1281E0809311191092131980931D
:1041A000CE121092CD120C949D1688E50E94D395E4
:1041B000882369F00E94F9950E9442C321E01616F7
:1041C00017060CF020E02093CF1211E001C010E0A0
:1041D00089E50E94D395882361F00E94F9950E9499
:1041E00042C321E0161617060CF020E020931119A7
:1041F00011E08AE50E94D395882361F00E94F99529
:104200000E9442C321E0161617060CF020E020930E
:10421000131911E085E40E94D395882361F00E9470
:10422000F9950E9442C321E0161617060CF020E013
:104230002093CE1211E086E40E94D395882369F082
:104240000E94F9950E9442C321E0161617060CF051
:1042500020E02093CD120C949D1611110C949D1604
:104260001DC183E50E94D395882309F417C10E94DC
:10427000F9950E9442C361157105F9F48091620BB2
:104280009091630B9093FB178093FA179093FD170F
:104290008093FC178091600B9091610B90931B0CA5
:1042A00080931A0C80915E0B90915F0B90939E18F7
:1042B00080939D180E94CA84F1C061307105F9F4A1
:1042C0008091680B9091690B9093FB178093FA177C
:1042D0009093FD178093FC178091660B9091670B6C
:1042E00090931B0C80931A0C8091640B9091650B3A
:1042F00090939E1880939D180E94CA84CFC062300C
:10430000710569F41092FB171092FA171092FD17BD
:104310001092FC1710921B0C10921A0CBFC0633045
:10432000710509F0BBC01092FB171092FA1710929A
:10433000FD171092FC1710921B0C10921A0C0E9481
:104340002EA18D9A129A80E00E94EBA0A7C083E56F
:104350000E94D395882309F4A1C00E94F9950E9478
:1043600042C38B0184E50E94D395882329F00E94E3
:10437000F9950E9442C302C06FEF7FEF0230110532
:1043800008F08CC080910E1890E06817790709F446
:1043900047C36F3F3FEF730709F442C3CB010E944D
:1043A00002963EC30E946F4D79C00E94434B76C077
:1043B00083E50E94D395882309F470C00E94F99583
:1043C0006B017C0120E030E0A9010E940BBC81114F
:1043D00004C081E08093600261C020E030E040E2F0
:1043E00051E4C701B6010E94D1C26093991870933D
:1043F0009A1880939B1890939C18109260024EC05C
:1044000084E50E94D395882329F08FEF9FEF0E94C7
:10441000029644C0E1EBFBE08491882341F0909147
:10442000C00095FFFCCF8093C6003196F5CFEAE13E
:10443000F4E08491882341F09091C00095FFFCCF77
:104440008093C6003196F5CF80911C0C90911D0C85
:1044500020E6289FF001299FF00D1124E65DF34F1F
:104460008191882339F09091C00095FFFCCF809313
:10447000C600F6CFE8E1F4E08491882341F0909102
:10448000C00095FFFCCF8093C6003196F5CF809198
:10449000C00085FFFCCF8AE08093C6000E94F4A68E
:1044A0005CC3819187FD02C00C94BD10D12C0C948B
:1044B000C7106EE870E1CE0101960E943058BE012F
:1044C0006F5F7F4FCE01CB960E946457CE0101965D
:1044D0000E949D57CE01CB960E945855BE01655C47
:1044E0007F4FCE0180960E9428580F5F1F4FC090CB
:1044F000700BD090710BB6E0BC9DC001BD9D900DBE
:104500001124801791070CF06BC006968017910755
:104510000CF466C061E870E1CE0101960E9430584B
:10452000BE016F5F7F4FCE01CB960E946457CE01D4
:1045300001960E949D57CE01CB960E94585569EB7B
:1045400074E0CE0180960E94B356882339F0BE01F4
:10455000655C7F4FCE0180960E944F574AEF9601CF
:104560004203C001439F900D11246801C80ED91E5B
:1045700088E293E022D74AE0B601CE0101960E947C
:10458000FD5789819A8119D7CE0101960E949D57C6
:104590008EEC96E012D7CE0180960E94585588A1E5
:1045A00099A10BD78FE894E008D7FBD687E393E077
:1045B00004D74AE0B601CE0101960E94FD578981D9
:1045C0009A81FBD6CE0101960E949D578EEC96E013
:1045D000F4D68BAD9CADF1D68FE894E0EED6E1D663
:1045E000CE0180960E949D570C94D3100E94EE95A8
:1045F000AB01BC014093AC105093AD106093AE1072
:104600007093AF1083E592E10E94AE4247CF0E94C3
:10461000F99544CF0E942EA188E50E94D395882366
:1046200011F05F9A479A89E50E94D39581118A9A81
:104630008AE50E94D395882381F09FB7F8948091F2
:1046400008018160809308019FBF9FB7F894809113
:1046500008018460809308019FBF85E40E94D39580
:10466000882309F41BCF8D9A129A18CFA8968CAC88
:104670009DACAEACBFACA897880E991EAA1EBB1EFF
:10468000A8962CAD3DAD4EAD5FADA897281B390B5C
:104690004A0B5B0BCA01B90128962CAD3DAD4EAD5E
:1046A0005FAD28970E9498C1A50194010E9499C509
:1046B000D301C201820F931FA41FB51F843191053E
:1046C000A105B1050CF12C013D018C3E9105A10520
:1046D000B1052CF0FBEE4F2E512C612C712C40E8D3
:1046E0004416510461047104FCF08EEF90E0A0E0E8
:1046F000B0E084199509A609B70928968CAF9DAF3B
:10470000AEAFBFAF289716C0E4E14E2E512C612CFE
:10471000712C24E130E040E050E028962CAF3DAF12
:104720004EAF5FAF289706C028964CAE5DAE6EAE1A
:104730007FAE2897E0E0F4E08491882341F09091E7
:10474000C00095FFFCCF8093C6003196F5CFC30122
:10475000B2010E943E3BEBEFF3E08491882341F0ED
:104760009091C00095FFFCCF8093C6003196F5CFA5
:1047700028966CAD7DAD8EAD9FAD28970E943E3BD7
:10478000E4EFF3E08491882341F09091C00095FF1D
:10479000FCCF8093C6003196F5CF42E061966FADB5
:1047A00061976B967FAD6B976C968FAD6C976D969E
:1047B0009FAD6D970E94503BEDEEF3E0849188230E
:1047C00041F09091C00095FFFCCF8093C6003196D8
:1047D000F5CF42E06E966FAD6E976F967FAD6F9797
:1047E000A0968FADA097A1969FADA1970E94503B38
:1047F0008091C00085FFFCCF8AE08093C60066965A
:104800002EAD3FAD6697233031050CF41EC92896B6
:104810006CAD7DAD8EAD9FAD28970E9411BC20E0A0
:1048200030E040E850E40E9468B66B017C0161967C
:104830002FAD61976B963FAD6B976C964FAD6C97B4
:104840006D965FAD6D976E966FAD6E976F967FADFF
:104850006F97A0968FADA097A1969FADA1970E944C
:10486000E2C120ED3FE049E450E40E9468B620E058
:1048700030E040E05FE30E9468B69B01AC01C701F5
:10488000B6010E94D1C26B017C01C501B4010E9436
:1048900011BC20E030E04AE754E40E94D1C24B0151
:1048A0005C01E7EEF3E08491882341F09091C00031
:1048B00095FFFCCF8093C6003196F5CF42E0C7014B
:1048C000B6010E94503BE1EEF3E08491882341F071
:1048D0009091C00095FFFCCF8093C6003196F5CF34
:1048E00042E0C501B4010E94503B8091C00085FFA9
:1048F000FCCF8AE08093C6002AE939E949E15FE309
:10490000C701B6010E9468B66B017C019B01AC0136
:104910000E94E3C1A50194010E94D1C264966CAFCC
:104920007DAF8EAF9FAF6497A5019401C701B6011B
:104930000E9468B620E030E040E05EE30E9468B686
:104940004B015C01E4EDF3E08491882341F0909108
:10495000C00095FFFCCF8093C6003196F5CF8091C3
:10496000C00085FFFCCF8AE08093C600EEECF3E048
:104970008491882341F09091C00095FFFCCF8093F3
:10498000C6003196F5CF42E0C701B6010E94503B08
:104990008091C00085FFFCCF8AE08093C600E8ECE0
:1049A000F3E08491882341F09091C00095FFFCCF03
:1049B0008093C6003196F5CF42E064966CAD7DAD34
:1049C0008EAD9FAD64970E94503B8091C00085FFE3
:1049D000FCCF8AE08093C600E2ECF3E08491882368
:1049E00041F09091C00095FFFCCF8093C6003196B6
:1049F000F5CF42E0C501B4010E94503B8091C00058
:104A000085FFFCCF8AE08093C6001FC8AA96EEAD52
:104A1000FFADAA9780832CC8A2961FAEA2974EC85E
:104A2000012B09F04DC020E030E044EB52E46091EE
:104A3000F6177091F7178091F8179091F9170E9467
:104A4000E3C16093F6177093F7178093F81790936C
:104A5000F9173EE0C32E38E1D32EE12CF12C00E211
:104A600011E426EF37E142EF57E16EEE77E18AEE8F
:104A700097E10E94428720E030E040EA51E46091F3
:104A8000F6177091F7178091F8179091F9170E9417
:104A9000E3C16093F6177093F7178093F81790931C
:104AA000F917E12CF12C00E010E426EF37E142EF9A
:104AB00057E16EEE77E18AEE97E10E944287EECCF5
:104AC00020E030E040EF51E46091F6177091F71765
:104AD0008091F8179091F9170E94E3C16093F6173F
:104AE0007093F7178093F8179093F9178EE0C82EFC
:104AF00088E1D82EE12CF12C00E010E426EF37E11C
:104B000042EF57E16EEE77E18AEE97E10E9442872D
:104B100020E030E040EF52E46091F6177091F71713
:104B20008091F8179091F9170E94E2C16093F617EF
:104B30007093F7178093F8179093F917E12CF12CE5
:104B400008E412E426EF37E142EF57E16EEE77E139
:104B50008AEE97E10E944287A1CCE2962EAD3FAD4E
:104B6000E2970FB6F8943EBF0FBE2DBFCB58DF4F74
:104B70000FB6F894DEBF0FBECDBFDF91CF911F916E
:104B80000F91FF90EF90DF90CF90BF90AF909F90EC
:104B90008F907F906F905F904F903F902F900895EF
:104BA0004F925F926F927F928F929F92AF92BF923D
:104BB000CF92DF92EF92FF920F931F93CF93DF93E9
:104BC0001F92CDB7DEB75C016B014A013901442465
:104BD0004A94542CE12CF12C87010F5F1F4F0815CC
:104BE00019056CF541E050E0BE016F5F7F4FC501D4
:104BF0000E94D4442C0181E04816510401F56981DA
:104C00006D3099F0F601EE0DFF1D608361147104A3
:104C100019F46A3059F40DC0062E000C770BC3014D
:104C20000E94E9C6892B11F004C087017801D4CF16
:104C30008701F601E00FF11F1082C80104C057FE82
:104C4000F7CF8FEF9FEF0F90DF91CF911F910F91D3
:104C5000FF90EF90DF90CF90BF90AF909F908F909C
:104C60007F906F905F904F900895CF93DF93EC010A
:104C70000E946D421B82DF91CF9108953F924F9227
:104C80005F926F927F928F929F92AF92BF92CF92DC
:104C9000DF92EF92FF920F931F93CF93DF93CDB7E5
:104CA000DEB72C970FB6F894DEBF0FBECDBF5C0108
:104CB000DC0159968D909C905A97F40181859285DC
:104CC000A385B4859C01AD012F5F3F4F4F4F5F4FD0
:104CD00029873A874B875C87D5011496CD90DD9064
:104CE000ED90FC901797C114D104E104F10439F060
:104CF000BFEFCB1ADB0AEB0AFB0A312C07C0F40129
:104D0000C080D180E280F3803324339426013701C0
:104D10001D821E821F821886F40181859285A385DB
:104D2000B4852D813E814F815885281739074A0760
:104D30005B0708F064C089859A85AB85BC858C15B6
:104D40009D05AE05BF0550F482E0C82ED12CE12CA4
:104D5000F12C92E0492E512C612C712C9E012F5F79
:104D60003F4FB701A601C4010E948641882309F480
:104D700046C089819A81AB81BC81892B8A2B8B2B80
:104D800041F0260137019FEF491A590A690A790A49
:104D900005C0C414D504E604F70491F02D813E81CA
:104DA0004F8158852F5F3F4F4F4F5F4F2D833E837D
:104DB0004F8358873FEFC31AD30AE30AF30AACCFF5
:104DC0000FEF1FEF2FEF3FE0B301A201C4010E94DC
:104DD000F540F82E882399F0D50114964D915D91F8
:104DE0006D917C911797411551056105710549F049
:104DF00093018201C4010E94F540811102C0F12C8F
:104E000029C0D50114964D925D926D927C921797B0
:104E1000332051F0D301C2010196A11DB11DF4014F
:104E200080839183A283B383F50185899689A789BD
:104E3000B08D892B8A2B8B2B69F4D50155964D9219
:104E40005D926D927C92589711968C911197806823
:104E500011968C938F2D2C960FB6F894DEBF0FBE53
:104E6000CDBFDF91CF911F910F91FF90EF90DF9019
:104E7000CF90BF90AF909F908F907F906F905F90FA
:104E80004F903F900895FC0123812111EECE0895AB
:104E90002F923F924F925F926F927F928F929F924A
:104EA000AF92BF92CF92DF92EF92FF920F931F9338
:104EB000CF93DF93CDB7DEB7C554D1090FB6F894C1
:104EC000DEBF0FBECDBF3C015B018A01322E1C8EBE
:104ED0001F8E19821C82672B11F410E0A9C0FC01FF
:104EE00083818111FACFFA0180818F3261F4CA0186
:104EF0008C010196F80120812F32D1F3F5018381D5
:104F00008250823010F475010BC0618D728DCE011C
:104F100001960E946046882301F3CE0101967C0130
:104F20006E019CE1C90ED11C26014E01E7E38E0EF5
:104F3000911CFBE0F80D2596FFAF2597CE01019659
:104F400024969FAF8EAF24972696CFAE26972D2C12
:104F500036C080E2819325969FAD25979E13F9CFA9
:104F6000D80190E027E04A2F3B2F8D91811129C075
:104F70008FA9803209F4B1CF842F932F8C01FC01CB
:104F8000208101962F32D1F3222309F44AC021E077
:104F9000A401B701C6010E94B246882309F49DCF3F
:104FA000EA14FB0411F0C70160DEC414D50491F1CA
:104FB00026969FAD2697822D7601C92ED82EF40114
:104FC000C8CF8F32A9F28E3219F0EAEBF7E00AC0AF
:104FD0002A3009F482CF98E02AE0C5CF31963817FD
:104FE00009F47BCF34913111F9CF291708F475CF2B
:104FF0003FED380F3E3508F070CF31E0390FF40146
:10500000E90FF11D9FE9980F9A3108F480528083CF
:10501000932FA9CF23969FAD239724968FAD2497E6
:10502000CBCF232DA401B701C3010E94B246182F94
:10503000CE01019628DFCE014C9625DF812FCB5B78
:10504000DF4F0FB6F894DEBF0FBECDBFDF91CF911B
:105050001F910F91FF90EF90DF90CF90BF90AF9096
:105060009F908F907F906F905F904F903F902F9088
:10507000089561E0FC0180810C940F598EBD0DB440
:1050800007FEFDCF08958FEF8EBD0DB407FEFDCF57
:105090008EB508950F931F93CF93DF938B010E94DA
:1050A0001780EB01F0DF8F3F49F00E9417806C1BE7
:1050B0007D0B60177107B0F380E001C081E0DF91E4
:1050C000CF911F910F910895CF92DF92EF92FF92AF
:1050D0001F93CF93DF9300D01F92CDB7DEB76C0143
:1050E000162FFC019281892F806A86958CBD90FDD8
:1050F00003C081E0963009F480E08DBD60E0F601E8
:10510000808129833A834B835C830E940F596CE230
:1051100071E0C601BFDF812F8064B0DF88E1E82E37
:10512000F12C5C814B813A812981DA01C9010E2C75
:1051300004C0B695A795979587950A94D2F72983C9
:105140003A834B835C839ADFF8E0EF1AF1082981F8
:105150003A814B815C8188EFE8168FEFF80629F7DA
:10516000112321F0183021F08FEF03C085E901C031
:1051700087E884DF1C3009F486DF10E084DFF60165
:10518000838387FF04C01F3F11F01F5FF7CF0F908D
:105190000F900F900F90DF91CF911F91FF90EF90A4
:1051A000DF90CF9008950F931F93CF93DF93EC017F
:1051B00089018C81833039F089E0440F551F661FC7
:1051C000771F8A95D1F79A01AB0168E1CE017CDFA8
:1051D000882311F086E02FC08EEF8EBD80E090E036
:1051E0000DB407FEFDCFF801E80FF91F20812EBD99
:1051F0000DB407FEFDCF21812EBD0296811522E060
:10520000920771F70DB407FEFDCF8FEF37DF8FEFF9
:1052100035DF39DF8B838F71853029F083E1898316
:10522000CE0127DF09C068E572E0CE0133DF182F19
:10523000811106C087E18983CE011BDF10E00FC01A
:1052400020E030E0A9016DE0CE013EDF811103C016
:105250001ADF882311F086E1EECFCE010ADF812F1D
:10526000DF91CF911F910F910895EF92FF920F93CD
:105270001F93CF93DF93EC0179018C81833039F058
:1052800089E0440F551F661F771F8A95D1F79A0151
:10529000AB0161E1CE0118DF882311F084E013C077
:1052A0000E9417808B01EFDE8B838F3F49F40E94B1
:1052B0001780601B710B6D327140A8F381E103C050
:1052C0008E3F31F08FE08983CE01D3DE80E019C0BC
:1052D0008FEF8EBDF701D701A150BE4F0DB407FE71
:1052E000FDCF9EB591938EBDEA17FB07B9F70DB4BC
:1052F00007FEFDCF8EB58C93C6DEC5DECE01B9DECE
:1053000081E0DF91CF911F910F91FF90EF90089571
:105310001F920F920FB60F9211240BB60F922F937C
:105320003F934F936F937F938F939F93EF93FF934D
:105330004091C6002091FE0B3091FF0BC9010196F0
:105340008F7799276091000C7091010C8617970751
:1053500041F0F901E258F44F40839093FF0B8093A2
:10536000FE0BFF91EF919F918F917F916F914F91E4
:105370003F912F910F900BBE0F900FBE0F901F907B
:10538000189580E090E00E94D43B8FEF9FEF0E9441
:10539000D43B8FEF9FEF0E94D43B8FEF9FEF0C9495
:1053A000D43B8FEF9FEF0E94D43B8FEF9FEF0E9483
:1053B000D43B8FEF9FEF0C94D43B0C94D93B0E94CD
:1053C000D93B8FEF9FEF0E94D43B8FEF9FEF0E945E
:1053D000D43B8FEF9FEF0C94D43BCF93DF93C4EB80
:1053E000D7E0FE018491882341F09091C00095FFA1
:1053F000FCCF8093C6003196F5CFE8E6F7E08491C4
:10540000882341F09091C00095FFFCCF8093C600A7
:105410003196F5CF8091C00085FFFCCF8AE0809364
:10542000C600FE018491E4EBF7E0882349F09091F7
:10543000C00095FFFCCF8093C60031968491F5CFD4
:105440004091FE175091FF1760910018709101185C
:1054500080E697E00E944540409102185091031861
:1054600060910418709105188DE597E00E94454001
:10547000409106185091071860910818709109180A
:105480008AE597E00E94454040910A1850910B1818
:1054900060910C1870910D1887E597E00E944540C7
:1054A0008091C00085FFFCCF8AE08093C600FE019A
:1054B0008491E4EBF7E0882349F09091C00095FFD8
:1054C000FCCF8093C60031968491F5CFEDE3F7E0F1
:1054D0008491882341F09091C00095FFFCCF809388
:1054E000C6003196F5CF8091C00085FFFCCF8AE0E1
:1054F0008093C600FE018491E4EBF7E0882349F035
:105500009091C00095FFFCCF8093C60031968491A6
:10551000F5CF4091691850916A1860916B1870919D
:105520006C1884E397E00E94454040916D185091BB
:105530006E1860916F187091701881E397E00E9467
:105540004540409171185091721860917318709194
:1055500074188EE297E00E94454040917518509172
:10556000761860917718709178188BE297E00E9416
:1055700045408091C00085FFFCCF8AE08093C60043
:10558000FE018491E4EBF7E0882349F09091C0009C
:1055900095FFFCCF8093C60031968491F5CFEDE066
:1055A000F7E08491882341F09091C00095FFFCCFF3
:1055B0008093C6003196F5CF8091C00085FFFCCF67
:1055C0008AE08093C600FE018491E4EBF7E0882333
:1055D00049F09091C00095FFFCCF8093C6003196B2
:1055E0008491F5CF4091BD125091BE126091BF12CF
:1055F0007091C01284E097E00E9435404091C11242
:105600005091C2126091C3127091C41281E097E070
:105610000E9435404091C5125091C6126091C71248
:105620007091C8128EEF96E00E9435404091C912E9
:105630005091CA126091CB127091CC128BEF96E010
:105640000E9435408091C00085FFFCCF8AE08093A6
:10565000C600FE018491E4EBF7E0882349F09091C5
:10566000C00095FFFCCF8093C60031968491F5CFA2
:10567000E6ECF6E08491882341F09091C00095FF1C
:10568000FCCF8093C6003196F5CF8091C00085FF96
:10569000FCCF8AE08093C600FE018491E4EBF7E042
:1056A000882349F09091C00095FFFCCF8093C600FD
:1056B00031968491F5CF40916118509162186091B4
:1056C0006318709164188DEB96E00E9445404091FC
:1056D00065185091661860916718709168188AEB88
:1056E00096E00E9445408091C00085FFFCCF8AE093
:1056F0008093C600FE018491E4EBF7E0882349F033
:105700009091C00095FFFCCF8093C60031968491A4
:10571000F5CFE7E0F6E08491882341F09091C00056
:1057200095FFFCCF8093C6003196F5CF8091C000E5
:1057300085FFFCCF8AE08093C600FE018491E4EBF4
:10574000F7E0882349F09091C00095FFFCCF80934B
:10575000C60031968491F5CF40917D1850917E1806
:1057600060917F18709180188EEF95E00E944540FF
:10577000409181185091821860918318709184181B
:105780008BEF95E00E9445404091791850917A182E
:1057900060917B1870917C1888EF95E00E943540ED
:1057A00040915D1850915E1860915F18709160187B
:1057B00085EF95E00E9445404091591850915A1844
:1057C00060915B1870915C1882EF95E00E944540F3
:1057D000409155185091561860915718709158186B
:1057E0008FEE95E00E9445408091C00085FFFCCF80
:1057F0008AE08093C600FE018491E4EBF7E0882301
:1058000049F09091C00095FFFCCF8093C60031967F
:105810008491F5CFEDEDF5E08491882341F09091EE
:10582000C00095FFFCCF8093C6003196F5CF8091E4
:10583000C00085FFFCCF8AE08093C600FE01849102
:10584000E4EBF7E0882349F09091C00095FFFCCF8E
:105850008093C60031968491F5CF409105195091FF
:105860000619609107197091081984ED95E00E945E
:1058700045404091091950910A1960910B19709196
:105880000C1981ED95E00E94454040910D19509111
:105890000E1960910F19709110198EEC95E00E940D
:1058A00045408091C00085FFFCCF8AE08093C60010
:1058B000FE018491E4EBF7E0882349F09091C00069
:1058C00095FFFCCF8093C60031968491F5CFE0EC34
:1058D000F5E08491882341F09091C00095FFFCCFC2
:1058E0008093C6003196F5CF8091C00085FFFCCF34
:1058F0008AE08093C600FE018491E4EBF7E0882300
:1059000049F09091C00095FFFCCF8093C60031967E
:105910008491F5CF40912B0250912C0260912D0281
:1059200070912E0286EB95E00E9445402DEB37E307
:1059300046E05EE36091270270912802809129027F
:1059400090912A020E94D1C2AB01BC0183EB95E089
:105950000E9445402DEB37E346E05EE36091230271
:105960007091240280912502909126020E9468B6CF
:10597000AB01BC0180EB95E00E9445408091C000E6
:1059800085FFFCCF8AE08093C600FE018491E4EBA2
:10599000F7E0882349F09091C00095FFFCCF8093F9
:1059A000C60031968491F5CFEDE9F5E08491882326
:1059B00041F09091C00095FFFCCF8093C6003196D6
:1059C000F5CF8091C00085FFFCCF8AE08093C600B0
:1059D00040915B1050915C1060915D1070915E1071
:1059E00089E995E00E9445408091C00085FFFCCF89
:1059F0008AE08093C600FE018491E4EBF7E08823FF
:105A000049F09091C00095FFFCCF8093C60031967D
:105A10008491F5CFE8E8F5E08491882341F09091F6
:105A2000C00095FFFCCF8093C6003196F5CF8091E2
:105A3000C00085FFFCCF8AE08093C60040917710BC
:105A4000509178106091791070917A1084E895E007
:105A50000E9445408091C00085FFFCCF8AE0809382
:105A6000C600FE01C491E4EBF7E0CC2349F080913D
:105A7000C00085FFFCCFC093C6003196C491F5CF1E
:105A8000E3E7F5E08491882341F09091C00095FF11
:105A9000FCCF8093C6003196F5CF8091C00085FF82
:105AA000FCCF8AE08093C60040916C0B50916D0B47
:105AB00060916E0B70916F0B8FE695E00E944540F0
:105AC0008091C00085FFFCCF8AE08093C600E7EE9E
:105AD000F3E08191882339F09091C00095FFFCCFCD
