:100000000C94EB0B0C941C0C0C941C0C0C941C0C02
:100010000C941C0C0C941C0C0C941C0C0C941C0CC0
:100020000C941C0C0C941C0C0C941C0C0C941C0CB0
:100030000C941C0C0C941C0C0C941C0C0C941C0CA0
:100040000C941C0C0C940E7B0C941C0C0C941C0C2F
:100050000C941C0C0C941C0C0C94F9630C9497627B
:100060000C941C0C0C94FC360C941C0C0C941C0C66
:100070000C941C0C0C941C0C0C941C0C0C941C0C60
:100080000C941C0C0C941C0C0C941C0C0C941C0C50
:100090000C941C0C0C941C0C0C941C0C0C941C0C40
:1000A0000C941C0C0C941C0C0C941C0C0C941C0C30
:1000B0000C941C0C0C941C0C0C941C0C0C941C0C20
:1000C0000C941C0C0C941C0C0C941C0C0C949E9FFB
:1000D0000C94759F0C941C0C0C941C0C0C941C0C14
:1000E0000C941C0C5CBCF6BC52BC49BD3FBCF9BCBA
:1000F00022BD1CBD1FBD1FBD1FBD1FBD1FBDB361E8
:10010000B861BD61C761D1614A62DB61E361EB61E6
:10011000F561FF610962186222624A622C623662EE
:1001200040625E646B6487649464AE64BB64D5644F
:10013000D764239D269D159D199D1F9D5D9D2A9D1C
:100140002E9D349D389D3C9D429D469D4A9D5D9DC2
:10015000509D549D589D084AD73B3BCE016E84BCB0
:10016000BFFDC12F3D6C74319ABD56833DDA3D0011
:10017000C77F11BED9E4BB4C3E916BAAAABE00005A
:1001800000803F05A84CCDB2D44EB93836A9020C38
:1001900050B9918688083CA6AAAA2ABE0000008011
:1001A0003F004E414E494E495459494E46CDCCCC64
:1001B0003D0AD7233C17B7D13877CC2B329595E63B
:1001C000241FB14F0A000020410000C84200401C1B
:1001D0004620BCBE4CCA1B0E5AAEC59D7400407A68
:1001E00010F35A00A0724E18090010A5D4E80000C0
:1001F000E87648170000E40B54020000CA9A3B005E
:100200000000E1F505000080969800000040420FD4
:10021000000000A08601000000102700000000E898
:1002200003000000006400000000000A000000005D
:10023000000100000000002C76D888DC674F0823FE
:10024000DFC1DFAE59E1B1B796E5E3E453C63AE664
:1002500051997696E8E6C28426EB898C9B62ED4044
:100260007C6FFCEFBC9C9F40F2BAA56FA5F4900593
:100270005A2AF75C936B6CF9676DC11BFCE0E40DC7
:1002800047FEF520E6B500D0ED902E0300943577BB
:10029000050080841E080000204E0A000000C80CE3
:1002A000333333330F986E12831141EF8D2114894C
:1002B0003BE65516CFFEE6DB18D1844B381BF77CA6
:1002C0001D901DA4BBE424203284725E228100C9EB
:1002D000F124ECA1E53D272F005344207072696E94
:1002E00074696E67206279746520004E6F742053C4
:1002F00044207072696E74696E67002E0044656CEC
:100300006574696F6E206661696C65642C2046694E
:100310006C653A200046696C652064656C6574659F
:10032000643A002E006F70656E206661696C6564CA
:100330002C2046696C653A20005049442041757470
:100340006F74756E652066696E69736865642120D7
:1003500050757420746865204B702C204B692061A7
:100360006E64204B6420636F6E7374616E747320CF
:10037000696E746F20436F6E666967757261746928
:100380006F6E2E6800504944204175746F74756E0D
:1003900065206661696C6564212074696D656F759F
:1003A000740020403A006F6B20543A006F6B20427B
:1003B0003A00504944204175746F74756E6520662B
:1003C00061696C6564212054656D70657261747536
:1003D000726520746F6F206869676800204B643A0B
:1003E0002000204B693A2000204B703A2000204327
:1003F0006C617369632050494420002054753A2091
:1004000000204B753A2000206D61783A2000206D65
:10041000696E3A200020643A200020626961733AD4
:1004200020002200556E6B6E6F776E20636F6D6DCE
:10043000616E643A202200486F74656E64206F66B6
:1004400066736574733A007A5F6D696E3A2000795D
:100450005F6D696E3A2000785F6D61783A200078B0
:100460005F6D696E3A20005A3A00593A0020436F96
:10047000756E7420583A2000453A005A3A00593AAD
:1004800000583A004649524D574152455F4E414D42
:10049000453A4D61726C696E2056313B2053707243
:1004A000696E7465722F6772626C206D6173687516
:1004B0007020666F722067656E36204649524D5730
:1004C0004152455F55524C3A687474703A2F2F77F9
:1004D00077772E6D656E64656C2D70617274732E06
:1004E000636F6D2050524F544F434F4C5F564552EF
:1004F00053494F4E3A312E302E30204D414348491A
:100500004E455F545950453A3344205072696E74D9
:1005100065722045585452554445525F434F554EDD
:10052000543A320A002042403A0020403A00202F3C
:100530000020423A00202F006F6B20543A002569BA
:10054000206D696E2C2025692073656300456E64FB
:100550002066696C65206C69737400426567696E1A
:100560002066696C65206C697374006563686F3A16
:1005700000256920686F757273202569206D696E8A
:100580007574657300446F6E65207072696E74696E
:100590006E672066696C65005072696E74657220C2
:1005A00073746F707065642064756520746F206566
:1005B00072726F72732E20466978207468652065A8
:1005C00072726F7220616E6420757365204D3939C7
:1005D0003920746F20726573746172742E202854F0
:1005E000656D7065726174757265206973207265DE
:1005F0007365742E20536574206974206166746578
:10060000722072657374617274696E6729004E6F2F
:10061000204C696E65204E756D6265722077697435
:100620006820636865636B73756D2C204C6173740F
:10063000204C696E653A20004E6F20436865636BFD
:1006400073756D2077697468206C696E65206E75AE
:100650006D6265722C204C617374204C696E653A32
:100660002000636865636B73756D206D69736D61E0
:100670007463682C204C617374204C696E653A2059
:10068000004C696E65204E756D626572206973203D
:100690006E6F74204C617374204C696E65204E75CA
:1006A0006D6265722B312C204C617374204C696E25
:1006B000653A20004572726F723A004D3131300058
:1006C0006572726F722077726974696E6720746FD9
:1006D0002066696C6500205A3A0020593A0020587B
:1006E0003A00656E6473746F7073206869743A20A1
:1006F000006563686F3A00446F6E652073617669C8
:100700006E672066696C652E006F6B004D32390094
:1007100053657474696E67732053746F72656400F7
:100720005A323A00457874656E646572204F666689
:100730007365743A0059323A00457874656E6465A1
:1007400072204F66667365743A0058323A005365FA
:10075000636F6E64657279204D617820506F733AD3
:10076000002044002049002020204D33303120500B
:10077000005049442073657474696E67733A0020B1
:100780005A0020590020204D323036205800486F42
:100790006D65206F666673657420286D6D293A005B
:1007A000204500205A0020580020420020540020FC
:1007B000204D323035205300416476616E636564AC
:1007C000207661726961626C65733A20533D4D69B0
:1007D0006E20666565647261746520286D6D2F7387
:1007E000292C20543D4D696E2074726176656C2011
:1007F000666565647261746520286D6D2F73292CA0
:1008000020423D6D696E696D756D207365676D651C
:100810006E742074696D6520286D73292C20583DF5
:100820006D6178696D756D205859206A65726B200D
:10083000286D6D2F73292C20205A3D6D6178696DCC
:10084000756D205A206A65726B20286D6D2F732993
:100850002C2020453D6D6178696D756D2045206ABD
:1008600065726B20286D6D2F7329002054002020A5
:100870004D323034205300416363656C657261749E
:10088000696F6E3A20533D616363656C6572617494
:10089000696F6E2C20543D726574726163742061BF
:1008A0006363656C65726174696F6E00204500203A
:1008B0005A0020590020204D3230312058004D611F
:1008C00078696D756D20416363656C6572617469EB
:1008D0006F6E20286D6D2F7332293A00204500205D
:1008E0005A0020590020204D3230332058004D61ED
:1008F00078696D756D2066656564726174657320D5
:10090000286D6D2F73293A00204500205A00205988
:100910000020204D393220580053746570732070C8
:10092000657220756E69743A0053746F7265642045
:1009300073657474696E6773207265747269657625
:1009400065640048617264636F6465642044656631
:1009500061756C742053657474696E6773204C6F95
:1009600061646564006563686F3A005344206361A5
:100970007264206F6B006F70656E526F6F742066CB
:1009800061696C656400766F6C756D652E696E6962
:1009900074206661696C6564004572726F723A001A
:1009A000534420696E6974206661696C00656368F0
:1009B0006F3A004D3234004D32332025730061759B
:1009C000746F25692E670020573A0020453A00547D
:1009D0003A007C3C3E5E2B3D3F2F5B5D3B2C2A2248
:1009E0005C000080FC4300000244008018440000CA
:1009F00048C20000000000000000486F74656E648B
:100A0000206F6666736574733A0020423A00204591
:100A10003A00543A004732382058004D31303331D3
:100A2000004732382058004D363035205331004DC4
:100A300031303333005072696E7465722068616CB6
:100A40007465642E206B696C6C28292063616C6C62
:100A5000656421005072696E7465722073746F70E2
:100A60007065642064756520746F206572726F72A2
:100A7000732E2046697820746865206572726F72E3
:100A800020616E6420757365204D39393920746F8B
:100A900020726573746172742E202854656D7065C0
:100AA0007261747572652069732072657365742E46
:100AB00020536574206974206166746572207265C4
:100AC0007374617274696E672900000048C2000087
:100AD0000000000000002020506C616E6E657242C4
:100AE000756666657242797465733A2000204672B5
:100AF0006565204D656D6F72793A2000446563200D
:100B00003233203230323000436F6D70696C65646F
:100B10003A200054656E6C6F6700207C204175742C
:100B2000686F723A200044656320323320323032DD
:100B3000302031393A30373A323300204C61737407
:100B400020557064617465643A2000312E302E3176
:100B500035004D61726C696E200020536F667477AA
:100B60006172652052657365740020576174636813
:100B7000646F67205265736574002042726F776EF0
:100B8000206F757420526573657400204578746514
:100B9000726E616C20526573657400506F77657278
:100BA0005570007374617274003A204578747275E0
:100BB000646572207377697463686564206F666624
:100BC0002E204D415854454D502074726967676519
:100BD0007265642021003A204578747275646572EC
:100BE000207377697463686564206F66662E204D94
:100BF000494E54454D50207472696767657265644B
:100C000020210054656D706572617475726520688D
:100C100065617465642062656420737769746368D4
:100C20006564206F66662E204D415854454D502016
:100C30007472696767657265642021210054656D6F
:100C40007065726174757265206865617465642091
:100C5000626564207377697463686564206F666693
:100C60002E204D494E54454D50207472696767657A
:100C7000726564202121004572726F723A0047321A
:100C8000382058004D363035205331005430005450
:100C900031002200656E717565696E672022002241
:100CA00000656E717565696E6720220024F4D4308A
:100CB00050C38E20C2A24017828B7011127A910D00
:100CC000816CD90AA861E108C758660761514306DB
:100CD0001E4B5D05C145A7041A411104093D980347
:100CE000713931034036DB0265339102D43054024E
:100CF000802E1D02632CEE01752AC501B028A001CB
:100D0000102781018F2564012B244B01E02234013F
:100D1000AC211F018D200D01801FFC00841EED0001
:100D2000971DDF00B81CD200E61BC600201BBC00CC
:100D3000641AB200B219A8000A19A0006A18990032
:100D4000D117910040178B00B516840031167E0034
:100D5000B31579003A157300C7146F0058146A0070
:100D6000EE1366008813630025135E00C7125B0054
:100D70006C12570015125400C111510070114F0030
:100D800021114B00D61049008D1047004610440039
:100D900002104200C00F4000800F3E00420F3C0096
:100DA000060F3B00CB0E3800930E37005C0E35006B
:100DB000270E3400F30D3200C10D3100900D3000CC
:100DC000600D2E00320D2D00050D2C00D90C2B00CE
:100DD000AE0C2900850C29005C0C2700350C27007F
:100DE0000E0C2600E80B2400C40B2400A00B2300EB
:100DF0007D0B23005A0B2100390B2100180B20001A
:100E0000F80A1F00D90A1E00BB0A1E009D0A1D0019
:100E1000800A1D00630A1C00470A1B002C0A1B00E5
:100E2000110A1A00F7091A00DD091900C40919008E
:100E3000AB091900920917007B0918006309170014
:100E40004C09160036091600200916000A0915007B
:100E5000F5081500E0081400CC081400B8081400C8
:100E6000A4081400900813007D0812006B081300FA
:100E70005808120046081200340811002308110017
:100E80001208110001081100F0071000E00710001F
:100E9000D0071000C0071000B0070F00A107100016
:100EA00091070E0083070F0074070F0065070E00FF
:100EB00057070E0049070E003B070D002E070E00D6
:100EC00020070D0013070D0006070D00F9060C00A2
:100ED000ED060D00E0060C00D4060C00C8060C0060
:100EE000BC060C00B0060C00A4060B0099060C0012
:100EF0008D060B0082060B0077060B006C060B00BC
:100F000061060A0057060B004C060A0042060A005A
:100F100038060A002E060A0024060A001A060A00ED
:100F20001006090007060A00FD050900F40509007E
:100F3000EB050900E2050900D9050900D005090003
:100F4000C7050900BE050900B5050800AD05080084
:100F5000A50509009C050800940508008C050800FB
:100F6000840508007C050800740508006C0507006E
:100F7000650508005D050700560508004E050700D9
:100F80004705070040050800380507003105070040
:100F90002A050700230507001C05060016050700A3
:100FA0000F0507000805060002050700FB04060000
:100FB000F5040700EE040600E8040600E20407005A
:100FC000DB040600D5040600CF040600C9040600B1
:100FD000C3040600BD040600B7040600B104050002
:100FE000AC040600A6040600A00405009B0406004D
:100FF00095040500900406008A0405008504050098
:10100000800406007A0405007504050070040500DC
:101010006B04050066040500610405005C0405001E
:1010200057040500520405004D040500480405005E
:10103000430405003E0404003A040500350405009D
:10104000300404002C0405002704040023040500D8
:101050001E0404001A040400160405001104040010
:101060000D04040009040500040404000004040045
:10107000FC030400F8030400F4030400F00304007C
:10108000EC030400E8030400E4030400E0030400AC
:10109000DC030400D8030400D4030400D0030400DC
:1010A000CC030400C8030300C503030024F404D9DF
:1010B000201BC40C5C0E9804C4095F026507710113
:1010C000F405F900FB04B30048048700C10369007C
:1010D0005803550003034500BE023A008402310064
:1010E00053022A002902250004022000E4011C000A
:1010F000C8011900AF011700980114008401130002
:10110000710110006101100051010E0043010D003A
:1011100036010B002B010B0020010B00150109000B
:101120000C01090003010800FB000800F30008009F
:10113000EB000700E4000600DE000600D800060011
:10114000D2000600CC000500C7000500C200050063
:10115000BD000400B9000400B5000400B1000400A3
:10116000AD000400A9000400A5000300A2000300D4
:101170009F0004009B0003009800030095000200FC
:1011800093000300900003008D0002008B00030019
:101190008800020086000200840003008100020033
:1011A0007F0002007D0002007B0002007900020047
:1011B0007700010076000200740002007200010056
:1011C000710002006F0002006D0001006C0002005F
:1011D0006A0001006900020067000100660001006A
:1011E000650001006400020062000100610001006E
:1011F000600001005F0002005D0001005C00010072
:101200005B0001005A000100590001005800010074
:101210005700010056000100550001005400010074
:101220005300000053000100520001005100010072
:10123000500001004F0001004E0000004E00010070
:101240004D0001004C0001004B0000004B0001006C
:101250004A00010049000100480000004800010068
:101260004700010046000000460001004500000064
:10127000450001004400010043000000430001005C
:101280004200000042000100410000004100010056
:10129000400001003F0000003F0001003E00000050
:1012A0003E0001003D0000003D0001003C00000048
:1012B0003C0000003C0001003B0000003B0001003E
:1012C0003A0000003A000100390000003900010036
:1012D000380000003800000038000100370000002E
:1012E0003700010036000000360000003600010023
:1012F000350000003500000035000100340000001A
:10130000340000003400010033000000330000000E
:101310003300010032000000320000003200010002
:1013200031000000310000003100010030000000F9
:1013300030000000300001002F0000002F000000EE
:101340002F0000002F0001002E0000002E000000E2
:101350002E0001002D0000002D0000002D000000D7
:101360002D0001002C0000002C0000002C000000CB
:101370002C0001002B0000002B0000002B000000BF
:101380002B0001002A0000002A0000002A000000B3
:101390002A000100290000002900000029000000A7
:1013A000290000002900010028000000280000009A
:1013B000280000002800000028000100270000008D
:1013C0002700000027000000270000002700010080
:1013D0002600000026000000260000002600000075
:1013E0002600010025000000250000002500000067
:1013F0002500000025000000250001002400000059
:10140000240000002400000024000000240001004B
:101410002300000023000000230000002300000040
:101420002300000023000000230001002200000030
:101430002200000022000000220000002200000024
:101440002200010021000000210000002100000016
:101450002100000021000000210000002100010007
:1014600020000000200000002000000020000000FC
:1014700020000000200000002000000020000100EB
:101480001F0000001F0000001F0000001F000000E0
:101490001F0000001F0000001F0001001E000000D0
:1014A0001E0000001E0000001E0000004E65772098
:1014B00056616C7565204572722000257300577265
:1014C0006974696E6720746F2066696C653A2000E4
:1014D0002E006F70656E206661696C65642C204615
:1014E000696C653A20002E006F70656E2066616938
:1014F0006C65642C2046696C653A200046696C6511
:101500002073656C6563746564002053697A653A7D
:10151000200046696C65206F70656E65643A200036
:101520002E006F70656E206661696C65642C2046C4
:10153000696C653A20000000404000004040000017
:10154000003F20746F6F206C6F6E67206578747237
:101550007573696F6E2070726576656E7465640070
:1015600020636F6C6420657874727573696F6E2088
:1015700070726576656E746564006563686F3A00C5
:1015800000002100240027002A002D003000330035
:1015900001010000040107010A01000022002500EA
:1015A00028002B002E00310034000201000005014C
:1015B00008010B01000020002300260029002C0058
:1015C0002F0032000001000003010601090105059A
:1015D0000505070508080808020202020A0A0808A9
:1015E00004040404010101010101010103030303D7
:1015F00003030303040707070C0C0C0C0C0C0C0C66
:101600000202020206060606060606060B0B0B0B76
:101610000B0B0B0B0102102020080810204010209B
:1016200040800201020108040201010204081020A6
:1016300040808040201008040201800402018040A4
:10164000201008040201080402010102040810200D
:101650004080010204081020408000000A0B0209AB
:101660000C0D0E080703040100000000000000003C
:10167000000000000000000000000000000000006A
:101680000000000000001211100000000000000027
:10169000000000000000000000000000000000004A
:1016A0006563686F3A00202D20496E76616C69642D
:1016B000206578747275646572206E756D626572EE
:1016C00020210070012C0190012701B0012201C0EE
:1016D000011D01F00118011002130130020E01601A
:1016E00002090190020401C002FF000003FA004059
:1016F00003F5008003F000D003EB002004E6007047
:1017000004E100E004DC004005D700C005D2004041
:1017100006CD00D006C8008007C3003008BE00F028
:1017200008B900C009B400B00AAF00B00BAA00D0DD
:101730000CA500000EA000500F9B00C0109600509A
:1017400012910000148C00C0158700B0178200B001
:10175000197D00D01B7800001E730040206E0090A1
:10176000226900F024640040275F0090295A00E0BD
:101770002B5500102E500020304B0010324600E058
:1017800033410090353C001037370070383200A0EC
:10179000392D00B03A2800A03B2300603C1E001009
:1017A0003D1900903D1400103E0F00703E0A00C02D
:1017B0003E0500003F0000FFFFFF00C00A4400009C
:1017C000024400801844526573656E643A20006FCD
:1017D0006B00BAB37EB311241FBECFEFD1E2DEBFE0
:1017E000CDBF00E00CBF15E0A0E0B2E0E6E1F4EA16
:1017F00001E00BBF02C007900D92AC37B107D9F7DB
:1018000028E1ACE7B5E001C01D92A432B207E1F7D0
:101810001BE0CAEEDBE000E006C021970109802F43
:10182000FE010E9497D0C93ED10780E00807A9F7C2
:101830000E94DBAA0C94FAD10C9400002F923F92E4
:101840004F925F926F927F928F929F92AF92BF92D0
:10185000CF92DF92EF92FF920F931F93CF93DF937C
:10186000CDB7DEB7C956D1090FB6F894DEBF0FBEAB
:10187000CDBF80912E06882341F00E94E285109210
:10188000E00A1092DF0A10922E0687E40E940E3BB7
:10189000D82E882309F48EC00E94343B0E9424CEA7
:1018A0006430710509F476C0F4F46230710509F40E
:1018B0005EC00CF064C077FF02C00C94D81C812C71
:1018C000912CA0E8AA2EAFE4BA2EA3ECCA2EA7EC66
:1018D000DA2E86017501A6019501C601B5010E94A7
:1018E000643C0C94D81C6A35710509F45AC02CF577
:1018F0006C31710511F00C94D81C6FE672E183E82D
:101900009AE30E943E436FE672E183E89AE30E9405
:101910003E436FE672E183E89AE30E943E436FE63E
:1019200072E183E89AE30E943E4360E070E080E069
:1019300090E00E9418A60C94D81C6B357105A9F193
:101940006C35710511F00C94D81CF0E8AF2EFFE453
:10195000BF2EF3ECCF2EF7ECDF2E86017501A6012A
:101960009501C601B5010E9405420C94D81C8091D6
:101970001306811104C00E945D5A81E007C0809166
:101980001306811107C00E945D5A80E00E94DD505D
:101990000C94F31E60E070E0CB010E943E430C9477
:1019A000D81C1092050D0C94D81C81E08093050D75
:1019B0000C94D81C8DE40E940E3B882311F40C94E7
:1019C0008A1C0E94343B0E9424CE6537710509F4BD
:1019D000FBC60CF0BDC06032710509F431C40CF0D7
:1019E00054C06731710509F4EAC1BCF56231710573
:1019F00009F419C624F577FF02C00C94D81C623094
:101A000071050CF47AC16131710511F00C94D81C88
:101A10005F9847988A989FB7F894809108018E7FC5
:101A2000809308019FBF9FB7F894809108018B7F36
:101A3000809308019FBF8D9812980C94D81C653133
:101A4000710509F4B0C10CF0B2C16431710511F037
:101A50000C94D81CEBE5F5E05DC16B31710509F420
:101A6000F3C13CF46931710509F4DAC10CF4C2C167
:101A7000DDC16E31710509F471C20CF059C46C31CD
:101A8000710509F435C20C94D81C6C35710509F444
:101A900004C69CF56235710509F4BCC564F4603573
:101AA000710509F4ADC50CF0AFC56A32710509F4D2
:101AB00099C40C94D81C6435710509F4B4C50CF4B0
:101AC000ADC56535710511F00C94D81C83E50E94F5
:101AD0000E3B0E94343B20E030E04AE754E40E9491
:101AE00062C10E942ACE60930E0D70930F0D8093F9
:101AF000100D9093110D0C94D81C6B36710509F4E0
:101B000079C59CF46936710509F49BC40CF042C593
:101B10006836710511F00C94D81C6FEF7FEF8FEFD2
:101B20009FEF0E9459300C94D81C6237710509F45C
:101B30005DC66337710509F438C66D36710511F05D
:101B40000C94D81C8FEF9FEF0E947E2D0C94D81C14
:101B50006E3221E0720711F40C9409180CF053C096
:101B60006C3C710511F40C94C21544F56C38710588
:101B700009F456C484F46837710509F415C7693748
:101B8000710509F416C76737710511F00C94D81C5C
:101B9000E8EEF2E018C7693C710509F4B5C76B3C83
:101BA000710509F4D2C76E3B710511F00C94D81C75
:101BB0008FEF9FEF0E943D3B0C94D81C6C3D71054C
:101BC00011F40C94231774F46E3C710511F40C9409
:101BD00040160CF4F7C76A3D710511F40C945D16BC
:101BE0000C94D81C623E710509F49CC36D3241E02F
:101BF000740711F40C9441176D3D710511F00C94AC
:101C0000D81C0C943217603A53E0750709F451C39D
:101C100074F5653F91E0790711F40C94571B9CF41F
:101C20006039B1E07B0711F40C94521B643FE1E092
:101C30007E0711F40C94551B6F32714011F00C9417
:101C4000D81C0C941D18673F21E0720711F40C9406
:101C50005F1B14F40C945A1B6D35724011F00C94F8
:101C6000D81C8FEF9FEF0E9402410C94D81C683063
:101C700054E0750711F40C94841B54F5693E93E00D
:101C8000790711F40C94611B6730A4E07A0711F412
:101C90000C94321C673E734011F00C94D81C1092C7
:101CA00013068091120D9091130DA091140DB09117
:101CB000150D8093140690931506A0931606B09305
:101CC00017060E94AEAAE0E0F0E019950C94D81C2B
:101CD0006031E4E07E0711F40C94371C6A31F4E0C3
:101CE0007F0711F40C945F1C6930744011F00C9460
:101CF000D81C0E94484E0C94D81C81E090E00E94B1
:101D0000374F0C94D81C9091C00095FFFCCF809366
:101D1000C600319684918111F6CF8091C00085FF75
:101D2000FCCF8AE08093C6001092D50C1092D40CA0
:101D300040E050E0BA0189E19BE00E945C778BE1D2
:101D4000E9E1FBE0DE01159601900D928A95E1F73D
:101D50008091170B9091180B9C838B838BEC92E0F6
:101D60009A838983BE016F5F7F4F8EE495E00E9466
:101D70005B84CE0101960E941975EDE4F5E0849133
:101D8000882341F09091C00095FFFCCF8093C6005E
:101D90003196F5CF8091C00085FFFCCF8AE080931B
:101DA000C6000C94D81C0E94E62B0C94D81C1092F0
:101DB000E00A1092DF0A1092E10A0C94D81CE0901D
:101DC0001806F090190634E0E30EF11C6AE270E0A8
:101DD000C7010E94C2D1009719F0FC01319710820F
:101DE00000E010E0980141E0B701C7010E94EF85D3
:101DF0000C94D81C8091E10A882331F081E090E0B6
:101E00009093E00A8093DF0A0E948B6260938705BB
:101E1000709388058093890590938A050C94D81C4B
:101E200081E090E00E94374F0C94D81C8091E10A29
:101E3000882311F40C94D81C83E50E940E3B811179
:101E40000C94DB1C0C94D81C8091E10A882309F4C3
:101E500039C0E9EDF2E08491882341F09091C0000F
:101E600095FFFCCF8093C6003196F5CF60910D0BA6
:101E700070910E0B80910F0B9091100B4AE00E9415
:101E80004929E7EDF2E08491882341F09091C00068
:101E900095FFFCCF8093C6003196F5CF6091110B72
:101EA0007091120B8091130B9091140B4AE00E94D9
:101EB00049298091C00085FFFCCF8AE08093C6004D
:101EC0000C94D81CEBEEF2E08491882341F09091C1
:101ED000C00095FFFCCF8093C6003196F5CF80916E
:101EE000C00085FFFCCF8AE08093C6000C94D81C0C
:101EF00080911806909119066AE270E004960E949B
:101F0000C2D18C01892BE1F02091B1073091B20749
:101F100040E6429FC001439F900D11246EE470E0A3
:101F20008F5C994F0E94C2D160E270E00E94C2D1E2
:101F300001969093190680931806F8013197108244
:101F40008091180690911906049600E010E098011F
:101F500040E0BC010E94EF850C94D81C8091E10AFE
:101F6000882311F40C94D81C0E94E28580911806F5
:101F7000909119066AE270E004960E94C2D18C0129
:101F8000892BE1F02091B1073091B20740E6429FE2
:101F9000C001439F900D11246EE470E08F5C994F57
:101FA0000E94C2D160E270E00E94C2D1019690937B
:101FB000190680931806F8013197108200911806CF
:101FC000109119068091E10A882311F40C94D81C11
:101FD000480144E0840E911C84EB9CE00E94A731F0
:101FE0001092E00A1092DF0ACE0101967C010E9455
:101FF000217585E19BE09093350B8093340BD801DC
:1020000014968C918F3209F08BC06FE270E0C4019E
:102010000E94C2D18C010F5F1F4FEAE0CE2E011546
:10202000110509F483C06FE270E0C8010E94C2D1BB
:102030005C01009709F47BC00817190708F077C006
:102040003C01601A710AA301B801CE0180960E947A
:10205000EBD1E0E2F0E0EC0FFD1FE60DF71D108282
:102060008E01005E1F4FF8018191882339F0909115
:10207000C00095FFFCCF8093C600F6CF8091C000D2
:1020800085FFFCCFC092C6006091340B7091350B78
:102090006115710511F06C5F7F4F21E0AE01405E6C
:1020A0005F4FCE0105960E94BB35811131C0E5E23C
:1020B000F3E08491882371F09091C00095FFFCCFEC
:1020C0008093C6003196F5CF9091C00095FFFCCF6C
:1020D0008093C600F80181918F018111F5CFE3E271
:1020E000F3E08491882341F09091C00095FFFCCFEC
:1020F0008093C6003196F5CF8091C00085FFFCCF5C
:102100008AE08093C600C7010E9419750C94D81C00
:10211000F092350BE092340B85010F5F1F4F7FCF9C
:1021200086E39BE09093350B8093340B84016091A0
:10213000340B7091350B6115710511F06C5F7F4F99
:1021400018A21BA222E0A801CE0180960E94BB35F6
:102150008823F1F0CE0180960E947A2A8823C1F06C
:102160006CA57DA58EA59FA541E00E946B75882377
:1021700079F0E8A920E2E29FF0011124EF53F84F33
:10218000309731F085EE80831BA20E942B75D82EEC
:10219000CE0180960E94B532DD2009F1E5E1F3E041
:1021A0008491882341F09091C00095FFFCCF8093EB
:1021B000C6003196F5CFF8018191882339F09091CE
:1021C000C00095FFFCCF8093C600F6CF10920D0B98
:1021D00010920E0B10920F0B1092100B2CC0EDEF03
:1021E000F2E08491882341F09091C00095FFFCCFEC
:1021F0008093C6003196F5CFF8018191882339F09C
:102200009091C00095FFFCCF8093C600F6CFEBEF16
:10221000F2E08491882341F09091C00095FFFCCFBB
:102220008093C6003196F5CF8091C00085FFFCCF2A
:102230008AE08093C600C7010E9419750C94D81CCF
:102240008091DF0A9091E00A019721F40E940BA689
:102250000E94E285E0901806F090190634E0E30E43
:10226000F11C6AE270E0C7010E94C2D1009719F028
:10227000FC013197108200E010E0980141E0B701C5
:10228000C7010E94EF858091E10A882331F081E047
:1022900090E09093E00A8093DF0A0E948B62609343
:1022A0008705709388058093890590938A050C941F
:1022B000D81C80911806909119066AE270E0059684
:1022C0000E94C2D18C01892BE1F02091B10730919D
:1022D000B20740E6429FC001439F900D11246EE477
:1022E00070E08F5C994F0E94C2D160E270E00E9462
:1022F000C2D101969093190680931806F801319780
:1023000010828091180690911906059621E020937D
:10231000DE0A00E010E0980140E0BC010E94EF8579
:102320000C94D81C81E090E00E94374F0C94D81C8C
:102330000E948B6260938B0570938C0580938D0552
:1023400090938E050091870510918805209189054D
:1023500030918A05601B710B820B930B28EE33E0E2
:1023600040E050E00E9489CCCA01B9012CE330E082
:1023700040E050E00E9489CC7F936F933F932F936E
:102380008EE395E09F938F938E010F5F1F4F1F93F6
:102390000F930E94BEC6EBE6F5E084910FB6F89469
:1023A000DEBF0FBECDBF882349F09091C00095FFDE
:1023B000FCCF8093C60031968491F5CFF8018191CE
:1023C000882339F09091C00095FFFCCF8093C60020
:1023D000F6CF8091C00085FFFCCF8AE08093C600D5
:1023E0000C94D81C83E50E940E3B882311F40C94B6
:1023F000D81C0E94343B6B017C0180E50E940E3B9F
:10240000882311F40C94D81CC701B6010E9424CE75
:102410006F3F710509F010F40C94EC1C0C94D81C5F
:1024200083E50E940E3B882311F40C94D81C0E9473
:10243000343B0E9424CE7093300660932F060C9498
:10244000D81C89E690E00E94834F81110C94D81C1F
:10245000E8E3F5E08491882341F09091C00095FF76
:10246000FCCF8093C6003196F5CFE091160D54E075
:10247000E59FF0011124EA5BF24F60817181828156
:10248000938141E00E94D029E5E3F5E0849188231F
:1024900041F09091C00095FFFCCF8093C60031962B
:1024A000F5CFE091160DF0E0EE0FFF1FE452FD4E68
:1024B00060817181072E000C880B990B0E94F3C676
:1024C00041E00E94D029E1E3F5E08491882341F0C6
:1024D0009091C00095FFFCCF8093C6003196F5CF58
:1024E0006091360D7091370D8091380D9091390DB6
:1024F00041E00E94D029EEE2F5E08491882341F08A
:102500009091C00095FFFCCF8093C6003196F5CF27
:1025100060912F0670913006072E000C880B990BE6
:102520000E94F3C641E00E94D029EAE2F5E08491DE
:10253000882341F09091C00095FFFCCF8093C600A6
:102540003196F5CFE091160DF0E0EA5AF24F608136
:1025500070E080E090E00E94BE29E5E2F5E0849121
:10256000882341F09091C00095FFFCCF8093C60076
:102570003196F5CF6091550D70E080E090E00E94BB
:10258000BE298091C00085FFFCCF8AE08093C60001
:102590000C94F31E83E50E940E3B882319F10E94E0
:1025A000343B20E030E0A9010E94EDC687FD0FC05A
:1025B0000E94343B20E030E04FE753E40E9410CF0C
:1025C000181644F00E94343B0E9424CE05C060E0FF
:1025D00070E002C06FEF70E070937D1760937C171E
:1025E0000C94D81C8FEF90E090937D1780937C170C
:1025F0000C94D81C10927D1710927C170C94D81C48
:10260000999AA19A0C94D81C61E080E00E94E53A66
:102610000C94D81C1092090D0C94D81C81E0809366
:10262000090D0C94D81C83E50E940E3B8823A1F071
:102630000E94343B20E030E04AE754E40E9462C14B
:102640000E942ACE60932302709324028093250275
:10265000909326020C94D81C88E50E940E3B8111B1
:102660000C94EF1C89E50E940E3B81110C94EF1C29
:102670008AE50E940E3B81110C94EF1C85E40E94B8
:102680000E3B81110C94EF1C0E940BA68D9A129A9E
:1026900081E00E94D4A50C94D81C51EC852E52E008
:1026A000952E02E113E164E3A62E67E1B62E82EBDC
:1026B0009DE09CAF8BAF312CD4018D914D010E94D8
:1026C0000E3B882309F45EC0B3E03B1254C00E9465
:1026D000343B2B013C0120E030E040EA51E40E9411
:1026E000EDC687FF41C0A3019201F80160817181AD
:1026F000828193810E94B3CD6B017C019B01AC016F
:1027000060912017709121178091221790912317C3
:102710000E9462C160932017709321178093221743
:1027200090932317A7019601D5016D917D918D910D
:102730009C910E9462C1F5016083718382839383BF
:10274000ABADBCAD6D917D918D919C910E94F1C618
:10275000A70196010E9462C10E942ACEEBADFCAD9A
:102760006083718382839383D8014D925D926D92D1
:102770007C92139707C00E94343BF80160837183F9
:102780008283938333940C5F1F4FF4E0AF0EB11C30
:102790002BAD3CAD2C5F3F4F3CAF2BAF34E0331241
:1027A0008BCF0E9451230C94D81CE4E8F4E0849170
:1027B000882311F40C94D81C9091C00095FFFCCF95
:1027C0008093C6003196F3CF809118069091190638
:1027D0006AE270E005960E94C2D1009711F40C9451
:1027E000D81CFC01319710820C94D81CE1E8F4E06D
:1027F0008491882341F09091C00095FFFCCF809395
:10280000C6003196F5CF6091F2127091F31280916B
:10281000F4129091F51242E00E94D029EEE7F4E024
:102820008491882341F09091C00095FFFCCF809364
:10283000C6003196F5CF6091F6127091F712809133
:10284000F8129091F91242E00E94D029EBE7F4E0EF
:102850008491882341F09091C00095FFFCCF809334
:10286000C6003196F5CF6091FA127091FB128091FB
:10287000FC129091FD1242E00E94D029E8E7F4E0BA
:102880008491882341F09091C00095FFFCCF809304
:10289000C6003196F5CF6091FE127091FF128091C3
:1028A00000139091011342E00E94D029EDE6F4E07C
:1028B0008491882341F09091C00095FFFCCF8093D4
:1028C000C6003196F5CF2FB7F8946091E21270915F
:1028D000E3128091E4129091E5122FBF0E94F3C69B
:1028E000209112133091131340911413509115132A
:1028F0000E94B3CD42E00E94D029EAE6F4E0849140
:10290000882341F09091C00095FFFCCF8093C600D2
:102910003196F5CF2FB7F8946091E6127091E712D7
:102920008091E8129091E9122FBF0E94F3C6209186
:1029300016133091171340911813509119130E94D8
:10294000B3CD42E00E94D029E7E6F4E084918823E9
:1029500041F09091C00095FFFCCF8093C600319666
:10296000F5CF2FB7F8946091EA127091EB12809135
:10297000EC129091ED122FBF0E94F3C620911A1312
:1029800030911B1340911C1350911D130E94B3CD25
:1029900042E00E94D0298091C00085FFFCCF8AE0F0
:1029A0008093C6000C94D81C80E00E94A9A50C94CA
:1029B000D81C81E00E94A9A5FBC79091C00095FF9B
:1029C000FCCF8093C60081918111F7CF8091C00028
:1029D00085FFFCCF8AE08093C600EFE5F4E08491A8
:1029E000882341F09091C00095FFFCCF8093C600F2
:1029F0003196F5CF659B03C0E9EDF2E009C0EEED3D
:102A0000F2E006C09091C00095FFFCCF8093C60015
:102A100081918111F7CF8091C00085FFFCCF8AE0C2
:102A20008093C600E7E5F4E08491882341F090911B
:102A3000C00095FFFCCF8093C6003196F5CF649B14
:102A400003C0E9EDF2E009C0EEEDF2E006C09091BE
:102A5000C00095FFFCCF8093C60081918111F7CF14
:102A60008091C00085FFFCCF8AE08093C600EFE430
:102A7000F4E08491882341F09091C00095FFFCCF51
:102A80008093C6003196F5CF8091030181FF03C08A
:102A9000E9EDF2E009C0EEEDF2E006C09091C00071
:102AA00095FFFCCF8093C60081918111F7CF809173
:102AB000C00085FFFCCF8AE08093C600E7E4F4E025
:102AC0008491882341F09091C00095FFFCCF8093C2
:102AD000C6003196F5CF4B9B03C0E9EDF2E009C08B
:102AE000EEEDF2E006C09091C00095FFFCCF809320
:102AF000C60081918111F7CF8091C00085FFFCCF86
:102B00008AE08093C60054C732ECE32E3DE0F32EFA
:102B100001EC12E044E0D42ED00ED8018D918D014D
:102B20000E940E3B882349F00E94343B0E942ACE2B
:102B3000F7016083718382839383F4E0EF0EF11CCD
:102B4000D012EBCF0E94F08333C794E3E92E97E1D4
:102B5000F92E01EC12E024E0D22ED00ED8018D9196
:102B60008D010E940E3B882339F00E94343BF7010F
:102B70006083718382839383F4E0EF0EF11CD012A3
:102B8000EDCF16C783E50E940E3B882351F00E94CB
:102B9000343B60932C1770932D1780932E179093CE
:102BA0002F1784E50E940E3B882309F401C70E9479
:102BB000343B6093301770933117809332179093A2
:102BC0003317F6C683E50E940E3B882351F00E941E
:102BD000343B609348177093491780934A1790933A
:102BE0004B1784E50E940E3B882351F00E94343B32
:102BF00060934C1770934D1780934E1790934F1717
:102C000082E40E940E3B882361F00E94343B0E94C4
:102C10002ACE60934417709345178093461790937C
:102C2000471788E50E940E3B882351F00E94343BF1
:102C3000609328177093291780932A1790932B1766
:102C40008AE50E940E3B882351F00E94343B60933A
:102C5000241770932517809326179093271785E4E0
:102C60000E940E3B882309F4A3C60E94343B609364
:102C7000201770932117809322179093231798C6DB
:102C800011EEE12E17E1F12E01EC12E083E0D82ED7
:102C9000D00ED8018D918D010E940E3B882339F012
:102CA0000E94343BF7016083718382839383F4E055
:102CB000EF0EF11CD012EDCF7BC68AED90E00E94A2
:102CC000834F811175C688E50E940E3B882381F0F1
:102CD0000091160D10E00E94343B000F111F000FF1
:102CE000111FF801E054F54F608371838283938351
:102CF00089E50E940E3B882381F00091160D10E0BB
:102D00000E94343B000F111F000F111FF801E85300
:102D1000F54F60837183828393838AE50E940E3B23
:102D2000882381F00091160D10E00E94343B000FC3
:102D3000111F000F111FF801E053F54F60837183DD
:102D400082839383EBE6F5E08491882341F09091B0
:102D5000C00095FFFCCF8093C6003196F5CFE7E326
:102D6000F4E08491882341F09091C00095FFFCCF5E
:102D70008093C6003196F5CF1092160D8091160DF6
:102D8000823008F058C0EDE4F5E08191882339F0F5
:102D90009091C00095FFFCCF8093C600F6CFE091E4
:102DA000160D24E0E29FF0011124E054F54F6081FC
:102DB00071818281938142E00E94D02901E013E079
:102DC000F8018191882339F09091C00095FFFCCFE4
:102DD0008093C600F6CFE091160D34E0E39FF0013A
:102DE0001124E853F54F608171818281938142E023
:102DF0000E94D029D8018D918D01882339F09091BE
:102E0000C00095FFFCCF8093C600F4CFE091160D73
:102E1000B4E0EB9FF0011124E053F54F6081718124
:102E20008281938142E00E94D0298091160D8F5FAC
:102E30008093160DA3CF8091C00085FFFCCF8AE060
:102E40008093C600B5C583E50E940E3B882309F434
:102E5000AFC50E94343B0E9424CE709368026093F9
:102E60006702A6C583E50E940E3B882309F4A0C52E
:102E70000E94343B0E9424CE70933B0260933A023E
:102E800097C580E50E940E3B882351F00E94343B99
:102E9000609348027093490280934A0290934B02D8
:102EA00089E40E940E3B882381F00E94343B2DEB85
:102EB00037E346E05EE30E9462C160934402709390
:102EC0004502809346029093470284E40E940E3BA1
:102ED000882381F00E94343B2DEB37E346E05EE32C
:102EE0000E94B3CD609340027093410280934202EE
:102EF0009093430283E40E940E3B882351F00E948A
:102F0000343B60930002709301028093020290931D
:102F100003020E9490A5E3E0F3E08191882339F059
:102F20009091C00095FFFCCF8093C600F6CFE6E0FD
:102F3000F3E08191882339F09091C00095FFFCCF98
:102F40008093C600F6CF609148027091490280914B
:102F50004A0290914B0242E00E94D029EAE0F3E05D
:102F60008191882339F09091C00095FFFCCF809328
:102F7000C600F6CF2DEB37E346E05EE360914402F6
:102F80007091450280914602909147020E94B3CD14
:102F900042E00E94D029EEE0F3E08191882339F0ED
:102FA0009091C00095FFFCCF8093C600F6CF2DEB2B
:102FB00037E346E05EE36091400270914102809108
:102FC0004202909143020E9462C142E00E94D029D5
:102FD000E2E1F3E08191882339F09091C00095FF00
:102FE000FCCF8093C600F6CF609100027091010281
:102FF000809102029091030242E00E94D0298091C8
:10300000C00085FFFCCF8AE08093C6000E94512358
:10301000CFC483E50E940E3B882319F00E94343B05
:1030200003C060E070E0CB016093501770935117BC
:103030008093521790935317BBC485E40E940E3BB4
:10304000882341F00E94343B0E9424CE8B0177FDFF
:1030500012C002C000E010E02B961FAE2B972C96FA
:103060001FAE2C97E6E12D96EFAF2D97F3E42E9649
:10307000FFAF2E970EC02B961FAE2B972C961FAE30
:103080002C972CE82D962FAF2D9732E42E963FAF3C
:103090002E9783E50E940E3B882371F00E94343BFB
:1030A0002B966FAF2B972C967FAF2C972D968FAFCB
:1030B0002D972E969FAF2E9783E40E940E3B882378
:1030C00049F00E94343B0E9424CEA2967FAF6EAF9F
:1030D000A29706C045E050E0A2965FAF4EAFA29720
:1030E0000E948B622A966CAF7DAF8EAF9FAF2A97FE
:1030F000033011051CF4E6E1F3E01AC0E9E2F3E065
:103100008191882339F09091C00095FFFCCF809386
:10311000C600F6CF8091C00085FFFCCF8AE0809387
:10312000C60046C49091C00095FFFCCF8093C600B6
:1031300081918111F7CF8091C00085FFFCCF8AE09B
:103140008093C6000E94E1628FE717FF63C08093FF
:10315000550D2A964CAC5DAC6EAC7FAC2A9762964E
:103160004CAE5DAE6EAE7FAE6297A6964CAE5DAED7
:103170006EAE7FAEA697A7961FAEA79720E4A8963F
:103180002FAFA8973CE1A9963FAFA99746E4AA962E
:103190004FAFAA9765961FAE659766961FAE669766
:1031A00067961FAE679768961FAE68976FE7462EC3
:1031B000512C612C712C26964CAE5DAE6EAE7FAE5E
:1031C00026977FE7872E912CA12CB12C6E961CAEF2
:1031D0001DAE1EAE1FAE6E9721E02EAF64961FAEE1
:1031E0001EAE64971BAE212C312C1DAEA8014A5A8D
:1031F000524FA0965FAF4EAFA097C801880F991F9E
:10320000880F991FDC01AA5BB24F6A96BFAFAEAFC1
:103210006A9707C0F801EA5AF24F80839ACF0E945A
:10322000FE458091540D882309F44EC10E94F96631
:1032300017FF0BC04090360D4BAE2090370D3090ED
:10324000380D5090390D5DAE0EC06A96AEADBFAD73
:103250006A97BC91BBAF6A96EEADFFAD6A972180CD
:10326000328043804DAE2BAD322D432D5DAD659642
:103270006FAD659766967FAD669767968FAD6797DA
:1032800068969FAD68970E9410CF181674F05BACDB
:1032900065965FAE659766962FAE669767963FAE6A
:1032A00067976DAC68966FAE68972BAD322D432D46
:1032B0005DADA7966FADA797A8967FADA897A99685
:1032C0008FADA997AA969FADAA970E94EDC687FDDC
:1032D0000EC07BACA7967FAEA797A8962FAEA897F7
:1032E000A9963FAEA9974DACAA964FAEAA975EACF1
:1032F000552009F475C02B962FAD2B972C963FAD1A
:103300002C972D964FAD2D972E965FAD2E976BADCA
:10331000722D832D9DAD0E9410CF18160CF0D4C0D5
:103320000E948B62DC01CB012A964CAC5DAC6EAC8A
:103330007FAC2A9784199509A609B7098938934162
:10334000A105B10508F4C0C0D501C40126964CAC56
:103350005DAC6EAC7FAC269784199509A609B709B8
:10336000B595A7959795879517FF03C08093550D41
:1033700005C0A096EEADFFADA09780830E948B6242
:1033800062966CAF7DAF8EAF9FAF62972B013C0111
:103390002A962CAD3DAD4EAD5FAD2A97421A530A29
:1033A000640A750A6E964CAE5DAE6EAE7FAE6E97D9
:1033B0002B964FAC2B9765964FAE65972C965FACCE
:1033C0002C9766965FAE66972D966FAC2D97679695
:1033D0006FAE67972E967FAC2E9768967FAE6897F4
:1033E0002B962FAD2B972C963FAD2C972D964FAD4E
:1033F0002D972E965FAD2E976BAD722D832D9DADC3
:103400000E94EDC687FFEDC40E948B62DC01CB01F8
:1034100062964CAC5DAC6EAC7FAC6297841995093A
:10342000A609B70989389341A105B10508F4D9C4A3
:103430000E948B622A966CAF7DAF8EAF9FAF2A97AA
:10344000DC01CB0184199509A609B70964964EAC35
:103450005FAC6497141415040CF4EDC226968CAD81
:103460009DADAEADBFAD2697880D991DAA1DBB1DA4
:10347000B595A7959795879517FFADC48093550D82
:1034800064962EAD3FAD64972F5F3F4F64963FAF7C
:103490002EAF64972B964FAC2B97A7964FAEA7975E
:1034A0002C965FAC2C97A8965FAEA8972D966FAC24
:1034B0002D97A9966FAEA9972E967FAC2E97AA96B8
:1034C0007FAEAA9721E02EAF20E030E040EA51E441
:1034D0002B966FAD2B972C967FAD2C972D968FAD9D
:1034E0002D972E969FAD2E970E94C5CC9B01AC01C7
:1034F0006BAD722D832D9DAD0E9410CF1816ACF4CC
:10350000E2EBF3E08491882341F09091C00095FFB5
:10351000FCCF8093C6003196F5CF8091C00085FF27
:10352000FCCF8AE08093C60043C20E948B62DC011C
:10353000CB01A6964CAC5DAC6EAC7FACA697841963
:103540009509A609B709813D9740A105B10508F481
:103550004EC017FF10C0E090550DF12CECEAF3E0DF
:1035600084918823D9F09091C00095FFFCCF80937F
:10357000C6003196F5CFA096AEADBFADA097EC904A
:10358000F12CE6EAF3E08491882341F09091C000A9
:1035900095FFFCCF8093C6003196F5CF42E06BAD2E
:1035A000722D832D9DAD0E94D029E2EAF3E0849133
:1035B000882341F09091C00095FFFCCF8093C60016
:1035C0003196F5CFB701FF0C880B990B0E94BE29ED
:1035D0008091C00085FFFCCF8AE08093C6000E94E6
:1035E0008B62A6966CAF7DAF8EAF9FAFA6970E9401
:1035F0008B626B017C010E948B6262962CAD3DADAB
:103600004EAD5FAD62972A964CAC5DAC6EAC7FACB4
:103610002A97240D351D461D571DC21AD30AE40AE8
:10362000F50ADC01CB018C0D9D1DAE1DBF1D81383F
:103630009F44A241B105A8F0E5E8F3E08491882316
:1036400041F09091C00095FFFCCF8093C600319669
:10365000F5CF8091C00085FFFCCF8AE08093C60043
:10366000A7C164964EAC5FAC6497A2966EAC7FAC7B
:10367000A297641475040CF0D2CDE9E3F3E08491D1
:10368000882341F09091C00095FFFCCF8093C60045
:103690003196F5CF8091C00085FFFCCF8AE0809302
:1036A000C60086C10E940BA683C1FBD781C10E94C0
:1036B00028267EC10E947E240E942A4479C11CD4FF
:1036C00077C183E50E940E3B882309F471C10E94F3
:1036D000343B0E9424CE623071052CF47093830534
:1036E0006093820506C081E090E09093830580930B
:1036F0008205809182059091830597FF52C81092B0
:103700008305109282054DC880916502882309F4D3
:103710004FC182E090E09093E00A8093DF0A84E555
:103720000E940E3B882309F448C00E94343B0E944B
:1037300024CE8B01CB010E94883DFF24F394012B02
:1037400009F0F12CAF2CB12C88E40E940E3B8823A9
:1037500031F00E94343B0E9424CE8B0102C000E075
:1037600010E089E40E940E3B8823B1F00E94343BB4
:103770000E9424CE6B01FF2059F0161617061CF488
:10378000C5010E94593010161106BCF4C80113C0BF
:103790001016110644F00BC0F110F5CF10161106EB
:1037A00064F4C12CD12CB801C5010E9459301C14FD
:1037B0001D041CF4C6010E947E2D60E070E081EFC4
:1037C0009FEF0E94CF4EC090170DD090180DE09043
:1037D000190DF0901A0D20E030E04AE754E4C701DB
:1037E000B6010E9410CF18164CF4C0926902D09214
:1037F0006A02E0926B02F0926C020CC080E090E0F2
:10380000AAE7B5E48093690290936A02A0936B02E1
:10381000B0936C02A0901B0DB0901C0DC0901D0DBC
:10382000D0901E0D10E8E12E1FE4F12E03EC17ECF2
:10383000A8019701C801B7010E94054210927D05B9
:1038400010927C051092E00A1092DF0A8091E10A42
:10385000882309F4ADC081E090E09093E00A809362
:10386000DF0AA6C080E090E00E94374FA1C083E548
:103870000E940E3B882309F49BC00E94343B6B01DD
:103880007C0120E030E0A9010E94EDC6811104C056
:1038900081E0809365028CC020E030E040E251E49A
:1038A000C701B6010E94B3CD609378177093791762
:1038B00080937A1790937B171092650279C061E02C
:1038C00080E10E942BA061E081E10E942BA083E5B2
:1038D0000E940E3B882309F46BC00E94343B0E9477
:1038E00024CE6115710549F461E080E10E94FC9FDE
:1038F00060E081E10E94FC9F5BC06130710509F0CE
:1039000057C061E081E10E94FC9F60E080E10E947D
:10391000FC9F4EC084E50E940E3B882329F08FEF68
:103920009FEF0E94883D44C0EBE6F5E08491882338
:1039300041F09091C00095FFFCCF8093C600319676
:10394000F5CFE4E2F4E08491882341F09091C00047
:1039500095FFFCCF8093C6003196F5CF8091B107DB
:103960009091B20720E6289FF001299FF00D1124C5
:10397000EF5CF94F8191882339F09091C00095FF59
:10398000FCCF8093C600F6CFE2E2F4E08491882376
:1039900041F09091C00095FFFCCF8093C600319616
:1039A000F5CF8091C00085FFFCCF8AE08093C600F0
:1039B0000E9486AA18C20E94293BAB01BC01409319
:1039C0000D0B50930E0B60930F0B7093100B84EB49
:1039D0009CE00E945C77ECCF0E94343BE9CF0E94D0
:1039E0000BA688E50E940E3B882311F05F9A479A48
:1039F00089E50E940E3B81118A9A8AE50E940E3B5E
:103A0000882381F09FB7F8948091080181608093AA
:103A100008019FBF9FB7F89480910801846080934C
:103A200008019FBF85E40E940E3B882309F4C0CFA4
:103A30008D9A129ABDCF6E964CAC5DAC6EAC7FACDD
:103A40006E97480E591E6A1E7B1E6E962CAD3DADBC
:103A50004EAD5FAD6E97281B390B4A0B5B0BCA014D
:103A6000B90126962CAD3DAD4EAD5FAD26970E94B7
:103A70007ACCA30192010E947BD0D501C401820FB0
:103A8000931FA41FB51F84319105A105B1050CF149
:103A90004C015D018C3E9105A105B1052CF04BEE6A
:103AA000842E912CA12CB12C40E884169104A10401
:103AB000B104FCF08EEF90E0A0E0B0E08819990925
:103AC000AA09BB0926968CAF9DAFAEAFBFAF2697B4
:103AD00016C034E1832E912CA12CB12C24E130E0CE
:103AE00040E050E026962CAF3DAF4EAF5FAF26973B
:103AF00006C026968CAE9DAEAEAEBFAE2697EAE16E
:103B0000F4E08491882341F09091C00095FFFCCFB0
:103B10008093C6003196F5CFC501B4010E94BE293D
:103B2000E5E1F4E08491882341F09091C00095FF95
:103B3000FCCF8093C6003196F5CF26966CAD7DAD57
:103B40008EAD9FAD26970E94BE29EEE0F4E08491F1
:103B5000882341F09091C00095FFFCCF8093C60070
:103B60003196F5CF42E0A7966FADA797A8967FADA7
:103B7000A897A9968FADA997AA969FADAA970E94DC
:103B8000D029E7E0F4E08491882341F09091C000CF
:103B900095FFFCCF8093C6003196F5CF42E0659645
:103BA0006FAD659766967FAD669767968FAD6797A1
:103BB00068969FAD68970E94D0298091C00085FFCC
:103BC000FCCF8AE08093C60064962EAD3FAD64972B
:103BD000233031050CF442CC26966CAD7DAD8EAD14
:103BE0009FAD26970E94F3C620E030E040E850E405
:103BF0000E9462C16B017C01A7962FADA797A89682
:103C00003FADA897A9964FADA997AA965FADAA9781
:103C100065966FAD659766967FAD669767968FAD33
:103C2000679768969FAD68970E94C4CC20ED3FE0EF
:103C300049E450E40E9462C120E030E040E05FE3EC
:103C40000E9462C19B01AC01C701B6010E94B3CDC5
:103C50006B017C01C301B2010E94F3C620E030E099
:103C60004AE754E40E94B3CD2B013C01E1E0F4E0CB
:103C70008491882341F09091C00095FFFCCF809300
:103C8000C6003196F5CF42E0C701B6010E94D029A7
:103C9000EBEFF3E08491882341F09091C00095FF11
:103CA000FCCF8093C6003196F5CF42E0C301B2014C
:103CB0000E94D0298091C00085FFFCCF8AE08093CC
:103CC000C6002AE939E949E15FE3C701B6010E946C
:103CD00062C16B017C019B01AC010E94C5CCA301B8
:103CE00092010E94B3CD22966CAF7DAF8EAF9FAF95
:103CF0002297A3019201C701B6010E9462C120E090
:103D000030E040E05EE30E9462C12B013C01EEEE38
:103D1000F3E08491882341F09091C00095FFFCCF9F
:103D20008093C6003196F5CF8091C00085FFFCCF0F
:103D30008AE08093C600E8EEF3E08491882341F0A6
:103D40009091C00095FFFCCF8093C6003196F5CFCF
:103D500042E0C701B6010E94D0298091C00085FFD2
:103D6000FCCF8AE08093C600E2EEF3E084918823E2
:103D700041F09091C00095FFFCCF8093C600319632
:103D8000F5CF42E022966CAD7DAD8EAD9FAD229712
:103D90000E94D0298091C00085FFFCCF8AE08093EB
:103DA000C600ECEDF3E08491882341F09091C000CF
:103DB00095FFFCCF8093C6003196F5CF42E0C3015A
:103DC000B2010E94D0298091C00085FFFCCF8AE01B
:103DD0008093C60043CBA096EEADFFADA097808345
:103DE0004FCB1EAE71CBC759DF4F0FB6F894DEBF75
:103DF0000FBECDBFDF91CF911F910F91FF90EF903C
:103E0000DF90CF90BF90AF909F908F907F906F90FA
:103E10005F904F903F902F9008950F931F93CF93F3
:103E2000DF9300D01F92CDB7DEB78C011B8284E8F0
:103E30008C838AE5898381E08A838AE590E00E9409
:103E4000582A85EA90E00E94582A67E08DEC99E0B4
:103E50000E94699C82E890E00E94582A42E050E06B
:103E6000BE016D5F7F4F8DEC99E00E94D79B42E0D1
:103E700050E0BE016F5F7F4F8DEC99E00E94D79BB1
:103E800080E090E00E94582AC8010E94582A1093AE
:103E9000E90C0093E80C0F900F900F900F90DF91BA
:103EA000CF911F910F910895EDECF9E0A089B189B0
:103EB00082E08C93A485B5851C92A685B78580E1A8
:103EC0008C93108EA489B58986E08C93A289B389DE
:103ED0008C9180618C93A289B3898C9188608C933A
:103EE000A289B3898C9180688C930288F389E02D34
:103EF00080818F7D80830895CF93DF93C5E6D9E0DD
:103F0000FE018491882341F09091C00095FFFCCF81
:103F10008093C6003196F5CFE9E1F9E084918823DA
:103F200041F09091C00095FFFCCF8093C600319680
:103F3000F5CF8091C00085FFFCCF8AE08093C6005A
:103F4000FE018491E5E6F9E0882349F09091C000F4
:103F500095FFFCCF8093C60031968491F5CF4091B8
:103F6000121350911313609114137091151381E182
:103F700099E00E94F27440911613509117136091CA
:103F80001813709119138EE099E00E94F274409119
:103F90001A1350911B1360911C1370911D138BE029
:103FA00099E00E94F27440911E1350911F1360918A
:103FB00020137091211388E099E00E94F27480919F
:103FC000C00085FFFCCF8AE08093C600FE0184918B
:103FD000E5E6F9E0882349F09091C00095FFFCCF19
:103FE0008093C60031968491F5CFEEEEF8E084918F
:103FF000882341F09091C00095FFFCCF8093C600CC
:104000003196F5CF8091C00085FFFCCF8AE0809388
:10401000C600FE018491E5E6F9E0882349F090911D
:10402000C00095FFFCCF8093C60031968491F5CFF8
:1040300040913417509135176091361770913717AA
:1040400085EE98E00E94F27440913817509139172C
:1040500060913A1770913B1782EE98E00E94F274DB
:1040600040913C1750913D1760913E1770913F175A
:104070008FED98E00E94F2744091401750914117E3
:1040800060914217709143178CED98E00E94F27492
:104090008091C00085FFFCCF8AE08093C600FE01BE
:1040A0008491E5E6F9E0882349F09091C00095FFFE
:1040B000FCCF8093C60031968491F5CFEEEBF8E00B
:1040C0008491882341F09091C00095FFFCCF8093AC
:1040D000C6003196F5CF8091C00085FFFCCF8AE005
:1040E0008093C600FE018491E5E6F9E0882349F05B
:1040F0009091C00095FFFCCF8093C60031968491CB
:10410000F5CF4091C20D5091C30D6091C40D7091D7
:10411000C50D85EB98E00E94E1744091C60D509169
:10412000C70D6091C80D7091C90D82EB98E00E9497
:10413000E1744091CA0D5091CB0D6091CC0D7091FE
:10414000CD0D8FEA98E00E94E1744091CE0D509120
:10415000CF0D6091D00D7091D10D8CEA98E00E9446
:10416000E1748091C00085FFFCCF8AE08093C60097
:10417000FE018491E5E6F9E0882349F09091C000C2
:1041800095FFFCCF8093C60031968491F5CFE7E789
:10419000F8E08491882341F09091C00095FFFCCF16
:1041A0008093C6003196F5CF8091C00085FFFCCF8B
:1041B0008AE08093C600FE018491E5E6F9E0882359
:1041C00049F09091C00095FFFCCF8093C6003196D6
:1041D0008491F5CF40912C1750912D1760912E1797
:1041E00070912F178EE698E00E94F274409130177C
:1041F0005091311760913217709133178BE698E028
:104200000E94F2748091C00085FFFCCF8AE0809309
:10421000C600FE018491E5E6F9E0882349F090911B
:10422000C00095FFFCCF8093C60031968491F5CFF6
:10423000E8EBF7E08491882341F09091C00095FF6E
:10424000FCCF8093C6003196F5CF8091C00085FFEA
:10425000FCCF8AE08093C600FE018491E5E6F9E098
:10426000882349F09091C00095FFFCCF8093C60051
:1042700031968491F5CF409148175091491760913C
:104280004A1770914B178FEA97E00E94F2744091A1
:104290004C1750914D1760914E1770914F178CEA43
:1042A00097E00E94F2744091441750914517609135
:1042B00046177091471789EA97E00E94E174409190
:1042C00028175091291760912A1770912B1786EAA9
:1042D00097E00E94F2744091241750912517609145
:1042E00026177091271783EA97E00E94F274409195
:1042F000201750912117609122177091231780EA9F
:1043000097E00E94F2748091C00085FFFCCF8AE0A4
:104310008093C600FE018491E5E6F9E0882349F028
:104320009091C00095FFFCCF8093C6003196849198
:10433000F5CFEEE8F7E08491882341F09091C0003A
:1043400095FFFCCF8093C6003196F5CF8091C000D9
:1043500085FFFCCF8AE08093C600FE018491E5E6EC
:10436000F9E0882349F09091C00095FFFCCF80933D
:10437000C60031968491F5CF4091E1175091E21734
:104380006091E3177091E41785E897E00E94F2745A
:104390004091E5175091E6176091E7177091E81783
:1043A00082E897E00E94F2744091E9175091EA1771
:1043B0006091EB177091EC178FE797E00E94F27411
:1043C0008091C00085FFFCCF8AE08093C600FE018B
:1043D0008491E5E6F9E0882349F09091C00095FFCB
:1043E000FCCF8093C60031968491F5CFE1E7F7E0EA
:1043F0008491882341F09091C00095FFFCCF809379
:10440000C6003196F5CF8091C00085FFFCCF8AE0D1
:104410008093C600FE018491E5E6F9E0882349F027
:104420009091C00095FFFCCF8093C6003196849197
:10443000F5CF409148025091490260914A02709133
:104440004B0287E697E00E94F2742DEB37E346E0DB
:104450005EE3609144027091450280914602909122
:1044600047020E94B3CDAB01BC0184E697E00E94F5
:10447000F2742DEB37E346E05EE360914002709109
:10448000410280914202909143020E9462C1AB01BD
:10449000BC0181E697E00E94F2748091C00085FF24
:1044A000FCCF8AE08093C600FE018491E5E6F9E046
:1044B000882349F09091C00095FFFCCF8093C600FF
:1044C00031968491F5CFEEE4F7E08491882341F0B2
:1044D0009091C00095FFFCCF8093C6003196F5CF38
:1044E0008091C00085FFFCCF8AE08093C600409198
:1044F0006E0A50916F0A6091700A7091710A8AE495
:1045000097E00E94F2748091C00085FFFCCF8AE0A2
:104510008093C600FE018491E5E6F9E0882349F026
:104520009091C00095FFFCCF8093C6003196849196
:10453000F5CFE9E3F7E08491882341F09091C00042
:1045400095FFFCCF8093C6003196F5CF8091C000D7
:1045500085FFFCCF8AE08093C6004091D80A509135
:10456000D90A6091DA0A7091DB0A85E397E00E942C
:10457000F2748091C00085FFFCCF8AE08093C60072
:10458000FE01C491E5E6F9E0CC2349F08091C0003A
:1045900085FFFCCFC093C6003196C491F5CFE4E20D
:1045A000F7E08491882341F09091C00095FFFCCF03
:1045B0008093C6003196F5CF8091C00085FFFCCF77
:1045C0008AE08093C6004091A30D5091A40D6091A4
:1045D000A50D7091A60D80E297E00E94F274809183
:1045E000C00085FFFCCF8AE08093C600E1EBF3E0DA
:1045F0008191882339F09091C00095FFFCCF809382
:10460000C600F6CF6091840570918505072E000CD9
:10461000880B990BB3D68091C00085FFFCCF8AE050
:104620008093C600DF91CF910895EF92FF921F9380
:10463000CF93DF937C01C62FD72F142F160FF701CE
:10464000808191810E9464CC8993F701808191815E
:104650000196918380831C13F2CFDF91CF911F913C
:10466000FF90EF900895EF92FF921F93CF93DF9307
:104670007C01C62FD72F142F160F6991F701808167
:1046800091810E946CCCF701808191810196918388
:1046900080831C13F2CFDF91CF911F91FF90EF9099
:1046A00008950F931F93CF93DF93CDB7DEB72C9769
:1046B0000FB6F894DEBF0FBECDBF80E390E3A0E35A
:1046C000B0E08D839E83AF83B88704E610E01C873B
:1046D0000B8744E0BE016B5F7F4FCE010B96C3DFBB
:1046E00040E162E173E1CE010B96BDDF40E164E39E
:1046F00077E1CE010B96B7DF40E162EC7DE0CE01C1
:104700000B96B1DF44E06CE277E1CE010B96ABDFB4
:1047100044E060E377E1CE010B96A5DF44E068E476
:1047200077E1CE010B969FDF44E06CE477E1CE01A8
:104730000B9699DF44E064E477E1CE010B9693DFBA
:1047400044E068E277E1CE010B968DDF44E064E25D
:1047500077E1CE010B9687DF44E060E277E1CE019E
:104760000B9681DF4CE061EE77E1CE010B967BDFAB
:1047700042E065E97DE0CE010B9675DF42E063E93A
:104780007DE0CE010B966FDF42E061E97DE0CE0176
:104790000B9669DF42E06FE87DE0CE010B9663DFA8
:1047A00042E06DE87DE0CE010B965DDF42E06BE814
:1047B0007DE0CE010B9657DF44E068E472E0CE0165
:1047C0000B9651DF44E064E472E0CE010B964BDFC0
:1047D00044E060E472E0CE010B9645DF44E06EE613
:1047E0007AE0CE010B963FDF44E068ED7AE0CE013F
:1047F0000B9639DF44E063EA7DE0CE010B9633DFB0
:1048000042E06CE07DE0CE010B962DDF42E06AE0F5
:104810007DE0CE010B9627DF42E062E875E0CE0135
:104820000B9621DF42E064E875E0CE010B961BDFBA
:1048300042E06FE97DE0CE010B9615DF42E06FE2CA
:104840007DE0CE010B960FDF42E06DE27DE0CE0110
:104850000B9609DF42E063E877E1CE010B9603DFB8
:1048600042E061EA7DE0CE010B96FDDE80E290E061
:104870009A87898742E0BE01675F7F4FCE010B9622
:10488000F2DE86E590E3A8E3B0E089839A83AB8308
:10489000BC831C870B8744E0BE016F5F7F4FCE0156
:1048A0000B96E1DEE5E6F9E08491882341F09091F2
:1048B000C00095FFFCCF8093C6003196F5CFE0E1B4
:1048C000F7E08491882341F09091C00095FFFCCFE0
:1048D0008093C6003196F5CF8091C00085FFFCCF54
:1048E0008AE08093C6002C960FB6F894DEBF0FBE08
:1048F000CDBFDF91CF911F910F910895AF92BF92DD
:10490000CF92DF92EF92FF920F931F93CF93DF939B
:10491000CDB7DEB7E0970FB6F894DEBF0FBECDBFC0
:1049200080E1E3E7F2E0DE01919601900D928A9535
:10493000E1F780E1E3E8F2E0DE01519601900D92AB
:104940008A95E1F780E1E3E9F2E0DE01119601905A
:104950000D928A95E1F7DE01919662E173E1AE0175
:104960004F5E5F4F24E337E1CE0101965C0182EC9C
:104970009DE08E010F5C1F4FCD90DD90ED90FD907E
:10498000FB01C192D192E192F192BF01FA01C19073
:10499000D190E190F190AF01F901C192D192E192F1
:1049A000F1929F01F501C190D190E190F1905F01EA
:1049B000FC01C192D192E192F192CF01A017B1070F
:1049C000D9F60E94F08380E090E0AAEFB3E48093F0
:1049D0002C1790932D17A0932E17B0932F17809319
:1049E000301790933117A0933217B093331780E0AC
:1049F00090E0A0EAB0E48093481790934917A09301
:104A00004A17B0934B1740E25EE460E070E04093D9
:104A1000441750934517609346177093471740E02B
:104A200050E060E771E440934C1750934D1760934A
:104A30004E1770934F1740E050E060EA71E44093E6
:104A400028175093291760932A1770932B174DEC52
:104A50005CEC6CEC7EE34093241750932517609335
:104A60002617709327178093201790932117A093F0
:104A70002217B09323171092E9171092EA17109299
:104A8000EB171092EC171092E5171092E6171092A0
:104A9000E7171092E8171092E1171092E2171092A0
:104AA000E3171092E41788EC90E09093960D8093B2
:104AB000950D1092940D1092930D1092920D1092EC
:104AC000910D8CED90E09093900D80938F0D83E28B
:104AD00090E090938E0D80938D0D10928C0D10921E
:104AE0008B0D8AE097EDA1EBB1E48093480290939F
:104AF0004902A0934A02B0934B028EE297E1A8E5E7
:104B0000BEE38093440290934502A0934602B09383
:104B100047028EE395ECA2E1B4E4809340029093C7
:104B20004102A0934202B09343020E9490A580E00C
:104B300090E0A0E8BFE38093000290930102A0936D
:104B40000202B093030280E090E8AAE0B4E480930C
:104B50006E0A90936F0AA093700AB093710A81E075
:104B600080934C0280E991E09093300D80932F0D5B
:104B700090932E0D80932D0D88E790E090938417ED
:104B80008093831780E090E0A0E9B0E48093D80A96
:104B90009093D90AA093DA0AB093DB0A80E090E000
:104BA000A0E0B0E48093A30D9093A40DA093A50D75
:104BB000B093A60D80E590E090930D0D80930C0DC1
:104BC00090930B0D80930A0D10928305109282052D
:104BD0001092A00D10929F0D81E090E09093A20D95
:104BE0008093A10D1092850510928405E5E6F9E009
:104BF0008491882341F09091C00095FFFCCF809371
:104C0000C6003196F5CFE3E4F9E08491882341F0C2
:104C10009091C00095FFFCCF8093C6003196F5CFF0
:104C20008091C00085FFFCCF8AE08093C600E096AB
:104C30000FB6F894DEBF0FBECDBFDF91CF911F91AD
:104C40000F91FF90EF90DF90CF90BF90AF9029CD64
:104C5000CF93DF93CDB7DEB72C970FB6F894DEBFB6
:104C60000FBECDBF84E690E09C878B8786E590E3FE
:104C7000A8E3B0E089839A83AB83BC8344E0BE01A0
:104C80006B5F7F4FCE010B96D0DC43E050E0BE015E
:104C90006B5F7F4FCE0101960E94DDD1892B09F019
:104CA0001DC140E162E173E1CE010B96BEDC40E143
:104CB00064E377E1CE010B96B8DC40E162EC7DE085
:104CC000CE010B96B2DC0E94F08344E06CE277E107
:104CD000CE010B96AADC44E060E377E1CE010B96AF
:104CE000A4DC44E068E477E1CE010B969EDC44E06E
:104CF0006CE477E1CE010B9698DC44E064E477E164
:104D0000CE010B9692DC44E068E277E1CE010B968F
:104D10008CDC44E064E277E1CE010B9686DC44E073
:104D200060E277E1CE010B9680DC4CE061EE77E14A
:104D3000CE010B967ADC42E065E97DE0CE010B9670
:104D400074DC42E063E97DE0CE010B966EDC42E06C
:104D500061E97DE0CE010B9668DC42E06FE87DE022
:104D6000CE010B9662DC42E06DE87DE0CE010B9651
:104D70005CDC42E06BE87DE0CE010B9656DC44E063
:104D800068E472E0CE010B9650DC44E064E472E02B
:104D9000CE010B964ADC44E060E472E0CE010B9653
:104DA00044DC44E06EE67AE0CE010B963EDC44E063
:104DB00068ED7AE0CE010B9638DC44E063EA7DE0F2
:104DC000CE010B9632DC42E06CE07DE0CE010B962A
:104DD0002CDC42E06AE07DE0CE010B9626DC42E06E
:104DE00062E875E0CE010B9620DC42E064E875E0F5
:104DF000CE010B961ADC42E06FE97DE0CE010B9606
:104E000014DC81E080934C0242E06FE27DE0CE0151
:104E10000B960BDC42E06DE27DE0CE010B9605DCEB
:104E200042E063E877E1CE010B96FFDB80912F0D26
:104E30009091300D8A3F910534F48AEF90E0909381
:104E4000300D80932F0D80912D0D90912E0D8A3F66
:104E5000910534F48AEF90E090932E0D80932D0D00
:104E600080918317909184178035910534F480E503
:104E700090E0909384178093831742E061EA7DE08D
:104E8000CE010B96D2DB42E0BE01675F7F4FCE01C1
:104E90000B96CBDB0E9490A5E5E6F9E08491882390
:104EA00041F09091C00095FFFCCF8093C6003196F1
:104EB000F5CFE9E2F9E08491882341F09091C000B8
:104EC00095FFFCCF8093C6003196F5CF8091C0004E
:104ED00085FFFCCF8AE08093C60001C00FDD0CD8AF
:104EE0002C960FB6F894DEBF0FBECDBFDF91CF91E9
:104EF00008958F929F92AF92BF92CF92DF92EF92DE
:104F0000FF920F931F93CF93DF93CDB7DEB76497D4
:104F10000FB6F894DEBF0FBECDBF6B837C838D834D
:104F20009E8358874F833A8729871C870B87CD86B6
:104F3000DE86EF86F88A898A9A8AAB8ABC8A8CE2F6
:104F400091E09A83898344E0BE016D5F7F4FCE017B
:104F5000019689DB8B819C81AD81BE818130984037
:104F6000A105B10518F142E0BE01695F7F4FCE0196
:104F7000019679DB42E0BE01675F7F4FCE0101966B
:104F800072DB42E0BE01655F7F4FCE0101966BDBB5
:104F900044E0BE01635F7F4FCE01019664DB44E0D5
:104FA000BE016F5E7F4FCE0101965DDB64960FB64A
:104FB000F894DEBF0FBECDBFDF91CF911F910F914F
:104FC000FF90EF90DF90CF90BF90AF909F908F9029
:104FD00008954F925F926F927F928F929F92AF92BD
:104FE000BF92FF920F931F93CF93DF93182F8DE8FB
:104FF0009CE09093CB098093CA091092A90C82E09F
:1050000090E0A0E0B0E08093920C9093930CA0937A
:10501000940CB093950C1092C9091092C509109286
:10502000C6091092C7091092C8098FEF9FEFDC01E3
:105030008093C1099093C209A093C309B093C40996
:10504000112379F1153008F0F9C040E060E070E01C
:10505000CB010E946B75882309F4F0C020E1129FF8
:10506000C00111248F54984FFC01E254FE4F20815F
:105070002F7709F0E3C03C964081518162817381B2
:10508000443651056105710508F4D8C03497808015
:105090009180A280B38081149104A104B10421F411
:1050A000CDC0812C912C540140E0C501B4010E9477
:1050B0006B75F82E882309F4C1C08091CC079091BC
:1050C000CD078115924009F0B9C0A091D107AA235C
:1050D00009F4B4C06091CF077091D00761157105D4
:1050E00009F4ACC02091CE07222309F4A7C0A093F5
:1050F000A40C2093960C80E030E0E1E0F0E0C82FB3
:10510000AF01082E02C0440F551F0A94E2F724177E
:10511000350741F0982F8F5F983089F789E08093A9
:105120009F0C8CC080939F0C2091D7073091D8079B
:105130002115310519F040E050E008C02091E50745
:105140003091E6074091E7075091E8072093970CCC
:105150003093980C4093990C50939A0C240135018C
:10516000460E571E611C711C4092A50C5092A60C55
:105170006092A70C7092A80CE091D207F091D3072F
:10518000F093AB0CE093AA0CB0E00E94ABCC460EBF
:10519000571E681E791E4092AC0C5092AD0C609266
:1051A000AE0C7092AF0C85E0EE0FFF1F8A95E1F711
:1051B000E150FE4FEF2FFF27E6954E0E5F1E611C5C
:1051C000711C4092A00C5092A10C6092A20C7092A3
:1051D000A30C2091D4073091D5072115310521F07A
:1051E000890120E030E008C00091E1071091E2075A
:1051F0002091E3073091E407B501A4014419550952
:1052000066097709400F511F621F731F04C076950E
:10521000679557954795CA95D2F740939B0C509345
:105220009C0C60939D0C70939E0C453F2FE05207A1
:105230006105710528F48CE08093A90CF12C1AC04B
:10524000453F5F4F6105710510F480E111C0809109
:10525000ED079091EE07A091EF07B091F0078093D2
:10526000AC0C9093AD0CA093AE0CB093AF0C80E25D
:105270008093A90C8F2DDF91CF911F910F91FF90FB
:10528000BF90AF909F908F907F906F905F904F9066
:1052900008954F925F926F927F928F929F92AF92FA
:1052A000BF92EF92FF920F931F93CF93DF93CDB7EF
:1052B000DEB7A0970FB6F894DEBF0FBECDBF611565
:1052C00071058105910541F48091C00085FFFCCFF7
:1052D00080E38093C6003DC09E012F5F3F4F790160
:1052E000812C912C54018901442E512C612C712C5C
:1052F0003FEF831A930AA30AB30AA30192010E9403
:1053000089CCF70161937F01B901CA01611571056B
:105310008105910569F7A40120E030E0F1E08F1AE2
:105320009108A108B108F401E21BF30BE00FF11F93
:1053300080818A3010F4805D01C0895C9091C0004A
:1053400095FFFCCF8093C6002F5F3F4F2417350792
:1053500051F7A0960FB6F894DEBF0FBECDBFDF9118
:10536000CF911F910F91FF90EF90BF90AF909F90C2
:105370008F907F906F905F904F90089597FF0EC031
:105380002091C00025FFFCCF2DE22093C600909510
:105390008095709561957F4F8F4F9F4F4AE079CFF1
:1053A0008F929F92AF92BF92CF92DF92EF92FF9235
:1053B000CF93DF936B017C01C42F20E030E0A90183
:1053C0000E94EDC687FF0BC08091C00085FFFCCF17
:1053D0008DE28093C600F7FAF094F7F8F094D0E0ED
:1053E00060E070E080E09FE3DC1741F020E030E017
:1053F00040E251E40E94B3CDDF5FF6CF9B01AC01E8
:10540000C701B6010E94C5CC6B017C010E942ACE67
:105410004B015C010E94F1C69B01AC01C701B601C2
:105420000E94C4CC6B017C014AE0C501B40131DFAC
:10543000CC2361F0E7EEF4E08191882339F090917C
:10544000C00095FFFCCF8093C600F6CFCC2309F1B6
:1054500020E030E040E251E4C701B6010E9462C1A1
:105460004B015C010E9424CE6B01770FEE08FF0810
:10547000C701B60183DFC701B6010E94F3C69B01D5
:10548000AC01C501B4010E94C4CC6B017C01C150C8
:10549000DDCFDF91CF91FF90EF90DF90CF90BF9065
:1054A000AF909F908F9008958DEC99E00C94699C3B
:1054B000682F8DEC99E00C94699CFC014481558126
:1054C000608171818DEC99E00C94D79BBC0180E0E8
:1054D00090E04AE0DEDE8091C00085FFFCCF8DE0E9
:1054E0008093C6008091C00085FFFCCF8AE0809346
:1054F000C60008958F929F92AF92BF92CF92DF9293
:10550000EF92FF920F931F93CF93DF9300D01F92E0
:10551000CDB7DEB7FC018381813011F080E06BC034
:10552000818181FFFBCF81899289A389B489892BED
:105530008A2B8B2B09F45EC07F0140E050E0BA015A
:10554000CF010E945C77882349F3F701858896880C
:10555000A788B08CC18CD28C82E090E0A0E0B0E053
:10556000F60180839183A283B3839E012F5F3F4F17
:10557000B501A401C6010E943476882379F200E0C7
:1055800010E09801B501A401C6010E94A37588230B
:1055900029F289809A80AB80BC80F60187898031AE
:1055A00041F4F8EF8F16FFEF9F06A104B10448F411
:1055B000DCCF88EF88168FEF9806A8068FE0B80634
:1055C000A0F2F701158A168A178A108E118A128A9C
:1055D000138A148A818180688183C7010E941B77A6
:1055E000882309F49BCF40E050E0BA01C7010E9434
:1055F0005C7701C081E00F900F900F900F90DF91CA
:10560000CF911F910F91FF90EF90DF90CF90BF90BF
:10561000AF909F908F9008956F927F928F929F92FC
:10562000AF92BF92CF92DF92EF92FF920F931F93B0
:10563000CF93DF93CDB7DEB7CC55D1090FB6F89431
:10564000DEBF0FBECDBF80910C0B8F9380910B0BF3
:105650008F938EEB99E09F938F938E01015C1F4F88
:105660001F930F930E94BEC60F900F900F900F9044
:105670000F900F90F12CF80101900020E9F731977D
:10568000E01BF10BFE1684F46801CF0CD11CF7FC73
:10569000DA94F6018081082E000C990B0E9491D1BA
:1056A000F6018083F394E7CF40E050E0BA0189E14E
:1056B0009BE00E945C77812CCE0101967C0187EBF8
:1056C000A82E89E0B82E6E0191E2C90ED11C8091FE
:1056D0001C0B823028F4811014C08FEF9FEF16C08E
:1056E0008091210B9091220BA091230BB091240B60
:1056F0008F719927AA27BB27892B8A2B8B2B59F7C8
:105700001FC080910B0B90910C0B019690930C0B8A
:1057100080930B0BC45ADF4F0FB6F894DEBF0FBE59
:10572000CDBFDF91CF911F910F91FF90EF90DF9050
:10573000CF90BF90AF909F908F907F906F90089583
:1057400040E050E0B70189E19BE00E94A47A18167E
:1057500014F6912CF70101900020E9F73197EE192A
:10576000FF099E1674F43701690C711C97FC7A943A
:10577000F301808190E00E9491D1F30180839394A2
:10578000E9CF8A858E3709F4A2CF45E050E0B80111
:10579000C7010E94DDD1892B09F099CF1F930F9388
:1057A000BF92AF92DF92CF920E94BEC6C6010E9406
:1057B0006F7483EB99E00E94FD730F900F900F9030
:1057C0000F900F900F908824839481CFCF92DF9217
:1057D000EF92FF920F931F93CF93DF9300D000D0EF
:1057E000CDB7DEB71092E10A80911C0B882319F027
:1057F00089E19BE0ACD51092910C10928E0C85E360
:1058000080938D0C0E948B628B0161E080918D0CE6
:105810000E942BA08DE89CE0ADD660E082E30E9460
:105820002BA061E083E30E942BA061E084E30E944F
:105830002BA061E085E30E942BA061E085E30E943C
:10584000FC9F85E080938F0C82E58CBD1DBC2AE017
:10585000F22E8FEF94D6FA94F110FBCF20E030E0D7
:10586000A90160E08DE89CE0B0D6F82E8093900C02
:1058700081E0F81649F00E948B62601B710B613D5C
:10588000774060F381E051C02AEA31E040E050E027
:1058900068E08DE89CE099D682FF03C0F092910CFD
:1058A0000FC094E0F92E70D68093900CFA94F1100A
:1058B000FACF8A3A11F082E038C082E08093910CEE
:1058C0008091910C823021F0C12CD12C760105C041
:1058D000C12CD12CE12C80E4F82E20E030E0A9018D
:1058E00067E38DE89CE071D6A701960169E28DE837
:1058F0009CE06BD68093900C882349F00E948B62C9
:10590000601B710B613D774040F38AE00EC08091CF
:10591000910C8230E1F420E030E0A9016AE38DE8E7
:105920009CE053D6882349F088E080938E0C8DE864
:105930009CE020D6EDEAF9E01BC026D6807C803CB6
:1059400019F483E08093910C1FD61ED61DD68DE8E6
:105950009CE010D610928F0C81E03BDB811145C09A
:1059600021C09091C00095FFFCCF8093C600319676
:1059700084918111F6CFE0EAF9E08491882341F027
:105980009091C00095FFFCCF8093C6003196F5CF73
:105990008091C00085FFFCCF8AE08093C60061EC57
:1059A00073E072C080E015DB81111FC0E9E9F9E006
:1059B0008491882341F09091C00095FFFCCF8093A3
:1059C000C6003196F5CFE6E8F9E08491882341F0EE
:1059D0009091C00095FFFCCF8093C6003196F5CF23
:1059E0008091C00085FFFCCF25C062E97CE089E1A1
:1059F0009BE0F5D3811122C0E9E9F9E08491882385
:105A000041F09091C00095FFFCCF8093C600319685
:105A1000F5CFE6E7F9E08491882341F09091C0004A
:105A200095FFFCCF8093C6003196F5CF8091C000E2
:105A300085FFFCCF8AE08093C6003AC081E0809366
:105A4000E10AEDEAF9E08491882341F09091C000E9
:105A500095FFFCCF8093C6003196F5CFEBE6F9E0D9
:105A60008491882341F09091C00095FFFCCF8093F2
:105A7000C6003196F5CF8091C00085FFFCCF8AE04B
:105A80008093C60062ED73E0CE0101960E941D9FD7
:105A900000E09E012F5F3F4F44E150E060E071E77E
:105AA00080E090E00E947C38CE0101960E94B69E74
:105AB0008BE1E9E1FBE0AAE3BBE001900D928A955E
:105AC000E1F78091170B9091180B9093390B80930D
:105AD000380B85E19BE09093350B8093340B269631
