:100000000C9452110C9483110C9483110C94831151
:100010000C9483110C9483110C9483110C94831110
:100020000C9483110C9483110C9483110C94831100
:100030000C9483110C9483110C9483110C948311F0
:100040000C9483110C94F7BE0C9483110C948311BF
:100050000C9483110C9483110C9453BC0C9444D2D3
:100060000C9483110C94AA1B0C9483110C9483118F
:100070000C9483110C9483110C9483110C948311B0
:100080000C9483110C9483110C9483110C948311A0
:100090000C9483110C9483110C9483110C94831190
:1000A0000C9483110C9483110C9483110C94831180
:1000B0000C9483110C9483110C9483110C94831170
:1000C0000C9483110C9483110C9483110C9419D803
:1000D0000C94EFD70C9483110C9483110C9483111E
:1000E0000C948311084AD73B3BCE016E84BCBFFD04
:1000F000C12F3D6C74319ABD56833DDA3D00C77FF8
:1001000011BED9E4BB4C3E916BAAAABE0000008090
:100110003F05A84CCDB2D44EB93836A9020C50B91F
:10012000918688083CA6AAAA2ABE000000803F004B
:100130000C94ACC70C944CD10C94C3C70C94B0C7AE
:100140000C94D9C70C94F0C80C94A3C80C9491D10A
:100150000C940DC80C94C7C70C94B4D10C9456E7FA
:100160000C946DD10C94F9BD0C9459D10C9428E7E2
:100170000C94CBC70C9447BE0C9453E70C94E0E767
:100180000C94A5D10C94E6D10C948B870C9475E655
:100190000C94BDBC0C945DC80C9420BE0C94DEC7BE
:1001A0000C9449BE0C94DCD10C947FD10C9477D183
:1001B0000C942DBE0C9469E60C9448E60C9450E720
:1001C0000C946BC80C94D2D10C949BD10C94A8C7FE
:1001D0000C9454D10C94B3C70C94BED10C940CC89D
:1001E0000C9449C80C9485110C94B9C70C9463D134
:1001F0000C947FE70C949EE70C943AC80C94BDC70E
:100200000C94E3C70C94C8D10C942BE70C9406BE55
:100210000C94D5C70C94DFC70C9487D10C94D1C72C
:100220000C94A4C70C949EC70C94DFBD4E414E495C
:100230004E495459494E46CDCCCC3D0AD7233C17A4
:10024000B7D13877CC2B329595E6241FB14F0A00F1
:100250000020410000C84200401C4620BCBE4CCAE1
:100260001B0E5AAEC59D7400407A10F35A00A0725E
:100270004E18090010A5D4E80000E87648170000E1
:10028000E40B54020000CA9A3B000000E1F50500AF
:100290000080969800000040420F000000A08601F8
:1002A000000000102700000000E8030000000064C8
:1002B00000000000000A0000000000010000000033
:1002C000002C76D888DC674F0823DFC1DFAE59E108
:1002D000B1B796E5E3E453C63AE651997696E8E677
:1002E000C28426EB898C9B62ED407C6FFCEFBC9C4A
:1002F0009F40F2BAA56FA5F490055A2AF75C936B5C
:100300006CF9676DC11BFCE0E40D47FEF520E6B516
:1003100000D0ED902E0300943577050080841E08F0
:100320000000204E0A000000C80C333333330F980E
:100330006E12831141EF8D2114893BE65516CFFED5
:10034000E6DB18D1844B381BF77C1D901DA4BBE461
:1003500024203284725E228100C9F124ECA1E53DA3
:100360002753657474696E67732053746F72656484
:10037000005A323A00457874656E646572204F66A3
:10038000667365743A0059323A00457874656E6454
:100390006572204F66667365743A0058323A0053AE
:1003A00065636F6E64657279204D617820506F735C
:1003B0003A002044002049002020204D33303120D5
:1003C00050005049442073657474696E67733A0035
:1003D000205A0020590020204D3230362058004845
:1003E0006F6D65206F666673657420286D6D293AA0
:1003F00000204500205A00205800204200205400D0
:1004000020204D323035205300416476616E6365A3
:1004100064207661726961626C65733A20533D4D68
:10042000696E20666565647261746520286D6D2F44
:1004300073292C20543D4D696E2074726176656C71
:1004400020666565647261746520286D6D2F73295F
:100450002C20423D6D696E696D756D207365676D09
:10046000656E742074696D6520286D73292C205881
:100470003D6D6178696D756D205859206A65726BA4
:1004800020286D6D2F73292C20205A3D6D617869CD
:100490006D756D205A206A65726B20286D6D2F7303
:1004A000292C2020453D6D6178696D756D204520B2
:1004B0006A65726B20286D6D2F732900205400200F
:1004C000204D323034205300416363656C657261A6
:1004D00074696F6E3A20533D616363656C65726148
:1004E00074696F6E2C20543D726574726163742060
:1004F000616363656C65726174696F6E00204500AD
:10050000205A0020590020204D3230312058004D13
:100510006178696D756D20416363656C65726174A6
:10052000696F6E20286D6D2F7332293A00204500C7
:10053000205A0020590020204D3230332058004DE1
:100540006178696D756D2066656564726174657347
:1005500020286D6D2F73293A00204500205A002075
:10056000590020204D393220580053746570732093
:1005700070657220756E69743A0053746F726564A9
:100580002073657474696E6773207265747269652F
:100590007665640048617264636F646564204465D5
:1005A0006661756C742053657474696E6773204C52
:1005B0006F61646564006563686F3A002200656E70
:1005C000717565696E672022002200656E71756520
:1005D000696E672022004732382058004D31303391
:1005E00031002200745374617475732E7478743DF5
:1005F0002200636F6E6E65637400636C69636B20C9
:100600006274412C300022006C6F6164696E672E49
:100610007344492E7478743D2200636F6E6E656377
:1006200074005D00312E302E3331007C007C005B85
:100630000070616765206D7367626F78006D736726
:10064000626F782E76614D49442E76616C3D3300A1
:1006500022006D7367626F782E76744D532E747816
:10066000743D220022006D7367626F782E744D65B1
:1006700073736167652E7478743D2220506F7765BF
:1006800072206C6F73732064657465637465642C89
:1006900020526573756D65207072696E7420006DEF
:1006A0007367626F782E767443616E63656C566112
:1006B0006C75652E7478743D224D313030342200D3
:1006C0006D7367626F782E76744F4B56616C7565EB
:1006D0002E7478743D224D3130303322006D7367B3
:1006E000626F782E7661546F5061676549442E764B
:1006F000616C3D36006D7367626F782E766146726D
:100700006F6D5061676549442E76616C3D310070B4
:10071000616765206D61696E00736C6565703D3061
:1007200000496E6974205344207265616465722EBD
:100730002E2E00496E6974205344207265616465F1
:10074000722E2E2E00496E69742053746570706588
:10075000722E2E2E00496E69742054656D7065727C
:1007600061747572652E2E2E00496E697420536374
:100770007265656E2E2E2E00496E69742053637269
:1007800065656E2E2E2E00534E002020506C616E3B
:100790006E657242756666657242797465733A2059
:1007A000002046726565204D656D6F72793A2000B4
:1007B000417072202032203230323200436F6D702F
:1007C000696C65643A200054656E6C6F6700207C2C
:1007D00020417574686F723A200041707220203297
:1007E00020323032322031353A33303A3134002041
:1007F0004C61737420557064617465643A200031F3
:100800002E302E3331004D61726C696E2000205302
:100810006F66747761726520526573657400205746
:1008200061746368646F6720526573657400204269
:10083000726F776E206F7574205265736574002037
:1008400045787465726E616C2052657365740050F2
:100850006F776572557000706167652030006D615B
:10086000696E2E765046522E76616C3D3100736C67
:100870006565703D30007374617274007061676506
:100880002073687574646F776E0000809843000071
:10089000A0430000B443000048C200000000000074
:1008A0000000496E76616C696420657874727564C5
:1008B000657200486F74656E64206F666673657458
:1008C000733A0070616765206D7367626F78006DC1
:1008D0007367626F782E744D6573736167652E74EC
:1008E00078743D2246696C616D656E742072756E18
:1008F0006F75742122006D7367626F782E76745362
:100900007461727456616C75652E7478743D224DF5
:1009100031303331204F3122006D7367626F782E92
:10092000767443616E63656C56616C75652E747880
:10093000743D224D3130333422006D7367626F781D
:100940002E76744F4B56616C75652E7478743D220B
:100950004D3130333422006D7367626F782E7661CB
:10096000546F5061676549442E76616C3D313500A6
:100970006D7367626F782E766146726F6D50616736
:100980006549442E76616C3D3135006D7367626F49
:10099000782E76614D49442E76616C3D3600736C3D
:1009A0006565703D3000636C69636B2062745265ED
:1009B000666C7573682C300022007C006D61696E76
:1009C0002E735374617475732E7478743D220020F5
:1009D000423A0020453A00543A003F0020573A007E
:1009E00020453A00543A0070616765207072696E64
:1009F00074696E670022007072696E74696E672E8A
:100A00007446696C654E616D652E7478743D220084
:100A100070616765206D61696E004732382058004B
:100A20004D36303520533100543000543100766952
:100A300073206274446F776E2C3100766973206284
:100A400074446F776E2C300073656C6563745F66F9
:100A5000696C652E765061676549442E76616C3D00
:100A60000076697320627455702C310076697320AA
:100A7000627455702C30002F005344207072696EE0
:100A800074696E67206279746520004E6F7420531C
:100A900044207072696E74696E67002E0044656C44
:100AA0006574696F6E206661696C65642C204669A7
:100AB0006C653A200046696C652064656C657465F8
:100AC000643A002E006F70656E206661696C656423
:100AD0002C2046696C653A200050494420417574C9
:100AE0006F74756E652066696E6973686564212030
:100AF00050757420746865204B702C204B69206100
:100B00006E64204B6420636F6E7374616E74732027
:100B1000696E746F20436F6E666967757261746980
:100B20006F6E2E6800504944204175746F74756E65
:100B300065206661696C6564212074696D656F75F7
:100B4000740020403A006F6B20543A006F6B2042D3
:100B50003A00504944204175746F74756E65206683
:100B600061696C6564212054656D7065726174758E
:100B7000726520746F6F206869676800204B643A63
:100B80002000204B693A2000204B703A200020437F
:100B90006C617369632050494420002054753A20E9
:100BA00000204B753A2000206D61783A2000206DBE
:100BB000696E3A200020643A200020626961733A2D
:100BC0002000504944204175746F74756E65207320
:100BD0007461727400504944204175746F74756E6D
:100BE00065206661696C65642E20426164206578C9
:100BF000747275646572206E756D6265722E006F19
:100C000066667365742E76615374617475732E769F
:100C1000616C3D30006F66667365742E7661537447
:100C2000617475732E76616C3D34006F6666736512
:100C3000742E76615374617475732E76616C3D32D7
:100C4000006F66667365742E766153746174757394
:100C50002E76616C3D33006F66667365742E766127
:100C60005374617475732E76616C3D3100220055AA
:100C70006E6B6E6F776E20636F6D6D616E643A2080
:100C80002200746F7563685F6A00486F74656E64F4
:100C9000206F6666736574733A007A5F6D696E3AA9
:100CA0002000795F6D696E3A2000785F6D61783A57
:100CB0002000785F6D696E3A20005265706F727423
:100CC000696E6720656E6473746F702073746174ED
:100CD0007573005A3A00593A0020436F756E7420BC
:100CE000583A2000453A005A3A00593A00583A001A
:100CF0004649524D574152455F4E414D453A4D612F
:100D0000726C696E2056313B20537072696E746547
:100D1000722F6772626C206D617368757020666FE8
:100D2000722067656E36204649524D574152455FE5
:100D300055524C3A68747470733A2F2F7777772E28
:100D40006769746875622E636F6D2F74656E6C6F62
:100D5000672050524F544F434F4C5F5645525349B2
:100D60004F4E3A312E302E30204D414348494E45AA
:100D70005F545950453A544C203344205072696EA8
:100D80007465722045585452554445525F434F553F
:100D90004E543A320A002042403A0020403A0020A5
:100DA0002F0020423A002F002054313A002F006FCC
:100DB0006B20543A002569206D696E2C202569202E
:100DC00073656300456E642066696C65206C6973A9
:100DD0007400426567696E2066696C65206C697392
:100DE0007400526573656E643A20006F6B00706129
:100DF0006765206D61696E00736C6565703D3000DC
:100E000070616765207072696E74696E6700736CDB
:100E10006565703D30005072696E7465722068615E
:100E20006C7465642E206B696C6C28292063616C7E
:100E30006C656421005072696E7465722073746F02
:100E4000707065642064756520746F206572726FC0
:100E500072732E2046697820746865206572726FFF
:100E60007220616E6420757365204D3939392074A4
:100E70006F20726573746172742E202854656D70D2
:100E8000657261747572652069732072657365742B
:100E90002E20536574206974206166746572207217
:100EA000657374617274696E67290072656C6F6135
:100EB000642E76614D6F6465324F66667365742E7D
:100EC00076616C3D2D310072656C6F61642E7661C8
:100ED0004D6F6465324F66667365742E76616C3D46
:100EE0000072656C6F61642E76614D6F64652E765D
:100EF000616C3D0072656C6F61642E766154617245
:100F00006765744265642E76616C3D0072656C6F36
:100F100061642E766154617267657454656D7031D9
:100F20002E76616C3D0072656C6F61642E76615443
:100F3000617267657454656D70302E76616C3D002A
:100F4000220072656C6F61642E73543154322E74BA
:100F500078743D220072656C6F61642E7661467212
:100F60006F6D5061676549442E76616C3D36004770
:100F7000323820585900000048C20000000000002C
:100F8000000000004040000040400000003F0080A2
:100F9000B1430000A0430000B443FFFFFF7C3C3E90
:100FA0005E2B3D3F2F5B5D3B2C2A225C0020746F43
:100FB0006F206C6F6E6720657874727573696F6EE1
:100FC0002070726576656E7465640020636F6C6472
:100FD00020657874727573696F6E207072657665BE
:100FE0006E746564006563686F3A0024F4D4305011
:100FF000C38E20C2A24017828B7011127A910D818C
:101000006CD90AA861E108C7586607615143061EFA
:101010004B5D05C145A7041A411104093D980371B0
:101020003931034036DB0265339102D430540280FB
:101030002E1D02632CEE01752AC501B028A00110F7
:101040002781018F2564012B244B01E0223401AC60
:10105000211F018D200D01801FFC00841EED0097D3
:101060001DDF00B81CD200E61BC600201BBC0064BC
:101070001AB200B219A8000A19A0006A189900D182
:1010800017910040178B00B516840031167E00B30F
:101090001579003A157300C7146F0058146A00EEF2
:1010A0001366008813630025135E00C7125B006C93
:1010B00012570015125400C111510070114F002138
:1010C000114B00D61049008D104700461044000215
:1010D000104200C00F4000800F3E00420F3C00064F
:1010E0000F3B00CB0E3800930E37005C0E35002707
:1010F0000E3400F30D3200C10D3100900D30006050
:101100000D2E00320D2D00050D2C00D90C2B00AE3C
:101110000C2900850C29005C0C2700350C27000EDB
:101120000C2600E80B2400C40B2400A00B23007D38
:101130000B23005A0B2100390B2100180B2000F85B
:101140000A1F00D90A1E00BB0A1E009D0A1D00804E
:101150000A1D00630A1C00470A1B002C0A1B001111
:101160000A1A00F7091A00DD091900C4091900ABB1
:10117000091900920917007B091800630917004C30
:1011800009160036091600200916000A091500F58F
:10119000081500E0081400CC081400B8081400A4D6
:1011A000081400900813007D0812006B0813005803
:1011B000081200460812003408110023081100121A
:1011C00008110001081100F0071000E0071000D01E
:1011D000071000C0071000B0070F00A10710009112
:1011E000070E0083070F0074070F0065070E0057F6
:1011F000070E0049070E003B070D002E070E0020CA
:10120000070D0013070D0006070D00F9060C00ED91
:10121000060D00E0060C00D4060C00C8060C00BC4D
:10122000060C00B0060C00A4060B0099060C008DFD
:10123000060B0082060B0077060B006C060B0061A4
:10124000060A0057060B004C060A0042060A003840
:10125000060A002E060A0024060A001A060A0010D2
:1012600006090007060A00FD050900F4050900EB60
:10127000050900E2050900D9050900D0050900C7E4
:10128000050900BE050900B5050800AD050800A563
:101290000509009C050800940508008C05080084D9
:1012A0000508007C050800740508006C050700654A
:1012B0000508005D050700560508004E05070047B4
:1012C0000507004005080038050700310507002A1A
:1012D000050700230507001C050600160507000F7B
:1012E0000507000805060002050700FB040600F5D7
:1012F000040700EE040600E8040600E2040700DB31
:10130000040600D5040600CF040600C9040600C385
:10131000040600BD040600B7040600B1040500ACD5
:10132000040600A6040600A00405009B0406009520
:10133000040500900406008A040500850405008069
:101340000406007A04050075040500700405006BAE
:1013500004050066040500610405005C04050057EF
:10136000040500520405004D04050048040500432F
:101370000405003E0404003A04050035040500306D
:101380000404002C04050027040400230405001EA7
:101390000404001A04040016040500110404000DDE
:1013A000040400090405000404040000040400FC13
:1013B000030400F8030400F4030400F0030400EC49
:1013C000030400E8030400E4030400E0030400DC79
:1013D000030400D8030400D4030400D0030400CCA9
:1013E000030400C8030300C503030024F404D92048
:1013F0001BC40C5C0E9804C4095F0265077101F4FC
:1014000005F900FB04B30048048700C103690058D4
:1014100003550003034500BE023A00840231005325
:10142000022A002902250004022000E4011C00C851
:10143000011900AF01170098011400840113007115
:101440000110006101100051010E0043010D003632
:10145000010B002B010B0020010B00150109000CF2
:1014600001090003010800FB000800F3000800EB7D
:10147000000700E4000600DE000600D8000600D2E7
:10148000000600CC000500C7000500C2000500BD35
:10149000000400B9000400B5000400B1000400AD70
:1014A000000400A9000400A5000300A20003009F9F
:1014B0000004009B000300980003009500020093C5
:1014C000000300900003008D0002008B00030088E1
:1014D0000002008600020084000300810002007FF9
:1014E0000002007D0002007B00020079000200770C
:1014F0000001007600020074000200720001007119
:101500000002006F0002006D0001006C0002006A22
:10151000000100690002006700010066000100652B
:10152000000100640002006200010061000100602F
:101530000001005F0002005D0001005C0001005B33
:101540000001005A00010059000100580001005735
:101550000001005600010055000100540001005335
:101560000000005300010052000100510001005032
:101570000001004F0001004E0000004E0001004D30
:101580000001004C0001004B0000004B0001004A2C
:101590000001004900010048000000480001004728
:1015A0000001004600000046000100450000004523
:1015B000000100440001004300000043000100421C
:1015C0000000004200010041000000410001004015
:1015D0000001003F0000003F0001003E0000003E0F
:1015E0000001003D0000003D0001003C0000003C07
:1015F0000000003C0001003B0000003B0001003AFD
:101600000000003A000100390000003900010038F4
:1016100000000038000000380001003700000037EB
:1016200000010036000000360000003600010035E1
:1016300000000035000000350001003400000034D7
:1016400000000034000100330000003300000033CC
:1016500000010032000000320000003200010031C1
:1016600000000031000000310001003000000030B7
:10167000000000300001002F0000002F0000002FAC
:101680000000002F0001002E0000002E0000002EA0
:101690000001002D0000002D0000002D0000002D95
:1016A0000001002C0000002C0000002C0000002C89
:1016B0000001002B0000002B0000002B0000002B7D
:1016C0000001002A0000002A0000002A0000002A71
:1016D0000001002900000029000000290000002965
:1016E0000000002900010028000000280000002858
:1016F000000000280000002800010027000000274B
:10170000000000270000002700000027000100263D
:101710000000002600000026000000260000002631
:101720000001002500000025000000250000002524
:101730000000002500000025000100240000002416
:101740000000002400000024000000240001002309
:1017500000000023000000230000002300000023FD
:1017600000000023000000230001002200000022EE
:1017700000000022000000220000002200000022E1
:1017800000010021000000210000002100000021D4
:1017900000000021000000210000002100010020C5
:1017A00000000020000000200000002000000020B9
:1017B0000000002000000020000000200001001FA9
:1017C0000000001F0000001F0000001F0000001F9D
:1017D0000000001F0000001F0001001E0000001E8E
:1017E0000000001E0000001E000000706167652000
:1017F0006D61696E0048656174696E672066616934
:101800006C6564006563686F3A00202D20496E7630
:10181000616C6964206578747275646572206E7598
:101820006D62657220210070012C0190012701B0CA
:10183000012201C0011D01F0011801100213013045
:10184000020E016002090190020401C002FF0000C3
:1018500003FA004003F5008003F000D003EB002002
:1018600004E6007004E100E004DC004005D700C09D
:1018700005D2004006CD00D006C8008007C3003066
:1018800008BE00F008B900C009B400B00AAF00B04B
:101890000BAA00D00CA500000EA000500F9B00C0AA
:1018A0001096005012910000148C00C0158700B0F3
:1018B000178200B0197D00D01B7800001E73004015
:1018C000206E0090226900F024640040275F0090A1
:1018D000295A00E02B5500102E500020304B0010EC
:1018E000324600E033410090353C0010373700703D
:1018F000383200A0392D00B03A2800A03B23006008
:101900003C1E00103D1900903D1400103E0F007069
:101910003E0A00C03E0500003F00003A20457874B2
:101920007275646572207377697463686564206F8B
:1019300066662E204D415854454D5020747269679B
:1019400067657265642021003A2045787472756479
:101950006572207377697463686564206F66662EAC
:10196000204D494E54454D50207472696767657229
:10197000656420210054656D7065726174757265CF
:10198000206865617465642062656420737769749A
:1019900063686564206F66662E204D415854454D3E
:1019A0005020747269676765726564202121005454
:1019B000656D7065726174757265206865617465C6
:1019C0006420626564207377697463686564206F5E
:1019D00066662E204D494E54454D502074726967FD
:1019E0006765726564202121004572726F723A004A
:1019F0004732382058004D363035205331004D31B4
:101A0000303333002053746F7070696E672C205030
:101A10006C7320776169742E2E2E00626B636D6487
:101A20003D30002200312E302E3331005620002070
:101A30000020504C5220004433500061626F757496
:101A40002E745665722E7478743D2200736C656531
:101A5000703D300073657474696E672E6E536C65EB
:101A600065702E76616C3D0073657474696E672EC7
:101A70006345434F4D6F64652E76616C3D00736521
:101A80007474696E672E6346696C6153656E736F1B
:101A9000722E76616C3D0073657474696E672E6397
:101AA0004175746F4F66662E76616C3D006D61699D
:101AB0006E2E765046522E76616C3D30006D616917
:101AC0006E2E765046522E76616C3D31006D616906
:101AD0006E2E7654656D704D61784265642E766128
:101AE0006C3D006D61696E2E7654656D704D617848
:101AF0002E76616C3D006D61696E2E765A4D61786F
:101B00002E76616C3D006D61696E2E76594D61785F
:101B10002E76616C3D006D61696E2E76584D617850
:101B20002E76616C3D0073657474696E672E6E4627
:101B300032742E76616C3D0073657474696E672E25
:101B40006E4632732E76616C3D0073657474696EF7
:101B5000672E7845732E76616C3D007365747469E9
:101B60006E672E785A732E76616C3D0073657474BF
:101B7000696E672E7859732E76616C3D00736574BB
:101B800074696E672E7858732E76616C3D007365AC
:101B90007474696E672E785A322E76616C3D006FD0
:101BA00066667365742E7859322E76616C3D0073CB
:101BB000657474696E672E7859322E76616C3D00BB
:101BC0006F66667365742E7858322E76616C3D00B0
:101BD00073657474696E672E7858322E76616C3D29
:101BE000006D61696E2E764C616E6775616765493F
:101BF000442E76616C3D00636C69636B20627452A5
:101C000065666C7573682C30007072696E74696EED
:101C1000672E744D3131372E7478743D22220022A4
:101C2000007072696E74696E672E744D3131372E93
:101C30007478743D22005072696E746572207374FA
:101C40006F707065642064756520746F20657272B2
:101C50006F72732E204669782074686520657272F1
:101C60006F7220616E6420757365204D393939209B
:101C7000746F20726573746172742E202854656DC0
:101C80007065726174757265206973207265736521
:101C9000742E205365742069742061667465722007
:101CA00072657374617274696E6729004E6F204C9F
:101CB000696E65204E756D62657220776974682063
:101CC000636865636B73756D2C204C617374204C75
:101CD000696E653A20004E6F20436865636B7375CB
:101CE0006D2077697468206C696E65206E756D6211
:101CF00065722C204C617374204C696E653A20002B
:101D0000636865636B73756D206D69736D61746372
:101D1000682C204C617374204C696E653A20004C2D
:101D2000696E65204E756D626572206973206E6FF5
:101D300074204C617374204C696E65204E756D6221
:101D400065722B312C204C617374204C696E653A9E
:101D500020004D3131300070616765206D7367621E
:101D60006F780022006D7367626F782E76744D5322
:101D70002E7478743D22006D7367626F782E7661E1
:101D80004D49442E76616C3D31002200206D696E14
:101D9000757465732E0D0A0020686F757365206178
:101DA0006E6420006D7367626F782E744D65737377
:101DB0006167652E7478743D225072696E74206676
:101DC000696E69736865642C20006D7367626F7853
:101DD0002E76744F4B56616C75652E7478743D2267
:101DE00022006D7367626F782E7661546F50616761
:101DF0006549442E76616C3D31006D7367626F7882
:101E00002E766146726F6D5061676549442E76612A
:101E10006C3D3100736C6565703D30006563686FC3
:101E20003A00256920686F757273202569206D69F5
:101E30006E7574657300446F6E65207072696E74A0
:101E4000696E672066696C65005072696E746572B0
:101E50002073746F707065642064756520746F20E2
:101E60006572726F72732E204669782074686520DF
:101E70006572726F7220616E6420757365204D39D2
:101E8000393920746F20726573746172742E202842
:101E900054656D7065726174757265206973207226
:101EA000657365742E2053657420697420616674AF
:101EB00065722072657374617274696E6729004E71
:101EC0006F204C696E65204E756D62657220776972
:101ED000746820636865636B73756D2C204C617347
:101EE00074204C696E653A20004E6F20436865632C
:101EF0006B73756D2077697468206C696E65206EF0
:101F0000756D6265722C204C617374204C696E652E
:101F10003A2000636865636B73756D206D69736D3E
:101F2000617463682C204C617374204C696E653A4F
:101F300020004C696E65204E756D62657220697374
:101F4000206E6F74204C617374204C696E65204E56
:101F5000756D6265722B312C204C617374204C6955
:101F60006E653A20004572726F723A004D31313021
:101F7000006572726F722077726974696E6720747F
:101F80006F2066696C6500205A3A0020593A00209B
:101F9000583A00656E6473746F7073206869743AA0
:101FA00020006563686F3A0070616765206D736734
:101FB000626F780022006D7367626F782E744D65D2
:101FC00073736167652E7478743D220022006D730F
:101FD00067626F782E76744D532E7478743D2200AC
:101FE0006D7367626F782E76614D49442E76616C11
:101FF0003D006D7367626F782E7661546F50616734
:102000006549442E76616C3D31006D7367626F786F
:102010002E766146726F6D5061676549442E766118
:102020006C3D3100736C6565703D3000446F6E65CA
:1020300020736176696E672066696C652E006F6B30
:10204000004D32390000002100240027002A002D15
:10205000003000330001010000040107010A010003
:10206000002200250028002B002E00310034000241
:10207000010000050108010B0100002000230026DB
:102080000029002C002F003200000100000301068F
:1020900001090105050505070508080808020202EF
:1020A000020A0A08080404040401010101010101F3
:1020B000010303030303030303040707070C0C0CCA
:1020C0000C0C0C0C0C0202020206060606060606A2
:1020D000060B0B0B0B0B0B0B0B010210202008083F
:1020E000102040102040800201020108040201017A
:1020F0000204081020408080402010080402018063
:1021000004020180402010080402010804020101B9
:1021100002040810204080010204081020408000C2
:10212000000A0B02090C0D0E080703040100000051
:10213000000000000000000000000000000000009F
:10214000000000000000000000000012111000005C
:10215000000000000000000000000000000000007F
:10216000000000000043616E6E6F74206F70656E3A
:10217000207375626469720025730057726974690F
:102180006E6720746F2066696C653A20002E006FC0
:1021900070656E206661696C65642C2046696C65AB
:1021A0003A20002E006F70656E206661696C656470
:1021B0002C2046696C653A200046696C6520736581
:1021C0006C6563746564002053697A653A20004643
:1021D000696C65206F70656E65643A20002E006F33
:1021E00070656E206661696C65642C2046696C655B
:1021F0003A2000745374617475732E7478743D22A0
:1022000053442063617264204F4B22005344206387
:10221000617264206F6B006F70656E526F6F742017
:102220006661696C656400766F6C756D652E696EAC
:102230006974206661696C6564004572726F723AF8
:102240000053442043617264206E6F74206465748F
:10225000656374656400745374617475732E747867
:10226000743D2253442043617264206E6F74206475
:10227000657465637465642200534420696E6974F3
:10228000206661696C006563686F3A004D32340006
:102290004D3233202573006175746F25692E6700F8
:1022A000E0E79EE711241FBECFEFD1E2DEBFCDBF36
:1022B00000E00CBF15E0A0E0B2E0E4E9FDE002E0E0
:1022C0000BBF02C007900D92AA32B107D9F727E1E0
:1022D000AAE2B5E001C01D92A33EB207E1F711E109
:1022E000C1E5D1E100E006C021970109802FFE0180
:1022F0000F948101C035D10780E00807A9F70E943B
:102300000AE90D94B8060C94000090E080E008956E
:10231000FC01CB01BA012491222341F03091C0008D
:1023200035FFFCCF2093C6003196F5CF4AE00C94E0
:10233000C3CBEF92FF920F931F93CF93DF937C0158
:102340008B01EA018AE590E00E943ECD85EA90E0AB
:102350000E943ECD85E090E00E943ECD82E890E074
:102360000E943ECDC7010E943ECDC8010E943ECDD5
:1023700090E080E00E943ECDCE01DF91CF911F9191
:102380000F91FF90EF900C943ECDCF93DF93EC0133
:10239000AC0160E470E080E990E00E94991141E0B6
:1023A00050E0209711F050E040E060E170E080E8FC
:1023B00090E00E949911AE0161E170E080E890E048
:1023C000DF91CF910C949911CF93DF93EC0161EDE4
:1023D00072E00E94BED481112AC063ED72E0CE018A
:1023E0000E94BED4811126C065ED72E0CE010E942C
:1023F000BED4811122C060EC73E0CE010E94BED435
:1024000081111EC067ED72E0CE010E94BED4811121
:102410001AC069ED72E0CE010E94BED4811116C0CF
:10242000CE010E9430D3CB01DF91CF9108958AE095
:1024300090E0FACF8BE090E0F7CF8CE090E0F4CF23
:102440008DE090E0F1CF8EE090E0EECF8FE090E075
:10245000EBCFCF92DF92EF92FF92892B31F4FF9076
:10246000EF90DF90CF900C94E28BC0904C15D09001
:102470004D15E0904E15F0904F1520E030E0A90189
:10248000C701B6010F94F203181644F0C09044152A
:10249000D0904515E0904615F0904715C701B6015C
:1024A000FF90EF90DF90CF90089580912C0C909149
:1024B0002D0C4AE050E070E060E001960C9429F9A0
:1024C000CF93DF93CDB7DEB7A0970FB6F894DEBFFA
:1024D0000FBECDBF40E250E0BE016F5F7F4F0E9454
:1024E00073CDCE0101960E9457FAA0960FB6F894CC
:1024F000DEBF0FBECDBFDF91CF910895FC01659186
:1025000075918591949108958F929F92AF92BF9209
:10251000CF92DF92EF92FF920F931F93CF93DF93AF
:10252000009709F0E3C020916410222309F448C009
:10253000822F90E00E94291260937610709377109A
:1025400080937810909379101092120210921302D7
:102550001092140210921502C0904C15D0904D1597
:10256000E0904E15F0904F150091441510914515CF
:10257000D0914615C091471598014D2F5C2FB6019B
:10258000C7010F94F20318161CF48601DE2DCF2D1F
:10259000C801AD2FBC2F8093060290930702A09331
:1025A0000802B0930902DF91CF911F910F91FF9024
:1025B000EF90DF90CF90BF90AF909F908F90089555
:1025C0002091650230916602225031092230310596
:1025D00008F08CC086E79FE00E947E129B01AC0150
:1025E00060918C0570918D0580918E0590918F057D
:1025F0000F94920160937610709377108093781007
:102600009093791086E998E00E947E129B01AC01BC
:1026100060918C0570918D0580918E0590918F054C
:102620000F9492016093120270931302809314022C
:10263000909315028AE898E00E947E1220918C0502
:1026400030918D0540918E0550918F050F94920128
:102650006B017C0180904C1590904D15A0904E150B
:10266000B0904F150091441510914515D091461525
:10267000C091471598014D2F5C2FB401C5010F94EF
:10268000F20318161CF48401DA2DCB2D2091670279
:10269000309168024091690250916A02B8018D2F11
:1026A0009C2F0F9491014B015C01AC019B01C70170
:1026B000B6010E9468FB87FF10C08AE898E00E947C
:1026C0007E1220918C0530918D0540918E055091A0
:1026D0008F050F9492014B015C018092060290924B
:1026E0000702A0920802B09209025DCFEC01CC0F64
:1026F000DD1FCC0FDD1FCE018A58904F0E947E1245
:102700009B01AC01CE018A589F4E7C018E0104577B
:102710001A4FF80160817181828193810F94920137
:10272000F7016083718382839383CE018A56974F2A
:102730000E947E129B01AC01CE018E5E9D4F7C01FA
:10274000F80160817181828193810F949201F70178
:102750006083718382839383CE018657974F0E9453
:102760007E129B01AC01CA5FDD4FF801608171816F
:10277000828193810F949201688379838A839B83FA
:1027800012CF682F880F770B20914E0E30914F0E8D
:1027900040E6429FC001439F900D11248253934F06
:1027A0000F9466069C0190932D0C80932C0C81E075
:1027B000232B09F480E0089580912C0C90912D0C2E
:1027C00070E060E001960C94CBF7CF92DF92EF922D
:1027D000FF92CF93DF93EC0183E50E94C113811137
:1027E0000AC0C430D10578F0DF91CF91FF90EF900F
:1027F000DF90CF900895C430D10528F00E94DC13FB
:102800000F94FE02EB01209709F06EC0C0915005B5
:10281000D0915105BE010D2E000C880B990B0E9422
:102820006FFB6B017C016091520670915306072E7D
:10283000000C880B990B0E946FFB9B01AC01C70138
:10284000B6010F94F203181624F0D0936110C093D0
:1028500060106091370670913806072E000C880BC7
:10286000990B0E946FFB9B01AC01C701B6010F944D
:10287000F203181624F0D0936310C0936210C09135
:102880004E05D0914F05BE010D2E000C880B990B03
:102890000E946FFB6B017C016091050C7091060C2E
:1028A0006F5F7F4F072E000C880B990B0E946FFB08
:1028B0009B01AC01C701B6010E9468FB87FF04C001
:1028C000D093CD0CC093CC0C80914C0590914D05CC
:1028D00090930B0C80930A0CDF91CF91FF90EF90B7
:1028E000DF90CF900C94457DC130D10509F063C0D5
:1028F000C0915605D0915705BE010D2E000C880BD6
:10290000990B0E946FFB6B017C01609152067091E4
:102910005306072E000C880B990B0E946FFB9B013E
:10292000AC01C701B6010F94F203181624F0D0933E
:102930006110C09360106091370670913806072EC1
:10294000000C880B990B0E946FFB9B01AC01C70127
:10295000B6010F94F203181624F0D0936310C093BD
:102960006210C0915405D0915505BE010D2E000C8A
:10297000880B990B0E946FFB6B017C016091050C29
:102980007091060C6F5F7F4F072E000C880B990B20
:102990000E946FFB9B01AC01C701B6010E9468FB5E
:1029A00087FF04C0D093CD0CC093CC0C809152050E
:1029B000909153058DCFC230D10541F4DF91CF9175
:1029C000FF90EF90DF90CF900C944C8C239709F000
:1029D0000BCF0E944C8C0E9405B18D9A129A80E018
:1029E000DF91CF91FF90EF90DF90CF900C9455B88E
:1029F000BF92CF92DF92EF92FF920F931F93CF93EC
:102A0000DF938C017B0188E690E00E94538D811159
:102A100091C0C091890584E50E94C113D0E088234C
:102A200029F00E94DC130F94FE02EB0117FFE8016E
:102A300083E50E94C1130FEF1FEF882329F00E9446
:102A4000DC130F94FE028B01F7FE8701B801012E03
:102A5000000C880B990B0E946FFB6B017C0160914D
:102A6000520670915306CC2339F081E0C81312C08E
:102A70006091370670913806072E000C880B990B71
:102A80000E946FFB9B01AC01C701B6010F94F203DA
:102A900018163CF0DD27CC0FDD1FC05ADF4E19831E
:102AA000088380916502909166020297029798F5DB
:102AB0008091890581112FC020E030E0A901C70174
:102AC000B6010E9468FB882389F120914805309166
:102AD000490540914A0550914B05C701B6010F9435
:102AE00092016B017C016091370670913806072EC8
:102AF000000C880B990B0E946FFBA70196010E94A6
:102B000068FB87FD08C0C701B6010F94FE027093F1
:102B1000631060936210DF91CF911F910F91FF902E
:102B2000EF90DF90CF90BF900C94457DC12CD12CBD
:102B30007601D9CFDF91CF911F910F91FF90EF9048
:102B4000DF90CF90BF9008954F925F926F927F92E7
:102B50008F929F92AF92BF92CF92DF92EF92FF92AD
:102B60000F931F93CF93DF9300D000D000D01F921C
:102B7000CDB7DEB769837A838B839C8329013A01C1
:102B8000ED82FE820F83188785E40E94C11388239B
:102B900051F020E83FE443EC57ECC601B5010F9437
:102BA000F203181614F40E9405B187EA882E82E019
:102BB000982E8CE895E09A87898796E7E92E90E130
:102BC000F92E10E0F40181914F010E94C113882376
:102BD00079F0133009F0C1C00E94DC1360938210B9
:102BE0007093831080938410909385100E9408CE78
:102BF00089859A8504969A87898794E0E90EF11C65
:102C00001F5F1430F9F620E83FE443EC57ECC601AF
:102C1000B5010F94F203181654F4A0928210B092EA
:102C20008310C0928410D09285100E9408CE20E8B4
:102C30003FE443EC57EC69817A818B819C810F944E
:102C4000F203181604F529813A814B815C81609169
:102C50008C0570918D0580918E0590918F050F9454
:102C60009201609376107093771080937810909310
:102C7000791022E830E14EE750E16AE770E186E73B
:102C800090E10E94F77F20E83FE443EC57ECC3015A
:102C9000B2010F94F2031816ECF4A30192016091B3
:102CA00090057091910580919205909193050F94F4
:102CB000920160937A1070937B1080937C109093B4
:102CC0007D1022E830E14EE750E16AE770E1CB0188
:102CD0000E94F77F20E83FE443EC57EC6D817E8152
:102CE0008F8198850F94F20318160CF052C02D8135
:102CF0003E814F8158856091940570919505809132
:102D00009605909197050F94920160937E107093B1
:102D10007F10809380109093811022E830E14EE77D
:102D200050E16AE770E186E790E12A960FB6F894E1
:102D3000DEBF0FBECDBFDF91CF911F910F91FF90EE
:102D4000EF90DF90CF90BF90AF909F908F907F904B
:102D50006F905F904F900C94F77F0E94DC139B0163
:102D6000AC01E985FA8560817181828193810F943C
:102D70009201F701608371838283938322E830E1BB
:102D80004EE750E16AE770E186E790E10E94F77F45
:102D90002FCF2A960FB6F894DEBF0FBECDBFDF91BE
:102DA000CF911F910F91FF90EF90DF90CF90BF9048
:102DB000AF909F908F907F906F905F904F9008950D
:102DC0008F929F92AF92BF92CF92DF92EF92FF923B
:102DD0004B015C0180E50E94C113C12CD12C76010E
:102DE000882331F00E94DC130F9405036B017C01F2
:102DF00083E50E94C113882361F00E94DC1320E068
:102E000030E04AE754E40E94CAF50F9405036B01D1
:102E10007C0120E030E0A901C501B4010F94F20368
:102E2000181664F420E030E04AE754E4C501B40128
:102E30000E94CAF50F9405036B017C010E9405B145
:102E40000E941DD2C60ED71EE81EF91E0E941DD27A
:102E50006093810570938205809383059093840528
:102E60000E941DD26C157D058E059F0588F40E9479
:102E700065928091CB0C882331F00E9432CE109263
:102E80006815109267150E9449AF0E948596E8CF99
:102E9000FF90EF90DF90CF90BF90AF909F908F907A
:102EA0000895CF93DF93C6EAD0E183EA94E10E94CC
:102EB0006BC8892B99F083EA94E10E9449C8092ED6
:102EC000000CAA0BBB0B89939993A993B99362E069
:102ED00070E080E090E00E94EBD1E7CFDF91CF91EE
:102EE00008952091500E3091510E243031050CF090
:102EF00069C0BC012091320C3091330C40E6429FF6
:102F0000C001439F900D11248253934F0E948BFA6E
:102F1000ECE1FEE18491882341F09091C00095FF9F
:102F2000FCCF8093C6003196F5CFEBECF5E08491B1
:102F3000882341F09091C00095FFFCCF8093C6009C
:102F40003196F5CF8091320C9091330C20E6289F7A
:102F5000F001299FF00D1124E253F34F8191882352
:102F600039F09091C00095FFFCCF8093C600F6CF5A
:102F7000E9ECF5E08491882341F09091C00095FF41
:102F8000FCCF8093C6003196F5CF8091C00085FFBD
:102F9000FCCF8AE08093C6008091320C9091330C74
:102FA000019664E070E00F944E019093330C80938F
:102FB000320C8091500E9091510E01969093510ECB
:102FC0008093500E08952091500E3091510E243070
:102FD00031050CF069C0BC012091320C3091330CEA
:102FE00040E6429FC001439F900D11248253934FAE
:102FF0000F947A06ECE1FEE18491882341F09091F0
:10300000C00095FFFCCF8093C6003196F5CFEEEB64
:10301000F5E08491882341F09091C00095FFFCCFAA
:103020008093C6003196F5CF8091320C9091330C8D
:1030300020E6289FF001299FF00D1124E253F34F61
:103040008191882339F09091C00095FFFCCF809347
:10305000C600F6CFECEBF5E08491882341F0909127
:10306000C00095FFFCCF8093C6003196F5CF8091CC
:10307000C00085FFFCCF8AE08093C6008091320CAF
:103080009091330C019664E070E00F944E019093A0
:10309000330C8093320C8091500E9091510E01961A
:1030A0009093510E8093500E0895FC01CB01BA010C
:1030B0002491222341F03091C00035FFFCCF2093B2
:1030C000C6003196F5CF42E00C9453CCCF93DF93FA
:1030D000C6EBD5E0FE018491882341F09091C000B9
:1030E00095FFFCCF8093C6003196F5CFEAE6F5E078
:1030F0008491882341F09091C00095FFFCCF80938C
:10310000C6003196F5CFFE018491E6EBF5E0882309
:1031100049F09091C00095FFFCCF8093C600319696
:103120008491F5CF4091961050919710609198102E
:103130007091991082E695E00E94551840919A107E
:1031400050919B1060919C1070919D108FE595E0BF
:103150000E94551840919E1050919F106091A010B0
:103160007091A1108CE595E00E9455184091A21035
:103170005091A3106091A4107091A51089E595E07D
:103180000E9455188091C00085FFFCCF8AE0809393
:10319000C600FE018491E6EBF5E0882349F09091AA
:1031A000C00095FFFCCF8093C60031968491F5CF87
:1031B000EFE3F5E08491882341F09091C00095FF02
:1031C000FCCF8093C6003196F5CFFE018491E6EBEB
:1031D000F5E0882349F09091C00095FFFCCF8093E3
:1031E000C60031968491F5CF4091BC055091BD0544
:1031F0006091BE057091BF0586E395E00E94551869
:103200004091C0055091C1056091C2057091C30500
:1032100083E395E00E9455184091C4055091C5057F
:103220006091C6057091C70580E395E00E9455182E
:103230004091C8055091C9056091CA057091CB05B0
:103240008DE295E00E9455188091C00085FFFCCF6B
:103250008AE08093C600FE018491E6EBF5E08823C6
:1032600049F09091C00095FFFCCF8093C600319645
:103270008491F5CFEFE0F5E08491882341F09091BF
:10328000C00095FFFCCF8093C6003196F5CFFE01BC
:103290008491E6EBF5E0882349F09091C00095FF1A
:1032A000FCCF8093C60031968491F5CF4091FC0508
:1032B0005091FD056091FE057091FF0586E095E057
:1032C0000E9488114091000650910106609102060B
:1032D0007091030683E095E00E94881140910406F6
:1032E00050910506609106067091070680E095E012
:1032F0000E948811409108065091090660910A06C3
:1033000070910B068DEF94E00E9488118091C000AF
:1033100085FFFCCF8AE08093C600FE018491E6EB36
:10332000F5E0882349F09091C00095FFFCCF809391
:10333000C60031968491F5CFE8ECF4E084918823BF
:1033400041F09091C00095FFFCCF8093C60031966C
:10335000F5CFFE018491E6EBF5E0882349F09091EA
:10336000C00095FFFCCF8093C60031968491F5CFC5
:103370004091B4055091B5056091B6057091B705BF
:103380008FEB94E00E9455184091B8055091B90513
:103390006091BA057091BB058CEB94E00E945518C2
:1033A0008091C00085FFFCCF8AE08093C600FE01BB
:1033B0008491E6EBF5E0882349F09091C00095FFF9
:1033C000FCCF8093C60031968491F5CFE9E0F4E01C
:1033D0008491882341F09091C00095FFFCCF8093A9
:1033E000C6003196F5CFFE018491E6EBF5E0882327
:1033F00049F09091C00095FFFCCF8093C6003196B4
:103400008491F5CF4091D0055091D1056091D205BE
:103410007091D30580E094E00E9455184091D40546
:103420005091D5056091D6057091D7058DEF93E049
:103430000E9455184091CC055091CD056091CE0564
:103440007091CF058AEF93E00E9488114091B005FA
:103450005091B1056091B2057091B30587EF93E08B
:103460000E9455184091AC055091AD056091AE0594
:103470007091AF0584EF93E00E9455184091A80524
:103480005091A9056091AA057091AB0581EF93E079
:103490000E9455188091C00085FFFCCF8AE0809380
:1034A000C600FE018491E6EBF5E0882349F0909197
:1034B000C00095FFFCCF8093C60031968491F5CF74
:1034C000EFEDF3E08491882341F09091C00095FFE7
:1034D000FCCF8093C6003196F5CFFE018491E6EBD8
:1034E000F5E0882349F09091C00095FFFCCF8093D0
:1034F000C60031968491F5CF40918C0550918D0591
:1035000060918E0570918F0586ED93E00E945518AD
:1035100040919005509191056091920570919305AD
:1035200083ED93E00E9455184091940550919505C4
:10353000609196057091970580ED93E00E94551873
:103540008091C00085FFFCCF8AE08093C600FE0119
:103550008491E6EBF5E0882349F09091C00095FF57
:10356000FCCF8093C60031968491F5CFE2ECF3E076
:103570008491882341F09091C00095FFFCCF809307
:10358000C6003196F5CFFE018491E6EBF5E0882385
:1035900049F09091C00095FFFCCF8093C600319612
:1035A0008491F5CF409151025091520260915302A3
:1035B0007091540288EB93E00E9455182DEB37E38D
:1035C00046E05EE360914D0270914E0280914F02A1
:1035D000909150020F948C02AB01BC0185EB93E0FB
:1035E0000E9455182DEB37E346E05EE360914902F7
:1035F00070914A0280914B0290914C020E94CAF550
:10360000AB01BC0182EB93E00E9455188091C00091
:1036100085FFFCCF8AE08093C600FE018491E6EB33
:10362000F5E0882349F09091C00095FFFCCF80938E
:10363000C60031968491F5CFEFE9F3E084918823B9
:1036400041F09091C00095FFFCCF8093C600319669
:10365000F5CF4091441550914515609146157091F4
:1036600047158BE993E00E9455188091C00085FFB3
:10367000FCCF8AE08093C600FE018491E6EBF5E082
:10368000882349F09091C00095FFFCCF8093C6003D
:1036900031968491F5CFEAE8F3E08491882341F0F4
:1036A0009091C00095FFFCCF8093C6003196F5CF76
:1036B000409160155091611560916215709163158C
:1036C00086E893E00E9455188091C00085FFFCCFEA
:1036D0008AE08093C600FE01C491E6EBF5E0CC23BE
:1036E00049F08091C00085FFFCCFC093C6003196A1
:1036F000C491F5CFE5E7F3E08491882341F0909100
:10370000C00095FFFCCF8093C6003196F5CF409165
:1037100058065091590660915A0670915B0681E7F0
:1037200093E00E9455188091C00085FFFCCF8AE08D
:103730008093C600DF91CF910895FC012381211170
:103740000C949D8708950E94BED491E0811190E071
:10375000892F08951F920F920FB60F9211240BB666
:103760000F922F933F934F936F937F938F939F93DA
:10377000EF93FF934091C6002091B40C3091B50CAB
:10378000C90101968F7799276091B60C7091B70C9B
:103790008617970741F02C5C334FF90140839093D3
:1037A000B50C8093B40CFF91EF919F918F917F9115
:1037B0006F914F913F912F910F900BBE0F900FBEC5
:1037C0000F901F901895CF93DF93EC018AE590E05E
:1037D0000E943ECD85EA90E00E943ECD85E090E0DB
:1037E0000E943ECD82E890E00E943ECD90E080E0D5
:1037F0000E943ECD82E890E00E943ECDCE010E9424
:103800003ECDCE01DF91CF910C943ECD8F929F9211
:10381000AF92BF92CF92DF92EF92FF920F931F93DE
:103820004B015C0169017A018AE590E00E943ECD7E
:1038300085EA90E00E943ECDC80103960E943ECDED
:1038400082E890E00E943ECDBB27B7FCBA95AB2D35
:103850009A2D892D0E943ECDD501C4019927AA2712
:10386000BB270E943ECD04301105F1F481E0C8165B
:10387000D104E104F806BCF16F2D992767FD9095FE
:10388000792F892F0E943ACDFF2481E0C816D104F8
:10389000E806F1046CF1B701992777FD9095892F1F
:1038A0000E943ACDEE24FF2481E0C816D806E10438
:1038B000F1041CF19927F7FC9A958F2D7E2D6D2D23
:1038C0000E943ACDC701B6017727882799271F9113
:1038D0000F91FF90EF90DF90CF90BF90AF909F90AF
:1038E0008F900C943ACD90E080E00E943ECDCDCFF9
:1038F00090E080E00E943ECDD7CF90E080E00E9433
:103900003ECDC701B601E3CF0F931F93209164050D
:1039100030916505245631092B30310578F4032E9A
:10392000000C440B550B02E010E060E778E880E003
:1039300090E00E94061C1F910F91089502E010E094
:1039400020E030E0A901F1CFCF92DF92EF92FF9219
:10395000CF93DF936B017C01EA018AE590E00E943E
:103960003ECD85EA90E00E943ECD84E090E00E944A
:103970003ECD83E890E00E943ECD80E190E00E9441
:103980003ECDD701C6019927AA27BB270E943ECD6D
:10399000CE01DF91CF91FF90EF90DF90CF900C940C
:1039A0003ECD4F925F926F927F928F929F92AF9295
:1039B000BF92CF92DF92EF92FF920F931F93CF931C
:1039C000DF932B013C0149015A01C5EAD0E0E11027
:1039D00002C0CAE5D0E08AE590E00E943ECD85EACB
:1039E00090E00E943ECD8BE090E00E943ECD82E8C8
:1039F00090E00E943ECD90E080E00E943ECD88E0C5
:103A000090E00E943ECDCE010E943ECD90E080E04D
:103A10000E943ECDC301B20120E031E040E050E021
:103A20000F9462016B01C9010E943ECDC6010E9444
:103A30003ECD80E190E00E943ECDD501C4019927A2
:103A4000AA27BB270E943ECD90E080E00E943ECD99
:103A5000C801DF91CF911F910F91FF90EF90DF9000
:103A6000CF90BF90AF909F908F907F906F905F901E
:103A70004F900C943ECD8F929F92AF92BF92EF9257
:103A80000F931F93CF93DF934A015B01E9012FEF5F
:103A900030E742E0215030404040E1F700C00000F4
:103AA000BC01990F880B990BE12C8E01A5019401A3
:103AB0000E94D11C8FEF99E628E181509040204070
:103AC000E1F700C00000AE01C501B4010E94A41CD2
:103AD0003FEF40E782E0315040408040E1F700C0D6
:103AE0000000DF91CF911F910F91EF90BF90AF90A9
:103AF0009F908F9008950F931F93CF93DF9300D0E3
:103B00001F92CDB7DEB78C01198284E88A838AE5DB
:103B10008B8381E08C838AE590E00E943ECD85EA2C
:103B200090E00E943ECD67E083EA94E10E94A3C842
:103B300082E890E00E943ECD42E050E0BE016F5F1F
:103B40007F4F83EA94E10E940DC842E050E0BE013D
:103B50006D5F7F4F83EA94E10E940DC890E080E0A2
:103B60000E943ECDC8010E943ECD109348060093AE
:103B700047060F900F900F900F90DF91CF911F91FC
:103B80000F9108958FEF9FEF0E943ECD8FEF9FEF33
:103B90000E943ECD8FEF9FEF0C943ECD0C944CCD08
:103BA0000E944CCD0C94C21D0C9443CD0E9443CD79
:103BB0000C94C21DEF92FF920F931F93CF938C0131
:103BC0007B01C42FF801808191810F94D800F70107
:103BD00081937F01F8018081918101969183808397
:103BE000C15081F7CF911F910F91FF90EF900895F1
:103BF000EF92FF920F931F93CF938C017B01C42F01
:103C0000F70161917F01F801808191810F94E000BB
:103C1000F80180819181019691838083C15081F761
:103C2000CF911F910F91FF90EF9008950F931F93E5
:103C3000CF93DF93CDB7DEB72C970FB6F894DEBFE6
:103C40000FBECDBF8091DB029091DC02A091DD021E
:103C5000B091DE0289839A83AB83BC8304E610E0D3
:103C60001A87098744E0BE016F5F7F4FCE01099636
:103C70000E94F81D40E166E970E1CE0109960E94BC
:103C8000F81D40E16CEB75E0CE0109960E94F81D2D
:103C900040E16CEF75E0CE0109960E94F81D44E00A
:103CA00064EB75E0CE0109960E94F81D44E068EBD4
:103CB00075E0CE0109960E94F81D44E060ED75E0C4
:103CC000CE0109960E94F81D44E064ED75E0CE0136
:103CD00009960E94F81D44E06CEC75E0CE0109964F
:103CE0000E94F81D44E060EB75E0CE0109960E9449
:103CF000F81D44E06CEA75E0CE0109960E94F81DBB
:103D000044E068EA75E0CE0109960E94F81D4CE097
:103D10006CE875E0CE0109960E94F81D42E066E568
:103D200075E0CE0109960E94F81D42E064E575E059
:103D3000CE0109960E94F81D42E062E575E0CE01D1
:103D400009960E94F81D42E060E575E0CE010996F3
:103D50000E94F81D42E06EE475E0CE0109960E94D3
:103D6000F81D42E06CE475E0CE0109960E94F81D52
:103D700044E061E572E0CE0109960E94F81D44E03E
:103D80006DE472E0CE0109960E94F81D44E069E4FA
:103D900072E0CE0109960E94F81D44E064E475E1EA
:103DA000CE0109960E94F81D44E060E675E1CE015F
:103DB00009960E94F81D44E068E576E0CE01099678
:103DC0000E94F81D42E066E576E0CE0109960E9469
:103DD000F81D42E064E576E0CE0109960E94F81DE8
:103DE00042E06CE576E0CE0109960E94F81D42E0C3
:103DF00065E27CE0CE0109960E94F81D42E06EE487
:103E000076E0CE0109960E94F81D42E067E07CE072
:103E1000CE0109960E94F81D42E062E576E0CE01EF
:103E200009960E94F81D42E067E376E0CE0109960C
:103E30000E94F81D42E065E07CE0CE0109960E94F8
:103E4000F81D42E060E576E0CE0109960E94F81D7B
:103E500080E290E09C878B8742E0BE01655F7F4FE8
:103E6000CE0109960E94F81D8091DF029091E00238
:103E7000A091E102B091E2028D839E83AF83B88767
:103E80001A87098744E0BE016B5F7F4FCE01099618
:103E90000E94F81DE6EBF5E08491882341F09091B3
:103EA000C00095FFFCCF8093C6003196F5CFE1E6C8
:103EB000F3E08491882341F09091C00095FFFCCFFE
:103EC0008093C6003196F5CF8091C00085FFFCCF6E
:103ED0008AE08093C6002C960FB6F894DEBF0FBE22
:103EE000CDBFDF91CF911F910F9108958F929F9237
:103EF000AF92BF92CF92DF92EF92FF92CF93DF9378
:103F0000CDB7DEB7E0970FB6F894DEBF0FBECDBFDA
:103F100080E1E7E7F2E0DE01119601900D928A95CB
:103F2000E1F780E1E7E8F2E0DE01519601900D92C1
:103F30008A95E1F780E1E7E9F2E0DE0191960190F0
:103F40000D928A95E1F7CE0101966C0166E970E168
:103F5000DE0151964CEB55E09E012F5D3F4F8CEFFB
:103F600095E07D01F60181909190A190B1906F0153
:103F7000FB0181929192A192B192BF018D909D908F
:103F8000AD90BD90FA0181929192A192B192AF0150
:103F9000F90181909190A190B1909F01FC018192D3
:103FA0009192A192B192CF01CE14DF04D9F60E9472
:103FB000BE7F80E090E0AAEFB3E48093B4059093D5
:103FC000B505A093B605B093B7058093B805909357
:103FD000B905A093BA05B093BB051092D005109215
:103FE000D1051092D2051092D30580E29EE4A0E0A4
:103FF000B0E08093CC059093CD05A093CE05B0930F
:10400000CF051092D4051092D5051092D6051092C6
:10401000D70580E090E0A0E2B1E48093B0059093F2
:10402000B105A093B205B093B3058AE999E9A9E96E
:10403000BEE38093AC059093AD05A093AE05B0931D
:10404000AF05C12CD12C80EAE82E80E4F82EC09276
:10405000A805D092A905E092AA05F092AB051092AE
:10406000940510929505109296051092970510925E
:10407000900510929105109292051092930510925E
:104080008C0510928D0510928E0510928F0588EC8C
:1040900090E0909357058093560510925505109225
:1040A000540510925305109252058CED90E09093B8
:1040B00051058093500583E290E090934F058093E3
:1040C0004E0510924D0510924C058AE097EDA1EB3C
:1040D000B1E48093510290935202A0935302B093A3
:1040E00054028EE297E1A8E5BEE380934D029093DF
:1040F0004E02A0934F02B09350028EE395ECA2E1E2
:10410000B4E48093490290934A02A0934B02B09387
:104110004C020E94757F80E090E0A0E8BFE38093AE
:10412000020290930302A0930402B093050280E080
:1041300090E8A3EBB3E48093441590934515A093C6
:104140004615B093471581E080933C0280E491E0EE
:1041500090935306809352069093380680933706C7
:1041600088E790E09093060C8093050CC092601550
:10417000D0926115E0926215F092631580E090E0B4
:10418000A0E0B0E48093580690935906A0935A0695
:10419000B0935B0680E590E09093570680935606B7
:1041A000909355068093540610925D0610925C061B
:1041B0001092080C1092070C81E090E09093510649
:1041C0008093500610924F0610924E061092260CC5
:1041D0001092250CE6EBF5E08491882341F0909154
:1041E000C00095FFFCCF8093C6003196F5CFE4E97F
:1041F000F5E08491882341F09091C00095FFFCCFB9
:104200008093C6003196F5CF8091C00085FFFCCF2A
:104210008AE08093C600E0960FB6F894DEBF0FBE2A
:10422000CDBFDF91CF91FF90EF90DF90CF90BF9007
:10423000AF909F908F900C94161ECF93DF93CDB7C5
:10424000DEB72C970FB6F894DEBF0FBECDBF84E665
:1042500090E09C878B878091DF029091E002A09193
:10426000E102B091E2028D839E83AF83B88744E080
:10427000BE016F5F7F4FCE010B960E94DA1D43E0B7
:1042800050E0BE016F5F7F4FCE0105960F9481060F
:10429000892B09F050C140E166E970E1CE010B962F
:1042A0000E94DA1D40E16CEB75E0CE010B960E9496
:1042B000DA1D40E16CEF75E0CE010B960E94DA1D2D
:1042C0000E94BE7F44E064EB75E0CE010B960E9435
:1042D000DA1D44E068EB75E0CE010B960E94DA1D12
:1042E00044E060ED75E0CE010B960E94DA1D44E0DB
:1042F00064ED75E0CE010B960E94DA1D44E06CEC93
:1043000075E0CE010B960E94DA1D44E060EB75E08B
:10431000CE010B960E94DA1D44E06CEA75E0CE01F6
:104320000B960E94DA1D44E068EA75E0CE010B9618
:104330000E94DA1D4CE06CE875E0CE010B960E94FD
:10434000DA1D42E066E575E0CE010B960E94DA1DAB
:1043500042E064E575E0CE010B960E94DA1D42E072
:1043600062E575E0CE010B960E94DA1D42E060E541
:1043700075E0CE010B960E94DA1D42E06EE475E016
:10438000CE010B960E94DA1D42E06CE475E0CE018E
:104390000B960E94DA1D44E061E572E0CE010B96B7
:1043A0000E94DA1D44E06DE472E0CE010B960E949B
:1043B000DA1D44E069E472E0CE010B960E94DA1D3A
:1043C00044E064E475E1CE010B960E94DA1D44E0FE
:1043D00060E675E1CE010B960E94DA1D44E068E5C7
:1043E00076E0CE010B960E94DA1D42E066E576E0AB
:1043F000CE010B960E94DA1D42E064E576E0CE0124
:104400000B960E94DA1D42E06CE576E0CE010B9639
:104410000E94DA1D42E065E27CE0CE010B960E942C
:10442000DA1D42E06EE476E0CE010B960E94DA1DC2
:1044300042E067E07CE0CE010B960E94DA1D81E04D
:1044400080933C0242E062E576E0CE010B960E944A
:10445000DA1D42E067E376E0CE010B960E94DA1D9A
:1044600042E065E07CE0CE010B960E94DA1D80916F
:104470005206909153068A3F910534F48AEF90E0FA
:104480009093530680935206809137069091380698
:104490008A3F910534F48AEF90E090933806809338
:1044A00037068091050C9091060C8035910534F407
:1044B00080E590E09093060C8093050C42E060E567
:1044C00076E0CE010B960E94DA1D42E0BE01675FE6
:1044D0007F4FCE010B960E94DA1D0E94757FE6EB9E
:1044E000F5E08491882341F09091C00095FFFCCFC6
:1044F0008093C6003196F5CFEAE7F5E084918823F2
:1045000041F09091C00095FFFCCF8093C60031969A
:10451000F5CF8091C00085FFFCCF8AE08093C60074
:104520000E9466182C960FB6F894DEBF0FBECDBF62
:10453000DF91CF9108950E94761FF2CF8F929F92C4
:10454000AF92BF92CF92DF92EF92FF920F931F93A1
:10455000CF93DF93CDB7DEB764970FB6F894DEBF85
:104560000FBECDBF6B837C838D839E8358874F8323
:104570003A8729871C870B87CD86DE86EF86F88AE7
:10458000898A9A8AAB8ABC8A8CE291E09A83898371
:1045900044E0BE016D5F7F4FCE0101960E94F81D81
:1045A0008B819C81AD81BE8181309840A105B10590
:1045B00040F142E0BE01695F7F4FCE0101960E944B
:1045C000F81D42E0BE01675F7F4FCE0101960E9459
:1045D000F81D42E0BE01655F7F4FCE0101960E944B
:1045E000F81D44E0BE01635F7F4FCE0101960E943B
:1045F000F81D44E0BE016F5E7F4FCE0101960E9420
:10460000F81D64960FB6F894DEBF0FBECDBFDF91E4
:10461000CF911F910F91FF90EF90DF90CF90BF90BF
:10462000AF909F908F900895CF92DF92EF92FF927C
:104630000F931F93CF93DF93CDB7DEB766970FB677
:10464000F894DEBF0FBECDBF69877A878B879C87C2
:104650002D873E874F87588B1A8B098BCB8ADC8A34
:10466000ED8AFE8A82EC91E098878F839E838D830A
:1046700044E0BE016F5F7F4FCE0105960E94DA1DB8
:1046800029813A814B815C8169857A858B859C85FE
:104690000E9468FB882341F044E0BE01675F7F4FC2
:1046A000CE0107960E94F81D86EC91E098878F83D3
:1046B0009E838D8344E0BE016F5F7F4FCE010596E0
:1046C0000E94DA1D29813A814B815C81CD84DE8490
:1046D000EF84F888C701B6010E9468FB882389F03F
:1046E00020E030E0A901C701B6010E9468FB8823E1
:1046F00041F044E0BE01635F7F4FCE0107960E9408
:10470000F81D8AEC91E098878F839A83898342E031
:10471000BE016B5F7F4FCE0101960E94DA1D8D8135
:104720009E8129893A892817390741F042E0BE0164
:104730006F5E7F4FCE0107960E94F81D8EEC91E0D0
:1047400098878F839E838D8344E0BE016F5F7F4F88
:10475000CE0105960E94DA1D89819A81AB81BC81C8
:104760004B895C896D897E89481759076A077B07E1
:1047700041F044E0BE016D5E7F4FCE0107960E947E
:10478000F81D66960FB6F894DEBF0FBECDBFDF9161
:10479000CF911F910F91FF90EF90DF90CF900895F0
:1047A000CF93DF93EC0168E473E00E9494D783EA2F
:1047B00094E10E946BC8892B79F083EA94E10E940E
:1047C00049C8682FCE010E9428D562E070E080E0E1
:1047D00090E00E94EBD1EBCFCE01DF91CF91089515
:1047E0003F924F925F926F927F928F929F92AF9281
:1047F000BF92CF92DF92EF92FF920F931F93CF93CE
:10480000DF935C014B01342E3901FB0104811581DA
:1048100001501109EE24EA94FE2C512C412CD0E0D9
:10482000C0E0D12CC12C0C171D07ECF06C147D04DA
:10483000ECF0BE01C4010E94ADD49E012F5F3F4F3A
:10484000381619F0C017D10761F4FFEFCF1ADF0A4D
:1048500027018FEF481A580A7901C017D10709F0CC
:104860007E01E901E0CF6C147D04CCF49701A20134
:10487000B401C5010E94A9D7C501DF91CF911F9155
:104880000F91FF90EF90DF90CF90BF90AF909F90EF
:104890008F907F906F905F904F903F90089568E465
:1048A00073E0C5010E9494D7E7CF8F929F92AF9299
:1048B000BF92CF92DF92EF92FF920F931F93CF930D
:1048C000DF9300D000D0CDB7DEB74B015C017A0199
:1048D00069018AE590E00E943ECD85EA90E00E9461
:1048E0003ECDC70103960E943ECD82E890E00E9433
:1048F0003ECDC501B40120E031E040E050E00F942E
:1049000062014B01C9010E943ECDC4010E943ECD0F
:10491000970122503109F6018481958128173907C2
:1049200078F550E040E0B601CE0101960E94A9D78B
:10493000BE016F5F7F4FC6010E9453D5CE01019625
:104940000E948CD5C6010E9443CD8FEF90E00E945B
:104950003ECD8FEF90E00E943ECD26960FB6F894A4
:10496000DEBF0FBECDBFDF91CF911F910F91FF90A2
:10497000EF90DF90CF90BF90AF909F908F90089571
:1049800001111CC0C6010E9443CD10E000E04EEFB3
:10499000A42EBB24BA94F601848195819501281B2D
:1049A000390BC9018E0D9F1D0817190770F686EE89
:1049B00094E00E944CCD0F5F1F4FEDCF68E473E091
:1049C000CE0101960E9494D710E000E03EEFA32EA6
:1049D000BB24BA94F601848195819501281B390B7B
:1049E000C9018E0D9F1D969587950817190758F4D4
:1049F00041E050E066EE74E0CE0101960E94D3D40F
:104A00000F5F1F4FE7CFCE0101960E9443CDC60135
:104A10000E9443CDF60184819581080F191F68E437
:104A200073E0CE0101960E948ED2D12CC12CE01AE7
:104A3000F10AF2E0EF1AF108CE14DF0464F441E069
:104A400050E066EE74E0CE0101960E94D3D42FEFC1
:104A5000C21AD20AF1CFCE0101960E9443CD8FEF48
:104A600090E00E943ECD8FEF90E00E943ECDCE01BF
:104A700001960E948CD571CF2F923F924F925F92F8
:104A80006F927F928F929F92AF92BF92CF92DF925E
:104A9000EF92FF920F931F93CF93DF93CDB7DEB7C3
:104AA000A4970FB6F894DEBF0FBECDBF98A38F8F2B
:104AB00063EE72E0CE0143960E9494D75E0129E135
:104AC000A20EB11C6EEE72E0C5010E9494D710E0F8
:104AD00000E0C12CD12C7601C39435019FE3292E2F
:104AE00092E4392E9FE0492E512C0F5F1F4F580141
:104AF00031E0A31AB1089801A5016F8D78A1CE010C
:104B000007960E94A9D725E130E0201B310B44E134
:104B100050E0401B510B6F8D78A1CE0101960E9491
:104B2000A9D7BE01695F7F4FCE010D960E948BD73A
:104B3000CE010D960E94E4119AA389A3CE010D9691
:104B40000E948CD5BE016F5F7F4FCE010D960E94F3
:104B50008BD7CE010D960E94E4119CA38BA3CE01AE
:104B60000D960E948CD59801A501BE016D5E7F4F08
:104B7000CE010D960E94A9D7BE01635F7F4FCE0183
:104B800007960E9453D5CE010D960E948CD59801B0
:104B9000A501B301CE010D960E94A9D7BE01635FA6
:104BA0007F4FCE0101960E9453D5CE010D960E94F3
:104BB0008CD5BE01695F7F4FCE010D960E948BD7C9
:104BC000CE010D960E94E4115C01CE010D960E946B
:104BD0008CD5BE016F5F7F4FCE010D960E948BD7A3
:104BE000CE010D960E94E4114C01CE010D960E945B
:104BF0008CD589A19AA19C01990F440B550BC50135
:104C0000BB0CAA0BBB0B280F391F4A1F5B1FC70128
:104C1000B6010F94EE006B017C012BA13CA1C901F0
:104C2000330FAA0BBB0B092C000CAA08BB08880D7C
:104C3000991DAA1DBB1DC81AD90AEA0AFB0AF7FE6C
:104C400008C0F094E094D094C094C11CD11CE11C25
:104C5000F11C30E4C31632E4D3063FE0E306F1046E
:104C600044F0C701B601A20191010F9462016B01EA
:104C70007C01CE0101960E948CD5CE0107960E9440
:104C80008CD50A30110509F030CF80EAC81686E8C5
:104C9000D80681E0E806F1043CF490E8C90E9AE1F8
:104CA000D91E96E0E91EF11CC3010E948CD5CE01ED
:104CB00043960E948CD5C701B601A4960FB6F8940E
:104CC000DEBF0FBECDBFDF91CF911F910F91FF903F
:104CD000EF90DF90CF90BF90AF909F908F907F909C
:104CE0006F905F904F903F902F900895AF92BF923A
:104CF000CF92DF92EF92FF920F931F93CF93DF93A8
:104D0000CDB7DEB72C970FB6F894DEBF0FBECDBF80
:104D10008FE19EE40197F1F700C0000080915C06EE
:104D200090915D060E94C511EFE1FEE43197F1F725
:104D300000C0000020E030E048EC52E460914415EF
:104D40007091451580914615909147150E94CAF5BE
:104D50000F94FE029B01AC0104E010E068E170E6F4
:104D600080E090E00E94061C8FE19EE40197F1F73D
:104D700000C0000036E9A32E30E1B32E40E1C42E7E
:104D800040E6D42EE12CF12CF501619171918191D5
:104D900091915F0120E030E048EC52E40E94CAF5B6
:104DA0000F94FE029B01AC0104E010E0C701B601C4
:104DB0000E94061C8FE19EE40197F1F700C00000FD
:104DC00092E0C90ED11CE11CF11CE8E1CE16E0E630
:104DD000DE06E104F104C1F620E030E048EC52E4E4
:104DE00060916015709161158091621590916315C5
:104DF0000E94CAF520E030E040E05FE30F949201AA
:104E00000F94FE029B01AC0102E010E060E270E64C
:104E100080E090E00E94061C8FE19EE40197F1F78C
:104E200000C0000020E030E048EC52E460915806F9
:104E30007091590680915A0690915B060E94CAF5BE
:104E40000F94FE029B01AC0161E270E680E090E00D
:104E50000E94061CEFE1FEE43197F1F700C000006C
:104E60002091560630915706032E000C440B550B2B
:104E700063E270E680E090E00E94061C8FE19EE411
:104E80000197F1F700C000002091540630915506BB
:104E9000032E000C440B550B62E270E680E090E0BC
:104EA0000E94061CEFE1FEE43197F1F700C000001C
:104EB0008FE19EE40197F1F700C000002091250CDE
:104EC0003091260C032E000C440B550B62E170E868
:104ED00080E090E00E94061CEFE1FEE43197F1F7DC
:104EE00000C000008091C70C20E030E0A9018111D2
:104EF00006C002E010E021E030E040E050E065E173
:104F000070E880E090E00E94061C2091070C309130
:104F1000080C032E000C440B550B02E010E063E17B
:104F200070E880E090E00E94061C8FE19EE401970B
:104F3000F1F700C000008091040C811106C082E0EE
:104F400090E090931C0C80931B0C209150063091A4
:104F50005106032E000C440B550B02E010E064E1F7
:104F600070E880E090E00E94061C69EF72E0CE01DC
:104F700007960E9494D78091C70CBE01695F7F4F4E
:104F8000882309F48CC0CE0101960E948BD76DEF67
:104F900072E0CE0101960E94FFD4BC01CE010796BB
:104FA0000E943CD5CE0101960E948CD5BE01695F5E
:104FB0007F4FCE0101960E948BD763E073E0CE0154
:104FC00001960E94FFD466E073E00E94FFD4BC010A
:104FD000CE0107960E943CD5CE0101960E948CD549
:104FE000BE01695F7F4FCE0101960E948BD700E022
:104FF0009E012F5F3F4F40E250E060E072E780E0AB
:1050000090E00E945524CE0101960E948CD5EFE1DC
:10501000FEE43197F1F700C0000080915C069091AA
:105020005D06880F991F2091C70C280F392F311D5D
:10503000032E000C440B550B02E010E063E078E80F
:1050400080E090E00E94061C2091C70C30E050E008
:1050500040E066E078E880E090E00E94061CFFEF08
:1050600029E688E1F15020408040E1F700C00000CF
:10507000099A1198CE0107960E948CD52C960FB6EE
:10508000F894DEBF0FBECDBFDF91CF911F910F917E
:10509000FF90EF90DF90CF90BF90AF900895CE013A
:1050A00001960E948BD766EE74E073CF0E94761F44
:1050B0008091530E9091540E892B11F40C94762606
:1050C0000C9468B3CF93DF93CDB7DEB76E970FB66E
:1050D000F894DEBF0FBECDBF2091671530916815E3
:1050E0002130310509F05DC020916F0230917002CE
:1050F0003093370520933605209160103091611070
:105100003093630520936205209162103091631003
:1051100030936105209360052091CC0C3091CD0C2B
:1051200030935D0520935C052091641030E030934E
:105130005F0520935E05882361F070E060E090E0F9
:1051400080E00E94F81470E060E081E090E00E944E
:10515000F81480916F02909170020297E9F48091A7
:10516000670290916802A0916902B0916A028093EF
:10517000320590933305A0933405B09335058CED3B
:1051800095E00E9471176E960FB6F894DEBF0FBEC1
:10519000CDBFDF91CF91089580E090E0A0E8BFEB14
:1051A000E6CF232B81F76091360570913705CE014C
:1051B00007960E9498D26DE073E0CE0101960E949E
:1051C00094D7BE01695F7F4FCE0101960E9415D52D
:1051D000BC01CE0149960E948BD7CE0101960E9458
:1051E0008CD5CE0107960E948CD580913605909182
:1051F0003705029759F5409132055091330560917A
:10520000340570913505CE0107960E9400D3BE018A
:10521000675E7F4FCE0101960E948BD764E173E0F9
:10522000CE0101960E94FFD4BE01695F7F4F0E94AC
:1052300015D5BC01CE0149960E943CD5CE01019600
:105240000E948CD5CE0107960E948CD5898D9A8DAF
:105250000E94E3172FEF89EF90E0215080409040AB
:10526000E1F700C0000086ED95E00E9471172FEF76
:1052700089EF90E0215080409040E1F700C00000AD
:105280006091600570916105CE0143960E9498D2AD
:105290006091620570916305CE010D960E9498D2CF
:1052A00060915E0570915F05CE0107960E9498D2CD
:1052B00067E173E0CE0101960E9494D7BE01695F59
:1052C0007F4FCE0101960E9415D56FE173E00E94D9
:1052D000FFD4BE01635F7F4F0E9415D562E273E089
:1052E0000E94FFD4BE016D5E7F4F0E9415D5BC01A8
:1052F000CE0149960E943CD5CE0101960E948CD5E4
:10530000CE0107960E948CD5CE010D960E948CD5B9
:10531000CE0143960E948CD5898D9A8D0E94E31709
:10532000CE0149960E948CD52ECFCF92DF92EF927C
:10533000FF920F931F93CF93DF93CDB7DEB72F97D5
:105340000FB6F894DEBF0FBECDBF8C0168E473E0EA
:105350000E9494D78EE0E82EF12C91E2D92EF7012D
:10536000D092570084911B861A861D861C861F8644
:105370001E8640E1BE016F5F7F4F90E00E941EFBE2
:10538000BE016F5F7F4FCE010A960E948ED28E853E
:105390009F850197B1F46DED72E0CE0101960E94F8
:1053A00094D7BE01665F7F4FCE0101960E9415D54E
:1053B000BC01CE010A960E943CD5CE0101960E9406
:1053C0008CD5B801CE0101960E948BD7BE01665FD5
:1053D0007F4FCE0101960E9415D5BC01C8010E94E5
:1053E0003CD5CE0101960E948CD5CE010A960E9432
:1053F0008CD5FFEFEF1AFF0A88E1E816F10409F0F7
:10540000AECFC8010E943BD3B80182E697E10E946B
:105410003CD5F12CE12CD12CC12CEFEFEE1AFE0A79
:10542000A701415051099701B801CE0101960E9490
:10543000A9D7CE0101960E94E411C80ED91ECE0153
:1054400001960E948CD5F4E1EF16F10431F7C60104
:1054500060E170E00F944E017C0168E473E0CE01DE
:105460000A960E9494D761ED72E08AE0E816F10492
:1054700031F0EBE0EE16F10489F563ED72E0CE0158
:105480000A960E948ED2B801CE0101960E948BD757
:10549000BE01665F7F4FCE0101960E9415D5BC010B
:1054A000C8010E943CD5CE0101960E948CD5C8014E
:1054B0000E943BD3CE010A960E948CD5C8012F963C
:1054C0000FB6F894DEBF0FBECDBFDF91CF911F9115
:1054D0000F91FF90EF90DF90CF90089565ED72E00F
:1054E000FCE0EF16F10459F260EC73E08DE0E81691
:1054F000F10429F267ED72E0EEE0EE16F10409F432
:10550000BECF69ED72E0FFE0EF16F10409F4B7CF0A
:10551000B701CE0101960E9498D2BE016F5F7F4F06
:10552000CE010A960E9453D5CE0101960E948CD5D9
:10553000AACF4F925F926F927F928F929F92AF927B
:10554000BF92CF92DF92EF92FF920F931F93CF9370
:10555000DF93CDB7DEB7A0970FB6F894DEBF0FBECE
:10556000CDBF6D8B7E8B8F8B988F298F3A8F4B8F12
:105570005C8FED8EFE8E0F8F18A38091270C81110A
:10558000E8C08091650290916602019709F0F8C029
:10559000809174058111F4C0809173058111F0C070
:1055A0008091441590914515A0914615B0914715ED
:1055B000898B9A8BAB8BBC8B80916410811115C049
:1055C00020E030E048E452E469897A898B899C893B
:1055D0000F949101698B7A8B8B8B9C8B412C512C76
:1055E00088E4682E82EC782E05C0412C512C3201C3
:1055F0008130A1F788E50E94C113882309F4C0C057
:105600000E94DC136D877E878F87988B82E50E94CE
:10561000C11320E030E040E85FE3882321F00E94DE
:10562000DC139B01AC016D857E858F8598890F9475
:105630008C026D877E878F87988B8DE40E94C113C3
:10564000882329F00E94DC130F94FE024B01298964
:105650003A894B895C896D857E858F8598890F9401
:10566000F203181654F0A30192016D857E858F8593
:1056700098890E9468FB87FF83C08114910409F018
:105680007FC08091530E9091540E019709F061C034
:105690006CEB79E0CE0101960E9494D5CE01019683
:1056A0000E94D41DCE0101960E948CD520E030E0EE
:1056B00040E251E4609176107091771080917810FB
:1056C000909179100E94CAF50F94FE02AB01BC01C3
:1056D000CE0107960E94C4D28F8198850E94CE1D6C
:1056E0006AEB79E0CE0101960E9494D5CE01019635
:1056F0000E94D41DCE0101960E948CD568EB79E002
:10570000CE0101960E9494D5CE0101960E94D41D2F
:10571000CE0101960E948CD50E94C21D9FEFA0E78A
:10572000B2E09150A040B040E1F700C0000066EA4E
:1057300079E0CE0101960E9494D5CE0101960E9497
:10574000D61DCE0101960E948CD5CE0107960E94EF
:105750008CD5A0960FB6F894DEBF0FBECDBFDF91FB
:10576000CF911F910F91FF90EF90DF90CF90BF905E
:10577000AF909F908F907F906F905F904F90089523
:1057800085E40E94C11381110BC020E83FE443EC83
:1057900057ECC601B5010F94F20318160CF0FEC0C9
:1057A0008091500690915106181619060CF0F6C01B
:1057B0008FE00E946BCF892B09F023C180918A056D
:1057C00090918B058B3091050CF411C18091671578
:1057D00090916815019709F0E1C010928B05109225
:1057E0008A058091530E9091540E8130910509F0F5
:1057F000E6C08AE090E090931C0C80931B0C6EE94D
:1058000079E0CE0101960E9494D5CE0101960E94C6
:10581000D61DCE0101960E948CD52FEF80E792E035
:10582000215080409040E1F700C000006BE879E033
:10583000CE0101960E9494D5CE0101960E94D61DFC
:10584000CE0101960E948CD5AFEFB0E722E0A150C7
:10585000B0402040E1F700C0000060E779E0CE01F1
:1058600001960E9494D5CE0101960E94D61DCE01CC
:1058700001960E948CD58FEF90E7A2E08150904076
:10588000A040E1F700C0000067E579E0CE01019695
:105890000E9494D5CE0101960E94D61DCE0101969C
:1058A0000E948CD5BFEF20E782E0B15020408040BD
:1058B000E1F700C000006AE379E0CE0101960E94A2
:1058C00094D5CE0101960E94D61DCE0101960E946C
:1058D0008CD59FEFA0E7B2E09150A040B040E1F737
:1058E00000C0000069E179E0CE0101960E9494D5E4
:1058F000CE0101960E94D61DCE0101960E948CD544
:105900002FEF80E792E0215080409040E1F700C007
:10591000000066EF78E0CE0101960E9494D5CE019A
:1059200001960E94D61DCE0101960E948CD5AFEF44
:10593000B0E722E0A150B0402040E1F700C00000F5
:105940006FEC78E0CE0101960E9494D5CE010196CD
:105950000E94D61DCE0101960E948CD58FEF90E754
:10596000A2E081509040A040E1F700C0000063EC4D
:1059700078E0CE0101960E9494D5CE0101960E9456
:10598000D61DCE0101960E948CD5BFEF20E782E0A4
:10599000B15020408040E1F700C00000ED8CFE8C4B
:1059A0000F8D18A1298D3A8D4B8D5C8D6D897E8967
:1059B0008F89988D0E94C98D0E94F3ACCACE892B25
:1059C00069F768E473E0CE0101960E9494D740E045
:1059D000BE016F5F7F4F86E090E00E94F795CE0199
:1059E00001960E948CD581E00E946228D7CF109248
:1059F000460510924505019690938B0580938A0584
:105A0000CDCF8091450590914605823091054CF0AF
:105A1000109246051092450510928B0510928A054A
:105A2000BDCF01969093460580934505B7CF4F9221
:105A30005F926F927F928F929F92AF92BF92CF921E
:105A4000DF92EF92FF920F931F93CF93DF935C014E
:105A50002B013A0180916B0290916C02A0916D0232
:105A6000B0916E028093410590934205A093430547
:105A7000B093440580916302909164029093400535
:105A800080933F0584E690E09093640280936302E4
:105A90000E941DD2609381057093820580938305D7
:105AA0009093840581E00E948E7FE6E7F0E1A8E90B
:105AB000B5E041915191619171914D935D936D93D9
:105AC0007D9380E1E638F807A1F710926B021092FF
:105AD0006C0210926D0210926E0288E50E94C11352
