:100000000C945E0C0C948F0C0C948F0C0C948F0C35
:100010000C948F0C0C948F0C0C948F0C0C948F0CF4
:100020000C948F0C0C948F0C0C948F0C0C948F0CE4
:100030000C948F0C0C948F0C0C948F0C0C948F0CD4
:100040000C948F0C0C94604F0C948F0C0C948F0CB0
:100050000C948F0C0C948F0C0C94AE380C940C37C1
:100060000C948F0C0C9427270C948F0C0C948F0CF1
:100070000C948F0C0C948F0C0C948F0C0C948F0C94
:100080000C948F0C0C948F0C0C948F0C0C948F0C84
:100090000C948F0C0C948F0C0C948F0C0C948F0C74
:1000A0000C948F0C0C948F0C0C948F0C0C948F0C64
:1000B0000C948F0C0C948F0C0C948F0C0C948F0C54
:1000C0000C948F0C0C948F0C0C948F0C0C942A476E
:1000D0000C9401470C948F0C0C948F0C0C948F0C87
:1000E0000C948F0C133920393C39493963397039F4
:1000F0008A398C390C430F43FE420243084346437E
:10010000134317431D43214325432B432F433343BD
:10011000464339433D4341431A481F4824482E482B
:100120003848B14842484A4852485C486648704896
:100130007F488948B14893489D48A748084AD73B1B
:100140003BCE016E84BCBFFDC12F3D6C74319ABDA6
:1001500056833DDA3D00C77F11BED9E4BB4C3E91CA
:100160006BAAAABE000000803F05A84CCDB2D44EB9
:10017000B93836A9020C50B9918688083CA6AAAABB
:100180002ABE000000803F004E414E494E4954595E
:10019000494E46CDCCCC3D0AD7233C17B7D1387752
:1001A000CC2B329595E6241FB14F0A000020410068
:1001B00000C84200401C4620BCBE4CCA1B0E5AAEB2
:1001C000C59D7400407A10F35A00A0724E180900C1
:1001D00010A5D4E80000E87648170000E40B5402AC
:1001E0000000CA9A3B000000E1F5050000809698E7
:1001F00000000040420F000000A086010000001037
:100200002700000000E80300000000640000000078
:10021000000A00000000000100000000002C76D859
:1002200088DC674F0823DFC1DFAE59E1B1B796E53F
:10023000E3E453C63AE651997696E8E6C28426EBA3
:10024000898C9B62ED407C6FFCEFBC9C9F40F2BAB6
:10025000A56FA5F490055A2AF75C936B6CF9676D4E
:10026000C11BFCE0E40D47FEF520E6B500D0ED90A3
:100270002E0300943577050080841E080000204E70
:100280000A000000C80C333333330F986E12831109
:1002900041EF8D2114893BE65516CFFEE6DB18D1E0
:1002A000844B381BF77C1D901DA4BBE424203284B2
:1002B000725E228100C9F124ECA1E53D272F005395
:1002C00044207072696E74696E672062797465206B
:1002D000004E6F74205344207072696E74696E67AB
:1002E000002E0044656C6574696F6E206661696CF0
:1002F00065642C2046696C653A200046696C65206F
:1003000064656C657465643A002E006F70656E20DC
:100310006661696C65642C2046696C653A20005002
:100320004944204175746F74756E652066696E6905
:1003300073686564212050757420746865204B7063
:100340002C204B6920616E64204B6420636F6E73B8
:1003500074616E747320696E746F20436F6E66698A
:100360006775726174696F6E2E6800504944204150
:1003700075746F74756E65206661696C65642120A3
:1003800074696D656F75740020403A006F6B20547E
:100390003A006F6B20423A00504944204175746F17
:1003A00074756E65206661696C6564212054656DA5
:1003B000706572617475726520746F6F206869670B
:1003C0006800204B643A2000204B693A2000204B03
:1003D000703A200020436C617369632050494420C7
:1003E000002054753A2000204B753A2000206D61A2
:1003F000783A2000206D696E3A200020643A20008F
:1004000020626961733A2000486F74656E64206FE2
:100410006666736574733A002200556E6B6E6F7773
:100420006E20636F6D6D616E643A202200486F74B8
:10043000656E64206F6666736574733A007A5F6DEB
:10044000696E3A2000795F6D696E3A2000785F6DC1
:1004500061783A2000785F6D696E3A20005A3A0060
:10046000593A0020436F756E7420583A2000453A7F
:10047000005A3A00593A00583A004649524D5741FD
:1004800052455F4E414D453A4D61726C696E205642
:10049000313B20537072696E7465722F6772626CA3
:1004A000206D617368757020666F722067656E36A7
:1004B000204649524D574152455F55524C3A687457
:1004C0007470733A2F2F7777772E67697468756227
:1004D0002E636F6D2F74656E6C6F672050524F5492
:1004E0004F434F4C5F56455253494F4E3A312E3091
:1004F0002E30204D414348494E455F545950453AAE
:10050000544C203344205072696E746572204558F3
:100510005452554445525F434F554E543A320A00A7
:100520002042403A0020403A00202F0020423A006A
:100530002F002054313A002F006F6B20543A0025D1
:1005400069206D696E2C2025692073656300456EF6
:10055000642066696C65206C697374004265676924
:100560006E2066696C65206C697374005072696EE8
:100570007465722073746F70706564206475652093
:10058000746F206572726F72732E204669782074C2
:100590006865206572726F7220616E642075736584
:1005A000204D39393920746F20726573746172740B
:1005B0002E202854656D70657261747572652069AE
:1005C000732072657365742E2053657420697420DE
:1005D00061667465722072657374617274696E67A6
:1005E00029004E6F204C696E65204E756D626572F4
:1005F000207769746820636865636B73756D2C2060
:100600004C617374204C696E653A20004E6F204334
:100610006865636B73756D2077697468206C696EAB
:1006200065206E756D6265722C204C617374204C70
:10063000696E653A2000636865636B73756D206D44
:1006400069736D617463682C204C617374204C690C
:100650006E653A20004C696E65204E756D6265725C
:10066000206973206E6F74204C617374204C696E26
:1006700065204E756D6265722B312C204C61737450
:10068000204C696E653A20004D31313000256920DB
:10069000686F757273202569206D696E7574657356
:1006A00000446F6E65207072696E74696E672066B3
:1006B000696C65005072696E7465722073746F7036
:1006C0007065642064756520746F206572726F7246
:1006D000732E2046697820746865206572726F7287
:1006E00020616E6420757365204D39393920746F2F
:1006F00020726573746172742E202854656D706564
:100700007261747572652069732072657365742EE9
:100710002053657420697420616674657220726567
:100720007374617274696E6729004E6F204C696E34
:1007300065204E756D626572207769746820636804
:1007400065636B73756D2C204C617374204C696EFE
:10075000653A20004E6F20436865636B73756D20AA
:1007600077697468206C696E65206E756D6265725C
:100770002C204C617374204C696E653A20006368CC
:1007800065636B73756D206D69736D617463682C3F
:10079000204C617374204C696E653A20004C696E80
:1007A00065204E756D626572206973206E6F7420CE
:1007B0004C617374204C696E65204E756D62657274
:1007C0002B312C204C617374204C696E653A2000EB
:1007D0004572726F723A004D313130006572726F3E
:1007E000722077726974696E6720746F2066696C15
:1007F0006500205A3A0020593A0020583A00656EA8
:100800006473746F7073206869743A20006563685C
:100810006F3A00446F6E6520736176696E6720667B
:10082000696C652E006F6B004D323900536574742E
:10083000696E67732053746F726564005A323A00B0
:10084000457874656E646572204F66667365743AA8
:100850000059323A00457874656E646572204F66BF
:10086000667365743A0058323A005365636F6E647C
:10087000657279204D617820506F733A00204400F2
:100880002049002020204D33303120500050494471
:100890002073657474696E67733A00205A0020599A
:1008A0000020204D323036205800486F6D65206F93
:1008B000666673657420286D6D293A002045002016
:1008C0005A0020580020420020540020204D323091
:1008D00035205300416476616E63656420766172F1
:1008E0006961626C65733A20533D4D696E2066659F
:1008F00065647261746520286D6D2F73292C2054F6
:100900003D4D696E2074726176656C206665656424
:100910007261746520286D6D2F73292C20423D6D06
:10092000696E696D756D207365676D656E74207491
:10093000696D6520286D73292C20583D6D6178699B
:100940006D756D205859206A65726B20286D6D2F6A
:1009500073292C20205A3D6D6178696D756D205A80
:10096000206A65726B20286D6D2F73292C2020451D
:100970003D6D6178696D756D2045206A65726B20EB
:10098000286D6D2F73290020540020204D32303403
:10099000205300416363656C65726174696F6E3AE0
:1009A00020533D616363656C65726174696F6E2C81
:1009B00020543D7265747261637420616363656C79
:1009C00065726174696F6E00204500205A002059DD
:1009D0000020204D3230312058004D6178696D750E
:1009E0006D20416363656C65726174696F6E202868
:1009F0006D6D2F7332293A00204500205A0020598E
:100A00000020204D3230332058004D6178696D75DB
:100A10006D2066656564726174657320286D6D2F45
:100A200073293A00204500205A0020590020204D0B
:100A300039322058005374657073207065722075C8
:100A40006E69743A0053746F7265642073657474D0
:100A5000696E6773207265747269657665640048B3
:100A6000617264636F6465642044656661756C746B
:100A70002053657474696E6773204C6F616465649C
:100A8000006563686F3A002020506C616E6E65727D
:100A900042756666657242797465733A2000204635
:100AA000726565204D656D6F72793A20004A756CEC
:100AB000202036203230323100436F6D70696C6512
:100AC000643A200054656E6C6F6700207C2041758D
:100AD00074686F723A20004A756C202036203230DC
:100AE00032312032303A32383A313300204C61739F
:100AF0007420557064617465643A2000312E302E84
:100B00003236004D61726C696E200020536F66743E
:100B10007761726520526573657400205761746354
:100B200068646F67205265736574002042726F7746
:100B30006E206F757420526573657400204578745B
:100B400065726E616C20526573657400506F7765D5
:100B5000725570007374617274006563686F3A0057
:100B6000202D20496E76616C6964206578747275F9
:100B7000646572206E756D62657220210070012CB3
:100B80000190012701B0012201C0011D01F00118EF
:100B9000011002130130020E0160020901900204EB
:100BA00001C002FF000003FA004003F5008003F0DB
:100BB00000D003EB002004E6007004E100E004DC58
:100BC000004005D700C005D2004006CD00D006C8C1
:100BD000008007C3003008BE00F008B900C009B4A7
:100BE00000B00AAF00B00BAA00D00CA500000EA008
:100BF00000500F9B00C01096005012910000148C02
:100C000000C0158700B0178200B0197D00D01B7896
:100C100000001E730040206E0090226900F02464E2
:100C20000040275F0090295A00E02B5500102E50FD
:100C30000020304B0010324600E033410090353C3C
:100C4000001037370070383200A0392D00B03A2834
:100C500000A03B2300603C1E00103D1900903D1495
:100C600000103E0F00703E0A00C03E0500003F002D
:100C7000003A2045787472756465722073776974E0
:100C800063686564206F66662E204D415854454D5B
:100C900050207472696767657265642021003A208C
:100CA00045787472756465722073776974636865DA
:100CB00064206F66662E204D494E54454D50207479
:100CC000726967676572656420210054656D70659F
:100CD000726174757265206865617465642062650F
:100CE00064207377697463686564206F66662E207C
:100CF0004D415854454D502074726967676572655F
:100D0000642021210054656D70657261747572658F
:100D10002068656174656420626564207377697416
:100D200063686564206F66662E204D494E54454DBC
:100D300050207472696767657265642021210045DF
:100D400072726F723A0000002100240027002A000E
:100D50002D003000330001010000040107010A01E9
:100D600000002200250028002B002E003100340056
:100D700002010000050108010B0100002000230012
:100D8000260029002C002F00320000010000030182
:100D900006010901050505050705080808080202FE
:100DA00002020A0A08080404040401010101010105
:100DB00001010303030303030303040707070C0CE8
:100DC0000C0C0C0C0C0C02020202060606060606AF
:100DD00006060B0B0B0B0B0B0B0B01021020200854
:100DE0000810204010204080020102010804020186
:100DF00001020408102040808040201008040201F5
:100E0000800402018040201008040201080402014D
:100E100001020408102040800102040810204080D4
:100E200000000A0B02090C0D0E0807030401000064
:100E300000000000000000000000000000000000B2
:100E4000000000000000000000000000121110006F
:100E50000000000000000000000000000000000092
:100E60000000000000004E65772056616C7565201B
:100E7000457272200025730057726974696E67208D
:100E8000746F2066696C653A20002E006F70656E85
:100E9000206661696C65642C2046696C653A2000A7
:100EA0002E006F70656E206661696C65642C20464B
:100EB000696C653A200046696C652073656C6563F2
:100EC000746564002053697A653A200046696C6550
:100ED000206F70656E65643A20002E006F70656E3D
:100EE000206661696C65642C2046696C653A200057
:100EF00053442063617264206F6B006F70656E52A3
:100F00006F6F74206661696C656400766F6C756DD7
:100F1000652E696E6974206661696C65640045724E
:100F2000726F723A00534420696E69742066616979
:100F30006C006563686F3A0024F4D43050C38E208F
:100F4000C2A24017828B7011127A910D816CD90A5E
:100F5000A861E108C7586607615143061E4B5D054D
:100F6000C145A7041A411104093D980371393103A1
:100F70004036DB0265339102D4305402802E1D02CC
:100F8000632CEE01752AC501B028A001102781014C
:100F90008F2564012B244B01E0223401AC211F0179
:100FA0008D200D01801FFC00841EED00971DDF00C9
:100FB000B81CD200E61BC600201BBC00641AB2009D
:100FC000B219A8000A19A0006A189900D117910057
:100FD00040178B00B516840031167E00B3157900DA
:100FE0003A157300C7146F0058146A00EE136600B8
:100FF0008813630025135E00C7125B006C12570054
:1010000015125400C111510070114F0021114B00F5
:10101000D61049008D1047004610440002104200CF
:10102000C00F4000800F3E00420F3C00060F3B0007
:10103000CB0E3800930E37005C0E3500270E3400BF
:10104000F30D3200C10D3100900D3000600D2E0007
:10105000320D2D00050D2C00D90C2B00AE0C2900F3
:10106000850C29005C0C2700350C27000E0C26008F
:10107000E80B2400C40B2400A00B23007D0B2300ED
:101080005A0B2100390B2100180B2000F80A1F0011
:10109000D90A1E00BB0A1E009D0A1D00800A1D0001
:1010A000630A1C00470A1B002C0A1B00110A1A00C5
:1010B000F7091A00DD091900C4091900AB09190064
:1010C000920917007B091800630917004C091600E4
:1010D00036091600200916000A091500F508150042
:1010E000E0081400CC081400B8081400A408140088
:1010F000900813007D0812006B08130058081200B6
:1011000046081200340811002308110012081100CB
:1011100001081100F0071000E0071000D0071000D0
:10112000C0071000B0070F00A107100091070E00C4
:1011300083070F0074070F0065070E0057070E00A6
:1011400049070E003B070D002E070E0020070D007B
:1011500013070D0006070D00F9060C00ED060D0043
:10116000E0060C00D4060C00C8060C00BC060C00FF
:10117000B0060C00A4060B0099060C008D060B00AF
:1011800082060B0077060B006C060B0061060A0056
:1011900057060B004C060A0042060A0038060A00F1
:1011A0002E060A0024060A001A060A001006090084
:1011B00007060A00FD050900F4050900EB05090012
:1011C000E2050900D9050900D0050900C705090095
:1011D000BE050900B5050800AD050800A505090014
:1011E0009C050800940508008C050800840508008B
:1011F0007C050800740508006C05070065050800FB
:101200005D050700560508004E0507004705070065
:101210004005080038050700310507002A050700CA
:10122000230507001C050600160507000F0507002B
:101230000805060002050700FB040600F504070088
:10124000EE040600E8040600E2040700DB040600E2
:10125000D5040600CF040600C9040600C304060036
:10126000BD040600B7040600B1040500AC04060086
:10127000A6040600A00405009B04060095040500D2
:10128000900406008A040500850405008004060019
:101290007A04050075040500700405006B04050060
:1012A00066040500610405005C04050057040500A0
:1012B000520405004D0405004804050043040500E0
:1012C0003E0404003A04050035040500300404001F
:1012D0002C04050027040400230405001E04040058
:1012E0001A04040016040500110404000D0404008F
:1012F000090405000404040000040400FC030400C5
:10130000F8030400F4030400F0030400EC030400F9
:10131000E8030400E4030400E0030400DC03040029
:10132000D8030400D4030400D0030400CC03040059
:10133000C8030300C503030024F404D9201BC40C14
:101340005C0E9804C4095F0265077101F405F90099
:10135000FB04B30048048700C1036900580355002B
:1013600003034500BE023A008402310053022A0002
:101370002902250004022000E4011C00C801190014
:10138000AF011700980114008401130071011000CF
:101390006101100051010E0043010D0036010B00E8
:1013A0002B010B0020010B00150109000C010900A5
:1013B00003010800FB000800F3000800EB00070031
:1013C000E4000600DE000600D8000600D200060099
:1013D000CC000500C7000500C2000500BD000400E8
:1013E000B9000400B5000400B1000400AD00040021
:1013F000A9000400A5000300A20003009F00040050
:101400009B00030098000300950002009300030076
:10141000900003008D0002008B0003008800020092
:101420008600020084000300810002007F000200A9
:101430007D0002007B0002007900020077000100BD
:1014400076000200740002007200010071000200C8
:101450006F0002006D0001006C0002006A000100D4
:1014600069000200670001006600010065000100DC
:1014700064000200620001006100010060000100E0
:101480005F0002005D0001005C0001005B000100E4
:101490005A000100590001005800010057000100E6
:1014A00056000100550001005400010053000000E7
:1014B00053000100520001005100010050000100E2
:1014C0004F0001004E0000004E0001004D000100E1
:1014D0004C0001004B0000004B0001004A000100DD
:1014E00049000100480000004800010047000100D9
:1014F00046000000460001004500000045000100D4
:1015000044000100430000004300010042000000CD
:1015100042000100410000004100010040000100C4
:101520003F0000003F0001003E0000003E000100BF
:101530003D0000003D0001003C0000003C000000B8
:101540003C0001003B0000003B0001003A000000AD
:101550003A000100390000003900010038000000A5
:10156000380000003800010037000000370001009B
:101570003600000036000000360001003500000093
:101580003500000035000100340000003400000088
:10159000340001003300000033000000330001007C
:1015A0003200000032000000320001003100000073
:1015B0003100000031000100300000003000000068
:1015C000300001002F0000002F0000002F0000005D
:1015D0002F0001002E0000002E0000002E00010050
:1015E0002D0000002D0000002D0000002D00010046
:1015F0002C0000002C0000002C0000002C0001003A
:101600002B0000002B0000002B0000002B0001002D
:101610002A0000002A0000002A0000002A00010021
:101620002900000029000000290000002900000016
:101630002900010028000000280000002800000008
:1016400028000000280001002700000027000000FB
:1016500027000000270000002700010026000000EE
:1016600026000000260000002600000026000100E1
:1016700025000000250000002500000025000000D6
:1016800025000000250001002400000024000000C7
:1016900024000000240000002400010023000000BA
:1016A00023000000230000002300000023000000AE
:1016B000230000002300010022000000220000009F
:1016C0002200000022000000220000002200010091
:1016D0002100000021000000210000002100000086
:1016E0002100000021000000210001002000000076
:1016F000200000002000000020000000200000006A
:101700002000000020000000200001001F00000059
:101710001F0000001F0000001F0000001F0000004D
:101720001F0000001F0001001E0000001E0000003E
:101730001E0000001E0000002200656E71756569C4
:101740006E672022006563686F3A004D3234004DA9
:101750003233202573006175746F25692E67002070
:10176000423A0020453A00543A0020573A002045BA
:101770003A00543A006F6B0020746F6F206C6F6EEC
:101780006720657874727573696F6E207072657604
:10179000656E7465640020636F6C64206578747294
:1017A0007573696F6E2070726576656E746564001E
:1017B0006563686F3A007C3C3E5E2B3D3F2F5B5D6E
:1017C0003B2C2A225C005072696E7465722068613D
:1017D0006C7465642E206B696C6C28292063616CC5
:1017E0006C656421005072696E7465722073746F49
:1017F000707065642064756520746F206572726F07
:1018000072732E2046697820746865206572726F45
:101810007220616E6420757365204D3939392074EA
:101820006F20726573746172742E202854656D7018
:101830006572617475726520697320726573657471
:101840002E2053657420697420616674657220725D
:10185000657374617274696E672900473238205865
:101860005900000048C200000000000000002200F3
:10187000656E717565696E6720220000004040004A
:101880000040400000003F0080FC43000002440094
:10189000801844000048C20000000000000000FF63
:1018A000FFFF00C00A440000024400801844526553
:1018B00073656E643A200000DDBBACBB11241FBE13
:1018C000CFEFD1E2DEBFCDBF00E00CBF1BE0A0E058
:1018D000B2E0ECE4FBE901E00BBF02C007900D921F
:1018E000AC36B107D9F729E1ACE6BBE001C01D92E7
:1018F000AF3BB207E1F71CE0CDE5DCE000E006C05D
:1019000021970109802FFE010E940FCCCC35D10711
:1019100080E00807A9F70E94C7B10C9495CD0C94FC
:1019200000002F923F924F925F926F927F928F9220
:101930009F92AF92BF92CF92DF92EF92FF920F935E
:101940001F93CF93DF93CDB7DEB7CB57D1090FB637
:10195000F894DEBF0FBECDBFCDB6DEB6E496DFAEE7
:10196000CEAEE4978091330C882341F00E941D4C49
:101970001092EC161092EB161092330C87E40E9432
:10198000FAA4782E882309F48CC00E9420A50E9416
:101990009CC96430710509F474C0E4F462307105C7
:1019A00009F45CC00CF062C077FF02C00C942422E2
:1019B000B0E8AB2EBFE4BB2EB3ECCB2EB7ECDB2EE6
:1019C00086017501A6019501C601B5010E94A7AE69
:1019D0000C9424226A35710509F45AC02CF56C3137
:1019E000710511F00C9424226FE672E183E89AE30A
:1019F0000E94DFA96FE672E183E89AE30E94DFA903
:101A00006FE672E183E89AE30E94DFA96FE672E174
:101A100083E89AE30E94DFA960E070E080E090E054
:101A20000E944DAA0C9424226B357105A9F16C35E6
:101A3000710511F00C942422A0E8AA2EAFE4BA2E6E
:101A4000A3ECCA2EA7ECDA2E86017501A60195013A
:101A5000C601B5010E94A6A80C9424228091B51954
:101A6000811104C00E94468081E007C08091B519B1
:101A7000811107C00E94468080E00E94E7750C94A7
:101A8000302660E070E0CB010E94DFA90C94242294
:101A90001092B0190C94242281E08093B0190C9418
:101AA00024228DE40E94FAA4882311F40C94D621F8
:101AB0000E9420A50E949CC96B3C710511F40C94F6
:101AC000C8180CF0F7C06135710511F40C94FB15C2
:101AD0000CF054C06831710509F437C43CF563312A
:101AE000710509F4F4C194F46131710509F4D8C1A8
:101AF00014F00C940A166230710510F00C94242234
:101B000081E090E00E94DDA00C94242265317105F3
:101B100009F4F4C30CF49FC36631710509F4F2C3F0
:101B20006731710509F4F6C30C9424226E317105F6
:101B300009F4BFC484F46A31710509F422C40CF4B9
:101B40001AC46B31710509F42AC46C31710509F4AA
:101B50007AC40C9424226032710509F41CC60CF47A
:101B600092C66A32710509F4ECC66035710511F050
:101B70000C942422999AA19A0C9424226D36710512
:101B800009F4DDC70CF050C06C35710511F40C94EC
:101B900044164CF56335710511F40C94051614F4D4
:101BA0000C9401166435710511F40C940A16653510
:101BB000710511F00C94242283E50E94FAA40E947E
:101BC00020A520E030E04AE754E40E94C2BC0E9415
:101BD000A2C96093FB187093FC188093FD18909332
:101BE000FE180C9424226936710509F4D6C66CF4EB
:101BF0006836710511F00C9424226FEF7FEF8FEFA0
:101C00009FEF0E94DE710C9424226A36710509F45C
:101C1000A2C76B36710511F00C94242210924D0C62
:101C200010924C0C0C9424226837710511F40C941A
:101C30000218ECF46337710511F40C9401174CF49D
:101C40006237710511F00C942422E7E7F4E00C945C
:101C50002E176537710511F40C941017673771054D
:101C600011F00C942422E1EEF2E00C940D186C3883
:101C7000710509F481C654F46937710511F00C94AB
:101C8000242281E00E944E410C9424226E3B710577
:101C900009F45BC7693C710511F00C94242233E60A
:101CA000E32E3DE0F32E0EEC12E044E0D42ED00EF5
:101CB0000C94AF186A3E23E0720711F40C94CD1F08
:101CC0000CF07CC06F3241E0740711F40C94471B98
:101CD0009CF56C3D710511F40C944D1AA4F46D3C07
:101CE000710511F40C94081914F40C94E6186E3C68
:101CF000710511F40C9468196A3D710511F40C9486
:101D000086190C942422623E710509F4B6C53CF490
:101D10006D3D710511F40C945C1A0C9424226D3203
:101D200081E0780711F40C946B1A6E32714011F453
:101D30000C94331B0C942422673FA1E07A0711F422
:101D40000C94B01E0CF5643FE1E07E0711F40C9496
:101D5000AA1E4CF46039714011F00C9424220E94A8
:101D6000524F0C942422653F31E0730711F40C9418
:101D7000AD1E663F714011F00C9424220E94782C15
:101D80000E9434590C942422603A53E0750709F4F8
:101D90003BC53CF46D35724011F40C94B31E0C94A9
:101DA0002422673EA3E07A0711F40C94BE21693E19
:101DB000734011F40C94A81F0C9424226B3FE3E0B1
:101DC0007E0711F40C9401219CF5653F23E0720716
:101DD00011F40C945D20B4F46C3E43E0740711F4EC
:101DE0000C94D41F14F40C94D11F633F83E0780744
:101DF00011F40C94E71F643F734011F40C942220FB
:101E00000C942422673FA3E07A0711F40C94B320CA
:101E100014F40C949820683FE3E07E0711F40C94CE
:101E2000CE20693F734011F40C94E6200C942422D8
:101E3000673024E0720711F40C949121DCF46E3FBA
:101E400043E0740711F40C942B213CF46D3F734074
:101E500011F40C9425210C9424226F3F93E0790710
:101E600011F40C945B216115744011F40C947321EE
:101E70000C9424226930B4E07B0711F40C948E2179
:101E800014F40C948B216A30F4E07F0711F40C9465
:101E900056216031744011F40C9496210C94242244
:101EA0005F9847988A989FB7F894809108018E7F31
:101EB000809308019FBF9FB7F894809108018B7FA2
:101EC000809308019FBF8D9812980C94242283E57B
:101ED0000E94FAA4882341F00E9420A50E949CC978
:101EE0007093890B6093880B82E497E1909341177C
:101EF0008093401781E090E09093E1188093E01880
:101F00001092E3181092E21840E050E0BA0186E423
:101F100097E10E941A9780914017909141172BE109
:101F2000FC013496DE01159601900D922A95E1F799
:101F3000DC0112968D919C9113979C838B8388EA88
:101F400092E09A838983BE016F5F7F4F8FE394E0B5
:101F50000E94964ACE0101960E94D75DD090E21869
:101F6000AD2CB090E31880914917882309F446C03E
:101F70008250823030F48FE28093EE161092EF168A
:101F80003DC06091521770915317809154179091F2
:101F9000551740E00E94305E882381F1209156174A
:101FA000B0E22B9F90011124C901815F9B4E892BC8
:101FB00029F180E090E0E0E05EE2DC01A20FB31FD7
:101FC000A15FBB4E4C91403289F08830910539F4C5
:101FD000AE2FB0E0A851B94E16965C93EF5FAE2FCE
:101FE000B0E0A851B94E16964C93EF5F01968B3036
:101FF000910519F7F0E0E851F94E16828091880BAF
:102000009091890B892B59F48AEF92E00E947E27E8
:1020100085E093E00E947E2701E010E007C081E1A7
:1020200093E00E947E278CE193E0F4CF88E293E076
:102030000E947C274AE0B801CE0101960E947646B4
:1020400089819A810E947C27CE0101960E941646C2
:102050008FEE98E00E947C270E94702787E393E030
:102060000E947C274AE0B801CE0101960E94764684
:1020700089819A810E947C27CE0101960E94164692
:102080008FEE98E00E947C270E9470270F5F1F4F01
:102090000730110559F6E12CF12C00E010E0E2E4E4
:1020A0006E2EE7E17E2EDA942296DFAE2297F8EAD2
:1020B0008F2EF2E09F2EEA14FB0409F493C0709275
:1020C000411760924017E2E0F0E0F093E118E093EE
:1020D000E01822968FAD22978E1990E09093E31826
:1020E0008093E21840E050E0BA0186E497E10E9454
:1020F0001A978091401790914117FC013496DE01A8
:1021000015962BE101900D922A95E1F7DC011296CC
:102110008D919C9113979C838B839A828982BE01B7
:102120006F5F7F4F8FE394E00E94964ACE01019645
:102130000E94D75D6EEE76E1CE01CB960E94A94655
:1021400080911617811146C021968EAD9FAD2197C3
:10215000892B09F43FC0BE01655C7F4FCE0101961B
:102160000E94A1462DB63EB64D815E812A01F1E066
:102170004F1A5108CDB6DEB6C41AD50A0FB6F89478
:10218000DEBE0FBECDBE2DB73EB72F5F3F4F6901FC
:102190004115510541F0C114D10429F0B601CE0119
:1021A00001960E94734AF601CF018C199D0984158E
:1021B000950514F40C942722DD24D3940FB6F894DB
:1021C0003EBE0FBE2DBECE0101960E941646D11016
:1021D0000C942F22CE01CB960E9416465FEFE51A93
:1021E000F50A69CF86E493E00E947C276091880B12
:1021F0007091890B4AE0CE0101960E947646898152
:102200009A810E947C27CE0101960E9416460E9468
:1022100070278091880B9091890B019646E0489F2A
:102220009001499F300D11242017310754F08FE59C
:1022300093E00E947E278CE693E00E947E270C9418
:1022400024228AE793E00E947E2787E893E00E9499
:102250007E270C942422ECE5F5E08491882341F05C
:102260009091C00095FFFCCF8093C6003196F5CFCA
:102270008091C00085FFFCCF8AE08093C600109259
:10228000E1181092E01840E050E0BA0185E297E1D1
:102290000E941A978BE1E5E2F7E1DE0115960190C5
:1022A0000D928A95E1F780912317909124179C83D2
:1022B0008B8388EA92E09A838983BE016F5F7F4FA8
:1022C0008FE394E00E94964ACE0101960E94D75D6A
:1022D000EEE4F5E08491882341F09091C00095FFF1
:1022E000FCCF8093C6003196F5CF8091C00085FF6A
:1022F000FCCF8AE08093C6000C9424220E94F2480E
:102300000C9424221092EC161092EB161092ED16FB
:102310000C942422E0901F0CF090200C84E0E80E36
:10232000F11C6AE270E0C7010E9443CD009719F0EA
:10233000FC013197108200E010E0980141E0B70104
:10234000C7010E942A4C0C9424228091ED16882308
:1023500031F081E090E09093EC168093EB160E94B0
:10236000003760938A0B70938B0B80938C0B909348
:102370008D0B0C94242281E090E00E94DDA00C944F
:1023800024228091ED16882311F40C94242283E5F5
:102390000E94FAA481110C94CC220C9424228091E6
:1023A000ED16882309F439C0EFEBF2E0849188231D
:1023B00041F09091C00095FFFCCF8093C60031960C
:1023C000F5CF6091191770911A1780911B17909192
:1023D0001C174AE00E94C368EDEBF2E08491882369
:1023E00041F09091C00095FFFCCF8093C6003196DC
:1023F000F5CF60911D1770911E1780911F17909156
:1024000020174AE00E94C3688091C00085FFFCCF7E
:102410008AE08093C6000C942422E1EDF2E08491DE
:10242000882341F09091C00095FFFCCF8093C600B7
:102430003196F5CF8091C00085FFFCCF8AE0809374
:10244000C6000C94242280911F0C9091200C6AE20B
:1024500070E004960E9443CD8C01892BE1F020911D
:10246000360C3091370C40E6429FC001439F900DDF
:1024700011246EE470E085579D4E0E9443CD60E2CA
:1024800070E00E9443CD01969093200C80931F0C26
:10249000F8013197108280911F0C9091200C0496C6
:1024A00000E010E0980140E0BC010E942A4C0C942E
:1024B00024228091ED16882311F40C9424220E948A
:1024C0001D4C80911F0C9091200C6AE270E00496E4
:1024D0000E9443CD8C01892BE1F02091360C309184
:1024E000370C40E6429FC001439F900D11246EE4DB
:1024F00070E085579D4E0E9443CD60E270E00E94DF
:1025000043CD01969093200C80931F0CF8013197D6
:10251000108200911F0C1091200C480194E0890E4C
:10252000911C8091ED16882311F40C94242280ECE8
:1025300098E10E948B991092EC161092EB16DE0136
:1025400011967D01CD010E94DF5D81E297E19093BC
:10255000411780934017F80184818F3209F08BC0B6
:102560006FE270E0C4010E9443CD8C010F5F1F4FEA
:102570007AE0672E0115110509F483C06FE270E05F
:10258000C8010E9443CD6C01009709F47BC0081775
:10259000190708F077C05C01A01AB10AA501B801BB
:1025A000CE0180960E946CCDE0E2F0E0EC0FFD1FC2
:1025B000EA0DFB1D10828E01005E1F4FF801819114
:1025C000882339F09091C00095FFFCCF8093C6001E
:1025D000F6CF8091C00085FFFCCF6092C60060916D
:1025E0004017709141176115710511F06C5F7F4FB5
:1025F00021E0AE01405E5F4FCE0105960E94269D10
:10260000811131C0EBE0F3E08491882371F0909167
:10261000C00095FFFCCF8093C6003196F5CF909116
:10262000C00095FFFCCF8093C600D8018D918D012D
:102630008111F5CFE9E0F3E08491882341F0909196
:10264000C00095FFFCCF8093C6003196F5CF8091F6
:10265000C00085FFFCCF8AE08093C600C7010E94BE
:10266000D75D0C942422F0924117E0924017860126
:102670000F5F1F4F7FCF82E497E1909341178093C4
:1026800040178401609140177091411761157105E1
:1026900011F06C5F7F4F18A21BA222E0A801CE01AF
:1026A00080960E94269D8823F1F0CE0180960E949C
:1026B000F9698823C1F06CA57DA58EA59FA541E091
:1026C0000E94305E882379F0E8A9B0E2EB9FF00128
:1026D0001124E15FFB4E309731F085EE80831BA221
:1026E0000E94F05D782ECE0180960E94999A772004
:1026F00009F1EBEFF2E08491882341F09091C00062
:1027000095FFFCCF8093C6003196F5CFF8018191FB
:10271000882339F09091C00095FFFCCF8093C600CC
:10272000F6CF1092191710921A1710921B171092C9
:102730001C172CC0E3EEF2E08491882341F09091C5
:10274000C00095FFFCCF8093C6003196F5CFF8010D
:102750008191882339F09091C00095FFFCCF809340
:10276000C600F6CFE1EEF2E08491882341F090912B
:10277000C00095FFFCCF8093C6003196F5CF8091C5
:10278000C00085FFFCCF8AE08093C600C7010E948D
:10279000D75D0C9424228091EB169091EC16019752
:1027A00021F40E94524F0E941D4CE0901F0CF090AB
:1027B000200CE4E0EE0EF11C6AE270E0C7010E941A
:1027C00043CD009719F0FC013197108200E010E032
:1027D000980141E0B701C7010E942A4C8091ED1693
:1027E000882331F081E090E09093EC168093EB1613
:1027F0000E94003760938A0B70938B0B80938C0B35
:1028000090938D0B0C94242280911F0C9091200C9E
:102810006AE270E005960E9443CD8C01892BE1F0BD
:102820002091360C3091370C40E6429FC001439F07
:10283000900D11246EE470E085579D4E0E9443CDAB
:1028400060E270E00E9443CD01969093200C80934B
:102850001F0CF8013197108280911F0C9091200C71
:10286000059621E02093EA1600E010E0980140E090
:10287000BC010E942A4C0C94242281E090E00E942A
:10288000DDA00C9424220E94003760938E0B70937D
:102890008F0B8093900B9093910B00918A0B10916A
:1028A0008B0B20918C0B30918D0B601B710B820B6D
:1028B000930B28EE33E040E050E00E9401C8CA01CB
:1028C000B9012CE330E040E050E00E9401C87F9362
:1028D0006F933F932F938FE395E09F938F938E0198
:1028E0000F5F1F4F1F930F930E9436C2E5E4F7E17D
:1028F00084912DB73EB7285F3F4F0FB6F8943EBF87
:102900000FBE2DBF882349F09091C00095FFFCCFEA
:102910008093C60031968491F5CFF8018191882388
:1029200039F09091C00095FFFCCF8093C600F6CFA0
:102930008091C00085FFFCCF8AE08093C6000C9494
:10294000242283E50E94FAA4882311F40C94242203
:102950000E9420A50E949CC98B0180E50E94FAA4D8
:10296000882311F40C9424220F3F110509F010F470
:102970000C94DD220C94242283E50E94FAA488237F
:1029800011F40C9424220E9420A50E949CC97093EB
:10299000350C6093340C0C94242289E690E00E945C
:1029A0006AA281110C942422E9E3F5E08491882342
:1029B00041F09091C00095FFFCCF8093C600319606
:1029C000F5CF60916E0C70916F0C8091700C9091AE
:1029D000710C41E00E944A69E7E3F5E084918823A5
:1029E00041F09091C00095FFFCCF8093C6003196D6
:1029F000F5CF6091A4197091A519072E000C880BD2
:102A0000990B0E946BC241E00E944A69E2E3F5E043
:102A10008491882341F09091C00095FFFCCF809372
:102A2000C6003196F5CF6091720C7091730C809155
:102A3000740C9091750C41E00E944A69E0E3F5E066
:102A40008491882341F09091C00095FFFCCF809342
:102A5000C6003196F5CF6091A6197091A719072E7F
:102A6000000C880B990B0E946BC241E00E944A69DE
:102A7000ECE2F5E08491882341F09091C00095FF4D
:102A8000FCCF8093C6003196F5CF60916A0C7091AF
:102A90006B0C80916C0C90916D0C41E00E944A6926
:102AA000E9E2F5E08491882341F09091C00095FF20
:102AB000FCCF8093C6003196F5CF6091340C7091B5
:102AC000350C072E000C880B990B0E946BC241E05D
:102AD0000E944A69E5E2F5E08491882341F09091F3
:102AE000C00095FFFCCF8093C6003196F5CFE091F2
:102AF0005519F0E0E258F34F608170E080E090E01B
:102B00000E943869E0E2F5E08491882341F09091D9
:102B1000C00095FFFCCF8093C6003196F5CF609141
:102B20007D0C70E080E090E00E9438698091C000E8
:102B300085FFFCCF8AE08093C6000C9430268FEF8F
:102B40009FEF0E945C6D0C9424228FEF9FEF0E94F8
:102B500050720C94242282E50E94FAA4811105C0CF
:102B600020E030E040E85FE30BC00E9420A50E9417
:102B70009CC961307105A1F723E333E343E250E4DC
:102B800083E5E5962FAFE597E6963FAFE697E796A4
:102B90004FAFE797E8965FAFE8970E94FAA48823C3
:102BA00011F10E9420A5E5962FADE597E6963FAD81
:102BB000E697E7964FADE797E8965FADE8970E94F6
:102BC000C2BC0E949CC96F3F710519F014F06FEFF1
:102BD00070E077FF02C060E070E070934D0C60938E
:102BE0004C0C0C9424228FEF90E090934D0C80932A
:102BF0004C0C0C94242261E080E00E94D1A40C943F
:102C000024221092B4190C94242281E08093B419E8
:102C10000C94242283E50E94FAA48823A1F00E9448
:102C200020A520E030E04AE754E40E94C2BC0E94A4
:102C3000A2C960933C0270933D0280933E02909340
:102C40003F020C94242288E50E94FAA481110C947E
:102C5000E02289E50E94FAA481110C94E0228AE521
:102C60000E94FAA481110C94E02285E40E94FAA447
:102C700081110C94E0220E94524F8D9A129A81E0A9
:102C80000E947E410C94242282E50E94FAA48823AB
:102C900029F00E9420A54B015C0106C0812C912CDB
:102CA00060E8A62E6FE3B62E4EEC52E02A965FAF98
:102CB0004EAF2A970EE21DE085E299E124969FAF80
:102CC0008EAF249753E5252E5DE0352E22961FAE5C
:102CD00022972A96AEADBFAD2A978D912A96BFAFA7
:102CE000AEAF2A970E94FAA4882309F46DC02296F9
:102CF000BFAD2297B33009F05CC00E9420A5A501AA
:102D000094010E942BC92B013C0120E030E040EAF5
:102D100051E40E9465C287FF45C0A3019201F801FA
:102D200060817181828193810E942BC96B017C013A
:102D30009B01AC01609111197091121980911319C6
:102D4000909114190E94C2BC6093111970931219CA
:102D50008093131990931419A70196012496AEAD90
:102D6000BFAD24976D917D918D919C910E94C2BCC5
:102D70002496EEADFFAD24976083718382839383A5
:102D8000D1016D917D918D919C910E9469C2A701A5
:102D900096010E94C2BC0E94A2C9F10160837183A6
:102DA00082839383D8014D925D926D927C921397AA
:102DB0000BC00E9420A5A50194010E942BC9F80117
:102DC00060837183828393832296FFAD2297FF5F96
:102DD0002296FFAF22970C5F1F4F24962EAD3FAD7A
:102DE00024972C5F3F4F24963FAF2EAF249734E0BB
:102DF000230E311CF43009F06CCF0E94452B0C944B
:102E00002422EAE7F4E08491882311F40C9424222C
:102E10009091C00095FFFCCF8093C6003196F3CF10
:102E200000911F0C1091200C0B5F1F4F6AE270E0A5
:102E3000C8010E9443CD009719F0FC013197108220
:102E4000B80186EC96E10E94B3450C94242290913F
:102E5000C00095FFFCCF8093C6003196849181110C
:102E6000F6CF60910E0D70910F0D8091100D909125
:102E7000110D42E00E944A69E4E7F4E0849188235E
:102E800041F09091C00095FFFCCF8093C600319631
:102E9000F5CF6091120D7091130D8091140D9091EA
:102EA000150D42E00E944A69E1E7F4E0849188232D
:102EB00041F09091C00095FFFCCF8093C600319601
:102EC000F5CF6091160D7091170D8091180D9091AE
:102ED000190D42E00E944A69EEE6F4E084918823ED
:102EE00041F09091C00095FFFCCF8093C6003196D1
:102EF000F5CF60911A0D70911B0D80911C0D909172
:102F00001D0D42E00E944A69E3E6F4E084918823C3
:102F100041F09091C00095FFFCCF8093C6003196A0
:102F2000F5CF2FB7F8946091FE0C7091FF0C809153
:102F3000000D9091010D2FBF0E946BC220912E0DAC
:102F400030912F0D4091300D5091310D0E942BC9C1
:102F500042E00E944A69E0E6F4E08491882341F06F
:102F60009091C00095FFFCCF8093C6003196F5CFBD
:102F70002FB7F8946091020D7091030D8091040DAC
:102F80009091050D2FBF0E946BC22091320D3091A0
:102F9000330D4091340D5091350D0E942BC942E004
:102FA0000E944A69EDE5F4E08491882341F0909114
:102FB000C00095FFFCCF8093C6003196F5CF2FB7A8
:102FC000F8946091060D7091070D8091080D909115
:102FD000090D2FBF0E946BC22091360D3091370D25
:102FE0004091380D5091390D0E942BC942E00E944A
:102FF0004A698091C00085FFFCCF8AE08093C600BB
:103000000C94242280E00E944E410C942422909142
:10301000C00095FFFCCF8093C60081918111F7CF4E
:103020008091C00085FFFCCF8AE08093C600E5E573
:10303000F4E08491882341F09091C00095FFFCCF8B
:103040008093C6003196F5CF659B03C0E2EDF2E0B8
:1030500009C0E7EDF2E006C09091C00095FFFCCFFB
:103060008093C60081918111F7CF8091C00085FFC8
:10307000FCCF8AE08093C600EDE4F4E084918823DD
:1030800041F09091C00095FFFCCF8093C60031962F
:10309000F5CF649B03C0E2EDF2E009C0E7EDF2E09A
:1030A00006C09091C00095FFFCCF8093C60081912F
:1030B0008111F7CF8091C00085FFFCCF8AE080931B
:1030C000C600E5E4F4E08491882341F09091C000CB
:1030D00095FFFCCF8093C6003196F5CF8091030118
:1030E00081FD03C0E2EDF2E009C0E7EDF2E006C0C9
:1030F0009091C00095FFFCCF8093C6008191811113
:10310000F7CF8091C00085FFFCCF8AE08093C60096
:10311000EDE3F4E08491882341F09091C00095FFA5
:10312000FCCF8093C6003196F5CF4B9B03C0E2EDF8
:10313000F2E009C0E7EDF2E006C09091C00095FF13
:10314000FCCF8093C60081918111F7CF8091C000A0
:1031500085FFFCCF8AE08093C6000C942422D8011E
:103160008D918D010E94FAA4882349F00E9420A528
:103170000E94A2C9F7016083718382839383F4E084
:10318000EF0EF11CD012EBCF0E9445580C94242274
:1031900095E2E92E99E1F92E0EEC12E024E0D22E10
:1031A000D00ED8018D918D010E94FAA4882339F0A8
:1031B0000E9420A5F7016083718382839383F4E0EA
:1031C000EF0EF11CD012EDCF0C94242283E50E9467
:1031D000FAA4882351F00E9420A560931D197093D2
:1031E0001E1980931F199093201984E50E94FAA458
:1031F000882311F40C9424220E9420A560932119A5
:103200007093221980932319909324190C942422EB
:1032100083E50E94FAA4882351F00E9420A56093C0
:10322000391970933A1980933B1990933C1984E5AE
:103230000E94FAA4882351F00E9420A560933D19B2
:1032400070933E1980933F199093401982E40E9435
:10325000FAA4882361F00E9420A50E94A2C960936D
:10326000351970933619809337199093381988E57A
:103270000E94FAA4882351F00E9420A56093191996
:1032800070931A1980931B1990931C198AE50E9458
:10329000FAA4882351F00E9420A560931519709319
:1032A0001619809317199093181985E40E94FAA4AF
:1032B000882311F40C9424220E9420A560931119F4
:1032C0007093121980931319909314190C9424225B
:1032D000B4E6EB2EB9E1FB2E0EEC12E083E0D82E23
:1032E000D00ED8018D918D010E94FAA4882339F067
:1032F0000E9420A5F7016083718382839383F4E0A9
:10330000EF0EF11CD012EDCF0C9424228AED90E048
:103310000E946AA281110C94242288E50E94FAA4DA
:10332000882381F00091551910E00E9420A5000F1C
:10333000111F000F111FF801E453F94E60837183D0
:103340008283938389E50E94FAA4882381F0009107
:10335000551910E00E9420A5000F111F000F111F2A
:10336000F801EC52F94E60837183828393838AE57E
:103370000E94FAA4882381F00091551910E00E9460
:1033800020A5000F111F000F111FF801E452F94E84
:103390006083718382839383E5E4F7E184918823DA
:1033A00041F09091C00095FFFCCF8093C60031960C
:1033B000F5CFEDE2F4E08491882341F09091C000D4
:1033C00095FFFCCF8093C6003196F5CF109255192A
:1033D00080915519823008F058C0E6E2F4E08191FE
:1033E000882339F09091C00095FFFCCF8093C600F0
:1033F000F6CFE091551924E0E29FF0011124E45347
:10340000F94E608171818281938142E00E944A6914
:1034100005E913E0F8018191882339F09091C0000B
:1034200095FFFCCF8093C600F6CFE091551934E0AC
:10343000E39FF0011124EC52F94E60817181828189
:10344000938142E00E944A69D8018D918D018823C1
:1034500039F09091C00095FFFCCF8093C600F4CF67
:10346000E0915519B4E0EB9FF0011124E452F94EBC
:10347000608171818281938142E00E944A698091DA
:1034800055198F5F80935519A3CF8091C00085FF98
:10349000FCCF8AE08093C600D7C783E50E94FAA4D8
:1034A000882309F4D1C70E9420A50E949CC970936B
:1034B0005F0260935E02C8C783E50E94FAA4882376
:1034C00009F4C2C70E9420A50E949CC970934102C2
:1034D00060934002B9C780E50E94FAA4882351F0A6
:1034E0000E9420A560931402709315028093160227
:1034F0009093170289E40E94FAA4882381F00E9425
:1035000020A52DEB37E346E05EE30E94C2BC60934A
:10351000100270931102809312029093130284E4BC
:103520000E94FAA4882381F00E9420A52DEB37E3A6
:1035300046E05EE30E942BC960930C0270930D027B
:1035400080930E0290930F0283E40E94FAA48823D2
:1035500051F00E9420A560930002709301028093B5
:103560000202909303020E943541E7E9F3E0819162
:10357000882339F09091C00095FFFCCF8093C6005E
:10358000F6CFEAE9F3E08191882339F09091C00009
:1035900095FFFCCF8093C600F6CF60911402709126
:1035A0001502809116029091170242E00E944A692A
:1035B000EEE9F3E08191882339F09091C00095FF06
:1035C000FCCF8093C600F6CF2DEB37E346E05EE3F9
:1035D0006091100270911102809112029091130279
:1035E0000E942BC942E00E944A69E2EAF3E081911D
:1035F000882339F09091C00095FFFCCF8093C600DE
:10360000F6CF2DEB37E346E05EE360910C0270915C
:103610000D0280910E0290910F020E94C2BC42E006
:103620000E944A69E6EAF3E08191882339F090919B
:10363000C00095FFFCCF8093C600F6CF60910002DA
:1036400070910102809102029091030242E00E9477
:103650004A698091C00085FFFCCF8AE08093C60054
:103660000E94452BF1C683E50E94FAA4882319F035
:103670000E9420A503C060E070E0CB01609342028D
:10368000709343028093440290934502DDC685E423
:103690000E94FAA4882341F00E9420A50E949CC9A0
:1036A0008B0177FD12C002C000E010E02D961FAE26
:1036B0002D972E961FAE2E97E6E12F96EFAF2F9700
:1036C000F3E46096FFAF60970EC02D961FAE2D9766
:1036D0002E961FAE2E972CE82F962FAF2F9732E401
:1036E00060963FAF609783E50E94FAA4882371F04B
:1036F0000E9420A52D966FAF2D972E967FAF2E9707
:103700002F968FAF2F9760969FAF609783E40E94AC
:10371000FAA4882349F00E9420A50E949CC9AE9675
:103720007FAF6EAFAE9706C045E050E0AE965FAF9C
:103730004EAFAE970E9400372C966CAF7DAF8EAF28
:103740009FAF2C97033011051CF4EAEAF3E01AC08E
:10375000EDEBF3E08191882339F09091C00095FF63
:10376000FCCF8093C600F6CF8091C00085FFFCCFD0
:103770008AE08093C60068C69091C00095FFFCCF98
:103780008093C60081918111F7CF8091C00085FFA1
:10379000FCCF8AE08093C6000E94563717FF09C00D
:1037A0008AE780937D0C5AE7452E512C612C712CB1
:1037B0000AC08FE7F801E258F34F80834FE7442EA9
:1037C000512C612C712C530142012C96CCACDDACF8
:1037D000EEACFFAC2C976C96CCAEDDAEEEAEFFAE91
:1037E0006C97E296CCAEDDAEEEAEFFAEE2972596DC
:1037F0001FAE259720E461962FAF61973CE1A39619
:103800003FAFA39746E4A4964FAFA4976F961FAE21
:103810006F97A0961FAEA097A1961FAEA197A296F4
:103820001FAEA297AA961CAE1DAE1EAE1FAEAA97E3
:1038300051E065965FAF65976E961FAE1EAE6E97B0
:1038400022961FAE2297212C312C23961FAE239750
:10385000C8018258934FAC969FAF8EAFAC97C8010A
:10386000880F991F880F991FDC01A259B34FA696A4
:10387000BFAFAEAFA69780917C0C882309F468C1D6
:103880000E947B3D17FF0FC0C0906A0C2296CFAEFE
:10389000229720906B0C30906C0CD0906D0C23967E
:1038A000DFAE239712C0A696AEADBFADA697BC9172
:1038B0002296BFAF2297A696EEADFFADA6972180C8
:1038C0003280C3802396CFAE239722962FAD2297C6
:1038D000322D432D23965FAD23976F966FAD6F9773
:1038E000A0967FADA097A1968FADA197A2969FAD10
:1038F000A2970E9488CA181694F02296DFAC2297ED
:103900006F96DFAE6F97A0962FAEA097A1963FAEB1
:10391000A1972396EFAC2397A296EFAEA29722969B
:103920002FAD2297322D432D23965FAD23972596F9
:103930006FAD259761967FAD6197A3968FADA397E5
:10394000A4969FADA4970E9465C287FD12C02296DF
:10395000FFAC22972596FFAE259761962FAE619713
:10396000A3963FAEA3972396CFAC2397A496CFAE52
:10397000A4976596DFAC6597DD2009F473C02D969A
:103980002FAD2D972E963FAD2E972F964FAD2F979B
:1039900060965FAD609722966FAD2297722D832D52
:1039A00023969FAD23970E9488CA18160CF0D0C0AA
:1039B0000E940037DC01CB012C96CCACDDACEEAC28
:1039C000FFAC2C978C199D09AE09BF09893893412A
:1039D000A105B10508F4BCC0D301C2018819990939
:1039E000AA09BB09B595A7959795879517FF03C0B9
:1039F00080937D0C05C0AC96EEADFFADAC97808397
:103A00000E9400376C966CAF7DAF8EAF9FAF6C9706
:103A10006B017C012C962CAD3DAD4EAD5FAD2C976E
:103A2000C21AD30AE40AF50AAA96CCAEDDAEEEAE0F
:103A3000FFAEAA972D96CFAC2D976F96CFAE6F970E
:103A40002E96DFAC2E97A096DFAEA0972F96EFAC08
:103A50002F97A196EFAEA1976096FFAC6097A296C4
:103A6000FFAEA2972D962FAD2D972E963FAD2E9798
:103A70002F964FAD2F9760965FAD609722966FADF2
:103A80002297722D832D23969FAD23970E9465C2A6
:103A900087FF00C60E940037DC01CB016C96CCACDE
:103AA000DDACEEACFFAC6C978C199D09AE09BF097B
:103AB00089389341A105B10508F4ECC50E9400378F
:103AC0002C966CAF7DAF8EAF9FAF2C97DC01CB01F6
:103AD0008C199D09AE09BF096E96CEACDFAC6E970E
:103AE0001C141D040CF498C5D301C201880D991D46
:103AF000AA1DBB1DB595A7959795879517FFC4C5BA
:103B000080937D0C6E962EAD3FAD6E972F5F3F4F2D
:103B10006E963FAF2EAF6E972D96CFAC2D97259614
:103B2000CFAE25972E96DFAC2E976196DFAE6197CC
:103B30002F96EFAC2F97A396EFAEA3976096FFACAE
:103B40006097A496FFAEA49721E065962FAF659786
:103B500020E030E040EA51E42D966FAD2D972E968F
:103B60007FAD2E972F968FAD2F9760969FAD609764
:103B70000E943DC89B01AC0122966FAD2297722D29
:103B8000832D23969FAD23970E9488CA1816ACF404
:103B9000E8E9F3E08491882341F09091C00095FF1B
:103BA000FCCF8093C6003196F5CF8091C00085FF91
:103BB000FCCF8AE08093C60047C40E940037DC0136
:103BC000CB01E296CCACDDACEEACFFACE2978C194D
:103BD0009D09AE09BF09813D9740A105B10508F4D3
:103BE00052C017FF10C0E0907D0CF12CE2E9F3E029
:103BF00084918823D9F09091C00095FFFCCF8093E9
:103C0000C6003196F5CFAC96AEADBFADAC97EC909B
:103C1000F12CECE8F3E08491882341F09091C0000E
:103C200095FFFCCF8093C6003196F5CF42E02296F7
:103C30006FAD2297722D832D23969FAD23970E94FF
:103C40004A69E8E8F3E08491882341F09091C0004C
:103C500095FFFCCF8093C6003196F5CFB701FF0CDE
:103C6000880B990B0E9438698091C00085FFFCCFBA
:103C70008AE08093C6000E940037E2966CAF7DAF69
:103C80008EAF9FAFE2970E940037EC966CAF7DAF8E
:103C90008EAF9FAFEC970E9400376C962CAD3DAD78
:103CA0004EAD5FAD6C972C96CCACDDACEEACFFAC02
:103CB0002C972C0D3D1D4E1D5F1DEC96CCACDDAC44
:103CC000EEACFFACEC97C21AD30AE40AF50ADC01A9
:103CD000CB018C0D9D1DAE1DBF1D81389F44A2419F
:103CE000B105A8F0EBE6F3E08491882341F09091D0
:103CF000C00095FFFCCF8093C6003196F5CF809130
:103D0000C00085FFFCCF8AE08093C6009DC36E96FD
:103D1000CEACDFAC6E97AE96EEACFFACAE97EC14CB
:103D2000FD04ACF4EFE1F3E08491882341F090913D
:103D3000C00095FFFCCF8093C6003196F5CF8091EF
:103D4000C00085FFFCCF8AE08093C6007DC30E943F
:103D5000E72F91CD0E94452B77C30E94212E74C37B
:103D60000E948C2771C380E090E00E9429A50E94E8
:103D7000524F83E50E94FAA4882341F00E9420A5B7
:103D80000E949CC9709367026093660280916602EC
:103D9000909167028230910509F0BFC088E50E94CA
:103DA000FAA4882349F10E9420A56B017C010E949E
:103DB000EB9F9B01AC0160E070E0CB010E943CC82E
:103DC0009B01AC01C701B6010E9488CA18161CF4F9
:103DD0000E9420A509C00E94EB9F9B01AC0160E0FE
:103DE00070E0CB010E943CC860930402709305020E
:103DF000809306029093070282E50E94FAA488232A
:103E000051F00E9420A560936C0B70936D0B809312
:103E10006E0B90936F0BE5E4F7E18491882341F0FA
:103E20009091C00095FFFCCF8093C6003196F5CFEE
:103E3000E8E0F4E08491882341F09091C00095FF80
:103E4000FCCF8093C6003196F5CFE6E2EE2EE4E09B
:103E5000FE2EF7018191882339F09091C00095FFE3
:103E6000FCCF8093C600F6CF6091CC167091CD1632
:103E70008091CE169091CF1642E00E944A6905E9E2
:103E800013E0F8018191882339F09091C00095FFEB
:103E9000FCCF8093C600F6CF6091D4167091D516F2
:103EA0008091D6169091D71642E00E944A69D701B8
:103EB0008D917D01882339F09091C00095FFFCCF52
:103EC0008093C600F4CF6091040270910502809146
:103ED00006029091070242E00E944A69F80181912E
:103EE0008F01882339F09091C00095FFFCCF80931B
:103EF000C600F4CF6091D8167091D9168091DA1669
:103F00009091DB1642E00E944A698091C00085FFD3
:103F1000FCCF8AE08093C60008C0049730F081E0AF
:103F200090E09093670280936602109273198091DB
:103F300066029091670290936502809364021092EA
:103F400074191092751910927619109277197CC213
:103F500083E50E94FAA4882309F476C20E9420A572
:103F60000E949CC97093930B6093920B653171050D
:103F700034F084E190E09093930B8093920B8091C6
:103F8000920B9091930B97FD02C00C94FD1610922A
:103F9000930B1092920B0C94FD1687EE93E0AED724
:103FA00053C20E949B8F50C2812C912C54017501E9
:103FB000640100E010E020E030E040E050E060E02C
:103FC00070E0CB010E94772F10923E0D3DC282E53A
:103FD0000E94FAA4882329F00E9420A59B01AC012D
:103FE00004C020E030E040E85FE383E5E5962FAFD2
:103FF000E597E6963FAFE697E7964FAFE797E896E7
:104000005FAFE8970E94FAA4882309F41DC20E94BA
:1040100020A5E5962FADE597E6963FADE697E796A6
:104020004FADE797E8965FADE8970E942BC9609384
:10403000BC167093BD168093BE169093BF160E9457
:10404000452B02C282E50E94FAA4882329F00E942F
:1040500020A59B01AC0104C020E030E040E85FE314
:1040600083E5E5962FAFE597E6963FAFE697E796AF
:104070004FAFE797E8965FAFE8970E94FAA48823CE
:1040800009F4E2C10E9420A5E5962FADE597E696DA
:104090003FADE697E7964FADE797E8965FADE897B7
:1040A0000E942BC96093E4167093E5168093E61680
:1040B0009093E7160E94452BC7C182E50E94FAA49F
:1040C000882329F00E9420A59B01AC0104C020E0B8
:1040D00030E040E85FE383E5E5962FAFE597E696AD
:1040E0003FAFE697E7964FAFE797E8965FAFE89761
:1040F0000E94FAA4882309F4A7C10E9420A5E5968E
:104100002FADE597E6963FADE697E7964FADE7977B
:10411000E8965FADE8970E942BC96093840B70937B
:10412000850B8093860B9093870B0E94452B8CC147
:1041300083E50E94FAA4882309F486C10E9420A581
:104140000E949CC9653671052CF477FF05C060E0BC
:1041500070E002C064E670E07093FA186093F9189A
:104160000E94452B71C183E50E94FAA4882309F4BB
:104170006BC10E9420A50E949CC9693C71052CF46A
:1041800077FF05C060E070E002C068EC70E07093FB
:10419000F8186093F7180E94452B56C183E50E94DA
:1041A000FAA4882309F450C10E9420A50E949CC94A
:1041B00021E030E06130710511F020E030E0309313
:1041C000950B2093940B0E94452B3EC183E50E94E2
:1041D000FAA4882309F438C10E9420A50E949CC932
:1041E0006D3371052CF477FF05C060E070E002C00C
:1041F0006CE370E07093830B6093820B0E94452BFD
:1042000023C182E40E94FAA4882351F00E9420A5D1
:104210000E949CC97093550C6093540C0E94452BCE
:1042200085E40E94FAA4882309F40EC10E9420A507
:104230000E949CC97093810B6093800B70937F0BDD
:1042400060937E0B0E94452BFFC083E50E94FAA479
:10425000811124C2F9C083E50E94FAA4882309F4DD
:10426000F3C00E9420A50E949CC98B0184E50E9496
:10427000FAA4882329F00E9420A50E949CC902C0AC
:104280006FEF7FEF0230110508F0DEC08091AF19AB
:1042900090E06817790709F471C26F3FFFEF7F075D
:1042A00009F46CC2CB010E9429A568C21092AA1918
:1042B0001092A919C9C083E50E94FAA4882309F4C1
:1042C000C3C00E9420A50E949CC921E030E061305B
:1042D000710511F020E030E03093AE192093AD1954
:1042E0000E94452BB1C083E50E94FAA4882309F4FB
:1042F000ABC00E9420A50E949CC921E030E0613043
:10430000710511F020E030E030937D0B20937C0BA1
:104310000E94452B99C00E942BA096C00E94F99F35
:1043200093C080E090E00E94DDA08EC083E50E94F3
:10433000FAA4882309F488C00E9420A56B017C019F
:1043400020E030E0A9010E9465C2811104C081E033
:1043500080935C0279C020E030E040E251E4C70184
:10436000B6010E942BC96093480C7093490C80934E
:104370004A0C90934B0C10925C0266C01092B519D7
:104380008091511990915219A0915319B0915419DB
:1043900080931B0C90931C0CA0931D0CB0931E0CCF
:1043A0000E9499B1E0E0F0E019954EC084E50E94CA
:1043B000FAA4882329F08FEF9FEF0E9429A544C01B
:1043C000E5E4F7E18491882341F09091C00095FFE6
:1043D000FCCF8093C6003196F5CFEAE1F4E08491FA
:1043E000882341F09091C00095FFFCCF8093C600D8
:1043F0003196F5CF8091360C9091370C20E6289FAE
:10440000F001299FF00D1124E557FD4E819188237D
:1044100039F09091C00095FFFCCF8093C600F6CF95
:10442000E8E1F4E08491882341F09091C00095FF89
:10443000FCCF8093C6003196F5CF8091C00085FFF8
:10444000FCCF8AE08093C6000E949C8009C48191C1
:1044500087FD02C00C94D410D12C0C94DE106BEFAD
:1044600076E1CE0101960E94A946BE016F5F7F4FA3
:10447000CE01CB960E94DD45CE0101960E941646E4
:10448000CE01CB960E94D143BE01655C7F4FCE0129
:1044900080960E94A1460F5F1F4FC090880BD0905E
:1044A000890BB6E0BC9DC001BD9D900D1124801705
:1044B00091070CF06BC00696801791070CF466C04C
:1044C0006EEE76E1CE0101960E94A946BE016F5FB5
:1044D0007F4FCE01CB960E94DD45CE0101960E9412
:1044E0001646CE01CB960E94D1436FE374E0CE0115
:1044F00080960E942C45882339F0BE01655C7F4F71
:10450000CE0180960E94C8454AEF96014203C00141
:10451000439F900D11246801C80ED91E88E293E0D4
:10452000EBD44AE0B601CE0101960E94764689811D
:104530009A81E2D4CE0101960E9416468AE899E05B
:10454000DBD4CE0180960E94D14388A199A1D4D416
:1045500085EF98E0D1D4C4D487E393E0CDD44AE08A
:10456000B601CE0101960E94764689819A81C4D413
:10457000CE0101960E9416468AE899E0BDD48BAD23
:104580009CADBAD485EF98E0B7D4AAD4CE0180967A
:104590000E9416460C94EA100E9415A5AB01BC01BE
:1045A0004093191750931A1760931B1770931C1799
:1045B00080EC98E10E941A9747CF0E9420A544CF33
:1045C0000E94524F88E50E94FAA4882311F05F9A56
:1045D000479A89E50E94FAA481118A9A8AE50E9485
:1045E000FAA4882381F09FB7F89480910801816034
:1045F000809308019FBF9FB7F89480910801846061
:10460000809308019FBF85E40E94FAA4882309F4DF
:104610001BCF8D9A129A18CFAA96CCACDDACEEAC1B
:10462000FFACAA97C80ED91EEA1EFB1E6896CCAE38
:10463000DDAEEEAEFFAE6897AA96CCACDDACEEACCC
:10464000FFACAA97C81AD90AEA0AFB0AC701B60141
:10465000A50194010E94F2C768962CAD3DAD4EAD08
:104660005FAD68970E94F3CB53014201820E931E07
:10467000A41EB51E24E182169104A104B1040CF419
:104680004DC117FF30C117C1AC96EEADFFADAC9771
:10469000808338CA65961FAE65975ACA0E9420A5C6
:1046A0000E949CC961157105F9F480917A0B909173
:1046B0007B0B9093A5198093A4199093A7198093CD
:1046C000A6198091780B9091790B9093350C80937B
:1046D000340C8091760B9091770B90934D0C8093D6
:1046E0004C0C0E944D3BB0CE61307105F9F48091C5
:1046F000740B9091750B9093A5198093A4199093C6
:10470000A7198093A6198091720B9091730B9093C7
:10471000350C8093340C8091700B9091710B9093B9
:104720004D0C80934C0C0E944D3B8ECE6230710537
:1047300069F41092A5191092A4191092A719109259
:10474000A6191092350C1092340C7ECE6330710590
:1047500009F07ACE1092A5191092A4191092A719F7
:104760001092A6191092350C1092340C0E94524FE0
:104770008D9A129A80E00E947E4166CE012B09F04C
:104780004DC020E030E044EB52E460911A0D70918E
:104790001B0D80911C0D90911D0D0E943DC86093D2
:1047A0001A0D70931B0D80931C0D90931D0D5FEAE5
:1047B000C52E59E1D52EE12CF12C00E810E42AE1B8
:1047C0003DE046E15DE062E17DE08EE09DE00E943B
:1047D0009B8220E030E040EA51E460911A0D709134
:1047E0001B0D80911C0D90911D0D0E943DC8609382
:1047F0001A0D70931B0D80931C0D90931D0DE12CD1
:10480000F12C00E010E42AE13DE046E15DE062E1E8
:104810007DE08EE09DE00E949B8216CE20E030E09D
:1048200040EF51E460911A0D70911B0D80911C0DA9
:1048300090911D0D0E943DC860931A0D70931B0D41
:1048400080931C0D90931D0D2FEAC22E29E1D22ECC
:10485000E12CF12C00E010E42AE13DE046E15DE0CE
:1048600062E17DE08EE09DE00E949B8220E030E0EE
:1048700040EF52E460911A0D70911B0D80911C0D58
:1048800090911D0D0E943CC860931A0D70931B0DF2
:1048900080931C0D90931D0DE12CF12C00EF11E481
:1048A0002AE13DE046E15DE062E17DE08EE09DE0F1
:1048B0000E949B82C9CD32EE83169104A104B104FB
:1048C00044F43BE783169104A104B1040CF4BAC18B
:1048D00005C091EE892E912CA12CB12C84EF90E093
:1048E000A0E0B0E010C04CEE84169104A104B10425
:1048F0000CF4A1C18BEE882E912CA12CB12C8EEF43
:1049000090E0A0E0B0E0240135016C017D01C81801
:10491000D908EA08FB08460157010CC017FD95C1EC
:10492000A4E14A2E512C612C712CB4E18B2E912CD8
:10493000A12CB12CE0E0F4E08491882341F0909127
:10494000C00095FFFCCF8093C6003196F5CFC30120
:10495000B2010E943869EBEFF3E08491882341F0C3
:104960009091C00095FFFCCF8093C6003196F5CFA3
:10497000C501B4010E943869E4EFF3E08491882313
:1049800041F09091C00095FFFCCF8093C600319616
:10499000F5CF42E025966FAD259761967FAD619783
:1049A000A3968FADA397A4969FADA4970E944A6942
:1049B000EDEEF3E08491882341F09091C00095FFE3
:1049C000FCCF8093C6003196F5CF42E06F966FAD75
:1049D0006F97A0967FADA097A1968FADA197A29655
:1049E0009FADA2970E944A698091C00085FFFCCFCD
:1049F0008AE08093C6006E962EAD3FAD6E97233051
:104A000031050CF471C8C501B4010E946BC220E0ED
:104A100030E040E850E40E94C2BC6B017C01259666
:104A20002FAD259761963FAD6197A3964FADA397A4
:104A3000A4965FADA4976F966FAD6F97A0967FAD6C
:104A4000A097A1968FADA197A2969FADA2970E9425
:104A50003CC820ED3FE049E450E40E94C2BC20E0A5
:104A600030E040E05FE30E94C2BC9B01AC01C701A3
:104A7000B6010E942BC96B017C0168966CAD7DADBF
:104A80008EAD9FAD68970E946BC220E030E04AE790
:104A900054E40E942BC928966CAF7DAF8EAF9FAFB8
:104AA0002897E7EEF3E08491882341F09091C000CD
:104AB00095FFFCCF8093C6003196F5CF42E0C70149
:104AC000B6010E944A69E1EEF3E08491882341F047
:104AD0009091C00095FFFCCF8093C6003196F5CF32
:104AE00042E028966CAD7DAD8EAD9FAD28970E94BB
:104AF0004A698091C00085FFFCCF8AE08093C600A0
:104B00002AE939E949E15FE3C701B6010E94C2BC65
:104B10006B017C019B01AC010E943DC828962CAD25
:104B20003DAD4EAD5FAD28970E942BC964966CAF2A
:104B30007DAF8EAF9FAF649728962CAD3DAD4EAD47
:104B40005FAD2897C701B6010E94C2BC20E030E0EB
:104B500040E05EE30E94C2BC28966CAF7DAF8EAF92
:104B60009FAF2897E4EDF3E08491882341F0909182
:104B7000C00095FFFCCF8093C6003196F5CF8091A1
:104B8000C00085FFFCCF8AE08093C600EEECF3E026
:104B90008491882341F09091C00095FFFCCF8093D1
:104BA000C6003196F5CF42E0C701B6010E944A69BE
:104BB0008091C00085FFFCCF8AE08093C600E8ECBE
:104BC000F3E08491882341F09091C00095FFFCCFE1
:104BD0008093C6003196F5CF42E064966CAD7DAD12
:104BE0008EAD9FAD64970E944A698091C00085FF99
:104BF000FCCF8AE08093C600E2ECF3E08491882346
:104C000041F09091C00095FFFCCF8093C600319693
:104C1000F5CF42E028966CAD7DAD8EAD9FAD289767
:104C20000E944A698091C00085FFFCCF8AE0809392
:104C3000C6000C94741D50E885169104A104B104BB
:104C40000CF05DCE2401350175CE84E1882E912CC7
:104C5000A12CB12C94E1492E512C612C712C6ACEDF
:104C6000E4968EAD9FADE4970FB6F8949EBF0FBE4D
:104C70008DBFC558DF4F0FB6F894DEBF0FBECDBF56
:104C8000DF91CF911F910F91FF90EF90DF90CF9028
:104C9000BF90AF909F908F907F906F905F904F905C
:104CA0003F902F90089561E0FC0180810C9488472B
:104CB0008EBD0DB407FEFDCF08958FEF8EBD0DB4F0
:104CC00007FEFDCF8EB50895CF92DF92EF92FF924F
:104CD0001F93CF93DF9300D01F92CDB7DEB76C0147
:104CE000162FFC019281892F806A86958CBD90FDDC
:104CF00003C081E0963009F480E08DBD60E0F601EC
:104D0000808129833A834B835C830E9488476CE2CD
:104D100071E0C6010E949E9A812F8064C9DF88E1FC
:104D2000E82EF12C5C814B813A812981DA01C9019D
:104D30000E2C04C0B695A795979587950A94D2F73F
:104D400029833A834B835C83B3DFF8E0EF1AF108E1
:104D500029813A814B815C8188EFE8168FEFF80654
:104D600029F7112321F0183021F08FEF03C085E9D6
:104D700001C087E89DDF1C3009F49FDF10E09DDF54
:104D8000F601838387FF04C01F3F11F01F5FF7CF39
:104D90000F900F900F900F90DF91CF911F91FF9088
:104DA000EF90DF90CF900895EF92FF920F931F93B3
:104DB000CF93DF93EC0179018C81833039F089E066
:104DC000440F551F661F771F8A95D1F79A01AB01D3
:104DD00061E1CE0179DF882311F084E013C00E94E5
:104DE00000378B016ADF8B838F3F49F40E940037C5
:104DF000601B710B6D327140A8F381E103C08E3FDF
:104E000031F08FE08983CE014EDF80E019C08FEF53
:104E10008EBDF701D701A150BE4F0DB407FEFDCFE7
:104E20009EB591938EBDEA17FB07B9F70DB407FE47
:104E3000FDCF8EB58C9341DF40DFCE0134DF81E0C2
:104E4000DF91CF911F910F91FF90EF9008951F92E6
:104E50000F920FB60F9211240BB60F922F933F9320
:104E60004F936F937F938F939F93EF93FF93409113
:104E7000C6002091170C3091180CC90101968F774C
:104E800099276091190C70911A0C8617970741F0B9
:104E9000F901E956F44F40839093180C8093170C56
:104EA000FF91EF919F918F917F916F914F913F91E2
:104EB0002F910F900BBE0F900FBE0F901F90189563
:104EC00080E090E00E94CE698FEF9FEF0E94CE6954
:104ED0008FEF9FEF0E94CE698FEF9FEF0C94CE690A
:104EE0008FEF9FEF0E94CE698FEF9FEF0E94CE69F8
:104EF0008FEF9FEF0C94CE690C94D3690E94D36915
:104F00008FEF9FEF0E94CE698FEF9FEF0E94CE69D7
:104F10008FEF9FEF0C94CE69CF93DF93C1E8DAE077
:104F2000FE018491882341F09091C00095FFFCCF51
:104F30008093C6003196F5CFE5E3FAE084918823AB
:104F400041F09091C00095FFFCCF8093C600319650
:104F5000F5CF8091C00085FFFCCF8AE08093C6002A
:104F6000FE018491E1E8FAE0882349F09091C000C5
:104F700095FFFCCF8093C60031968491F5CF409188
:104F80002E0D50912F0D6091300D7091310D8DE2ED
:104F90009AE00E94B05D4091320D5091330D6091C6
:104FA000340D7091350D8AE29AE00E94B05D409117
:104FB000360D5091370D6091380D7091390D87E2A3
:104FC0009AE00E94B05D40913A0D50913B0D609186
:104FD0003C0D70913D0D84E29AE00E94B05D80919D
:104FE000C00085FFFCCF8AE08093C600FE0184915B
:104FF000E1E8FAE0882349F09091C00095FFFCCFEA
:105000008093C60031968491F5CFEAE0FAE084916E
:10501000882341F09091C00095FFFCCF8093C6009B
:105020003196F5CF8091C00085FFFCCF8AE0809358
:10503000C600FE018491E1E8FAE0882349F09091EE
:10504000C00095FFFCCF8093C60031968491F5CFC8
:1050500040912519509126196091271970912819AE
:1050600081E09AE00E94B05D4091291950912A197F
:1050700060912B1970912C198EEF99E00E94B05D10
:1050800040912D1950912E1960912F19709130195E
:105090008BEF99E00E94B05D409131195091321927
:1050A000609133197091341988EF99E00E94B05DD6
:1050B0008091C00085FFFCCF8AE08093C600FE018E
:1050C0008491E1E8FAE0882349F09091C00095FFCF
:1050D000FCCF8093C60031968491F5CFEAEDF9E0DC
:1050E0008491882341F09091C00095FFFCCF80937C
:1050F000C6003196F5CF8091C00085FFFCCF8AE0D5
:105100008093C600FE018491E1E8FAE0882349F02B
:105110009091C00095FFFCCF8093C600319684919A
:10512000F5CF4091630D5091640D6091650D7091C4
:10513000660D81ED99E00E949F5D4091670D509151
:10514000680D6091690D70916A0D8EEC99E00E9476
:105150009F5D40916B0D50916C0D60916D0D709144
:105160006E0D8BEC99E00E949F5D40916F0D509108
:10517000700D6091710D7091720D88EC99E00E9434
:105180009F5D8091C00085FFFCCF8AE08093C600C0
:10519000FE018491E1E8FAE0882349F09091C00093
:1051A00095FFFCCF8093C60031968491F5CFE3E95B
:1051B000F9E08491882341F09091C00095FFFCCFE5
:1051C0008093C6003196F5CF8091C00085FFFCCF5B
:1051D0008AE08093C600FE018491E1E8FAE088232A
:1051E00049F09091C00095FFFCCF8093C6003196A6
:1051F0008491F5CF40911D1950911E1960911F198E
:10520000709120198AE899E00E94B05D40912119BF
:1052100050912219609123197091241987E899E01F
:105220000E94B05D8091C00085FFFCCF8AE0809332
:10523000C600FE018491E1E8FAE0882349F09091EC
:10524000C00095FFFCCF8093C60031968491F5CFC6
:10525000E4EDF8E08491882341F09091C00095FF3F
:10526000FCCF8093C6003196F5CF8091C00085FFBA
:10527000FCCF8AE08093C600FE018491E1E8FAE069
:10528000882349F09091C00095FFFCCF8093C60021
:1052900031968491F5CF4091391950913A19609126
:1052A0003B1970913C198BEC98E00E94B05D4091E5
:1052B0003D1950913E1960913F197091401988EC49
:1052C00098E00E94B05D4091351950913619609177
:1052D00037197091381985EC98E00E949F5D4091D4
:1052E000191950911A1960911B1970911C1982ECAF
:1052F00098E00E94B05D4091151950911619609187
:105300001719709118198FEB98E00E94B05D4091C9
:1053100011195091121960911319709114198CEB95
:1053200098E00E94B05D8091C00085FFFCCF8AE0CC
:105330008093C600FE018491E1E8FAE0882349F0F9
:105340009091C00095FFFCCF8093C6003196849168
:10535000F5CFEAEAF8E08491882341F09091C0000B
:1053600095FFFCCF8093C6003196F5CF8091C000A9
:1053700085FFFCCF8AE08093C600FE018491E1E8BE
:10538000FAE0882349F09091C00095FFFCCF80930C
:10539000C60031968491F5CF4091641950916519FA
:1053A000609166197091671981EA98E00E94B05D7A
:1053B000409168195091691960916A1970916B193F
:1053C0008EE998E00E94B05D40916C1950916D1982
:1053D00060916E1970916F198BE998E00E94B05D31
:1053E0008091C00085FFFCCF8AE08093C600FE015B
:1053F0008491E1E8FAE0882349F09091C00095FF9C
:10540000FCCF8093C60031968491F5CFEDE8F8E0AB
:105410008491882341F09091C00095FFFCCF809348
:10542000C6003196F5CF8091C00085FFFCCF8AE0A1
:105430008093C600FE018491E1E8FAE0882349F0F8
:105440009091C00095FFFCCF8093C6003196849167
:10545000F5CF40911402509115026091160270919F
:10546000170283E898E00E94B05D2DEB37E346E039
:105470005EE360911002709111028091120290918E
:1054800013020E942BC9AB01BC0180E898E00E9486
:10549000B05D2DEB37E346E05EE360910C02709166
:1054A0000D0280910E0290910F020E94C2BCAB01CE
:1054B000BC018DE798E00E94B05D8091C00085FF3F
:1054C000FCCF8AE08093C600FE018491E1E8FAE017
:1054D000882349F09091C00095FFFCCF8093C600CF
:1054E00031968491F5CFEAE6F8E08491882341F083
:1054F0009091C00095FFFCCF8093C6003196F5CF08
:105500008091C00085FFFCCF8AE08093C600409167
:10551000BC165091BD166091BE167091BF1686E6FE
:1055200098E00E94B05D8091C00085FFFCCF8AE0CA
:105530008093C600FE018491E1E8FAE0882349F0F7
:105540009091C00095FFFCCF8093C6003196849166
:10555000F5CFE5E5F8E08491882341F09091C00013
:1055600095FFFCCF8093C6003196F5CF8091C000A7
:1055700085FFFCCF8AE08093C6004091E4165091ED
:10558000E5166091E6167091E71681E598E00E94B5
:10559000B05D8091C00085FFFCCF8AE08093C6009B
:1055A000FE01C491E1E8FAE0CC2349F08091C0000B
:1055B00085FFFCCFC093C6003196C491F5CFE0E4DF
:1055C000F8E08491882341F09091C00095FFFCCFD2
:1055D0008093C6003196F5CF8091C00085FFFCCF47
:1055E0008AE08093C6004091840B5091850B6091B6
:1055F000860B7091870B8CE398E00E94B05D8091E0
:10560000C00085FFFCCF8AE08093C600DF91CF9178
:105610000895EF92FF921F93CF93DF937C01C62FE3
:10562000D72F142F160FF701808191810E94DCC7BC
:105630008993F701808191810196918380831C1366
:10564000F2CFDF91CF911F91FF90EF900895EF92ED
:10565000FF921F93CF93DF937C01C62FD72F142F78
:10566000160F6991F701808191810E94E4C7F701CB
:10567000808191810196918380831C13F2CFDF9109
:10568000CF911F91FF90EF9008950F931F93CF93A9
:10569000DF93CDB7DEB72C970FB6F894DEBF0FBE01
:1056A000CDBF80E390E3A0E3B0E08D839E83AF8322
:1056B000B88704E610E01C870B8744E0BE016B5FEF
:1056C0007F4FCE010B96C3DF40E16EE27DE0CE015D
:1056D0000B96BDDF40E165E279E1CE010B96B7DFC5
:1056E00040E163E67DE0CE010B96B1DF44E06DE181
:1056F00079E1CE010B96ABDF44E061E279E1CE01C6
:105700000B96A5DF44E069E379E1CE010B969FDFBC
:1057100044E06DE379E1CE010B9699DF44E065E367
:1057200079E1CE010B9693DF44E069E179E1CE01A6
:105730000B968DDF44E065E179E1CE010B9687DFC2
:1057400044E061E179E1CE010B9681DF4CE064E653
:1057500079E1CE010B967BDF42E064E77BE0CE018E
:105760000B9675DF42E062E77BE0CE010B966FDFC0
:1057700042E060E77BE0CE010B9669DF42E06AE73A
:105780007BE0CE010B9663DF42E068E77BE0CE0171
:105790000B965DDF42E066E77BE0CE010B9657DFBC
:1057A00044E064E172E0CE010B9651DF44E060E139
:1057B00072E0CE010B964BDF44E06CE072E0CE016C
:1057C0000B9645DF44E06CEB76E1CE010B963FDFB4
:1057D00044E064EE76E1CE010B9639DF44E064E804
:1057E0007BE0CE010B9633DF42E069EF78E1CE013A
:1057F0000B962DDF42E067EF78E1CE010B9627DFB5
:1058000042E062E97BE0CE010B9621DF42E064E9F1
:105810007BE0CE010B961BDF42E062E87BE0CE012D
:105820000B9615DF42E06CE77BE0CE010B960FDFB5
:1058300042E060E87BE0CE010B9609DF42E06EE7D4
:105840007BE0CE010B9603DF42E064E57CE0CE0115
:105850000B96FDDE42E06DEA79E1CE010B96F7DEB4
:1058600080E290E09A87898742E0BE01675F7F4FC0
:10587000CE010B96ECDE86E590E3A8E3B0E08983E9
:105880009A83AB83BC831C870B8744E0BE016F5FA8
:105890007F4FCE010B96DBDEE1E8FAE084918823AE
:1058A00041F09091C00095FFFCCF8093C6003196E7
:1058B000F5CFECE2F8E08491882341F09091C000AC
:1058C00095FFFCCF8093C6003196F5CF8091C00044
:1058D00085FFFCCF8AE08093C6002C960FB6F89423
:1058E000DEBF0FBECDBFDF91CF911F910F91089505
:1058F000AF92BF92CF92DF92EF92FF920F931F93DE
:10590000CF93DF93CDB7DEB7E0970FB6F894DEBF45
:105910000FBECDBF80E1EEE6F2E0DE019196019090
:105920000D928A95E1F780E1EEE7F2E0DE01519613
:1059300001900D928A95E1F780E1EEE8F2E0DE0158
:10594000119601900D928A95E1F7DE0191966EE233
:105950007DE0AE014F5E5F4F25E239E1CE01019659
:105960005C0183E69DE08E010F5C1F4FCD90DD90C2
:10597000ED90FD90FB01C192D192E192F192BF01B5
:10598000FA01C190D190E190F190AF01F901C1927B
:10599000D192E192F1929F01F501C190D190E190F5
:1059A000F1905F01FC01C192D192E192F192CF019D
:1059B000A017B107D9F60E94455880E090E0AAEF01
:1059C000B3E480931D1990931E19A0931F19B093EF
:1059D00020198093211990932219A0932319B09331
:1059E00024191092391910923A1910923B191092F9
:1059F0003C1980E29EE4A0E0B0E0809335199093DA
:105A00003619A0933719B093381910923D19109296
:105A10003E1910923F191092401980E090E0A0E2E8
:105A2000B1E48093191990931A19A0931B19B0939C
:105A30001C198AE999E9A9E9BEE3809315199093A5
:105A40001619A0931719B093181980E090E0A0EAF6
:105A5000B0E48093111990931219A0931319B09385
:105A6000141910926C1910926D1910926E191092EF
:105A70006F19109268191092691910926A19109290
:105A80006B19109264191092651910926619109290
:105A9000671988EC90E09093750B8093740B1092CB
:105AA000730B1092720B1092710B1092700B8CEDA5
:105AB00090E090937B0B80937A0B83E290E090933D
:105AC000790B8093780B1092770B1092760B8AE00B
:105AD00097EDA1EBB1E48093140290931502A0938B
